:020000040800F2
:1000000028C30020459600084D9600084F9600082A
:10001000519600085396000855960008000000000D
:1000200000000000000000000000000057960008DB
:1000300059960008000000005B960008C58501087D
:100040005F9600085F9600085F9600085F960008BC
:100050005F9600085F9600085F9600085F960008AC
:100060005F9600085F9600085F9600085F9600089C
:100070005F9600085F9600085F9600085F9600088C
:100080005F9600085F9600085F9600085F9600087C
:10009000A19701085F9600085F9600085F96000828
:1000A0005F9600085F9600085F9600085F9600085C
:1000B0005F9600085F9600085F9600085F9600084C
:1000C0005F9600085F9600085F9600085F9600083C
:1000D0005F960008FD650008B5BA0108BFBA0108BF
:1000E0005F9600085F9600085F960008FDB2010861
:1000F0005F96000899B401085F9600085F960008B3
:100100005F9600085F9600085F9600085F960008FB
:10011000C9BA01085F9600085F9600085F9600085C
:100120005F9600085F9600085F9600085F960008DB
:100130005F9600085F9600085F9600085F960008CB
:10014000559901085F9600085F9600085F960008C1
:100150005F9600085F9600085F960008D3BA010812
:100160005F9600085F9600085F9600085F9600089B
:100170005F9600085F9600085F9600085F9600088B
:100180005F9600085F960008DFF814D01FF00CFEA1
:100190001EF026FB004800470B0800081FF01BFB61
:1001A00028C30020FEB442464B4654465D463EB44A
:1001B0001EF065F83EBC90469946A246AB46FEBC92
:1001C00000F032F8704700BF80EC200B7047C0ECA5
:1001D000200B704790EC200B7047D0EC200B704741
:1001E00085460D98DDF838E00F9B5DF8042B20E97B
:1001F0000C009DE8FE1F854601BD4DF808ED0DF190
:10020000080E4DF804ED2DE9FF1F002102B46946E8
:1002100081B01FF01CFDDDF840E012B07047000017
:10022000A4BB0200E4D102004DF808ED0DF1080E68
:100230004DF804ED2DE9FF1F002102B4694681B09D
:100240001FF06CBD2DE9F0472DED048B4FF0000938
:100250009FEDF90A10EE105A9FEDF70A10EE106AA2
:100260009FEDF50A10EE107A9FEDF30A10EE108A5A
:100270009FEDF10AB0EE408AB6EE000AF0EE408A39
:10028000B6EE000AB0EE409AB3EE040AF0EE409AE1
:10029000EA480078042803D0BDEC048BBDE8F08761
:1002A000E748807D00B9F7E7E548007F48B9E348B3
:1002B000007A28B1E148007A20F00200DF49087294
:1002C000EAE71BF0BBFFDF4801F0C5FADC48818993
:1002D0000122DC481CF0C8FCDB490870D848018AC0
:1002E0000322D8481CF0C0FCD7498871D448C18982
:1002F0000222D4481CF0B8FCD349C870D048418AC7
:100300000422D0481CF0B0FCCF494872002487E09A
:1003100004EB4400CC49085C012813D104EB4400F1
:1003200008448078401E00EB4000085C032809D197
:10033000002104EB4400C44A10448078401E00EBC6
:100340004000115404EB4400BF49085C022813D15B
:1003500004EB440008448078401E00EB4000085C39
:10036000032809D1022104EB4400B74A10448078E5
:10037000401E00EB4000115404EB4400B249085CFD
:10038000032817D104EB440008448078401E00EB9A
:100390004000085C03280DD1022104EB4400AA4A66
:1003A00010448078401E00EB40001154022004EB02
:1003B0004401505404EB4400A349085C78BB04EBAF
:1003C000440008448078401E00EB4000085C03288D
:1003D00025D1611CC8B21CF0FEFB48B1002104EB22
:1003E0004400994A10448078401E00EB40001154AC
:1003F00093480A30611C30F811009149C98B88423A
:100400000DDA022104EB44008F4A10448078401E2C
:1004100000EB40001154022004EB44015054641CD2
:10042000042CFFF675AF88480078012806D101F04A
:1004300059FB10EE105A01208349087382488079D5
:10044000012807D1032001F04DFB10EE105A0120C6
:100450007D4908737C48C078012807D1022001F04B
:10046000A3FB10EE106A0120774948737648407A62
:10047000012807D1042001F097FB10EE106A01203B
:100480007149487370480078022803D118EE105A59
:100490006D4908736C488079022805D1B1EE480A8D
:1004A00010EE105A684908736748C078022803D1D3
:1004B00018EE106A644948736348407A022805D1EF
:1004C000B1EE480A10EE106A5F4948735E48007842
:1004D000032805D1B1EE680A10EE105A5A49087384
:1004E00059488079032803D118EE905A5649087369
:1004F0005548C078032805D1B1EE680A10EE106A9D
:10050000514948735048407A032803D118EE906A45
:100510004D49487301201CF05EFB70B903201CF0AC
:100520005AFB50B94848007B022806D19FED420A89
:1005300010EE105A00204449087302201CF04BFBB7
:1005400070B904201CF047FB50B93F48407B02289B
:1005500006D19FED390A10EE106A00203A4948731F
:100560003948007B00281BDD3748407BC0B902209A
:100570001CF031FB40B1022001F016FB10EE106AB6
:100580000420314948730BE004201CF024FB38B1EF
:10059000042001F009FB10EE106A04202A49487378
:1005A0002948407B00281BDD2748007BC0B901207B
:1005B0001CF011FB40B1012001F094FA10EE105A2A
:1005C0000420214908730BE003201CF004FB38B120
:1005D000032001F087FA10EE105A04201A4908731C
:1005E0001948007B002803DC1748407B00283DDDCC
:1005F0004FF001091348B0F91C00B0F5FA7F02DD95
:1006000019EE107A0EE00F48B0F91C0010F5FA7FD1
:1006100004DAB1EE490A10EE107A03E09FED060A03
:1006200010EE107A0748B0F91E00B0F5FA7F0DDD24
:1006300019EE908A26E000000000000084000020EF
:10064000183600205036002078360020F648B0F9E1
:100650001E0010F5FA7F04DAB1EE690A10EE108A76
:1006600010E01FED0B0A10EE108A0BE04FF00009AE
:10067000002405E0002004EB4401EC4A5054641CC3
:10068000042CF7DB002409E004EB4400E749085C94
:1006900004EB4401E54A11444870641C042CF3DB6C
:1006A000B9F1000F0FD0E248C0F80150C0F8056062
:1006B000C0F80970C0F80D80DE48007A40F00200F2
:1006C000DC4908722AE0DB48007A28B1D948007A70
:1006D00020F00200D7490872D548D0F8010000EE9A
:1006E000100AB5EEC00AF1EE10FA06D01FED2E0A80
:1006F00010EE100ACE49C1F80100CD48D0F805002F
:1007000000EE100AB5EEC00AF1EE10FA06D01FEDA9
:10071000360A10EE100AC649C1F8050000BFBBE555
:10072000C54A107B517BC34A1278042A00D0704717
:10073000FC2801D0FC2910D10122BE4B5A70B7EE23
:10074000000A10EE102ABA4BC3F80920B94A127AEF
:1007500042F00102B74B1A721CE00022B54B5A70EE
:10076000B34AD2F8092000EE102AB5EEC00AF1EE25
:1007700010FA06D01FED500A10EE102AAC4BC3F849
:100780000920AC4A127A2AB1AA4A127A22F001024E
:10079000A84B1A7200BFCAE710B51BF00CFC012869
:1007A00001D1FFF7BDFF10BD0020A44908601AE089
:1007B000A349A24A1268885C411ECAB2A0499F4B55
:1007C0001B68CA5450B108469C490968405C28B966
:1007D00000219B48001D994A12688154974800687F
:1007E000401C96490860954800680428E0DB95485D
:1007F000407848B193484078401E92494870084676
:10080000407808B90120087070473EB505F096FDA4
:100810001BF0F6FB4FF47A7005F05EFE62208A4B07
:100820008AA28E4900908E4822F086FC0446601C05
:1008300038B1B4F5967F04D289498AA022F06CFCC5
:1008400002E089A022F068FC8FA092A194A296A356
:10085000CDE90021029096A297A19C4822F05CFC71
:100860006420794B79A27D4900907D4822F064FC98
:100870000446601C38B1B4F5967F04D2784979A05B
:1008800022F04AFC02E078A022F046FC00F0B3FC23
:10089000002802DA4FF0FF303EBD1BF0C9FC1DF00E
:1008A00035F81CF0A1FE1DF05BF91CF0FEFB0222E6
:1008B0004FF47A71AFF20F1019F0FDFE029004F0C0
:1008C000F1FD17E005F0F4FC1DF09FF900F039FF91
:1008D0001BF05DFC1CF01EFFFFF75EFF1DF01DF915
:1008E0001CF090FDFFF7AEFC18F085F918F037FE0C
:1008F00019F04AF9E6E710B52DED048B4D48007864
:10090000042802D0BDEC048B10BD4D482A38807DF0
:1009100000B9F7E74A482A38007F48B94548007AC5
:1009200028B14448007A20F0020042490872E9E701
:100930001BF093FC0446002C74D03E48007A40F033
:1009400002003C49087204F00100A0B13C492A3978
:10095000088C1EF005F941EC190B9FED5D0B53EC73
:10096000102B1EF00BF841EC180B1EF069F9304902
:10097000C1F801001EE004F00400A0B130492A399A
:10098000088C1EF0EDF841EC190B9FED530B53EC66
:10099000102B1DF0F3FF41EC180B1EF051F9244908
:1009A000C1F8010006E01FEDDC0A10EE100A204934
:1009B000C1F8010004F00200A0B121492A39088CD5
:1009C0001EF0CEF841EC190B9FED410B53EC102BB0
:1009D0001DF0D4FF41EC180B1EF032F91449C1F898
:1009E0000500A8E004F00800A0B115492A39088CD8
:1009F0001EF0B6F841EC190B9FED370B53EC102BA2
:100A00001DF0BCFF41EC180B1EF01AF90849C1F8A3
:100A1000050090E01FEDF80A10EE100A0449C1F835
:100A2000050088E05CE000005036002078360020A9
:100A30007C12002084000020D03C00200C0000200C
:100A400042360020EC00002074830208494D504FCC
:100A500052545F4E4F54494345000000E0AE020837
:100A6000BE1D0020257300004552524F523A206CA3
:100A70006F67207072696E74657220696E6E657240
:100A8000206661756C740A0031313A33353A313879
:100A900000000000466562203231203230313900DA
:100AA00030303034303000003030303630330000F9
:100AB0004F4D552D4E5244004D61696E426F61722B
:100AC000642D4E75636C65617252440024AF020858
:100AD0009A9999999999B93F9A9999999999B9BF78
:100AE000C848007A28B1C748007A20F00200C549FA
:100AF0000872C548D0F8010000EE100AB5EEC00A31
:100B0000F1EE10FA06D09FEDC10A10EE100ABE49B0
:100B1000C1F80100BC48D0F8050000EE100AB5EE9F
:100B2000C00AF1EE10FA06D09FEDB80A10EE100AD6
:100B3000B549C1F8050000BFE4E610B52DED0E8BF8
:100B40008EB0B0480078042803D00EB0BDEC0E8BF8
:100B500010BDAF48807D00B9F7E7AD48007F48B9C8
:100B6000A848007A28B1A748007A20F00200A549D9
:100B70000872EAE7A749096888680BF00FFF8DED56
:100B8000080ACDED090A8DED0A1ACDED0B1ADDED3F
:100B90000B1A9DED0A1ADDED090A9DED080A04F015
:100BA000F7FBB0EE409AF0EE609A9B49A1F1080085
:100BB00000F01BFEB0EE490AF0EE690A23F038F9A6
:100BC000B0EE40CAF0EE60CA9249096888680BF03E
:100BD0002FFF8DED090ACDED0A0A8DED0B1A9DED63
:100BE0000A0A10EE101A08461DF0E6FF41EC1D0B34
:100BF00053EC1C2B1DF0C2FE41EC1B0BB0EE490A5E
:100C0000F0EE690A23F0A4F8B0EE40CAF0EE60CA34
:100C10008049096888680BF00BFF8DED060ACDED61
:100C2000070A8DED081A9DED060A10EE101A084607
:100C30001DF0C2FF41EC1D0B53EC1C2B1DF09EFE62
:100C400041EC180B53EC1B2B1DF0F1FD41EC1A0B82
:100C50001DF0F6FF704908390861B0EE490AF0EE60
:100C6000690A23F075F8B0EE408AF0EE608A6949AF
:100C7000096888680BF0DCFE8DED090ACDED0A0AE3
:100C80008DED0B1A9DED0A0A10EE101A08461DF0A4
:100C900093FF41EC1D0B53EC182B1DF06FFE41EC44
:100CA0001B0BB0EE490AF0EE690A23F0C1F8B0EE72
:100CB00040DAF0EE60DA5749096888680BF0B8FE50
:100CC0008DED060ACDED070A8DED081A9DED060A99
:100CD000B1EE408A18EE100A1DF06EFF41EC1E0BBB
:100CE00053EC1D2B1DF04AFE41EC1C0B53EC1B2B4F
:100CF0001DF09DFD41EC1A0B1DF0A2FF464908397D
:100D0000486144480068816803A80CF022F803A8F1
:100D100007C809AB07C33F480068816868460CF004
:100D200018F89DE8070006AB07C3BDF92430BDF9EC
:100D30001A200CA90DA81BF01CFE04466CB1324908
:100D40000D98C1F801000C98C1F805002D48007AF3
:100D500040F002002B4908722AE02A48007A28B1A4
:100D60002848007A20F00200264908722648D0F868
:100D7000010000EE100AB5EEC00AF1EE10FA06D03E
:100D80009FED220A10EE100A1F49C1F801001E480B
:100D9000D0F8050000EE100AB5EEC00AF1EE10FA28
:100DA00006D09FED1A0A10EE100A1749C1F8050087
:100DB00000BFCAE610B500230A220121032013F068
:100DC00003F916490860062324220221032013F0A8
:100DD000FBF8134908601348017813480FF09AFF95
:100DE0000446124A12491DF00BFDDFED081A9FED73
:100DF000071ADFED060A9FED050A4A2102480CF0AA
:100E0000E7FD10BD840000207C12002000000000DF
:100E1000183600200800002058360020100000205E
:100E20001400002000000020B0070020000000088F
:100E30005D0D010870B504460D4600BF40210E4807
:100E400008F098FA0028F9D0E1B20B4808F0E2F96E
:100E5000204670BD10B500230A220121032013F0A3
:100E6000B3F806490860062324220221032013F068
:100E7000ABF80349086010BD004800401C0000208A
:100E80002000002000B58DB06148019061480C90B1
:100E900000231A4601A96048006812F084F80DB0DA
:100EA00000BD0FB42DE9F04788B00446DDF880811D
:100EB000BDF84600103802284CDCBDF85150C4F88B
:100EC0007C570D2211A904F26F701FF0D1F940F286
:100ED0007F70005D8DF80000112204F26F7103A88D
:100EE0001FF0C6F903A80FC808F0BEFB00B34B48BB
:100EF000008885421CD124F051FC824614F0A3FAEC
:100F0000074624F04BFC81462D20454B45A239462F
:100F10000090484614F043FA0646006844A18268EF
:100F20003046904700221146204611F0B6FB00BF24
:100F30003B48019040F27F70005D8DF80000112267
:100F400004F26F7103A81FF093F903A80FC809F00A
:100F5000F4F819E024F022FC824614F074FA0746F3
:100F600024F01CFC814634202D4B2EA239460090E3
:100F7000484614F014FA06469DF84C20006833A148
:100F800083683046984700BF3848008885420CD1B6
:100F900040F2E460005940B140F2E4621159206827
:100FA00016F078FE04203249087008B0BDE8F0075A
:100FB0005DF814FB70B500230A220121032013F011
:100FC00003F82C490860062324220221032012F092
:100FD000FBFF294908602948007800F0010000283B
:100FE00014D1264822F0D4F900280FD000250C2077
:100FF00022F06CF804460125002114F095F904460E
:1010000000251F4804601D48AFF3008070BD00003C
:101010001FBF0F003400002008000020EE870208E8
:10102000CF8302084552524F524C4F4700000000F8
:1010300053444B2076657273696F6E206469642037
:101040006E6F74206D617463680A000041434B2029
:10105000697320657863657074696F6E2C207365A1
:101060007175656E63652025640A0000DE870208DD
:1010700084000020280000202C0000205C060020B6
:101080006006002000F07F0200EE102AB8EEC00AD1
:10109000F0EE400A00EE101AB8EE400AB0EE401A28
:1010A00000F0800262B1DFED451AB0EE410A00EEB9
:1010B000A10AF1EE401A9FED422A81EE820A7047A2
:1010C000DFED3E1AB0EE410A00EEA10A9FED3C2A88
:1010D000C0EE021AB0EE610AF1E770B586B00446C0
:1010E0000D462068012802D10020206001E006B0F2
:1010F00070BD2079FA2802D16079FB2800D0F6E78C
:10110000A07920B1012808D0AA283AD108E000220D
:101110001146284611F0C1FA34E0FFF7B3FE31E082
:10112000A07B00EB80004000616A4143607B00EBE4
:1011300080004000626A4243207B00EB8000400058
:10114000636A4343E07A00EB80004000666A7043C4
:10115000CDE9023204910190A07A00EB80004000BA
:101160000090607A00EB80004300207A00EB800062
:101170004200E07900EB80004100124821F0CCFFF2
:1011800000E000BF00BF00BFB1E710B500230A2296
:101190000121032012F018FF0B49086006232422C6
:1011A0000221032012F010FF0849086008480021BE
:1011B00001608162C16200BF10BD00000000804379
:1011C0000000C84288AF0208780000207C000020A0
:1011D00090120020D548008820B1D4480088401ED5
:1011E000D2490880D248008820B1D1480088401EEA
:1011F000CF490880704738B50020CE49086041F2D9
:10120000883005F069F9CC490968086817F0E8F8F2
:1012100004460068816920468847002827D1572066
:10122000C64BC7A2C8A10090D54821F085FF05464E
:10123000681C38B1B5F5967F04D2D149D1A021F010
:101240006BFF02E0D0A021F067FF012000F020FD3D
:1012500000F023FDB848006830B1B74800680FF0CF
:101260007DFD054621F026FF4FF0FF3038BDCEA0B2
:1012700021F052FFD1A021F04FFFE0A021F04CFF60
:10128000E5A021F049FFF1A021F046FF1E2005F066
:1012900023F9A948006811F058FA4FF4FA7005F0E4
:1012A0001BF9A548006810F047F8002827D16B20EB
:1012B000A24BA3A2ED490090B14821F03DFF0546A5
:1012C000681C38B1B5F5967F04D2AD49ADA021F0C8
:1012D00023FF02E0ACA021F01FFF012000F0D8FCAA
:1012E00000F0DBFC9448006830B1934800680FF0D0
:1012F00035FD054621F0DEFE4FF0FF30B6E78E48A3
:10130000006810F019F8002836D08B48006810F0FB
:1013100013F8D749096888422ED28748006810F030
:101320000BF8D449884227D07620844B84A2CF4939
:101330000090934821F000FF0546681C38B1B5F5D0
:10134000967F04D28E498FA021F0E6FE02E08EA0A7
:1013500021F0E2FE012000F09BFC00F09EFC7648AC
:10136000006830B1744800680FF0F8FC054621F0C1
:10137000A1FE4FF0FF3079E74FF47A7005F0ACF83A
:1013800002221421AFF2B31019F095F90090012058
:101390006CE730B589B0B849A1F165001BF003FFD7
:1013A000A8B1B64890F8911100F5967001F02DF8AB
:1013B000B14D543D002408E001A800EB840105F183
:1013C0001F0050F824000860641C082CF4DB09B0EE
:1013D00030BD00B52DED028B8FB05548008818B98F
:1013E0000A205349088003E00FB0BDEC028B00BD1A
:1013F00051480068816801A80BF0CDFB1C2201A9AF
:1014000008A81EF035FF9DED0D8A9D48007B00B9B0
:10141000EAE7B1EE000AB4EEC08AF1EE10FA03DD9D
:101420000220974988600AE0B0EE080AB4EEC08A4C
:10143000F1EE10FA03D24FF0FF309149886000BFFF
:10144000D2E710B58CB03C49096888680BF0CEFC37
:101450000B9039480068816804A80BF07AFC04A856
:1014600007C808AB07C33449096888680BF026FD34
:101470000790BDF92800002801DC0CB010BD8148A0
:10148000007A00F0040058B17F48007840B900228B
:101490001146294800680FF041FE01207A49087082
:1014A0009DF82C00022800D0E7E77648007A002853
:1014B00024D19DF81D0000F0070002281DD1002254
:1014C00011461D4800680FF07DFD4FF490706F4B82
:1014D0006FA273A100902A4821F02EFE0446601CE2
:1014E00038B1B4F5967F04D2254926A021F014FE28
:1014F00002E025A021F010FE00BFBEE79DF81D0010
:1015000000F00700022810D0002211460A480068A7
:101510000FF004FE9DF81D0000F0070040F22711B7
:101520005A4B5BA2CDE90010CCE0E0E09000002037
:1015300092000020AC82424208000020F68302089C
:101540004552524F5200000025732025732C6C69C0
:101550006E652025643A20555341525420636F6DC7
:101560006D756E69636174696F6E206973206E6F4B
:101570007420776F726B696E672E0D0A0000000091
:10158000BE1D0020257300004552524F523A206C78
:101590006F67207072696E74657220696E6E657215
:1015A000206661756C740A000A5072657265717507
:1015B0006973697465733A0D0A000000312E205674
:1015C000656869636C6520636F6E6E6563746564DE
:1015D00020746F2074686520417373697374616E41
:1015E0007420616E642073696D756C6174696F6ECF
:1015F000206973204F4E0D0A00000000322E204259
:101600006174746572792066756C6C7920636861A9
:101610006E726765640D0A00332E20444A49474FB5
:101620002041707020636F6E6E656374656420285E
:10163000666F7220746865206669727374207469BD
:101640006D652072756E290D0A000000342E20474A
:10165000696D62616C206D6F756E7465642069667A
:10166000206E65656465640D0A000000F8AF02082D
:101670009C000020000A0103123600208134002063
:10168000883600208400002094000020FF83020898
:10169000494D504F52545F4E4F544943450000004E
:1016A00025732025732C6C696E652025643A206FA4
:1016B000657320636F6E74726F6C20636C6F7365FB
:1016C000640A0000F0A1FE4821F036FD0446601CCB
:1016D00040B1B4F5967F05D2F949AFF2581021F028
:1016E0001BFD03E0AFF2601021F016FD00BFF548CE
:1016F000007A00F0010020B9F248007A00F0020000
:10170000E8B1F048007A30B1EF48008818B90120FC
:10171000ED49088000E0B0E6EC48C1680091007C2B
:101720008DF80400EA4800681122E849C46802A85C
:101730001EF09EFD204602A90EC90CF0C3F800BFA2
:101740009BE600B585B0DF48007820B103282FD094
:10175000042846D139E00320DA490870DD480068E2
:101760004860FFF78FFBDA4800680FF0E5FDDA49C3
:10177000884208D0D649096848680EF045FB4FF406
:10178000FA7004F0A9FED248006802228168684617
:101790000BF0D2FC322004F09FFECD490968CF4AFD
:1017A000C869CF490DF03BFF322004F095FE19E0E7
:1017B000C4484068C7490968401A41F288318842E4
:1017C00002D30020BF4908700CE0FFF73AFEFFF794
:1017D00000FEFFF7DEFDBE490968086814F02AFF25
:1017E00000E000BF00BF05B000BD7FB504460D4658
:1017F000B749096888680BF0D1F88DED000ACDED86
:10180000010A8DED021ACDED031ADDED031A9DEDEF
:10181000021ADDED010A9DED000A03F0D1FD84ED11
:10182000000BAB49096888680BF0B8F88DED000A29
:10183000CDED010A8DED021ACDED031ADDED031A8F
:101840009DED021ADDED010A9DED000A03F0D0FDC9
:1018500085ED000B7FBD30B52DED0C8B99B00546A5
:101860009B480068816801A80BF095F91C2201A92A
:1018700012A81EF0FDFC96480068816805A80BF0D0
:1018800068FA05A807C80FAB07C3914909688868BB
:101890000BF0CEF88DED0C0ACDED0D0A8DED0E1A84
:1018A0008B49096888680BF079F88DED080ACDED51
:1018B000090A8DED0A1ACDED0B1A2C4684490968E8
:1018C00088680BF06BF88DED040ACDED050A8DEDFF
:1018D000061ACDED071ADDED071A9DED061ADDEDAE
:1018E000050A9DED040A03F06BFD84ED000B7849B9
:1018F000096888680BF052F88DED040ACDED050AF1
:101900008DED061ACDED071ADDED071A9DED061ACD
:10191000DDED050A9DED040A03F06AFD84ED020B7E
:10192000BDF83E006083BDF83C002083BDF8420056
:10193000A083BDF84000E083DDED0B1A9DED0A1A8F
:10194000DDED090A9DED080A03F022FDB0EE40DA54
:10195000F0EE60DA22F06CFAB0EE40BAF0EE60BA67
:101960009DED0D0A10EE101A08461DF025F941EC08
:101970001C0B53EC1B2B1DF001F841EC190BDDED9A
:101980000B1A9DED0A1ADDED090A9DED080A03F018
:10199000FFFCB0EE40DAF0EE60DA22F0D9F9B0EEFA
:1019A00040BAF0EE60BA9DED0C0A10EE101A08462F
:1019B0001DF002F941EC1C0B53EC1B2B1CF0DEFF5D
:1019C00041EC1A0B53EC192B1CF031FF41EC180BB6
:1019D0001DF036F92061DDED0B1A9DED0A1ADDEDE3
:1019E000090A9DED080A03F0D3FCB0EE40DAF0EEF0
:1019F00060DA22F0ADF9B0EE40BAF0EE60BA9DEDDB
:101A00000D0A10EE101A08461DF0D6F841EC1C0B1A
:101A100053EC1B2B1CF0B2FF41EC190BDDED0B1A44
:101A20009DED0A1ADDED090A9DED080A03F0B0FCF0
:101A3000B0EE40DAF0EE60DA22F0FAF9B0EE40BA39
:101A4000F0EE60BA9DED0C0AB1EE400A10EE101AED
:101A500008461DF0B1F841EC1C0B53EC1B2B1CF09D
:101A60008DFF41EC1A0B53EC192B1CF0E0FE41ECFE
:101A7000180B1DF0E5F860619DED170A84ED080A6A
:101A800019B0BDEC0C8B30BD25732025732C6C690F
:101A90006E652025643A2073646B696E666F2E64F0
:101AA00065766963655374617475733D25642C2094
:101AB0006F657320736574436F6E74726F6C0A0088
:101AC000BE1D002084000020900000207C12002019
:101AD0000800002090040020000A01038134002047
:101AE000D123000810B52DED068B04467249088CF1
:101AF0001DF036F841EC1A0B9FED700B53EC102BD8
:101B00001CF03CFF41EC190B1DF09AF808EE900A0E
:101B10006C4890ED040AB0EE408AB4EEE88AF1EE2B
:101B200010FA02DDB0EE688A25E0B1EE680AB4EE84
:101B3000C08AF1EE10FA04D2B1EE680AB0EE408A23
:101B400019E0B5EEC08AF1EE10FA0ADB38EE280A89
:101B500030EE080AF0EE080A80EE201AB0EE418A54
:101B600009E038EE080A30EE680AF0EE080A80EE66
:101B7000201AB0EE418A012C06D1B5EEC08AF1EEF2
:101B800010FA01D2B0EE688A032C08D1B5EEC08AF3
:101B9000F1EE10FA03DDB1EE680AB0EE408AB0EE65
:101BA000480ABDEC068B10BD10B52DED068B044622
:101BB0004149088C1CF0D4FF41EC1A0B9FED3F0B00
:101BC00053EC102B1CF0DAFE41EC190B1DF038F829
:101BD00008EE100A3B4890ED050AF0EE408AF4EE5C
:101BE000C88AF1EE10FA02DDF0EE488A25E0B1EE87
:101BF000480AF4EEC08AF1EE10FA04D2B1EE480AB7
:101C0000F0EE408A19E0F5EEC08AF1EE10FA0ADB38
:101C100038EEA80A30EE080AF0EE080A80EE201A24
:101C2000F0EE418A09E038EEA80A30EE480AF0EEFC
:101C3000080A80EE201AF0EE418A022C06D1F5EE59
:101C4000C08AF1EE10FA01D2F0EE488A042C08D1D5
:101C5000F5EEC08AF1EE10FA03DDB1EE480AF0EEBF
:101C6000408AB0EE680ABDEC068B10BD10B50023AB
:101C70000A220121032012F0A7F913490860062364
:101C800024220221032012F09FF91049086010BDA0
:101C900000F0010181F313887047BFF34F8F0C48A8
:101CA000006800F4E0600B490843001D0849086023
:101CB000BFF34F8F00BFFEE7183600209A9999991D
:101CC0009999B93F50360020980000209C000020D0
:101CD0000CED00E00000FA05F0B52DED088BA5B085
:101CE00000244FF4FA661427FE4800681422816825
:101CF0000EA80BF021FAE6E0FA49096888680BF0B3
:101D000075F82490F7480068816807A80AF043FF37
:101D10001C2207A91DA81EF0ABFAF24800688168D2
:101D20000BA80BF016F80BA807C81AAB07C3ED49B0
:101D3000096888680AF07CFE8DED170ACDED180A57
:101D40008DED191AE749096888680AF027FE8DEDBC
:101D5000130ACDED140A8DED151ACDED161A214694
:101D6000E1A021F0D9F9E4A021F0D6F99DF8901076
:101D7000E4A021F0D1F99DED210A10EE101A0846D9
:101D80001CF01AFF41EC180B8DED028B9DED1F0B23
:101D90008DED000B9DED1D1BB0EE410AF0EE610ACA
:101DA00053EC102BDCA021F0B7F9BDF96E000090C8
:101DB000BDF96C30BDF96A20BDF96810DFA021F0D3
:101DC000ABF99DED190A10EE101A08461CF0F4FE4E
:101DD00041EC180B9DED180A10EE101A08461CF085
:101DE000EBFE41EC190B9DED170A10EE101A084698
:101DF0001CF0E2FE41EC1A0B8DED028B8DED009B89
:101E000053EC1A2BD8A021F087F99DED160A10EE9D
:101E1000101A08461CF0D0FE41EC180B9DED150A77
:101E200010EE101A08461CF0C7FE41EC190B9DED90
:101E3000140A10EE101A08461CF0BEFE41EC1A0BF4
:101E40009DED130A10EE101A08461CF0B5FE41EC89
:101E50001B0B8DED048B8DED029B8DED00AB53ECD8
:101E60001B2BCBA021F058F99E480068816868467A
:101E70000AF091FE1C22694607A81EF0F9F99DEDB3
:101E80000C0A10EE101A08461CF096FE41EC180BD6
:101E900053EC182BCCA021F03FF9924909688868CF
:101EA0000BF00CF80D909DF8350000F00705294661
:101EB000C9A021F031F9CEA021F02EF932344FF42F
:101EC000FA7004F009FBB442FFF616AFCBA021F084
:101ED00023F9012025B0BDEC088BF0BD2DE9F04FB2
:101EE0002DED088BA1B0002020904FF47A601F9058
:101EF00000201E900124C54800681D9001201C9000
:101F000000267849CDE9006409681DAB48681C9A31
:101F10001E990DF0F2FE05462DB9284621B0BDEC04
:101F2000088BBDE8F08F6F49096848681E990EF06C
:101F300081F84FF4FA7004F0CFFA01201E900A24C1
:101F4000B248001D00681B9001201C9000266549C6
:101F5000CDE9006409681BAB48681C9A1E990DF016
:101F6000CCFE05460DB92846D8E75E4909684868A1
:101F70001E990EF05FF84FF4FA7004F0ADFA0220EB
:101F80001E903224A148083000681A9002201C904C
:101F900000265449CDE9006409681AAB48681C9AC8
:101FA0001E990DF0AAFE05460DB92846B6E74D4923
:101FB000096848681E990EF03DF84FF4FA7004F075
:101FC0008BFA03201E90C8240020199001201C9039
:101FD00000264449CDE90064096819AB48681C9A99
:101FE0001E990DF08AFE05460DB9284696E73D4933
:101FF000096848681E990EF01DF84FF4FA7004F055
:102000006BFA4FF4FA5004F067FA4FF47A674FF422
:10201000FA780020069033490968086816F0E0F95C
:1020200083460068C1685846884710EB070A00BF1E
:102030002C490968486823F0AFFA189029480068CD
:102040004168684623F034F91822694612A81EF048
:102050000FF924480068416803A823F087F903A812
:1020600007C80FAB07C31F480068416802A823F0E8
:1020700037FB02A80FC8CDE90D23CDE90B011949A3
:102080000968486823F0B2F88DED070ACDED080A1B
:102090008DED091ACDED0A1A13A0209921F03CF814
:1020A00015A021F039F817A0189921F035F89DED09
:1020B000160A10EE101A08461CF07EFD41EC180BB3
:1020C0008DED028B9DED120B8DED000B9DED141B24
:1020D000B0EE410AF0EE610A53EC102B0EA021F095
:1020E0001BF895E008000020436F756E7465722040
:1020F0003D2025643A0A00002D2D2D2D2D2D2D0A71
:1021000000000000466C6967687420537461747540
:1021100073203D2025640A00506F736974696F6EE7
:1021200020284C4C4129203D20252E33662C20258B
:102130002E33662C20252E33660A0000524320439E
:102140006F6D6D616E64732028722F702F792F74FC
:10215000687229203D2025642C2025642C202564CC
:102160002C2025640A00000056656C6F6369747941
:10217000202876782C76792C767A29203D20252EF9
:1021800033662C20252E33662C20252E33660A003C
:102190004174746974756465205175617465726EFB
:1021A000696F6E2028772C782C792C7A29203D2095
:1021B000252E33662C20252E33662C20252E3366C3
:1021C0002C20252E33660A00686569676874203DF7
:1021D0002025660A00000000636F6E74726F6C4405
:1021E000657669636528645329203D2025640A00CB
:1021F0002D2D2D2D2D2D2D0A0A000000446F6E650A
:10220000207072696E74696E67210A00208402086A
:10221000BDF942000090BDF94030BDF93E20BDF946
:102220003C10AFF2E80020F077FF9DED0D0A10EEB4
:10223000101A08461CF0C0FC41EC180B9DED0C0A6E
:1022400010EE101A08461CF0B7FC41EC190B9DED7E
:102250000B0A10EE101A08461CF0AEFC41EC1A0BEB
:102260008DED028B8DED009B53EC1A2BAFF2081015
:1022700020F052FF9DED0A0A10EE101A08461CF0DD
:102280009BFC41EC180B9DED090A10EE101A084654
:102290001CF092FC41EC190B9DED080A10EE101A8F
:1022A00008461CF089FC41EC1A0B9DED070A10EE64
:1022B000101A08461CF080FC41EC1B0B8DED048BC2
:1022C0008DED029B8DED00AB53EC1B2BAFF240105C
:1022D00020F022FFAFF2E80020F01EFF4FF4FA706A
:1022E00004F0FAF835490968086816F079F881466B
:1022F0000068C1684846884710EB080006900698B9
:102300005045FFF495AEAFF20C1020F005FF2B49BD
:102310000968486800210EF0C4F840F6B83004F0AF
:10232000DBF826490968486801210EF0BAF840F642
:10233000B83004F0D1F821490968486802210EF04C
:10234000B0F840F6B83004F0C7F81C49096848688E
:1023500003210EF0A6F840F6B83004F0BDF80120D5
:10236000DCE570B500230A220121032011F02CFEC8
:1023700013490860062324220221032011F024FEC1
:10238000104908601048007800F00100002814D1BE
:102390000D4820F0FDFF00280FD000250C2020F074
:1023A00095FE04460125002112F0BEFF04460025DB
:1023B000064804600448AFF3008070BD08000020A8
:1023C000A4000020A80000205C0600206006002079
:1023D0000FB42DE9F0478146589D2E4606F1C807F7
:1023E0000DF13108BDF82600123884B2142C08DB38
:1023F000642C06DC2246414638461DF039FF86F83B
:102400009041BDE8F0075DF814FB70B504460D4639
:10241000D14909682A46C86921460DF0C7F800204D
:10242000CE490860CE480068CE49086070BD0FB440
:102430002DE9F04389B00446609FBDF8460010388E
:10244000022865D80D2211A904A81DF011FF20460D
:102450000EF072FFC449884204D09DF85100CDF8B7
:102460001D0003E0BDF85100CDF81D009DF82000CF
:102470008DF8000004A80FC807F0F6F848B1BB4873
:1024800001909DF820008DF8000004A80FC807F007
:1024900054FE9DF844008DF808009DF845008DF825
:1024A000090012988078072809D00222B04902A8B2
:1024B0001CF07DF888B11298807801280DD1052094
:1024C000ADF80C00BDF81D0080B2ADF80E0004227E
:1024D00003A9E0690DF06AF819E0129880780828DD
:1024E00008D00222A24902A81CF061F878B1129823
:1024F000807860B90620ADF80C00BDF81D0080B2F0
:10250000ADF80E00042203A9E0690DF04FF819E0C0
:1025100023F044F9814612F096FF064623F03EF977
:102520008046DB20914B93A231460090404612F04A
:1025300036FF05469DF84C20006891A18368284627
:10254000984700BF09B0BDE8F0035DF814FB0FB475
:102550002DE9F04F87B00546609F91480088CDF87F
:1025600015004FF0010828460EF01BFD8146BDF80E
:1025700046001038022809D8BDF85100CDF81500E2
:102580000D2211A902A81DF073FE19E023F006F92F
:10259000834612F058FF064623F000F982468C204D
:1025A000804B74A231460090504612F0F8FE04466B
:1025B0009DF84C20006872A183682046984700BFB0
:1025C000DDF8150078490988884206D10022AFF26B
:1025D000810128460EF0A2FD25E0DDF815007349C3
:1025E0000988884206D10022AFF29D0128460EF0EC
:1025F000E9FC18E012988078012803D10220ADF898
:10260000040005E01298807810B90320ADF80400AA
:10261000BDF8150080B2ADF80600042201A9E869F2
:102620000CF0C4FF00BF07B0BDE8F00F5DF814FB6D
:102630000FB470B50646549DBDF82140022C06D05B
:10264000032C0CD0052C12D0062C44D129E00022FA
:10265000AFF20511404800680EF060FD3CE000223A
:10266000AFF215113C4800680EF0ACFC34E03A487B
:1026700000680EF061FE3C49884209D0364909687D
:102680000023AFF25522C86807210AF050FE07E088
:10269000314909680022C868AFF26D210AF0C8FF0D
:1026A0001AE02D4800680EF047FE2F49884209D0F5
:1026B000294909680023AFF28922C86808210AF075
:1026C00036FE07E0244909680022C868AFF2A1215C
:1026D0000BF00EF800E000BF00BF70BC5DF814FB0B
:1026E0007FB5054654AC1C480068816868460AF00E
:1026F00056FB9DE80F0084E80F007FBD70B50023F6
:102700000A220121032011F05FFC294908600623F9
:1027100024220221032011F057FC26490860264894
:10272000007800F00100002814D1234820F030FE8A
:1027300000280FD000250C2020F0C8FC04460125FD
:10274000002112F0F1FD044600251C4804601A48DF
:10275000AFF3008070BD000008000020A0024342DB
:102760009004002094040020000A01034984020818
:10277000758602084552524F524C4F4700000000E8
:1027800041434B20697320657863657074696F6E8F
:102790002C2073657175656E63652025640A0000E1
:1027A0005C8702082A840208F6870208F887020874
:1027B000B0000020B40000205C060020600600206D
:1027C0002DE9FE43814601260A24FD480068029057
:1027D00002274FF00008FB49CDE90084096802ABED
:1027E0003A46486831460DF088FA054615B928463C
:1027F000BDE8FE83F3490968486831460DF01AFCCC
:102800004FF4FA5003F068FE0120F1E730B52DEDEA
:10281000028B85B00546284624F037FF044620E0A9
:10282000641C216908461CF0C7F941EC180B8DEDBA
:10283000028BA068E168CDE9000120686168641E30
:1028400041EC100B53EC102BDFA020F065FCDD49B0
:102850000968096A00231A464868214612F068FA96
:102860005A34284624F00DFFA042D9D105B0BDEC62
:10287000028B30BD9FEDDE0A10EE101A40F8151FD6
:1028800000218180C1800172417464214182017DF7
:1028900021F00F010175017D21F0F001017515385E
:1028A000002108E0002300F12A025354103202EB09
:1028B00041021380491C1029F4DB70472DE9F047D1
:1028C0002DED0C8B98B006468846B0EE408AF0EEAF
:1028D000608A1546344617A824F07FFB0746394620
:1028E000204624F079FB0446002020606060A06050
:1028F00000BF264628461CF022F941EC1A0B53EC87
:102900001A2B9FEDBC0B51EC100B1CF0A9F841ECFD
:10291000190B002088F800004146304624F0B9FE2B
:10292000012476E0B146A4F1010A484624F0ADFE48
:10293000CAEB0A1101EB410100EB41000746684672
:10294000FFF798FFE0B28DF8000020461CF0F7F882
:1029500053EC192B1CF012F841EC1C0BB0EE4C0A96
:10296000F0EE6C0A21F0F4F9B0EE40BAF0EE60BA85
:1029700053EC182B51EC1B0B1CF000F841EC1A0B1C
:1029800057F8010F796841EC100B53EC102B51EC08
:102990001A0B1BF04CFFCDF80100CDF805102046B6
:1029A0001CF0CDF853EC192B1BF0E8FF41EC1C0B8D
:1029B000B0EE4C0AF0EE6C0A21F03AFAB0EE40BAF2
:1029C000F0EE60BA53EC182B51EC1B0B1BF0D6FF4A
:1029D00041EC1A0BB868F96841EC100B53EC102B62
:1029E00051EC1A0B1BF023FFCDF80900CDF80D10A8
:1029F00038697F1E00EE100AF7EE000A30EE200A5A
:102A000010EE100ACDF811006946304624F041FE60
:102A1000641CAC4286DB88F800504146304624F006
:102A200038FE18B0BDEC0C8BBDE8F08730B52DED4D
:102A3000068BABB005460C46B0EE409AF0EE609ABD
:102A4000B0EE418A4FF4FA5003F046FD14A8FFF7A8
:102A500011FF5C4800680EF06FFC6849884232D074
:102A600058480068416801A822F022FC182201A9F8
:102A70000EA81DF0FDFBDDE91001CDF85100CDF8E9
:102A80005510DDE90E01CDF85900CDF85D1018EEB6
:102A9000100ACDF8610018EE100A1CF08DF841EC18
:102AA0001A0B8DED02AB9DED0E0B8DED000B9DED28
:102AB000101BB0EE410AF0EE610A53EC102B50A04F
:102AC00020F02AFB31E03F480068816868460AF040
:102AD00062F81C22694607A81DF0CAFBDDE9070160
:102AE000CDF85100CDF85510DDE90901CDF85900B8
:102AF000CDF85D1018EE100ACDF8610018EE100A3E
:102B00001CF05AF841EC1A0B8DED02AB9DED090B50
:102B10008DED000B9DED071BB0EE410AF0EE610A52
:102B200053EC102B36A020F0F7FA2246B0EE490AFB
:102B3000F0EE690A14A92846FFF7C0FE2BB0BDECE1
:102B4000068B30BDB2EE040A10EE101AC01C40F81D
:102B5000021CB1EE040A10EE101AC0F80210002197
:102B600081710121C17100210172417201218172C3
:102B70000021C1729FED2C0B52EC101BC160026151
:102B80009FED290B52EC101B416182619FED180AE9
:102B900010EE101AC161C01E704710B52DED048BE8
:102BA00096B00446074800680EF0C6FB13498842F9
:102BB00046D004480068FFF703FE00B938E03FE064
:102BC0007484020808000020576179706F696E7480
:102BD000206372656174656420617420284C4C41E7
:102BE000293A20256620092566200925660A200045
:102BF00000000000182D4454FB211940000A010375
:102C0000576179706F696E74206372656174656471
:102C100020617420284C4C41293A20256620092542
:102C200066200925660A0000000000000000000080
:102C3000E1A020F071FA002016B0BDEC048B10BDAD
:102C400009A8FFF77FFF601CC0B28DF824009FED3C
:102C5000E29BB2EE048A09A80090E14800680123D3
:102C60000022016A01A80CF04BFA4FF4FA7003F04D
:102C700033FCDB490968086A0CF06FFBD9A020F02F
:102C80004BFAB0EE481AB0EE490AF0EE690A214656
:102C900006A8FFF7CBFEDCA020F03EFA06A8FFF75F
:102CA000B5FDDFA020F038FACD490968096A486807
:102CB000CB490968096A4968096800228B6811468E
:102CC00098474FF4FA7003F007FCDBA020F024FAD9
:102CD000C3490968486801210DF0E3FB40F6B830AC
:102CE00003F0FAFB06A824F0FBFC0120A4E710B5D2
:102CF0002DED068B96B00446B94800680EF01CFB1B
:102D0000D44988420CD0B6480068FFF759FD38B95D
:102D1000A9A020F001FA002016B0BDEC068B10BD72
:102D200000200090AE48006801231A46016A02A8FC
:102D30000CF0E6F9AA490968086A0CF00EFBA848ED
:102D400000680EF0F9FAC349884226D0A44800680A
:102D5000416801A822F0ACFA182201A910A81DF0C0
:102D600087FA20461BF0EBFE41EC180B9DED122B71
:102D7000B0EE421AF0EE621A9DED102BB0EE420A50
:102D8000F0EE620A96490968096AB0EE482AF0EE48
:102D9000682A88680BF0CDFD25E0914800688168BD
:102DA000684609F0F8FE1C22694609A81DF060FA81
:102DB00020461BF0C4FE41EC180B9DED092BB0EE34
:102DC000421AF0EE621A9DED0B2BB0EE420AF0EEC5
:102DD000620A83490968096AB0EE482AF0EE682A57
:102DE00088680BF0A6FD00F09DF99BA020F094F9F7
:102DF0007B490968096A886879490968096A8968A4
:102E0000096800228B68114698474FF4FA7003F066
:102E100063FB4FF47A6003F05FFB9AA020F07CF92B
:102E20006F490968096A88686D490968096A89688B
:102E3000096800228B691146984741F2883003F0F7
:102E40004BFB94A020F068F965490968096A886815
:102E500063490968096A8968096800220B6A114692
:102E600098474FF47A6003F037FB20461BF067FE6B
:102E700041EC190B9FED890B53EC102B1BF07EFDE1
:102E800041EC180B53EC182B86A020F045F9204696
:102E90001BF055FE41EC1A0B9FED800B53EC102BF1
:102EA0001BF06CFD41EC190B1BF0CAFE08EE100A7A
:102EB0004B490968096A002288681146B0EE480A41
:102EC0000BF0EAFA42F2107003F006FB80A020F04B
:102ED00023F901208DF81C00B1EE040A10EE100A4F
:102EE000CDF81D003E490968096A00231A46886822
:102EF00007A90BF037FA42F2107003F0EDFA44F62E
:102F0000206003F0E9FA7FA020F006F9344909684F
:102F1000096A886832490968096A8968096800226B
:102F20000B69114698474FF47A7003F0D5FA77A0F1
:102F300020F0F2F82A4800680EF0FEF94549884270
:102F400009D027490968486801210DF0AAFA40F61E
:102F5000B83003F0C1FA00F0ACFADDE670B500233A
:102F60000A220121032011F02FF86A490860062384
:102F700024220221032011F027F8674908606748DE
:102F8000007800F00100002814D1644820F000FA15
:102F900000280FD000250C2020F098F804460125C9
:102FA000002112F0C1F9044600255D4804605B4829
:102FB000AFF3008070BD00004661696C65642074E9
:102FC0006F20736574207570205375627363726926
:102FD0007074696F6E210A008DEDB5A0F7C6B03E22
:102FE00008000020496E697469616C697A696E67CE
:102FF00020576179706F696E74204D697373696FC2
:103000006E2E2E0A000000004372656174696E67BF
:1030100020576179706F696E74732E2E0A0000005C
:1030200055706C6F6164696E6720576179706F6964
:103030006E74732E2E0A00005374617274696E6789
:1030400020576179706F696E74204D697373696F71
:103050006E2E0A00000A01035374617274207769AE
:1030600074682064656661756C7420726F74617435
:10307000696F6E20726174653A203135206465672E
:103080002F730000506175736520666F7220357371
:103090000A000000526573756D650A0000000000AB
:1030A0000000F83F55706461746520726164697551
:1030B0007320746F20312E35783A206E6577207238
:1030C0006164697573203D2025302E33660A000047
:1030D00055706461746520686F74706F696E7420D8
:1030E000726F746174696F6E20726174653A206EDC
:1030F00065772072617465203D2035206465672FF7
:10310000730A000053746F700A0000004C616E6413
:103110000A000000BC000020C00000205C06002067
:10312000600600202DE9F04F2DED048B9BB0FA488E
:1031300000680EF001F9F94988422AD00020199060
:103140004FF00A0AF64800681590022014900020FB
:1031500013901398F049CDE9000A096815AB486847
:10316000149A19990CF0C9FD8346BBF1000F05D1E3
:1031700058461BB0BDEC048BBDE8F08FE6490968EA
:10318000486819990CF056FF4FF4FA7003F0A4F94F
:1031900000BFE14909680022C86811460AF0EBFA4D
:1031A0004FF4FA7003F098F943F698244FF4FA7547
:1031B00000270020189017901690D74909680868D2
:1031C00015F00EF980460068C16840468847061928
:1031D00000BF4FF4FA6003F07FF9CF4800680EF0AB
:1031E000ABF8CE49884210D0CB490968486822F034
:1031F000D3F9012820D1C8490968486822F01EFA8D
:10320000292819D10120189023E0C349096888684A
:1032100009F0ECFD14909DF85000022809D0BE4939
:103220000968886809F0E2FD15909DF854000328AC
:1032300002D1012018900CE0B7490968086815F020
:10324000CFF882460068C168504688474719B742A0
:10325000BFD300BF1898A0B9B2A01FF05DFFAE4861
:1032600000680EF069F8AD49884208D0AA4909689B
:10327000486819990DF015F9322003F02DF9002056
:1032800077E7B3A01FF048FFA3490968086815F065
:10329000A7F881460068C16848468847061900BFFC
:1032A0004FF4FA6003F018F99B4800680EF044F8F8
:1032B0009A49884217D098490968486822F06CF901
:1032C00002281DD194490968486822F0B7F90A28F4
:1032D00006D091490968486822F0B0F90B280FD14F
:1032E0000120179019E08C490968886809F07EFD73
:1032F00015909DF85400032802D1012017900CE08E
:1033000085490968086815F06BF882460068C1684D
:10331000504688474719B742C2D300BF1798A8B98B
:1033200091481FF0F9FE7C4800680EF005F87B49D3
:10333000884209D078490968486819990DF0B1F8B0
:103340004FF4FA7003F0C8F8002012E787A01FF0CE
:10335000E3FE71490968086815F042F81A900068A0
:10336000C1681A98884706196B4800680DF0E4FF99
:103370006A49884223D000BF4FF4FA6003F0ACF8EA
:1033800065490968486822F059F90A2806D1624956
:103390000968486822F052F90B2802D001201690E3
:1033A0000CE05D490968086815F01AF88246006863
:1033B000C168504688474719B742DDD300BF564819
:1033C00000680DF0B9FF5549884220D0524909687C
:1033D000486822F033F9062806D14F490968486841
:1033E00022F02CF9012803D066A01FF095FE4DE0D5
:1033F0006A481FF091FE48490968486819990DF01C
:1034000050F84FF4FA7003F067F80020B1E6424834
:103410000068816808A809F0BEFB00BF40F6B8301C
:1034200003F05AF83C480068816801A809F0B3FB32
:103430001C2201A90FA81CF01BFFDDED130A9DED56
:103440000C1A30EEC10AB0EEC08A00BF9DED130A1F
:103450008DED0C0A18EE100A1BF0AEFB41EC190BB7
:103460009FED4F0B53EC102B1BF0D2FBD6D99DEDEB
:10347000130A10EE101A08461BF09EFB41EC190BC4
:1034800053EC192B48A01FF047FE00BF22480068EC
:103490000DF052FF2149884209D01F490968486848
:1034A00019990CF0FEFF40F6B83003F015F8012032
:1034B0005FE62DE9F04F93B047F230544FF4FA75C0
:1034C0004FF0000A00201290119010900F900A20E7
:1034D0000E90114800680DF02FFF104988427FD0F0
:1034E0000F48001D00680D9002200C904FF0000B5B
:1034F0000E9880B20849CDE900B009680DAB486864
:103500000C9A0F990CF0F9FB8146B9F1000F5CD1D0
:10351000484613B0BDE8F08F08000020000A010300
:103520007884020854616B656F6666206661696C19
:1035300065642E204D6F746F7273206661696C65CF
:103540006420746F207374617274210A000000009B
:103550000A5375636365737366756C2074616B657C
:103560006F6666210A000000F4B0020856656869BB
:10357000636C6520617363656E64696E672E2E2EC1
:103580000A00000056656869636C652069732068ED
:103590006F766572696E670A0000000044B0020829
:1035A0003BDF4F8D976E823F416972637261667433
:1035B00020686F766572696E6720617420252E35EC
:1035C000666D21200A0000000AE0FE49096848688B
:1035D0000F990CF02FFD4FF4FA7002F07DFF00BF41
:1035E000F84909680022C86811460AF04AF94FF400
:1035F000FA7002F071FFF3490968086814F0F0FEF0
:1036000007460068C16838468847061900BF4FF46E
:10361000FA6002F061FFEB4800680DF08DFEEA49A8
:10362000884209D0E7490968486822F007F80C2861
:103630000FD1012012901AE0E2490968886809F068
:10364000D5FB0D909DF83400042802D00120129083
:103650000DE0DC490968086814F0C2FE8146006884
:10366000C1684846884710EB050AB245CFD300BF72
:103670001298B8B9D5A01FF04FFDD24800680DF0E0
:103680005BFED149884209D0CE49096848680F9944
:103690000CF007FF4FF4FA7002F01EFF002013B089
:1036A000BDE8F08FD5A01FF037FDC649096808684E
:1036B00014F096FE80460068C168404688470619A7
:1036C00000BF4FF4FA6002F007FFBE4800680DF03B
:1036D00033FEBD4988421ED0BA490968486821F0C6
:1036E000ADFF0C2846D0B7490968486821F054FF5F
:1036F00002283FD0B3490968486821F09FFF062897
:1037000006D1B0490968486821F098FF012831D0F6
:10371000012011903CE0AB490968886809F066FB1C
:103720000D909DF83400052803D1642002F0D4FEEA
:1037300020E000BF4FF4FA6002F0CEFEA14800681E
:103740008168684609F027FA1C22694607A81CF020
:103750008FFD9DED0B0AB5EEC00AF1EE10FAE9D12E
:103760009DED0B0AB5EEC00AF1EE10FA01D1012071
:10377000119000BF93490968086814F031FE814632
:103780000068C1684846884710EB050AB24598D3DF
:1037900000BF119818B19EA01FF0BEFC15E0A24812
:1037A0001FF0BAFC874800680DF0C6FD86498842C4
:1037B00009D08449096848680F990CF072FE4FF4EB
:1037C000FA7002F089FE002069E77E4800680DF07B
:1037D000B3FD7D49884209D07A49096848680F9944
:1037E0000CF05FFE40F6B83002F076FE012056E79E
:1037F0002DE9F05F2DED0A8B83460E4614461D46DB
:10380000704800680DF098FD6F49884250D02746F7
:10381000A9464D46D9F80000D9F8041041EC100B28
:103820003C463868796853EC102B1BF0A1F841EC4A
:10383000180BD9F80800D9F80C1041EC100BB86837
:10384000F96853EC102B1BF093F841EC190B9FED2A
:10385000770B53EC102B51EC190B1BF08FF81BF06E
:10386000EFF93060B868F96841EC100B20F070FA9D
:10387000B0EE40BAF0EE60BA9FED6C0B53EC102B3B
:1038800051EC180B1BF07AF853EC1B2B1BF076F85D
:103890001BF0D6F97060386900EE100AD9F81000F4
:1038A00000EE900A30EE600A10EE100AB06056E0AA
:1038B000A046AA465546DAF80800DAF80C1041ECA2
:1038C000100B4446D8F80800D8F80C1053EC102B15
:1038D0001BF04EF841EC180BDAF80000DAF804108F
:1038E00041EC100BD8F80000D8F8041053EC102B62
:1038F0001BF03EF841EC190B9FED4C0B53EC102BD9
:1039000051EC190B1BF03AF81BF09AF93060D8F81B
:103910000000D8F8041041EC100B20F019FAB0EEBA
:1039200040BAF0EE60BA9FED410B53EC102B51EC16
:10393000180B1BF023F853EC1B2B1BF01FF81BF08C
:103940007FF97060D8F8100000EE100ADAF8100065
:1039500000EE900A30EE600A10EE100AB060BDEC86
:103960000A8BBDE8F09F30B52DED108B85B0044675
:103970002546A86800EE100A20EE000A10EE101A84
:1039800008461BF019F941EC190BE86800EE100A23
:1039900020EE000A10EE101A08461BF00DF941EC5B
:1039A0001F0B53EC192B1AF042FF41EC1E0B9FED3D
:1039B000210B53EC102B1AF0E1FF41EC1D0B9FED96
:1039C0001F0B3FE008000020000A01034C616E64F9
:1039D000696E67206661696C65642E204169726357
:1039E00072616674206973207374696C6C20696EEF
:1039F00020746865206169722E0A00005665686946
:103A0000636C65206C616E64696E672E2E2E0A00F1
:103A10005375636365737366756C206C616E64695E
:103A20006E67210A000000009CB002080000004000
:103A3000A654584100000000000000C00000000033
:103A40000000F03F53EC102B1AF0F1FE41EC1A0B82
:103A5000686800EE100AA86800EE900A20EE201AAE
:103A6000286800EE100AE86800EE900A00EE201ABE
:103A700011EE101A08461BF09FF841EC1D0B9FED4C
:103A8000FE0B53EC102B1AF079FF41EC1B0B68680E
:103A900000EE100AE86800EE900A20EE201A28686E
:103AA00000EE100AA86800EE900A00EE601A11EE0F
:103AB000101A08461BF080F841EC1D0B1FED230B7C
:103AC00053EC102B1AF05AFF41EC180BA86800EECB
:103AD000100AE86800EE900A20EE201A286800EE2E
:103AE000100A686800EE900A00EE201A11EE101A13
:103AF00008461BF061F841EC1D0B9FEDDF0B53EC0A
:103B0000102B1AF03BFF41EC1C0B686800EE100A0A
:103B100020EE000A10EE101A08461BF04DF841EC9A
:103B20001F0B53EC192B1AF082FE41EC1E0B1FEDFC
:103B30003F0B53EC102B1AF021FF41EC1D0B1FED36
:103B4000410B53EC102B1AF072FECDE900011FED72
:103B5000450B53EC102B51EC180B1BF059F802D20B
:103B60001FED4A0B03E0B0EE480AF0EE680AB0EE33
:103B7000408AF0EE608A9FEDC20B53EC102B51ECA3
:103B8000180B1BF02DF802D29FEDBD0B03E0B0EE39
:103B9000480AF0EE680AB0EE408AF0EE608AB0EEB5
:103BA000480AF0EE680A1FF0BFFCB0EE40DAF0EE13
:103BB00060DA51EC1D0B1BF043F802909DED001BE9
:103BC000B0EE4C0AF0EE6C0A1FF0CAFFB0EE40DA1D
:103BD000F0EE60DA51EC1D0B1BF032F80390B0EE02
:103BE0004A1AF0EE6A1AB0EE4B0AF0EE6B0A1FF0BA
:103BF000B7FFB0EE40DAF0EE60DA51EC1D0B1BF0CF
:103C00001FF804909DED020ADDED030A9DED041AF4
:103C100005B0BDEC108B30BD1FB5044605208DF8F6
:103C200000008DF801008DF802008DF803008DF87A
:103C3000040003208DF8050005208DF806008DF89E
:103C400007008DF808008DF809008DF80A008DF83E
:103C50000B008DF80C008DF80D0000231A46694604
:103C6000A06809F076F91FBD00B52DED060BCBB0AD
:103C700085484990322048904FF47A71489891FBDA
:103C8000F0F04790479800EB8000400046903221CA
:103C900047984843459000204490322043907B4809
:103CA00000680DF049FB7A4988422ED079480068B7
:103CB00008900220079000200690439880B2069951
:103CC000CDE9001071480068406808AB0490079A7D
:103CD00044990CF012F80590059810B9059851B068
:103CE00000BD6A4800684068049044990CF0A2F94D
:103CF0004FF4FA7002F0F0FB64480068FFF78CFFA5
:103D00004FF4FA5002F0E8FB00BF604800680DF085
:103D100013FB5F4988422BD05C4800680DF011FB13
:103D200030BB5A48006840680146029003A821F061
:103D3000BFFA182203A93DA81CF09AFA18223DA93F
:103D400037A81CF095FA37AB3DAA26A94F48006862
:103D5000FFF74EFD4D48006880680146019002A8BB
:103D600008F019FF1C2202A930A81CF081FA18E003
:103D70004648006880680146019002A808F00BFFE1
:103D80001C2202A930A81CF073FA1C2230A929A811
:103D90001CF06EFA29AB30AA26A93C480068FFF750
:103DA00027FDDDED260A9DED4B0A30EE600A8DED14
:103DB000080A08981AF000FFCDE92401DDED270A72
:103DC0009DED4C0A30EE600A8DED080A08981AF055
:103DD000F3FECDE922019DED280AF1EE400A9DEDAA
:103DE0004D0A30EE600A8DED080A08981AF0E4FEDC
:103DF000CDE920014E981AF0DFFE9FED270B53EC22
:103E0000102BCDE906019DED060B51EC100B1AF0BD
:103E1000B5FDCDE91E0150981AF0CEFE9FED1E0BA8
:103E200053EC102BCDE906019DED060B51EC100B68
:103E30001AF0A4FDCDE91C01144800680DF07CFACD
:103E4000134988423ED0114800684068089021F02C
:103E5000CDF98DED180ACDED190A8DED1A1ACDEDBB
:103E60001B1A18A8FFF77FFD8DED060ACDED070A96
:103E70008DED081A089813E00000000000000040D3
:103E8000000000000000F0BFA08601000800002034
:103E9000000A01038084020811DD52A246DF913F2F
:103EA00003901AF089FE1FED040B53EC102BCDE9A3
:103EB00004019DED040B51EC100B1AF0D1FDCDE97E
:103EC000120128E0FE4800688068089008F066FD4E
:103ED0008DED140ACDED150A8DED161ACDED171ADC
:103EE00014A8FFF740FD8DED060ACDED070A8DED14
:103EF000081A089803901AF05FFE1FED190B53EC97
:103F0000102BCDE904019DED040B51EC100B1AF0C0
:103F1000A7FDCDE912010020119010900F900E9096
:103F200002200D909FEDE70A8DED090AE448006834
:103F30000DF002FAE449884203D19FEDE40A8DEDC9
:103F4000090A9DED4B0AB5EEC00AF1EE10FA14DD38
:103F5000DDED4B0A9DED0D0AB8EEC00AF4EEC00A85
:103F6000F1EE10FA02D29DED4B0A03E09DED0D0A31
:103F7000B8EEC00A8DED0C0A23E09DED4B0AB5EEBC
:103F8000C00AF1EE10FA18D20D98404200EE100A65
:103F9000F8EEC00A9DED4B0AF4EEC00AF1EE10FAFD
:103FA00002D29DED4B0A05E00D98404200EE100A4A
:103FB000B8EEC00A8DED0C0A03E09FEDC50A8DED49
:103FC0000C0A9DED4C0AB5EEC00AF1EE10FA14DDB4
:103FD000DDED4C0A9DED0D0AB8EEC00AF4EEC00A04
:103FE000F1EE10FA02D29DED4C0A03E09DED0D0AB0
:103FF000B8EEC00A8DED0B0A23E09DED4C0AB5EE3C
:10400000C00AF1EE10FA18D20D98404200EE100AE4
:10401000F8EEC00A9DED4C0AF4EEC00AF1EE10FA7B
:1040200002D29DED4C0A05E00D98404200EE100AC8
:10403000B8EEC00A8DED0B0A03E09FEDA50A8DEDE9
:104040000B0A9F4800680DF077F99F49884208D015
:10405000DDED350A9DED4D0A30EE800A8DED0A0A40
:1040600007E0DDED350A9DED4D0A30EE800A8DED5D
:104070000A0AE0E11FED780B53EC102B9DED1E0BAF
:1040800051EC100B1AF0ECFCCDE906019DED060B8E
:1040900051EC100B1AF0D4FD089089480068C068F4
:1040A0000790DDED081A9DED0A1ADDED0B0A9DED76
:1040B0000C0A09F09EFC479880B2089002F00CFAB6
:1040C00011994798084411907D4800680DF034F923
:1040D0007D49884245D07A4800680DF032F9E0BB4E
:1040E000774800684068089021F080F88DED180A44
:1040F000CDED190A8DED1A1ACDED1B1A18A8FFF790
:1041000032FC8DED060ACDED070A8DED081A0898F0
:1041100005901AF051FDCDE9120169480068406828
:104120000146029003A821F0C3F8182203A93DA874
:104130001CF09EF837AB3DAA26A961480068FFF73E
:1041400057FB5F48006880680146019002A808F0AC
:1041500022FD1C2202A930A800E002E01CF088F831
:1041600030E0574800688068089008F017FC8DED33
:10417000140ACDED150A8DED161ACDED171A14A8F7
:10418000FFF7F1FB8DED060ACDED070A8DED081A5C
:10419000089805901AF010FDCDE912014848006812
:1041A00080680146019002A808F0F5FC1C2202A9D3
:1041B00030A81CF05DF829AB30AA26A94048006859
:1041C000FFF716FBDDED260A9DED4B0A30EE600A87
:1041D0008DED080A08981AF0EFFCCDE92401DDED19
:1041E000270A9DED4C0A30EE600A8DED080A08980A
:1041F0001AF0E2FCCDE922019DED280AF1EE400A19
:104200009DED4D0A30EE600A8DED080A08981AF00F
:10421000D3FCCDE920010D981AF091FCCDE90601FF
:104220009DED240B1EF032FF8DED040B9DED060B72
:1042300053EC102B9DED040B51EC100B1AF0D0FC3D
:1042400006D29DED240B51EC100B1AF0F9FC0C90EA
:104250000D981AF074FCCDE906019DED220B1EF0BD
:1042600015FF8DED040B9DED060B53EC102B9DED12
:10427000040B51EC100B1AF0B3FC06D29DED220B8F
:1042800051EC100B1AF0DCFC0B900D4800680DF09F
:1042900053F80D49884258D14F981AF08DFCCDE95A
:1042A00006019DED240B1EF0F1FE8DED040B9DED3E
:1042B000060B53EC102B9DED040B51EC100B09E099
:1042C000080000208FC2F53D000A01039A99993F2A
:1042D000000000001AF084FC37D24F981AF06CFCF2
:1042E000CDE906019DED220B1EF0D0FE8DED040BF5
:1042F0009DED060B53EC102B9DED040B51EC100BB8
:104300001AF06EFC21D29DED1E0B53EC102B9DED8F
:10431000120B51EC100B1AF02BFBCDE904019DEDB3
:10432000040B1EF0B3FE8DED060B9DED1C0B53EC44
:10433000102B9DED060B51EC100B1AF051FC04D222
:10434000479910980844109069E04F981AF034FC8F
:10435000CDE906019DED240B1EF098FE8DED040BBA
:104360009DED060B53EC102B9DED040B51EC100B47
:104370001AF036FC4DD24F981AF01EFCCDE906011A
:104380009DED220B1EF082FE8DED040B9DED060BC4
:1043900053EC102B9DED040B51EC100B1AF020FC8C
:1043A00037D209981AF008FCCDE906019DED200BE3
:1043B0001EF06CFE8DED040B9DED060B53EC102BE7
:1043C0009DED040B51EC100B1AF00AFC21D29DED6F
:1043D0001E0B53EC102B9DED120B51EC100B1AF031
:1043E000C7FACDE904019DED040B1EF04FFE8DEDE3
:1043F000060B9DED1C0B53EC102B9DED060B51ECA9
:10440000100B1AF0EDFB04D2479910980844109055
:1044100005E0109818B147990F9808440F904699F5
:104420000F98884202DD002010900F904599109857
:10443000884200DB04E0499911988842FFF61AAEE1
:1044400000BF534800680CF077FF5249884213D0F0
:104450000EE04F480068C068089009F0CEFB47980E
:1044600080B2089002F038F847990E9808440E90F0
:1044700045990E988842ECDB49991198884217DBE0
:1044800045A01EF049FE424800680CF055FF414926
:1044900088420AD03E4800684068089044990CF071
:1044A00000F84FF4FA7002F017F83F48007816E46D
:1044B000374800680CF040FF364988420AD034483B
:1044C00000684068089044990BF0EBFF40F6B83064
:1044D00002F002F83548007801E42DE9F04705467E
:1044E00042F210774FF032084FF47A7090FBF8F4F4
:1044F00004EB84004FEA4009322004FB00FA002656
:1045000012E0234909685FED8E1A1FED8F1A5FEDE7
:10451000900A00EE105AB8EEC00AC86809F092FA84
:10452000A0B201F0D9FF2644BE42EADB1F48007862
:10453000BDE8F08770B500230A22012103200FF0A7
:1045400043FD1B49086006232422022103200FF0AB
:104550003BFD184908601848007800F00100002869
:1045600014D115481EF014FF00280FD000250C2090
:104570001EF0ACFD04460125002110F0D5FE0446D6
:1045800000250E4804600C48AFF3008070BD0000A9
:1045900008000020000A01035461736B2074696DE8
:1045A000656F7574210A0000DF840208DE8402084A
:1045B000C8000020CC0000205C060020600600201F
:1045C00010B52DED068B84B0044694ED020A10EE72
:1045D000101A08461AF0F0FA41EC180B94ED010A93
:1045E00010EE101A08461AF0E7FA41EC190B94ED98
:1045F000000A10EE101A08461AF0DEFA41EC1A0B07
:104600008DED028B8DED009B53EC1A2BFEA01EF05E
:1046100083FD04B0BDEC068B10BD1CB5044694EDC3
:10462000000ABDEEC00A10EE100A00B2ADF802009A
:1046300094ED010ABDEEC00A10EE100A00B2ADF80A
:10464000040094ED020ABDEEC00A10EE100A00B29A
:10465000ADF80000207B8DF807009DF806008DF86E
:1046600006009DF80600217C0843C0B28DF80600C4
:104670009DF80600217D40EA4100C0B28DF8060099
:104680009DF80600A17D40EA8100C0B28DF80600C9
:104690009DF80600617D40EAC100C0B28DF80600B9
:1046A000E74909684869694609F0CBFB4FF47A602D
:1046B00001F012FF1CBD00B5B5B0002022909FEDA7
:1046C000E11ADFEDE00A9FEDDF0A2FA81CF0CEFA19
:1046D0009FEDDC1ADFEDDB0A9FEDDA0A099032A8C4
:1046E0001CF0C4FA089000200190029003900490FE
:1046F00000900998D0ED022A90ED012AD0ED001A21
:10470000089890ED021AD0ED010A90ED000A0023FE
:104710001A46194616A81CF0B0FA9FEDCA1ADFED2A
:10472000C90A9FEDC80A13A81CF0A0FA9FEDC51A8C
:10473000DFEDC40A9FEDC30A10A81CF097FA002011
:104740000D900A200C90BE4800680CF0F5FDBE49A3
:1047500088422AD0BD4800680990022008900020B5
:1047600007900C9880B20799CDE90010B448006812
:10477000406809AB0590089A0D990BF0BEFA0690B7
:10478000069810B9069835B000BDAD48006840687D
:1047900005900D990BF04EFC4FF4FA7001F09CFE61
:1047A0004FF4FA6001F098FE00BFA9481EF0B4FC77
:1047B000A34800680CF0C0FDA349884230D0A0484F
:1047C00000684068069020F035FE8DED070ACDEDBB
:1047D000080A8DED091A9DED080A8DED130A984817
:1047E00000684068069020F025FE8DED070ACDEDAB
:1047F000080A8DED091A9DED070A8DED140A9048FF
:1048000000684068069020F015FE8DED070ACDED9A
:10481000080A8DED091A9DED090A8DED150A35E09E
:104820008748006880680146019002A808F0B7FA3E
:1048300002A80FC8CDE90823CDE906019DED060ABF
:104840008DED130A7E48006880680146019002A839
:1048500008F0A5FA02A80FC8CDE90823CDE90601A2
:104860009DED070A8DED140A7548006880680146C1
:10487000019002A808F093FA02A80FC8CDE9082316
:10488000CDE906019DED080A8DED150A15980390F6
:104890001AF092F9CDE90801149803901AF08CF9F6
:1048A000CDE90601139803901AF086F9CDE90401C9
:1048B000DDE90801CDE90201DDE90601CDE90001EC
:1048C0009DED040B53EC102B62A01EF025FC9FED18
:1048D0005D1ADFED5C0A9FED5B0A2FA81CF0C6F99C
:1048E000099000200123CDE90130039004901420A9
:1048F00000900998D0ED022A90ED012AD0ED001A1F
:104900009DED151ADDED140A9DED130A00231A46DC
:10491000194623A81CF0B1F930220146089016A8C8
:104920001BF0A6FC16A8FFF778FE59481EF0F4FB12
:10493000434800680CF000FD4349884230D04048AD
:1049400000684068069020F075FD8DED070ACDEDFA
:10495000080A8DED091A9DED080A8DED100A3848F8
:1049600000684068069020F065FD8DED070ACDEDEA
:10497000080A8DED091A9DED070A8DED110A3048E0
:1049800000684068069020F055FD8DED070ACDEDDA
:10499000080A8DED091A9DED090A8DED120A7DE0D8
:1049A0002748006880680146019002A808F0F7F9DE
:1049B00002A80FC8CDE90823CDE906019DED060A3E
:1049C0008DED100A1E48006880680146019002A81B
:1049D00008F0E5F902A80FC8CDE90823CDE90601E2
:1049E0009DED070A8DED110A1548006880680146A3
:1049F000019002A808F0D3F902A80FC8CDE9082356
:104A0000CDE9060146E000004E65772047696D62FA
:104A1000616C20726F746174696F6E20616E676C77
:104A200065206973205B2025302E33662C202530CD
:104A30002E33662C2025302E3366205D0A0A0000B6
:104A40000800002000000000000A0103848402081E
:104A500044B10208496E697469616C2047696D62EE
:104A6000616C20726F746174696F6E20616E676C27
:104A7000653A205B2025302E33662C2025302E33DE
:104A8000662C2025302E3366205D0A0A00000000C7
:104A9000F0B202089DED080A8DED120A0020019087
:104AA00002900390049014200090DDED122A9DEDF9
:104AB000112ADDED101A9DED151ADDED140A9DED9C
:104AC000130A4FF4E163C822002123A81CF0D5F893
:104AD00030220146099016A81BF0CAFB16A8FFF762
:104AE0009CFDFE4800680CF027FCFD49884230D050
:104AF000FA4800684068069020F09CFC8DED070A9B
:104B0000CDED080A8DED091A9DED080A8DED100A0C
:104B1000F24800684068069020F08CFC8DED070A92
:104B2000CDED080A8DED091A9DED070A8DED110AEC
:104B3000EA4800684068069020F07CFC8DED070A8A
:104B4000CDED080A8DED091A9DED090A8DED120AC9
:104B500035E0E248006880680146019002A808F04C
:104B60001EF902A80FC8CDE90823CDE906019DED85
:104B7000060A8DED100AD948006880680146019048
:104B800002A808F00CF902A80FC8CDE90823CDE966
:104B900006019DED070A8DED110AD0480068806876
:104BA0000146019002A808F0FAF802A80FC8CDE962
:104BB0000823CDE906019DED080A8DED120A10A823
:104BC000FFF7FEFCC7A01EF0A7FACDA01EF0A4FAC6
:104BD000C24800680069099008F029FBCDA01EF0CA
:104BE0009BFAD8481EF098FA1FED6A1A5FED6B0A1F
:104BF0001FED6C0A2FA81CF039F809900020012342
:104C0000CDE9013003900490142000900998D0ED74
:104C1000022A90ED012AD0ED001A9DED151ADDED66
:104C2000140A9DED130A0023C74A194623A81CF055
:104C300024F830220146089016A81BF019FB16A88C
:104C4000FFF7EBFCA54800680CF076FBA44988420E
:104C500030D0A24800684068069020F0EBFB8DED54
:104C6000070ACDED080A8DED091A9DED080A8DEDB4
:104C7000100A9A4800684068069020F0DBFB8DED32
:104C8000070ACDED080A8DED091A9DED070A8DED95
:104C9000110A924800684068069020F0CBFB8DED29
:104CA000070ACDED080A8DED091A9DED090A8DED73
:104CB000120A35E08948006880680146019002A820
:104CC00008F06DF802A80FC8CDE90823CDE9060168
:104CD0009DED060A8DED100A804800688068014647
:104CE000019002A808F05BF802A80FC8CDE90823DC
:104CF000CDE906019DED070A8DED110A77480068A0
:104D000080680146019002A808F049F802A80FC87F
:104D1000CDE90823CDE906019DED080A8DED120AC3
:104D200010A8FFF74DFC6FA01EF0F6F987A01EF04B
:104D3000F3F96A4800680069099008F07FFA88482A
:104D40001EF0EAF987A01EF0E7F96420ADF83A00FA
:104D50003220ADF83C006FF0C700ADF838004FF4DA
:104D60007A600B9064200A90002009900FE05B4865
:104D7000006840690EA9089009F07DF80A9880B291
:104D8000089001F0A9FBDDE90901084409900B999D
:104D900009988842EBDB514800680CF0CDFA504985
:104DA000884230D04D4800684068069020F042FBB1
:104DB0008DED070ACDED080A8DED091A9DED080A63
:104DC0008DED100A454800684068069020F032FBDF
:104DD0008DED070ACDED080A8DED091A9DED070A44
:104DE0008DED110A3D4800684068069020F022FBD6
:104DF0008DED070ACDED080A8DED091A9DED090A22
:104E00008DED120A35E03548006880680146019052
:104E100002A807F0C4FF02A80FC8CDE90823CDE916
:104E200006019DED060A8DED100A2C480068806889
:104E30000146019002A807F0B2FF02A80FC8CDE911
:104E40000823CDE906019DED070A8DED110A2348DF
:104E5000006880680146019002A807F0A0FF02A840
:104E60000FC8CDE90823CDE906019DED080A8DEDB7
:104E7000120A10A8FFF7A4FB49A01EF04DF99FED00
:104E80004E1ADFED4D0A9FED4C0A2FA81BF0EEFEE7
:104E9000099000200123CDE90130039004901420F3
:104EA00000900998D0ED022A90ED012AD0ED001A69
:104EB0009DED151ADDED140A9DED130A00231A4627
:104EC000194623A81BF0D9FE30220146089016A8E7
:104ED0001BF0CEF916A8FFF7A0FB6FE0080000203A
:104EE000000A0103456E73757265205344206361A7
:104EF00072642069732070726573656E742E0A0087
:104F000054616B696E6720706963747572652E2ECB
:104F10000A000000436865636B20444A4920474FFC
:104F200020417070206F72205344206361726420AE
:104F3000666F722061206E65772070696374757288
:104F4000652E0A00A4B202080CFEFFFF53746172C2
:104F500074696E6720766964656F2E2E0A00000002
:104F6000DCB1020853657474696E6720526F6C6C13
:104F7000207261746520746F2031302C2050697468
:104F80006368207261746520746F20352C2059612C
:104F900077205261746520746F202D32302E0A0004
:104FA000526573657474696E6720706F7369746994
:104FB0006F6E2E2E2E0A000000000000634800686D
:104FC0000CF0BAF96249884230D060480068406805
:104FD000069020F02FFA8DED070ACDED080A8DED31
:104FE000091A9DED080A8DED100A584800684068BE
:104FF000069020F01FFA8DED070ACDED080A8DED21
:10500000091A9DED070A8DED110A504800684068A5
:10501000069020F00FFA8DED070ACDED080A8DED10
:10502000091A9DED090A8DED120A39E0474800681A
:1050300080680146019002A807F0B1FE03A80DC8E0
:105040000299CDE90823CDE906109DED060A8DED04
:10505000100A3E48006880680146019002A807F0E7
:105060009EFE02A90EC90598CDE907230691099075
:105070009DED070A8DED110A3448006880680146ED
:10508000019002A807F08BFEDDE90403DDE90212BE
:10509000CDE90803CDE906129DED080A8DED120A4F
:1050A00010A8FFF78DFA2BA01EF036F827480068ED
:1050B0000069099008F0C9F84FF47A7001F00CFA11
:1050C00029A01EF029F8214800680CF035F9204984
:1050D00088420AD01D480068406809900D990BF07D
:1050E000E0F940F6B83001F0F7F90120FFF74BBBCB
:1050F00070B500230A22012103200EF065FF264926
:10510000086006232422022103200EF05DFF2349BC
:1051100008602348007800F00100002814D12048DE
:105120001EF036F900280FD000250C201DF0CEFF10
:1051300004460125002110F0F7F80446002519481F
:1051400004601748AFF3008070BD00000800002025
:10515000000A010353746F7070696E67207669648A
:10516000656F2E2E2E0A0000436865636B20444A4B
:105170004920474F20417070206F722053442063B4
:1051800061726420666F722061206E657720766997
:1051900064656F2E0A000000D4000020D8000020B3
:1051A0005C0600206006002000B52DED040B2DEDFF
:1051B000108B89B09DED1B0A20EE000A10EE101A2C
:1051C000084619F0F9FC41EC190B9DED1C0A20EE84
:1051D000000A10EE101A084619F0EEFC41EC1F0B05
:1051E00053EC192B19F023FB41EC1E0B9FEDA10B87
:1051F00053EC102B19F0C2FB41EC1D0B9FED9F0BE4
:1052000053EC102B19F013FB41EC1A0B9DED1A0A0D
:10521000DDED1B0A20EE200ADDED190A9DED1C1ABA
:1052200000EE810A10EE101A084619F0C5FC41EC98
:105230001D0B9FED940B53EC102B19F09FFB41ECD1
:105240001B0B9DED1A0ADDED1C0A20EE200ADDED98
:10525000190A9DED1B1A00EEC10A10EE101A08463D
:1052600019F0AAFC41EC1D0B9FED820B53EC102BA7
:1052700019F084FB41EC180B9DED1B0ADDED1C0AB7
:1052800020EE200ADDED190A9DED1A1A00EE810AC2
:1052900010EE101A084619F08FFC41EC1D0B9FED23
:1052A000790B53EC102B19F069FB41EC1C0B9DEDB5
:1052B0001A0A20EE000A10EE101A084619F07CFCBB
:1052C00041EC1F0B53EC192B19F0B1FA41EC1E0BFA
:1052D0009FED680B53EC102B19F050FB41EC1D0BAC
:1052E0009FED660B53EC102B19F0A1FACDE90001EC
:1052F0009FED620B53EC102B51EC180B19F088FC4E
:1053000002D29FED5E0B03E0B0EE480AF0EE680AB1
:10531000B0EE408AF0EE608A9FED5C0B53EC102BF0
:1053200051EC180B19F05CFC02D29FED580B03E016
:10533000B0EE480AF0EE680AB0EE408AF0EE608AFD
:10534000B0EE480AF0EE680A1EF0EEF88DED060B9E
:105350009DED001BB0EE4C0AF0EE6C0A1EF000FC56
:105360008DED040BB0EE4A1AF0EE6A1AB0EE4B0A5D
:10537000F0EE6B0A1EF0F4FB8DED020B9DED020BBF
:105380009DED041B9DED062B09B0BDEC108B0FBDF0
:1053900000B52DED040B87B0DDED0A1A9DED091A5D
:1053A000DDED080A9DED070AFFF7FEFE8DED000B0F
:1053B0008DED021B8DED042B9DED000B0BB000BDA0
:1053C00000B52DED040B87B0DDED0A1A9DED091A2D
:1053D000DDED080A9DED070AFFF7E6FE8DED000BF7
:1053E0008DED021B8DED042B9DED020B0BB000BD6E
:1053F00000B52DED040B87B0DDED0A1A9DED091AFD
:10540000DDED080A9DED070AFFF7CEFE8DED000BDE
:105410008DED021B8DED042B9DED040B0BB000BD3B
:1054200010B52DED048BB0EE408AF0EE608A9FED52
:10543000190B53EC102B51EC180B19F09FFA41EC9F
:10544000190BB0EE490AF0EE690ABDEC048B10BDF1
:1054500010B500230A22012103200EF0B5FD0F49EB
:10546000086006232422022103200EF0ADFD0C4922
:10547000086010BD00000000000000C00000000037
:105480000000F03F000000000000004000000000AD
:105490000000F0BFE8C35CB0DDA54C40E000002098
:1054A000E40000200B20FB49487000200870FA48F7
:1054B000007A40F00400F8490872704770B504465D
:1054C0000D46F64A2946204616F02AFBF4480068A5
:1054D000F44908600020F449086070BD10B5F34835
:1054E00090F8CA0018B1F148B0F8C80000B910BD72
:1054F000EE48B0F8C810FFF7E1FF0020EB4981F853
:10550000CA00A1F8C800C821E84819F024F800BF73
:10551000EDE701460220072923D007DC07292ED218
:10552000DFE801F02D131517191B1D000B2920D0E2
:1055300006DC082917D0092917D00A291FD116E03F
:105540000C2918D0FE291AD117E0012019E00120FA
:1055500017E0012015E0012013E0012011E05C209C
:105560000FE001200DE001200BE0342009E05C2079
:1055700007E0052005E0052003E0372001E00020DA
:1055800000BF00BF704770B588B0C94DC1480078F2
:1055900008B908B070BDC0480078042800D0F8E70A
:1055A0005A20C4490870FE204870A81CC1F80200A7
:1055B00040F60D2008814878FFF7ABFF0446002035
:1055C000BC49D1F802100870BA48D0F80200461C55
:1055D000B9490968886807F0E1F98DED040ACDED55
:1055E000050A8DED061ACDED071A102204A93046E2
:1055F0001AF03EFEB0480068816804A807F025FC58
:105600000D2204A906F129001AF032FEAA4800680A
:10561000816801A807F0BFFA192201A906F110005C
:105620001AF026FEA34800882880A01C81B22846D4
:1056300016F0B8FA9F49C880A81C2044D1F806107B
:105640000160A01D81B22846FFF738FF0020914974
:1056500008700120487000BF9BE701460120934A73
:1056600082F8CA001046A0F8C81070470FB42DE9A0
:10567000F04F85B0DDF878A18C4CA01CCDF80A0065
:105680005646BDF83E00103805280CD89DF84980D4
:10569000DDF80A0080F80080DDF80A10DDF84A0025
:1056A000C1F801001EE020F079F883460FF0CBFE30
:1056B000814620F073F8019040F26D407F4B80A24C
:1056C0004946009001980FF06AFE07469DF8442075
:1056D00000687EA183683846984705B0BDE8F00FA2
:1056E0005DF814FB5A208DF8080030780B2802D0A2
:1056F00030780C2803D130788DF8090002E00C20B6
:105700008DF8090040F60D20ADF810009DF8090055
:10571000FFF7FFFE0546BDF808002080A91C2046C3
:1057200016F040FAADF80E00A01C2844DDF80E106B
:105730000160A91D88B2FFF790FF00BFCDE70020F0
:105740005D490968096AC96821B15B490968096A44
:10575000496801B97047012000BFFBE70FB42DE98C
:10576000FF5FDDF87891514CA01CCDF80600BDF824
:105770003E0010385B2812D39DF84970DDF8060012
:1057800007700FA8807BDDF806104870DDF8061062
:10579000881C5A220DF14A011AF06AFD1DE01FF023
:1057A000FDFF83460FF04FFE80461FF0F7FF824655
:1057B00040F24E404D4B42A24146009050460FF001
:1057C000EEFD06469DF84420006840A183683046FF
:1057D0009847BDE8FF1F5DF814FB5A208DF80400C0
:1057E0000A208DF8050040F60D20ADF80C009DF85C
:1057F0000500FFF78EFE0546BDF804002080A91CB9
:10580000204616F0CFF9ADF80A00A01C2844DDF8B8
:105810000A100160A91D88B2FFF71FFF00BFD8E77B
:105820000FB42DE9FF5FDDF87891204CA01CCDF876
:105830000600BDF83E00103834280DD39DF849709D
:10584000DDF806000770DDF80610481C33220DF164
:105850004A011AF00DFD4DE01FF0A0FF83460FF046
:10586000F2FD80461FF09AFF824640F22D40204B09
:1058700013A24146009050460FF091FD06469DF858
:105880004420006811A1836830469847BDE8FF1F97
:105890005DF814FBEC000020840000200044004070
:1058A000900400209C040020B8824042C0120020D6
:1058B0005E1400208C13002008000020C38402081E
:1058C0004552524F524C4F470000000041434B207D
:1058D000697320657863657074696F6E2C207365D9
:1058E0007175656E63652025640A0000A684020850
:1058F000868402085A208DF8040009208DF80500DE
:1059000040F60D20ADF80C009DF80500FFF701FEF4
:105910000546BDF804002080A91C204616F042F977
:10592000ADF80A00A01C2844DDF80A100160A91D8A
:1059300088B2FFF792FE00BFBDE8FF1F5DF814FBC1
:105940000FB42DE9FE4380465A9FF7480678F74C7E
:10595000A01CCDF80200BDF82E001038012804DB91
:105960009DF83960DDF8020006705A208DF80000BD
:1059700008208DF8010040F60D20ADF808009DF8D4
:105980000100FFF7C6FD0546BDF800002080A91CF8
:10599000204616F007F9ADF80600A01C2844DDF8F3
:1059A00006100160A91D88B2FFF757FEBDE8FE038F
:1059B0005DF814FB0FB42DE9FE4380465A9FDA4888
:1059C0000678DA4CA01CCDF80200BDF82E00103885
:1059D000012804DB9DF83960DDF8020006705A20CA
:1059E0008DF8000008208DF8010040F60D20ADF87C
:1059F00008009DF80100FFF78CFD0546BDF800008A
:105A00002080A91C204616F0CDF8ADF80600A01C99
:105A10002844DDF806100160A91D88B2FFF71DFEBD
:105A2000BDE8FE035DF814FB0FB42DE9FE4380468C
:105A30005A9FBD480678BD4CA01CCDF80200BDF8A9
:105A40002E001038012804DB9DF83960DDF80200D3
:105A500006705A208DF8000007208DF8010040F6EE
:105A60000D20ADF808009DF80100FFF752FD054636
:105A7000BDF800002080A91C204616F093F8ADF870
:105A80000600A01C2844DDF806100160A91D88B29C
:105A9000FFF7E3FDBDE8FE035DF814FB0FB42DE94D
:105AA000FE4380465A9FA0480678A04CA01CCDF823
:105AB0000200BDF82E001038012804DB9DF8396083
:105AC000DDF8020006705A208DF8000007208DF8DE
:105AD000010040F60D20ADF808009DF80100FFF729
