:020000040800F2
:1000000000C10020898800089188000893880008B2
:10001000958800089788000899880008000000006B
:100020000000000000000000000000009B880008A5
:100030009D880008000000009F8800087D78010866
:10004000A3880008A3880008A3880008A3880008E4
:10005000A3880008A3880008A3880008A3880008D4
:10006000A3880008A3880008A3880008A3880008C4
:10007000A3880008A3880008A3880008A3880008B4
:10008000A3880008A3880008A3880008A3880008A4
:100090000D8A0108A3880008A3880008A388000827
:1000A000A3880008A3880008A3880008A388000884
:1000B000A3880008A3880008A3880008A388000874
:1000C000A3880008A3880008A3880008A388000864
:1000D000A38800083F58000821AD01082BAD010896
:1000E000A3880008A3880008A388000869A5010860
:1000F000A388000805A70108A3880008A3880008B2
:10010000A3880008A3880008A3880008A388000823
:1001100035AD0108A3880008A3880008A38800085B
:10012000A3880008A3880008A3880008A388000803
:10013000A3880008A3880008A3880008A3880008F3
:10014000BF8B0108A3880008A3880008A3880008C3
:10015000A3880008A3880008A38800083FAD010811
:10016000A3880008A3880008A3880008A3880008C3
:10017000A3880008A3880008A3880008A3880008B3
:10018000A3880008A3880008DFF814D01EF09EFFA3
:100190001DF0B8FC00480047F10700081EF0ADFC58
:1001A00000C10020FEB442464B4654465D463EB474
:1001B0001DF0F7F93EBC90469946A246AB46FEBC00
:1001C00000F032F8704700BF80EC200B7047C0ECA5
:1001D000200B704790EC200B7047D0EC200B704741
:1001E00085460D98DDF838E00F9B5DF8042B20E97B
:1001F0000C009DE8FE1F854601BD4DF808ED0DF190
:10020000080E4DF804ED2DE9FF1F002102B46946E8
:1002100081B01EF0AEFEDDF840E012B07047000085
:1002200004AE0200E4C302004DF808ED0DF1080E23
:100230004DF804ED2DE9FF1F002102B4694681B09D
:100240001EF0FEBE2DE9F0472DED048B4FF00009A6
:100250009FEDF90A10EE105A9FEDF70A10EE106AA2
:100260009FEDF50A10EE107A9FEDF30A10EE108A5A
:100270009FEDF10AB0EE408AB6EE000AF0EE408A39
:10028000B6EE000AB0EE409AB3EE040AF0EE409AE1
:10029000EA480078042803D0BDEC048BBDE8F08761
:1002A000E748807D00B9F7E7E548007F48B9E348B3
:1002B000007A28B1E148007A20F00200DF49087294
:1002C000EAE71BF0F1F8DF4801F016FBDC48818912
:1002D0000122DC481BF0FEFDDB490870D848018A8A
:1002E0000322D8481BF0F6FDD7498871D448C1894C
:1002F0000222D4481BF0EEFDD349C870D048418A91
:100300000422D0481BF0E6FDCF494872002487E064
:1003100004EB4400CC49085C012813D104EB4400F1
:1003200008448078401E00EB4000085C032809D197
:10033000002104EB4400C44A10448078401E00EBC6
:100340004000115404EB4400BF49085C022813D15B
:1003500004EB440008448078401E00EB4000085C39
:10036000032809D1022104EB4400B74A10448078E5
:10037000401E00EB4000115404EB4400B249085CFD
:10038000032817D104EB440008448078401E00EB9A
:100390004000085C03280DD1022104EB4400AA4A66
:1003A00010448078401E00EB40001154022004EB02
:1003B0004401505404EB4400A349085C78BB04EBAF
:1003C000440008448078401E00EB4000085C03288D
:1003D00025D1611CC8B21BF034FD48B1002104EBEB
:1003E0004400994A10448078401E00EB40001154AC
:1003F00093480A30611C30F811009149C98B88423A
:100400000DDA022104EB44008F4A10448078401E2C
:1004100000EB40001154022004EB44015054641CD2
:10042000042CFFF675AF88480078012806D101F04A
:10043000C0FB10EE105A012083490873824880796E
:10044000012807D1032001F0B4FB10EE105A01205F
:100450007D4908737C48C078012807D1022001F04B
:100460000AFC10EE106A0120774948737648407AFA
:10047000012807D1042001F0FEFB10EE106A0120D4
:100480007149487370480078022803D118EE105A59
:100490006D4908736C488079022805D1B1EE480A8D
:1004A00010EE105A684908736748C078022803D1D3
:1004B00018EE106A644948736348407A022805D1EF
:1004C000B1EE480A10EE106A5F4948735E48007842
:1004D000032805D1B1EE680A10EE105A5A49087384
:1004E00059488079032803D118EE905A5649087369
:1004F0005548C078032805D1B1EE680A10EE106A9D
:10050000514948735048407A032803D118EE906A45
:100510004D49487301201BF094FC70B903201BF077
:1005200090FC50B94848007B022806D19FED420A52
:1005300010EE105A00204449087302201BF081FC81
:1005400070B904201BF07DFC50B93F48407B022865
:1005500006D19FED390A10EE106A00203A4948731F
:100560003948007B00281BDD3748407BC0B902209A
:100570001BF067FC40B1022001F07DFB10EE106A19
:100580000420314948730BE004201BF05AFC38B1B9
:10059000042001F070FB10EE106A04202A49487311
:1005A0002948407B00281BDD2748007BC0B901207B
:1005B0001BF047FC40B1012001F0FBFA10EE105A8D
:1005C0000420214908730BE003201BF03AFC38B1EA
:1005D000032001F0EEFA10EE105A04201A490873B5
:1005E0001948007B002803DC1748407B00283DDDCC
:1005F0004FF001091348B0F91C00B0F5FA7F02DD95
:1006000019EE107A0EE00F48B0F91C0010F5FA7FD1
:1006100004DAB1EE490A10EE107A03E09FED060A03
:1006200010EE107A0748B0F91E00B0F5FA7F0DDD24
:1006300019EE908A26E000000000000084000020EF
:10064000F03300202834002050340020FE48B0F958
:100650001E0010F5FA7F04DAB1EE690A10EE108A76
:1006600010E01FED0B0A10EE108A0BE04FF00009AE
:10067000002405E0002004EB4401F44A5054641CBB
:10068000042CF7DB002409E004EB4400EF49085C8C
:1006900004EB4401ED4A11444870641C042CF3DB64
:1006A000B9F1000F0FD0EA48C0F80150C0F805605A
:1006B000C0F80970C0F80D80E648007A40F00200EA
:1006C000E44908722AE0E348007A28B1E148007A58
:1006D00020F00200DF490872DD48D0F8010000EE8A
:1006E000100AB5EEC00AF1EE10FA06D01FED2E0A80
:1006F00010EE100AD649C1F80100D548D0F805001F
:1007000000EE100AB5EEC00AF1EE10FA06D01FEDA9
:10071000360A10EE100ACE49C1F8050000BFBBE54D
:10072000CD4A107B517BCB4A1278042A00D0704707
:10073000FC2801D0FC2910D10122C64B5A70B7EE1B
:10074000000A10EE102AC24BC3F80920C14A127ADF
:1007500042F00102BF4B1A721CE00022BD4B5A70DE
:10076000BB4AD2F8092000EE102AB5EEC00AF1EE1D
:1007700010FA06D01FED500A10EE102AB44BC3F841
:100780000920B44A127A2AB1B24A127A22F001023E
:10079000B04B1A7200BFCAE710B51AF042FD01282B
:1007A00001D1FFF7BDFF10BD0020AC4908601AE081
:1007B000AB49AA4A1268885C411ECAB2A849A74B35
:1007C0001B68CA5450B10846A4490968405C28B95E
:1007D0000021A348001DA14A126881549F48006867
:1007E000401C9E4908609D4800680428E0DB704773
:1007F0003EB504F0BFFE1AF039FD4FF47A7004F0F4
:1008000087FF6220974B98A29B4900909B4821F05C
:100810001FFE0446601C38B1B4F5967F04D2974998
:1008200097A021F005FE02E096A021F001FE9DA018
:100830009FA1A2A2A3A3CDE900210290A3A2A5A1FA
:10084000A74821F0F5FD6420864B87A28A490090D5
:100850008A4821F0FDFD0446601C38B1B4F5967F4E
:1008600004D2864986A021F0E3FD02E085A021F0B4
:10087000DFFD00F09AFC002802DA4FF0FF303EBDA9
:100880001AF00CFE1CF0CCF91CF038F81CF0F2FA4F
:100890001BF041FD02224FF47A71AFF2F30019F020
:1008A00040F8029015E01CF03DFB00F0A0FF1AF0AC
:1008B000A4FD1CF0B9F8FFF76FFF1CF0B8FA1BF0AD
:1008C000D7FEFFF7BFFC17F0EAFA17F07EFF18F02B
:1008D00091FAE8E710B52DED048B5E480078042806
:1008E00002D0BDEC048B10BD5D482A38807D00B974
:1008F000F7E75B482A38007F48B95648007A28B1A4
:100900005448007A20F0020052490872E9E71AF0D0
:10091000DAFD0446002C75D04E48007A40F0020003
:100920004C49087204F00100A0B14D492A39088CE5
:100930001DF0A8FA41EC190B9FED6A0B53EC102B3C
:100940001DF0AEF941EC180B1DF00CFB4049C1F84D
:1009500001001EE004F00400A0B141492A39088CCE
:100960001DF090FA41EC190B9FED600B53EC102B2E
:100970001DF096F941EC180B1DF0F4FA3449C1F85A
:10098000010006E01FEDD40A10EE100A3049C1F84C
:10099000010004F00200A0B131492A39088C1DF091
:1009A00071FA41EC190B9FED4F0B53EC102B1DF01E
:1009B00077F941EC180B1DF0D5FA2549C1F805006F
:1009C000A4E004F00800A0B125492A39088C1DF0E4
:1009D00059FA41EC190B9FED450B53EC102B1DF010
:1009E0005FF941EC180B1DF0BDFA1949C1F805007B
:1009F0008CE01FEDEF0A10EE100A1549C1F8050052
:100A000084E0FFE71348007A28B11248007A20F00A
:100A10000200104908720E48D0F8010000EE100ADA
:100A2000B5EEC00AF1EE10FA06D09FED320A10EED4
:100A3000100A0749C1F801000548D0F8050000EE8A
:100A4000100AB5EEC00A57E02834002050340020C8
:100A50006012002084000020A83A00200C00002032
:100A60001A3400205C760208494D504F52545F4EB4
:100A70004F5449434500000090A10208961B0020F6
:100A8000257300004552524F523A206C6F67207018
:100A900072696E74657220696E6E6572206661752A
:100AA0006C740A0032313A35313A333900000000B3
:100AB0004A616E20313620323031390030303031E9
:100AC00030310000303030313030000042542D548D
:100AD0004A0000004D61696E426F6172640000005F
:100AE000D4A102089A9999999999B93F9A99999993
:100AF0009999B9BF00000000F1EE10FA06D01FED81
:100B0000030A10EE100AB549C1F8050000BFE8E677
:100B100010B52DED0E8B8EB0B1480078042803D0AF
:100B20000EB0BDEC0E8B10BDAE48807D00B9F7E76E
:100B3000AC48007F48B9AA48007A28B1A848007A92
:100B400020F00200A6490872EAE7A7490968886808
:100B50000BF046F88DED080ACDED090A8DED0A1A65
:100B6000CDED0B1ADDED0B1A9DED0A1ADDED090A2C
:100B70009DED080A04F074FCB0EE409AF0EE609A25
:100B80009A49A1F1080000F081FEB0EE490AF0EEAA
:100B9000690A22F0D9FAB0EE40CAF0EE60CA924972
:100BA000096888680BF066F88DED090ACDED0A0A30
:100BB0008DED0B1A9DED0A0A10EE101A08461DF075
:100BC0008DF941EC1D0B53EC1C2B1DF069F841EC29
:100BD0001B0BB0EE490AF0EE690A22F045FAB0EEBE
:100BE00040CAF0EE60CA8049096888680BF042F894
:100BF0008DED060ACDED070A8DED081A9DED060A6A
:100C000010EE101A08461DF069F941EC1D0B53EC6B
:100C10001C2B1DF045F841EC180B53EC1B2B1CF062
:100C200098FF41EC1A0B1DF09DF9704908390861D5
:100C3000B0EE490AF0EE690A22F016FAB0EE408AE8
:100C4000F0EE608A6849096888680BF013F88DED4A
:100C5000090ACDED0A0A8DED0B1A9DED0A0A10EE78
:100C6000101A08461DF03AF941EC1D0B53EC182BF5
:100C70001DF016F841EC1B0BB0EE490AF0EE690AC4
:100C800022F062FAB0EE40DAF0EE60DA5649096816
:100C900088680AF0EFFF8DED060ACDED070A8DEDAD
:100CA000081A9DED060AB1EE408A18EE100A1DF0F2
:100CB00015F941EC1E0B53EC1D2B1CF0F1FF41EC20
:100CC0001C0B53EC1B2B1CF044FF41EC1A0B1DF0CA
:100CD00049F946490839486143480068816803A8D2
:100CE0000BF059F903A807C809AB07C33E480068D1
:100CF000816868460BF04FF99DE8070006AB07C313
:100D0000BDF92430BDF91A200CA90DA81AF067FF0F
:100D100004466CB131490D98C1F801000C98C1F836
:100D200005002F48007A40F002002D4908722AE0A1
:100D30002B48007A28B12A48007A20F0020028497E
:100D400008722648D0F8010000EE100AB5EEC00A7D
:100D5000F1EE10FA06D01FED990A10EE100A1F49A5
:100D6000C1F801001D48D0F8050000EE100AB5EEEC
:100D7000C00AF1EE10FA06D01FEDA20A10EE100A1A
:100D80001649C1F8050000BFCAE610B500230A22C3
:100D90000121032012F074FA154908600623242269
:100DA0000221032012F06CFA1249086012480178FF
:100DB00012480FF0E5F80446114A12491CF0B2FE41
:100DC0005FEDB41A1FEDB51A5FEDB60A1FEDB70A55
:100DD0004A2102480BF01AFF10BD000060120020EB
:100DE00084000020F0330020080000203034002070
:100DF00010000020140000200000002094070020B4
:100E000000000008C9FF00080246704710B5002323
:100E10000A220121032012F033FA05490860062353
:100E200024220221032012F02BFA0249086010BD8F
:100E30001C0000202000002000B58DB0614801900A
:100E400061480C9000231A4601A96048006811F01F
:100E5000A9FA0DB000BD0FB42DE9F04788B00446E3
:100E6000DDF88081BDF84600103802284CDCBDF862
:100E70005150C4F87C570D2211A904F26F701EF076
:100E800089FB40F27F70005D8DF80000112204F2B2
:100E90006F7103A81EF07EFB03A80FC807F006FDC4
:100EA00000B34B48008885421CD123F003FE8246E4
:100EB00013F025FC074623F0FDFD81462D20454B10
:100EC00045A239460090484613F0C5FB0646006827
:100ED00044A182683046904700221146204610F017
:100EE000A1FD00BF3B48019040F27F70005D8DF88E
:100EF0000000112204F26F7103A81EF04BFB03A83F
:100F00000FC808F03CFA19E023F0D4FD824613F034
:100F1000F6FB074623F0CEFD814634202D4B2EA252
:100F200039460090484613F096FB06469DF84C2043
:100F3000006833A183683046984700BF384800886E
:100F400085420CD140F2E460005940B140F2E462C5
:100F50001159206815F0FAFF04203249087008B0D2
:100F6000BDE8F0075DF814FB70B500230A220121EB
:100F7000032012F085F92C4908600623242202215F
:100F8000032012F07DF9294908602948007800F013
:100F90000100002814D1264821F086FB00280FD03C
:100FA00000250C2021F01EFA04460125002113F033
:100FB00017FB044600251F4804601D48AFF300805E
:100FC00070BD00001FBF0F0034000020080000208B
:100FD0007E7A0208B77602084552524F524C4F476C
:100FE0000000000053444B2076657273696F6E20D9
:100FF000646964206E6F74206D617463680A000018
:1010000041434B20697320657863657074696F6E26
:101010002C2073657175656E63652025640A000078
:101020006E7A020884000020280000202C00002096
:10103000400600204406002000F07F0200EE102A47
:10104000B8EEC00AF0EE400A00EE101AB8EE400A00
:10105000B0EE401A00F0800262B1DFED451AB0EE4A
:10106000410A00EEA10AF1EE401A9FED422A81EEFC
:10107000820A7047DFED3E1AB0EE410A00EEA10A87
:101080009FED3C2AC0EE021AB0EE610AF1E770B59E
:1010900086B004460D462068012802D10020206059
:1010A00001E006B070BD2079FA2802D16079FB28F2
:1010B00000D0F6E7A07920B1012808D0AA283AD1BB
:1010C00008E000221146284610F0ACFC34E0FFF79F
:1010D000B3FE31E0A07B00EB80004000616A414339
:1010E000607B00EB80004000626A4243207B00EBA3
:1010F00080004000636A4343E07A00EB80004000D8
:10110000666A7043CDE9023204910190A07A00EB47
:10111000800040000090607A00EB80004300207A5D
:1011200000EB80004200E07900EB800041001248B3
:1011300021F07EF900E000BF00BF00BFB1E710B5AD
:1011400000230A220121032012F09AF80B490860BB
:10115000062324220221032012F092F80849086095
:101160000848002101608162C16200BF10BD00001B
:10117000000080430000C84238A202087800002026
:101180007C00002074120020E248008820B1E14871
:101190000088401EDF490880DF48008820B1DE4813
:1011A0000088401EDC490880704738B50020DB49C4
:1011B000086041F2883004F0ABFAD9490968086840
:1011C00016F06AFA044600688169204688470028BC
:1011D00027D15820D34BD4A2D5A10090E24821F0CA
:1011E00037F90546681C38B1B5F5967F04D2DE495B
:1011F000DEA021F01DF902E0DDA021F019F90120A7
:1012000000F0ADFD00F0B0FDC548006830B1C44845
:1012100000680EF0D9FE054621F0D8F84FF0FF30F7
:1012200038BDDBA021F004F9DEA021F001F9EDA02A
:1012300021F0FEF8F2A021F0FBF8FEA021F0F8F872
:101240001E2004F065FAB648006810F043FC4FF425
:10125000FA7004F05DFAB24800680FF0A3F90028B4
:1012600027D16C20AF4BB0A2FA490090BE4821F0C4
:10127000EFF80546681C38B1B5F5967F04D2BA4937
:10128000BAA021F0D5F802E0B9A021F0D1F80120F0
:1012900000F065FD00F068FDA148006830B1A0488D
:1012A00000680EF091FE054621F090F84FF0FF30F7
:1012B000B6E79B4800680FF075F9002836D09848CB
:1012C00000680FF06FF9E449096888422ED294480B
:1012D00000680FF067F9E149884227D07720914BE9
:1012E00091A2DC490090A04821F0B2F80546681CA4
:1012F00038B1B5F5967F04D29B499CA021F098F8AF
:1013000002E09BA021F094F8012000F028FD00F0FD
:101310002BFD8348006830B1814800680EF054FE10
:10132000054621F053F84FF0FF3079E74FF47A701B
:1013300004F0EEF902221421AFF2B31018F0F1FA22
:10134000009001206CE730B589B0C549A1F1650076
:101350001BF05FF8A8B1C34890F8911100F59670A2
:1013600001F0BBF8BE4D543D002408E001A800EB9D
:10137000840105F11F0050F824000860641C082C4B
:10138000F4DB09B030BD2DE9F04104460F46254697
:1013900014B90020BDE8F08100260CE000BF402118
:1013A000B14807F009F90028F9D015F8011BAE483B
:1013B00007F052F8761C381EA7F10107EED1AB49B1
:1013C0000860AB480068AB4908603046E2E710B5FA
:1013D00002460B460024002103E0505C0444481CF4
:1013E00001B29942F9DBE0B210BD00B52DED028BE0
:1013F0008FB04948008818B90A204749088003E09F
:101400000FB0BDEC028B00BD45480068816801A8A3
:101410000AF0E3FC1C2201A908A81EF0BBF89DED10
:101420000D8A5A2194481CF028FAEB209249087042
:101430000020A1F801005320A1F8030038490968F1
:1014400088680AF0CDFB8DED040ACDED050A8DED1F
:10145000061ACDED071A102204A98748401D1EF078
:1014600099F82F49096888680AF0DFFB8DED050AB5
:10147000CDED060A8DED071A7F48153005990160FC
:1014800006994160079981602549096888680AF0D2
:10149000F1FB8DED050ACDED060A8DED071A7648B4
:1014A00021300599016006994160079981601C49C6
:1014B000096888680AF021FC8DED050ACDED060A61
:1014C0008DED071A6C482D30059901600699416031
:1014D0000799816012480068816801A80AF07DFCC4
:1014E000192201A9644839301EF054F80C480068EC
:1014F000816806A80AF029FD5F485230069901600C
:10150000BDF81C10818058215238FFF760FF5A49FE
:10151000B4E000009000002092000020AC82424223
:1015200008000020DE7602084552524F52000000AB
:1015300025732025732C6C696E652025643A20552F
:101540005341525420636F6D6D756E6963617469A8
:101550006F6E206973206E6F7420776F726B696E87
:10156000672E0D0A00000000961B00202573000066
:101570004552524F523A206C6F67207072696E74F8
:10158000657220696E6E6572206661756C740A0002
:101590000A507265726571756973697465733A0D85
:1015A0000A000000312E2056656869636C6520636F
:1015B0006F6E6E656374656420746F207468652057
:1015C000417373697374616E7420616E6420736912
:1015D0006D756C6174696F6E206973204F4E0D0AD2
:1015E00000000000322E204261747465727920661A
:1015F000756C6C79206368616E726765640D0A00B2
:10160000332E20444A49474F2041707020636F6E4B
:101610006E65637465642028666F72207468652047
:1016200066697273742074696D652072756E290D18
:101630000A000000342E2047696D62616C206D6FD6
:10164000756E746564206966206E65656465640DF9
:101650000A000000A8A2020898000020000A010366
:10166000EA3300205932002000480040A082414265
:101670007C04002094040020A412002081F858006B
:10168000BE2081F859005A21FE48FFF77CFEFE4833
:10169000007B00B9B4E6B1EE000AB4EEC08AF1EE08
:1016A00010FA03DD0220F84988600AE0B0EE080A6B
:1016B000B4EEC08AF1EE10FA03D24FF0FF30F249D7
:1016C000886000BF9CE610B58CB0F0490968886856
:1016D0000AF0AEFC0B90ED480068816804A80AF09F
:1016E0005AFC04A807C808AB07C3E849096888681A
:1016F0000AF006FD0790BDF92800002801DC0CB0B7
:1017000010BD9DF82C00022800D0F8E7E048007AD0
:10171000002826D19DF81D0000F0070002281FD1E7
:1017200000221146D94800680EF082FD40F20D10EB
:10173000D84BD9A2DCA10090E44820F089FE0446F1
:10174000601C40B1B4F5967F05D2E049AFF2E410D9
:1017500020F06EFE03E0AFF2E81020F069FE00BF5B
:10176000CDE7CB48007A30B1D948008818B90120BC
:10177000D749088000E0C2E79DF81D0000F007008F
:1017800002281FD000221146C04800680EF0FCFD60
:1017900040F21B10BF4BC0A2CEA10090CB4820F05E
:1017A00057FE0446601C40B1B4F5967F05D2C74988
:1017B000AFF2482020F03CFE03E0AFF24C2020F0D6
:1017C00037FE00BFCB48C1680091007C8DF8040053
:1017D000AE4800681122C749C46802A81DF0DAFEAD
:1017E000204602A90EC90BF08BF900BF87E700B5B0
:1017F00085B0A748007820B103282FD0042841D114
:1018000039E00320A2490870BB4800684860FFF730
:1018100013FB9E4800680EF0C5FEB849884208D008
:101820009A49096848680DF025FC4FF4FA7003F0F6
:101830006FFF964800681422816868460AF09AFD96
:10184000322003F065FF91490968AD4AC869AD4986
:101850000DF01BF8322003F05BFF14E08C48406869
:10186000A5490968401A41F28831884202D3002014
:101870008749087007E0FFF726FFFFF7B6FDFFF77F
:1018800062FD00E000BF00BF05B000BD7FB50446AB
:101890000D467E49096888680AF0A2F98DED000AB4
:1018A000CDED010A8DED021ACDED031ADDED031A1F
:1018B0009DED021ADDED010A9DED000A03F0E8FD41
:1018C00084ED000B7149096888680AF089F98DED8B
:1018D000000ACDED010A8DED021ACDED031ADDED02
:1018E000031A9DED021ADDED010A9DED000A03F0D9
:1018F000E7FD85ED000B7FBD30B52DED0C8B99B06C
:10190000054662480068816801A80AF066FA1C2250
:1019100001A912A81DF03EFE5C480068816805A878
:101920000AF039FB05A807C80FAB07C35749096878
:1019300088680AF09FF98DED0C0ACDED0D0A8DED4A
:101940000E1A5249096888680AF04AF98DED080AAA
:10195000CDED090A8DED0A1ACDED0B1A2C464B4937
:10196000096888680AF03CF98DED040ACDED050A96
:101970008DED061ACDED071ADDED071A9DED061A5D
:10198000DDED050A9DED040A03F082FD84ED000BF8
:101990003E49096888680AF023F98DED040ACDED07
:1019A000050A8DED061ACDED071ADDED071A9DED3E
:1019B000061ADDED050A9DED040A03F081FD84EDB4
:1019C000020BBDF83E006083BDF83C002083BDF8EB
:1019D0004200A083BDF84000E083DDED0B1A9DEDD1
:1019E0000A1ADDED090A9DED080A03F039FDB0EE93
:1019F00040DAF0EE60DA21F0A7FBB0EE40BAF0EE8C
:101A000060BA9DED0D0A10EE101A08461CF066FA39
:101A100041EC1C0B53EC1B2B1CF042F941EC190B55
:101A2000DDED0B1A9DED0A1ADDED090A9DED080AA0
:101A300003F016FDB0EE40DAF0EE60DA21F014FBB0
:101A4000B0EE40BAF0EE60BA9DED0C0A10EE101A3E
:101A500008461CF043FA41EC1C0B53EC1B2B1CF00A
:101A60001FF941EC1A0B53EC192B1CF072F841ECE6
:101A7000180B1CF077FA2061DDED0B1A9DED0A1AA8
:101A800042E00000A4120020603400200800002082
:101A900084000020E7760208494D504F52545F4EB3
:101AA0004F5449434500000025732025732C6C6971
:101AB0006E652025643A206F657320636F6E7472C3
:101AC0006F6C20636C6F7365640A0000961B0020C6
:101AD0009000002025732025732C6C696E652025ED
:101AE000643A206F657320736574436F6E74726F10
:101AF0006C0A0000601200207C040020000A010330
:101B000059320020A1240008DDED090A9DED080AE4
:101B100003F0A6FCB0EE40DAF0EE60DA21F0A4FAB1
:101B2000B0EE40BAF0EE60BA9DED0D0A10EE101A5C
:101B300008461CF0D3F941EC1C0B53EC1B2B1CF09A
:101B4000AFF841EC190BDDED0B1A9DED0A1ADDED36
:101B5000090A9DED080A03F083FCB0EE40DAF0EECE
:101B600060DA21F0F1FAB0EE40BAF0EE60BA9DED25
:101B70000C0AB1EE400A10EE101A08461CF0AEF93D
:101B800041EC1C0B53EC1B2B1CF08AF841EC1A0B9C
:101B900053EC192B1BF0DDFF41EC180B1CF0E2F9A4
:101BA00060619DED170A84ED080A19B0BDEC0C8B3D
:101BB00030BD10B52DED068B04467349088C1CF022
:101BC00061F941EC1A0B9FED710B53EC102B1CF0DB
:101BD00067F841EC190B1CF0C5F908EE900A6D4846
:101BE00090ED040AB0EE408AB4EEE88AF1EE10FA05
:101BF00002DDB0EE688A25E0B1EE680AB4EEC08A74
:101C0000F1EE10FA04D2B1EE680AB0EE408A19E0A3
:101C1000B5EEC08AF1EE10FA0ADB38EE280A30EE93
:101C2000080AF0EE080A80EE201AB0EE418A09E0B8
:101C300038EE080A30EE680AF0EE080A80EE201A44
:101C4000B0EE418A012C06D1B5EEC08AF1EE10FA51
:101C500001D2B0EE688A032C08D1B5EEC08AF1EE4D
:101C600010FA03DDB1EE680AB0EE408AB0EE480A21
:101C7000BDEC068B10BD10B52DED068B0446424918
:101C8000088C1CF0FFF841EC1A0B9FED400B53EC55
:101C9000102B1CF005F841EC190B1CF063F908EE51
:101CA000100A3C4890ED050AF0EE408AF4EEC88A2E
:101CB000F1EE10FA02DDF0EE488A25E0B1EE480AB6
:101CC000F4EEC08AF1EE10FA04D2B1EE480AF0EE5A
:101CD000408A19E0F5EEC08AF1EE10FA0ADB38EE20
:101CE000A80A30EE080AF0EE080A80EE201AF0EE9C
:101CF000418A09E038EEA80A30EE480AF0EE080AF8
:101D000080EE201AF0EE418A022C06D1F5EEC08A50
:101D1000F1EE10FA01D2F0EE488A042C08D1F5EE6B
:101D2000C08AF1EE10FA03DDB1EE480AF0EE408A07
:101D3000B0EE680ABDEC068B10BD10B500230A2278
:101D40000121032011F09CFA134908600623242284
:101D50000221032011F094FA1049086010BD00F030
:101D6000010181F313887047BFF34F8F0C4800685F
:101D700000F4E0600B490843001D09490860BFF307
:101D80004F8F00BFFEE70000F03300209A99999929
:101D90009999B93F28340020940000209800002031
:101DA0000CED00E00000FA05F0B52DED088BA5B0B4
:101DB00000244FF4FA661427FE4800681422816854
:101DC0000EA80AF0D7FAE6E0FA49096888680AF02E
:101DD0002FF92490F7480068816807A809F0FDFFF3
:101DE0001C2207A91DA81DF0D5FBF24800688168D8
:101DF0000BA80AF0D0F80BA807C81AAB07C3ED4927
:101E00000968886809F036FF8DED170ACDED180ACC
:101E10008DED191AE7490968886809F0E1FE8DED32
:101E2000130ACDED140A8DED151ACDED161A2146C3
:101E3000E1A020F0FDFAE4A020F0FAFA9DF890105D
:101E4000E4A020F0F5FA9DED210A10EE101A0846E4
:101E50001CF044F841EC180B8DED028B9DED1F0B2F
:101E60008DED000B9DED1D1BB0EE410AF0EE610AF9
:101E700053EC102BDCA020F0DBFABDF96E000090D3
:101E8000BDF96C30BDF96A20BDF96810DFA020F003
:101E9000CFFA9DED190A10EE101A08461CF01EF834
:101EA00041EC180B9DED180A10EE101A08461CF0B4
:101EB00015F841EC190B9DED170A10EE101A0846A3
:101EC0001CF00CF841EC1A0B8DED028B8DED009B94
:101ED00053EC1A2BD8A020F0ABFA9DED160A10EEA9
:101EE000101A08461BF0FAFF41EC180B9DED150A7D
:101EF00010EE101A08461BF0F1FF41EC190B9DED96
:101F0000140A10EE101A08461BF0E8FF41EC1A0BF9
:101F10009DED130A10EE101A08461BF0DFFF41EC8E
:101F20001B0B8DED048B8DED029B8DED00AB53EC07
:101F30001B2BCBA020F07CFA9E4800688168684685
:101F400009F04BFF1C22694607A81DF023FB9DEDFD
:101F50000C0A10EE101A08461BF0C0FF41EC180BDB
:101F600053EC182BCCA020F063FA924909688868DA
:101F70000AF0C6F80D909DF8350000F007052946D7
:101F8000C9A020F055FACEA020F052FA32344FF416
:101F9000FA7003F0BDFBB442FFF616AFCBA020F001
:101FA00047FA012025B0BDEC088BF0BD2DE9F04FBC
:101FB0002DED088BA1B0002020904FF47A601F9087
:101FC00000201E900124C54800681D9001201C902F
:101FD00000267849CDE9006409681DAB48681C9A61
:101FE0001E990CF0C0FF05462DB9284621B0BDEC66
:101FF000088BBDE8F08F6F49096848681E990DF09D
:102000004FF94FF4FA7003F083FB01201E900A246D
:10201000B248001D00681B9001201C9000266549F5
:10202000CDE9006409681BAB48681C9A1E990CF046
:102030009AFF05460DB92846D8E75E490968486801
:102040001E990DF02DF94FF4FA7003F061FB022098
:102050001E903224A148083000681A9002201C907B
:1020600000265449CDE9006409681AAB48681C9AF7
:102070001E990CF078FF05460DB92846B6E74D4984
:10208000096848681E990DF00BF94FF4FA7003F0D7
:102090003FFB03201E90C8240020199001201C90B3
:1020A00000264449CDE90064096819AB48681C9AC8
:1020B0001E990CF058FF05460DB9284696E73D4994
:1020C000096848681E990DF0EBF84FF4FA7003F0B8
:1020D0001FFB4FF4FA5003F01BFB4FF47A674FF4E9
:1020E000FA780020069033490968086815F0D4FA98
:1020F00083460068C1685846884710EB070A00BF4E
:102100002C490968486822F0D3FB189029480068D8
:102110004168684622F058FA1822694612A81DF054
:1021200039FA24480068416803A822F0ABFA03A8F2
:1021300007C80FAB07C31F480068416802A822F018
:102140005BFC02A80FC8CDE90D23CDE90B011949AD
:102150000968486822F0D6F98DED070ACDED080A26
:102160008DED091ACDED0A1A13A0209920F060F91F
:1021700015A020F05DF917A0189920F059F99DEDF0
:10218000160A10EE101A08461BF0A8FE41EC180BB8
:102190008DED028B9DED120B8DED000B9DED141B53
:1021A000B0EE410AF0EE610A53EC102B0EA020F0C5
:1021B0003FF995E008000020436F756E746572204A
:1021C0003D2025643A0A00002D2D2D2D2D2D2D0AA0
:1021D00000000000466C6967687420537461747570
:1021E00073203D2025640A00506F736974696F6E17
:1021F00020284C4C4129203D20252E33662C2025BB
:102200002E33662C20252E33660A000052432043CD
:102210006F6D6D616E64732028722F702F792F742B
:10222000687229203D2025642C2025642C202564FB
:102230002C2025640A00000056656C6F6369747970
:10224000202876782C76792C767A29203D20252E28
:1022500033662C20252E33662C20252E33660A006B
:102260004174746974756465205175617465726E2A
:10227000696F6E2028772C782C792C7A29203D20C4
:10228000252E33662C20252E33662C20252E3366F2
:102290002C20252E33660A00686569676874203D26
:1022A0002025660A00000000636F6E74726F6C4434
:1022B000657669636528645329203D2025640A00FA
:1022C0002D2D2D2D2D2D2D0A0A000000446F6E6539
:1022D000207072696E74696E67210A0008770208BF
:1022E000BDF942000090BDF94030BDF93E20BDF976
:1022F0003C10AFF2E80020F09BF89DED0D0A10EEC7
:10230000101A08461BF0EAFD41EC180B9DED0C0A73
:1023100010EE101A08461BF0E1FD41EC190B9DED83
:102320000B0A10EE101A08461BF0D8FD41EC1A0BF0
:102330008DED028B8DED009B53EC1A2BAFF2081044
:1023400020F076F89DED0A0A10EE101A08461BF0F0
:10235000C5FD41EC180B9DED090A10EE101A084658
:102360001BF0BCFD41EC190B9DED080A10EE101A94
:1023700008461BF0B3FD41EC1A0B9DED070A10EE69
:10238000101A08461BF0AAFD41EC1B0B8DED048BC7
:102390008DED029B8DED00AB53EC1B2BAFF240108B
:1023A00020F046F8AFF2E80020F042F84FF4FA705F
:1023B00003F0AEF935490968086815F06DF98146F2
:1023C0000068C1684846884710EB080006900698E8
:1023D0005045FFF495AEAFF20C1020F029F82B49D0
:1023E0000968486800210DF092F940F6B83003F012
:1023F0008FF926490968486801210DF088F940F6EF
:10240000B83003F085F921490968486802210DF0C8
:102410007EF940F6B83003F07BF91C49096848683A
:1024200003210DF074F940F6B83003F071F9012082
:10243000DCE570B500230A220121032010F020FF03
:1024400013490860062324220221032010F018FFFC
:10245000104908601048007800F00100002814D1ED
:102460000D4820F021F900280FD000250C201FF086
:10247000B9FF04460125002112F0B2F804460025F8
:10248000064804600448AFF3008070BD08000020D7
:10249000A0000020A40000204006002044060020E8
:1024A0000FB42DE9F0478146589D2E4606F1C80726
:1024B0000DF13108BDF82600123884B2142C08DB67
:1024C000642C06DC2246414638461DF063F886F847
:1024D0009041BDE8F0075DF814FB70B504460D4669
:1024E000D14909682A46C86921460CF095F90020AF
:1024F000CE490860CE480068CE49086070BD0FB470
:102500002DE9F04389B00446609FBDF846001038BD
:10251000022865D80D2211A904A81DF03BF8204619
:102520000EF040F8C449884204D09DF85100CDF81F
:102530001D0003E0BDF85100CDF81D009DF82000FE
:102540008DF8000004A80FC806F0B0F948B1BB48E8
:1025500001909DF820008DF8000004A80FC806F037
:102560000EFF9DF844008DF808009DF845008DF899
:10257000090012988078072809D00222B04902A8E1
:102580001BF0A7F988B11298807801280DD1052099
:10259000ADF80C00BDF81D0080B2ADF80E000422AD
:1025A00003A9E0690CF038F919E01298807808283E
:1025B00008D00222A24902A81BF08BF978B1129828
:1025C000807860B90620ADF80C00BDF81D0080B21F
:1025D000ADF80E00042203A9E0690CF01DF919E022
:1025E00022F068FA814612F08AF8064622F062FA72
:1025F0008046DB20914B93A231460090404612F07A
:102600002AF805469DF84C20006891A18368284669
:10261000984700BF09B0BDE8F0035DF814FB0FB4A4
:102620002DE9F04F87B00546609F91480088CDF8AE
:1026300015004FF0010828460DF0E9FD8146BDF870
:1026400046001038022809D8BDF85100CDF8150011
:102650000D2211A902A81CF09DFF19E022F02AFA10
:10266000834612F04CF8064622F024FA82468C206B
:10267000804B74A231460090504611F0ECFF0446A6
:102680009DF84C20006872A183682046984700BFDF
:10269000DDF8150078490988884206D10022AFF29A
:1026A000810128460DF070FE25E0DDF81500734924
:1026B0000988884206D10022AFF29D0128460DF01C
:1026C000B7FD18E012988078012803D10220ADF8F8
:1026D000040005E01298807810B90320ADF80400DA
:1026E000BDF8150080B2ADF80600042201A9E86922
:1026F0000CF092F800BF07B0BDE8F00F5DF814FBD6
:102700000FB470B50646549DBDF82140022C06D08A
:10271000032C0CD0052C12D0062C44D129E0002229
:10272000AFF20511404800680DF02EFE3CE000229B
:10273000AFF215113C4800680DF07AFD34E03A48DC
:1027400000680DF02FFF3C49884209D036490968DE
:102750000023AFF25522C868072109F006FF07E001
:10276000314909680022C868AFF26D210AF07EF88D
:102770001AE02D4800680DF015FF2F49884209D056
:10278000294909680023AFF28922C868082109F0A5
:10279000ECFE07E0244909680022C868AFF2A121D5
:1027A0000AF0C4F800E000BF00BF70BC5DF814FB85
:1027B0007FB5054654AC1C4800688168684609F03E
:1027C00010FC9DE80F0084E80F007FBD70B500236A
:1027D0000A220121032010F053FD29490860062335
:1027E00024220221032010F04BFD264908602648D0
:1027F000007800F00100002814D123481FF054FF96
:1028000000280FD000250C201FF0ECFD0446012508
:10281000002111F0E5FE044600251C4804601A481A
:10282000AFF3008070BD000008000020A00243420A
:102830007C04002080040020000A01033177020894
:10284000057902084552524F524C4F470000000094
:1028500041434B20697320657863657074696F6EBE
:102860002C2073657175656E63652025640A000010
:10287000EC79020812770208867A0208887A020840
:10288000AC000020B00000204006002044060020DC
:102890002DE9FE43814601260A24FD480068029086
:1028A00002274FF00008FB49CDE90084096802AB1C
:1028B0003A46486831460CF056FB054615B928469D
:1028C000BDE8FE83F3490968486831460CF0E8FC2E
:1028D0004FF4FA5002F01CFF0120F1E730B52DED66
:1028E000028B85B00546284624F05BF8044620E0BC
:1028F000641C216908461BF0F1FA41EC180B8DEDC0
:10290000028BA068E168CDE9000120686168641E5F
:1029100041EC100B53EC102BDFA01FF089FDDD49BB
:102920000968096A00231A464868214611F05CFBD1
:102930005A34284624F031F8A042D9D105B0BDEC74
:10294000028B30BD9FEDDE0A10EE101A40F8151F05
:1029500000218180C1800172417464214182017D26
:1029600021F00F010175017D21F0F001017515388D
:10297000002108E0002300F12A025354103202EB38
:1029800041021380491C1029F4DB70472DE9F04700
:102990002DED0C8B98B006468846B0EE408AF0EEDE
:1029A000608A1546344617A823F0A3FC074639462B
:1029B000204623F09DFC0446002020606060A0605B
:1029C00000BF264628461BF04CFA41EC1A0B53EC8C
:1029D0001A2B9FEDBC0B51EC100B1BF0D3F941EC03
:1029E000190B002088F800004146304623F0DDFF37
:1029F000012476E0B146A4F1010A484623F0D1FF54
:102A0000CAEB0A1101EB410100EB410007466846A1
:102A1000FFF798FFE0B28DF8000020461BF021FA86
:102A200053EC192B1BF03CF941EC1C0BB0EE4C0A9B
:102A3000F0EE6C0A20F018FBB0EE40BAF0EE60BA8F
:102A400053EC182B51EC1B0B1BF02AF941EC1A0B21
:102A500057F8010F796841EC100B53EC102B51EC37
:102A60001A0B1BF076F8CDF80100CDF805102046C2
:102A70001BF0F7F953EC192B1BF012F941EC1C0B6E
:102A8000B0EE4C0AF0EE6C0A20F05EFBB0EE40BAFD
:102A9000F0EE60BA53EC182B51EC1B0B1BF000F955
:102AA00041EC1A0BB868F96841EC100B53EC102B91
:102AB00051EC1A0B1BF04DF8CDF80900CDF80D10B4
:102AC00038697F1E00EE100AF7EE000A30EE200A89
:102AD00010EE100ACDF811006946304623F065FF6C
:102AE000641CAC4286DB88F800504146304623F037
:102AF0005CFF18B0BDEC0C8BBDE8F08730B52DED58
:102B0000068BABB005460C46B0EE409AF0EE609AEC
:102B1000B0EE418A4FF4FA5002F0FAFD14A8FFF724
:102B200011FF5C4800680DF03DFD6849884232D0D5
:102B300058480068416801A821F046FD182201A903
:102B40000EA81CF027FDDDE91001CDF85100CDF8ED
:102B50005510DDE90E01CDF85900CDF85D1018EEE5
:102B6000100ACDF8610018EE100A1BF0B7F941EC1D
:102B70001A0B8DED02AB9DED0E0B8DED000B9DED57
:102B8000101BB0EE410AF0EE610A53EC102B50A07E
:102B90001FF04EFC31E03F4800688168684609F04C
:102BA0001CF91C22694607A81CF0F4FCDDE90701AA
:102BB000CDF85100CDF85510DDE90901CDF85900E7
:102BC000CDF85D1018EE100ACDF8610018EE100A6D
:102BD0001BF084F941EC1A0B8DED02AB9DED090B56
:102BE0008DED000B9DED071BB0EE410AF0EE610A82
:102BF00053EC102B36A01FF01BFC2246B0EE490A06
:102C0000F0EE690A14A92846FFF7C0FE2BB0BDEC10
:102C1000068B30BDB2EE040A10EE101AC01C40F84C
:102C2000021CB1EE040A10EE101AC0F802100021C6
:102C300081710121C17100210172417201218172F2
:102C40000021C1729FED2C0B52EC101BC160026180
:102C50009FED290B52EC101B416182619FED180A18
:102C600010EE101AC161C01E704710B52DED048B17
:102C700096B00446074800680DF094FC134988425A
:102C800046D004480068FFF703FE00B938E03FE093
:102C90005C77020808000020576179706F696E74D4
:102CA000206372656174656420617420284C4C4116
:102CB000293A20256620092566200925660A200074
:102CC00000000000182D4454FB211940000A0103A4
:102CD000576179706F696E742063726561746564A1
:102CE00020617420284C4C41293A20256620092572
:102CF00066200925660A00000000000000000000B0
:102D0000E1A01FF095FB002016B0BDEC048B10BDB8
:102D100009A8FFF77FFF601CC0B28DF824009FED6B
:102D2000E29BB2EE048A09A80090E1480068012302
:102D30000022016A01A80BF001FB4FF4FA7002F0C7
:102D4000E7FCDB490968086A0BF026FCD9A01FF0F4
:102D50006FFBB0EE481AB0EE490AF0EE690A214660
:102D600006A8FFF7CBFEDCA01FF062FB06A8FFF76A
:102D7000B5FDDFA01FF05CFBCD490968096A486812
:102D8000CB490968096A4968096800228B681146BD
:102D900098474FF4FA7002F0BBFCDBA01FF048FB31
:102DA000C3490968486801210CF0B1FC40F6B8300D
:102DB00002F0AEFC06A823F01FFE0120A4E710B528
:102DC0002DED068B96B00446B94800680DF0EAFB7D
:102DD000D44988420CD0B6480068FFF759FD38B98D
:102DE000A9A01FF025FB002016B0BDEC068B10BD7E
:102DF00000200090AE48006801231A46016A02A82C
:102E00000BF09CFAAA490968086A0BF0C5FBA848B0
:102E100000680DF0C7FBC349884226D0A44800686B
:102E2000416801A821F0D0FB182201A910A81CF0CC
:102E3000B1FB20461BF015F841EC180B9DED122B51
:102E4000B0EE421AF0EE621A9DED102BB0EE420A7F
:102E5000F0EE620A96490968096AB0EE482AF0EE77
:102E6000682A88680AF083FE25E091480068816836
:102E7000684608F0B2FF1C22694609A81CF08AFBCC
:102E800020461AF0EEFF41EC180B9DED092BB0EE39
:102E9000421AF0EE621A9DED0B2BB0EE420AF0EEF4
:102EA000620A83490968096AB0EE482AF0EE682A86
:102EB00088680AF05CFE00F09DF99BA01FF0B8FA4C
:102EC0007B490968096A886879490968096A8968D3
:102ED000096800228B68114698474FF4FA7002F097
:102EE00017FC4FF47A6002F013FC9AA01FF0A0FACE
:102EF0006F490968096A88686D490968096A8968BB
:102F0000096800228B691146984741F2883002F027
:102F1000FFFB94A01FF08CFA65490968096A88686C
:102F200063490968096A8968096800220B6A1146C1
:102F300098474FF47A6002F0EBFB20461AF091FFBD
:102F400041EC190B9FED890B53EC102B1AF0A8FEE6
:102F500041EC180B53EC182B86A01FF069FA2046A1
:102F60001AF07FFF41EC1A0B9FED800B53EC102BF6
:102F70001AF096FE41EC190B1AF0F4FF08EE100A55
:102F80004B490968096A002288681146B0EE480A70
:102F90000AF0A0FB42F2107002F0BAFB80A01FF012
:102FA00047FA01208DF81C00B1EE040A10EE100A59
:102FB000CDF81D003E490968096A00231A46886851
:102FC00007A90AF0EDFA42F2107002F0A1FB44F6F4
:102FD000206002F09DFB7FA01FF02AFA34490968A7
:102FE000096A886832490968096A8968096800229B
:102FF0000B69114698474FF47A7002F089FB77A06D
:103000001FF016FA2A4800680DF0CCFA45498842AC
:1030100009D027490968486801210CF078FB40F67F
:10302000B83002F075FB00F0ACFADDE670B50023B5
:103030000A220121032010F023F96A4908600623BF
:1030400024220221032010F01BF967490860674819
:10305000007800F00100002814D164481FF024FB20
:1030600000280FD000250C201FF0BCF904460125D4
:10307000002111F0B5FA044600255D4804605B4864
:10308000AFF3008070BD00004661696C6564207418
:103090006F20736574207570205375627363726955
:1030A0007074696F6E210A008DEDB5A0F7C6B03E51
:1030B00008000020496E697469616C697A696E67FD
:1030C00020576179706F696E74204D697373696FF1
:1030D0006E2E2E0A000000004372656174696E67EF
:1030E00020576179706F696E74732E2E0A0000008C
:1030F00055706C6F6164696E6720576179706F6994
:103100006E74732E2E0A00005374617274696E67B8
:1031100020576179706F696E74204D697373696FA0
:103120006E2E0A00000A01035374617274207769DD
:1031300074682064656661756C7420726F74617464
:10314000696F6E20726174653A203135206465675D
:103150002F730000506175736520666F72203573A0
:103160000A000000526573756D650A0000000000DA
:103170000000F83F55706461746520726164697580
:103180007320746F20312E35783A206E6577207267
:103190006164697573203D2025302E33660A000076
:1031A00055706461746520686F74706F696E742007
:1031B000726F746174696F6E20726174653A206E0B
:1031C00065772072617465203D2035206465672F26
:1031D000730A000053746F700A0000004C616E6443
:1031E0000A000000B8000020BC00002040060020BB
:1031F000440600202DE9F04F2DED048B9BB0FA48DA
:1032000000680DF0CFF9F94988422AD000201990C2
:103210004FF00A0AF648006815900220149000202A
:1032200013901398F049CDE9000A096815AB486876
:10323000149A19990BF097FE8346BBF1000F05D144
:1032400058461BB0BDEC048BBDE8F08FE649096819
:10325000486819990CF024F84FF4FA7002F058FA03
:1032600000BFE14909680022C868114609F0A1FBC6
:103270004FF4FA7002F04CFA43F698244FF4FA75C2
:1032800000270020189017901690D7490968086801
:1032900014F002FA80460068C16840468847061963
:1032A00000BF4FF4FA6002F033FACF4800680DF027
:1032B00079F9CE49884210D0CB490968486821F095
:1032C000F7FA012820D1C8490968486821F042FB73
:1032D000292819D10120189023E0C349096888687A
:1032E00008F0A6FE14909DF85000022809D0BE49AF
:1032F0000968886808F09CFE15909DF85400032822
:1033000002D1012018900CE0B7490968086814F050
:10331000C3F982460068C168504688474719B742DA
:10332000BFD300BF1898A0B9B2A01FF081F8AE4873
:1033300000680DF037F9AD49884208D0AA490968FC
:10334000486819990CF0E3F9322002F0E1F9002005
:1033500077E7B3A01FF06CF8A3490968086814F078
:103360009BF981460068C16848468847061900BF36
:103370004FF4FA6002F0CCF99B4800680DF012F9A6
:103380009A49884217D098490968486821F090FA0C
:1033900002281DD194490968486821F0DBFA0A28FF
:1033A00006D091490968486821F0D4FA0B280FD15A
:1033B0000120179019E08C490968886808F038FEE8
:1033C00015909DF85400032802D1012017900CE0BD
:1033D00085490968086814F05FF982460068C16889
:1033E000504688474719B742C2D300BF1798A8B9BB
:1033F00091481FF01DF87C4800680DF0D3F87B4918
:10340000884209D078490968486819990CF07FF911
:103410004FF4FA7002F07CF9002012E787A01FF049
:1034200007F871490968086814F036F91A900068BD
:10343000C1681A98884706196B4800680DF0B2F801
:103440006A49884223D000BF4FF4FA6002F060F965
:1034500065490968486821F07DFA0A2806D1624961
:103460000968486821F076FA0B2802D001201690EE
:103470000CE05D490968086814F00EF9824600689E
:10348000C168504688474719B742DDD300BF564848
:1034900000680DF087F85549884220D052490968E4
:1034A000486821F057FA062806D14F49096848684C
:1034B00021F050FA012803D066A01EF0B9FF4DE0BC
:1034C0006A481EF0B5FF48490968486819990CF028
:1034D0001EF94FF4FA7002F01BF90020B1E64248E1
:1034E0000068816808A808F078FC00BF40F6B83092
:1034F00002F00EF93C480068816801A808F06DFCF4
:103500001C2201A90FA81CF045F8DDED130A9DED62
:103510000C1A30EEC10AB0EEC08A00BF9DED130A4E
:103520008DED0C0A18EE100A1AF0D8FC41EC190BBC
:103530009FED4F0B53EC102B1AF0FCFCD6D99DEDF0
:10354000130A10EE101A08461AF0C8FC41EC190BC9
:1035500053EC192B48A01EF06BFF00BF22480068F7
:103560000DF020F82149884209D01F4909684868B0
:1035700019990CF0CCF840F6B83002F0C9F80120E7
:103580005FE62DE9F04F93B047F230544FF4FA75EF
:103590004FF0000A00201290119010900F900A2016
:1035A0000E90114800680CF0FDFF104988427FD052
:1035B0000F48001D00680D9002200C904FF0000B8A
:1035C0000E9880B20849CDE900B009680DAB486893
:1035D0000C9A0F990BF0C7FC8146B9F1000F5CD132
:1035E000484613B0BDE8F08F08000020000A010330
:1035F0006077020854616B656F6666206661696C6E
:1036000065642E204D6F746F7273206661696C65FE
:103610006420746F207374617274210A00000000CA
:103620000A5375636365737366756C2074616B65AB
:103630006F6666210A000000A4A302085665686947
:10364000636C6520617363656E64696E672E2E2EF0
:103650000A00000056656869636C6520697320681C
:103660006F766572696E670A00000000F4A20208B6
:103670003BDF4F8D976E823F416972637261667462
:1036800020686F766572696E6720617420252E351B
:10369000666D21200A0000000AE0FE4909684868BA
:1036A0000F990BF0FDFD4FF4FA7002F031F800BFF6
:1036B000F84909680022C868114609F000FA4FF479
:1036C000FA7002F025F8F3490968086813F0E4FF7E
:1036D00007460068C16838468847061900BF4FF49E
:1036E000FA6002F015F8EB4800680CF05BFFEA495D
:1036F000884209D0E7490968486821F02BF90C286D
:103700000FD1012012901AE0E2490968886808F098
:103710008FFC0D909DF83400042802D001201290F7
:103720000DE0DC490968086813F0B6FF81460068BF
:10373000C1684846884710EB050AB245CFD300BFA1
:103740001298B8B9D5A01EF073FED24800680CF0EC
:1037500029FFD149884209D0CE49096848680F99A4
:103760000BF0D5FF4FF4FA7001F0D2FF002013B038
:10377000BDE8F08FD5A01EF05BFEC6490968086859
:1037800013F08AFF80460068C168404688470619E2
:1037900000BF4FF4FA6001F0BBFFBE4800680CF0B8
:1037A00001FFBD4988421ED0BA490968486821F026
:1037B000D1F80C2846D0B7490968486821F078F854
:1037C00002283FD0B3490968486821F0C3F80628A9
:1037D00006D1B0490968486821F0BCF8012831D009
:1037E000012011903CE0AB490968886808F020FC92
:1037F0000D909DF83400052803D1642001F088FF66
:1038000020E000BF4FF4FA6001F082FFA148006899
:103810008168684608F0E1FA1C22694607A81BF097
:10382000B9FE9DED0B0AB5EEC00AF1EE10FAE9D132
:103830009DED0B0AB5EEC00AF1EE10FA01D10120A0
:10384000119000BF93490968086813F025FF81466D
:103850000068C1684846884710EB050AB24598D30E
:1038600000BF119818B19EA01EF0E2FD15E0A2481D
:103870001EF0DEFD874800680CF094FE8649884201
:1038800009D08449096848680F990BF040FF4FF44C
:10389000FA7001F03DFF002069E77E4800680CF0F7
:1038A00081FE7D49884209D07A49096848680F99A4
:1038B0000BF02DFF40F6B83001F02AFF012056E74B
:1038C0002DE9F05F2DED0A8B83460E4614461D460A
:1038D000704800680CF066FE6F49884250D0274659
:1038E000A9464D46D9F80000D9F8041041EC100B58
:1038F0003C463868796853EC102B1AF0CBF941EC50
:10390000180BD9F80800D9F80C1041EC100BB86866
:10391000F96853EC102B1AF0BDF941EC190B9FED2F
:10392000770B53EC102B51EC190B1AF0B9F91AF074
:1039300019FB3060B868F96841EC100B1FF094FB7C
:10394000B0EE40BAF0EE60BA9FED6C0B53EC102B6A
:1039500051EC180B1AF0A4F953EC1B2B1AF0A0F938
:103960001AF000FB7060386900EE100AD9F81000F8
:1039700000EE900A30EE600A10EE100AB06056E0D9
:10398000A046AA465546DAF80800DAF80C1041ECD1
:10399000100B4446D8F80800D8F80C1053EC102B44
:1039A0001AF078F941EC180BDAF80000DAF8041094
:1039B00041EC100BD8F80000D8F8041053EC102B91
:1039C0001AF068F941EC190B9FED4C0B53EC102BDE
:1039D00051EC190B1AF064F91AF0C4FA3060D8F8F7
:1039E0000000D8F8041041EC100B1FF03DFBB0EEC6
:1039F00040BAF0EE60BA9FED410B53EC102B51EC46
:103A0000180B1AF04DF953EC1B2B1AF049F91AF068
:103A1000A9FA7060D8F8100000EE100ADAF8100069
:103A200000EE900A30EE600A10EE100AB060BDECB5
:103A30000A8BBDE8F09F30B52DED108B85B00446A4
:103A40002546A86800EE100A20EE000A10EE101AB3
:103A500008461AF043FA41EC190BE86800EE100A28
:103A600020EE000A10EE101A08461AF037FA41EC60
:103A70001F0B53EC192B1AF06CF841EC1E0B9FED49
:103A8000210B53EC102B1AF00BF941EC1D0B9FEDA1
:103A90001F0B3FE008000020000A01034C616E6428
:103AA000696E67206661696C65642E204169726386
:103AB00072616674206973207374696C6C20696E1E
:103AC00020746865206169722E0A00005665686975
:103AD000636C65206C616E64696E672E2E2E0A0021
:103AE0005375636365737366756C206C616E64698E
:103AF0006E67210A000000004CA30208000000408D
:103B0000A654584100000000000000C00000000062
:103B10000000F03F53EC102B1AF01BF841EC1A0B8D
:103B2000686800EE100AA86800EE900A20EE201ADD
:103B3000286800EE100AE86800EE900A00EE201AED
:103B400011EE101A08461AF0C9F941EC1D0B9FED51
:103B5000FE0B53EC102B1AF0A3F841EC1B0B68681A
:103B600000EE100AE86800EE900A20EE201A28689D
:103B700000EE100AA86800EE900A00EE601A11EE3E
:103B8000101A08461AF0AAF941EC1D0B1FED230B81
:103B900053EC102B1AF084F841EC180BA86800EED7
:103BA000100AE86800EE900A20EE201A286800EE5D
:103BB000100A686800EE900A00EE201A11EE101A42
:103BC00008461AF08BF941EC1D0B9FEDDF0B53EC0F
:103BD000102B1AF065F841EC1C0B686800EE100A17
:103BE00020EE000A10EE101A08461AF077F941ECA0
:103BF0001F0B53EC192B19F0ACFF41EC1E0B1FED02
:103C00003F0B53EC102B1AF04BF841EC1D0B1FED42
:103C1000410B53EC102B19F09CFFCDE900011FED77
:103C2000450B53EC102B51EC180B1AF083F902D210
:103C30001FED4A0B03E0B0EE480AF0EE680AB0EE62
:103C4000408AF0EE608A9FEDC20B53EC102B51ECD2
:103C5000180B1AF057F902D29FEDBD0B03E0B0EE3E
:103C6000480AF0EE680AB0EE408AF0EE608AB0EEE4
:103C7000480AF0EE680A1EF0E3FDB0EE40DAF0EE1E
:103C800060DA51EC1D0B1AF06DF902909DED001BEE
:103C9000B0EE4C0AF0EE6C0A1FF0EEF8B0EE40DA2F
:103CA000F0EE60DA51EC1D0B1AF05CF90390B0EE07
:103CB0004A1AF0EE6A1AB0EE4B0AF0EE6B0A1FF0E9
:103CC000DBF8B0EE40DAF0EE60DA51EC1D0B1AF0E2
:103CD00049F904909DED020ADDED030A9DED041AF9
:103CE00005B0BDEC108B30BD1FB5044605208DF826
:103CF00000008DF801008DF802008DF803008DF8AA
:103D0000040003208DF8050005208DF806008DF8CD
:103D100007008DF808008DF809008DF80A008DF86D
:103D20000B008DF80C008DF80D0000231A46694633
:103D3000A06808F030FA1FBD00B52DED060BCBB022
:103D400085484990322048904FF47A71489891FB09
:103D5000F0F04790479800EB8000400046903221F9
:103D600047984843459000204490322043907B4838
:103D700000680CF017FC7A4988422ED07948006818
:103D800008900220079000200690439880B2069980
:103D9000CDE9001071480068406808AB0490079AAC
:103DA00044990BF0E0F80590059810B9059851B0CA
:103DB00000BD6A4800684068049044990BF070FAAE
:103DC0004FF4FA7001F0A4FC64480068FFF78CFF20
:103DD0004FF4FA5001F09CFC00BF604800680CF002
:103DE000E1FB5F4988422BD05C4800680CF0DFFBA8
:103DF00030BB5A48006840680146029003A820F092
:103E0000E3FB182203A93DA81BF0C4FB18223DA91F
:103E100037A81BF0BFFB37AB3DAA26A94F48006867
:103E2000FFF74EFD4D48006880680146019002A8EA
:103E300007F0D3FF1C2202A930A81BF0ABFB18E04F
:103E40004648006880680146019002A807F0C5FF57
:103E50001C2202A930A81BF09DFB1C2230A929A816
:103E60001BF098FB29AB30AA26A93C480068FFF755
:103E700027FDDDED260A9DED4B0A30EE600A8DED43
:103E8000080A08981AF02AF8CDE92401DDED270A7E
:103E90009DED4C0A30EE600A8DED080A08981AF084
:103EA0001DF8CDE922019DED280AF1EE400A9DEDB5
:103EB0004D0A30EE600A8DED080A08981AF00EF8E7
:103EC000CDE920014E981AF009F89FED270B53EC2D
:103ED000102BCDE906019DED060B51EC100B19F0EE
:103EE000DFFECDE91E01509819F0F8FF9FED1E0B83
:103EF00053EC102BCDE906019DED060B51EC100B98
:103F000019F0CEFECDE91C01144800680CF04AFB04
:103F1000134988423ED0114800684068089020F05C
:103F2000F1FA8DED180ACDED190A8DED1A1ACDEDC5
:103F30001B1A18A8FFF77FFD8DED060ACDED070AC5
:103F40008DED081A089813E0000000000000004002
:103F5000000000000000F0BFA08601000800002063
:103F6000000A01036877020811DD52A246DF913F83
:103F7000039019F0B3FF1FED040B53EC102BCDE9A8
:103F800004019DED040B51EC100B19F0FBFECDE983
:103F9000120128E0FE4800688068089007F020FEC3
:103FA0008DED140ACDED150A8DED161ACDED171A0B
:103FB00014A8FFF740FD8DED060ACDED070A8DED43
:103FC000081A0898039019F089FF1FED190B53EC9C
:103FD000102BCDE904019DED040B51EC100B19F0F1
:103FE000D1FECDE912010020119010900F900E909B
:103FF00002200D909FEDE70A8DED090AE448006864
:104000000CF0D0FAE449884203D19FEDE40A8DED2B
:10401000090A9DED4B0AB5EEC00AF1EE10FA14DD67
:10402000DDED4B0A9DED0D0AB8EEC00AF4EEC00AB4
:10403000F1EE10FA02D29DED4B0A03E09DED0D0A60
:10404000B8EEC00A8DED0C0A23E09DED4B0AB5EEEB
:10405000C00AF1EE10FA18D20D98404200EE100A94
:10406000F8EEC00A9DED4B0AF4EEC00AF1EE10FA2C
:1040700002D29DED4B0A05E00D98404200EE100A79
:10408000B8EEC00A8DED0C0A03E09FEDC50A8DED78
:104090000C0A9DED4C0AB5EEC00AF1EE10FA14DDE3
:1040A000DDED4C0A9DED0D0AB8EEC00AF4EEC00A33
:1040B000F1EE10FA02D29DED4C0A03E09DED0D0ADF
:1040C000B8EEC00A8DED0B0A23E09DED4C0AB5EE6B
:1040D000C00AF1EE10FA18D20D98404200EE100A14
:1040E000F8EEC00A9DED4C0AF4EEC00AF1EE10FAAB
:1040F00002D29DED4C0A05E00D98404200EE100AF8
:10410000B8EEC00A8DED0B0A03E09FEDA50A8DED18
:104110000B0A9F4800680CF045FA9F49884208D076
:10412000DDED350A9DED4D0A30EE800A8DED0A0A6F
:1041300007E0DDED350A9DED4D0A30EE800A8DED8C
:104140000A0AE0E11FED780B53EC102B9DED1E0BDE
:1041500051EC100B19F016FECDE906019DED060B92
:1041600051EC100B19F0FEFE089089480068C068F9
:104170000790DDED081A9DED0A1ADDED0B0A9DEDA5
:104180000C0A08F054FD479880B2089001F0C0FA7C
:1041900011994798084411907D4800680CF002FA84
:1041A0007D49884245D07A4800680CF000FAE0BBAF
:1041B000774800684068089020F0A4F98DED180A4F
:1041C000CDED190A8DED1A1ACDED1B1A18A8FFF7BF
:1041D00032FC8DED060ACDED070A8DED081A089820
:1041E000059019F07BFECDE912016948006840682E
:1041F0000146029003A820F0E7F9182203A93DA880
:104200001BF0C8F937AB3DAA26A961480068FFF743
:1042100057FB5F48006880680146019002A807F0DC
:10422000DCFD1C2202A930A800E002E01BF0B2F97C
:1042300030E0574800688068089007F0D1FC8DEDA9
:10424000140ACDED150A8DED161ACDED171A14A826
:10425000FFF7F1FB8DED060ACDED070A8DED081A8B
:104260000898059019F03AFECDE912014848006817
:1042700080680146019002A807F0AFFD1C2202A948
:1042800030A81BF087F929AB30AA26A9404800685E
:10429000FFF716FBDDED260A9DED4B0A30EE600AB6
:1042A0008DED080A089819F019FECDE92401DDED1D
:1042B000270A9DED4C0A30EE600A8DED080A089839
:1042C00019F00CFECDE922019DED280AF1EE400A1D
:1042D0009DED4D0A30EE600A8DED080A089819F040
:1042E000FDFDCDE920010D9819F0BBFDCDE90601DA
:1042F0009DED240B1EF056F88DED040B9DED060B85
:1043000053EC102B9DED040B51EC100B19F0FAFD42
:1043100006D29DED240B51EC100B19F023FE0C90EE
:104320000D9819F09EFDCDE906019DED220B1EF0C2
:1043300039F88DED040B9DED060B53EC102B9DED24
:10434000040B51EC100B19F0DDFD06D29DED220B94
:1043500051EC100B19F006FE0B900D4800680CF0A4
:1043600021F90D49884258D14F9819F0B7FDCDE990
:1043700006019DED240B1EF015F88DED040B9DED4F
:10438000060B53EC102B9DED040B51EC100B09E0C8
:10439000080000208FC2F53D000A01039A99993F59
:1043A0000000000019F0AEFD37D24F9819F096FDCD
:1043B000CDE906019DED220B1DF0F4FF8DED040B00
:1043C0009DED060B53EC102B9DED040B51EC100BE7
:1043D00019F098FD21D29DED1E0B53EC102B9DED95
:1043E000120B51EC100B19F055FCCDE904019DEDB9
:1043F000040B1DF0D7FF8DED060B9DED1C0B53EC50
:10440000102B9DED060B51EC100B19F07BFD04D227
:10441000479910980844109069E04F9819F05EFD94
:10442000CDE906019DED240B1DF0BCFF8DED040BC5
:104430009DED060B53EC102B9DED040B51EC100B76
:1044400019F060FD4DD24F9819F048FDCDE90601F5
:104450009DED220B1DF0A6FF8DED040B9DED060BCF
:1044600053EC102B9DED040B51EC100B19F04AFD91
:1044700037D2099819F032FDCDE906019DED200BE8
:104480001DF090FF8DED040B9DED060B53EC102BF2
:104490009DED040B51EC100B19F034FD21D29DED74
:1044A0001E0B53EC102B9DED120B51EC100B19F061
:1044B000F1FBCDE904019DED040B1DF073FF8DEDC3
:1044C000060B9DED1C0B53EC102B9DED060B51ECD8
:1044D000100B19F017FD04D247991098084410905A
:1044E00005E0109818B147990F9808440F90469925
:1044F0000F98884202DD002010900F904599109887
:10450000884200DB04E0499911988842FFF61AAE10
:1045100000BF534800680CF045F85249884213D058
:104520000EE04F480068C068089008F084FC479887
:1045300080B2089001F0ECF847990E9808440E906C
:1045400045990E988842ECDB49991198884217DB0F
:1045500045A01DF06DFF424800680CF023F841496A
:1045600088420AD03E4800684068089044990BF0A1
:10457000CEF84FF4FA7001F0CBF83F48007816E41B
:10458000374800680CF00EF8364988420AD03448A3
:1045900000684068089044990BF0B9F840F6B830CC
:1045A00001F0B6F83548007801E42DE9F0470546FA
:1045B00042F210774FF032084FF47A7090FBF8F423
:1045C00004EB84004FEA4009322004FB00FA002685
:1045D00012E0234909685FED8E1A1FED8F1A5FED17
:1045E000900A00EE105AB8EEC00AC86808F048FBFE
:1045F000A0B201F08DF82644BE42EADB1F480078E5
:10460000BDE8F08770B500230A22012103200EF0D7
:1046100037FE1B49086006232422022103200EF0E6
:104620002FFE184908601848007800F001000028A3
:1046300014D115481EF038F800280FD000250C20A2
:104640001DF0D0FE0446012500210FF0C9FF0446ED
:1046500000250E4804600C48AFF3008070BD0000D8
:1046600008000020000A01035461736B2074696D17
:10467000656F7574210A00006F7702086E77020873
:10468000C4000020C800002040060020440600208E
:1046900010B52DED068B84B0044694ED020A10EEA1
:1046A000101A084619F01AFC41EC180B94ED010A97
:1046B00010EE101A084619F011FC41EC190B94ED9C
:1046C000000A10EE101A084619F008FC41EC1A0B0B
:1046D0008DED028B8DED009B53EC1A2BFEA01DF08F
:1046E000A7FE04B0BDEC068B10BD1CB5044694EDCE
:1046F000000ABDEEC00A10EE100A00B2ADF80200CA
:1047000094ED010ABDEEC00A10EE100A00B2ADF839
:10471000040094ED020ABDEEC00A10EE100A00B2C9
:10472000ADF80000207B8DF807009DF806008DF89D
:1047300006009DF80600217C0843C0B28DF80600F3
:104740009DF80600217D40EA4100C0B28DF80600C8
:104750009DF80600A17D40EA8100C0B28DF80600F8
:104760009DF80600617D40EAC100C0B28DF80600E8
:10477000E74909684869694608F081FC4FF47A60A6
:1047800000F0C6FF1CBD00B5B5B0002022909FED23
:10479000E11ADFEDE00A9FEDDF0A2FA81BF0F2FB24
:1047A0009FEDDC1ADFEDDB0A9FEDDA0A099032A8F3
:1047B0001BF0E8FB08900020019002900390049009
:1047C00000900998D0ED022A90ED012AD0ED001A50
:1047D000089890ED021AD0ED010A90ED000A00232E
:1047E0001A46194616A81BF0D4FB9FEDCA1ADFED36
:1047F000C90A9FEDC80A13A81BF0C4FB9FEDC51A98
:10480000DFEDC40A9FEDC30A10A81BF0BBFB00201C
:104810000D900A200C90BE4800680BF0C3FEBE4904
:1048200088422AD0BD4800680990022008900020E4
:1048300007900C9880B20799CDE90010B448006841
:10484000406809AB0590089A0D990AF08CFB069018
:10485000069810B9069835B000BDAD4800684068AC
:1048600005900D990AF01CFD4FF4FA7000F050FF0E
:104870004FF4FA6000F04CFF00BFA9481DF0D8FDCE
:10488000A34800680BF08EFEA349884230D0A048B0
:104890000068406806901FF059FF8DED070ACDEDC6
:1048A000080A8DED091A9DED080A8DED130A984846
:1048B0000068406806901FF049FF8DED070ACDEDB6
:1048C000080A8DED091A9DED070A8DED140A90482E
:1048D0000068406806901FF039FF8DED070ACDEDA6
:1048E000080A8DED091A9DED090A8DED150A35E0CE
:1048F0008748006880680146019002A807F071FBB4
:1049000002A80FC8CDE90823CDE906019DED060AEE
:104910008DED130A7E48006880680146019002A868
:1049200007F05FFB02A80FC8CDE90823CDE9060117
:104930009DED070A8DED140A7548006880680146F0
:10494000019002A807F04DFB02A80FC8CDE908238B
:10495000CDE906019DED080A8DED150A1598039025
:1049600019F0BCFACDE908011498039019F0B6FAD1
:10497000CDE906011398039019F0B0FACDE90401CE
:10498000DDE90801CDE90201DDE90601CDE900011B
:104990009DED040B53EC102B62A01DF049FD9FED23
:1049A0005D1ADFED5C0A9FED5B0A2FA81BF0EAFAA7
:1049B000099000200123CDE90130039004901420D8
:1049C00000900998D0ED022A90ED012AD0ED001A4E
:1049D0009DED151ADDED140A9DED130A00231A460C
:1049E000194623A81BF0D5FA30220146089016A8D4
:1049F0001AF0D0FD16A8FFF778FE59481DF018FDF3
:104A0000434800680BF0CEFD4349884230D040480F
:104A10000068406806901FF099FE8DED070ACDED05
:104A2000080A8DED091A9DED080A8DED100A384827
:104A30000068406806901FF089FE8DED070ACDEDF5
:104A4000080A8DED091A9DED070A8DED110A30480F
:104A50000068406806901FF079FE8DED070ACDEDE5
:104A6000080A8DED091A9DED090A8DED120A7DE007
:104A70002748006880680146019002A807F0B1FA53
:104A800002A80FC8CDE90823CDE906019DED060A6D
:104A90008DED100A1E48006880680146019002A84A
:104AA00007F09FFA02A80FC8CDE90823CDE9060157
:104AB0009DED070A8DED110A1548006880680146D2
:104AC000019002A807F08DFA02A80FC8CDE90823CB
:104AD000CDE9060146E000004E65772047696D622A
:104AE000616C20726F746174696F6E20616E676CA7
:104AF00065206973205B2025302E33662C202530FD
:104B00002E33662C2025302E3366205D0A0A0000E5
:104B10000800002000000000000A01036C77020872
:104B2000F4A30208496E697469616C2047696D627B
:104B3000616C20726F746174696F6E20616E676C56
:104B4000653A205B2025302E33662C2025302E330D
:104B5000662C2025302E3366205D0A0A00000000F6
:104B6000A0A502089DED080A8DED120A0020019013
:104B700002900390049014200090DDED122A9DED28
:104B8000112ADDED101A9DED151ADDED140A9DEDCB
:104B9000130A4FF4E163C822002123A81BF0F9F99E
:104BA00030220146099016A81AF0F4FC16A8FFF767
:104BB0009CFDFE4800680BF0F5FCFD49884230D0B2
:104BC000FA480068406806901FF0C0FD8DED070AA6
:104BD000CDED080A8DED091A9DED080A8DED100A3C
:104BE000F2480068406806901FF0B0FD8DED070A9E
:104BF000CDED080A8DED091A9DED070A8DED110A1C
:104C0000EA480068406806901FF0A0FD8DED070A95
:104C1000CDED080A8DED091A9DED090A8DED120AF8
:104C200035E0E248006880680146019002A807F07C
:104C3000D8F902A80FC8CDE90823CDE906019DEDFA
:104C4000060A8DED100AD948006880680146019077
:104C500002A807F0C6F902A80FC8CDE90823CDE9DC
:104C600006019DED070A8DED110AD04800688068A5
:104C70000146019002A807F0B4F902A80FC8CDE9D7
:104C80000823CDE906019DED080A8DED120A10A852
:104C9000FFF7FEFCC7A01DF0CBFBCDA01DF0C8FBAD
:104CA000C24800680069099007F0DFFBCDA01DF045
:104CB000BFFBD8481DF0BCFB1FED6A1A5FED6B0A05
:104CC0001FED6C0A2FA81BF05DF90990002001234D
:104CD000CDE9013003900490142000900998D0EDA4
:104CE000022A90ED012AD0ED001A9DED151ADDED96
:104CF000140A9DED130A0023C74A194623A81BF086
:104D000048F930220146089016A81AF043FC16A86C
:104D1000FFF7EBFCA54800680BF044FCA44988426F
:104D200030D0A2480068406806901FF00FFD8DED5E
:104D3000070ACDED080A8DED091A9DED080A8DEDE3
:104D4000100A9A480068406806901FF0FFFC8DED3D
:104D5000070ACDED080A8DED091A9DED070A8DEDC4
:104D6000110A92480068406806901FF0EFFC8DED34
:104D7000070ACDED080A8DED091A9DED090A8DEDA2
:104D8000120A35E08948006880680146019002A84F
:104D900007F027F902A80FC8CDE90823CDE90601DD
:104DA0009DED060A8DED100A804800688068014676
:104DB000019002A807F015F902A80FC8CDE9082351
:104DC000CDE906019DED070A8DED110A77480068CF
:104DD00080680146019002A807F003F902A80FC8F5
:104DE000CDE90823CDE906019DED080A8DED120AF3
:104DF00010A8FFF74DFC6FA01DF01AFB87A01DF057
:104E000017FB6A4800680069099007F035FB88487D
:104E10001DF00EFB87A01DF00BFB6420ADF83A00DF
:104E20003220ADF83C006FF0C700ADF838004FF409
:104E30007A600B9064200A90002009900FE05B4894
:104E4000006840690EA9089008F033F90A9880B20A
:104E5000089000F05DFCDDE90901084409900B9918
:104E600009988842EBDB514800680BF09BFB5049E6
:104E7000884230D04D480068406806901FF066FCBC
:104E80008DED070ACDED080A8DED091A9DED080A92
:104E90008DED100A45480068406806901FF056FCEA
:104EA0008DED070ACDED080A8DED091A9DED070A73
:104EB0008DED110A3D480068406806901FF046FCE1
:104EC0008DED070ACDED080A8DED091A9DED090A51
:104ED0008DED120A35E03548006880680146019082
:104EE00002A807F07EF802A80FC8CDE90823CDE993
:104EF00006019DED060A8DED100A2C4800688068B9
:104F00000146019002A807F06CF802A80FC8CDE98D
:104F10000823CDE906019DED070A8DED110A23480E
:104F2000006880680146019002A807F05AF802A8BC
:104F30000FC8CDE90823CDE906019DED080A8DEDE6
:104F4000120A10A8FFF7A4FB49A01DF071FA9FED0B
:104F50004E1ADFED4D0A9FED4C0A2FA81BF012F8F8
:104F6000099000200123CDE9013003900490142022
:104F700000900998D0ED022A90ED012AD0ED001A98
:104F80009DED151ADDED140A9DED130A00231A4656
:104F9000194623A81AF0FDFF30220146089016A8F2
:104FA0001AF0F8FA16A8FFF7A0FB6FE0080000203F
:104FB000000A0103456E73757265205344206361D6
:104FC00072642069732070726573656E742E0A00B6
:104FD00054616B696E6720706963747572652E2EFB
:104FE0000A000000436865636B20444A4920474F2C
:104FF00020417070206F72205344206361726420DE
:10500000666F722061206E657720706963747572B7
:10501000652E0A0054A502080CFEFFFF537461724E
:1050200074696E6720766964656F2E2E0A00000031
:105030008CA4020853657474696E6720526F6C6C9F
:10504000207261746520746F2031302C2050697497
:105050006368207261746520746F20352C2059615B
:1050600077205261746520746F202D32302E0A0033
:10507000526573657474696E6720706F73697469C3
:105080006F6E2E2E2E0A000000000000634800689C
:105090000BF088FA6249884230D060480068406866
:1050A00006901FF053FB8DED070ACDED080A8DED3C
:1050B000091A9DED080A8DED100A584800684068ED
:1050C00006901FF043FB8DED070ACDED080A8DED2C
:1050D000091A9DED070A8DED110A504800684068D5
:1050E00006901FF033FB8DED070ACDED080A8DED1C
:1050F000091A9DED090A8DED120A39E0474800684A
:1051000080680146019002A806F06BFF03A80DC855
:105110000299CDE90823CDE906109DED060A8DED33
:10512000100A3E48006880680146019002A806F017
:1051300058FF02A90EC90598CDE9072306910990E9
:105140009DED070A8DED110A34480068806801461C
:10515000019002A806F045FFDDE90403DDE9021233
:10516000CDE90803CDE906129DED080A8DED120A7E
:1051700010A8FFF78DFA2BA01DF05AF927480068F8
:105180000069099007F07FF94FF47A7000F0C0FAD7
:1051900029A01DF04DF9214800680BF003FA2049C1
:1051A00088420AD01D480068406809900D990AF0AD
:1051B000AEFA40F6B83000F0ABFA0120FFF74BBB77
:1051C00070B500230A22012103200EF059F8264968
:1051D000086006232422022103200EF051F82349FF
:1051E00008602348007800F00100002814D120480E
:1051F0001DF05AFA00280FD000250C201DF0F2F8FF
:105200000446012500210FF0EBF90446002519485A
:1052100004601748AFF3008070BD00000800002054
:10522000000A010353746F7070696E6720766964B9
:10523000656F2E2E2E0A0000436865636B20444A7A
:105240004920474F20417070206F722053442063E3
:1052500061726420666F722061206E6577207669C6
:1052600064656F2E0A000000D0000020D4000020EA
:10527000400600204406002000B52DED040B2DED66
:10528000108B89B09DED1B0A20EE000A10EE101A5B
:10529000084618F023FE41EC190B9DED1C0A20EE88
:1052A000000A10EE101A084618F018FE41EC1F0B09
:1052B00053EC192B18F04DFC41EC1E0B9FEDA10B8C
:1052C00053EC102B18F0ECFC41EC1D0B9FED9F0BE9
:1052D00053EC102B18F03DFC41EC1A0B9DED1A0A13
:1052E000DDED1B0A20EE200ADDED190A9DED1C1AEA
:1052F00000EE810A10EE101A084618F0EFFD41EC9E
:105300001D0B9FED940B53EC102B18F0C9FC41ECD6
:105310001B0B9DED1A0ADDED1C0A20EE200ADDEDC7
:10532000190A9DED1B1A00EEC10A10EE101A08466C
:1053300018F0D4FD41EC1D0B9FED820B53EC102BAC
:1053400018F0AEFC41EC180B9DED1B0ADDED1C0ABC
:1053500020EE200ADDED190A9DED1A1A00EE810AF1
:1053600010EE101A084618F0B9FD41EC1D0B9FED28
:10537000790B53EC102B18F093FC41EC1C0B9DEDBA
:105380001A0A20EE000A10EE101A084618F0A6FDC0
:1053900041EC1F0B53EC192B18F0DBFB41EC1E0BFF
:1053A0009FED680B53EC102B18F07AFC41EC1D0BB1
:1053B0009FED660B53EC102B18F0CBFBCDE90001F1
:1053C0009FED620B53EC102B51EC180B18F0B2FD53
:1053D00002D29FED5E0B03E0B0EE480AF0EE680AE1
:1053E000B0EE408AF0EE608A9FED5C0B53EC102B20
:1053F00051EC180B18F086FD02D29FED580B03E01C
:10540000B0EE480AF0EE680AB0EE408AF0EE608A2C
:10541000B0EE480AF0EE680A1DF012FA8DED060BA8
:105420009DED001BB0EE4C0AF0EE6C0A1DF024FD61
:105430008DED040BB0EE4A1AF0EE6A1AB0EE4B0A8C
:10544000F0EE6B0A1DF018FD8DED020B9DED020BC9
:105450009DED041B9DED062B09B0BDEC108B0FBD1F
:1054600000B52DED040B87B0DDED0A1A9DED091A8C
:10547000DDED080A9DED070AFFF7FEFE8DED000B3E
:105480008DED021B8DED042B9DED000B0BB000BDCF
:1054900000B52DED040B87B0DDED0A1A9DED091A5C
:1054A000DDED080A9DED070AFFF7E6FE8DED000B26
:1054B0008DED021B8DED042B9DED020B0BB000BD9D
:1054C00000B52DED040B87B0DDED0A1A9DED091A2C
:1054D000DDED080A9DED070AFFF7CEFE8DED000B0E
:1054E0008DED021B8DED042B9DED040B0BB000BD6B
:1054F00010B52DED048BB0EE408AF0EE608A9FED82
:10550000190B53EC102B51EC180B18F0C9FB41ECA4
:10551000190BB0EE490AF0EE690ABDEC048B10BD20
:1055200010B500230A22012103200DF0A9FE0F4926
:10553000086006232422022103200DF0A1FE0C495D
:10554000086010BD00000000000000C00000000066
:105550000000F03F000000000000004000000000DC
:105560000000F0BFE8C35CB0DDA54C40DC000020CB
:10557000E000002010B500F09DF84FF4A06000F0AE
:10558000B3F914F09DFB13F0C5FD12F0B8FB12F057
:1055900019FD13F0CAF800F04CF915F013FC12F0E5
:1055A00057FA13F02BFA10BD10B500230A2201217F
:1055B00003200DF065FE0549086006232422022120
:1055C00003200DF05DFE0249086010BDE8000020D8
:1055D000EC0000201FB50121084601F0D6FE012194
:1055E000084601F0D2FE0020ADF80C00ADF8060030
:1055F000C720029042F2CF00ADF8040000208DF8E1
:105600000E0001A9534802F068F819208DF8000037
:1056100003208DF801008DF8020001208DF80300B1
:10562000684600F066F901214A4802F00BFD0122AC
:105630001146484802F0F2FC0021464802F0D6F834
:105640001FBD1FB50121084601F08EFE012108464D
:1056500001F08AFE0020ADF80C00ADF80600C7206E
:105660000290272002904AF20F40ADF8040001A9F1
:105670004FF0804002F031F81C208DF8000002202D
:105680008DF8010003208DF8020001208DF8030041
:10569000684600F02EF90121880702F0D3FC0122B0
:1056A0001146900702F0BAFC00214FF0804002F052
:1056B0009DF81FBD30B5284800684FF47A72B0FBE2
:1056C000F2F1B1F1807F01D301201DE021F07F4094
:1056D000401E4FF0E022506150170022002807DAE8
:1056E00013071D0E1D4B00F00F04241F1D5503E072
:1056F00013071C0E1A4B1C5400BF00204FF0E02271
:10570000906107201061002008B100BFFEE730BDA6
:10571000002106E047F2305100BF0A1EA1F101014D
:10572000FBD1021EA0F1010398B2F3D1704710B56E
:1057300000230A22012103200DF0A2FD094908607F
:1057400006232422022103200DF09AFD0649086059
:1057500010BD0000000001402401002018ED00E011
:1057600000E400E0F8000020FC00002000B587B055
:105770000121032001F0C5FD0121102001F005FEEB
:105780004FF40070059002208DF8180003208DF86A
:10579000190000208DF81A0001208DF81B0005A9C2
:1057A000484801F0CBFA8020059005A9464801F051
:1057B000C5FA07220921434801F04BFB0722114695
:1057C000414801F046FB4FF4613001900020ADF8F4
:1057D0000800ADF80A00ADF80C00ADF810000C2080
:1057E000ADF80E0001A9394802F083FD012240F214
:1057F0002551364802F0BBFE0121344802F001FE7B
:1058000000BF8021314802F0D7FE0128F9D107B04E
:1058100000BD08B501208DF801008DF8020025209B
:105820008DF8000001208DF80300684600F061F853
:1058300008BD10B5FFF79AFFFFF7EBFF10BD70B57D
:105840002021224802F0B8FE012828D1002020495A
:1058500008702048006804681C4802F001FEC5B2C8
:1058600020682946C269204690471B4908700846AF
:105870000078012812D117490968086811F021FF42
:105880001649086008460168124800680DF03BFAA6
:1058900000201149087001200D49087000BF70BD3B
:1058A00010B500230A22012103200DF0E9FC0C4968
:1058B000086006232422022103200DF0E1FC09499F
:1058C000086010BD000002400004024000100140CA
:1058D0000401002008000020010000200400002036
:1058E000080100200C01002032490143324A1160B6
:1058F000704770B5002100230F22C4781CB32E4CD2
:10590000246804F4E064C4F5E064C4F30721C1F141
:105910000404E3B20A4144789C40E1B28478144024
:1059200021430C07210E254C05786155047804F0BD
:105930001F050124AC4005786D11AD0005F1E0258F
:10594000C5F8004109E0047804F01F050124AC40CB
:105950001B4D0678761145F8264070BD194A0A405D
:105960000243154B1B1F1A60704739B1124A121DB2
:1059700012680243104B1B1D1A6006E00E4A121DEE
:10598000126882430C4B1B1D1A607047042808D113
:105990004FF0E021096941F004014FF0E02211616C
:1059A00007E04FF0E021096921F004014FF0E02207
:1059B000116170470000FA050CED00E000E400E022
:1059C00080E100E080FFFF1F10B50446FE488442DE
:1059D00009D10121480601F031FD00214FF000708E
:1059E00001F02CFD08E00121880601F027FD0021CF
:1059F0004FF0806001F022FD10BD30B5024600205E
:105A00000023146824F002041460146844F00104B4
:105A1000146000E05B1C546804F001041CB94FF6EC
:105A2000FF74A342F6D1546804F001040CB90020BD
:105A30006CE08C79012C04D1146844F0800414606B
:105A400003E0146824F080041460CC79012C04D1A4
:105A5000146844F04004146003E0146824F0400427
:105A600014600C7A012C04D1146844F020041460F2
:105A700003E0146824F0200414604C7A012C04D153
:105A8000146844F01004146003E0146824F0100457
:105A900014608C7A012C04D1146844F0080414605A
:105AA00003E0146824F008041460CC7A012C04D1BB
:105AB000146844F00404146003E0146824F004043F
:105AC00014608C78A407CD7844EA05640D7944EA23
:105AD00005444D7944EA05540D886D1E2C43D4616C
