:020000040800F2
:10000000A0C0002021870008298700082B8700084E
:100010002D8700082F8700083187000800000000A6
:10002000000000000000000000000000338700080E
:100030003587000800000000378700082177010895
:100040003B8700083B8700083B8700083B87000888
:100050003B8700083B8700083B8700083B87000878
:100060003B8700083B8700083B8700083B87000868
:100070003B8700083B8700083B8700083B87000858
:100080003B8700083B8700083B8700083B87000848
:10009000B18801083B8700083B8700083B870008C0
:1000A0003B8700083B8700083B8700083B87000828
:1000B0003B8700083B8700083B8700083B87000818
:1000C0003B8700083B8700083B8700083B87000808
:1000D0003B870008D7560008C5AB0108CFAB010825
:1000E0003B8700083B8700083B8700080DA40108F8
:1000F0003B870008A9A501083B8700083B8700084B
:100100003B8700083B8700083B8700083B870008C7
:10011000D9AB01083B8700083B8700083B870008F4
:100120003B8700083B8700083B8700083B870008A7
:100130003B8700083B8700083B8700083B87000897
:10014000638A01083B8700083B8700083B8700085B
:100150003B8700083B8700083B870008E3AB0108AA
:100160003B8700083B8700083B8700083B87000867
:100170003B8700083B8700083B8700083B87000857
:100180003B8700083B870008DFF814D01EF0EEFE26
:100190001DF008FC00480047F10700081EF0FDFBB9
:1001A000A0C00020FEB442464B4654465D463EB4D5
:1001B0001DF047F93EBC90469946A246AB46FEBCB0
:1001C00000F032F8704700BF80EC200B7047C0ECA5
:1001D000200B704790EC200B7047D0EC200B704741
:1001E00085460D98DDF838E00F9B5DF8042B20E97B
:1001F0000C009DE8FE1F854601BD4DF808ED0DF190
:10020000080E4DF804ED2DE9FF1F002102B46946E8
:1002100081B01EF0FEFDDDF840E012B07047000036
:10022000A4AC02008CC202004DF808ED0DF1080EDE
:100230004DF804ED2DE9FF1F002102B4694681B09D
:100240001EF04EBE2DE9F0472DED048B4FF0000956
:100250009FEDF90A10EE105A9FEDF70A10EE106AA2
:100260009FEDF50A10EE107A9FEDF30A10EE108A5A
:100270009FEDF10AB0EE408AB6EE000AF0EE408A39
:10028000B6EE000AB0EE409AB3EE040AF0EE409AE1
:10029000EA480078042803D0BDEC048BBDE8F08761
:1002A000E748807D00B9F7E7E548007F48B9E348B3
:1002B000007A28B1E148007A20F00200DF49087294
:1002C000EAE71BF043F8DF4801F097FADC48818940
:1002D0000122DC481BF050FDDB490870D848018A38
:1002E0000322D8481BF048FDD7498871D448C189FA
:1002F0000222D4481BF040FDD349C870D048418A3F
:100300000422D0481BF038FDCF494872002487E012
:1003100004EB4400CC49085C012813D104EB4400F1
:1003200008448078401E00EB4000085C032809D197
:10033000002104EB4400C44A10448078401E00EBC6
:100340004000115404EB4400BF49085C022813D15B
:1003500004EB440008448078401E00EB4000085C39
:10036000032809D1022104EB4400B74A10448078E5
:10037000401E00EB4000115404EB4400B249085CFD
:10038000032817D104EB440008448078401E00EB9A
:100390004000085C03280DD1022104EB4400AA4A66
:1003A00010448078401E00EB40001154022004EB02
:1003B0004401505404EB4400A349085C78BB04EBAF
:1003C000440008448078401E00EB4000085C03288D
:1003D00025D1611CC8B21BF086FC48B1002104EB9A
:1003E0004400994A10448078401E00EB40001154AC
:1003F00093480A30611C30F811009149C98B88423A
:100400000DDA022104EB44008F4A10448078401E2C
:1004100000EB40001154022004EB44015054641CD2
:10042000042CFFF675AF88480078012806D101F04A
:10043000FDFA10EE105A0120834908738248807932
:10044000012807D1032001F0F1FA10EE105A012023
:100450007D4908737C48C078012807D1022001F04B
:100460005BFB10EE106A0120774948737648407AAA
:10047000012807D1042001F04FFB10EE106A012083
:100480007149487370480078022803D118EE105A59
:100490006D4908736C488079022805D1B1EE480A8D
:1004A00010EE105A684908736748C078022803D1D3
:1004B00018EE106A644948736348407A022805D1EF
:1004C000B1EE480A10EE106A5F4948735E48007842
:1004D000032805D1B1EE680A10EE105A5A49087384
:1004E00059488079032803D118EE905A5649087369
:1004F0005548C078032805D1B1EE680A10EE106A9D
:10050000514948735048407A032803D118EE906A45
:100510004D49487301201BF0E6FB70B903201BF026
:10052000E2FB50B94848007B022806D19FED420A01
:1005300010EE105A00204449087302201BF0D3FB30
:1005400070B904201BF0CFFB50B93F48407B022814
:1005500006D19FED390A10EE106A00203A4948731F
:100560003948007B00281BDD3748407BC0B902209A
:100570001BF0B9FB40B1022001F0CEFA10EE106A78
:100580000420314948730BE004201BF0ACFB38B168
:10059000042001F0C1FA10EE106A04202A494873C1
:1005A0002948407B00281BDD2748007BC0B901207B
:1005B0001BF099FB40B1012001F038FA10EE105AFF
:1005C0000420214908730BE003201BF08CFB38B199
:1005D000032001F02BFA10EE105A04201A49087378
:1005E0001948007B002803DC1748407B00283DDDCC
:1005F0004FF001091348B0F91C00B0F5FA7F02DD95
:1006000019EE107A0EE00F48B0F91C0010F5FA7FD1
:1006100004DAB1EE490A10EE107A03E09FED060A03
:1006200010EE107A0748B0F91E00B0F5FA7F0DDD24
:1006300019EE908A26E000000000000084000020EF
:1006400090330020C8330020F0330020FE48B0F97A
:100650001E0010F5FA7F04DAB1EE690A10EE108A76
:1006600010E01FED0B0A10EE108A0BE04FF00009AE
:10067000002405E0002004EB4401F44A5054641CBB
:10068000042CF7DB002409E004EB4400EF49085C8C
:1006900004EB4401ED4A11444870641C042CF3DB64
:1006A000B9F1000F0FD0EA48C0F80150C0F805605A
:1006B000C0F80970C0F80D80E648007A40F00200EA
:1006C000E44908722AE0E348007A28B1E148007A58
:1006D00020F00200DF490872DD48D0F8010000EE8A
:1006E000100AB5EEC00AF1EE10FA06D01FED2E0A80
:1006F00010EE100AD649C1F80100D548D0F805001F
:1007000000EE100AB5EEC00AF1EE10FA06D01FEDA9
:10071000360A10EE100ACE49C1F8050000BFBBE54D
:10072000CD4A107B517BCB4A1278042A00D0704707
:10073000FC2801D0FC2910D10122C64B5A70B7EE1B
:10074000000A10EE102AC24BC3F80920C14A127ADF
:1007500042F00102BF4B1A721CE00022BD4B5A70DE
:10076000BB4AD2F8092000EE102AB5EEC00AF1EE1D
:1007700010FA06D01FED500A10EE102AB44BC3F841
:100780000920B44A127A2AB1B24A127A22F001023E
:10079000B04B1A7200BFCAE710B51AF094FC0128DA
:1007A00001D1FFF7BDFF10BD0020AC4908601AE081
:1007B000AB49AA4A1268885C411ECAB2A849A74B35
:1007C0001B68CA5450B10846A4490968405C28B95E
:1007D0000021A348001DA14A126881549F48006867
:1007E000401C9E4908609D4800680428E0DB704773
:1007F0003EB504F00BFE1AF08BFC4FF47A7004F057
:10080000D3FE6220974B98A29B4900909B4821F011
:100810006FFD0446601C38B1B4F5967F04D2974949
:1008200097A021F055FD02E096A021F051FD9DA07A
:100830009FA1A2A2A3A3CDE900210290A3A2A5A1FA
:10084000A74821F045FD6420864B87A28A49009085
:100850008A4821F04DFD0446601C38B1B4F5967FFE
:1008600004D2864986A021F033FD02E085A021F064
:100870002FFD00F0AAFC002802DA4FF0FF303EBD49
:100880001AF05EFD1CF01CF91BF088FF1CF042FA08
:100890001BF093FC02224FF47A71AFF2F30018F0D0
:1008A00092FF029015E01CF08DFA00F021FF1AF083
:1008B000F6FC1CF009F8FFF76FFF1CF008FA1BF0BC
:1008C00027FEFFF7BFFC17F03CFA17F0D0FE18F038
:1008D000E3F9E8E710B52DED048B5E4800780428B5
:1008E00002D0BDEC048B10BD5D482A38807D00B974
:1008F000F7E75B482A38007F48B95648007A28B1A4
:100900005448007A20F0020052490872E9E71AF0D0
:100910002CFD0446002C75D04E48007A40F00200B1
:100920004C49087204F00100A0B14D492A39088CE5
:100930001DF0F8F941EC190B9FED6A0B53EC102BED
:100940001DF0FEF841EC180B1DF05CFA4049C1F8AF
:1009500001001EE004F00400A0B141492A39088CCE
:100960001DF0E0F941EC190B9FED600B53EC102BDF
:100970001DF0E6F841EC180B1DF044FA3449C1F8BB
:10098000010006E01FEDD40A10EE100A3049C1F84C
:10099000010004F00200A0B131492A39088C1DF091
:1009A000C1F941EC190B9FED4F0B53EC102B1DF0CF
:1009B000C7F841EC180B1DF025FA2549C1F80500D0
:1009C000A4E004F00800A0B125492A39088C1DF0E4
:1009D000A9F941EC190B9FED450B53EC102B1DF0C1
:1009E000AFF841EC180B1DF00DFA1949C1F80500DC
:1009F0008CE01FEDEF0A10EE100A1549C1F8050052
:100A000084E0FFE71348007A28B11248007A20F00A
:100A10000200104908720E48D0F8010000EE100ADA
:100A2000B5EEC00AF1EE10FA06D09FED320A10EED4
:100A3000100A0749C1F801000548D0F8050000EE8A
:100A4000100AB5EEC00A57E0C8330020F03300208A
:100A50006012002084000020483A00200C00002092
:100A6000BA330020FC740208494D504F52545F4E77
:100A70004F5449434500000030A002083A1B0020B3
:100A8000257300004552524F523A206C6F67207018
:100A900072696E74657220696E6E6572206661752A
:100AA0006C740A0031373A31373A313300000000B4
:100AB00053657020323020323031380030303031E0
:100AC000303100003030303730300000425A595455
:100AD000000000004D61696E426F617264000000A9
:100AE00074A002089A9999999999B93F9A999999F4
:100AF0009999B9BF00000000F1EE10FA06D01FED81
:100B0000030A10EE100AB549C1F8050000BFE8E677
:100B100010B52DED0E8B8EB0B1480078042803D0AF
:100B20000EB0BDEC0E8B10BDAE48807D00B9F7E76E
:100B3000AC48007F48B9AA48007A28B1A848007A92
:100B400020F00200A6490872EAE7A7490968886808
:100B50000AF092FF8DED080ACDED090A8DED0A1A13
:100B6000CDED0B1ADDED0B1A9DED0A1ADDED090A2C
:100B70009DED080A04F0C0FBB0EE409AF0EE609ADA
:100B80009A49A1F1080000F002FEB0EE490AF0EE29
:100B9000690A22F029FAB0EE40CAF0EE60CA924922
:100BA000096888680AF0B2FF8DED090ACDED0A0ADE
:100BB0008DED0B1A9DED0A0A10EE101A08461DF075
:100BC000DDF841EC1D0B53EC1C2B1CF0B9FF41EC84
:100BD0001B0BB0EE490AF0EE690A22F095F9B0EE6F
:100BE00040CAF0EE60CA8049096888680AF08EFF42
:100BF0008DED060ACDED070A8DED081A9DED060A6A
:100C000010EE101A08461DF0B9F841EC1D0B53EC1C
:100C10001C2B1CF095FF41EC180B53EC1B2B1CF00C
:100C2000E8FE41EC1A0B1DF0EDF870490839086137
:100C3000B0EE490AF0EE690A22F066F9B0EE408A99
:100C4000F0EE608A6849096888680AF05FFF8DEDF8
:100C5000090ACDED0A0A8DED0B1A9DED0A0A10EE78
:100C6000101A08461DF08AF841EC1D0B53EC182BA6
:100C70001CF066FF41EC1B0BB0EE490AF0EE690A6E
:100C800022F0B2F9B0EE40DAF0EE60DA56490968C7
:100C900088680AF03BFF8DED060ACDED070A8DED61
:100CA000081A9DED060AB1EE408A18EE100A1DF0F2
:100CB00065F841EC1E0B53EC1D2B1CF041FF41EC81
:100CC0001C0B53EC1B2B1CF094FE41EC1A0B1DF07B
:100CD00099F846490839486143480068816803A883
:100CE0000BF0A5F803A807C809AB07C33E48006886
:100CF000816868460BF09BF89DE8070006AB07C3C8
:100D0000BDF92430BDF91A200CA90DA81AF0B9FEBE
:100D100004466CB131490D98C1F801000C98C1F836
:100D200005002F48007A40F002002D4908722AE0A1
:100D30002B48007A28B12A48007A20F0020028497E
:100D400008722648D0F8010000EE100AB5EEC00A7D
:100D5000F1EE10FA06D01FED990A10EE100A1F49A5
:100D6000C1F801001D48D0F8050000EE100AB5EEEC
:100D7000C00AF1EE10FA06D01FEDA20A10EE100A1A
:100D80001649C1F8050000BFCAE610B500230A22C3
:100D90000121032012F0C6F9154908600623242218
:100DA0000221032012F0BEF91249086012480178AE
:100DB00012480FF037F80446114A12491CF002FE9F
:100DC0005FEDB41A1FEDB51A5FEDB60A1FEDB70A55
:100DD0004A2102480BF06CFE10BD0000601200209A
:100DE000840000209033002008000020D033002031
:100DF00010000020140000200000002094070020B4
:100E0000000000086DFE000870B504460D4600BFE6
:100E100040210E4807F01CFB0028F9D0E1B20B4836
:100E200007F066FA204670BD10B500230A220121A2
:100E3000032012F077F906490860062324220221D4
:100E4000032012F06FF90349086010BD004800400C
:100E50001C0000202000002000B58DB061480190EA
:100E600061480C9000231A4601A96048006811F0FF
:100E7000EBF90DB000BD0FB42DE9F04788B0044682
:100E8000DDF88081BDF84600103802284CDCBDF842
:100E90005150C4F87C570D2211A904F26F701EF056
:100EA000C9FA40F27F70005D8DF80000112204F253
:100EB0006F7103A81EF0BEFA03A80FC807F042FC2A
:100EC00000B34B48008885421CD123F043FD824685
:100ED00013F067FB074623F03DFD81462D20454B6F
:100EE00045A239460090484613F007FB06460068C5
:100EF00044A182683046904700221146204610F0F7
:100F0000E3FC00BF3B48019040F27F70005D8DF82C
:100F10000000112204F26F7103A81EF08BFA03A8DF
:100F20000FC808F078F919E023F014FD824613F099
:100F300038FB074623F00EFD814634202D4B2EA2B0
:100F400039460090484613F0D8FA06469DF84C20E2
:100F5000006833A183683046984700BF384800884E
:100F600085420CD140F2E460005940B140F2E462A5
:100F70001159206815F03CFF04203249087008B070
:100F8000BDE8F0075DF814FB70B500230A220121CB
:100F9000032012F0C7F82C490860062324220221FE
:100FA000032012F0BFF8294908602948007800F0B2
:100FB0000100002814D1264821F0C6FA00280FD0DD
:100FC00000250C2021F05EF904460125002113F0D4
:100FD00059FA044600251F4804601D48AFF30080FD
:100FE00070BD00001FBF0F0034000020080000206B
:100FF0001E790208577502084552524F524C4F470E
:101000000000000053444B2076657273696F6E20B8
:10101000646964206E6F74206D617463680A0000F7
:1010200041434B20697320657863657074696F6E06
:101030002C2073657175656E63652025640A000058
:101040000E79020884000020280000202C000020D7
:10105000400600204406002000F07F0200EE102A27
:10106000B8EEC00AF0EE400A00EE101AB8EE400AE0
:10107000B0EE401A00F0800262B1DFED451AB0EE2A
:10108000410A00EEA10AF1EE401A9FED422A81EEDC
:10109000820A7047DFED3E1AB0EE410A00EEA10A67
:1010A0009FED3C2AC0EE021AB0EE610AF1E770B57E
:1010B00086B004460D462068012802D10020206039
:1010C00001E006B070BD2079FA2802D16079FB28D2
:1010D00000D0F6E7A07920B1012808D0AA283AD19B
:1010E00008E000221146284610F0EEFB34E0FFF73E
:1010F000B3FE31E0A07B00EB80004000616A414319
:10110000607B00EB80004000626A4243207B00EB82
:1011100080004000636A4343E07A00EB80004000B7
:10112000666A7043CDE9023204910190A07A00EB27
:10113000800040000090607A00EB80004300207A3D
:1011400000EB80004200E07900EB80004100124893
:1011500021F0BEF800E000BF00BF00BFB1E710B54E
:1011600000230A220121032011F0DCFF0B49086053
:10117000062324220221032011F0D4FF084908602D
:101180000848002101608162C16200BF10BD0000FB
:10119000000080430000C842D8A002087800002068
:1011A0007C00002074120020E248008820B1E14851
:1011B0000088401EDF490880DF48008820B1DE48F3
:1011C0000088401EDC490880704738B50020DB49A4
:1011D000086041F2883004F0E7F9D94909680868E5
:1011E00016F0ACF90446006881692046884700285B
:1011F00027D15720D34BD4A2D5A10090E24821F0AB
:1012000077F80546681C38B1B5F5967F04D2DE49FB
:10121000DEA021F05DF802E0DDA021F059F8012008
:1012200000F0EEFC00F0F1FCC548006830B1C448A5
:1012300000680EF01BFE054621F018F84FF0FF3055
:1012400038BDDBA021F044F8DEA021F041F8EDA08C
:1012500021F03EF8F2A021F03BF8FEA021F038F892
:101260001E2004F0A1F9B648006810F085FB4FF489
:10127000FA7004F099F9B24800680FF0E5F8002818
:1012800027D16B20AF4BB0A2FA490090BE4821F0A5
:101290002FF80546681C38B1B5F5967F04D2BA49D7
:1012A000BAA021F015F802E0B9A021F011F8012050
:1012B00000F0A6FC00F0A9FCA148006830B1A048ED
:1012C00000680EF0D3FD054620F0D0FF4FF0FF3050
:1012D000B6E79B4800680FF0B7F8002836D098486A
:1012E00000680FF0B1F8E449096888422ED29448AA
:1012F00000680FF0A9F8E149884227D07620914B89
:1013000091A2DC490090A04820F0F2FF0546681C3D
:1013100038B1B5F5967F04D29B499CA020F0D8FF48
:1013200002E09BA020F0D4FF012000F069FC00F057
:101330006CFC8348006830B1814800680EF096FD6F
:10134000054620F093FF4FF0FF3079E74FF47A70B5
:1013500004F02AF902221421AFF2B31018F033FA84
:10136000009001206CE730B589B0C549A1F1650056
:101370001AF0A1FFA8B1C34890F8911100F596703A
:1013800000F0F7FFBE4D543D002408E001A800EB3B
:10139000840105F11F0050F824000860641C082C2B
:1013A000F4DB09B030BD00B52DED028B8FB0624883
:1013B000008818B90A206049088003E00FB0BDEC2E
:1013C000028B00BD5E480068816801A80AF051FCEC
:1013D0001C2201A908A81EF02DF89DED0D8AAA482F
:1013E000007B00B9EAE7B1EE000AB4EEC08AF1EE84
:1013F00010FA03DD0220A44988600AE0B0EE080A72
:10140000B4EEC08AF1EE10FA03D24FF0FF309E49DD
:10141000886000BFD2E710B58CB049490968886878
:101420000AF052FD0B9046480068816804A80AF053
:10143000FEFC04A807C808AB07C3414909688868CF
:101440000AF0AAFD0790BDF92800002801DC0CB0C5
:1014500010BD9DF82C00022800D0F8E78B48007AD8
:10146000002824D19DF81D0000F0070002281DD19E
:1014700000221146324800680EF02CFE4FF48670B0
:10148000834B84A287A100903F4820F031FF04469F
:10149000601C38B1B4F5967F04D23B493BA020F0E4
:1014A00017FF02E03AA020F013FF00BFCFE7774814
:1014B000007A30B11F48008818B901201D49088002
:1014C00000E0C4E79DF81D0000F0070002281DD0D1
:1014D000002211461A4800680EF0A8FE4FF48D70E5
:1014E0006B4B6CA278A10090274820F001FF0446C6
:1014F000601C38B1B4F5967F04D2234923A020F0B4
:10150000E7FE02E022A020F0E3FE00BF7648C168BB
:101510000091007C8DF8040009480068112272498E
:10152000C46802A81DF086FF204602A90EC90BF070
:1015300039FADBE09000002092000020AC824242A9
:10154000080000207E7502084552524F52000000EC
:1015500025732025732C6C696E652025643A20550F
:101560005341525420636F6D6D756E696361746988
:101570006F6E206973206E6F7420776F726B696E67
:10158000672E0D0A000000003A1B002025730000A2
:101590004552524F523A206C6F67207072696E74D8
:1015A000657220696E6E6572206661756C740A00E2
:1015B0000A507265726571756973697465733A0D65
:1015C0000A000000312E2056656869636C6520634F
:1015D0006F6E6E656374656420746F207468652037
:1015E000417373697374616E7420616E64207369F2
:1015F0006D756C6174696F6E206973204F4E0D0AB2
:1016000000000000322E20426174746572792066F9
:10161000756C6C79206368616E726765640D0A0091
:10162000332E20444A49474F2041707020636F6E2B
:101630006E65637465642028666F72207468652027
:1016400066697273742074696D652072756E290DF8
:101650000A000000342E2047696D62616C206D6FB6
:10166000756E746564206966206E65656465640DD9
:101670000A00000048A1020898000020000A0103A7
:101680008E330020FD310020003400208400002033
:1016900087750208494D504F52545F4E4F5449438D
:1016A0004500000025732025732C6C696E6520258C
:1016B000643A206F657320636F6E74726F6C206381
:1016C0006C6F7365640A000025732025732C6C69A8
:1016D0006E652025643A206F657320736574436FCF
:1016E0006E74726F6C0A00006012002000BFAEE6DC
:1016F00000B585B0FE48007820B103282FD004281B
:1017000041D139E00320FA490870FA48006848607E
:10171000FFF7A2FBF84800680EF096FEF7498842F2
:1017200008D0F549096848680DF0F6FB4FF4FA70E7
:1017300003F03AFFF04800681422816868460AF016
:101740006AFD322003F030FFEB490968EC4AC869B2
:10175000EC490CF0ECFF322003F026FF14E0E448E3
:101760004068E4490968401A41F28831884202D34E
:101770000020DF49087007E0FFF74DFEFFF713FE7A
:10178000FFF7F1FD00E000BF00BF05B000BD7FB571
:1017900004460D46D849096888680AF06DF98DED50
:1017A000000ACDED010A8DED021ACDED031ADDED33
:1017B000031A9DED021ADDED010A9DED000A03F00A
:1017C000B3FD84ED000BCC49096888680AF054F930
:1017D0008DED000ACDED010A8DED021ACDED031A53
:1017E000DDED031A9DED021ADDED010A9DED000A03
:1017F00003F0B2FD85ED000B7FBD30B52DED0C8BF8
:1018000099B00546BC480068816801A80AF031FA21
:101810001C2201A912A81DF00DFEB74800688168BE
:1018200005A80AF004FB05A807C80FAB07C3B24917
:10183000096888680AF06AF98DED0C0ACDED0D0A89
:101840008DED0E1AAC49096888680AF015F98DED1E
:10185000080ACDED090A8DED0A1ACDED0B1A2C46BA
:10186000A549096888680AF007F98DED040ACDEDED
:10187000050A8DED061ACDED071ADDED071A9DED6F
:10188000061ADDED050A9DED040A03F04DFD84ED19
:10189000000B9949096888680AF0EEF88DED040A92
:1018A000CDED050A8DED061ACDED071ADDED071A0F
:1018B0009DED061ADDED050A9DED040A03F04CFDD1
:1018C00084ED020BBDF83E006083BDF83C00208330
:1018D000BDF84200A083BDF84000E083DDED0B1AA7
:1018E0009DED0A1ADDED090A9DED080A03F004FDDD
:1018F000B0EE40DAF0EE60DA21F076FBB0EE40BAFE
:10190000F0EE60BA9DED0D0A10EE101A08461CF0BC
:1019100035FA41EC1C0B53EC1B2B1CF011F941EC7C
:10192000190BDDED0B1A9DED0A1ADDED090A9DED8F
:10193000080A03F0E1FCB0EE40DAF0EE60DA21F0E4
:10194000E3FAB0EE40BAF0EE60BA9DED0C0A10EE8C
:10195000101A08461CF012FA41EC1C0B53EC1B2B1E
:101960001CF0EEF841EC1A0B53EC192B1CF041F86B
:1019700041EC180B1CF046FA2061DDED0B1A9DEDD1
:101980000A1ADDED090A9DED080A03F0B5FCB0EE78
:1019900040DAF0EE60DA21F0B7FAB0EE40BAF0EEDD
:1019A00060BA9DED0D0A10EE101A08461CF0E6F91B
:1019B00041EC1C0B53EC1B2B1CF0C2F841EC190B37
:1019C000DDED0B1A9DED0A1ADDED090A9DED080A01
:1019D00003F092FCB0EE40DAF0EE60DA21F004FBA6
:1019E000B0EE40BAF0EE60BA9DED0C0AB1EE400ADE
:1019F00010EE101A08461CF0C1F941EC1C0B53EC18
:101A00001B2B1CF09DF841EC1A0B53EC192B1BF00F
:101A1000F0FF41EC180B1CF0F5F960619DED170A21
:101A200084ED080A19B0BDEC0C8B30BD10B52DED5E
:101A3000068B04463449088C1CF074F941EC1A0BEF
:101A40009FED320B53EC102B1CF07AF841EC190B84
:101A50001CF0D8F908EE900A2E4890ED040AB0EE7A
:101A6000408AB4EEE88AF1EE10FA02DDB0EE688A40
:101A700025E0B1EE680AB4EEC08AF1EE10FA04D2A5
:101A8000B1EE680AB0EE408A19E0B5EEC08AF1EE18
:101A900010FA0ADB38EE280A30EE080AF0EE080ADF
:101AA00080EE201AB0EE418A09E038EE080A30EEE6
:101AB000680AF0EE080A80EE201AB0EE418A012C86
:101AC00006D1B5EEC08AF1EE10FA01D2B0EE688A06
:101AD000032C08D1B5EEC08AF1EE10FA03DDB1EEA9
:101AE000680AB0EE408AB0EE480ABDEC068B10BD25
:101AF000840000207C04002008000020000A01036C
:101B0000FD31002039230008903300209A999999DB
:101B10009999B93FC833002010B52DED068B0446C6
:101B20004149088C1CF0FEF841EC1A0B1FED090B23
:101B300053EC102B1CF004F841EC190B1CF062F96B
:101B400008EE100A394890ED050AF0EE408AF4EEEE
:101B5000C88AF1EE10FA02DDF0EE488A25E0B1EE17
:101B6000480AF4EEC08AF1EE10FA04D2B1EE480A47
:101B7000F0EE408A19E0F5EEC08AF1EE10FA0ADBC9
:101B800038EEA80A30EE080AF0EE080A80EE201AB5
:101B9000F0EE418A09E038EEA80A30EE480AF0EE8D
:101BA000080A80EE201AF0EE418A022C06D1F5EEEA
:101BB000C08AF1EE10FA01D2F0EE488A042C08D166
:101BC000F5EEC08AF1EE10FA03DDB1EE480AF0EE50
:101BD000408AB0EE680ABDEC068B10BD10B500233C
:101BE0000A220121032011F09DFA11490860062301
:101BF00024220221032011F095FA0E49086010BD3D
:101C000000F0010181F313887047BFF34F8F0A483A
:101C1000006800F4E06009490843001D06490860B7
:101C2000BFF34F8F00BFFEE790330020C833002082
:101C300094000020980000200CED00E00000FA0560
:101C4000F0B52DED088BA5B000244FF4FA661427EB
:101C5000FE480068142281680EA80AF0DCFAE6E06B
:101C6000FA49096888680AF02FF92490F748006853
:101C7000816807A809F0FDFF1C2207A91DA81DF017
:101C8000D9FBF248006881680BA80AF0D0F80BA8CD
:101C900007C81AAB07C3ED490968886809F036FF21
:101CA0008DED170ACDED180A8DED191AE74909686F
:101CB000886809F0E1FE8DED130ACDED140A8DED73
:101CC000151ACDED161A2146E1A020F001FBE4A083
:101CD00020F0FEFA9DF89010E4A020F0F9FA9DEDB6
:101CE000210A10EE101A08461CF048F841EC180BB7
:101CF0008DED028B9DED1F0B8DED000B9DED1D1BE2
:101D0000B0EE410AF0EE610A53EC102BDCA020F09B
:101D1000DFFABDF96E000090BDF96C30BDF96A20A4
:101D2000BDF96810DFA020F0D3FA9DED190A10EE7E
:101D3000101A08461CF022F841EC180B9DED180A09
:101D400010EE101A08461CF019F841EC190B9DED25
:101D5000170A10EE101A08461CF010F841EC1A0B86
:101D60008DED028B8DED009B53EC1A2BD8A020F04B
:101D7000AFFA9DED160A10EE101A08461BF0FEFF92
:101D800041EC180B9DED150A10EE101A08461BF0D9
:101D9000F5FF41EC190B9DED140A10EE101A0846E0
:101DA0001BF0ECFF41EC1A0B9DED130A10EE101A1C
:101DB00008461BF0E3FF41EC1B0B8DED048B8DED12
:101DC000029B8DED00AB53EC1B2BCBA020F080FAD7
:101DD0009E4800688168684609F04BFF1C226946EE
:101DE00007A81DF027FB9DED0C0A10EE101A0846FF
:101DF0001BF0C4FF41EC180B53EC182BCCA020F0C7
:101E000067FA9249096888680AF0C6F80D909DF84B
:101E1000350000F007052946C9A020F059FACEA0E8
:101E200020F056FA32344FF4FA7003F0BDFBB4429E
:101E3000FFF616AFCBA020F04BFA012025B0BDEC89
:101E4000088BF0BD2DE9F04F2DED088BA1B00020DF
:101E500020904FF47A601F9000201E900124C54806
:101E600000681D9001201C9000267849CDE900648F
:101E700009681DAB48681C9A1E990CF0C6FF054600
:101E80002DB9284621B0BDEC088BBDE8F08F6F4915
:101E9000096848681E990DF055F94FF4FA7003F07F
:101EA00083FB01201E900A24B248001D00681B908D
:101EB00001201C9000266549CDE9006409681BAB30
:101EC00048681C9A1E990CF0A0FF05460DB92846DB
:101ED000D8E75E49096848681E990DF033F94FF458
:101EE000FA7003F061FB02201E903224A1480830F2
:101EF00000681A9002201C9000265449CDE9006425
:101F000009681AAB48681C9A1E990CF07EFF0546BA
:101F10000DB92846B6E74D49096848681E990DF085
:101F200011F94FF4FA7003F03FFB03201E90C82410
:101F30000020199001201C9000264449CDE900643E
:101F4000096819AB48681C9A1E990CF05EFF05469B
:101F50000DB9284696E73D49096848681E990DF075
:101F6000F1F84FF4FA7003F01FFB4FF4FA5003F04E
:101F70001BFB4FF47A674FF4FA7800200690334940
:101F80000968086815F0DAFA83460068C16858469F
:101F9000884710EB070A00BF2C490968486822F0FF
:101FA000D7FB1890294800684168684622F05CFA1F
:101FB0001822694612A81DF03DFA244800684168BD
:101FC00003A822F0AFFA03A807C80FAB07C31F4846
:101FD0000068416802A822F05FFC02A80FC8CDE9A2
:101FE0000D23CDE90B0119490968486822F0DAF997
:101FF0008DED070ACDED080A8DED091ACDED0A1A0F
:1020000013A0209920F064F915A020F061F917A021
:10201000189920F05DF99DED160A10EE101A084689
:102020001BF0ACFE41EC180B8DED028B9DED120BFD
:102030008DED000B9DED141BB0EE410AF0EE610A30
:1020400053EC102B0EA020F043F995E0080000207F
:10205000436F756E746572203D2025643A0A000056
:102060002D2D2D2D2D2D2D0A00000000466C6967A9
:10207000687420537461747573203D2025640A00D0
:10208000506F736974696F6E20284C4C4129203D54
:1020900020252E33662C20252E33662C20252E332A
:1020A000660A0000524320436F6D6D616E647320B9
:1020B00028722F702F792F74687229203D20256493
:1020C0002C2025642C2025642C2025640A00000087
:1020D00056656C6F63697479202876782C76792C34
:1020E000767A29203D20252E33662C20252E336636
:1020F0002C20252E33660A0041747469747564655A
:10210000205175617465726E696F6E2028772C7826
:102110002C792C7A29203D20252E33662C20252E43
:1021200033662C20252E33662C20252E33660A009C
:10213000686569676874203D2025660A0000000014
:10214000636F6E74726F6C4465766963652864535F
:1021500029203D2025640A002D2D2D2D2D2D2D0A01
:102160000A000000446F6E65207072696E74696EBB
:1021700067210A00A8750208BDF942000090BDF968
:102180004030BDF93E20BDF93C10AFF2E80020F030
:102190009FF89DED0D0A10EE101A08461BF0EEFD9B
:1021A00041EC180B9DED0C0A10EE101A08461BF0BE
:1021B000E5FD41EC190B9DED0B0A10EE101A0846D7
:1021C0001BF0DCFD41EC1A0B8DED028B8DED009BBD
:1021D00053EC1A2BAFF2081020F07AF89DED0A0AA2
:1021E00010EE101A08461BF0C9FD41EC180B9DEDCE
:1021F000090A10EE101A08461BF0C0FD41EC190B3D
:102200009DED080A10EE101A08461BF0B7FD41ECD0
:102210001A0B9DED070A10EE101A08461BF0AEFDD2
:1022200041EC1B0B8DED048B8DED029B8DED00AB16
:1022300053EC1B2BAFF2401020F04AF8AFF2E8004D
:1022400020F046F84FF4FA7003F0AEF9354909680A
:10225000086815F073F981460068C16848468847E8
:1022600010EB0800069006985045FFF495AEAFF2CB
:102270000C1020F02DF82B490968486800210DF05A
:1022800098F940F6B83003F08FF926490968486894
:1022900001210DF08EF940F6B83003F085F921499F
:1022A0000968486802210DF084F940F6B83003F05F
:1022B0007BF91C490968486803210DF07AF940F65A
:1022C000B83003F071F90120DCE570B500230A2273
:1022D0000121032010F026FF134908600623242261
:1022E0000221032010F01EFF1049086010480078FA
:1022F00000F00100002814D10D4820F025F9002835
:102300000FD000250C201FF0BDFF04460125002141
:1023100012F0B8F804460025064804600448AFF3FC
:10232000008070BD08000020A0000020A400002054
:1023300040060020440600200FB42DE9F0478146F6
:10234000589D2E4606F1C8070DF13108BDF826004C
:10235000123884B2142C08DB642C06DC2246414679
:1023600038461DF067F886F89041BDE8F0075DF843
:1023700014FB70B504460D46D14909682A46C86960
:1023800021460CF09BF90020CE490860CE48006839
:10239000CE49086070BD0FB42DE9F04389B0044602
:1023A000609FBDF846001038022865D80D2211A99B
:1023B00004A81DF03FF820460EF046F8C4498842B4
:1023C00004D09DF85100CDF81D0003E0BDF8510088
:1023D000CDF81D009DF820008DF8000004A80FC85E
:1023E00006F0B0F948B1BB4801909DF820008DF887
:1023F000000004A80FC806F00EFF9DF844008DF8F9
:1024000008009DF845008DF809001298807807288B
:1024100009D00222B04902A81BF0ABF988B112988A
:10242000807801280DD10520ADF80C00BDF81D0005
:1024300080B2ADF80E00042203A9E0690CF03EF969
:1024400019E012988078082808D00222A24902A830
:102450001BF08FF978B11298807860B90620ADF83A
:102460000C00BDF81D0080B2ADF80E00042203A9D7
:10247000E0690CF023F919E022F06CFA814612F0C1
:1024800090F8064622F066FA8046DB20914B93A234
:1024900031460090404612F030F805469DF84C2039
:1024A000006891A183682846984700BF09B0BDE83D
:1024B000F0035DF814FB0FB42DE9F04F87B005462B
:1024C000609F91480088CDF815004FF0010828461C
:1024D0000DF0EFFD8146BDF846001038022809D8FE
:1024E000BDF85100CDF815000D2211A902A81CF06D
:1024F000A1FF19E022F02EFA834612F052F80646A8
:1025000022F028FA82468C20804B74A2314600903B
:10251000504611F0F2FF04469DF84C20006872A16D
:1025200083682046984700BFDDF815007849098880
:10253000884206D10022AFF2810128460DF076FED6
:1025400025E0DDF8150073490988884206D100228C
:10255000AFF29D0128460DF0BDFD18E0129880787D
:10256000012803D10220ADF8040005E0129880781C
:1025700010B90320ADF80400BDF8150080B2ADF825
:102580000600042201A9E8690CF098F800BF07B022
:10259000BDE8F00F5DF814FB0FB470B50646549D0E
:1025A000BDF82140022C06D0032C0CD0052C12D0F3
:1025B000062C44D129E00022AFF205114048006802
:1025C0000DF034FE3CE00022AFF215113C480068EB
:1025D0000DF080FD34E03A4800680DF035FF3C49CD
:1025E000884209D0364909680023AFF25522C868ED
:1025F000072109F00CFF07E0314909680022C8688B
:10260000AFF26D210AF084F81AE02D4800680DF051
:102610001BFF2F49884209D0294909680023AFF2DE
:102620008922C868082109F0F2FE07E024490968F8
:102630000022C868AFF2A1210AF0CAF800E000BF8A
:1026400000BF70BC5DF814FB7FB5054654AC1C4858
:1026500000688168684609F010FC9DE80F0084E876
:102660000F007FBD70B500230A220121032010F066
:1026700059FD29490860062324220221032010F075
:1026800051FD264908602648007800F00100002826
:1026900014D123481FF058FF00280FD000250C202C
:1026A0001FF0F0FD04460125002111F0EBFE044669
:1026B00000251C4804601A48AFF3008070BD00007C
:1026C00008000020A00243427C0400208004002077
:1026D000000A0103D1750208A57702084552524F3E
:1026E000524C4F470000000041434B206973206566
:1026F0007863657074696F6E2C2073657175656E93
:1027000063652025640A00008C780208B27502080F
:102710002679020828790208AC000020B0000020C9
:1027200040060020440600202DE9FE438146012694
:102730000A24FD480068029002274FF00008FB4978
:10274000CDE90084096802AB3A46486831460CF08E
:102750005CFB054615B92846BDE8FE83F3490968C8
:10276000486831460CF0EEFC4FF4FA5002F01CFFC2
:102770000120F1E730B52DED028B85B005462846E6
:1027800024F05FF8044620E0641C216908461BF031
:10279000F5FA41EC180B8DED028BA068E168CDE9EC
:1027A000000120686168641E41EC100B53EC102B93
:1027B000DFA01FF08DFDDD490968096A00231A4674
:1027C0004868214611F062FB5A34284624F035F857
:1027D000A042D9D105B0BDEC028B30BD9FEDDE0A21
:1027E00010EE101A40F8151F00218180C18001727F
:1027F000417464214182017D21F00F010175017D49
:1028000021F0F00101751538002108E0002300F1E6
:102810002A025354103202EB41021380491C102942
:10282000F4DB70472DE9F0472DED0C8B98B0064690
:102830008846B0EE408AF0EE608A1546344617A806
:1028400023F0A7FC07463946204623F0A1FC0446A6
:10285000002020606060A06000BF264628461BF074
:1028600050FA41EC1A0B53EC1A2B9FEDBC0B51ECB8
:10287000100B1BF0D7F941EC190B002088F8000071
:102880004146304623F0E1FF012476E0B146A4F151
:10289000010A484623F0D5FFCAEB0A1101EB4101BA
:1028A00000EB410007466846FFF798FFE0B28DF85D
:1028B000000020461BF025FA53EC192B1BF040F9C1
:1028C00041EC1C0BB0EE4C0AF0EE6C0A20F01CFB45
:1028D000B0EE40BAF0EE60BA53EC182B51EC1B0B83
:1028E0001BF02EF941EC1A0B57F8010F796841ECF7
:1028F000100B53EC102B51EC1A0B1BF07AF8CDF89F
:102900000100CDF8051020461BF0FBF953EC192B04
:102910001BF016F941EC1C0BB0EE4C0AF0EE6C0A01
:1029200020F062FBB0EE40BAF0EE60BA53EC182B28
:1029300051EC1B0B1BF004F941EC1A0BB868F96859
:1029400041EC100B53EC102B51EC1A0B1BF051F80F
:10295000CDF80900CDF80D1038697F1E00EE100A81
:10296000F7EE000A30EE200A10EE100ACDF8110042
:102970006946304623F069FF641CAC4286DB88F868
:1029800000504146304623F060FF18B0BDEC0C8B80
:10299000BDE8F08730B52DED068BABB005460C4693
:1029A000B0EE409AF0EE609AB0EE418A4FF4FA50E1
:1029B00002F0FAFD14A8FFF711FF5C4800680DF063
:1029C00043FD6849884232D058480068416801A8F0
:1029D00021F04AFD182201A90EA81CF02BFDDDE90B
:1029E0001001CDF85100CDF85510DDE90E01CDF8FC
:1029F0005900CDF85D1018EE100ACDF8610018EE00
:102A0000100A1BF0BBF941EC1A0B8DED02AB9DEDEA
:102A10000E0B8DED000B9DED101BB0EE410AF0EE9C
:102A2000610A53EC102B50A01FF052FC31E03F48DC
:102A300000688168684609F01CF91C22694607A8ED
:102A40001CF0F8FCDDE90701CDF85100CDF8551078
:102A5000DDE90901CDF85900CDF85D1018EE100A36
:102A6000CDF8610018EE100A1BF088F941EC1A0B42
:102A70008DED02AB9DED090B8DED000B9DED071B60
:102A8000B0EE410AF0EE610A53EC102B36A01FF0B5
:102A90001FFC2246B0EE490AF0EE690A14A9284646
:102AA000FFF7C0FE2BB0BDEC068B30BDB2EE040AC2
:102AB00010EE101AC01C40F8021CB1EE040A10EE11
:102AC000101AC0F80210002181710121C17100218A
:102AD00001724172012181720021C1729FED2C0BA4
:102AE00052EC101BC16002619FED290B52EC101BD0
:102AF000416182619FED180A10EE101AC161C01E7B
:102B0000704710B52DED048B96B004460748006859
:102B10000DF09AFC1349884246D004480068FFF73C
:102B200003FE00B938E03FE0FC7502080800002011
:102B3000576179706F696E74206372656174656442
:102B400020617420284C4C41293A20256620092513
:102B500066200925660A200000000000182D445454
:102B6000FB211940000A0103576179706F696E7487
:102B7000206372656174656420617420284C4C4147
:102B8000293A20256620092566200925660A0000C5
:102B90000000000000000000E1A01FF099FB0020F1
:102BA00016B0BDEC048B10BD09A8FFF77FFF601CB9
:102BB000C0B28DF824009FEDE29BB2EE048A09A812
:102BC0000090E148006801230022016A01A80BF08F
:102BD00007FB4FF4FA7002F0E7FCDB490968086A6A
:102BE0000BF02CFCD9A01FF073FBB0EE481AB0EE2E
:102BF000490AF0EE690A214606A8FFF7CBFEDCA0E1
:102C00001FF066FB06A8FFF7B5FDDFA01FF060FB15
:102C1000CD490968096A4868CB490968096A496861
:102C2000096800228B68114698474FF4FA7002F049
:102C3000BBFCDBA01FF04CFBC349096848680121BD
:102C40000CF0B7FC40F6B83002F0AEFC06A823F05A
:102C500023FE0120A4E710B52DED068B96B00446A7
:102C6000B94800680DF0F0FBD44988420CD0B64852
:102C70000068FFF759FD38B9A9A01FF029FB002013
:102C800016B0BDEC068B10BD00200090AE48006869
:102C900001231A46016A02A80BF0A2FAAA490968A0
:102CA000086A0BF0CBFBA84800680DF0CDFBC349C8
:102CB000884226D0A4480068416801A821F0D4FBCE
:102CC000182201A910A81CF0B5FB20461BF019F82A
:102CD00041EC180B9DED122BB0EE421AF0EE621A89
:102CE0009DED102BB0EE420AF0EE620A964909689B
:102CF000096AB0EE482AF0EE682A88680AF089FE70
:102D000025E0914800688168684608F0B2FF1C22FF
:102D1000694609A81CF08EFB20461AF0F2FF41EC30
:102D2000180B9DED092BB0EE421AF0EE621A9DEDE4
:102D30000B2BB0EE420AF0EE620A83490968096A79
:102D4000B0EE482AF0EE682A88680AF062FE00F0C9
:102D50009DF99BA01FF0BCFA7B490968096A886845
:102D600079490968096A8968096800228B681146EF
:102D700098474FF4FA7002F017FC4FF47A6002F0B3
:102D800013FC9AA01FF0A4FA6F490968096A8868C1
:102D90006D490968096A8968096800228B691146CA
:102DA000984741F2883002F0FFFB94A01FF090FAA0
:102DB00065490968096A886863490968096A896810
:102DC000096800220B6A114698474FF47A6002F0B6
:102DD000EBFB20461AF095FF41EC190B9FED890B98
:102DE00053EC102B1AF0ACFE41EC180B53EC182BE3
:102DF00086A01FF06DFA20461AF083FF41EC1A0BF3
:102E00009FED800B53EC102B1AF09AFE41EC190B3E
:102E10001AF0F8FF08EE100A4B490968096A002207
:102E200088681146B0EE480A0AF0A6FB42F210701C
:102E300002F0BAFB80A01FF04BFA01208DF81C00B5
:102E4000B1EE040A10EE100ACDF81D003E490968E3
:102E5000096A00231A46886807A90AF0F3FA42F2C1
:102E6000107002F0A1FB44F6206002F09DFB7FA0F1
:102E70001FF02EFA34490968096A886832490968DE
:102E8000096A8968096800220B69114698474FF45E
:102E90007A7002F089FB77A01FF01AFA2A480068BE
:102EA0000DF0D2FA4549884209D027490968486897
:102EB00001210CF07EFB40F6B83002F075FB00F00B
:102EC000ACFADDE670B500230A220121032010F0E0
:102ED00029F96A490860062324220221032010F000
:102EE00021F9674908606748007800F00100002870
:102EF00014D164481FF028FB00280FD000250C20B7
:102F00001FF0C0F904460125002111F0BBFA044668
:102F100000255D4804605B48AFF3008070BD000091
:102F20004661696C656420746F20736574207570E8
:102F300020537562736372697074696F6E210A0041
:102F40008DEDB5A0F7C6B03E08000020496E69744B
:102F500069616C697A696E6720576179706F696E13
:102F600074204D697373696F6E2E2E0A0000000085
:102F70004372656174696E6720576179706F696E1D
:102F800074732E2E0A00000055706C6F6164696EB8
:102F90006720576179706F696E74732E2E0A000076
:102FA0005374617274696E6720576179706F696ECE
:102FB00074204D697373696F6E2E0A00000A010355
:102FC00053746172742077697468206465666175F2
:102FD0006C7420726F746174696F6E2072617465B5
:102FE0003A203135206465672F7300005061757396
:102FF0006520666F722035730A0000005265737594
:103000006D650A00000000000000F83F5570646123
:1030100074652072616469757320746F20312E3578
:10302000783A206E657720726164697573203D205F
:1030300025302E33660A000055706461746520687F
:103040006F74706F696E7420726F746174696F6EE3
:1030500020726174653A206E657720726174652014
:103060003D2035206465672F730A000053746F702C
:103070000A0000004C616E640A000000B8000020E5
:10308000BC00002040060020440600202DE9F04F3F
:103090002DED048B9BB0FA4800680DF0D5F9F94985
:1030A00088422AD0002019904FF00A0AF64800689A
:1030B000159002201490002013901398F049CDE948
:1030C000000A096815AB4868149A19990BF09DFE1F
:1030D0008346BBF1000F05D158461BB0BDEC048BF5
:1030E000BDE8F08FE6490968486819990CF02AF89C
:1030F0004FF4FA7002F058FA00BFE1490968002263
:10310000C868114609F0A7FB4FF4FA7002F04CFAB8
:1031100043F698244FF4FA75002700201890179072
:103120001690D7490968086814F008FA80460068C4
:10313000C16840468847061900BF4FF4FA6002F0A4
:1031400033FACF4800680DF07FF9CE49884210D09D
:10315000CB490968486821F0FBFA012820D1C84909
:103160000968486821F046FB292819D101201890E8
:1031700023E0C3490968886808F0A6FE14909DF80A
:103180005000022809D0BE490968886808F09CFEF2
:1031900015909DF85400032802D1012018900CE0EE
:1031A000B7490968086814F0C9F982460068C1681F
:1031B000504688474719B742BFD300BF1898A0B9F7
:1031C000B2A01FF085F8AE4800680DF03DF9AD499A
:1031D000884208D0AA490968486819990CF0E9F9A9
:1031E000322002F0E1F9002077E7B3A01FF070F879
:1031F000A3490968086814F0A1F981460068C1680C
:1032000048468847061900BF4FF4FA6002F0CCF92F
:103210009B4800680DF018F99A49884217D09849E0
:103220000968486821F094FA02281DD19449096878
:10323000486821F0DFFA0A2806D0914909684868F1
:1032400021F0D8FA0B280FD10120179019E08C49F2
:103250000968886808F038FE15909DF85400032826
:1032600002D1012017900CE085490968086814F024
:1032700065F982460068C168504688474719B742D9
:10328000C2D300BF1798A8B991481FF021F87C4815
:1032900000680DF0D9F87B49884209D0784909685F
:1032A000486819990CF085F94FF4FA7002F07CF92E
:1032B000002012E787A01FF00BF871490968086821
:1032C00014F03CF91A900068C1681A9888470619EA
:1032D0006B4800680DF0B8F86A49884223D000BFF7
:1032E0004FF4FA6002F060F965490968486821F016
:1032F00081FA0A2806D162490968486821F07AFAF9
:103300000B2802D0012016900CE05D49096808687E
:1033100014F014F982460068C1685046884747197E
:10332000B742DDD300BF564800680DF08DF855490F
:10333000884220D052490968486821F05BFA062883
:1033400006D14F490968486821F054FA012803D092
:1033500066A01EF0BDFF4DE06A481EF0B9FF484967
:103360000968486819990CF024F94FF4FA7002F0D2
:103370001BF90020B1E642480068816808A808F0FF
:1033800078FC00BF40F6B83002F00EF93C48006807
:10339000816801A808F06DFC1C2201A90FA81CF08F
:1033A00049F8DDED130A9DED0C1A30EEC10AB0EEBE
:1033B000C08A00BF9DED130A8DED0C0A18EE100AAD
:1033C0001AF0DCFC41EC190B9FED4F0B53EC102B6A
:1033D0001AF000FDD6D99DED130A10EE101A08461A
:1033E0001AF0CCFC41EC190B53EC192B48A01EF041
:1033F0006FFF00BF224800680DF026F8214988427F
:1034000009D01F490968486819990CF0D2F840F6AC
:10341000B83002F0C9F801205FE62DE9F04F93B013
:1034200047F230544FF4FA754FF0000A0020129022
:10343000119010900F900A200E90114800680DF026
:1034400003F8104988427FD00F48001D00680D9096
:1034500002200C904FF0000B0E9880B20849CDE985
:1034600000B009680DAB48680C9A0F990BF0CDFCC1
:103470008146B9F1000F5CD1484613B0BDE8F08F2A
:1034800008000020000A01030076020854616B6501
:103490006F6666206661696C65642E204D6F746F7F
:1034A0007273206661696C656420746F2073746147
:1034B0007274210A000000000A5375636365737318
:1034C00066756C2074616B656F6666210A0000008A
:1034D00044A2020856656869636C65206173636580
:1034E0006E64696E672E2E2E0A00000056656869AC
:1034F000636C6520697320686F766572696E670A10
:103500000000000094A102083BDF4F8D976E823FC0
:10351000416972637261667420686F766572696E64
:103520006720617420252E35666D21200A00000079
:103530000AE0FE49096848680F990BF003FE4FF452
:10354000FA7002F031F800BFF84909680022C86833
:10355000114609F006FA4FF4FA7002F025F8F34923
:103560000968086813F0EAFF07460068C168384632
:103570008847061900BF4FF4FA6002F015F8EB48CF
:1035800000680CF061FFEA49884209D0E749096800
:10359000486821F02FF90C280FD1012012901AE071
:1035A000E2490968886808F08FFC0D909DF83400A6
:1035B000042802D0012012900DE0DC490968086857
:1035C00013F0BCFF81460068C1684846884710EB8D
:1035D000050AB245CFD300BF1298B8B9D5A01EF0E6
:1035E00077FED24800680CF02FFFD149884209D0FD
:1035F000CE49096848680F990BF0DBFF4FF4FA7069
:1036000001F0D2FF002013B0BDE8F08FD5A01EF06E
:103610005FFEC6490968086813F090FF804600689D
:10362000C16840468847061900BF4FF4FA6001F0B0
:10363000BBFFBE4800680CF007FFBD4988421ED0A2
:10364000BA490968486821F0D5F80C2846D0B7492E
:103650000968486821F07CF802283FD0B34909681E
:10366000486821F0C7F8062806D1B04909684868BB
:1036700021F0C0F8012831D0012011903CE0AB4985
:103680000968886808F020FC0D909DF83400052832
:1036900003D1642001F088FF20E000BF4FF4FA60FE
:1036A00001F082FFA14800688168684608F0E1FAED
:1036B0001C22694607A81BF0BDFE9DED0B0AB5EE66
:1036C000C00AF1EE10FAE9D19DED0B0AB5EEC00A81
:1036D000F1EE10FA01D10120119000BF9349096861
:1036E000086813F02BFF81460068C1684846884788
:1036F00010EB050AB24598D300BF119818B19EA0EF
:103700001EF0E6FD15E0A2481EF0E2FD87480068C5
:103710000CF09AFE8649884209D0844909684868B5
:103720000F990BF046FF4FF4FA7001F03DFF0020B7
:1037300069E77E4800680CF087FE7D49884209D021
:103740007A49096848680F990BF033FF40F6B830A2
:1037500001F02AFF012056E72DE9F05F2DED0A8BDD
:1037600083460E4614461D46704800680CF06CFEF9
:103770006F49884250D02746A9464D46D9F80000E7
:10378000D9F8041041EC100B3C463868796853ECCA
:10379000102B1AF0CFF941EC180BD9F80800D9F822
:1037A0000C1041EC100BB868F96853EC102B1AF0B0
:1037B000C1F941EC190B9FED770B53EC102B51EC39
:1037C000190B1AF0BDF91AF01DFB3060B868F968E2
:1037D00041EC100B1FF098FBB0EE40BAF0EE60BA6F
:1037E0009FED6C0B53EC102B51EC180B1AF0A8F951
:1037F00053EC1B2B1AF0A4F91AF004FB7060386923
:1038000000EE100AD9F8100000EE900A30EE600ABF
:1038100010EE100AB06056E0A046AA465546DAF807
:103820000800DAF80C1041EC100B4446D8F80800F8
:10383000D8F80C1053EC102B1AF07CF941EC180B53
:10384000DAF80000DAF8041041EC100BD8F80000A8
:10385000D8F8041053EC102B1AF06CF941EC190B4A
:103860009FED4C0B53EC102B51EC190B1AF068F92F
:103870001AF0C8FA3060D8F80000D8F8041041EC0B
:10388000100B1FF041FBB0EE40BAF0EE60BA9FEDB6
:10389000410B53EC102B51EC180B1AF051F953EC6F
:1038A0001B2B1AF04DF91AF0ADFA7060D8F8100021
:1038B00000EE100ADAF8100000EE900A30EE600A0E
:1038C00010EE100AB060BDEC0A8BBDE8F09F30B579
:1038D0002DED108B85B004462546A86800EE100A31
:1038E00020EE000A10EE101A08461AF047FA41ECD2
:1038F000190BE86800EE100A20EE000A10EE101A0C
:1039000008461AF03BFA41EC1F0B53EC192B1AF046
:1039100070F841EC1E0B9FED210B53EC102B1AF0AD
:103920000FF941EC1D0B9FED1F0B3FE0080000203D
:10393000000A01034C616E64696E67206661696C00
:1039400065642E2041697263726166742069732018
:103950007374696C6C20696E20746865206169728B
:103960002E0A000056656869636C65206C616E64A0
:10397000696E672E2E2E0A00537563636573736636
:10398000756C206C616E64696E67210A000000002E
:10399000ECA1020800000040A654584100000000BD
:1039A000000000C0000000000000F03F53EC102BAE
:1039B0001AF01FF841EC1A0B686800EE100AA868AC
:1039C00000EE900A20EE201A286800EE100AE8683F
:1039D00000EE900A00EE201A11EE101A08461AF0B6
:1039E000CDF941EC1D0B9FEDFE0B53EC102B1AF0A3
:1039F000A7F841EC1B0B686800EE100AE86800EEBF
:103A0000900A20EE201A286800EE100AA86800EE3E
:103A1000900A00EE601A11EE101A08461AF0AEF97C
:103A200041EC1D0B1FED230B53EC102B1AF088F803
:103A300041EC180BA86800EE100AE86800EE900A46
:103A400020EE201A286800EE100A686800EE900A3E
:103A500000EE201A11EE101A08461AF08FF941EC08
:103A60001D0B9FEDDF0B53EC102B1AF069F841ECA6
:103A70001C0B686800EE100A20EE000A10EE101A07
:103A800008461AF07BF941EC1F0B53EC192B19F087
:103A9000B0FF41EC1E0B1FED3F0B53EC102B1AF047
:103AA0004FF841EC1D0B1FED410B53EC102B19F09F
:103AB000A0FFCDE900011FED450B53EC102B51EC9D
:103AC000180B1AF087F902D21FED4A0B03E0B0EE93
:103AD000480AF0EE680AB0EE408AF0EE608A9FED88
:103AE000C20B53EC102B51EC180B1AF05BF902D2FD
:103AF0009FEDBD0B03E0B0EE480AF0EE680AB0EEB1
:103B0000408AF0EE608AB0EE480AF0EE680A1EF0D5
:103B1000E7FDB0EE40DAF0EE60DA51EC1D0B1AF082
:103B200071F902909DED001BB0EE4C0AF0EE6C0AAC
:103B30001FF0F2F8B0EE40DAF0EE60DA51EC1D0B57
:103B40001AF060F90390B0EE4A1AF0EE6A1AB0EE7D
:103B50004B0AF0EE6B0A1FF0DFF8B0EE40DAF0EE41
:103B600060DA51EC1D0B1AF04DF904909DED020A3C
:103B7000DDED030A9DED041A05B0BDEC108B30BDE0
:103B80001FB5044605208DF800008DF801008DF862
:103B900002008DF803008DF8040003208DF8050065
:103BA00005208DF806008DF807008DF808008DF8C7
:103BB00009008DF80A008DF80B008DF80C008DF8C7
:103BC0000D0000231A466946A06808F030FA1FBDB0
:103BD00000B52DED060BCBB08548499032204890BA
:103BE0004FF47A71489891FBF0F04790479800EBBA
:103BF000800040004690322147984843459000207D
:103C00004490322043907B4800680CF01DFC7A49B8
:103C100088422ED079480068089002200790002042
:103C20000690439880B20699CDE90010714800686B
:103C3000406808AB0490079A44990BF0E6F80590A9
:103C4000059810B9059851B000BD6A4800684068F1
:103C5000049044990BF076FA4FF4FA7001F0A4FC4A
:103C600064480068FFF78CFF4FF4FA5001F09CFCA9
:103C700000BF604800680CF0E7FB5F4988422BD02A
:103C80005C4800680CF0E5FB30BB5A4800684068AF
:103C90000146029003A820F0E7FB182203A93DA8E3
:103CA0001BF0C8FB18223DA937A81BF0C3FB37AB9C
:103CB0003DAA26A94F480068FFF74EFD4D48006811
:103CC00080680146019002A807F0D3FF1C2202A9D8
:103CD00030A81BF0AFFB18E046480068806801463A
:103CE000019002A807F0C5FF1C2202A930A81BF012
:103CF000A1FB1C2230A929A81BF09CFB29AB30AAF0
:103D000026A93C480068FFF727FDDDED260A9DED5A
:103D10004B0A30EE600A8DED080A08981AF02EF86A
:103D2000CDE92401DDED270A9DED4C0A30EE600A55
:103D30008DED080A08981AF021F8CDE922019DEDD1
:103D4000280AF1EE400A9DED4D0A30EE600A8DED35
:103D5000080A08981AF012F8CDE920014E981AF0D6
:103D60000DF89FED270B53EC102BCDE906019DEDCF
:103D7000060B51EC100B19F0E3FECDE91E01509833
:103D800019F0FCFF9FED1E0B53EC102BCDE9060143
:103D90009DED060B51EC100B19F0D2FECDE91C0184
:103DA000144800680CF050FB134988423ED011487B
:103DB00000684068089020F0F5FA8DED180ACDED06
:103DC000190A8DED1A1ACDED1B1A18A8FFF77FFD01
:103DD0008DED060ACDED070A8DED081A089813E05F
:103DE0000000000000000040000000000000F0BFE4
:103DF000A086010008000020000A010308760208DE
:103E000011DD52A246DF913F039019F0B7FF1FED7D
:103E1000040B53EC102BCDE904019DED040B51EC88
:103E2000100B19F0FFFECDE9120128E0FE480068F2
:103E30008068089007F020FE8DED140ACDED150A7C
:103E40008DED161ACDED171A14A8FFF740FD8DED74
:103E5000060ACDED070A8DED081A0898039019F0AF
:103E60008DFF1FED190B53EC102BCDE904019DEDD7
:103E7000040B51EC100B19F0D5FECDE91201002016
:103E8000119010900F900E9002200D909FEDE70A78
:103E90008DED090AE44800680CF0D6FAE44988423E
:103EA00003D19FEDE40A8DED090A9DED4B0AB5EEB5
:103EB000C00AF1EE10FA14DDDDED4B0A9DED0D0A9E
:103EC000B8EEC00AF4EEC00AF1EE10FA02D29DED8F
:103ED0004B0A03E09DED0D0AB8EEC00A8DED0C0A09
:103EE00023E09DED4B0AB5EEC00AF1EE10FA18D2B0
:103EF0000D98404200EE100AF8EEC00A9DED4B0A04
:103F0000F4EEC00AF1EE10FA02D29DED4B0A05E084
:103F10000D98404200EE100AB8EEC00A8DED0C0A72
:103F200003E09FEDC50A8DED0C0A9DED4C0AB5EE40
:103F3000C00AF1EE10FA14DDDDED4C0A9DED0D0A1C
:103F4000B8EEC00AF4EEC00AF1EE10FA02D29DED0E
:103F50004C0A03E09DED0D0AB8EEC00A8DED0B0A88
:103F600023E09DED4C0AB5EEC00AF1EE10FA18D22E
:103F70000D98404200EE100AF8EEC00A9DED4C0A82
:103F8000F4EEC00AF1EE10FA02D29DED4C0A05E003
:103F90000D98404200EE100AB8EEC00A8DED0B0AF3
:103FA00003E09FEDA50A8DED0B0A9F4800680CF019
:103FB0004BFA9F49884208D0DDED350A9DED4D0A48
:103FC00030EE800A8DED0A0A07E0DDED350A9DED41
:103FD0004D0A30EE800A8DED0A0AE0E11FED780B04
:103FE00053EC102B9DED1E0B51EC100B19F01AFE2B
:103FF000CDE906019DED060B51EC100B19F002FF07
:10400000089089480068C0680790DDED081A9DEDAA
:104010000A1ADDED0B0A9DED0C0A08F05AFD4798CF
:1040200080B2089001F0C0FA1199479808441190A5
:104030007D4800680CF008FA7D49884245D07A48EE
:1040400000680CF006FAE0BB77480068406808900A
:1040500020F0A8F98DED180ACDED190A8DED1A1A88
:10406000CDED1B1A18A8FFF732FC8DED060ACDED39
:10407000070A8DED081A0898059019F07FFECDE922
:1040800012016948006840680146029003A820F0C8
:10409000EBF9182203A93DA81BF0CCF937AB3DAAD8
:1040A00026A961480068FFF757FB5F4800688068F1
:1040B0000146019002A807F0DCFD1C2202A930A8ED
:1040C00000E002E01BF0B6F930E057480068806875
:1040D000089007F0D1FC8DED140ACDED150A8DED99
:1040E000161ACDED171A14A8FFF7F1FB8DED060A8D
:1040F000CDED070A8DED081A0898059019F03EFEDF
:10410000CDE912014848006880680146019002A884
:1041100007F0AFFD1C2202A930A81BF08BF929ABD8
:1041200030AA26A940480068FFF716FBDDED260AF5
:104130009DED4B0A30EE600A8DED080A089819F0E3
:104140001DFECDE92401DDED270A9DED4C0A30EE80
:10415000600A8DED080A089819F010FECDE92201D9
:104160009DED280AF1EE400A9DED4D0A30EE600A01
:104170008DED080A089819F001FECDE920010D988F
:1041800019F0BFFDCDE906019DED240B1EF05AF894
:104190008DED040B9DED060B53EC102B9DED040BE8
:1041A00051EC100B19F0FEFD06D29DED240B51ECE5
:1041B000100B19F027FE0C900D9819F0A2FDCDE917
:1041C00006019DED220B1EF03DF88DED040B9DEDDB
:1041D000060B53EC102B9DED040B51EC100B19F05A
:1041E000E1FD06D29DED220B51EC100B19F00AFEF9
:1041F0000B900D4800680CF027F90D49884258D102
:104200004F9819F0BBFDCDE906019DED240B1EF082
:1042100019F88DED040B9DED060B53EC102B9DED65
:10422000040B51EC100B09E0080000208FC2F53D93
:10423000000A01039A99993F0000000019F0B2FDAD
:1042400037D24F9819F09AFDCDE906019DED220B6A
:104250001DF0F8FF8DED040B9DED060B53EC102BBC
:104260009DED040B51EC100B19F09CFD21D29DED3E
:104270001E0B53EC102B9DED120B51EC100B19F093
:1042800059FCCDE904019DED040B1DF0DBFF8DED24
:10429000060B9DED1C0B53EC102B9DED060B51EC0A
:1042A000100B19F07FFD04D2479910980844109024
:1042B00069E04F9819F062FDCDE906019DED240BF0
:1042C0001DF0C0FF8DED040B9DED060B53EC102B84
:1042D0009DED040B51EC100B19F064FD4DD24F987D
:1042E00019F04CFDCDE906019DED220B1DF0AAFF52
:1042F0008DED040B9DED060B53EC102B9DED040B87
:1043000051EC100B19F04EFD37D2099819F036FD1B
:10431000CDE906019DED200B1DF094FF8DED040B02
:104320009DED060B53EC102B9DED040B51EC100B87
:1043300019F038FD21D29DED1E0B53EC102B9DED95
:10434000120B51EC100B19F0F5FBCDE904019DEDBA
:10435000040B1DF077FF8DED060B9DED1C0B53EC50
:10436000102B9DED060B51EC100B19F01BFD04D228
:10437000479910980844109005E0109818B1479993
:104380000F9808440F9046990F98884202DD00204C
:1043900010900F9045991098884200DB04E04999ED
:1043A00011988842FFF61AAE00BF534800680CF01F
:1043B0004BF85249884213D00EE04F480068C0685D
:1043C000089008F08AFC479880B2089001F0ECF859
:1043D00047990E9808440E9045990E988842ECDB58
:1043E00049991198884217DB45A01DF071FF42489A
:1043F00000680CF029F8414988420AD03E4800681C
:104400004068089044990BF0D4F84FF4FA7001F02A
:10441000CBF83F48007816E4374800680CF014F8F1
:10442000364988420AD03448006840680890449968
:104430000BF0BFF840F6B83001F0B6F83548007818
:1044400001E42DE9F047054642F210774FF03208BB
:104450004FF47A7090FBF8F404EB84004FEA4009C3
:10446000322004FB00FA002612E0234909685FEDC0
:104470008E1A1FED8F1A5FED900A00EE105AB8EEFB
:10448000C00AC86808F04EFBA0B201F08DF82644BF
:10449000BE42EADB1F480078BDE8F08770B5002314
:1044A0000A22012103200EF03DFE1B49086006236D
:1044B0002422022103200EF035FE18490860184816
:1044C000007800F00100002814D115481EF03CF8D7
:1044D00000280FD000250C201DF0D4FE0446012535
:1044E00000210FF0CFFF044600250E4804600C4861
:1044F000AFF3008070BD000008000020000A010337
:104500005461736B2074696D656F7574210A0000C6
:104510000F7602080E760208C4000020C8000020B2
:10452000400600204406002010B52DED068B84B017
:10453000044694ED020A10EE101A084619F01EFC0B
:1045400041EC180B94ED010A10EE101A084619F010
:1045500015FC41EC190B94ED000A10EE101A0846F8
:1045600019F00CFC41EC1A0B8DED028B8DED009BCC
:1045700053EC1A2BFEA01DF0ABFE04B0BDEC068B75
:1045800010BD1CB5044694ED000ABDEEC00A10EE45
:10459000100A00B2ADF8020094ED010ABDEEC00AA7
:1045A00010EE100A00B2ADF8040094ED020ABDEE60
:1045B000C00A10EE100A00B2ADF80000207B8DF8A2
:1045C00007009DF806008DF806009DF80600217C86
:1045D0000843C0B28DF806009DF80600217D40EA30
:1045E0004100C0B28DF806009DF80600A17D40EAAA
:1045F0008100C0B28DF806009DF80600617D40EA9A
:10460000C100C0B28DF80600E749096848696946EB
:1046100008F087FC4FF47A6000F0C6FF1CBD00B5BF
:10462000B5B0002022909FEDE11ADFEDE00A9FED8A
:10463000DF0A2FA81BF0F6FB9FEDDC1ADFEDDB0A8B
:104640009FEDDA0A099032A81BF0ECFB08900020DD
:10465000019002900390049000900998D0ED022AF6
:1046600090ED012AD0ED001A089890ED021AD0EDD5
:10467000010A90ED000A00231A46194616A81BF0FD
:10468000D8FB9FEDCA1ADFEDC90A9FEDC80A13A82F
:104690001BF0C8FB9FEDC51ADFEDC40A9FEDC30AEE
:1046A00010A81BF0BFFB00200D900A200C90BE4804
:1046B00000680BF0C9FEBE4988422AD0BD48006898
:1046C000099002200890002007900C9880B207996A
:1046D000CDE90010B4480068406809AB0590089A1D
:1046E0000D990AF092FB0690069810B9069835B01D
:1046F00000BDAD480068406805900D990AF022FDA4
:104700004FF4FA7000F050FF4FF4FA6000F04CFFE5
:1047100000BFA9481DF0DCFDA34800680BF094FE23
:10472000A349884230D0A0480068406806901FF036
:104730005DFF8DED070ACDED080A8DED091A9DED9F
:10474000080A8DED130A98480068406806901FF02B
:104750004DFF8DED070ACDED080A8DED091A9DED8F
:10476000070A8DED140A90480068406806901FF013
:104770003DFF8DED070ACDED080A8DED091A9DED7F
:10478000090A8DED150A35E0874800688068014602
:10479000019002A807F071FB02A80FC8CDE9082319
:1047A000CDE906019DED060A8DED130A7E480068ED
:1047B00080680146019002A807F05FFB02A80FC8BD
:1047C000CDE90823CDE906019DED070A8DED140A18
:1047D0007548006880680146019002A807F04DFB0B
:1047E00002A80FC8CDE90823CDE906019DED080A0E
:1047F0008DED150A1598039019F0C0FACDE908015E
:104800001498039019F0BAFACDE9060113980390B1
:1048100019F0B4FACDE90401DDE90801CDE902019E
:10482000DDE90601CDE900019DED040B53EC102BF1
:1048300062A01DF04DFD9FED5D1ADFED5C0A9FED5E
:104840005B0A2FA81BF0EEFA099000200123CDE9A6
:10485000013003900490142000900998D0ED022AB2
:1048600090ED012AD0ED001A9DED151ADDED140A28
:104870009DED130A00231A46194623A81BF0D9FA06
:1048800030220146089016A81AF0D4FD16A8FFF7AA
:1048900078FE59481DF01CFD434800680BF0D4FD1C
:1048A0004349884230D040480068406806901FF075
:1048B0009DFE8DED070ACDED080A8DED091A9DEDDF
:1048C000080A8DED100A38480068406806901FF00D
:1048D0008DFE8DED070ACDED080A8DED091A9DEDCF
:1048E000070A8DED110A30480068406806901FF0F5
:1048F0007DFE8DED070ACDED080A8DED091A9DEDBF
:10490000090A8DED120A7DE027480068806801469B
:10491000019002A807F0B1FA02A80FC8CDE9082358
:10492000CDE906019DED060A8DED100A1E480068CE
:1049300080680146019002A807F09FFA02A80FC8FC
:10494000CDE90823CDE906019DED070A8DED110A99
:104950001548006880680146019002A807F08DFAAA
:1049600002A80FC8CDE90823CDE9060146E0000002
:104970004E65772047696D62616C20726F74617457
:10498000696F6E20616E676C65206973205B2025FE
:10499000302E33662C2025302E33662C2025302EE9
:1049A0003366205D0A0A00000800002000000000B5
:1049B000000A01030C76020894A20208496E697489
:1049C00069616C2047696D62616C20726F746174FB
:1049D000696F6E20616E676C653A205B2025302E12
:1049E00033662C2025302E33662C2025302E33665E
:1049F000205D0A0A0000000040A402089DED080A9C
:104A00008DED120A00200190029003900490142072
:104A10000090DDED122A9DED112ADDED101A9DEDBD
:104A2000151ADDED140A9DED130A4FF4E163C82257
:104A3000002123A81BF0FDF930220146099016A899
:104A40001AF0F8FC16A8FFF79CFDFE4800680BF072
:104A5000FBFCFD49884230D0FA4800684068069067
:104A60001FF0C4FD8DED070ACDED080A8DED091A82
:104A70009DED080A8DED100AF24800684068069026
:104A80001FF0B4FD8DED070ACDED080A8DED091A72
:104A90009DED070A8DED110AEA480068406806900E
:104AA0001FF0A4FD8DED070ACDED080A8DED091A62
:104AB0009DED090A8DED120A35E0E2480068806834
:104AC0000146019002A807F0D8F902A80FC8CDE965
:104AD0000823CDE906019DED060A8DED100AD9489F
:104AE000006880680146019002A807F0C6F902A894
:104AF0000FC8CDE90823CDE906019DED070A8DED2C
:104B0000110AD048006880680146019002A807F0A9
:104B1000B4F902A80FC8CDE90823CDE906019DED3F
:104B2000080A8DED120A10A8FFF7FEFCC7A01DF0C1
:104B3000CFFBCDA01DF0CCFBC248006800690990F6
:104B400007F0E5FBCDA01DF0C3FBD8481DF0C0FB6E
:104B50001FED6A1A5FED6B0A1FED6C0A2FA81BF0A0
:104B600061F9099000200123CDE901300390049000
:104B7000142000900998D0ED022A90ED012AD0ED82
:104B8000001A9DED151ADDED140A9DED130A0023A0
:104B9000C74A194623A81BF04CF930220146089059
:104BA00016A81AF047FC16A8FFF7EBFCA54800680A
:104BB0000BF04AFCA449884230D0A2480068406803
:104BC00006901FF013FD8DED070ACDED080A8DED5F
:104BD000091A9DED080A8DED100A9A480068406890
:104BE00006901FF003FD8DED070ACDED080A8DED4F
:104BF000091A9DED070A8DED110A92480068406878
:104C000006901FF0F3FC8DED070ACDED080A8DED3F
:104C1000091A9DED090A8DED120A35E089480068F0
:104C200080680146019002A807F027F902A80FC882
:104C3000CDE90823CDE906019DED060A8DED100AA8
:104C40008048006880680146019002A807F015F9C5
:104C500002A80FC8CDE90823CDE906019DED070A9A
:104C60008DED110A7748006880680146019002A81E
:104C700007F003F902A80FC8CDE90823CDE9060122
:104C80009DED080A8DED120A10A8FFF74DFC6FA0EC
:104C90001DF01EFB87A01DF01BFB6A480068006921
:104CA000099007F03BFB88481DF012FB87A01DF020
:104CB0000FFB6420ADF83A003220ADF83C006FF0F5
:104CC000C700ADF838004FF47A600B9064200A906A
:104CD000002009900FE05B48006840690EA9089029
:104CE00008F039F90A9880B2089000F05DFCDDE91F
:104CF0000901084409900B9909988842EBDB514857
:104D000000680BF0A1FB5049884230D04D48006844
:104D1000406806901FF06AFC8DED070ACDED080A89
:104D20008DED091A9DED080A8DED100A45480068C1
:104D3000406806901FF05AFC8DED070ACDED080A79
:104D40008DED091A9DED070A8DED110A3D480068A9
:104D5000406806901FF04AFC8DED070ACDED080A69
:104D60008DED091A9DED090A8DED120A35E03548E1
:104D7000006880680146019002A807F07EF802A84A
:104D80000FC8CDE90823CDE906019DED060A8DED9A
:104D9000100A2C48006880680146019002A807F0BC
:104DA0006CF802A80FC8CDE90823CDE906019DEDF6
:104DB000070A8DED110A23480068806801460190BA
:104DC00002A807F05AF802A80FC8CDE90823CDE9D8
:104DD00006019DED080A8DED120A10A8FFF7A4FB4D
:104DE00049A01DF075FA9FED4E1ADFED4D0A9FEDBB
:104DF0004C0A2FA81BF016F8099000200123CDE9DA
:104E0000013003900490142000900998D0ED022AFC
:104E100090ED012AD0ED001A9DED151ADDED140A72
:104E20009DED130A00231A46194623A81BF001F82A
:104E300030220146089016A81AF0FCFA16A8FFF7CF
:104E4000A0FB6FE008000020000A0103456E7375A7
:104E5000726520534420636172642069732070720C
:104E60006573656E742E0A0054616B696E672070FD
:104E70006963747572652E2E0A00000043686563CD
:104E80006B20444A4920474F20417070206F7220A8
:104E90005344206361726420666F722061206E65E6
:104EA0007720706963747572652E0A00F4A3020896
:104EB0000CFEFFFF5374617274696E67207669643B
:104EC000656F2E2E0A0000002CA30208536574742F
:104ED000696E6720526F6C6C207261746520746F0C
:104EE0002031302C20506974636820726174652011
:104EF000746F20352C2059617720526174652074BD
:104F00006F202D32302E0A00526573657474696EFD
:104F10006720706F736974696F6E2E2E2E0A000001
:104F200000000000634800680BF08EFA6249884276
:104F300030D060480068406806901FF057FB8DED48
:104F4000070ACDED080A8DED091A9DED080A8DEDD1
:104F5000100A58480068406806901FF047FB8DED26
:104F6000070ACDED080A8DED091A9DED070A8DEDB2
:104F7000110A50480068406806901FF037FB8DED1D
:104F8000070ACDED080A8DED091A9DED090A8DED90
:104F9000120A39E04748006880680146019002A87B
:104FA00006F06BFF03A80DC80299CDE90823CDE9EF
:104FB00006109DED060A8DED100A3E4800688068D7
:104FC0000146019002A806F058FF02A90EC90598F3
:104FD000CDE90723069109909DED070A8DED110A91
:104FE0003448006880680146019002A806F045FF39
:104FF000DDE90403DDE90212CDE90803CDE906127B
:105000009DED080A8DED120A10A8FFF78DFA2BA06E
:105010001DF05EF9274800680069099007F085F9DE
:105020004FF47A7000F0C0FA29A01DF051F9214820
:1050300000680BF009FA204988420AD01D48006830
:10504000406809900D990AF0B4FA40F6B83000F0C3
:10505000ABFA0120FFF74BBB70B500230A220121F8
:1050600003200EF05FF8264908600623242202215F
:1050700003200EF057F8234908602348007800F019
:105080000100002814D120481DF05EFA00280FD03E
:1050900000250C201DF0F6F80446012500210FF034
:1050A000F1F904460025194804601748AFF3008061
:1050B00070BD000008000020000A010353746F70E7
:1050C00070696E6720766964656F2E2E2E0A000067
:1050D000436865636B20444A4920474F2041707004
:1050E000206F72205344206361726420666F7220C7
:1050F00061206E657720766964656F2E0A00000076
:10510000D0000020D40000204006002044060020EB
:1051100000B52DED040B2DED108B89B09DED1B0A14
:1051200020EE000A10EE101A084618F027FE41EC97
:10513000190B9DED1C0A20EE000A10EE101A08460D
:1051400018F01CFE41EC1F0B53EC192B18F051FC0E
:1051500041EC1E0B9FEDA10B53EC102B18F0F0FC53
:1051600041EC1D0B9FED9F0B53EC102B18F041FCF5
:1051700041EC1A0B9DED1A0ADDED1B0A20EE200A08
:10518000DDED190A9DED1C1A00EE810A10EE101AD1
:10519000084618F0F3FD41EC1D0B9FED940B53EC0A
:1051A000102B18F0CDFC41EC1B0B9DED1A0ADDED28
:1051B0001C0A20EE200ADDED190A9DED1B1A00EEF7
:1051C000C10A10EE101A084618F0D8FD41EC1D0B6C
:1051D0009FED820B53EC102B18F0B2FC41EC180B36
:1051E0009DED1B0ADDED1C0A20EE200ADDED190AFB
:1051F0009DED1A1A00EE810A10EE101A084618F0FA
:10520000BDFD41EC1D0B9FED790B53EC102B18F0FD
:1052100097FC41EC1C0B9DED1A0A20EE000A10EEE3
:10522000101A084618F0AAFD41EC1F0B53EC192B7D
:1052300018F0DFFB41EC1E0B9FED680B53EC102BBD
:1052400018F07EFC41EC1D0B9FED660B53EC102B10
:1052500018F0CFFBCDE900019FED620B53EC102B52
:1052600051EC180B18F0B6FD02D29FED5E0B03E077
:10527000B0EE480AF0EE680AB0EE408AF0EE608ABE
:105280009FED5C0B53EC102B51EC180B18F08AFDC2
:1052900002D29FED580B03E0B0EE480AF0EE680A28
:1052A000B0EE408AF0EE608AB0EE480AF0EE680A8E
:1052B0001DF016FA8DED060B9DED001BB0EE4C0AAD
:1052C000F0EE6C0A1DF028FD8DED040BB0EE4A1ACD
:1052D000F0EE6A1AB0EE4B0AF0EE6B0A1DF01CFD00
:1052E0008DED020B9DED020B9DED041B9DED062B3C
:1052F00009B0BDEC108B0FBD00B52DED040B87B0D0
:10530000DDED0A1A9DED091ADDED080A9DED070A8B
:10531000FFF7FEFE8DED000B8DED021B8DED042BD6
:105320009DED000B0BB000BD00B52DED040B87B05B
:10533000DDED0A1A9DED091ADDED080A9DED070A5B
:10534000FFF7E6FE8DED000B8DED021B8DED042BBE
:105350009DED020B0BB000BD00B52DED040B87B029
:10536000DDED0A1A9DED091ADDED080A9DED070A2B
:10537000FFF7CEFE8DED000B8DED021B8DED042BA6
:105380009DED040B0BB000BD10B52DED048BB0EE00
:10539000408AF0EE608A9FED190B53EC102B51EC14
:1053A000180B18F0CDFB41EC190BB0EE490AF0EEEA
:1053B000690ABDEC048B10BD10B500230A2201213F
:1053C00003200DF0AFFE0F490860062324220221BE
:1053D00003200DF0A7FE0C49086010BD000000007E
:1053E000000000C0000000000000F03F00000000CE
:1053F00000000040000000000000F0BFE8C35CB007
:10540000DDA54C40DC000020E000002010B500F0DD
:105410009DF84FF4A06000F0B3F914F0A3FB13F073
:10542000CBFD12F0BEFB12F01FFD13F0D0F800F020
:105430004CF915F019FC12F05DFA13F031FA10BDB9
:1054400010B500230A22012103200DF06BFE05494F
:10545000086006232422022103200DF063FE024986
:10546000086010BDE8000020EC0000201FB50121FD
:10547000084601F0D6FE0121084601F0D2FE0020C8
:10548000ADF80C00ADF80600C720029042F2CF0044
:10549000ADF8040000208DF80E0001A9534802F079
:1054A00068F819208DF8000003208DF801008DF8B0
:1054B000020001208DF80300684600F066F9012122
:1054C0004A4802F00BFD01221146484802F0F2FC66
:1054D0000021464802F0D6F81FBD1FB5012108463D
:1054E00001F08EFE0121084601F08AFE0020ADF891
:1054F0000C00ADF80600C7200290272002904AF267
:105500000F40ADF8040001A94FF0804002F031F8DF
:105510001C208DF8000002208DF8010003208DF87A
:10552000020001208DF80300684600F02EF90121E9
:10553000880702F0D3FC01221146900702F0BAFC62
:1055400000214FF0804002F09DF81FBD30B5284883
:1055500000684FF47A72B0FBF2F1B1F1807F01D3B1
:1055600001201DE021F07F40401E4FF0E0225061FD
:1055700050170022002807DA13071D0E1D4B00F0FC
:105580000F04241F1D5503E013071C0E1A4B1C5457
:1055900000BF00204FF0E022906107201061002042
:1055A00008B100BFFEE730BD002106E047F23051F0
:1055B00000BF0A1EA1F10101FBD1021EA0F10103EF
:1055C00098B2F3D1704710B500230A2201210320BD
:1055D0000DF0A8FD094908600623242202210320BA
:1055E0000DF0A0FD0649086010BD0000000001405C
:1055F0002401002018ED00E000E400E0F8000020A5
:10560000FC00002000B587B00121032001F0C5FD9A
:105610000121102001F005FE4FF4007005900220DA
:105620008DF8180003208DF8190000208DF81A005D
:1056300001208DF81B0005A9484801F0CBFA802015
:10564000059005A9464801F0C5FA072209214348FB
:1056500001F04BFB07221146414801F046FB4FF495
:10566000613001900020ADF80800ADF80A00ADF8F7
:105670000C00ADF810000C20ADF80E0001A939485F
:1056800002F083FD012240F22551364802F0BBFEB4
:105690000121344802F001FE00BF8021314802F0B0
:1056A000D7FE0128F9D107B000BD08B501208DF85B
:1056B00001008DF8020025208DF8000001208DF8F2
:1056C0000300684600F061F808BD10B5FFF79AFFC7
:1056D000FFF7EBFF10BD70B52021224802F0B8FEA5
:1056E000012828D10020204908702048006804685B
:1056F0001C4802F001FEC5B220682946C269204656
:1057000090471B49087008460078012812D11749B4
:105710000968086811F027FF164908600846016803
:10572000124800680DF041FA00201149087001206C
:105730000D49087000BF70BD10B500230A22012179
:1057400003200DF0EFFC0C490860062324220221FF
:1057500003200DF0E7FC0949086010BD000002407D
:105760000004024000100140040100200800002055
:105770000100002004000020080100200C0100208E
:1057800032490143324A1160704770B5002100234D
:105790000F22C4781CB32E4C246804F4E064C4F5D2
:1057A000E064C4F30721C1F10404E3B20A41447880
:1057B0009C40E1B28478144021430C07210E254C13
:1057C00005786155047804F01F050124AC40057884
:1057D0006D11AD0005F1E025C5F8004109E0047840
:1057E00004F01F050124AC401B4D0678761145F8E6
:1057F000264070BD194A0A400243154B1B1F1A6010
:10580000704739B1124A121D12680243104B1B1D1A
:105810001A6006E00E4A121D126882430C4B1B1DD3
:105820001A607047042808D14FF0E021096941F05F
:1058300004014FF0E022116107E04FF0E021096917
:1058400021F004014FF0E022116170470000FA05D9
:105850000CED00E000E400E080E100E080FFFF1FCD
:1058600010B50446FE48844209D10121480601F0E2
:1058700031FD00214FF0007001F02CFD08E0012106
:10588000880601F027FD00214FF0806001F022FD25
:1058900010BD30B5024600200023146824F0020435
:1058A0001460146844F00104146000E05B1C546848
:1058B00004F001041CB94FF6FF74A342F6D15468FA
:1058C00004F001040CB900206CE08C79012C04D1A7
:1058D000146844F08004146003E0146824F0800429
:1058E0001460CC79012C04D1146844F04004146095
:1058F00003E0146824F0400414600C7A012C04D1F5
:10590000146844F02004146003E0146824F02004B8
:1059100014604C7A012C04D1146844F01004146013
:1059200003E0146824F0100414608C7A012C04D174
:10593000146844F00804146003E0146824F00804B8
:105940001460CC7A012C04D1146844F0040414606F
:1059500003E0146824F0040414608C78A407CD7864
:1059600044EA05640D7944EA05444D7944EA055456
:105970000D886D1E2C43D461146824F0010414605A
:10598000002300E05B1C546804F001041CB14FF6D6
:10599000FF74A342F6D1546804F001040CB1002056
:1059A00000E0012030BD10B50021837A012202FA07
:1059B00003F1AC4A126842F00102AA4B1A60A94AEC
:1059C0001C3212688A43A74B1C331A60027BCAB987
:1059D000A44A0C3212688A43A24B0C331A604288E4
:1059E000C38842EA03439F4A4032847A42F8343003
:1059F0000288838842EA03439A4A4032847A02EB5F
:105A0000C4025360027B012A19D1964A0C321268F3
:105A10000A43944B0C331A604288038842EA0343DA
:105A2000904A4032847A42F83430C288838842EA0D
:105A300003438C4A4032847A02EBC4025360C27A38
:105A40003AB9884A121D12688A43864B1B1D1A6098
:105A500006E0844A121D12680A43824B1B1D1A601D
:105A6000028932B97F4A143212688A437D4B14335B
:105A70001A600289012A06D17A4A143212680A434E
:105A8000784B14331A60427B012A06D1754A1C32C6
:105A900012680A43734B1C331A60724A126822F070
:105AA0000102704B1A6010BD00218171C171017239
:105AB00041728172C1728170C17003210171022132
:105AC00041710121018070476649096841F0010177
:105AD000644A11601146096843F60E729143614AA7
