:020000040800F2
:1000000040C00020058700080D8700080F87000802
:1000100011870008138700081587000800000000FA
:10002000000000000000000000000000178700082A
:1000300019870008000000001B87000805770108E9
:100040001F8700081F8700081F8700081F870008F8
:100050001F8700081F8700081F8700081F870008E8
:100060001F8700081F8700081F8700081F870008D8
:100070001F8700081F8700081F8700081F870008C8
:100080001F8700081F8700081F8700081F870008B8
:10009000A58801081F8700081F8700081F87000820
:1000A0001F8700081F8700081F8700081F87000898
:1000B0001F8700081F8700081F8700081F87000888
:1000C0001F8700081F8700081F8700081F87000878
:1000D0001F870008BF560008B1AB0108BBAB010881
:1000E0001F8700081F8700081F870008F9A3010861
:1000F0001F87000895A501081F8700081F870008B3
:100100001F8700081F8700081F8700081F87000837
:10011000C5AB01081F8700081F8700081F8700085C
:100120001F8700081F8700081F8700081F87000817
:100130001F8700081F8700081F8700081F87000807
:10014000578A01081F8700081F8700081F870008BB
:100150001F8700081F8700081F870008CFAB010812
:100160001F8700081F8700081F8700081F870008D7
:100170001F8700081F8700081F8700081F870008C7
:100180001F8700081F870008DFF814D01EF012FE3A
:100190001DF02CFB00480047F10700081EF021FB72
:1001A00040C00020FEB442464B4654465D463EB435
:1001B0001DF06BF83EBC90469946A246AB46FEBC8D
:1001C00000F032F8704700BF80EC200B7047C0ECA5
:1001D000200B704790EC200B7047D0EC200B704741
:1001E00085460D98DDF838E00F9B5DF8042B20E97B
:1001F0000C009DE8FE1F854601BD4DF808ED0DF190
:10020000080E4DF804ED2DE9FF1F002102B46946E8
:1002100081B01EF022FDDDF840E012B07047000012
:1002200070AC0200C0C002004DF808ED0DF1080EE0
:100230004DF804ED2DE9FF1F002102B4694681B09D
:100240001EF072BD2DE9F0472DED048B4FF0000933
:100250009FEDF90A10EE105A9FEDF70A10EE106AA2
:100260009FEDF50A10EE107A9FEDF30A10EE108A5A
:100270009FEDF10AB0EE408AB6EE000AF0EE408A39
:10028000B6EE000AB0EE409AB3EE040AF0EE409AE1
:10029000EA480078042803D0BDEC048BBDE8F08761
:1002A000E748807D00B9F7E7E548007F48B9E348B3
:1002B000007A28B1E148007A20F00200DF49087294
:1002C000EAE71BF003F8DF4801F091FADC48818986
:1002D0000122DC481BF0D9FCDB490870D848018AB0
:1002E0000322D8481BF0D1FCD7498871D448C18972
:1002F0000222D4481BF0C9FCD349C870D048418AB7
:100300000422D0481BF0C1FCCF494872002487E08A
:1003100004EB4400CC49085C012813D104EB4400F1
:1003200008448078401E00EB4000085C032809D197
:10033000002104EB4400C44A10448078401E00EBC6
:100340004000115404EB4400BF49085C022813D15B
:1003500004EB440008448078401E00EB4000085C39
:10036000032809D1022104EB4400B74A10448078E5
:10037000401E00EB4000115404EB4400B249085CFD
:10038000032817D104EB440008448078401E00EB9A
:100390004000085C03280DD1022104EB4400AA4A66
:1003A00010448078401E00EB40001154022004EB02
:1003B0004401505404EB4400A349085C78BB04EBAF
:1003C000440008448078401E00EB4000085C03288D
:1003D00025D1611CC8B21BF00FFC48B1002104EB11
:1003E0004400994A10448078401E00EB40001154AC
:1003F00093480A30611C30F811009149C98B88423A
:100400000DDA022104EB44008F4A10448078401E2C
:1004100000EB40001154022004EB44015054641CD2
:10042000042CFFF675AF88480078012806D101F04A
:10043000F7FA10EE105A0120834908738248807938
:10044000012807D1032001F0EBFA10EE105A012029
:100450007D4908737C48C078012807D1022001F04B
:1004600055FB10EE106A0120774948737648407AB0
:10047000012807D1042001F049FB10EE106A012089
:100480007149487370480078022803D118EE105A59
:100490006D4908736C488079022805D1B1EE480A8D
:1004A00010EE105A684908736748C078022803D1D3
:1004B00018EE106A644948736348407A022805D1EF
:1004C000B1EE480A10EE106A5F4948735E48007842
:1004D000032805D1B1EE680A10EE105A5A49087384
:1004E00059488079032803D118EE905A5649087369
:1004F0005548C078032805D1B1EE680A10EE106A9D
:10050000514948735048407A032803D118EE906A45
:100510004D49487301201BF06FFB70B903201BF09D
:100520006BFB50B94848007B022806D19FED420A78
:1005300010EE105A00204449087302201BF05CFBA7
:1005400070B904201BF058FB50B93F48407B02288B
:1005500006D19FED390A10EE106A00203A4948731F
:100560003948007B00281BDD3748407BC0B902209A
:100570001BF042FB40B1022001F0C8FA10EE106AF5
:100580000420314948730BE004201BF035FB38B1DF
:10059000042001F0BBFA10EE106A04202A494873C7
:1005A0002948407B00281BDD2748007BC0B901207B
:1005B0001BF022FB40B1012001F032FA10EE105A7C
:1005C0000420214908730BE003201BF015FB38B110
:1005D000032001F025FA10EE105A04201A4908737E
:1005E0001948007B002803DC1748407B00283DDDCC
:1005F0004FF001091348B0F91C00B0F5FA7F02DD95
:1006000019EE107A0EE00F48B0F91C0010F5FA7FD1
:1006100004DAB1EE490A10EE107A03E09FED060A03
:1006200010EE107A0748B0F91E00B0F5FA7F0DDD24
:1006300019EE908A26E000000000000084000020EF
:10064000303300206833002090330020FE48B0F99A
:100650001E0010F5FA7F04DAB1EE690A10EE108A76
:1006600010E01FED0B0A10EE108A0BE04FF00009AE
:10067000002405E0002004EB4401F44A5054641CBB
:10068000042CF7DB002409E004EB4400EF49085C8C
:1006900004EB4401ED4A11444870641C042CF3DB64
:1006A000B9F1000F0FD0EA48C0F80150C0F805605A
:1006B000C0F80970C0F80D80E648007A40F00200EA
:1006C000E44908722AE0E348007A28B1E148007A58
:1006D00020F00200DF490872DD48D0F8010000EE8A
:1006E000100AB5EEC00AF1EE10FA06D01FED2E0A80
:1006F00010EE100AD649C1F80100D548D0F805001F
:1007000000EE100AB5EEC00AF1EE10FA06D01FEDA9
:10071000360A10EE100ACE49C1F8050000BFBBE54D
:10072000CD4A107B517BCB4A1278042A00D0704707
:10073000FC2801D0FC2910D10122C64B5A70B7EE1B
:10074000000A10EE102AC24BC3F80920C14A127ADF
:1007500042F00102BF4B1A721CE00022BD4B5A70DE
:10076000BB4AD2F8092000EE102AB5EEC00AF1EE1D
:1007700010FA06D01FED500A10EE102AB44BC3F841
:100780000920B44A127A2AB1B24A127A22F001023E
:10079000B04B1A7200BFCAE710B51AF08AFC0128E4
:1007A00001D1FFF7BDFF10BD0020AC4908601AE081
:1007B000AB49AA4A1268885C411ECAB2A849A74B35
:1007C0001B68CA5450B10846A4490968405C28B95E
:1007D0000021A348001DA14A126881549F48006867
:1007E000401C9E4908609D4800680428E0DB704773
:1007F0001CB504F005FE1AF081FC4FF47A7004F089
:10080000CDFE5F20974B98A29B4900909B4821F01A
:1008100093FC0446601C38B1B4F5967F04D2974926
:1008200097A021F079FC02E096A021F075FC9DA034
:100830009FA1A2A3A3A2CDE90010A5A1A74821F0E2
:100840006BFC6120874B88A28B4900908B4821F07C
:1008500073FC0446601C38B1B4F5967F04D2874916
:1008600087A021F059FC02E086A021F055FC00F0A1
:10087000A8FC002802DA4FF0FF301CBD1AF020FD62
:100880001CF042F81BF0AEFE1CF068F91BF011FCE6
:1008900002224FF47A71AFF2EF0018F08AFF019054
:1008A00015E01CF0B3F900F01DFF1AF0B8FC1BF0C6
:1008B00030FFFFF771FF1CF02EF91BF04DFDFFF725
:1008C000C1FC17F038FA17F0CCFE18F0DBF9E8E7B6
:1008D00010B52DED048B5F480078042802D0BDECE4
:1008E000048B10BD5E482A38807D00B9F7E75C486C
:1008F0002A38007F48B95748007A28B15548007A0D
:1009000020F0020053490872E9E71AF0EEFC0446B1
:10091000002C75D04F48007A40F002004D49087213
:1009200004F00100A0B14E492A39088C1DF01EF9CF
:1009300041EC190B9FED6A0B53EC102B1DF024F8C2
:1009400041EC180B1DF082F94149C1F801001EE08D
:1009500004F00400A0B142492A39088C1DF006F9C0
:1009600041EC190B9FED600B53EC102B1DF00CF8B4
:1009700041EC180B1DF06AF93549C1F8010006E099
:100980001FEDD30A10EE100A3149C1F8010004F03E
:100990000200A0B132492A39088C1DF0E7F841EC79
:1009A000190B9FED4F0B53EC102B1CF0EDFF41EC9E
:1009B000180B1DF04BF92649C1F80500A0E004F022
:1009C0000800A0B126492A39088C1DF0CFF841EC67
:1009D000190B9FED450B53EC102B1CF0D5FF41EC90
:1009E000180B1DF033F91A49C1F8050088E01FED16
:1009F000EE0A10EE100A1649C1F8050080E0FFE784
:100A00001448007A28B11348007A20F002001149F6
:100A100008720F48D0F8010000EE100AB5EEC00AC7
:100A2000F1EE10FA06D01FEDFC0A10EE100A08498C
:100A3000C1F801000648D0F8050000EE100AB5EE36
:100A4000C00AF1EE10FA53E0683300209033002022
:100A50006012002084000020E83900200C000020F3
:100A60005A33002000750208494D504F52545F4ED2
:100A70004F5449434500000010A002083A1B0020D3
:100A8000257300004552524F523A206C6F67207018
:100A900072696E74657220696E6E6572206661752A
:100AA0006C740A0031303A32393A333900000000B0
:100AB0004170722031322032303138005630362DBC
:100AC0003030000031303030303030300000000045
:100AD0004D61696E426F61726400000054A00208AB
:100AE0009A9999999999B93F9A9999999999B9BF68
:100AF00006D09FEDB70A10EE100AB649C1F80500FE
:100B000000BFECE610B52DED0E8B8EB0B24800782C
:100B1000042803D00EB0BDEC0E8B10BDAF48807D15
:100B200000B9F7E7AD48007F48B9AB48007A28B173
:100B3000A948007A20F00200A7490872EAE7A8490C
:100B4000096888680AF08AFF8DED080ACDED090A68
:100B50008DED0A1ACDED0B1ADDED0B1A9DED0A1A7B
:100B6000DDED090A9DED080A04F0C0FBB0EE409AE5
:100B7000F0EE609A9B49A1F1080000F002FEB0EE91
:100B8000490AF0EE690A22F0FFF9B0EE40CAF0EE31
:100B900060CA9349096888680AF0AAFF8DED090ABE
:100BA000CDED0A0A8DED0B1A9DED0A0A10EE101A12
:100BB00008461DF007F841EC1D0B53EC1C2B1CF0F4
:100BC000E3FE41EC1B0BB0EE490AF0EE690A22F09D
:100BD0006BF9B0EE40CAF0EE60CA814909688868D6
:100BE0000AF086FF8DED060ACDED070A8DED081A95
:100BF0009DED060A10EE101A08461CF0E3FF41ECCA
:100C00001D0B53EC1C2B1CF0BFFE41EC180B53ECDE
:100C10001B2B1CF012FE41EC1A0B1DF017F871494A
:100C200008390861B0EE490AF0EE690A22F03CF991
:100C3000B0EE408AF0EE608A6949096888680AF077
:100C400057FF8DED090ACDED0A0A8DED0B1A9DEDCA
:100C50000A0A10EE101A08461CF0B4FF41EC1D0BF6
:100C600053EC182B1CF090FE41EC1B0BB0EE490A24
:100C7000F0EE690A22F088F9B0EE40DAF0EE60DAC0
:100C80005749096888680AF033FF8DED060ACDEDF3
:100C9000070A8DED081A9DED060AB1EE408A18EE9E
:100CA000100A1CF08FFF41EC1E0B53EC1D2B1CF0A7
:100CB0006BFE41EC1C0B53EC1B2B1CF0BEFD41ECFE
:100CC0001A0B1CF0C3FF47490839486144480068C3
:100CD000816803A80BF09DF803A807C809AB07C3F8
:100CE0003F480068816868460BF093F89DE807006C
:100CF00006AB07C3BDF92430BDF91A200CA90DA815
:100D00001AF06AFE04466CB132490D98C1F8010030
:100D10000C98C1F805003048007A40F002002E49D6
:100D200008722AE02C48007A28B12B48007A20F07B
:100D30000200294908722748D0F8010000EE100A85
:100D4000B5EEC00AF1EE10FA06D09FED210A10EEC2
:100D5000100A2049C1F801001E48D0F8050000EE35
:100D6000100AB5EEC00AF1EE10FA06D09FED180A8F
:100D700010EE100A1749C1F8050000BFCAE610B509
:100D800000230A220121032012F0BEF9164908604F
:100D9000062324220221032012F0B6F91349086029
:100DA0001348017813480FF02FF80446124A1349EC
:100DB0001CF02CFDDFED061A9FED051ADFED040A8D
:100DC0009FED030A4A2103480BF064FE10BD0000AA
:100DD000000000006012002084000020303300205A
:100DE00008000020703300201000002014000020B4
:100DF00000000020940700200000000851FE0008B9
:100E000070B504460D4600BF40210E4807F012FBA6
:100E10000028F9D0E1B20B4807F05CFA204670BD1B
:100E200010B500230A220121032012F06DF90649B2
:100E30000860062324220221032012F065F90349E9
:100E4000086010BD004800401C0000202000002069
:100E500000B58DB06148019061480C9000231A469E
:100E600001A96048006811F0E1F90DB000BD0FB4B0
:100E70002DE9F04788B00446DDF88081BDF84600D2
:100E8000103802284CDCBDF85150C4F87C570D22B4
:100E900011A904F26F701EF0F1F940F27F70005D4D
:100EA0008DF80000112204F26F7103A81EF0E6F91C
:100EB00003A80FC807F038FC00B34B4800888542F0
:100EC0001CD123F049FD824613F05DFB074623F059
:100ED00043FD81463120454B45A2394600904846A6
:100EE00013F0FDFA0646006844A182683046904738
:100EF00000221146204610F0D9FC00BF3B4801906B
:100F000040F27F70005D8DF80000112204F26F71D5
:100F100003A81EF0B3F903A80FC808F06EF919E092
:100F200023F01AFD824613F02EFB074623F014FD32
:100F300081463A202D4B2EA239460090484613F0A8
:100F4000CEFA06469DF84C20006833A183683046EF
:100F5000984700BF3848008885420CD140F2E460D1
:100F6000005940B140F2E4621159206815F032FF97
:100F700004203249087008B0BDE8F0075DF814FBA2
:100F800070B500230A220121032012F0BDF82C497C
:100F90000860062324220221032012F0B5F8294913
:100FA00008602948007800F00100002814D1264884
:100FB00021F000FA00280FD000250C2021F086F83F
:100FC00004460125002113F04FFA044600251F486E
:100FD00004601D48AFF3008070BD00001FBF0F000C
:100FE0003400002008000020227902085B75020806
:100FF0004552524F524C4F470000000053444B2083
:1010000076657273696F6E20646964206E6F7420F8
:101010006D617463680A000041434B206973206569
:101020007863657074696F6E2C2073657175656E79
:1010300063652025640A00001279020884000020FC
:10104000280000202C00002040060020440600203C
:1010500000F07F0200EE102AB8EEC00AF0EE400A5F
:1010600000EE101AB8EE400AB0EE401A00F080020E
:1010700062B1DFED451AB0EE410A00EEA10AF1EED1
:10108000401A9FED422A81EE820A7047DFED3E1A38
:10109000B0EE410A00EEA10A9FED3C2AC0EE021A12
:1010A000B0EE610AF1E770B586B004460D462068DF
:1010B000012802D10020206001E006B070BD207937
:1010C000FA2802D16079FB2800D0F6E7A07920B198
:1010D000012808D0AA283AD108E000221146284663
:1010E00010F0E4FB34E0FFF7B3FE31E0A07B00EB4F
:1010F00080004000616A4143607B00EB800040005B
:10110000626A4243207B00EB80004000636A4343F5
:10111000E07A00EB80004000666A7043CDE902325D
:1011200004910190A07A00EB800040000090607A6A
:1011300000EB80004300207A00EB80004200E07961
:1011400000EB80004100124820F0E6FF00E000BF05
:1011500000BF00BFB1E710B500230A220121032020
:1011600011F0D2FF0B49086006232422022103203C
:1011700011F0CAFF08490860084800210160816237
:10118000C16200BF10BD0000000080430000C842E3
:10119000A4A00208780000207C0000207412002027
:1011A000E248008820B1E1480088401EDF490880FD
:1011B000DF48008820B1DE480088401EDC490880F6
:1011C000704738B50020DB49086041F2883004F0F0
:1011D000E5F9D9490968086816F0A2F904460068DB
:1011E000816920468847002827D15120D34BD4A2BB
:1011F000D5A10090E24820F09FFF0546681C38B159
:10120000B5F5967F04D2DE49DEA020F085FF02E02E
:10121000DDA020F081FF012000F0ECFC00F0EFFCED
:10122000C548006830B1C44800680EF011FE05469C
:1012300020F040FF4FF0FF3038BDDBA020F06CFF06
:10124000DEA020F069FFEDA020F066FFF2A020F004
:1012500063FFFEA020F060FF1E2004F09FF9B64857
:10126000006810F07BFB4FF4FA7004F097F9B24875
:1012700000680FF0DBF8002827D16620AF4BB0A242
:10128000FA490090BE4820F057FF0546681C38B167
:10129000B5F5967F04D2BA49BAA020F03DFF02E02E
:1012A000B9A020F039FF012000F0A4FC00F0A7FC59
:1012B000A148006830B1A04800680EF0C9FD05469D
:1012C00020F0F8FE4FF0FF30B6E79B4800680FF0C3
:1012D000ADF8002836D0984800680FF0A7F8E44928
:1012E000096888422ED2944800680FF09FF8E149BF
:1012F000884227D07220914B91A2DC490090A048EF
:1013000020F01AFF0546681C38B1B5F5967F04D267
:101310009B499CA020F000FF02E09BA020F0FCFE77
:10132000012000F067FC00F06AFC8348006830B1DF
:10133000814800680EF08CFD054620F0BBFE4FF0A2
:10134000FF3079E74FF47A7004F028F90222142173
:10135000AFF2B31018F02DFA009001206CE730B511
:1013600089B0C549A1F165001AF021FFA0B1C348B9
:1013700090F82D11C83000F0F6FFBF4D543D002409
:1013800008E001A800EB840105F11F0050F82400DB
:101390000860641C082CF4DB09B030BD00B52DEDED
:1013A000028B8FB06248008818B90A206049088013
:1013B00003E00FB0BDEC028B00BD5F4800688168A0
:1013C00001A80AF048FC1C2201A908A81DF056FF3C
:1013D0009DED0D8AAA48007B00B9EAE7B1EE000A4C
:1013E000B4EEC08AF1EE10FA03DD0220A449886051
:1013F0000AE0B0EE080AB4EEC08AF1EE10FA03D2A9
:101400004FF0FF309E49886000BFD2E710B58CB026
:101410004949096888680AF049FD0B904648006808
:10142000816804A80AF0F5FC04A807C808AB07C344
:101430004149096888680AF0A1FD0790BDF92800B4
:10144000002801DC0CB010BD9DF82C00022800D053
:10145000F8E78C48007A002824D19DF81D0000F0A0
:10146000070002281DD100221146334800680EF003
:1014700023FE40F20F10844B84A288A100904048C4
:1014800020F05AFE0446601C38B1B4F5967F04D2B1
:101490003B493CA020F040FE02E03BA020F03CFE97
:1014A00000BFCFE77748007A30B12048008818B9EC
:1014B00001201E49088000E0C4E79DF81D0000F0EF
:1014C000070002281DD0002211461B4800680EF0BC
:1014D0009FFE40F21F106C4B6CA279A1009028482F
:1014E00020F02AFE0446601C38B1B4F5967F04D281
:1014F000234924A020F010FE02E023A020F00CFEDF
:1015000000BF7748C1680091007C8DF804000A484C
:10151000006811227249C46802A81DF0AFFE20467F
:1015200002A90EC90BF030FA00BF8BE79000002033
:1015300092000020AC82424208000020827502081E
:101540004552524F5200000025732025732C6C69C0
:101550006E652025643A20555341525420636F6DC7
:101560006D756E69636174696F6E206973206E6F4B
:101570007420776F726B696E672E0D0A0000000091
:101580003A1B0020257300004552524F523A206CFE
:101590006F67207072696E74657220696E6E657215
:1015A000206661756C740A000A5072657265717507
:1015B0006973697465733A0D0A000000312E205674
:1015C000656869636C6520636F6E6E6563746564DE
:1015D00020746F2074686520417373697374616E41
:1015E0007420616E642073696D756C6174696F6ECF
:1015F000206973204F4E0D0A00000000322E204259
:101600006174746572792066756C6C7920636861A9
:101610006E726765640D0A00332E20444A49474FB5
:101620002041707020636F6E6E656374656420285E
:10163000666F7220746865206669727374207469BD
:101640006D652072756E290D0A000000342E20474A
:10165000696D62616C206D6F756E7465642069667A
:10166000206E65656465640D0A00000014A102081F
:1016700098000020000A01032A330020FD310020D9
:10168000A0330020840000208B750208494D504F84
:1016900052545F4E4F5449434500000025732025A6
:1016A000732C6C696E652025643A206F6573206326
:1016B0006F6E74726F6C20636C6F7365640A0000E8
:1016C00025732025732C6C696E652025643A206F84
:1016D000657320736574436F6E74726F6C0A0000DB
:1016E0006012002000B585B0FE48007820B10328C4
:1016F0002FD0042841D139E00320FA490870FA4874
:1017000000684860FFF7A4FBF84800680EF08EFE02
:10171000F749884208D0F549096848680DF0EEFBA2
:101720004FF4FA7003F03AFFF04800681422816821
:1017300068460AF062FD322003F030FFEB49096889
:10174000EC4AC869EC490CF0E4FF322003F026FFB4
:1017500014E0E4484068E4490968401A41F28831DD
:10176000884202D30020DF49087007E0FFF74EFEF1
:10177000FFF714FEFFF7F3FD00E000BF00BF05B068
:1017800000BD7FB504460D46D849096888680AF04F
:1017900065F98DED000ACDED010A8DED021ACDED52
:1017A000031ADDED031A9DED021ADDED010A9DED30
:1017B000000A03F0B3FD84ED000BCC49096888688A
:1017C0000AF04CF98DED000ACDED010A8DED021AFB
:1017D000CDED031ADDED031A9DED021ADDED010AD0
:1017E0009DED000A03F0B2FD85ED000B7FBD30B525
:1017F0002DED0C8B99B00546BC480068816801A8A6
:101800000AF029FA1C2201A912A81DF037FDB748D9
:101810000068816805A80AF0FCFA05A807C80FABA4
:1018200007C3B249096888680AF062F98DED0C0AAD
:10183000CDED0D0A8DED0E1AAC49096888680AF0E5
:101840000DF98DED080ACDED090A8DED0A1ACDEDE1
:101850000B1A2C46A549096888680AF0FFF88DED37
:10186000040ACDED050A8DED061ACDED071ADDED62
:10187000071A9DED061ADDED050A9DED040A03F039
:101880004DFD84ED000B9949096888680AF0E6F877
:101890008DED040ACDED050A8DED061ACDED071A82
:1018A000DDED071A9DED061ADDED050A9DED040A32
:1018B00003F04CFD84ED020BBDF83E006083BDF8E3
:1018C0003C002083BDF84200A083BDF84000E083C7
:1018D000DDED0B1A9DED0A1ADDED090A9DED080AF2
:1018E00003F004FDB0EE40DAF0EE60DA21F04CFBDC
:1018F000B0EE40BAF0EE60BA9DED0D0A10EE101A8F
:1019000008461CF05FF941EC1C0B53EC1B2B1CF040
:101910003BF841EC190BDDED0B1A9DED0A1ADDEDDC
:10192000090A9DED080A03F0E1FCB0EE40DAF0EEA2
:1019300060DA21F0B9FAB0EE40BAF0EE60BA9DED8F
:101940000C0A10EE101A08461CF03CF941EC1C0B76
:1019500053EC1B2B1CF018F841EC1A0B53EC192B11
:101960001BF06BFF41EC180B1CF070F92061DDEDF2
:101970000B1A9DED0A1ADDED090A9DED080A03F028
:10198000B5FCB0EE40DAF0EE60DA21F08DFAB0EEA0
:1019900040BAF0EE60BA9DED0D0A10EE101A08463E
:1019A0001CF010F941EC1C0B53EC1B2B1BF0ECFF53
:1019B00041EC190BDDED0B1A9DED0A1ADDED090A5C
:1019C0009DED080A03F092FCB0EE40DAF0EE60DA2A
:1019D00021F0DAFAB0EE40BAF0EE60BA9DED0C0AF2
:1019E000B1EE400A10EE101A08461CF0EBF841EC7C
:1019F0001C0B53EC1B2B1BF0C7FF41EC1A0B53ECD9
:101A0000192B1BF01AFF41EC180B1CF01FF9606139
:101A10009DED170A84ED080A19B0BDEC0C8B30BDA2
:101A200010B52DED068B04463449088C1CF09EF849
:101A300041EC1A0B9FED320B53EC102B1BF0A4FF63
:101A400041EC190B1CF002F908EE900A2E4890EDBB
:101A5000040AB0EE408AB4EEE88AF1EE10FA02DD34
:101A6000B0EE688A25E0B1EE680AB4EEC08AF1EE05
:101A700010FA04D2B1EE680AB0EE408A19E0B5EE71
:101A8000C08AF1EE10FA0ADB38EE280A30EE080AB6
:101A9000F0EE080A80EE201AB0EE418A09E038EE36
:101AA000080A30EE680AF0EE080A80EE201AB0EE5E
:101AB000418A012C06D1B5EEC08AF1EE10FA01D2AE
:101AC000B0EE688A032C08D1B5EEC08AF1EE10FAA8
:101AD00003DDB1EE680AB0EE408AB0EE480ABDEC14
:101AE000068B10BD840000207C040020080000202C
:101AF000000A0103FD3100202D23000830330020AF
:101B00009A9999999999B93F6833002010B52DEDAC
:101B1000068B04464149088C1CF028F841EC1A0B4E
:101B20001FED090B53EC102B1BF02EFF41EC190B92
:101B30001CF08CF808EE100A394890ED050AF0EE1A
:101B4000408AF4EEC88AF1EE10FA02DDF0EE488A1F
:101B500025E0B1EE480AF4EEC08AF1EE10FA04D2A4
:101B6000B1EE480AF0EE408A19E0F5EEC08AF1EED7
:101B700010FA0ADB38EEA80A30EE080AF0EE080A7E
:101B800080EE201AF0EE418A09E038EEA80A30EE25
:101B9000480AF0EE080A80EE201AF0EE418A022C84
:101BA00006D1F5EEC08AF1EE10FA01D2F0EE488AC5
:101BB000042C08D1F5EEC08AF1EE10FA03DDB1EE87
:101BC000480AF0EE408AB0EE680ABDEC068B10BD04
:101BD00010B500230A220121032011F095FA1149C2
:101BE0000860062324220221032011F08DFA0E49F9
:101BF000086010BD00F0010181F313887047BFF346
:101C00004F8F0A48006800F4E06009490843001D4E
:101C100006490860BFF34F8F00BFFEE73033002056
:101C20006833002094000020980000200CED00E0B4
:101C30000000FA05F0B52DED088BA5B000244FF497
:101C4000FA661427FE480068142281680EA80AF07C
:101C5000D4FAE6E0FA49096888680AF027F924907E
:101C6000F7480068816807A809F0F5FF1C2207A95A
:101C70001DA81DF003FBF248006881680BA80AF05C
:101C8000C8F80BA807C81AAB07C3ED4909688868EC
:101C900009F02EFF8DED170ACDED180A8DED191AFA
:101CA000E7490968886809F0D9FE8DED130ACDED82
:101CB000140A8DED151ACDED161A2146E1A020F07B
:101CC0002BFAE4A020F028FA9DF89010E4A020F070
:101CD00023FA9DED210A10EE101A08461BF072FF40
:101CE00041EC180B8DED028B9DED1F0B8DED000B64
:101CF0009DED1D1BB0EE410AF0EE610A53EC102B76
:101D0000DCA020F009FABDF96E000090BDF96C303E
:101D1000BDF96A20BDF96810DFA020F0FDF99DED46
:101D2000190A10EE101A08461BF04CFF41EC180B74
:101D30009DED180A10EE101A08461BF043FF41EC07
:101D4000190B9DED170A10EE101A08461BF03AFF0A
:101D500041EC1A0B8DED028B8DED009B53EC1A2B91
:101D6000D8A020F0D9F99DED160A10EE101A0846F9
:101D70001BF028FF41EC180B9DED150A10EE101A10
:101D800008461BF01FFF41EC190B9DED140A10EEE5
:101D9000101A08461BF016FF41EC1A0B9DED130AB2
:101DA00010EE101A08461BF00DFF41EC1B0B8DEDD9
:101DB000048B8DED029B8DED00AB53EC1B2BCBA068
:101DC00020F0AAF99E4800688168684609F043FF40
:101DD0001C22694607A81DF051FA9DED0C0A10EE71
:101DE000101A08461BF0EEFE41EC180B53EC182BB2
:101DF000CCA020F091F99249096888680AF0BEF8F1
:101E00000D909DF8350000F007052946C9A020F087
:101E100083F9CEA020F080F932344FF4FA7003F049
:101E2000BDFBB442FFF616AFCBA020F075F9012040
:101E300025B0BDEC088BF0BD2DE9F04F2DED088BE2
:101E4000A1B0002020904FF47A601F9000201E90D7
:101E50000124C54800681D9001201C900026784987
:101E6000CDE9006409681DAB48681C9A1E990CF006
:101E7000BEFF05462DB9284621B0BDEC088BBDE854
:101E8000F08F6F49096848681E990DF04DF94FF4BD
:101E9000FA7003F083FB01201E900A24B248001D53
:101EA00000681B9001201C9000266549CDE9006464
:101EB00009681BAB48681C9A1E990CF098FF0546F0
:101EC0000DB92846D8E75E49096848681E990DF0A3
:101ED0002BF94FF4FA7003F061FB02201E903224BC
:101EE000A148083000681A9002201C90002654492E
:101EF000CDE9006409681AAB48681C9A1E990CF079
:101F000076FF05460DB92846B6E74D490968486889
:101F10001E990DF009F94FF4FA7003F03FFB03200E
:101F20001E90C8240020199001201C9000264449CE
:101F3000CDE90064096819AB48681C9A1E990CF039
:101F400056FF05460DB9284696E73D490968486899
:101F50001E990DF0E9F84FF4FA7003F01FFB4FF4EF
:101F6000FA5003F01BFB4FF47A674FF4FA78002025
:101F7000069033490968086815F0D2FA834600686C
:101F8000C1685846884710EB070A00BF2C4909680A
:101F9000486822F0DFFB18902948006841686846CD
:101FA00022F064FA1822694612A81DF067F9244845
:101FB0000068416803A822F0B7FA03A807C80FAB6E
:101FC00007C31F480068416802A822F067FC02A806
:101FD0000FC8CDE90D23CDE90B01194909684868FF
:101FE00022F0E2F98DED070ACDED080A8DED091A10
:101FF000CDED0A1A13A0209920F08EF815A020F03C
:102000008BF817A0189920F087F89DED160A10EEAE
:10201000101A08461BF0D6FD41EC180B8DED028B13
:102020009DED120B8DED000B9DED141BB0EE410AE2
:10203000F0EE610A53EC102B0EA020F06DF895E045
:1020400008000020436F756E746572203D20256482
:102050003A0A00002D2D2D2D2D2D2D0A00000000F7
:10206000466C6967687420537461747573203D20F1
:1020700025640A00506F736974696F6E20284C4C98
:102080004129203D20252E33662C20252E33662C19
:1020900020252E33660A0000524320436F6D6D6188
:1020A0006E64732028722F702F792F746872292024
:1020B0003D2025642C2025642C2025642C202564BB
:1020C0000A00000056656C6F636974792028767881
:1020D0002C76792C767A29203D20252E33662C20EB
:1020E000252E33662C20252E33660A004174746930
:1020F00074756465205175617465726E696F6E20C8
:1021000028772C782C792C7A29203D20252E3366AF
:102110002C20252E33662C20252E33662C20252EB0
:1021200033660A00686569676874203D2025660A81
:1021300000000000636F6E74726F6C4465766963B3
:102140006528645329203D2025640A002D2D2D2D5E
:102150002D2D2D0A0A000000446F6E6520707269F3
:102160006E74696E67210A00AC750208BDF9420001
:102170000090BDF94030BDF93E20BDF93C10AFF2F2
:10218000E8001FF0C9FF9DED0D0A10EE101A084679
:102190001BF018FD41EC180B9DED0C0A10EE101A07
:1021A00008461BF00FFD41EC190B9DED0B0A10EEDC
:1021B000101A08461BF006FD41EC1A0B8DED028B40
:1021C0008DED009B53EC1A2BAFF208101FF0A4FF0B
:1021D0009DED0A0A10EE101A08461BF0F3FC41ECC4
:1021E000180B9DED090A10EE101A08461BF0EAFCC8
:1021F00041EC190B9DED080A10EE101A08461BF071
:10220000E1FC41EC1A0B9DED070A10EE101A08468E
:102210001BF0D8FC41EC1B0B8DED048B8DED029B6C
:102220008DED00AB53EC1B2BAFF240101FF074FF91
:10223000AFF2E8001FF070FF4FF4FA7003F0AEF950
:1022400035490968086815F06BF981460068C1686E
:102250004846884710EB0800069006985045FFF462
:1022600095AEAFF20C101FF057FF2B490968486874
:1022700000210DF090F940F6B83003F08FF92649AF
:102280000968486801210DF086F940F6B83003F07E
:1022900085F921490968486802210DF07CF940F66A
:1022A000B83003F07BF91C490968486803210DF038
:1022B00072F940F6B83003F071F90120DCE570B531
:1022C00000230A220121032010F01EFF1349086099
:1022D000062324220221032010F016FF1049086073
:1022E0001048007800F00100002814D10D4820F0BB
:1022F00061F800280FD000250C201FF0E7FE0446EF
:102300000125002112F0B0F80446002506480460BB
:102310000448AFF3008070BD08000020A00000203A
:10232000A400002040060020440600200FB42DE940
:10233000F0478146589D2E4606F164070DF131089D
:10234000BDF82600123884B2142C08DB642C06DC9D
:102350002246414638461CF091FF86F82C41BDE8E4
:10236000F0075DF814FB70B504460D46D1490968C5
:102370002A46C86921460CF093F90020CE4908602E
:10238000CE480068CE49086070BD0FB42DE9F04317
:1023900089B00446609FBDF846001038022865D811
:1023A0000D2211A904A81CF069FF20460EF03EF88A
:1023B000C449884204D09DF85100CDF81D0003E0C7
:1023C000BDF85100CDF81D009DF820008DF80000EB
:1023D00004A80FC806F0A8F948B1BB4801909DF8C1
:1023E00020008DF8000004A80FC806F006FF9DF835
:1023F00044008DF808009DF845008DF809001298FA
:102400008078072809D00222B04902A81BF0D5F82D
:1024100088B11298807801280DD10520ADF80C0004
:10242000BDF81D0080B2ADF80E00042203A9E069DA
:102430000CF036F919E012988078082808D00222AA
:10244000A24902A81BF0B9F878B11298807860B957
:102450000620ADF80C00BDF81D0080B2ADF80E00EE
:10246000042203A9E0690CF01BF919E022F074FAC8
:10247000814612F088F8064622F06EFA8046D9208E
:10248000914B93A231460090404612F028F8054641
:102490009DF84C20006891A183682846984700BFAA
:1024A00009B0BDE8F0035DF814FB0FB42DE9F04F5F
:1024B00087B00546609F91480088CDF815004FF021
:1024C000010828460DF0E7FD8146BDF846001038AA
:1024D000022809D8BDF85100CDF815000D2211A928
:1024E00002A81CF0CBFE19E022F036FA834612F067
:1024F0004AF8064622F030FA82468A20804B74A2BF
:1025000031460090504611F0EAFF04469DF84C20F9
:10251000006872A183682046984700BFDDF8150067
:1025200078490988884206D10022AFF28101284605
:102530000DF06EFE25E0DDF815007349098888422C
:1025400006D10022AFF29D0128460DF0B5FD18E03E
:1025500012988078012803D10220ADF8040005E02C
:102560001298807810B90320ADF80400BDF815006A
:1025700080B2ADF80600042201A9E8690CF090F8D9
:1025800000BF07B0BDE8F00F5DF814FB0FB470B5E5
:102590000646549DBDF82140022C06D0032C0CD0D9
:1025A000052C12D0062C44D129E00022AFF20511EF
:1025B000404800680DF02CFE3CE00022AFF21511FF
:1025C0003C4800680DF078FD34E03A4800680DF0B2
:1025D0002DFF3C49884209D0364909680023AFF2F3
:1025E0005522C868072109F004FF07E0314909684E
:1025F0000022C868AFF26D210AF07CF81AE02D487D
:1026000000680DF013FF2F49884209D02949096855
:102610000023AFF28922C868082109F0EAFE07E02A
:10262000244909680022C868AFF2A1210AF0C2F863
:1026300000E000BF00BF70BC5DF814FB7FB505462D
:1026400054AC1C4800688168684609F008FC9DE8A5
:102650000F0084E80F007FBD70B500230A2201211E
:10266000032010F051FD294908600623242202218D
:10267000032010F049FD264908602648007800F044
:102680000100002814D123481FF094FE00280FD029
:1026900000250C201FF01AFD04460125002111F031
:1026A000E3FE044600251C4804601A48AFF300808E
:1026B00070BD000008000020A00243427C040020FE
:1026C00080040020000A0103D5750208A9770208DA
:1026D0004552524F524C4F470000000041434B209F
:1026E000697320657863657074696F6E2C207365FB
:1026F0007175656E63652025640A00009078020894
:10270000B67502082A7902082C790208AC0000206C
:10271000B000002040060020440600202DE9FE43C2
:10272000814601260A24FD480068029002274FF0E6
:102730000008FB49CDE90084096802AB3A464868C5
:1027400031460CF054FB054615B92846BDE8FE831A
:10275000F3490968486831460CF0E6FC4FF4FA503A
:1027600002F01CFF0120F1E730B52DED028B85B0A2
:102770000546284624F067F8044620E0641C2169D9
:1027800008461BF01FFA41EC180B8DED028BA06878
:10279000E168CDE9000120686168641E41EC100B1E
:1027A00053EC102BDFA01FF0B7FCDD490968096A64
:1027B00000231A464868214611F05AFB5A3428462D
:1027C00024F03DF8A042D9D105B0BDEC028B30BD5C
:1027D0009FEDDE0A10EE101A40F8151F00218180CF
:1027E000C1800172417464214182017D21F00F0199
:1027F0000175017D21F0F00101751538002108E017
:10280000002300F12A025354103202EB41021380DC
:10281000491C1029F4DB70472DE9F0472DED0C8B96
:1028200098B006468846B0EE408AF0EE608A1546BB
:10283000344617A823F0AFFC07463946204623F05C
:10284000A9FC0446002020606060A06000BF26460E
:1028500028461BF07AF941EC1A0B53EC1A2B9FED2A
:10286000BC0B51EC100B1BF001F941EC190B0020D3
:1028700088F800004146304623F0E9FF012476E065
:10288000B146A4F1010A484623F0DDFFCAEB0A1164
:1028900001EB410100EB410007466846FFF798FF56
:1028A000E0B28DF8000020461BF04FF953EC192BD5
:1028B0001BF06AF841EC1C0BB0EE4C0AF0EE6C0A0F
:1028C00020F0F2FAB0EE40BAF0EE60BA53EC182BFA
:1028D00051EC1B0B1BF058F841EC1A0B57F8010F89
:1028E000796841EC100B53EC102B51EC1A0B1AF0D9
:1028F000A4FFCDF80100CDF8051020461BF025F906
:1029000053EC192B1BF040F841EC1C0BB0EE4C0AB9
:10291000F0EE6C0A20F038FBB0EE40BAF0EE60BA90
:1029200053EC182B51EC1B0B1BF02EF841EC1A0B3F
:10293000B868F96841EC100B53EC102B51EC1A0BF2
:102940001AF07BFFCDF80900CDF80D1038697F1E15
:1029500000EE100AF7EE000A30EE200A10EE100A20
:10296000CDF811006946304623F071FF641CAC427B
:1029700086DB88F800504146304623F068FF18B0E7
:10298000BDEC0C8BBDE8F08730B52DED068BABB000
:1029900005460C46B0EE409AF0EE609AB0EE418AE1
:1029A0004FF4FA5002F0FAFD14A8FFF711FF5C484B
:1029B00000680DF03BFD6849884232D058480068F5
:1029C000416801A821F052FD182201A90EA81CF0AF
:1029D00055FCDDE91001CDF85100CDF85510DDE9C9
:1029E0000E01CDF85900CDF85D1018EE100ACDF8A3
:1029F000610018EE100A1BF0E5F841EC1A0B8DEDA2
:102A000002AB9DED0E0B8DED000B9DED101BB0EE9E
:102A1000410AF0EE610A53EC102B50A01FF07CFB32
:102A200031E03F4800688168684609F014F91C22CB
:102A3000694607A81CF022FCDDE90701CDF851002A
:102A4000CDF85510DDE90901CDF85900CDF85D103C
:102A500018EE100ACDF8610018EE100A1BF0B2F85B
:102A600041EC1A0B8DED02AB9DED090B8DED000BCA
:102A70009DED071BB0EE410AF0EE610A53EC102BFE
:102A800036A01FF049FB2246B0EE490AF0EE690A73
:102A900014A92846FFF7C0FE2BB0BDEC068B30BD55
:102AA000B2EE040A10EE101AC01C40F8021CB1EE7F
:102AB000040A10EE101AC0F80210002181710121E1
:102AC000C171002101724172012181720021C17224
:102AD0009FED2C0B52EC101BC16002619FED290B86
:102AE00052EC101B416182619FED180A10EE101A22
:102AF000C161C01E704710B52DED048B96B0044621
:102B0000074800680DF092FC1349884246D00448FB
:102B10000068FFF703FE00B938E03FE000760208E6
:102B200008000020576179706F696E7420637265C8
:102B30006174656420617420284C4C41293A202539
:102B40006620092566200925660A2000000000008D
:102B5000182D4454FB211940000A01035761797074
:102B60006F696E742063726561746564206174209E
:102B7000284C4C41293A2025662009256620092544
:102B8000660A00000000000000000000E1A01FF045
:102B9000C3FA002016B0BDEC048B10BD09A8FFF7E6
:102BA0007FFF601CC0B28DF824009FEDE29BB2EE67
:102BB000048A09A80090E148006801230022016A04
:102BC00001A80BF0FFFA4FF4FA7002F0E7FCDB49C2
:102BD0000968086A0BF024FCD9A01FF09DFAB0EE3A
:102BE000481AB0EE490AF0EE690A214606A8FFF736
:102BF000CBFEDCA01FF090FA06A8FFF7B5FDDFA022
:102C00001FF08AFACD490968096A4868CB49096802
:102C1000096A4968096800228B68114698474FF491
:102C2000FA7002F0BBFCDBA01FF076FAC34909681A
:102C3000486801210CF0AFFC40F6B83002F0AEFC61
:102C400006A823F02BFE0120A4E710B52DED068B7E
:102C500096B00446B94800680DF0E8FBD4498842B4
:102C60000CD0B6480068FFF759FD38B9A9A01FF08D
:102C700053FA002016B0BDEC068B10BD002000906A
:102C8000AE48006801231A46016A02A80BF09AFABE
:102C9000AA490968086A0BF0C3FBA84800680DF050
:102CA000C5FBC349884226D0A4480068416801A8F2
:102CB00021F0DCFB182201A910A81CF0DFFA204645
:102CC0001AF043FF41EC180B9DED122BB0EE421AA7
:102CD000F0EE621A9DED102BB0EE420AF0EE620AA1
:102CE00096490968096AB0EE482AF0EE682A8868B1
:102CF0000AF081FE25E0914800688168684608F086
:102D0000AAFF1C22694609A81CF0B8FA20461AF04E
:102D10001CFF41EC180B9DED092BB0EE421AF0EEB2
:102D2000621A9DED0B2BB0EE420AF0EE620A834967
:102D30000968096AB0EE482AF0EE682A88680AF045
:102D40005AFE00F09DF99BA01FF0E6F97B49096847
:102D5000096A886879490968096A896809680022E6
:102D60008B68114698474FF4FA7002F017FC4FF445
:102D70007A6002F013FC9AA01FF0CEF96F4909683F
:102D8000096A88686D490968096A896809680022C2
:102D90008B691146984741F2883002F0FFFB94A0FE
:102DA0001FF0BAF965490968096A886863490968C2
:102DB000096A8968096800220B6A114698474FF42E
:102DC0007A6002F0EBFB20461AF0BFFE41EC190BD3
:102DD0009FED890B53EC102B1AF0D6FD41EC180B2C
:102DE00053EC182B86A01FF097F920461AF0ADFE81
:102DF00041EC1A0B9FED800B53EC102B1AF0C4FD25
:102E000041EC190B1AF022FF08EE100A4B49096831
:102E1000096A002288681146B0EE480A0AF09EFB53
:102E200042F2107002F0BAFB80A01FF075F9012089
:102E30008DF81C00B1EE040A10EE100ACDF81D004A
:102E40003E490968096A00231A46886807A90AF0FA
:102E5000EBFA42F2107002F0A1FB44F6206002F09F
:102E60009DFB7FA01FF058F934490968096A8868FA
:102E700032490968096A8968096800220B691146A4
:102E800098474FF47A7002F089FB77A01FF044F95D
:102E90002A4800680DF0CAFA4549884209D02749F6
:102EA0000968486801210CF076FB40F6B83002F062
:102EB00075FB00F0ACFADDE670B500230A220121B3
:102EC000032010F021F96A49086006232422022118
:102ED000032010F019F9674908606748007800F08E
:102EE0000100002814D164481FF064FA00280FD0B4
:102EF00000250C201FF0EAF804460125002111F0FE
:102F0000B3FA044600255D4804605B48AFF30080D7
:102F100070BD00004661696C656420746F20736544
:102F20007420757020537562736372697074696F71
:102F30006E210A008DEDB5A0F7C6B03E0800002056
:102F4000496E697469616C697A696E672057617945
:102F5000706F696E74204D697373696F6E2E2E0ADF
:102F6000000000004372656174696E6720576179E3
:102F7000706F696E74732E2E0A00000055706C6FAE
:102F80006164696E6720576179706F696E74732E22
:102F90002E0A00005374617274696E67205761795C
:102FA000706F696E74204D697373696F6E2E0A00BD
:102FB000000A010353746172742077697468206495
:102FC000656661756C7420726F746174696F6E20D0
:102FD000726174653A203135206465672F73000093
:102FE000506175736520666F722035730A000000AA
:102FF000526573756D650A00000000000000F83F1F
:103000005570646174652072616469757320746FB2
:1030100020312E35783A206E6577207261646975AB
:1030200073203D2025302E33660A00005570646100
:10303000746520686F74706F696E7420726F74614C
:1030400074696F6E20726174653A206E65772072C4
:10305000617465203D2035206465672F730A000088
:1030600053746F700A0000004C616E640A00000027
:10307000B8000020BC0000204006002044060020CC
:103080002DE9F04F2DED048B9BB0FA4800680DF050
:10309000CDF9F94988422AD0002019904FF00A0A48
:1030A000F6480068159002201490002013901398A1
:1030B000F049CDE9000A096815AB4868149A1999D6
:1030C0000BF095FE8346BBF1000F05D158461BB0AF
:1030D000BDEC048BBDE8F08FE64909684868199992
:1030E0000CF022F84FF4FA7002F058FA00BFE149F0
:1030F00009680022C868114609F09FFB4FF4FA7076
:1031000002F04CFA43F698244FF4FA750027002099
:10311000189017901690D7490968086814F000FABB
:1031200080460068C16840468847061900BF4FF4D2
:10313000FA6002F033FACF4800680DF077F9CE4913
:10314000884210D0CB490968486821F003FB012868
:1031500020D1C8490968486821F04EFB292819D1B7
:103160000120189023E0C3490968886808F09EFE92
:1031700014909DF85000022809D0BE49096888685B
:1031800008F094FE15909DF85400032802D1012008
:1031900018900CE0B7490968086814F0C1F9824634
:1031A0000068C168504688474719B742BFD300BF7F
:1031B0001898A0B9B2A01EF0AFFFAE4800680DF09D
:1031C00035F9AD49884208D0AA4909684868199973
:1031D0000CF0E1F9322002F0E1F9002077E7B3A02A
:1031E0001EF09AFFA3490968086814F099F981460E
:1031F0000068C16848468847061900BF4FF4FA6066
:1032000002F0CCF99B4800680DF010F99A49884209
:1032100017D098490968486821F09CFA02281DD106
:1032200094490968486821F0E7FA0A2806D09149CC
:103230000968486821F0E0FA0B280FD101201790A7
:1032400019E08C490968886808F030FE15909DF8EF
:103250005400032802D1012017900CE08549096829
:10326000086814F05DF982460068C16850468847D6
:103270004719B742C2D300BF1798A8B991481EF0AA
:103280004BFF7C4800680DF0D1F87B49884209D09B
:1032900078490968486819990CF07DF94FF4FA707B
:1032A00002F07CF9002012E787A01EF035FF71497B
:1032B0000968086814F034F91A900068C1681A980F
:1032C000884706196B4800680DF0B0F86A498842D3
:1032D00023D000BF4FF4FA6002F060F96549096835
:1032E000486821F089FA0A2806D1624909684868C5
:1032F00021F082FA0B2802D0012016900CE05D49E3
:103300000968086814F00CF982460068C1685046E4
:1033100088474719B742DDD300BF564800680DF013
:1033200085F85549884220D052490968486821F0FB
:1033300063FA062806D14F490968486821F05CFA0B
:10334000012803D066A01EF0E7FE4DE06A481EF09B
:10335000E3FE48490968486819990CF01CF94FF4D4
:10336000FA7002F01BF90020B1E64248006881685B
:1033700008A808F070FC00BF40F6B83002F00EF963
:103380003C480068816801A808F065FC1C2201A97E
:103390000FA81BF073FFDDED130A9DED0C1A30EE44
:1033A000C10AB0EEC08A00BF9DED130A8DED0C0A74
:1033B00018EE100A1AF006FC41EC190B9FED4F0BAA
:1033C00053EC102B1AF02AFCD6D99DED130A10EEFF
:1033D000101A08461AF0F6FB41EC190B53EC192BA6
:1033E00048A01EF099FE00BF224800680DF01EF8AC
:1033F0002149884209D01F490968486819990CF089
:10340000CAF840F6B83002F0C9F801205FE62DE9AD
:10341000F04F93B047F230544FF4FA754FF0000A72
:1034200000201290119010900F900A200E901148D9
:1034300000680CF0FBFF104988427FD00F48001D48
:1034400000680D9002200C904FF0000B0E9880B297
:103450000849CDE900B009680DAB48680C9A0F998E
:103460000BF0C5FC8146B9F1000F5CD1484613B0A2
:10347000BDE8F08F08000020000A0103047602086E
:1034800054616B656F6666206661696C65642E20A9
:103490004D6F746F7273206661696C656420746F20
:1034A000207374617274210A000000000A5375636E
:1034B0006365737366756C2074616B656F666621F6
:1034C0000A00000010A2020856656869636C652056
:1034D000617363656E64696E672E2E2E0A000000AC
:1034E00056656869636C6520697320686F766572DC
:1034F000696E670A0000000060A102083BDF4F8D83
:10350000976E823F416972637261667420686F765C
:103510006572696E6720617420252E35666D2120E5
:103520000A0000000AE0FE49096848680F990BF09C
:10353000FBFD4FF4FA7002F031F800BFF84909685A
:103540000022C868114609F0FEF94FF4FA7002F043
:1035500025F8F3490968086813F0E2FF0746006898
:10356000C16838468847061900BF4FF4FA6002F078
:1035700015F8EB4800680CF059FFEA49884209D079
:10358000E7490968486821F037F90C280FD1012074
:1035900012901AE0E2490968886808F087FC0D90EB
:1035A0009DF83400042802D0012012900DE0DC497F
:1035B0000968086813F0B4FF81460068C16848468E
:1035C000884710EB050AB245CFD300BF1298B8B9AF
:1035D000D5A01EF0A1FDD24800680CF027FFD1490C
:1035E000884209D0CE49096848680F990BF0D3FF8B
:1035F0004FF4FA7001F0D2FF002013B0BDE8F08F55
:10360000D5A01EF089FDC6490968086813F088FF37
:1036100080460068C16840468847061900BF4FF4DD
:10362000FA6001F0BBFFBE4800680CF0FFFEBD4928
:1036300088421ED0BA490968486821F0DDF80C2894
:1036400046D0B7490968486821F084F802283FD07D
:10365000B3490968486821F0CFF8062806D1B04977
:103660000968486821F0C8F8012831D0012011907C
:103670003CE0AB490968886808F018FC0D909DF89B
:103680003400052803D1642001F088FF20E000BF4A
:103690004FF4FA6001F082FFA14800688168684633
:1036A00008F0D9FA1C22694607A81BF0E7FD9DED3A
:1036B0000B0AB5EEC00AF1EE10FAE9D19DED0B0A46
:1036C000B5EEC00AF1EE10FA01D10120119000BF51
:1036D00093490968086813F023FF81460068C168B0
:1036E0004846884710EB050AB24598D300BF1198A9
:1036F00018B19EA01EF010FD15E0A2481EF00CFDB2
:10370000874800680CF092FE8649884209D08449B7
:10371000096848680F990BF03EFF4FF4FA7001F00A
:103720003DFF002069E77E4800680CF07FFE7D4980
:10373000884209D07A49096848680F990BF02BFF35
:1037400040F6B83001F02AFF012056E72DE9F05F7E
:103750002DED0A8B83460E4614461D4670480068C0
:103760000CF064FE6F49884250D02746A9464D466A
:10377000D9F80000D9F8041041EC100B3C46386829
:10378000796853EC102B1AF0F9F841EC180BD9F8C2
:103790000800D9F80C1041EC100BB868F96853EC2C
:1037A000102B1AF0EBF841EC190B9FED770B53EC53
:1037B000102B51EC190B1AF0E7F81AF047FA3060A9
:1037C000B868F96841EC100B1FF06EFBB0EE40BA20
:1037D000F0EE60BA9FED6C0B53EC102B51EC180B14
:1037E0001AF0D2F853EC1B2B1AF0CEF81AF02EFA7E
:1037F0007060386900EE100AD9F8100000EE900AE7
:1038000030EE600A10EE100AB06056E0A046AA46FC
:103810005546DAF80800DAF80C1041EC100B444673
:10382000D8F80800D8F80C1053EC102B1AF0A6F8B2
:1038300041EC180BDAF80000DAF8041041EC100B38
:10384000D8F80000D8F8041053EC102B1AF096F8B2
:1038500041EC190B9FED4C0B53EC102B51EC190B59
:103860001AF092F81AF0F2F93060D8F80000D8F89F
:10387000041041EC100B1FF017FBB0EE40BAF0EE55
:1038800060BA9FED410B53EC102B51EC180B1AF062
:103890007BF853EC1B2B1AF077F81AF0D7F970600D
:1038A000D8F8100000EE100ADAF8100000EE900AC6
:1038B00030EE600A10EE100AB060BDEC0A8BBDE875
:1038C000F09F30B52DED108B85B004462546A868D5
:1038D00000EE100A20EE000A10EE101A08461AF048
:1038E00071F941EC190BE86800EE100A20EE000AAD
:1038F00010EE101A08461AF065F941EC1F0B53EC54
:10390000192B19F09AFF41EC1E0B9FED210B53EC84
:10391000102B1AF039F841EC1D0B9FED1F0B3FE007
:1039200008000020000A01034C616E64696E672084
:103930006661696C65642E204169726372616674A8
:10394000206973207374696C6C20696E20746865DB
:10395000206169722E0A000056656869636C6520F3
:103960006C616E64696E672E2E2E0A005375636358
:1039700065737366756C206C616E64696E67210A8D
:1039800000000000B8A1020800000040A654584101
:1039900000000000000000C0000000000000F03F38
:1039A00053EC102B19F049FF41EC1A0B686800EE3C
:1039B000100AA86800EE900A20EE201A286800EE8F
:1039C000100AE86800EE900A00EE201A11EE101AB4
:1039D00008461AF0F7F841EC1D0B9FEDFE0B53EC77
:1039E000102B19F0D1FF41EC1B0B686800EE100A98
:1039F000E86800EE900A20EE201A286800EE100A0F
:103A0000A86800EE900A00EE601A11EE101A08463F
:103A10001AF0D8F841EC1D0B1FED230B53EC102BC3
:103A200019F0B2FF41EC180BA86800EE100AE86824
:103A300000EE900A20EE201A286800EE100A68684E
:103A400000EE900A00EE201A11EE101A08461AF045
:103A5000B9F841EC1D0B9FEDDF0B53EC102B19F067
:103A600093FF41EC1C0B686800EE100A20EE000A80
:103A700010EE101A08461AF0A5F841EC1F0B53EC93
:103A8000192B19F0DAFE41EC1E0B1FED3F0B53EC26
:103A9000102B19F079FF41EC1D0B1FED410B53EC7E
:103AA000102B19F0CAFECDE900011FED450B53ECB8
:103AB000102B51EC180B1AF0B1F802D21FED4A0B83
:103AC00003E0B0EE480AF0EE680AB0EE408AF0EE8D
:103AD000608A9FEDC20B53EC102B51EC180B1AF0BF
:103AE00085F802D29FEDBD0B03E0B0EE480AF0EE80
:103AF000680AB0EE408AF0EE608AB0EE480AF0EE56
:103B0000680A1EF025FDB0EE40DAF0EE60DA51EC06
:103B10001D0B1AF09BF802909DED001BB0EE4C0AB5
:103B2000F0EE6C0A1FF0C8F8B0EE40DAF0EE60DAA2
:103B300051EC1D0B1AF08AF80390B0EE4A1AF0EE21
:103B40006A1AB0EE4B0AF0EE6B0A1FF0B5F8B0EE51
:103B500040DAF0EE60DA51EC1D0B1AF077F80490C1
:103B60009DED020ADDED030A9DED041A05B0BDECE2
:103B7000108B30BD1FB5044605208DF800008DF870
:103B800001008DF802008DF803008DF80400032079
:103B90008DF8050005208DF806008DF807008DF8DA
:103BA00008008DF809008DF80A008DF80B008DF8DB
:103BB0000C008DF80D0000231A466946A06808F035
:103BC00028FA1FBD00B52DED060BCBB085484990F6
:103BD000322048904FF47A71489891FBF0F047906A
:103BE000479800EB800040004690322147984843B8
:103BF000459000204490322043907B4800680CF0B0
:103C000015FC7A4988422ED0794800680890022035
:103C1000079000200690439880B20699CDE90010E5
:103C200071480068406808AB0490079A44990BF00B
:103C3000DEF80590059810B9059851B000BD6A48A6
:103C400000684068049044990BF06EFA4FF4FA70E3
:103C500001F0A4FC64480068FFF78CFF4FF4FA50B1
:103C600001F09CFC00BF604800680CF0DFFB5F497E
:103C700088422BD05C4800680CF0DDFB30BB5A4812
:103C8000006840680146029003A820F0EFFB18226C
:103C900003A93DA81BF0F2FA18223DA937A81BF092
:103CA000EDFA37AB3DAA26A94F480068FFF74EFD55
:103CB0004D48006880680146019002A807F0CBFFDC
:103CC0001C2202A930A81BF0D9FA18E04648006867
:103CD00080680146019002A807F0BDFF1C2202A9DE
:103CE00030A81BF0CBFA1C2230A929A81BF0C6FA79
:103CF00029AB30AA26A93C480068FFF727FDDDED77
:103D0000260A9DED4B0A30EE600A8DED080A0898F0
:103D100019F058FFCDE92401DDED270A9DED4C0A8D
:103D200030EE600A8DED080A089819F04BFFCDE9D6
:103D300022019DED280AF1EE400A9DED4D0A30EE7C
:103D4000600A8DED080A089819F03CFFCDE92001C2
:103D50004E9819F037FF9FED270B53EC102BCDE950
:103D600006019DED060B51EC100B19F00DFECDE98F
:103D70001E01509819F026FF9FED1E0B53EC102BDF
:103D8000CDE906019DED060B51EC100B19F0FCFD81
:103D9000CDE91C01144800680CF048FB1349884227
:103DA0003ED0114800684068089020F0FDFA8DED83
:103DB000180ACDED190A8DED1A1ACDED1B1A18A8A7
:103DC000FFF77FFD8DED060ACDED070A8DED081A90
:103DD000089813E000000000000000400000000010
:103DE0000000F0BFA086010008000020000A0103C7
:103DF0000C76020811DD52A246DF913F039019F0C4
:103E0000E1FE1FED040B53EC102BCDE904019DEDF9
:103E1000040B51EC100B19F029FECDE9120128E03A
:103E2000FE4800688068089007F018FE8DED140ABF
:103E3000CDED150A8DED161ACDED171A14A8FFF762
:103E400040FD8DED060ACDED070A8DED081A0898A4
:103E5000039019F0B7FE1FED190B53EC102BCDE9B1
:103E600004019DED040B51EC100B19F0FFFDCDE9A1
:103E700012010020119010900F900E9002200D90D2
:103E80009FEDE70A8DED090AE44800680CF0CEFAD0
:103E9000E449884203D19FEDE40A8DED090A9DEDC6
:103EA0004B0AB5EEC00AF1EE10FA14DDDDED4B0A57
:103EB0009DED0D0AB8EEC00AF4EEC00AF1EE10FA5C
:103EC00002D29DED4B0A03E09DED0D0AB8EEC00A4B
:103ED0008DED0C0A23E09DED4B0AB5EEC00AF1EE24
:103EE00010FA18D20D98404200EE100AF8EEC00AFF
:103EF0009DED4B0AF4EEC00AF1EE10FA02D29DEDF0
:103F00004B0A05E00D98404200EE100AB8EEC00AD8
:103F10008DED0C0A03E09FEDC50A8DED0C0A9DEDB9
:103F20004C0AB5EEC00AF1EE10FA14DDDDED4C0AD4
:103F30009DED0D0AB8EEC00AF4EEC00AF1EE10FADB
:103F400002D29DED4C0A03E09DED0D0AB8EEC00AC9
:103F50008DED0B0A23E09DED4C0AB5EEC00AF1EEA3
:103F600010FA18D20D98404200EE100AF8EEC00A7E
:103F70009DED4C0AF4EEC00AF1EE10FA02D29DED6E
:103F80004C0A05E00D98404200EE100AB8EEC00A57
:103F90008DED0B0A03E09FEDA50A8DED0B0A9F48FE
:103FA00000680CF043FA9F49884208D0DDED350ADD
:103FB0009DED4D0A30EE800A8DED0A0A07E0DDED39
:103FC000350A9DED4D0A30EE800A8DED0A0AE0E1DA
:103FD0001FED780B53EC102B9DED1E0B51EC100BCD
:103FE00019F044FDCDE906019DED060B51EC100BD7
:103FF00019F02CFE089089480068C0680790DDED34
:10400000081A9DED0A1ADDED0B0A9DED0C0A08F069
:1040100052FD479880B2089001F0C0FA1199479874
:10402000084411907D4800680CF000FA7D498842F0
:1040300045D07A4800680CF0FEF9E0BB774800688C
:104040004068089020F0B0F98DED180ACDED190AFE
:104050008DED1A1ACDED1B1A18A8FFF732FC8DED65
:10406000060ACDED070A8DED081A0898059019F09B
:10407000A9FDCDE912016948006840680146029037
:1040800003A820F0F3F9182203A93DA81BF0F6F8C5
:1040900037AB3DAA26A961480068FFF757FB5F4888
:1040A000006880680146019002A807F0D4FD1C2238
:1040B00002A930A800E002E01BF0E0F830E0574829
:1040C00000688068089007F0C9FC8DED140ACDEDFA
:1040D000150A8DED161ACDED171A14A8FFF7F1FB8E
:1040E0008DED060ACDED070A8DED081A08980590AA
:1040F00019F068FDCDE91201484800688068014662
:10410000019002A807F0A7FD1C2202A930A81BF00D
:10411000B5F829AB30AA26A940480068FFF716FB7E
:10412000DDED260A9DED4B0A30EE600A8DED080AA2
:10413000089819F047FDCDE92401DDED270A9DED32
:104140004C0A30EE600A8DED080A089819F03AFD25
:10415000CDE922019DED280AF1EE400A9DED4D0AC0
:1041600030EE600A8DED080A089819F02BFDCDE9B4
:1041700020010D9819F0E9FCCDE906019DED240B15
:104180001DF084FF8DED040B9DED060B53EC102B01
:104190009DED040B51EC100B19F028FD06D29DED9E
:1041A000240B51EC100B19F051FD0C900D9819F0E7
:1041B000CCFCCDE906019DED220B1DF067FF8DEDD6
:1041C000040B9DED060B53EC102B9DED040B51ECF5
:1041D000100B19F00BFD06D29DED220B51EC100BCC
:1041E00019F034FD0B900D4800680CF01FF90D49D3
:1041F000884258D14F9819F0E5FCCDE906019DEDB4
:10420000240B1DF043FF8DED040B9DED060B53ECCD
:10421000102B9DED040B51EC100B09E00800002061
:104220008FC2F53D000A01039A99993F00000000F2
:1042300019F0DCFC37D24F9819F0C4FCCDE9060127
:104240009DED220B1DF022FF8DED040B9DED060B65
:1042500053EC102B9DED040B51EC100B19F0C6FC28
:1042600021D29DED1E0B53EC102B9DED120B51EC4A
:10427000100B19F083FBCDE904019DED040B1DF03B
:1042800005FF8DED060B9DED1C0B53EC102B9DEDEA
:10429000060B51EC100B19F0A9FC04D247991098A9
:1042A0000844109069E04F9819F08CFCCDE90601A4
:1042B0009DED240B1DF0EAFE8DED040B9DED060B2C
:1042C00053EC102B9DED040B51EC100B19F08EFCF0
:1042D0004DD24F9819F076FCCDE906019DED220BE9
:1042E0001DF0D4FE8DED040B9DED060B53EC102B51
:1042F0009DED040B51EC100B19F078FC37D20998A6
:1043000019F060FCCDE906019DED200B1DF0BEFE0D
:104310008DED040B9DED060B53EC102B9DED040B66
:1043200051EC100B19F062FC21D29DED1E0B53ECE9
:10433000102B9DED120B51EC100B19F01FFBCDE96A
:1043400004019DED040B1DF0A1FE8DED060B9DED0E
:104350001C0B53EC102B9DED060B51EC100B19F0C0
:1043600045FC04D2479910980844109005E0109835
:1043700018B147990F9808440F9046990F988842B2
:1043800002DD002010900F9045991098884200DBC4
:1043900004E0499911988842FFF61AAE00BF5348CD
:1043A00000680CF043F85249884213D00EE04F48A1
:1043B0000068C068089008F082FC479880B20890B6
:1043C00001F0ECF847990E9808440E9045990E9824
:1043D0008842ECDB49991198884217DB45A01DF013
:1043E0009BFE424800680CF021F8414988420AD0FF
:1043F0003E4800684068089044990BF0CCF84FF4B0
:10440000FA7001F0CBF83F48007816E437480068AE
:104410000CF00CF8364988420AD0344800684068ED
:10442000089044990BF0B7F840F6B83001F0B6F8B0
:104430003548007801E42DE9F047054642F210774F
:104440004FF032084FF47A7090FBF8F404EB8400DC
:104450004FEA4009322004FB00FA002612E023490B
:1044600009685FED8E1A1FED8F1A5FED900A00EE5E
:10447000105AB8EEC00AC86808F046FBA0B201F0B6
:104480008DF82644BE42EADB1F480078BDE8F0877D
:1044900070B500230A22012103200EF035FE1B49CE
:1044A000086006232422022103200EF02DFE184965
:1044B00008601848007800F00100002814D1154861
:1044C0001DF078FF00280FD000250C201DF0FEFD08
:1044D0000446012500210FF0C7FF044600250E48C1
:1044E00004600C48AFF3008070BD0000080000209D
:1044F000000A01035461736B2074696D656F7574F4
:10450000210A00001376020812760208C400002077
:10451000C8000020400600204406002010B52DED04
:10452000068B84B0044694ED020A10EE101A084679
:1045300019F048FB41EC180B94ED010A10EE101A2B
:10454000084619F03FFB41EC190B94ED000A10EE00
:10455000101A084619F036FB41EC1A0B8DED028B50
:104560008DED009B53EC1A2BFEA01DF0D5FD04B081
:10457000BDEC068B10BD1CB5044694ED000ABDEEE3
:10458000C00A10EE100A00B2ADF8020094ED010A64
:10459000BDEEC00A10EE100A00B2ADF8040094EDB2
:1045A000020ABDEEC00A10EE100A00B2ADF800001B
:1045B000207B8DF807009DF806008DF806009DF819
:1045C0000600217C0843C0B28DF806009DF8060065
:1045D000217D40EA4100C0B28DF806009DF806003A
:1045E000A17D40EA8100C0B28DF806009DF806006A
:1045F000617D40EAC100C0B28DF80600E749096854
:104600004869694608F07FFC4FF47A6000F0C6FF05
:104610001CBD00B5B5B0002022909FEDE11ADFED82
:10462000E00A9FEDDF0A2FA81BF020FB9FEDDC1AAC
:10463000DFEDDB0A9FEDDA0A099032A81BF016FBCA
:104640000890002001900290039004900090099837
:10465000D0ED022A90ED012AD0ED001A089890EDD5
:10466000021AD0ED010A90ED000A00231A461946FD
:1046700016A81BF002FB9FEDCA1ADFEDC90A9FEDD9
:10468000C80A13A81BF0F2FA9FEDC51ADFEDC40AA1
:104690009FEDC30A10A81BF0E9FA00200D900A2034
:1046A0000C90BE4800680BF0C1FEBE4988422AD07B
:1046B000BD480068099002200890002007900C98DF
:1046C00080B20799CDE90010B4480068406809AB92
:1046D0000590089A0D990AF08AFB0690069810B981
:1046E000069835B000BDAD480068406805900D994A
:1046F0000AF01AFD4FF4FA7000F050FF4FF4FA6020
:1047000000F04CFF00BFA9481DF006FDA34800685B
:104710000BF08CFEA349884230D0A0480068406866
:1047200006901FF065FF8DED070ACDED080A8DEDAF
:10473000091A9DED080A8DED130A98480068406833
:1047400006901FF055FF8DED070ACDED080A8DED9F
:10475000091A9DED070A8DED140A9048006840681B
:1047600006901FF045FF8DED070ACDED080A8DED8F
:10477000091A9DED090A8DED150A35E08748006894
:1047800080680146019002A807F069FB02A80FC8E3
:10479000CDE90823CDE906019DED060A8DED130A4A
:1047A0007E48006880680146019002A807F057FB28
:1047B00002A80FC8CDE90823CDE906019DED070A3F
:1047C0008DED140A7548006880680146019002A8C2
:1047D00007F045FB02A80FC8CDE90823CDE9060183
:1047E0009DED080A8DED150A1598039019F0EAF968
:1047F000CDE908011498039019F0E4F9CDE9060118
:104800001398039019F0DEF9CDE90401DDE9080100
:10481000CDE90201DDE90601CDE900019DED040BC2
:1048200053EC102B62A01DF077FC9FED5D1ADFEDBD
:104830005C0A9FED5B0A2FA81BF018FA0990002074
:104840000123CDE9013003900490142000900998D1
:10485000D0ED022A90ED012AD0ED001A9DED151A37
:10486000DDED140A9DED130A00231A46194623A80C
:104870001BF003FA30220146089016A81AF0FEFC3D
:1048800016A8FFF778FE59481DF046FC434800681B
:104890000BF0CCFD4349884230D040480068406866
:1048A00006901FF0A5FE8DED070ACDED080A8DEDEF
:1048B000091A9DED080A8DED100A38480068406815
:1048C00006901FF095FE8DED070ACDED080A8DEDDF
:1048D000091A9DED070A8DED110A304800684068FD
:1048E00006901FF085FE8DED070ACDED080A8DEDCF
:1048F000091A9DED090A8DED120A7DE0274800682E
:1049000080680146019002A807F0A9FA02A80FC822
:10491000CDE90823CDE906019DED060A8DED100ACB
:104920001E48006880680146019002A807F097FAC7
:1049300002A80FC8CDE90823CDE906019DED070ABD
:104940008DED110A1548006880680146019002A8A3
:1049500007F085FA02A80FC8CDE90823CDE90601C2
:1049600046E000004E65772047696D62616C2072F9
:104970006F746174696F6E20616E676C6520697316
:10498000205B2025302E33662C2025302E33662CDC
:104990002025302E3366205D0A0A00000800002022
:1049A00000000000000A01031076020860A202085D
:1049B000496E697469616C2047696D62616C20722F
:1049C0006F746174696F6E20616E676C653A205B0D
:1049D0002025302E33662C2025302E33662C2025C2
:1049E000302E3366205D0A0A000000000CA4020885
:1049F0009DED080A8DED120A0020019002900390AF
:104A0000049014200090DDED122A9DED112ADDEDB9
:104A1000101A9DED151ADDED140A9DED130A4FF4E1
:104A2000E163C822002123A81BF027F930220146A8
:104A3000099016A81AF022FC16A8FFF79CFDFE4864
:104A400000680BF0F3FCFD49884230D0FA4800685A
:104A5000406806901FF0CCFD8DED070ACDED080AE9
:104A60008DED091A9DED080A8DED100AF2480068D7
:104A7000406806901FF0BCFD8DED070ACDED080AD9
:104A80008DED091A9DED070A8DED110AEA480068BF
:104A9000406806901FF0ACFD8DED070ACDED080AC9
:104AA0008DED091A9DED090A8DED120A35E0E248F7
:104AB000006880680146019002A807F0D0F902A8BA
:104AC0000FC8CDE90823CDE906019DED060A8DED5D
:104AD000100AD948006880680146019002A807F0D2
:104AE000BEF902A80FC8CDE90823CDE906019DED66
:104AF000070A8DED110AD0480068806801460190D0
:104B000002A807F0ACF902A80FC8CDE90823CDE947
:104B100006019DED080A8DED120A10A8FFF7FEFCB4
:104B2000C7A01DF0F9FACDA01DF0F6FAC248006842
:104B30000069099007F0DDFBCDA01DF0EDFAD84823
:104B40001DF0EAFA1FED6A1A5FED6B0A1FED6C0AA1
:104B50002FA81BF08BF8099000200123CDE901302C
:104B600003900490142000900998D0ED022A90ED53
:104B7000012AD0ED001A9DED151ADDED140A9DED08
:104B8000130A0023C74A194623A81BF076F83022DF
:104B90000146089016A81AF071FB16A8FFF7EBFC67
:104BA000A54800680BF042FCA449884230D0A248D6
:104BB0000068406806901FF01BFD8DED070ACDEDE3
:104BC000080A8DED091A9DED080A8DED100A9A4824
:104BD0000068406806901FF00BFD8DED070ACDEDD3
:104BE000080A8DED091A9DED070A8DED110A92480C
:104BF0000068406806901FF0FBFC8DED070ACDEDC4
:104C0000080A8DED091A9DED090A8DED120A35E0AD
:104C10008948006880680146019002A807F01FF9E2
:104C200002A80FC8CDE90823CDE906019DED060ACB
:104C30008DED100A8048006880680146019002A846
:104C400007F00DF902A80FC8CDE90823CDE9060148
:104C50009DED070A8DED110A7748006880680146CE
:104C6000019002A807F0FBF802A80FC8CDE90823BD
:104C7000CDE906019DED080A8DED120A10A8FFF797
:104C80004DFC6FA01DF048FA87A01DF045FA6A4858
:104C900000680069099007F033FB88481DF03CFA72
:104CA00087A01DF039FA6420ADF83A003220ADF843
:104CB0003C006FF0C700ADF838004FF47A600B90FD
:104CC00064200A90002009900FE05B48006840696A
:104CD0000EA9089008F031F90A9880B2089000F007
:104CE0005DFCDDE90901084409900B9909988842A7
:104CF000EBDB514800680BF099FB5049884230D0FB
:104D00004D480068406806901FF072FC8DED070A60
:104D1000CDED080A8DED091A9DED080A8DED100AFA
:104D200045480068406806901FF062FC8DED070A58
:104D3000CDED080A8DED091A9DED070A8DED110ADA
:104D40003D480068406806901FF052FC8DED070A50
:104D5000CDED080A8DED091A9DED090A8DED120AB7
:104D600035E03548006880680146019002A807F0E8
:104D700076F802A80FC8CDE90823CDE906019DED1C
:104D8000060A8DED100A2C480068806801460190E3
:104D900002A807F064F802A80FC8CDE90823CDE9FE
:104DA00006019DED070A8DED110A23480068806811
:104DB0000146019002A807F052F802A80FC8CDE9F9
:104DC0000823CDE906019DED080A8DED120A10A811
:104DD000FFF7A4FB49A01DF09FF99FED4E1ADFEDF0
:104DE0004D0A9FED4C0A2FA81AF040FF09900020B1
:104DF0000123CDE90130039004901420009009981C
:104E0000D0ED022A90ED012AD0ED001A9DED151A81
:104E1000DDED140A9DED130A00231A46194623A856
:104E20001AF02BFF30220146089016A81AF026FA35
:104E300016A8FFF7A0FB6FE008000020000A01039E
:104E4000456E7375726520534420636172642069F6
:104E5000732070726573656E742E0A0054616B69FD
:104E60006E6720706963747572652E2E0A000000EB
:104E7000436865636B20444A4920474F2041707066
:104E8000206F72205344206361726420666F722029
:104E900061206E657720706963747572652E0A00F3
:104EA000C0A302080CFEFFFF5374617274696E6741
:104EB00020766964656F2E2E0A000000F8A20208B1
:104EC00053657474696E6720526F6C6C20726174E4
:104ED0006520746F2031302C205069746368207213
:104EE00061746520746F20352C20596177205261E0
:104EF000746520746F202D32302E0A005265736560
:104F00007474696E6720706F736974696F6E2E2E8A
:104F10002E0A000000000000634800680BF086FACB
:104F20006249884230D060480068406806901FF0AF
:104F30005FFB8DED070ACDED080A8DED091A9DED99
:104F4000080A8DED100A58480068406806901FF066
:104F50004FFB8DED070ACDED080A8DED091A9DED89
:104F6000070A8DED110A50480068406806901FF04E
:104F70003FFB8DED070ACDED080A8DED091A9DED79
:104F8000090A8DED120A39E0474800688068014639
:104F9000019002A806F063FF03A80DC80299CDE9AD
:104FA0000823CDE906109DED060A8DED100A3E4856
:104FB000006880680146019002A806F050FF02A92F
:104FC0000EC90598CDE90723069109909DED070AC2
:104FD0008DED110A3448006880680146019002A8EE
:104FE00006F03DFFDDE90403DDE90212CDE9080327
:104FF000CDE906129DED080A8DED120A10A8FFF703
:105000008DFA2BA01DF088F82748006800690990E8
:1050100007F07DF94FF47A7000F0C0FA29A01DF076
:105020007BF8214800680BF001FA204988420AD039
:105030001D480068406809900D990AF0ACFA40F6E6
:10504000B83000F0ABFA0120FFF74BBB70B500237E
:105050000A22012103200EF057F826490860062392
:105060002422022103200EF04FF823490860234830
:10507000007800F00100002814D120481DF09AF9B2
:1050800000280FD000250C201DF020F80446012533
:1050900000210FF0E9F9044600251948046017487B
:1050A000AFF3008070BD000008000020000A01037B
:1050B00053746F7070696E6720766964656F2E2E09
:1050C0002E0A0000436865636B20444A4920474F1D
:1050D00020417070206F72205344206361726420FD
:1050E000666F722061206E657720766964656F2E29
:1050F0000A000000D0000020D4000020400600205C
:105100004406002000B52DED040B2DED108B89B069
:105110009DED1B0A20EE000A10EE101A084618F04A
:1051200051FD41EC190B9DED1C0A20EE000A10EE1A
:10513000101A084618F046FD41EC1F0B53EC192BD2
:1051400018F07BFB41EC1E0B9FEDA10B53EC102BD9
:1051500018F01AFC41EC1D0B9FED9F0B53EC102B2C
:1051600018F06BFB41EC1A0B9DED1A0ADDED1B0AE2
:1051700020EE200ADDED190A9DED1C1A00EE810AD1
:1051800010EE101A084618F01DFD41EC1D0B9FEDA6
:10519000940B53EC102B18F0F7FB41EC1B0B9DED1F
:1051A0001A0ADDED1C0A20EE200ADDED190A9DED3C
:1051B0001B1A00EEC10A10EE101A084618F002FD84
:1051C00041EC1D0B9FED820B53EC102B18F0DCFB18
:1051D00041EC180B9DED1B0ADDED1C0A20EE200AA8
:1051E000DDED190A9DED1A1A00EE810A10EE101A73
:1051F000084618F0E7FC41EC1D0B9FED790B53ECD2
:10520000102B18F0C1FB41EC1C0B9DED1A0A20EE8F
:10521000000A10EE101A084618F0D4FC41EC1F0BDF
:1052200053EC192B18F009FB41EC1E0B9FED680B9A
:1052300053EC102B18F0A8FB41EC1D0B9FED660BF7
:1052400053EC102B18F0F9FACDE900019FED620B39
:1052500053EC102B51EC180B18F0E0FC02D29FED30
:105260005E0B03E0B0EE480AF0EE680AB0EE408A4A
:10527000F0EE608A9FED5C0B53EC102B51EC180B99
:1052800018F0B4FC02D29FED580B03E0B0EE480AD0
:10529000F0EE680AB0EE408AF0EE608AB0EE480A9E
:1052A000F0EE680A1DF054F98DED060B9DED001B24
:1052B000B0EE4C0AF0EE6C0A1DF0FEFC8DED040B16
:1052C000B0EE4A1AF0EE6A1AB0EE4B0AF0EE6B0A34
:1052D0001DF0F2FC8DED020B9DED020B9DED041B0C
:1052E0009DED062B09B0BDEC108B0FBD00B52DED6B
:1052F000040B87B0DDED0A1A9DED091ADDED080AF1
:105300009DED070AFFF7FEFE8DED000B8DED021BF4
:105310008DED042B9DED000B0BB000BD00B52DED08
:10532000040B87B0DDED0A1A9DED091ADDED080AC0
:105330009DED070AFFF7E6FE8DED000B8DED021BDC
:105340008DED042B9DED020B0BB000BD00B52DEDD6
:10535000040B87B0DDED0A1A9DED091ADDED080A90
:105360009DED070AFFF7CEFE8DED000B8DED021BC4
:105370008DED042B9DED040B0BB000BD10B52DED94
:10538000048BB0EE408AF0EE608A9FED190B53EC6F
:10539000102B51EC180B18F0F7FA41EC190BB0EE8A
:1053A000490AF0EE690ABDEC048B10BD10B500236C
:1053B0000A22012103200DF0A7FE0F4908600623F1
:1053C0002422022103200DF09FFE0C49086010BD2D
:1053D00000000000000000C0000000000000F03FDE
:1053E0000000000000000040000000000000F0BFCE
:1053F000E8C35CB0DDA54C40DC000020E0000020EC
:1054000010B500F09DF84FF4A06000F0ABF914F077
:105410009FFB13F0C7FD12F0AEFB12F025FD13F059
:10542000D0F800F046F915F015FC12F050FA13F020
:1054300031FA10BD10B500230A22012103200DF01E
:1054400063FE0549086006232422022103200DF093
:105450005BFE0249086010BDE8000020EC0000205F
:105460001FB50121084601F0CEFE0121084601F0DA
:10547000CAFE0020ADF80C00ADF80600C72002906F
:1054800042F2CF00ADF8040000208DF80E0001A913
:10549000534802F060F819208DF8000003208DF8C1
:1054A00001008DF8020001208DF80300684600F02D
:1054B0005EF901214A4802F003FD012211464848E5
:1054C00002F0EAFC0021464802F0CEF81FBD1FB5ED
:1054D0000121084601F086FE0121084601F082FE06
:1054E0000020ADF80C00ADF80600C7200290272080
:1054F00002904AF20F40ADF8040001A94FF080403D
:1055000002F029F81C208DF8000002208DF801001F
:1055100003208DF8020001208DF80300684600F09A
:1055200026F90121880702F0CBFC012211469007E1
:1055300002F0B2FC00214FF0804002F095F81FBD50
:1055400030B5284800684FF47A72B0FBF2F1B1F13F
:10555000807F01D301201DE021F07F40401E4FF0ED
:10556000E022506150170022002807DA13071D0EB1
:105570001D4B00F00F04241F1D5503E013071C0EE4
:105580001A4B1C5400BF00204FF0E022906107200E
:105590001061002008B100BFFEE730BD002106E029
:1055A00047F2305100BF0A1EA1F10101FBD1021EDA
:1055B000A0F1010398B2F3D1704710B500230A227D
:1055C000012103200DF0A0FD0949086006232422D3
:1055D000022103200DF098FD0649086010BD00006F
:1055E000000001402401002018ED00E000E400E08C
:1055F000F8000020FC00002000B587B0012108461B
:1056000001F0BDFD0121102001F0FDFD4FF4C0604F
:10561000059002208DF8180003208DF81900002055
:105620008DF81A0001208DF81B0005A9454801F0EE
:10563000C3FA07220921434801F049FB07220A2146
:10564000404801F044FB4FF4613001900020ADF878
:105650000800ADF80A00ADF80C00ADF810000C2001
:10566000ADF80E0001A9384802F081FD012240F298
:105670002551354802F0B9FE0121334802F0FFFD03
:1056800000BF8021304802F0D5FE0128F9D107B0D3
:1056900000BD08B501208DF801008DF8020025201D
:1056A0008DF8000001208DF80300684600F05FF8D7
:1056B00008BD10B5FFF7A0FFFFF7EBFF10BD70B5F9
:1056C0002021214802F0B6FE012828D100201F49E0
:1056D00008701F48006804681B4802F0FFFDC5B24F
:1056E00020682946C269204690471A490870084632
:1056F0000078012812D116490968086811F025FFC1
:105700001549086008460168114800680DF03FFA25
:1057100000201049087001200C49087000BF70BDBE
:1057200010B500230A22012103200DF0EDFC0B49E6
:10573000086006232422022103200DF0E5FC08491D
:10574000086010BD0000024000100140040100206C
:1057500008000020010000200400002008010020B3
:105760000C01002032490143324A1160704770B584
:10577000002100230F22C4781CB32E4C246804F4AB
:10578000E064C4F5E064C4F30721C1F10404E3B2AA
:105790000A4144789C40E1B28478144021430C07CC
:1057A000210E254C05786155047804F01F0501246D
:1057B000AC4005786D11AD0005F1E025C5F800415C
:1057C00009E0047804F01F050124AC401B4D067865
:1057D000761145F8264070BD194A0A400243154B20
:1057E0001B1F1A60704739B1124A121D126802431A
:1057F000104B1B1D1A6006E00E4A121D12688243F0
:105800000C4B1B1D1A607047042808D14FF0E02193
:10581000096941F004014FF0E022116107E04FF007
:10582000E021096921F004014FF0E0221161704785
:105830000000FA050CED00E000E400E080E100E08B
:1058400080FFFF1F10B50446FE48844209D10121A4
:10585000480601F031FD00214FF0007001F02CFDF1
:1058600008E00121880601F027FD00214FF080604B
:1058700001F022FD10BD30B502460020002314685F
:1058800024F002041460146844F00104146000E081
:105890005B1C546804F001041CB94FF6FF74A3426A
:1058A000F6D1546804F001040CB900206CE08C7946
:1058B000012C04D1146844F08004146003E01468DF
:1058C00024F080041460CC79012C04D1146844F0D5
:1058D0004004146003E0146824F0400414600C7A5F
:1058E000012C04D1146844F02004146003E014680F
:1058F00024F0200414604C7A012C04D1146844F084
:105900001004146003E0146824F0100414608C7A0E
:10591000012C04D1146844F00804146003E01468F6
:1059200024F008041460CC7A012C04D1146844F0EB
:105930000404146003E0146824F0040414608C78F8
:10594000A407CD7844EA05640D7944EA05444D790D
:1059500044EA05540D886D1E2C43D461146824F06C
:1059600001041460002300E05B1C546804F001048F
:105970001CB14FF6FF74A342F6D1546804F0010441
:105980000CB1002000E0012030BD10B50021837A69
:10599000012202FA03F1AC4A126842F00102AA4B5A
:1059A0001A60A94A1C3212688A43A74B1C331A603A
:1059B000027BCAB9A44A0C3212688A43A24B0C3348
:1059C0001A604288C38842EA03439F4A4032847A7D
:1059D00042F834300288838842EA03439A4A4032CC
:1059E000847A02EBC4025360027B012A19D1964AE1
:1059F0000C3212680A43944B0C331A6042880388B5
:105A000042EA0343904A4032847A42F83430C288F2
:105A1000838842EA03438C4A4032847A02EBC40210
:105A20005360C27A3AB9884A121D12688A43864B7B
:105A30001B1D1A6006E0844A121D12680A43824B3D
:105A40001B1D1A60028932B97F4A143212688A43D8
:105A50007D4B14331A600289012A06D17A4A143226
:105A600012680A43784B14331A60427B012A06D12C
:105A7000754A1C3212680A43734B1C331A60724A0F
:105A8000126822F00102704B1A6010BD0021817172
:105A9000C171017241728172C1728170C170032142
:105AA0000171022141710121018070476649096835
:105AB00041F00101644A11601146096843F60E7213
:105AC0009143614A11601146096841EA0021116061
:105AD0001146096821F001011160704721B1026887
