:020000040800F2
:10000000F8BE0020FD8A0008058B0008078B000859
:10001000098B00080B8B00080D8B00080000000006
:100020000000000000000000000000000F8B00082E
:10003000118B000800000000138B00085D580108B8
:10004000178B0008178B0008178B0008178B000808
:10005000178B0008178B0008178B0008178B0008F8
:10006000178B0008178B0008178B0008178B0008E8
:10007000178B0008178B0008E15D01084360010839
:10008000178B0008178B0008178B0008178B0008C8
:1000900069720108178B0008178B0008178B00087E
:1000A000178B0008178B0008178B0008178B0008A8
:1000B000178B0008178B0008178B0008178B000898
:1000C000178B0008178B0008178B0008178B000888
:1000D000178B00083B560008178B00082B120008EE
:1000E000178B0008178B0008178B00086D93010809
:1000F000178B000809950108178B0008178B00085B
:10010000178B0008178B0008178B0008178B000847
:10011000178B0008178B0008178B0008178B000837
:10012000178B0008178B0008178B0008178B000827
:10013000178B0008178B0008178B0008178B000817
:1001400025740108178B0008178B0008178B00080F
:10015000178B0008F75E01082D5C0108178B00085B
:10016000178B0008178B0008178B0008178B0008E7
:10017000178B0008178B0008178B0008178B0008D7
:10018000178B0008178B0008DFF814D01DF0F0FE65
:100190001CF0F2FB00480047990900081DF0FFFB26
:1001A000F8BE0020FEB442464B4654465D463EB47F
:1001B0001CF041F93EBC90469946A246AB46FEBCB7
:1001C00000F032F8704700BF80EC200B7047C0ECA5
:1001D000200B704790EC200B7047D0EC200B704741
:1001E00085460D98DDF838E00F9B5DF8042B20E97B
:1001F0000C009DE8FE1F854601BD4DF808ED0DF190
:10020000080E4DF804ED2DE9FF1F002102B46946E8
:1002100081B01DF000FEDDF840E012B07047000034
:1002200090840200208B02004DF808ED0DF1080EBD
:100230004DF804ED2DE9FF1F002102B4694681B09D
:100240001DF050BE10B5FE480068C0F1FF3041F20D
:10025000883188420BD3FB480068F9490968401A85
:10026000B0F5487F03D3F6480068F6490860F648C1
:100270000068F3490968401A41F2883188420BD37B
:100280000D21F2481CF043FAF0480A38C07D00F016
:10029000EF00EE490A39C875ED480068E849096879
:1002A000401A41F28831884207D3E8480A38C07DB5
:1002B00000F0DF00E5490A39C875E6480068E04902
:1002C0000968401A41F28831884207D3DF480A386A
:1002D000C07D00F0F700DD490A39C875DE480068C6
:1002E000D7490968401A41F28831884207D3D74874
:1002F0000A38007E00F0FE00D4490A390876D74853
:100300000068CF490968401A41F28831884207D312
:10031000CE480A38007E00F0FD00CC490A39087644
:10032000CF480068C6490968401A41F288318842BE
:1003300007D3C6480A38007E00F0F700C3490A39DF
:100340000876C8480068BE490968401A41F28831F9
:10035000884207D3BD480A38007E00F0EF00BB4951
:100360000A39087610BD2DE9F0472DED048B4FF0CA
:1003700000099FEDBD0A10EE105A9FEDBB0A10EE6A
:10038000106A9FEDB90A10EE107A9FEDB70A10EED1
:10039000108A9FEDB50AB0EE408AB6EE000AF0EE84
:1003A000408AB6EE000AB0EE409AB3EE040AF0EED0
:1003B000409AAE480078042803D0BDEC048BBDE819
:1003C000F087AB48807D00B9F7E7A948007F48B9BE
:1003D000A648007A28B1A548007A20F00200A34977
:1003E0000872EAE71AF060FDA24801F071FAA0482D
:1003F000818901229F481BF06DFA9F4908709C4833
:10040000018A03229B481BF065FA9B498871984832
:10041000C189022297481BF05DFA9749C870944839
:10042000418A042293481BF055FA934948720024EC
:1004300087E004EB44009049085C012813D104EBE9
:10044000440008448078401E00EB4000085C03280C
:1004500009D1002104EB4400874A10448078401EF3
:1004600000EB4000115404EB44008349085C02286F
:1004700013D104EB440008448078401E00EB400098
:10048000085C032809D1022104EB44007A4A104495
:100490008078401E00EB4000115404EB4400764984
:1004A000085C032817D104EB440008448078401E00
:1004B00000EB4000085C03280DD1022104EB44004E
:1004C0006D4A10448078401E00EB40001154022019
:1004D00004EB4401505404EB44006749085C78BBCA
:1004E00004EB440008448078401E00EB4000085CA8
:1004F000032825D1611CC8B21BF0A3F948B1002123
:1005000004EB44005C4A10448078401E00EB40003D
:10051000115457480A30611C30F811005449C98BF6
:1005200088420DDA022104EB4400534A10448078DB
:10053000401E00EB40001154022004EB44015054D3
:10054000641C042CFFF675AF4B480078012806D1D7
:1005500001F0D7FA10EE105A0120474908734648B7
:100560008079012807D1032001F0CBFA10EE105A50
:100570000120414908734048C078012807D1022072
:1005800001F021FB10EE106A01203B4948733A4804
:10059000407A012807D1042001F015FB10EE106A03
:1005A00001203549487334480078022803D118EEF9
:1005B000105A3149087330488079022805D1B1EECC
:1005C000480A10EE105A2C4908732B48C0780228AC
:1005D00003D118EE106A284948732748407A022848
:1005E00005D1B1EE480A10EE106A2349487322483B
:1005F0000078032805D1B1EE680A10EE105A1E49A2
:1006000008731D488079032803D118EE905A1A49BF
:1006100008731948C078032805D1B1EE680A10EEB6
:10062000106A154948731448407A032803D118EE1C
:10063000906A1149487301201BF003F968BB1DE063
:1006400068040020840400208C040020F938002075
:100650009004002094040020980400209C040020B2
:10066000A0040020A404002000000000840000205A
:10067000D0390020083A0020303A002003201BF037
:10068000E0F850B9F948007B022806D11FED0A0AAC
:1006900010EE105A0020F549087302201BF0D1F823
:1006A00070B904201BF0CDF850B9F048407B022807
:1006B00006D11FED130A10EE106A0020EB494873B3
:1006C000EA48007B00281BDDE848407BC0B90220D7
:1006D0001BF0B7F840B1022001F075FA10EE106A75
:1006E0000420E24948730BE004201BF0AAF838B15B
:1006F000042001F068FA10EE106A0420DB49487308
:10070000DA48407B00281BDDD848007BC0B90120B7
:100710001BF097F840B1012001F0F3F910EE105AE8
:100720000420D24908730BE003201BF08AF838B18B
:10073000032001F0E6F910EE105A0420CB490873AB
:10074000CA48007B002803DCC848407B002832DD13
:100750004FF00109C648B0F91C00B0F5FA7F02DD80
:1007600019EE107A0EE0C248B0F91C0010F5FA7FBD
:1007700004DAB1EE490A10EE107A03E01FED460AE2
:1007800010EE107ABA48B0F91E00B0F5FA7F02DD1B
:1007900019EE908A1BE0B648B0F91E0010F5FA7FFA
:1007A00004DAB1EE690A10EE108A10E01FED520A69
:1007B00010EE108A0BE04FF00009002405E0002045
:1007C00004EB4401A94A5054641C042CF7DB0024B8
:1007D00009E004EB4400A549085C04EB4401A34A8A
:1007E00011444870641C042CF3DBB9F1000F0FD0E6
:1007F000A048C0F80150C0F80560C0F80970C0F802
:100800000D809D48007A40F002009B4908722AE062
:100810009948007A28B19848007A20F00200964959
:1008200008729448D0F8010000EE100AB5EEC00A34
:10083000F1EE10FA06D01FED740A10EE100A8D4981
:10084000C1F801008B48D0F8050000EE100AB5EEA3
:10085000C00AF1EE10FA06D01FED7D0A10EE100A64
:100860008449C1F8050000BFA7E5844A1078D17813
:10087000814A1278042A00D07047FC2801D0FC2954
:1008800010D101227C4B5A70B7EE000A10EE102AEC
:10089000784BC3F80920784A127A42F00102764B6D
:1008A0001A721CE00022744B5A70724AD2F8092066
:1008B00000EE102AB5EEC00AF1EE10FA06D01FEDD8
:1008C000960A10EE102A6B4BC3F809206A4A127A76
:1008D0002AB1694A127A22F00102674B1A7200BFEC
:1008E000CAE710B56648006866490968401AA0283A
:1008F0002DD364480068624908606348006800F0CE
:10090000010050B9FFF7B1FF5E480068C0F1FF3049
:10091000B0F57A6F01D319F017FF5B4800680A2120
:10092000B0FBF1F201FB120060B917F0B0F819F05A
:1009300089FE54480068C0F1FF30B0F57A6F01D3EA
:1009400019F091FE50480068401C4F49086010BDE6
:1009500000204E4908601AE04D494C4A1268885CF4
:10096000411ECAB24A49494B1B68CA5450B1084695
:1009700046490968405C28B900214548001D434AA2
:100980001268815441480068401C404908603F4853
:1009900000680428E0DB70471CB504F0EFFC4FF45E
:1009A0007A7004F0B9FD5A203A4B3BA23E490090C0
:1009B0003E4820F069FB0446601C38B1B4F5967FD0
:1009C00004D23A493AA020F04FFB02E039A020F0CF
:1009D0004BFB40A042A145A346A2CDE9001048A18F
:1009E0004A4820F041FB5C202A4B2BA22E49009064
:1009F0002E4820F049FB0446601C38B1B4F5967FC0
:100A000004D22A492AA020F02FFB02E029A020F0DE
:100A10002BFB00F0CCFC002802DA4FF0FF301CBDAD
:100A20001AF03CFA1BF002F81BF083F902224FF493
:100A30007A71AFF2E30017F07EFE019015E000F04E
:100A4000DDFD1AF0E3F919F03EFDFFF74AFF1BF058
:100A50008DFBFFF788FCFFF7F5FB15F053FE16F052
:100A6000DDFA1BF025F816F0F7FDE8E7303A002034
:100A7000083A00202C12002084000020EF380020CB
:100A80008804002068040020A80400200C00002036
:100A9000FA390020005B0208494D504F52545F4E16
:100AA0004F54494345000000587C0208061B0020B3
:100AB000257300004552524F523A206C6F672070E8
:100AC00072696E74657220696E6E657220666175FA
:100AD0006C740A0031353A31373A34350000000081
:100AE0004175672032352032303137005630332D92
:100AF0003030000031303030303030300000000015
:100B00004D61696E426F6172640000009C7C020856
:100B100010B52DED048BFD480078042802D0BDEC03
:100B2000048B10BDFA48807D00B9F8E7F848007FD3
:100B300048B9F648007A28B1F448007A20F002005B
:100B4000F2490872EBE71AF0BEF90446002C71D0A6
:100B5000EE48007A40F00200EC49087204F001000F
:100B600098B1EB49088C1CF0C7F841EC190B9FEDCC
:100B7000E90B53EC102B1BF0CDFF41EC180B1CF0D4
:100B800043F9E649C1F801001DE004F0040098B102
:100B9000DF49088C1CF0B0F841EC190B9FEDE00B1D
:100BA00053EC102B1BF0B6FF41EC180B1CF02CF98A
:100BB000DA49C1F8010006E09FEDDB0A10EE100AE9
:100BC000D649C1F8010004F0020098B1D049088C60
:100BD0001CF092F841EC190B9FEDCE0B53EC102B4F
:100BE0001BF098FF41EC180B1CF00EF9CB49C1F833
:100BF00005004AE004F0080098B1C549088C1CF0D3
:100C00007BF841EC190B9FEDC60B53EC102B1BF03E
:100C100081FF41EC180B1CF0F7F8C049C1F8050042
:100C200033E09FEDC10A10EE100ABC49C1F805007F
:100C30002BE0FFE7B548007A28B1B448007A20F0ED
:100C40000200B2490872B548D0F8010000EE100A5F
:100C5000B5EEC00AF1EE10FA06D09FEDB30A10EE21
:100C6000100AAE49C1F80100AC48D0F8050000EE0A
:100C7000100AB5EEC00AF1EE10FA06D09FEDAA0AEE
:100C800010EE100AA549C1F8050000BF47E730B5CE
:100C90002DED0C8B8FB09D480078042803D00FB049
:100CA000BDEC0C8B30BD9A48807D00B9F7E79848C1
:100CB000007F48B99548007A28B19448007A20F01E
:100CC000020092490872EAE79849096888680AF0C0
:100CD0005AFF8DED090ACDED0A0A8DED0B1ACDED07
:100CE0000C1ADDED0C1A9DED0B1ADDED0A0A9DEDD7
:100CF000090A04F0B9FAB0EE408AF0EE608A8C4935
:100D0000A1F1080000F0C9FCB0EE480AF0EE680A54
:100D100021F026F8B0EE40CAF0EE60CA83490968B7
:100D200088680AF07AFF8DED0A0ACDED0B0A8DED89
:100D30000C1A9DED0B0A10EE101A08461CF021F853
:100D400041EC1D0B53EC1C2B1BF0E4FE41EC1A0B89
:100D5000B0EE480AF0EE680A20F092FFB0EE40CA0A
:100D6000F0EE60CA7149096888680AF056FF8DED97
:100D7000070ACDED080A8DED091A9DED070A10EE60
:100D8000101A08461BF0FDFF41EC1D0B53EC1C2B09
:100D90001BF0C0FE41EC1B0B53EC1A2B1BF013FE97
:100DA00041EC190B1CF030F8614908390861B0EECC
:100DB000480AF0EE680A20F063FFB0EE40CAF0EE99
:100DC00060CA5A49096888680AF027FF8DED0A0A47
:100DD000CDED0B0A8DED0C1A9DED0B0A10EE101ADD
:100DE00008461BF0CEFF41EC1D0B53EC1C2B1BF0F7
:100DF00091FE41EC1B0BB0EE480AF0EE680A20F0C1
:100E0000AFFFB0EE40CAF0EE60CA48490968886892
:100E10000AF003FF8DED070ACDED080A8DED091AE2
:100E20009DED070AB1EE400A10EE105A28461BF05D
:100E3000A8FF41EC1D0B53EC1C2B1BF06BFE41EC8F
:100E4000190B53EC1B2B1BF0BEFD41EC1A0B1BF0D6
:100E5000DBFF37490839486134480068816804A8D5
:100E60000BF029F804A807C80AAB07C32F4800688D
:100E7000816801A80BF01FF801A807C807AB07C3DA
:100E8000BDF92830BDF91E200DA90EA81AF0A7FB48
:100E900004466CB121490E98C1F801000D98C1F8C3
:100EA00005001A48007A40F00200184908722AE04A
:100EB0001648007A28B11548007A20F0020013493C
:100EC00008721648D0F8010000EE100AB5EEC00A0C
:100ED000F1EE10FA06D09FED140A10EE100A0F4939
:100EE000C1F801000D48D0F8050000EE100AB5EE7B
:100EF000C00AF1EE10FA06D09FED0B0A10EE100AB0
:100F00000649C1F8050000BFC9E6000084000020C2
:100F1000D03900209A9999999999B93F2C120020BB
:100F20009A9999999999B9BF00000000080000208A
:100F3000103A002010B500230A220121032010F0EE
:100F400009FD10490860062324220221032010F025
:100F500001FD0D4908600D4801780D480FF09EF91C
:100F600004460C4A0C491BF017FD5FED111A1FEDEA
:100F7000121A5FED130A1FED140A4A2107480BF0FD
:100F8000DBFC10BD10000020140000200000002039
:100F90007407002000000008D10201082C12002074
:100FA00070B504460D4600BF40210E4807F03EFCD8
:100FB0000028F9D0E1B20B4807F088FB204670BD4D
:100FC00010B500230A220121032010F0C3FC0649BA
:100FD0000860062324220221032010F0BBFC0349F1
:100FE000086010BD004800401C00002020000020C8
:100FF00000B58DB05B4801905B480C9000231A4609
:1010000001A95A4800680FF085FD0DB000BD0FB46E
:101010002DE9F04188B004465E9FBDF83E001038CF
:10102000022846DCBDF84950C4F874570D220FA9B8
:1010300004F267701DF000FA40F27770005D8DF8E1
:101040000000112204F2677103A81DF0F5F903A84E
:101050000FC807F065FDD0B145480088854216D11C
:1010600022F0F0FA80463320424B43A20121009047
:10107000404611F06DFD0646006841A18268304689
:1010800090470022114620460EF015FE00BF394859
:10109000019040F27770005D8DF80000112204F29B
:1010A000677103A81DF0C8F903A80FC808F016FA65
:1010B00013E022F0C7FA80463C202E4B2EA20121DD
:1010C0000090404611F044FD06469DF8442000681B
:1010D00032A183683046984700BF3848008885426F
:1010E0000CD140F2E460005940B140F2E462115981
:1010F000206814F03DF904203149087008B0BDE8BB
:10110000F0015DF814FB10B500230A220121032031
:1011100010F020FC2B490860062324220221032022
:1011200010F018FC284908602848007800F00100F9
:10113000002815D1254820F0E5F8002810D00C2013
:101140001FF06CFF041E05D00021204611F0DCFCCE
:10115000044600E000201E4908601C48AFF30080F0
:1011600010BD00001FBF0F00340000200800002049
:10117000745E02085B5B02084552524F5200000049
:1011800053444B2076657273696F6E2064696420E6
:101190006E6F74206D617463680A000041434B20D8
:1011A000697320657863657074696F6E2C20736550
:1011B0007175656E63652025640A0000645E02082F
:1011C00084000020280000202C00002020060020A1
:1011D0002406002000F07F0200EE102AB8EEC00ABC
:1011E000F0EE400A00EE101AB8EE400AB0EE401AD7
:1011F00000F0800262B1DFED5E1AB0EE410A00EE4F
:10120000A10AF1EE401A9FED5B2A81EE820A704737
:10121000DFED571AB0EE410A00EEA10A9FED552A04
:10122000C0EE021AB0EE610AF1E710B52021524873
:1012300007F0FCFA01282AD14F4807F04BFAC4B254
:101240004E48806A48B9FA2C20D14C48816A001D6A
:10125000445401204949886218E0FE2C0DD14748CA
:10126000816A001D4454001F806A401C4349C862C3
:10127000002088620120086008E04048816A001D63
:101280004454001F806A401C3C49886200BF10BD66
:1012900070B586B004460D462068012802D10020B2
:1012A000206001E006B070BD2079FA2802D1607993
:1012B000FB2800D0F6E7A07920B1012808D0AA28A1
:1012C0003AD108E00022114628460EF0F4FC34E042
:1012D000FFF78EFE31E0A07B00EB80004000616AEA
:1012E0004143607B00EB80004000626A4243207B08
:1012F00000EB80004000636A4343E07A00EB80002B
:101300004000666A7043CDE9023204910190A07AF0
:1013100000EB800040000090607A00EB800043000A
:10132000207A00EB80004200E07900EB8000410071
:1013300013481FF099FE00E000BF00BF00BFB1E7F7
:1013400010B500230A220121032010F003FB0D49F0
:101350000860062324220221032010F0FBFA0A4928
:1013600008600648002101608162C16200BF10BDB3
:10137000000080430000C8420048004040120020A6
:10138000EC7C0208780000207C000020DE48008809
:1013900020B1DD480088401EDB490880DB4800881A
:1013A00020B1DA480088401ED8490880704738B517
:1013B00041F2883004F0B0F8D5490968086813F0A4
:1013C000ADFF0446006881692046884738B9D1A03E
:1013D0001FF04AFE012000F06AFC00F07BFCD7A061
:1013E0001FF042FEDAA01FF03FFEE9A01FF03CFE16
:1013F000EEA01FF039FEFAA01FF036FE1E2004F00A
:101400008BF8C34800680EF0ACFC4FF4FA7004F09F
:1014100083F8BF4800680EF063F8F949096888420C
:101420000ED2BB4800680EF05BF8F649884207D040
:10143000F5A01FF019FE012000F039FC00F04AFC75
:101440004FF47A7004F068F802221421AFF2C3005E
:1014500017F071F90090012038BD10B51AF032FD77
:1014600018B13221F34800F0D6FF10BD00B52DEDC4
:10147000028B8FB0A548008818B90A20A3490880BC
:1014800003E00FB0BDEC028B00BDA148006881688D
:1014900001A80AF053FC1C2201A908A81CF0CCFFEB
:1014A0009DED0D8AE448007B00B9EAE7B1EE000A41
:1014B000B4EEC08AF1EE10FA03DD0220DE49886046
:1014C0000AE0B0EE080AB4EEC08AF1EE10FA03D2D8
:1014D0004FF0FF30D849886000BFD2E710B58CB01C
:1014E0008B49096888680AF033FD0B9088480068CA
:1014F000816804A80AF0DFFC04A807C808AB07C38A
:101500008349096888680AF07AFD0790BDF92800C8
:10151000002801DC0CB010BD9DF82C00022800D082
:10152000F8E7C648007A002824D19DF81D0000F095
:10153000070002281DD100221146754800680EF0F0
:1015400046FF4FF48170BE4BBEA2C2A10090CA48B4
:101550001FF09AFD0446601C38B1B4F5967F04D2A2
:10156000C549C6A01FF080FD02E0C5A01FF07CFDAC
:1015700000BFCFE7B148007A30B16348008818B99E
:1015800001206149088000E0C4E79DF81D0000F0DB
:10159000070002281DD0002211465D4800680EF0A9
:1015A000BAFF4FF48970A64BA6A2BDA10090B24825
:1015B0001FF06AFD0446601C38B1B4F5967F04D272
:1015C000AD49AEA01FF050FD02E0ADA01FF04CFDF4
:1015D00000BFBB48C1680091007C8DF804004C48F6
:1015E00000681122B649C46802A81CF025FF2046F5
:1015F00002A90EC90BF033F900BF8BE700B585B027
:101600008E48007820B103282FD0042841D139E03A
:1016100003208A490870AB4800684860FFF7E8FC7F
:101620003B4800680DF05CFF7649884208D0384995
:10163000096848680DF00AFA4FF4FA7003F06CFF7D
:10164000334800681422816868460AF0FDFD3220A4
:1016500003F062FF2E4909689B4AC8699B490CF058
:1016600074FE322003F058FF14E074484068954936
:101670000968401A41F28831884202D300206F493C
:10168000087007E0FFF72AFFFFF7F0FEFFF7E5FE1F
:1016900000E000BF00BF05B000BD7FB504460D46A9
:1016A0001B49096888680AF06EFA8DED000ACDEDD5
:1016B000010A8DED021ACDED031ADDED031A9DED41
:1016C000021ADDED010A9DED000A03F0E5FD84ED4F
:1016D000000B0F49096888680AF055FA8DED000A79
:1016E000CDED010A8DED021ACDED031ADDED031AE1
:1016F0009DED021ADDED010A9DED000A03F0E4FD07
:1017000085ED000B7FBD00009000002092000020BE
:1017100008000020555341525420636F6D6D756E63
:1017200069636174696F6E206973206E6F742077CE
:101730006F726B696E672E0D0A0000000A507265A9
:10174000726571756973697465733A0D0A000000FA
:10175000312E2056656869636C6520636F6E6E6517
:101760006374656420746F207468652041737369C5
:101770007374616E7420616E642073696D756C6141
:1017800074696F6E206973204F4E0D0A00000000CF
:10179000322E20426174746572792066756C6C79A2
:1017A000206368616E726765640D0A00332E204401
:1017B0004A49474F2041707020636F6E6E656374B5
:1017C00065642028666F722074686520666972738C
:1017D000742074696D652072756E290D0A00000011
:1017E000342E2047696D62616C206D6F756E746573
:1017F00064206966206E65656465640D0A000000FA
:1018000098000020000A010355706772616465202A
:101810006669726D77617265207573696E672041C4
:101820007373697374616E7420736F667477617219
:1018300065210A00723A0020403A0020840000200E
:101840006C5B0208494D504F52545F4E4F54494310
:101850004500000025732025732C6C696E652025DA
:10186000643A206F657320636F6E74726F6C2063CF
:101870006C6F7365640A0000061B0020257300006E
:101880004552524F523A206C6F67207072696E74E5
:10189000657220696E6E6572206661756C740A00EF
:1018A00025732025732C6C696E652025643A206FA2
:1018B000657320736574436F6E74726F6C0A0000F9
:1018C0002C1200206804002069390020F52300084C
:1018D00030B52DED0C8B99B00446F748006881684F
:1018E00001A80AF02BFA1C2201A912A81CF0A4FDE1
:1018F000F1480068816805A80AF0DDFA05A807C864
:101900000FAB07C3EC49096888680AF086F98DEDCA
:101910000C0ACDED0D0A8DED0E1AE74909688868AD
:101920000AF031F98DED080ACDED090A8DED0A1A9C
:10193000CDED0B1A2546E049096888680AF023F9BD
:101940008DED040ACDED050A8DED061ACDED071AD1
:10195000DDED071A9DED061ADDED050A9DED040A81
:1019600003F09AFC85ED000BD349096888680AF0FA
:101970000AF98DED040ACDED050A8DED061ACDEDBF
:10198000071ADDED071A9DED061ADDED050A9DED3E
:10199000040A03F099FC85ED020BBDF83E00688354
:1019A000BDF83C002883BDF84200A883BDF8400084
:1019B000E883DDED0B1A9DED0A1ADDED090A9DEDB8
:1019C000080A03F051FCB0EE40DAF0EE60DA20F0E5
:1019D000C7F9B0EE40BAF0EE60BA9DED0D0A10EE18
:1019E000101A08461BF0CDF941EC1C0B53EC1B2BD5
:1019F0001BF090F841EC190BDDED0B1A9DED0A1A66
:101A0000DDED090A9DED080A03F02EFCB0EE40DA88
:101A1000F0EE60DA20F034F9B0EE40BAF0EE60BAE1
:101A20009DED0C0A10EE101A08461BF0AAF941ECC5
:101A30001C0B53EC1B2B1BF06DF841EC1A0B53ECF9
:101A4000192B1AF0C0FF41EC180B1BF0DDF92861CF
:101A5000DDED0B1A9DED0A1ADDED090A9DED080A70
:101A600003F002FCB0EE40DAF0EE60DA20F008F9A4
:101A7000B0EE40BAF0EE60BA9DED0D0A10EE101A0D
:101A800008461BF07EF941EC1C0B53EC1B2B1BF0A2
:101A900041F841EC180BDDED0B1A9DED0A1ADDED56
:101AA000090A9DED080A03F0DFFBB0EE40DAF0EE24
:101AB00060DA20F055F9B0EE40BAF0EE60BA9DED74
:101AC0000C0AB1EE400A10EE101A08461BF059F944
:101AD00041EC1C0B53EC1B2B1BF01CF841EC1A0BBC
:101AE00053EC182B1AF06FFF41EC190B1BF08CF91B
:101AF00068619DED170A85ED080A19B0BDEC0C8BE5
:101B000030BD10B52DED068B04466C49088C1BF0DA
:101B1000F3F841EC1A0B9FED6A0B53EC102B1AF003
:101B2000F9FF41EC190B1BF06FF908EE900A6648BB
:101B300090ED040AB0EE408AB4EEE88AF1EE10FAB5
:101B400002DDB0EE688A25E0B1EE680AB4EEC08A24
:101B5000F1EE10FA04D2B1EE680AB0EE408A19E054
:101B6000B5EEC08AF1EE10FA0ADB38EE280A30EE44
:101B7000080AF0EE080A80EE201AB0EE418A09E069
:101B800038EE080A30EE680AF0EE080A80EE201AF5
:101B9000B0EE418A012C06D1B5EEC08AF1EE10FA02
:101BA00001D2B0EE688A032C08D1B5EEC08AF1EEFE
:101BB00010FA03DDB1EE680AB0EE408AB0EE480AD2
:101BC000BDEC068B10BD10B52DED068B04463B49D0
:101BD000088C1BF091F841EC1A0B9FED390B53EC7C
:101BE000102B1AF097FF41EC190B1BF00DF908EEC2
:101BF000100A354890ED050AF0EE408AF4EEC88AE6
:101C0000F1EE10FA02DDF0EE488A25E0B1EE480A66
:101C1000F4EEC08AF1EE10FA04D2B1EE480AF0EE0A
:101C2000408A19E0F5EEC08AF1EE10FA0ADB38EED0
:101C3000A80A30EE080AF0EE080A80EE201AF0EE4C
:101C4000418A09E038EEA80A30EE480AF0EE080AA8
:101C500080EE201AF0EE418A022C06D1F5EEC08A01
:101C6000F1EE10FA01D2F0EE488A042C08D1F5EE1C
:101C7000C08AF1EE10FA03DDB1EE480AF0EE408AB8
:101C8000B0EE680ABDEC068B10BD10B500230A2229
:101C9000012103200FF05EFE0C4908600623242278
:101CA000022103200FF056FE0949086010BD00F024
:101CB000010181F31388704708000020D03900200B
:101CC0009A9999999999B93F083A0020940000206F
:101CD00098000020BFF34F8F0648006800F4E060D2
:101CE00005490843001D03490860BFF34F8F00BF3B
:101CF000FEE700000CED00E00000FA05F0B52DED68
:101D0000088BA5B000244FF4FA651427FE4800683C
:101D1000142281680EA80AF097FAE6E0FA490968E9
:101D200088680AF015F92490F7480068816807A8C8
:101D30000AF004F81C2207A91DA81CF07DFBF2483C
:101D4000006881680BA80AF0B6F80BA807C81AABA0
:101D500007C3ED490968886809F05FFF8DED170A30
:101D6000CDED180A8DED191AE7490968886809F060
:101D70000AFF8DED130ACDED140A8DED151ACDED88
:101D8000161A2146E1A01FF06FF9E4A01FF06CF9CC
:101D90009DF89010E4A01FF067F99DED210A10EE68
:101DA000101A08461AF0EDFF41EC180B8DED028B6E
:101DB0009DED1F0B8DED000B9DED1D1BB0EE410A3F
:101DC000F0EE610A53EC102BDCA01FF04DF9BDF9C9
:101DD0006E000090BDF96C30BDF96A20BDF9681045
:101DE000DFA01FF041F99DED190A10EE101A084608
:101DF0001AF0C7FF41EC180B9DED180A10EE101AEF
:101E000008461AF0BEFF41EC190B9DED170A10EEC3
:101E1000101A08461AF0B5FF41EC1A0B8DED028B33
:101E20008DED009B53EC1A2BD8A01FF01DF99DEDF2
:101E3000160A10EE101A08461AF0A3FF41EC180B10
:101E40009DED150A10EE101A08461AF09AFF41ECA3
:101E5000190B9DED140A10EE101A08461AF091FFA6
:101E600041EC1A0B9DED130A10EE101A08461AF0F9
:101E700088FF41EC1B0B8DED048B8DED029B8DEDEE
:101E800000AB53EC1B2BCBA01FF0EEF89E48006874
:101E90008168684609F052FF1C22694607A81CF0B9
:101EA000CBFA9DED0C0A10EE101A08461AF069FFE5
:101EB00041EC180B53EC182BCCA01FF0D5F892492D
:101EC000096888680AF09BF80D909DF8350000F0CD
:101ED00007063146C9A01FF0C7F8CEA01FF0C4F80E
:101EE00032344FF4FA7003F017FBAC42FFF616AF32
:101EF000CBA01FF0B9F8012025B0BDEC088BF0BDD8
:101F00002DE9F04F2DED088BA1B0002020904FF46B
:101F10007A601F9000201E900124C54800681D9023
:101F200001201C9000267849CDE9006409681DABAA
:101F300048681C9A1E990CF00FFD05462DB92846DD
:101F400021B0BDEC088BBDE8F08F6F490968486887
:101F50001E990CF053FE4FF4FA7003F0DDFA0120E5
:101F60001E900A24B248001D00681B9001201C909E
:101F700000266549CDE9006409681BAB48681C9AD6
:101F80001E990CF0E9FC05460DB92846D8E75E49D4
:101F9000096848681E990CF031FE4FF4FA7003F09E
:101FA000BBFA02201E903224A148083000681A9023
:101FB00002201C9000265449CDE9006409681AAB40
:101FC00048681C9A1E990CF0C7FC05460DB92846B6
:101FD000B6E74D49096848681E990CF00FFE4FF4AA
:101FE000FA7003F099FA03201E90C824002019907B
:101FF00001201C9000264449CDE90064096819AB12
:1020000048681C9A1E990CF0A7FC05460DB9284695
:1020100096E73D49096848681E990CF0EFFD4FF4BA
:10202000FA7003F079FA4FF4FA5003F075FA4FF4AE
:102030007A674FF4FA7800BF33490968086813F0EB
:102040006DF983460068C1685846884710EB070A57
:1020500000BF2D490968486821F00AFA18902A48FB
:1020600000684168684621F0B3F81822694612A852
:102070001CF0E2F924480068416803A821F0FEF84A
:1020800003A807C80FAB07C31F480068416802A830
:1020900021F082FA02A80FC8CDE90D23CDE90B018A
:1020A00019490968486821F039F88DED070ACDED26
:1020B000080A8DED091ACDED0A1A14A020991EF018
:1020C000D3FF16A01EF0D0FF17A018991EF0CCFF6A
:1020D0009DED160A10EE101A08461AF052FE41EC59
:1020E000180B8DED028B9DED120B8DED000B9DED10
:1020F000141BB0EE410AF0EE610A53EC102B0FA056
:102100001EF0B2FF96E0000008000020436F756EDD
:10211000746572203D2025643A0A00002D2D2D2D76
:102120002D2D2D0A00000000466C6967687420534D
:102130007461747573203D2025640A00506F7369C3
:1021400074696F6E20284C4C4129203D20252E3388
:10215000662C20252E33662C20252E33660A00009F
:10216000524320436F6D6D616E64732028722F702F
:102170002F792F74687229203D2025642C20256436
:102180002C2025642C2025640A00000056656C6F05
:1021900063697479202876782C76792C767A2920D0
:1021A0003D20252E33662C20252E33662C20252E0F
:1021B00033660A00417474697475646520517561F1
:1021C0007465726E696F6E2028772C782C792C7A62
:1021D00029203D20252E33662C20252E33662C20E9
:1021E000252E33662C20252E33660A006865696724
:1021F0006874203D2025660A00000000636F6E743D
:10220000726F6C44657669636528645329203D20AC
:1022100025640A002D2D2D2D2D2D2D0A0A000000DC
:10222000446F6E65207072696E74696E67210A0072
:102230007C5B0208BDF942000090BDF94030BDF959
:102240003E20BDF93C10AFF2E8001EF00DFF9DED01
:102250000D0A10EE101A08461AF093FD41EC180B07
:102260009DED0C0A10EE101A08461AF08AFD41EC9A
:10227000190B9DED0B0A10EE101A08461AF081FD9D
:1022800041EC1A0B8DED028B8DED009B53EC1A2B5C
:10229000AFF208101EF0E8FE9DED0A0A10EE101ACB
:1022A00008461AF06EFD41EC180B9DED090A10EE80
:1022B000101A08461AF065FD41EC190B9DED080A4D
:1022C00010EE101A08461AF05CFD41EC1A0B9DED59
:1022D000070A10EE101A08461AF053FD41EC1B0BCA
:1022E0008DED048B8DED029B8DED00AB53EC1B2B24
:1022F000AFF240101EF0B8FEAFF2E8001EF0B4FEE0
:102300004FF4FA7003F008F935490968086813F0CA
:1023100005F806900068C1680698884710EB080920
:10232000D145FFF496AEAFF208101EF09DFE2C4989
:102330000968486800210CF065FE40F6B83003F0EB
:10234000EBF827490968486801210CF05BFE40F66C
:10235000B83003F0E1F822490968486802210CF01E
:1023600051FE40F6B83003F0D7F81D4909684868B7
:1023700003210CF047FE40F6B83003F0CDF8012001
:10238000DEE510B500230A22012103200FF0E2FA56
:102390001449086006232422022103200FF0DAFAF0
:1023A000114908601148007800F00100002815D19B
:1023B0000E481EF0A7FF002810D00C201EF02EFEA5
:1023C000041E05D00021204610F09EFB044600E0CC
:1023D0000020074908600548AFF3008010BD0000E9
:1023E00008000020A0000020A400002020060020FB
:1023F000240600200FB42DE9F0410746569C2546DF
:102400000DF129063222314628461CF015F8BDE8A8
:10241000F0015DF814FB70B504460D46C349096828
:102420002A46C86921460BF061FF0020C0490860B8
:10243000C0480068C049086070BD0FB4F0B589B0ED
:1024400004465E9EBDF83E001038022865D80D2275
:102450000FA904A81BF0F0FF20460DF041F8B74982
:10246000884204D09DF84900CDF81D0003E0BDF876
:102470004900CDF81D009DF820008DF8000004A84B
:102480000FC806F04DFB48B1AD4801909DF8200003
:102490008DF8000004A80FC807F020F89DF83C0054
:1024A0008DF808009DF83D008DF80900109880789F
:1024B000072809D00222A34902A81AF054F988B1CA
:1024C0001098807801280DD10520ADF80C00BDF8DA
:1024D0001D0080B2ADF80E00042203A9E0690BF0E4
:1024E00005FF19E010988078082808D00222954945
:1024F00002A81AF038F978B11098807860B90620EF
:10250000ADF80C00BDF81D0080B2ADF80E0004223D
:1025100003A9E0690BF0EAFE13E021F093F8074607
:10252000AF20874B88A201210090384610F010FBA5
:1025300005469DF84420006885A183682846984791
:1025400000BF09B0F0BC5DF814FB0FB42DE9F043F7
:1025500087B004465E9E86480088CDF815000127A6
:1025600020460DF097FB8046BDF83E00103802284B
:1025700009D8BDF84900CDF815000D220FA902A811
:102580001BF05AFF13E021F05DF881466020794B83
:102590006DA201210090484610F0DAFA05469DF838
:1025A000442000686AA183682846984700BFDDF888
:1025B000150071490988884206D10022AFF27501E1
:1025C00020460DF0A8FF25E0DDF815006B490988CD
:1025D000884206D10022AFF28D0120460DF0F7FEB1
:1025E00018E010988078012803D10220ADF804008B
:1025F00005E01098807810B90320ADF80400BDF80C
:10260000150080B2ADF80600042201A9E0690BF0C4
:102610006DFE00BF07B0BDE8F0035DF814FB0FB41A
:1026200070B50646549DBDF82140022C06D0032CFF
:102630000CD0052C12D0062C44D129E00022AFF298
:10264000F5013A4800680DF066FF3CE00022AFF269
:102650000511364800680DF0BAFE34E033480068D2
:102660000CF03EFF3549884209D030490968002303
:10267000AFF23922C868072109F0D8FE07E02B49DC
:1026800009680022C868AFF24D2109F0F0FF1AE096
:10269000264800680CF024FF2849884209D02349C5
:1026A00009680023AFF26D22C868082109F0BEFE58
:1026B00007E01E4909680022C868AFF281210AF0CC
:1026C00007F800E000BF00BF70BC5DF814FB10B558
:1026D00000230A22012103200FF03CF92849086059
:1026E00006232422022103200FF034F92549086033
:1026F0002548007800F00100002815D122481EF07E
:1027000001FE002810D00C201EF088FC041E05D00D
:102710000021204610F0F8F9044600E000201B4993
:1027200008601948AFF3008010BD000008000020C9
:10273000A0024342680400206C040020000A010348
:10274000A55B02084B5D02084552524F5200000043
:1027500041434B20697320657863657074696F6EBF
:102760002C2073657175656E63652025640A000011
:10277000E25D0208865B02087C5E02087E5E02085B
:10278000AC000020B000002020060020240600201D
:102790002DE9FE43814601260A24FA48006802908A
:1027A00002274FF00008F849CDE90084096802AB20
:1027B0003A46486831460CF0CFF8054615B9284628
:1027C000BDE8FE83F0490968486831460CF016FA06
:1027D0004FF4FA5002F0A0FE0120F1E730B52DEDE4
:1027E000028B85B00546284622F0F4FD044620E021
:1027F000641C216908461AF0C4FA41EC180B8DEDEF
:10280000028BA068E168CDE9000120686168641E60
:1028100041EC100B53EC102BDCA01EF025FCDA4928
:102820000968096A00231A46486821460FF0BDFE70
:102830005A34284622F0CAFDA042D9D105B0BDECD9
:10284000028B30BD9FEDDB0A10EE101A40F8151F09
:1028500000218180C1800172417464214182017D27
:1028600021F00F010175017D21F0F001017515388E
:10287000002108E0002300F12A025354103202EB39
:1028800041021380491C1029F4DB70472DE9F04305
:102890002DED0C8B99B004468846B0EE408AF0EEE0
:1028A000608A164618A800BF00BF00BF00BF00BF67
:1028B000002121606160A16000BF00BF30461AF0B6
:1028C0000AFA41EC1A0B53EC1A2B9FEDBB0B51EC9F
:1028D000100B1AF091F941EC190B002088F8000058
:1028E0004146204622F07AFD012574E0A5F1010958
:1028F000204622F06FFDC9EB091101EB410100EB0D
:102900004100074601A8FFF79DFFE8B28DF80400DB
:1029100028461AF0E0F953EC192B1AF0FBF841ECB9
:102920001C0BB0EE4C0AF0EE6C0A1FF0A9F9B0EEE9
:1029300040BAF0EE60BA53EC182B51EC1B0B1AF0B6
:10294000E9F841EC1A0B57F8010F796841EC100BCC
:1029500053EC102B51EC1A0B1AF035F8CDF805009A
:10296000CDF8091028461AF0B6F953EC192B1AF0D5
:10297000D1F841EC1C0BB0EE4C0AF0EE6C0A1FF0E3
:10298000EFF9B0EE40BAF0EE60BA53EC182B51EC10
:102990001B0B1AF0BFF841EC1A0BB868F96841EC50
:1029A000100B53EC102B51EC1A0B1AF00CF8CDF85D
:1029B0000D00CDF81110386900EE100AF7EE000A8C
:1029C00030EE200A10EE100ACDF8150001A92046BD
:1029D00022F004FD6D1CB54288DB88F8006041469A
:1029E000204622F0FBFC19B0BDEC0C8BBDE8F08357
:1029F00030B52DED068BABB005460C46B0EE409AD7
:102A0000F0EE609AB0EE418A4FF4FA5002F084FD85
:102A100014A8FFF717FF5C4800680CF061FD6849D7
:102A2000884232D058480068416801A820F0D0FBA5
:102A3000182201A90EA81BF0FFFCDDE91001CDF85A
:102A40005100CDF85510DDE90E01CDF85900CDF853
:102A50005D1018EE100ACDF8610018EE100A1AF099
:102A600090F941EC1A0B8DED02AB9DED0E0B8DED47
:102A7000000B9DED101BB0EE410AF0EE610A53EC25
:102A8000102B50A01EF0F0FA31E03F48006881683A
:102A9000684609F053F91C22694607A81BF0CCFCD4
:102AA000DDE90701CDF85100CDF85510DDE9090148
:102AB000CDF85900CDF85D1018EE100ACDF8610080
:102AC00018EE100A1AF05DF941EC1A0B8DED02AB0D
:102AD0009DED090B8DED000B9DED071BB0EE410A3E
:102AE000F0EE610A53EC102B36A01EF0BDFA224620
:102AF000B0EE490AF0EE690A14A92846FFF7C6FEAF
:102B00002BB0BDEC068B30BDB2EE040A10EE101AED
:102B1000C01C40F8021CB1EE040A10EE101AC0F8F6
:102B20000210002181710121C171002101724172E5
:102B3000012181720021C1729FED2C0B52EC101B00
:102B4000C16002619FED290B52EC101B4161826153
:102B50009FED180A10EE101AC161C01E7047F0B543
:102B60002DED048B97B00546074800680CF0B8FCC3
:102B70001349884246D004480068FFF709FE00B9AF
:102B800038E03FE0BC5B0208080000205761797024
:102B90006F696E742063726561746564206174206E
:102BA000284C4C41293A2025662009256620092514
:102BB000660A200000000000182D4454FB21194033
:102BC000000A0103576179706F696E742063726542
:102BD0006174656420617420284C4C41293A202599
:102BE0006620092566200925660A0000000000000D
:102BF00000000000EDA01EF037FA002017B0BDEC79
:102C0000048BF0BD0AA8FFF77FFF681CC0B28DF8E7
:102C100028009FEDEE9BB2EE048A0AA80090ED48D2
:102C2000006801230022016A02A80BF032F94FF478
:102C3000FA7002F071FCE7490968086A0BF02EFA95
:102C4000E5A01EF011FAB0EE481AB0EE490AF0EE17
:102C5000690A294607A8FFF7CBFEE8A01EF004FA90
:102C600007A8FFF7BBFDEBA01EF0FEF9D9490968E4
:102C7000096A4868D7490968096A496809680022E9
:102C80008B68114698474FF4FA7002F045FCE7A0B4
:102C90001EF0EAF9CF490968486801210CF0B2F941
:102CA00040F6B83002F038FC07AC204622F08EFB2C
:102CB0000646204622F08EFB07463246394620461D
:102CC00022F0C8FA2168A068401A5A2190FBF1F658
:102CD00032462046216822F03CF800BF01208DE7F3
:102CE00010B52DED068B96B00446BA4800680CF07E
:102CF000F7FBD54988420CD0B6480068FFF748FD7D
:102D000038B9AAA01EF0B0F9002016B0BDEC068BB1
:102D100010BD00200090AF48006801231A46016AE8
:102D200002A80BF0B6F8AB490968086A0BF0B6F9CF
:102D3000A84800680CF0D4FBC349884226D0A548B7
:102D40000068416801A820F043FA182201A910A8E0
:102D50001BF072FB204619F0BEFF41EC180B9DEDF5
:102D6000122BB0EE421AF0EE621A9DED102BB0EE6F
:102D7000420AF0EE620A97490968096AB0EE482AE9
:102D8000F0EE682A88680AF0E9FC25E091480068BE
:102D90008168684608F0D2FF1C22694609A81BF02A
:102DA0004BFB204619F097FF41EC180B9DED092BCA
:102DB000B0EE421AF0EE621A9DED0B2BB0EE420A15
:102DC000F0EE620A83490968096AB0EE482AF0EE1B
:102DD000682A88680AF0C2FC00F09EF99BA01EF0E9
:102DE00043F97C490968096A88687A490968096A67
:102DF0008968096800228B68114698474FF4FA7079
:102E000002F08AFB4FF47A6002F086FB9AA01EF073
:102E10002BF970490968096A88686E490968096A66
:102E20008968096800228B691146984741F2883009
:102E300002F072FB94A01EF017F966490968096A4E
:102E4000886864490968096A8968096800220B6A08
:102E5000114698474FF47A6002F05EFB204619F065
:102E60003AFF41EC190B9FED8A0B53EC102B19F034
:102E700051FE41EC180B53EC182B87A01EF0F4F810
:102E8000204619F028FF41EC1A0B9FED810B53EC03
:102E9000102B19F03FFE41EC190B19F0B5FF08EEAD
:102EA000100A4C490968096A002288681146B0EE88
:102EB000480A0AF02CFA42F2107002F02DFB81A0B1
:102EC0001EF0D2F801208DF81C00B1EE040A10EEBD
:102ED000100ACDF81D003F490968096A00231A4607
:102EE000886807A90AF06EF942F2107002F014FB2C
:102EF00044F6206002F010FB7FA01EF0B5F83549C3
:102F00000968096A886833490968096A896809682B
:102F100000220B69114698474FF47A7002F0FCFAD0
:102F200077A01EF0A1F82B4800680CF0D9FA4649AA
:102F3000884209D027490968486801210CF062F8E5
:102F400040F6B83002F0E8FA00F0ACFADDE610B571
:102F500000230A22012103200EF0FCFC6A490860CC
:102F600006232422022103200EF0F4FC67490860A6
:102F70006748007800F00100002815D164481EF071
:102F8000C1F9002810D00C201EF048F8041E05D00E
:102F9000002120460FF0B8FD044600E000205D4906
:102FA00008605B48AFF3008010BD00004661696CAB
:102FB000656420746F20736574207570205375628A
:102FC000736372697074696F6E210A008DEDB5A02C
:102FD000F7C6B03E08000020496E697469616C69EB
:102FE0007A696E6720576179706F696E74204D69D8
:102FF0007373696F6E2E2E0A0000000043726561C4
:1030000074696E6720576179706F696E74732E2EC4
:103010000A00000055706C6F6164696E672057612B
:1030200079706F696E74732E2E0A0000537461728A
:1030300074696E6720576179706F696E74204D698D
:103040007373696F6E2E0A00000A01035374617274
:103050007420776974682064656661756C74207289
:103060006F746174696F6E20726174653A203135D6
:10307000206465672F730000506175736520666F6B
:10308000722035730A000000526573756D650A0081
:10309000000000000000F83F557064617465207204
:1030A000616469757320746F20312E35783A206E13
:1030B000657720726164697573203D2025302E3359
:1030C000660A000055706461746520686F74706FE3
:1030D000696E7420726F746174696F6E20726174AE
:1030E000653A206E65772072617465203D20352039
:1030F0006465672F730A000053746F700A00000044
:103100004C616E640A000000B8000020BC00002082
:1031100020060020240600202DE9F04F2DED048B21
:1031200099B0FA4800680CF0DBF9F949884229D0D7
:10313000002018904FF00A0BF64800681490022007
:103140001390002012901298F049CDE9000B096805
:1031500014AB4868139A18990BF0FEFB1190119864
:1031600028B9119819B0BDEC048BBDE8F08FE74980
:103170000968486818990BF041FD4FF4FA7002F0A5
:10318000CBF900BFE14909680022C868114609F07F
:10319000D0FA4FF4FA7002F0BFF943F698244FF4D6
:1031A000FA7500270020179016901590D7490968E6
:1031B000086812F0B3F880460068C1684046884746
:1031C000061900BF4FF4FA6002F0A6F9CF48006874
:1031D0000CF086F9CE49884210D0CC49096848687D
:1031E00020F046F9012820D1C8490968486820F034
:1031F00089F9292819D10120179023E0C3490968CA
:10320000886808F0A5FE13909DF84C00022809D0AC
:10321000BE490968886808F09BFE14909DF850002C
:10322000032802D1012017900CE0B849096808680A
:1032300012F074F883460068C168584688474719F9
:10324000B742BFD300BF1798A0B9B3A01DF00CFFC1
:10325000AE4800680CF044F9AD49884208D0AB494B
:103260000968486818990BF0CDFE322002F054F935
:10327000002077E7B3A01DF0F7FEA44909680868AD
:1032800012F04CF881460068C16848468847061924
:1032900000BF4FF4FA6002F03FF99C4800680CF060
:1032A0001FF99B49884217D098490968486820F05F
:1032B000DFF802281DD195490968486820F022F9F5
:1032C0000A2806D091490968486820F01BF90B28A4
:1032D0000FD10120169019E08C490968886808F020
:1032E00037FE14909DF85000032802D1012016905B
:1032F0000CE086490968086812F010F883460068F7
:10330000C168584688474719B742C2D300BF1698CC
:10331000A8B992481DF0A8FE7C4800680CF0E0F8BF
:103320007B49884209D079490968486818990BF0A7
:1033300069FE4FF4FA7002F0EFF8002012E788A05F
:103340001DF092FE71490968086811F0E7FF824696
:103350000068C1685046884706196C4800680CF040
:10336000BFF86B49884223D000BF4FF4FA6002F0E7
:10337000D3F866490968486820F0C4F80A2806D1DD
:1033800062490968486820F0BDF80B2802D0012086
:1033900015900CE05D490968086811F0BFFF83468D
:1033A0000068C168584688474719B742DDD300BF57
:1033B000564800680CF094F85549884220D053498B
:1033C0000968486820F09EF8062806D14F49096828
:1033D000486820F097F8012803D067A01DF044FE4C
:1033E0004DE06B481DF040FE48490968486818994F
:1033F0000BF008FE4FF4FA7002F08EF80020B1E6F0
:1034000042480068816807A808F098FC00BF40F6B1
:10341000B83002F081F83D4800688168684608F0DD
:103420008DFC1C2269460EA81BF006F8DDED120A81
:103430009DED0B1A30EEC10AB0EEC08A00BF9DEDC3
:10344000120A8DED0B0A18EE100A19F09AFC41ECE5
:10345000190B9FED500B53EC102B19F0BDFCD6D976
:103460009DED120A10EE101A084619F08AFC41EC84
:10347000190B53EC192B49A01DF0F6FD00BF234892
:1034800000680CF02DF82249884209D01F490968CC
:10349000486818990BF0B6FD40F6B83002F03CF8D9
:1034A00001205FE62DE9F04F93B047F230544FF41E
:1034B000FA754FF0000A00201290119010900F90B2
:1034C0000A200E90114800680CF00AF81049884252
:1034D0007FD01048001D00680D9002200C904FF026
:1034E000000B0E9880B20949CDE900B009680DAB18
:1034F00048680C9A0F990BF02FFA8146B9F1000F2A
:103500005CD1484613B0BDE8F08F62E008000020AF
:10351000000A0103C05B020854616B656F66662098
:103520006661696C65642E204D6F746F72732066DE
:1035300061696C656420746F207374617274210A10
:10354000000000000A5375636365737366756C2031
:1035500074616B656F6666210A0000000C7E0208CC
:1035600056656869636C6520617363656E64696E36
:10357000672E2E2E0A00000056656869636C652070
:10358000697320686F766572696E670A00000000D3
:103590005C7D02083BDF4F8D976E823F416972630D
:1035A0007261667420686F766572696E67206174F7
:1035B00020252E35666D21200A000000FE4909688D
:1035C00048680F990BF01AFB4FF4FA7001F0A4FF52
:1035D00000BFF94909680022C868114609F027F9B7
:1035E0004FF4FA7001F098FFF3490968086811F088
:1035F00095FE07460068C16838468847061900BF2F
:103600004FF4FA6001F088FFEB4800680BF068FFA8
:10361000EA49884209D0E849096848681FF072FF02
:103620000C280FD1012012901AE0E349096888683C
:1036300008F08EFC0D909DF83400042802D0012083
:1036400012900DE0DC490968086811F067FE8146B8
:103650000068C1684846884710EB050AB245CFD3D9
:1036600000BF1298B8B9D6A01DF0FEFCD248006881
:103670000BF036FFD149884209D0CF490968486824
:103680000F990BF0BFFC4FF4FA7001F045FF0020DA
:1036900013B0BDE8F08FD6A01DF0E6FCC64909685E
:1036A000086811F03BFE80460068C16840468847C4
:1036B000061900BF4FF4FA6001F02EFFBE48006803
:1036C0000BF00EFFBD4988421ED0BB49096848680F
:1036D0001FF018FF0C2846D0B749096848681FF04A
:1036E000C7FE02283FD0B449096848681FF00AFFA6
:1036F000062806D1B049096848681FF003FF012871
:1037000031D0012011903CE0AB490968886808F08D
:103710001FFC0D909DF83400052803D1642001F0B2
:10372000FBFE20E000BF4FF4FA6001F0F5FEA24876
:1037300000688168684608F001FB1C22694607A8FA
:103740001AF07AFE9DED0B0AB5EEC00AF1EE10FA02
:10375000E9D19DED0B0AB5EEC00AF1EE10FA01D1E8
:103760000120119000BF94490968086811F0D6FD46
:1037700081460068C1684846884710EB050AB24593
:1037800098D300BF119818B19EA01DF06DFC15E0F4
:10379000A2481DF069FC884800680BF0A1FE87492B
:1037A000884209D08449096848680F990BF02AFCBF
:1037B0004FF4FA7001F0B0FE002069E77E4800681F
:1037C0000BF08EFE7D49884209D07B490968486824
:1037D0000F990BF017FC40F6B83001F09DFE012068
:1037E00056E72DE9F05F2DED0A8B83460E46144611
:1037F0001D46714800680BF073FE7049884250D036
:103800002746A9464D46D9F80000D9F8041041ECE6
:10381000100B3C463868796853EC102B19F074F99A
:1038200041EC180BD9F80800D9F80C1041EC100B3A
:10383000B868F96853EC102B19F066F941EC190BD4
:103840009FED770B53EC102B51EC190B19F062F92B
:1038500019F0DAFA3060B868F96841EC100B1EF024
:103860000FFAB0EE40BAF0EE60BA9FED6D0B53EC7C
:10387000102B51EC180B19F04DF953EC1B2B19F0D0
:1038800049F919F0C1FA7060386900EE100AD9F8E8
:10389000100000EE900A30EE600A10EE100AB060E0
:1038A00056E0A046AA465546DAF80800DAF80C10A9
:1038B00041EC100B4446D8F80800D8F80C1053EC33
:1038C000102B19F021F941EC180BDAF80000DAF8A6
:1038D000041041EC100BD8F80000D8F8041053EC99
:1038E000102B19F011F941EC190B9FED4D0B53EC16
:1038F000102B51EC190B19F00DF919F085FA306005
:10390000D8F80000D8F8041041EC100B1EF0B8F9FC
:10391000B0EE40BAF0EE60BA9FED410B53EC102BC5
:1039200051EC180B19F0F6F853EC1B2B19F0F2F8C8
:1039300019F06AFA7060D8F8100000EE100ADAF890
:10394000100000EE900A30EE600A10EE100AB0602F
:10395000BDEC0A8BBDE8F09F30B52DED108B85B026
:1039600004462546A86800EE100A20EE000A10EE74
:10397000101A084619F005FA41EC190BE86800EE38
:10398000100A20EE000A10EE101A084619F0F9F994
:1039900041EC1F0B53EC192B19F015F841EC1E0BE1
:1039A0009FED210B53EC102B19F0B4F841EC1D0BDB
:1039B0009FED1F0B40E0000008000020000A0103FB
:1039C0004C616E64696E67206661696C65642E2067
:1039D0004169726372616674206973207374696CE3
:1039E0006C20696E20746865206169722E0A00007F
:1039F00056656869636C65206C616E64696E672EDC
:103A00002E2E0A005375636365737366756C206CA4
:103A1000616E64696E67210A00000000B47D0208CF
:103A200000000040A654584100000000000000C003
:103A3000000000000000F03F53EC102B18F0C3FF13
:103A400041EC1A0B686800EE100AA86800EE900AB4
:103A500020EE201A286800EE100AE86800EE900AAE
:103A600000EE201A11EE101A084619F08AF941ECFE
:103A70001D0B9FEDFE0B53EC102B19F04BF841EC96
:103A80001B0B686800EE100AE86800EE900A20EE52
:103A9000201A286800EE100AA86800EE900A00EECE
:103AA000601A11EE101A084619F06BF941EC1D0B63
:103AB0001FED230B53EC102B19F02CF841EC180BD5
:103AC000A86800EE100AE86800EE900A20EE201ABE
:103AD000286800EE100A686800EE900A00EE201ACE
:103AE00011EE101A084619F04CF941EC1D0B9FED30
:103AF000DF0B53EC102B19F00DF841EC1C0B686830
:103B000000EE100A20EE000A10EE101A084619F016
:103B100038F941EC1F0B53EC192B18F054FF41EC12
:103B20001E0B1FED3F0B53EC102B18F0F3FF41EC75
:103B30001D0B1FED410B53EC102B18F044FFCDE98A
:103B400000011FED450B53EC102B51EC180B19F035
:103B500043F902D21FED4A0B03E0B0EE480AF0EE43
:103B6000680AB0EE408AF0EE608A9FEDC20B53EC1B
:103B7000102B51EC180B19F017F902D29FEDBD0B69
:103B800003E0B0EE480AF0EE680AB0EE408AF0EECC
:103B9000608AB0EE480AF0EE680A1DF05DFCB0EEF7
:103BA00040DAF0EE60DA51EC1D0B19F02DF90290BD
:103BB0009DED001BB0EE4C0AF0EE6C0A1DF068FFA4
:103BC000B0EE40DAF0EE60DA51EC1D0B19F01CF9A2
:103BD0000390B0EE4A1AF0EE6A1AB0EE4B0AF0EE1D
:103BE0006B0A1DF055FFB0EE40DAF0EE60DA51ECF2
:103BF0001D0B19F009F904909DED020ADDED030A91
:103C00009DED041A05B0BDEC108B30BD2DE9F04FD1
:103C10002DED060B2DED108BB7B0B0EE408AF0EE17
:103C2000608AB0EE419AF0EE61FAF0EE429A934863
:103C30003590322034904FF47A71349891FBF0F53E
:103C400005EB850040003390322005FB00FA002090
:103C50003290322031908A4800680BF041FC89494B
:103C600088422DD0884800680690022005900020E8
:103C70000490319880B20499CDE900108049096818
:103C800006AB4868059A32990AF066FE8346BBF196
:103C9000000F06D1584637B0BDEC108B06B0BDE81A
:103CA000F08F77490968486832990AF0A7FF4FF406
:103CB000FA7001F031FC4FF4FA5001F02DFC00BF16
:103CC0006F4800680BF00CFC6E49884217D06C48B6
:103CD0000068416801A81FF07BFA182201A92BA8EF
:103CE0001AF0AAFB18222BA925A81AF0A5FB25ABD0
:103CF0002BAA14A962480068FFF773FD16E060481C
:103D000000688168684608F019F81C2269461EA8F8
:103D10001AF092FB1C221EA917A81AF08DFB17ABF4
:103D20001EAA14A956480068FFF75BFD9DED140A12
:103D300038EE400A10EE101A084619F022F841EC4D
:103D40001C0B9DED150A38EEC00A10EE101A08463D
:103D500019F017F841EC1D0B9DED160AB1EE400A63
:103D600039EE400A10EE101A084619F00AF8CDE9AB
:103D700012011FEE900A19F004F89FED440B53EC6A
:103D8000102BCDE904019DED040B51EC100B18F044
:103D9000C1FE41EC1A0B4C9818F0F3FF9FED3B0B62
:103DA00053EC102BCDE904019DED040B51EC100BED
:103DB00018F0B0FE41EC1E0B314800680BF090FB90
:103DC000304988422BD02E49096848681FF0A6F96F
:103DD0008DED0E0ACDED0F0A8DED101ACDED111AF5
:103DE0000EA8FFF7B9FD8DED040ACDED050A8DEDA6
:103DF000061A9DED060A10EE101A084618F0C1FFCB
:103E00009FED220B53EC102BCDE902019DED020B2F
:103E100051EC100B18F0F0FE41EC1B0B40E0184980
:103E20000968886807F0AFFE8DED0A0ACDED0B0A30
:103E30008DED0C1ACDED0D1A0AA8FFF78DFD8DED55
:103E4000040ACDED050A8DED061A9DED060A10EE69
:103E5000101A084618F095FF9FED0C0B53EC102B31
:103E6000CDE902019DED020B14E00000000000000E
:103E700000000040000000000000F0BFA08601002C
:103E800008000020000A0103C85B020811DD52A2ED
:103E900046DF913F51EC100B18F0AEFE41EC1B0BCE
:103EA00000270026B046B14602249FEDFE0A8DEDA4
:103EB000070AFD4800680BF013FBFC49884203D158
:103EC0009FEDFB0A8DED070AB5EEC08AF1EE10FA00
:103ED00012DD00EE104AB8EEC00AB4EEC08AF1EE70
:103EE00010FA02D2B0EE480A03E000EE104AB8EE33
:103EF000C00A8DED090A1DE0B5EEC08AF1EE10FA98
:103F000014D2604200EE100AB8EEC00AB4EEC80A3D
:103F1000F1EE10FA02D2B0EE480A04E0604200EE80
:103F2000100AB8EEC00A8DED090A03E09FEDE10A20
:103F30008DED090AF5EEC08AF1EE10FA12DD00EE01
:103F4000104AB8EEC00AF4EEC08AF1EE10FA02D2BE
:103F5000B0EE680A03E000EE104AB8EEC00A8DED3C
:103F6000080A1DE0F5EEC08AF1EE10FA14D26042A4
:103F700000EE100AB8EEC00AB4EEE80AF1EE10FA4C
:103F800002D2B0EE680A04E0604200EE100AB8EE19
:103F9000C00A8DED080A03E09FEDC60A8DED080A00
:103FA000C14800680BF09CFAC049884204D09DEDDE
:103FB0002F0A30EE09FA03E09DED220A30EE09FAED
:103FC000B0E11FED4E0B53EC102B51EC1A0B18F017
:103FD00013FECDE904019DED040B51EC100B18F01C
:103FE00013FFB14906900968C868DDED061AB0EE06
:103FF0004F1ADDED080A9DED090A08F0AEFCA8B2E3
:1040000001F08AFA2F44A84800680BF069FAA74922
:10401000884231D0A449096848681FF07FF88DEDC7
:104020000E0ACDED0F0A8DED101ACDED111A0EA866
:10403000FFF792FC8DED040ACDED050A8DED061A11
:104040009DED060A10EE101A084618F09AFE41EC93
:104050001B0B95480068416801A81FF0B9F81822A9
:1040600001A92BA81AF0E8F925AB2BAA14A98E48B0
:104070000068FFF7B6FB30E08B490968886807F0F5
:1040800082FD8DED0A0ACDED0B0A8DED0C1ACDEDFA
:104090000D1A0AA8FFF760FC8DED040ACDED050AA4
:1040A0008DED061A9DED060A10EE101A084618F05E
:1040B00068FE41EC1B0B7C4800688168684607F08D
:1040C0003DFE1C2269461EA81AF0B6F917AB1EAABF
:1040D00014A975480068FFF784FB9DED140A38EEBB
:1040E000400A10EE101A084618F04BFE41EC1C0B6B
:1040F0009DED150A38EEC00A10EE101A084618F0A9
:1041000040FE41EC1D0B9DED160AB1EE400A39EE62
:10411000400A10EE101A084618F033FECDE91201DD
:10412000204618F0D8FDB0EE4C0AF0EE6C0ACDE94E
:1041300004011CF057FF8DED020B9DED040B53ECB9
:10414000102B9DED020B51EC100B18F02DFE04D23C
:1041500051EC1C0B18F058FE0990204618F0BBFDDE
:10416000B0EE4D0AF0EE6D0ACDE904011CF03AFF05
:104170008DED020B9DED040B53EC102B9DED020B0E
:1041800051EC100B18F010FE04D251EC1D0B18F07E
:104190003BFE0890444800680BF0A2F9434988426E
:1041A0004AD119EE900A18F0ECFDB0EE4C0AF0EE90
:1041B0006C0ACDE904011CF015FF8DED020B9DED9D
:1041C000040B53EC102B9DED020B51EC100B18F06F
:1041D000EBFD31D219EE900A18F0D3FDB0EE4D0A86
:1041E000F0EE6D0ACDE904011CF0FCFE8DED020B32
:1041F0009DED040B53EC102B9DED020B51EC100BBD
:1042000018F0D2FD18D253EC1A2B51EC1B0B18F0FE
:104210007BFCCDE902019DED020B1CF0E3FE8DED70
:10422000040B53EC1E2B9DED040B51EC100B18F0FE
:10423000BBFD01D22E446DE019EE900A18F0A1FDED
:10424000B0EE4C0AF0EE6C0ACDE904011CF0CAFE97
:104250008DED020B9DED040B53EC102B9DED020B2D
:1042600051EC100B18F0A0FD52D219EE900A18F084
:1042700088FDB0EE4D0AF0EE6D0ACDE904011CF0A8
:10428000B1FE8DED020B9DED040B53EC102B9DED5B
:10429000020B51EC100B18F087FD39D2079818F07B
:1042A00070FD09E08FC2F53D08000020000A0103FF
:1042B0009A99993F00000000CDE904019DED120B91
:1042C0001CF090FE8DED020B9DED040B53EC102BBA
:1042D0009DED020B51EC100B18F066FD18D253EC5B
:1042E0001A2B51EC1B0B18F00FFCCDE902019DEDD0
:1042F000020B1CF077FE8DED040B53EC1E2B9DED95
:10430000040B51EC100B18F04FFD01D22E4401E0CC
:1043100006B1A8443398804501DD0026B0465645D5
:1043200000DB03E035988742FFF64BAE00BF4E48F6
:1043300000680BF0D5F84D4988420BD008E04A4997
:104340000968C86808F0FDFBA8B201F0E5F8A944C7
:10435000D145F4DB3598874216DB45A01CF084FE7E
:10436000414800680BF0BCF84049884209D03E49FA
:104370000968486832990AF045FE4FF4FA7001F076
:10438000CBF83F48007886E4374800680BF0A8F87F
:104390003649884209D034490968486832990AF098
:1043A00031FE40F6B83001F0B7F83648007872E4D4
:1043B0002DE9F047054642F210774FF032084FF4EE
:1043C0007A7090FBF8F404EB84004FEA4009322045
:1043D00004FB00FA002612E0234909685FED4B1A3E
:1043E0001FED4C1A5FED4D0A00EE105AB8EEC00AF0
:1043F000C86808F0DBFAA0B201F08EF82644BE428D
:10440000EADB20480078BDE8F08710B500230A22D7
:10441000012103200DF09EFA1B4908600623242287
:10442000022103200DF096FA184908601848007818
:1044300000F00100002815D115481CF063FF00288A
:1044400010D00C201CF0EAFD041E05D000212046EF
:104450000EF05AFB044600E000200E4908600C48AC
:10446000AFF3008010BD000008000020000A010327
:104470005461736B2074696D656F7574210A000057
:10448000CF5B0208CE5B0208C4000020C8000020F9
:10449000200600202406002010B52DED068B84B0E8
:1044A000044694ED020A10EE101A084618F069FC52
:1044B00041EC180B94ED010A10EE101A084618F0A2
:1044C00060FC41EC190B94ED000A10EE101A08463E
:1044D00018F057FC41EC1A0B8DED028B8DED009B13
:1044E00053EC1A2BFEA01CF0BFFD04B0BDEC068BF4
:1044F00010BD1CB5044694ED000ABDEEC00A10EED6
:10450000100A00B2ADF8020094ED010ABDEEC00A37
:1045100010EE100A00B2ADF8040094ED020ABDEEF0
:10452000C00A10EE100A00B2ADF80000207B8DF832
:1045300007009DF806008DF806009DF80600217C16
:104540000843C0B28DF806009DF80600217D40EAC0
:104550004100C0B28DF806009DF80600A17D40EA3A
:104560008100C0B28DF806009DF80600617D40EA2A
:10457000C100C0B28DF80600E7490968486969467C
:1045800008F0D5FB4FF47A6000F0C6FF1CBD00B503
:10459000B5B0002022909FEDE11ADFEDE00A9FED1B
:1045A000DF0A2FA81AF018FB9FEDDC1ADFEDDB0AFB
:1045B0009FEDDA0A099032A81AF00EFB089000204D
:1045C000019002900390049000900998D0ED022A87
:1045D00090ED012AD0ED001A089890ED021AD0ED66
:1045E000010A90ED000A00231A46194616A81AF08F
:1045F000FAFA9FEDCA1ADFEDC90A9FEDC80A13A89F
:104600001AF0EAFA9FEDC51ADFEDC40A9FEDC30A5E
:1046100010A81AF0E1FA00200D900A200C90BE4874
:1046200000680AF05DFFBE4988422AD0BD48006894
:10463000099002200890002007900C9880B20799FA
:10464000CDE90010B4480068406809AB0590089AAD
:104650000D990AF081F90690069810B9069835B0C0
:1046600000BDAD480068406805900D990AF0C6FA93
:104670004FF4FA7000F050FF4FF4FA6000F04CFF76
:1046800000BFA9481CF0F0FCA34800680AF028FF0E
:10469000A349884230D0A0480068406806901EF0C8
:1046A00047FE8DED070ACDED080A8DED091A9DED47
:1046B000080A8DED130A98480068406806901EF0BD
:1046C00037FE8DED070ACDED080A8DED091A9DED37
:1046D000070A8DED140A90480068406806901EF0A5
:1046E00027FE8DED070ACDED080A8DED091A9DED27
:1046F000090A8DED150A35E0874800688068014693
:10470000019002A807F0FDFB02A80FC8CDE908231D
:10471000CDE906019DED060A8DED130A7E4800687D
:1047200080680146019002A807F0EBFB02A80FC8C1
:10473000CDE90823CDE906019DED070A8DED140AA8
:104740007548006880680146019002A807F0D9FB0F
:1047500002A80FC8CDE90823CDE906019DED080A9E
:104760008DED150A1598039018F00BFBCDE90801A3
:104770001498039018F005FBCDE9060113980390F7
:1047800018F0FFFACDE90401DDE90801CDE90201E5
:10479000DDE90601CDE900019DED040B53EC102B82
:1047A00062A01CF061FC9FED5D1ADFED5C0A9FEDDD
:1047B0005B0A2FA81AF010FA099000200123CDE916
:1047C000013003900490142000900998D0ED022A43
:1047D00090ED012AD0ED001A9DED151ADDED140AB9
:1047E0009DED130A00231A46194623A81AF0FBF977
:1047F00030220146089016A819F01EFE16A8FFF7F1
:1048000078FE59481CF030FC434800680AF068FE06
:104810004349884230D040480068406806901EF006
:1048200087FD8DED070ACDED080A8DED091A9DED86
:10483000080A8DED100A38480068406806901EF09E
:1048400077FD8DED070ACDED080A8DED091A9DED76
:10485000070A8DED110A30480068406806901EF086
:1048600067FD8DED070ACDED080A8DED091A9DED66
:10487000090A8DED120A7DE027480068806801462C
:10488000019002A807F03DFB02A80FC8CDE908235C
:10489000CDE906019DED060A8DED100A1E4800685F
:1048A00080680146019002A807F02BFB02A80FC800
:1048B000CDE90823CDE906019DED070A8DED110A2A
:1048C0001548006880680146019002A807F019FBAE
:1048D00002A80FC8CDE90823CDE9060146E0000093
:1048E0004E65772047696D62616C20726F746174E8
:1048F000696F6E20616E676C65206973205B20258F
:10490000302E33662C2025302E33662C2025302E79
:104910003366205D0A0A0000080000200000000045
:10492000000A0103CC5B02085C7E0208496E6974D0
:1049300069616C2047696D62616C20726F7461748B
:10494000696F6E20616E676C653A205B2025302EA2
:1049500033662C2025302E33662C2025302E3366EE
:10496000205D0A0A00000000088002089DED080A88
:104970008DED120A00200190029003900490142003
:104980000090DDED122A9DED112ADDED101A9DED4E
:10499000151ADDED140A9DED130A4FF4E163C822E8
:1049A000002123A81AF01FF930220146099016A809
:1049B00019F042FD16A8FFF79CFDFE4800680AF0BA
:1049C0008FFDFD49884230D0FA4800684068069063
:1049D0001EF0AEFC8DED070ACDED080A8DED091A2B
:1049E0009DED080A8DED100AF248006840680690B7
:1049F0001EF09EFC8DED070ACDED080A8DED091A1B
:104A00009DED070A8DED110AEA480068406806909E
:104A10001EF08EFC8DED070ACDED080A8DED091A0A
:104A20009DED090A8DED120A35E0E24800688068C4
:104A30000146019002A807F064FA02A80FC8CDE968
:104A40000823CDE906019DED060A8DED100AD9482F
:104A5000006880680146019002A807F052FA02A897
:104A60000FC8CDE90823CDE906019DED070A8DEDBC
:104A7000110AD048006880680146019002A807F03A
:104A800040FA02A80FC8CDE90823CDE906019DED43
:104A9000080A8DED120A10A8FFF7FEFCC7A01CF053
:104AA000E3FACDA01CF0E0FAC24800680069099062
:104AB00007F042FCCDA01CF0D7FAD8481CF0D4FA7D
:104AC0001FED6A1A5FED6B0A1FED6C0A2FA81AF032
:104AD00083F8099000200123CDE901300390049070
:104AE000142000900998D0ED022A90ED012AD0ED13
:104AF000001A9DED151ADDED140A9DED130A002331
:104B0000C74A194623A81AF06EF8302201460890C9
:104B100016A819F091FC16A8FFF7EBFCA548006851
:104B20000AF0DEFCA449884230D0A2480068406800
:104B300006901EF0FDFB8DED070ACDED080A8DED08
:104B4000091A9DED080A8DED100A9A480068406820
:104B500006901EF0EDFB8DED070ACDED080A8DEDF8
:104B6000091A9DED070A8DED110A92480068406808
:104B700006901EF0DDFB8DED070ACDED080A8DEDE8
:104B8000091A9DED090A8DED120A35E08948006881
:104B900080680146019002A807F0B3F902A80FC887
:104BA000CDE90823CDE906019DED060A8DED100A39
:104BB0008048006880680146019002A807F0A1F9CA
:104BC00002A80FC8CDE90823CDE906019DED070A2B
:104BD0008DED110A7748006880680146019002A8AF
:104BE00007F08FF902A80FC8CDE90823CDE9060127
:104BF0009DED080A8DED120A10A8FFF74DFC6FA07D
:104C00001CF032FA87A01CF02FFA6A48006800698D
:104C1000099007F098FB88481CF026FA87A01CF042
:104C200023FA6420ADF83A003220ADF83C006FF072
:104C3000C700ADF838004FF47A600B9064200A90FA
:104C4000002009900FE05B48006840690EA90890B9
:104C500008F083F80A9880B2089000F05DFCDDE966
:104C60000901084409900B9909988842EBDB5148E7
:104C700000680AF035FC5049884230D04D48006841
:104C8000406806901EF054FB8DED070ACDED080A32
:104C90008DED091A9DED080A8DED100A4548006852
:104CA000406806901EF044FB8DED070ACDED080A22
:104CB0008DED091A9DED070A8DED110A3D4800683A
:104CC000406806901EF034FB8DED070ACDED080A12
:104CD0008DED091A9DED090A8DED120A35E0354872
:104CE000006880680146019002A807F00AF902A84E
:104CF0000FC8CDE90823CDE906019DED060A8DED2B
:104D0000100A2C48006880680146019002A807F04C
:104D1000F8F802A80FC8CDE90823CDE906019DEDFA
:104D2000070A8DED110A234800688068014601904A
:104D300002A807F0E6F802A80FC8CDE90823CDE9DC
:104D400006019DED080A8DED120A10A8FFF7A4FBDD
:104D500049A01CF089F99FED4E1ADFED4D0A9FED39
:104D60004C0A2FA819F038FF099000200123CDE943
:104D7000013003900490142000900998D0ED022A8D
:104D800090ED012AD0ED001A9DED151ADDED140A03
:104D90009DED130A00231A46194623A819F023FF94
:104DA00030220146089016A819F046FB16A8FFF716
:104DB000A0FB6FE008000020000A0103456E737538
:104DC000726520534420636172642069732070729D
:104DD0006573656E742E0A0054616B696E6720708E
:104DE0006963747572652E2E0A000000436865635E
:104DF0006B20444A4920474F20417070206F722039
:104E00005344206361726420666F722061206E6576
:104E10007720706963747572652E0A00BC7F020882
:104E20000CFEFFFF5374617274696E6720766964CB
:104E3000656F2E2E0A000000F47E0208536574741C
:104E4000696E6720526F6C6C207261746520746F9C
:104E50002031302C205069746368207261746520A1
:104E6000746F20352C20596177205261746520744D
:104E70006F202D32302E0A00526573657474696E8E
:104E80006720706F736974696F6E2E2E2E0A000092
:104E900000000000634800680AF022FB6249884273
:104EA00030D060480068406806901EF041FA8DEDF1
:104EB000070ACDED080A8DED091A9DED080A8DED62
:104EC000100A58480068406806901EF031FA8DEDCF
:104ED000070ACDED080A8DED091A9DED070A8DED43
:104EE000110A50480068406806901EF021FA8DEDC6
:104EF000070ACDED080A8DED091A9DED090A8DED21
:104F0000120A39E04748006880680146019002A80B
:104F100006F0F7FF03A80DC80299CDE90823CDE9F3
:104F200006109DED060A8DED100A3E480068806867
:104F30000146019002A806F0E4FF02A90EC90598F7
:104F4000CDE90723069109909DED070A8DED110A21
:104F50003448006880680146019002A806F0D1FF3D
:104F6000DDE90403DDE90212CDE90803CDE906120B
:104F70009DED080A8DED120A10A8FFF78DFA2BA0FF
:104F80001CF072F8274800680069099007F0E2F900
:104F90004FF47A7000F0C0FA29A01CF065F821489F
:104FA00000680AF09DFA204988420AD01D4800682E
:104FB000406809900D990AF025F840F6B83000F0E5
:104FC000ABFA0120FFF74BBB10B500230A220121E9
:104FD00003200CF0BFFC264908600623242202218E
:104FE00003200CF0B7FC234908602348007800F048
:104FF0000100002815D120481CF084F9002810D0A9
:105000000C201CF00BF8041E05D0002120460DF0EA
:105010007BFD044600E00020184908601648AFF305
:10502000008010BD08000020000A010353746F7057
:1050300070696E6720766964656F2E2E2E0A0000F7
:10504000436865636B20444A4920474F2041707094
:10505000206F72205344206361726420666F722057
:1050600061206E657720766964656F2E0A00000006
:10507000D0000020D40000202006002024060020BC
:1050800000B52DED040B2DED108B89B09DED1B0AA5
:1050900020EE000A10EE101A084617F072FE41ECDE
:1050A000190B9DED1C0A20EE000A10EE101A08469E
:1050B00017F067FE41EC1F0B53EC192B17F083FC24
:1050C00041EC1E0B9FEDA10B53EC102B17F022FDB2
:1050D00041EC1D0B9FED9F0B53EC102B17F073FC55
:1050E00041EC1A0B9DED1A0ADDED1B0A20EE200A99
:1050F000DDED190A9DED1C1A00EE810A10EE101A62
:10510000084617F03EFE41EC1D0B9FED940B53EC4F
:10511000102B17F0FFFC41EC1B0B9DED1A0ADDED87
:105120001C0A20EE200ADDED190A9DED1B1A00EE87
:10513000C10A10EE101A084617F023FE41EC1D0BB1
:105140009FED820B53EC102B17F0E4FC41EC180B95
:105150009DED1B0ADDED1C0A20EE200ADDED190A8B
:105160009DED1A1A00EE810A10EE101A084617F08B
:1051700008FE41EC1D0B9FED790B53EC102B17F043
:10518000C9FC41EC1C0B9DED1A0A20EE000A10EE42
:10519000101A084617F0F5FD41EC1F0B53EC192BC4
:1051A00017F011FC41EC1E0B9FED680B53EC102B1C
:1051B00017F0B0FC41EC1D0B9FED660B53EC102B70
:1051C00017F001FCCDE900019FED620B53EC102BB1
:1051D00051EC180B17F000FE02D29FED5E0B03E0BE
:1051E000B0EE480AF0EE680AB0EE408AF0EE608A4F
:1051F0009FED5C0B53EC102B51EC180B17F0D4FD0A
:1052000002D29FED580B03E0B0EE480AF0EE680AB8
:10521000B0EE408AF0EE608AB0EE480AF0EE680A1E
:105220001CF01AF98DED060B9DED001BB0EE4C0A3B
:10523000F0EE6C0A1CF02CFC8DED040BB0EE4A1A5B
:10524000F0EE6A1AB0EE4B0AF0EE6B0A1CF020FC8E
:105250008DED020B9DED020B9DED041B9DED062BCC
:1052600009B0BDEC108B0FBD00B52DED040B87B060
:10527000DDED0A1A9DED091ADDED080A9DED070A1C
:10528000FFF7FEFE8DED000B8DED021B8DED042B67
:105290009DED000B0BB000BD00B52DED040B87B0EC
:1052A000DDED0A1A9DED091ADDED080A9DED070AEC
:1052B000FFF7E6FE8DED000B8DED021B8DED042B4F
:1052C0009DED020B0BB000BD00B52DED040B87B0BA
:1052D000DDED0A1A9DED091ADDED080A9DED070ABC
:1052E000FFF7CEFE8DED000B8DED021B8DED042B37
:1052F0009DED040B0BB000BD10B52DED048BB0EE91
:10530000408AF0EE608A9FED190B53EC102B51ECA4
:10531000180B17F0FFFB41EC190BB0EE490AF0EE49
:10532000690ABDEC048B10BD10B500230A220121CF
:1053300003200CF00FFB0F490860062324220221F2
:1053400003200CF007FB0C49086010BD00000000B2
:10535000000000C0000000000000F03F000000005E
:1053600000000040000000000000F0BFE8C35CB097
:10537000DDA54C40DC000020E000002010B500F06E
:105380009DF84FF4A06000F0B7F913F09CFB12F009
:10539000CBFD11F0CEF811F03FFA11F0EEFD00F068
:1053A00046F910F0ADFA11F057FF10F0C5FF10BD2F
:1053B00010B500230A22012103200CF0CBFA054985
:1053C000086006232422022103200CF0C3FA0249BC
:1053D000086010BDE8000020EC0000201FB501218E
:1053E000084602F00CF90121084602F008F90020F5
:1053F000ADF80C00ADF80600C720029042F2CF00D5
:10540000ADF8040000208DF80E0001A9534802F009
:105410009EFA19208DF8000003208DF801008DF808
:10542000020001208DF80300684600F06AF90121AE
:105430004A4802F041FF01221146484802F028FF85
:105440000021464802F00CFB1FBD1FB50121084694
:1054500002F0C4F80121084602F0C0F80020ADF8BF
:105460000C00ADF80600C7200290272002904AF2F7
:105470000F40ADF8040001A94FF0804002F067FA38
:105480001C208DF8000002208DF8010003208DF80B
:10549000020001208DF80300684600F032F9012176
:1054A000880702F009FF01221146900702F0F0FE82
:1054B00000214FF0804002F0D3FA1FBD30B52848DC
:1054C00000684FF47A72B0FBF2F1B1F1807F01D342
:1054D00001201DE021F07F40401E4FF0E02250618E
:1054E00050170022002807DA13071D0E1D4B00F08D
:1054F0000F04241F1D5503E013071C0E1A4B1C54E8
:1055000000BF00204FF0E0229061072010610020D2
:1055100008B100BFFEE730BD002106E047F2305180
:1055200000BF0A1EA1F10101FBD1021EA0F101037F
:1055300098B2F3D1704710B500230A22012103204D
:105540000CF008FA094908600623242202210320EE
:105550000CF000FA0649086010BD00000000014090
:105560002401002018ED00E000E400E0F800002035
:10557000FC00002000B587B00121084601F0FBFFC8
:105580000121102002F03BF84FF4C060059002208A
:105590008DF818008DF8190000208DF81A000120F0
:1055A0008DF81B0005A94C4801F002FD07220921D6
:1055B000494801F088FD07220A21474801F083FD90
:1055C0004FF4613001900020ADF80800ADF80A00FA
:1055D000ADF80C00ADF810000C20ADF80E0001A9DC
:1055E0003E4802F0C0FF012240F225513B4803F043
:1055F000F8F80121394803F03EF800BF8021374810
:1056000003F014F90128F9D107B000BD08B5032053
:105610008DF8010002208DF8020025208DF8000091
:1056200001208DF80300684600F06BF808BD10B546
:10563000FFF7A0FFFFF7EAFF10BD10B5ADF51C7D29
:105640002021264803F0F2F801282FD10020244918
:105650000870224803F03EF8C4B22249096808687D
:1056600021490A6821460FF0D8FD204908700846F4
:10567000007801281AD14FF498721B4801680C3148
:10568000684618F0D9FE4FF49E72174801684DA87D
:1056900018F0D2FE13484DA90EC900680BF035FE74
:1056A00000201249087001200D4908700DF51C7D7D
:1056B00010BD10B500230A22012103200CF04AF985
:1056C0000B49086006232422022103200CF042F932
:1056D0000849086010BD00000000024000100140B1
:1056E0000401002008000020040000200100002028
:1056F000080100200C01002032490143324A1160A8
:10570000704770B5002100230F22C4781CB32E4CC3
:10571000246804F4E064C4F5E064C4F30721C1F133
:105720000404E3B20A4144789C40E1B28478144016
:1057300021430C07210E254C05786155047804F0AF
:105740001F050124AC4005786D11AD0005F1E02581
:10575000C5F8004109E0047804F01F050124AC40BD
:105760001B4D0678761145F8264070BD194A0A404F
:105770000243154B1B1F1A60704739B1124A121DA4
:1057800012680243104B1B1D1A6006E00E4A121DE0
:10579000126882430C4B1B1D1A607047042808D105
:1057A0004FF0E021096941F004014FF0E02211615E
:1057B00007E04FF0E021096921F004014FF0E022F9
:1057C000116170470000FA050CED00E000E400E014
:1057D00080E100E080FFFF1F10B50121080201F009
:1057E00078FF00214FF4807001F073FF10BD30B5D9
:1057F0000246002000235068F84C20400D790C68C8
:1058000044EA0524204350609068F54C2040D1E9DB
:1058100003542C438D682C434D7944EA45042043BE
:105820009060D06A20F470000C7D641EE4B22343C3
:1058300040EA0350D06230BD002101600171417126
:105840008160C16001610121017570470021E54A55
:105850001168E54A1140D0E900231A4383681A43CE
:10586000C3681A431143E14AC2F804137047002188
:10587000016041608160C160704721B1826842F07F
:105880000102826003E0826822F0010282607047B8
:105890000A4600214168D64B1940114341607047C8
:1058A0004162826270470A460021416821F01F016F
:1058B00011434160704738B1CA49096841F4000199
:1058C000CA4AC2F8041306E0C649096821F4000177
:1058D000C64AC2F80413704738B1C249096841F496
:1058E0008001C24AC2F8041306E0BE49096821F4E7
:1058F0008001BE4AC2F804137047F0B504460D4655
:1059000000200021092D11DDE068A5F10A0606EB53
:105910004607072606FA07F18843A5F10A0606EBB3
:10592000460603FA06F10843E0600CE0206905EB47
:105930004507072606FA07F1884305EB450603FAF3
:1059400006F108432061072A0FDA606B561E06EB4A
:1059500086071F2606FA07F18843561E06EB8606C1
:1059600005FA06F10843606322E00D2A0FDA206B86
:10597000D61F06EB86071F2606FA07F18843D61FB7
:1059800006EB860605FA06F10843206310E0E06A9C
:10599000A2F10D0606EB86071F2606FA07F18843DB
:1059A000A2F10D0606EB860605FA06F10843E06251
:1059B000F0BD816841F08041816070470146002060
:1059C0008A6802F480020AB1012000E000207047DA
:1059D00021B1826842F48062826003E0826822F42E
:1059E00080628260704721B1826842F00202826068
:1059F00003E0826822F002028260704710B50A4616
:105A000000210023416821F46041531E41EA4331E3
:105A1000416010BD21B1426842F40062426003E07F
:105A2000426822F40062426070470146C86C80B24E
:105A300070476C48001D0068704721B1826842F4CD
:105A40008072826003E0826822F480728260704714
:105A500021B1826842F40072826003E0826822F41D
:105A600000728260704738B15E49096841F40051A4
:105A70005E4AC2F8041306E05A49096821F400514D
:105A80005A4AC2F804137047F0B504461546002080
:105A900000220026092911DDE068A1F10A0707EBC1
:105AA000470C072707FA0CF29043A1F10A0707EB0E
:105AB000470703FA07F21043E0600CE0206901EBAE
:105AC000410C072707FA0CF2904301EB410703FA58
:105AD00007F210432061A06BC0F30156EF1C06F1E2
