:020000040800F2
:10000000B0C00020858800088D8800088F8800080F
:100010009188000893880008958800080000000077
:1000200000000000000000000000000097880008A9
:1000300099880008000000009B880008817801086A
:100040009F8800089F8800089F8800089F880008F4
:100050009F8800089F8800089F8800089F880008E4
:100060009F8800089F8800089F8800089F880008D4
:100070009F8800089F8800089F8800089F880008C4
:100080009F8800089F8800089F8800089F880008B4
:100090002D8A01089F8800089F8800089F88000813
:1000A0009F8800089F8800089F8800089F88000894
:1000B0009F8800089F8800089F8800089F88000884
:1000C0009F8800089F8800089F8800089F88000874
:1000D0009F8800083F58000841AD01084BAD01085A
:1000E0009F8800089F8800089F88000889A501084C
:1000F0009F88000825A701089F8800089F8800089E
:100100009F8800089F8800089F8800089F88000833
:1001100055AD01089F8800089F8800089F88000847
:100120009F8800089F8800089F8800089F88000813
:100130009F8800089F8800089F8800089F88000803
:10014000E18B01089F8800089F8800089F880008AD
:100150009F8800089F8800089F8800085FAD0108FD
:100160009F8800089F8800089F8800089F880008D3
:100170009F8800089F8800089F8800089F880008C3
:100180009F8800089F880008DFF814D01EF0A0FFA9
:100190001DF0BAFC004800470B0800081EF0AFFC39
:1001A000B0C00020FEB442464B4654465D463EB4C5
:1001B0001DF0F9F93EBC90469946A246AB46FEBCFE
:1001C00000F032F8704700BF80EC200B7047C0ECA5
:1001D000200B704790EC200B7047D0EC200B704741
:1001E00085460D98DDF838E00F9B5DF8042B20E97B
:1001F0000C009DE8FE1F854601BD4DF808ED0DF190
:10020000080E4DF804ED2DE9FF1F002102B46946E8
:1002100081B01EF0B0FEDDF840E012B07047000083
:1002200010AE020010C402004DF808ED0DF1080EEA
:100230004DF804ED2DE9FF1F002102B4694681B09D
:100240001EF000BF2DE9F0472DED048B4FF00009A3
:100250009FEDF90A10EE105A9FEDF70A10EE106AA2
:100260009FEDF50A10EE107A9FEDF30A10EE108A5A
:100270009FEDF10AB0EE408AB6EE000AF0EE408A39
:10028000B6EE000AB0EE409AB3EE040AF0EE409AE1
:10029000EA480078042803D0BDEC048BBDE8F08761
:1002A000E748807D00B9F7E7E548007F48B9E348B3
:1002B000007A28B1E148007A20F00200DF49087294
:1002C000EAE71BF001F9DF4801F0ABFADC4881896D
:1002D0000122DC481BF00EFEDB490870D848018A79
:1002E0000322D8481BF006FED7498871D448C1893B
:1002F0000222D4481BF0FEFDD349C870D048418A81
:100300000422D0481BF0F6FDCF494872002487E054
:1003100004EB4400CC49085C012813D104EB4400F1
:1003200008448078401E00EB4000085C032809D197
:10033000002104EB4400C44A10448078401E00EBC6
:100340004000115404EB4400BF49085C022813D15B
:1003500004EB440008448078401E00EB4000085C39
:10036000032809D1022104EB4400B74A10448078E5
:10037000401E00EB4000115404EB4400B249085CFD
:10038000032817D104EB440008448078401E00EB9A
:100390004000085C03280DD1022104EB4400AA4A66
:1003A00010448078401E00EB40001154022004EB02
:1003B0004401505404EB4400A349085C78BB04EBAF
:1003C000440008448078401E00EB4000085C03288D
:1003D00025D1611CC8B21BF044FD48B1002104EBDB
:1003E0004400994A10448078401E00EB40001154AC
:1003F00093480A30611C30F811009149C98B88423A
:100400000DDA022104EB44008F4A10448078401E2C
:1004100000EB40001154022004EB44015054641CD2
:10042000042CFFF675AF88480078012806D101F04A
:1004300011FB10EE105A012083490873824880791D
:10044000012807D1032001F005FB10EE105A01200E
:100450007D4908737C48C078012807D1022001F04B
:100460006FFB10EE106A0120774948737648407A96
:10047000012807D1042001F063FB10EE106A01206F
:100480007149487370480078022803D118EE105A59
:100490006D4908736C488079022805D1B1EE480A8D
:1004A00010EE105A684908736748C078022803D1D3
:1004B00018EE106A644948736348407A022805D1EF
:1004C000B1EE480A10EE106A5F4948735E48007842
:1004D000032805D1B1EE680A10EE105A5A49087384
:1004E00059488079032803D118EE905A5649087369
:1004F0005548C078032805D1B1EE680A10EE106A9D
:10050000514948735048407A032803D118EE906A45
:100510004D49487301201BF0A4FC70B903201BF067
:10052000A0FC50B94848007B022806D19FED420A42
:1005300010EE105A00204449087302201BF091FC71
:1005400070B904201BF08DFC50B93F48407B022855
:1005500006D19FED390A10EE106A00203A4948731F
:100560003948007B00281BDD3748407BC0B902209A
:100570001BF077FC40B1022001F0E2FA10EE106AA5
:100580000420314948730BE004201BF06AFC38B1A9
:10059000042001F0D5FA10EE106A04202A494873AD
:1005A0002948407B00281BDD2748007BC0B901207B
:1005B0001BF057FC40B1012001F04CFA10EE105A2C
:1005C0000420214908730BE003201BF04AFC38B1DA
:1005D000032001F03FFA10EE105A04201A49087364
:1005E0001948007B002803DC1748407B00283DDDCC
:1005F0004FF001091348B0F91C00B0F5FA7F02DD95
:1006000019EE107A0EE00F48B0F91C0010F5FA7FD1
:1006100004DAB1EE490A10EE107A03E09FED060A03
:1006200010EE107A0748B0F91E00B0F5FA7F0DDD24
:1006300019EE908A26E000000000000084000020EF
:10064000A0330020D833002000340020F648B0F951
:100650001E0010F5FA7F04DAB1EE690A10EE108A76
:1006600010E01FED0B0A10EE108A0BE04FF00009AE
:10067000002405E0002004EB4401EC4A5054641CC3
:10068000042CF7DB002409E004EB4400E749085C94
:1006900004EB4401E54A11444870641C042CF3DB6C
:1006A000B9F1000F0FD0E248C0F80150C0F8056062
:1006B000C0F80970C0F80D80DE48007A40F00200F2
:1006C000DC4908722AE0DB48007A28B1D948007A70
:1006D00020F00200D7490872D548D0F8010000EE9A
:1006E000100AB5EEC00AF1EE10FA06D01FED2E0A80
:1006F00010EE100ACE49C1F80100CD48D0F805002F
:1007000000EE100AB5EEC00AF1EE10FA06D01FEDA9
:10071000360A10EE100AC649C1F8050000BFBBE555
:10072000C54A107B517BC34A1278042A00D0704717
:10073000FC2801D0FC2910D10122BE4B5A70B7EE23
:10074000000A10EE102ABA4BC3F80920B94A127AEF
:1007500042F00102B74B1A721CE00022B54B5A70EE
:10076000B34AD2F8092000EE102AB5EEC00AF1EE25
:1007700010FA06D01FED500A10EE102AAC4BC3F849
:100780000920AC4A127A2AB1AA4A127A22F001024E
:10079000A84B1A7200BFCAE710B51AF052FD012823
:1007A00001D1FFF7BDFF10BD0020A44908601AE089
:1007B000A349A24A1268885C411ECAB2A0499F4B55
:1007C0001B68CA5450B108469C490968405C28B966
:1007D00000219B48001D994A12688154974800687F
:1007E000401C96490860954800680428E0DB95485D
:1007F000407848B193484078401E92494870084676
:10080000407808B90120087070473EB504F0B8FE82
:100810001AF03CFD4FF47A7004F080FF62208A4B9E
:100820008AA28E4900908E4821F014FE0446601C76
:1008300038B1B4F5967F04D289498AA021F0FAFD37
:1008400002E089A021F0F6FD8FA092A194A296A3C8
:10085000CDE90021029096A296A19B4821F0EAFDE5
:100860006420794B79A27D4900907D4821F0F2FD0A
:100870000446601C38B1B4F5967F04D2784979A05B
:1008800021F0D8FD02E078A021F0D4FD00F0B1FC09
:10089000002802DA4FF0FF303EBD1AF00FFE1CF0C8
:1008A000C9F91CF035F81CF0EFFA1BF044FD0222E8
:1008B0004FF47A71AFF20F1019F043F8029004F080
:1008C000B9FD17E004F039FE1CF033FB00F024FF03
:1008D0001AF0A3FD1CF0B2F8FFF75EFF1CF0B1FAAE
:1008E0001BF0D0FEFFF7AEFC17F0E3FA17F07DFF28
:1008F00018F090FAE6E710B52DED048B4D4800781E
:10090000042802D0BDEC048B10BD4D482A38807DF0
:1009100000B9F7E74A482A38007F48B94548007AC5
:1009200028B14448007A20F0020042490872E9E701
:100930001AF0D9FD0446002C74D03E48007A40F0ED
:1009400002003C49087204F00100A0B13C492A3978
:10095000088C1DF099FA41EC190B9FED5C0B53ECE0
:10096000102B1DF09FF941EC180B1DF0FDFA3049DA
:10097000C1F801001EE004F00400A0B130492A399A
:10098000088C1DF081FA41EC190B9FED520B53ECD2
:10099000102B1DF087F941EC180B1DF0E5FA2449E6
:1009A000C1F8010006E01FEDDC0A10EE100A204934
:1009B000C1F8010004F00200A0B121492A39088CD5
:1009C0001DF062FA41EC190B9FED400B53EC102B1C
:1009D0001DF068F941EC180B1DF0C6FA1449C1F876
:1009E0000500A6E004F00800A0B115492A39088CDA
:1009F0001DF04AFA41EC190B9FED360B53EC102B0E
:100A00001DF050F941EC180B1DF0AEFA0849C1F881
:100A100005008EE01FEDF80A10EE100A0449C1F837
:100A2000050086E05AE00000D833002000340020A2
:100A30007012002084000020583A00200C00002092
:100A4000CA330020E800002064760208494D504F68
:100A500052545F4E4F5449434500000098A102088C
:100A60004A1B0020257300004552524F523A206C19
:100A70006F67207072696E74657220696E6E657240
:100A8000206661756C740A0031363A31323A30347E
:100A900000000000417567203231203230313800CB
:100AA00030303034303000003030303630320000FA
:100AB0004F4D55004D61696E426F6172642D4E75E8
:100AC000636C656172524400DCA102089A9999999D
:100AD0009999B93F9A9999999999B9BFC848007A53
:100AE00028B1C748007A20F00200C5490872C548FD
:100AF000D0F8010000EE100AB5EEC00AF1EE10FACF
:100B000006D09FEDC10A10EE100ABE49C1F80100DF
:100B1000BC48D0F8050000EE100AB5EEC00AF1EEB0
:100B200010FA06D09FEDB80A10EE100AB549C1F8C8
:100B3000050000BFE6E610B52DED0E8B8EB0B04877
:100B40000078042803D00EB0BDEC0E8B10BDAF486A
:100B5000807D00B9F7E7AD48007F48B9A848007A22
:100B600028B1A748007A20F00200A5490872EAE7F8
:100B7000A749096888680BF031F88DED080ACDEDBA
:100B8000090A8DED0A1ACDED0B1ADDED0B1A9DED5C
:100B90000A1ADDED090A9DED080A04F0C1FBB0EE6A
:100BA000409AF0EE609A9B49A1F1080000F003FE24
:100BB000B0EE490AF0EE690A22F0CAFAB0EE40CA75
:100BC000F0EE60CA9249096888680BF051F88DED23
:100BD000090ACDED0A0A8DED0B1A9DED0A0A10EEF9
:100BE000101A08461DF07CF941EC1D0B53EC1C2B30
:100BF0001DF058F841EC1B0BB0EE490AF0EE690A03
:100C000022F036FAB0EE40CAF0EE60CA80490968B8
:100C100088680BF02DF88DED060ACDED070A8DEDF5
:100C2000081A9DED060A10EE101A08461DF058F934
:100C300041EC1D0B53EC1C2B1DF034F841EC180B50
:100C400053EC1B2B1CF087FF41EC1A0B1DF08CF9A9
:100C5000704908390861B0EE490AF0EE690A22F0DD
:100C600007FAB0EE408AF0EE608A69490968886840
:100C70000AF0FEFF8DED090ACDED0A0A8DED0B1A83
:100C80009DED0A0A10EE101A08461DF029F941ECF4
:100C90001D0B53EC182B1DF005F841EC1B0BB0EEAF
:100CA000490AF0EE690A22F053FAB0EE40DAF0EEAB
:100CB00060DA5749096888680AF0DAFF8DED060A9C
:100CC000CDED070A8DED081A9DED060AB1EE408ABA
:100CD00018EE100A1DF004F941EC1E0B53EC1D2B0D
:100CE0001CF0E0FF41EC1C0B53EC1B2B1CF033FF02
:100CF00041EC1A0B1DF038F946490839486144485F
:100D00000068816803A80BF044F903A807C809AB81
:100D100007C33F480068816868460BF03AF99DE8D0
:100D2000070006AB07C3BDF92430BDF91A200CA992
:100D30000DA81AF064FF04466CB132490D98C1F851
:100D400001000C98C1F805002D48007A40F002001F
:100D50002B4908722AE02A48007A28B12848007AEC
:100D600020F00200264908722648D0F8010000EE63
:100D7000100AB5EEC00AF1EE10FA06D09FED220A75
:100D800010EE100A1F49C1F801001E48D0F80500F6
:100D900000EE100AB5EEC00AF1EE10FA06D09FED93
:100DA0001A0A10EE100A1749C1F8050000BFCAE67A
:100DB00010B500230A220121032012F063FA16491C
:100DC0000860062324220221032012F05BFA134953
:100DD00008601348017813480FF0D4F80446124A0B
:100DE00012491CF0A1FEDFED081A9FED071ADFED96
:100DF000060A9FED050A4A2102480BF009FF10BDC3
:100E0000840000207012002000000000A0330020A9
:100E100008000020E0330020100000201400002013
:100E200000000020A407002000000008CDFF0008FB
:100E300070B504460D4600BF40210E4807F0BAFBCE
:100E40000028F9D0E1B20B4807F004FB204670BD42
:100E500010B500230A220121032012F013FA0649DB
:100E60000860062324220221032012F00BFA034912
:100E7000086010BD004800401C0000202000002039
:100E800000B58DB06148019061480C9000231A466E
:100E900001A96048006811F087FA0DB000BD0FB4D9
:100EA0002DE9F04788B00446DDF88081BDF84600A2
:100EB000103802284CDCBDF85150C4F87C570D2284
:100EC00011A904F26F701EF067FB40F27F70005DA5
:100ED0008DF80000112204F26F7103A81EF05CFB74
:100EE00003A80FC807F0E0FC00B34B480088854218
:100EF0001CD123F0E3FD824613F003FC074623F0E8
:100F0000DDFD81462D20454B45A2394600904846DF
:100F100013F0A3FB0646006844A182683046904760
:100F200000221146204610F07FFD00BF3B48019093
:100F300040F27F70005D8DF80000112204F26F71A5
:100F400003A81EF029FB03A80FC808F016FA19E041
:100F500023F0B4FD824613F0D4FB074623F0AEFD28
:100F6000814634202D4B2EA239460090484613F07E
:100F700074FB06469DF84C20006833A18368304618
:100F8000984700BF3848008885420CD140F2E460A1
:100F9000005940B140F2E4621159206815F0D8FFC1
:100FA00004203249087008B0BDE8F0075DF814FB72
:100FB00070B500230A220121032012F063F92C49A5
:100FC0000860062324220221032012F05BF929493C
:100FD00008602948007800F00100002814D1264854
:100FE00021F064FB00280FD000250C2021F0FCF933
:100FF00004460125002113F0F5FA044600251F4898
:1010000004601D48AFF3008070BD00001FBF0F00DB
:101010003400002008000020867A0208BF7602080B
:101020004552524F524C4F470000000053444B2052
:1010300076657273696F6E20646964206E6F7420C8
:101040006D617463680A000041434B206973206539
:101050007863657074696F6E2C2073657175656E49
:1010600063652025640A0000767A02088400002067
:10107000280000202C0000205006002054060020EC
:1010800000F07F0200EE102AB8EEC00AF0EE400A2F
:1010900000EE101AB8EE400AB0EE401A00F08002DE
:1010A00062B1DFED451AB0EE410A00EEA10AF1EEA1
:1010B000401A9FED422A81EE820A7047DFED3E1A08
:1010C000B0EE410A00EEA10A9FED3C2AC0EE021AE2
:1010D000B0EE610AF1E770B586B004460D462068AF
:1010E000012802D10020206001E006B070BD207907
:1010F000FA2802D16079FB2800D0F6E7A07920B168
:10110000012808D0AA283AD108E000221146284632
:1011100010F08AFC34E0FFF7B3FE31E0A07B00EB77
:1011200080004000616A4143607B00EB800040002A
:10113000626A4243207B00EB80004000636A4343C5
:10114000E07A00EB80004000666A7043CDE902322D
:1011500004910190A07A00EB800040000090607A3A
:1011600000EB80004300207A00EB80004200E07931
:1011700000EB80004100124821F05CF900E000BF64
:1011800000BF00BFB1E710B500230A2201210320F0
:1011900012F078F80B49086006232422022103206C
:1011A00012F070F808490860084800210160816267
:1011B000C16200BF10BD0000000080430000C842B3
:1011C00040A20208780000207C0000208412002049
:1011D000E248008820B1E1480088401EDF490880CD
:1011E000DF48008820B1DE480088401EDC490880C6
:1011F000704738B50020DB49086041F2883004F0C0
:101200008DFAD9490968086816F048FA044600685A
:10121000816920468847002827D15720D34BD4A284
:10122000D5A10090E24821F015F90546681C38B1B7
:10123000B5F5967F04D2DE49DEA021F0FBF802E08E
:10124000DDA021F0F7F8012000F0EEFC00F0F1FC49
:10125000C548006830B1C44800680EF0B7FE0546C6
:1012600021F0B6F84FF0FF3038BDDBA021F0E2F8F6
:10127000DEA021F0DFF8EDA021F0DCF8F2A021F0F3
:10128000D9F8FEA021F0D6F81E2004F047FAB6489F
:10129000006810F021FC4FF4FA7004F03FFAB248F5
:1012A00000680FF081F9002827D16B20AF4BB0A266
:1012B000FA490090BE4821F0CDF80546681C38B1C7
:1012C000B5F5967F04D2BA49BAA021F0B3F802E08E
:1012D000B9A021F0AFF8012000F0A6FC00F0A9FCB5
:1012E000A148006830B1A04800680EF06FFE0546C6
:1012F00021F06EF84FF0FF30B6E79B4800680FF022
:1013000053F9002836D0984800680FF04DF9E449A9
:10131000096888422ED2944800680FF045F9E149E7
:10132000884227D07620914B91A2DC490090A048BA
:1013300021F090F80546681C38B1B5F5967F04D2C7
:101340009B499CA021F076F802E09BA021F072F866
:10135000012000F069FC00F06CFC8348006830B1AB
:10136000814800680EF032FE054621F031F84FF05A
:10137000FF3079E74FF47A7004F0D0F9022214219B
:10138000AFF2B31018F0DDFA009001206CE730B531
:1013900089B0C549A1F165001BF04BF8A8B1C3485D
:1013A00090F8911100F5967000F0F7FFBE4D543D96
:1013B000002408E001A800EB840105F11F0050F8AB
:1013C00024000860641C082CF4DB09B030BD00B5B3
:1013D0002DED028B8FB06248008818B90A20604951
:1013E000088003E00FB0BDEC028B00BD5E480068D2
:1013F000816801A80AF0EFFC1C2201A908A81EF0D0
:10140000CBF89DED0D8AAA48007B00B9EAE7B1EE62
:10141000000AB4EEC08AF1EE10FA03DD0220A449FE
:1014200088600AE0B0EE080AB4EEC08AF1EE10FA65
:1014300003D24FF0FF309E49886000BFD2E710B55D
:101440008CB04949096888680AF0F0FD0B9046485D
:101450000068816804A80AF09CFD04A807C808ABCE
:1014600007C34149096888680AF048FE0790BDF93A
:101470002800002801DC0CB010BD9DF82C000228CB
:1014800000D0F8E78B48007A002824D19DF81D0091
:1014900000F0070002281DD10022114632480068E2
:1014A0000EF0C8FE4FF48670834B84A287A1009093
:1014B0003F4820F0CFFF0446601C38B1B4F5967F5A
:1014C00004D23B493BA020F0B5FF02E03AA020F057
:1014D000B1FF00BFCFE77748007A30B11F480088DE
:1014E00018B901201D49088000E0C4E79DF81D00DF
:1014F00000F0070002281DD0002211461A4800689B
:101500000EF044FF4FF48D706B4B6CA278A10090ED
:10151000274820F09FFF0446601C38B1B4F5967F41
:1015200004D2234923A020F085FF02E022A020F06E
:1015300081FF00BF7648C1680091007C8DF80400EF
:101540000948006811227249C46802A81EF024F8F4
:10155000204602A90EC90BF0D5FADBE0900000206E
:1015600092000020AC82424208000020E676020889
:101570004552524F5200000025732025732C6C6990
:101580006E652025643A20555341525420636F6D97
:101590006D756E69636174696F6E206973206E6F1B
:1015A0007420776F726B696E672E0D0A0000000061
:1015B0004A1B0020257300004552524F523A206CBE
:1015C0006F67207072696E74657220696E6E6572E5
:1015D000206661756C740A000A50726572657175D7
:1015E0006973697465733A0D0A000000312E205644
:1015F000656869636C6520636F6E6E6563746564AE
:1016000020746F2074686520417373697374616E10
:101610007420616E642073696D756C6174696F6E9E
:10162000206973204F4E0D0A00000000322E204228
:101630006174746572792066756C6C792063686179
:101640006E726765640D0A00332E20444A49474F85
:101650002041707020636F6E6E656374656420282E
:10166000666F72207468652066697273742074698D
:101670006D652072756E290D0A000000342E20471A
:10168000696D62616C206D6F756E7465642069664A
:10169000206E65656465640D0A000000B0A2020852
:1016A00098000020000A01039E3300200D32002024
:1016B0001034002084000020EF760208494D504F7E
:1016C00052545F4E4F544943450000002573202576
:1016D000732C6C696E652025643A206F65732063F6
:1016E0006F6E74726F6C20636C6F7365640A0000B8
:1016F00025732025732C6C696E652025643A206F54
:10170000657320736574436F6E74726F6C0A0000AA
:101710007012002000BFAEE600B585B0FE4800782C
:1017200020B103282FD0042841D139E00320FA4901
:101730000870FA4800684860FFF7A2FBF8480068A4
:101740000EF032FFF749884208D0F5490968486829
:101750000DF092FC4FF4FA7003F0E0FFF0480068DF
:101760001422816868460AF007FE322003F0D6FF93
:10177000EB490968EC4AC869EC490DF088F8322059
:1017800003F0CCFF14E0E4484068E4490968401ADB
:1017900041F28831884202D30020DF49087007E017
:1017A000FFF74DFEFFF713FEFFF7F1FD00E000BF6E
:1017B00000BF05B000BD7FB504460D46D849096895
:1017C00088680AF00BFA8DED000ACDED010A8DED67
:1017D000021ACDED031ADDED031A9DED021ADDEDBF
:1017E000010A9DED000A03F0B3FD84ED000BCC4926
:1017F000096888680AF0F2F98DED000ACDED010A5A
:101800008DED021ACDED031ADDED031A9DED021ADE
:10181000DDED010A9DED000A03F0B2FD85ED000B40
:101820007FBD30B52DED0C8B99B00546BC480068E6
:10183000816801A80AF0CFFA1C2201A912A81DF0A4
:10184000ABFEB7480068816805A80AF0A2FB05A8AE
:1018500007C80FAB07C3B249096888680AF008FADD
:101860008DED0C0ACDED0D0A8DED0E1AAC4909680F
:1018700088680AF0B3F98DED080ACDED090A8DEDFF
:101880000A1ACDED0B1A2C46A549096888680AF09A
:10189000A5F98DED040ACDED050A8DED061ACDED05
:1018A000071ADDED071A9DED061ADDED050A9DED1F
:1018B000040A03F04DFD84ED000B9949096888681E
:1018C0000AF08CF98DED040ACDED050A8DED061AAE
:1018D000CDED071ADDED071A9DED061ADDED050ABF
:1018E0009DED040A03F04CFD84ED020BBDF83E00B3
:1018F0006083BDF83C002083BDF84200A083BDF8A2
:101900004000E083DDED0B1A9DED0A1ADDED090ABA
:101910009DED080A03F004FDB0EE40DAF0EE60DA67
:1019200021F016FCB0EE40BAF0EE60BA9DED0D0A63
:1019300010EE101A08461CF0D3FA41EC1C0B53ECC5
:101940001B2B1CF0AFF941EC190BDDED0B1A9DEDD3
:101950000A1ADDED090A9DED080A03F0E1FCB0EE7C
:1019600040DAF0EE60DA21F083FBB0EE40BAF0EE40
:1019700060BA9DED0C0A10EE101A08461CF0B0FA81
:1019800041EC1C0B53EC1B2B1CF08CF941EC1A0B9B
:1019900053EC192B1CF0DFF841EC180B1CF0E4FAA7
:1019A0002061DDED0B1A9DED0A1ADDED090A9DEDB2
:1019B000080A03F0B5FCB0EE40DAF0EE60DA21F090
:1019C00057FBB0EE40BAF0EE60BA9DED0D0A10EE96
:1019D000101A08461CF084FA41EC1C0B53EC1B2B2C
:1019E0001CF060F941EC190BDDED0B1A9DED0A1AA4
:1019F000DDED090A9DED080A03F092FCB0EE40DA35
:101A0000F0EE60DA21F0A4FBB0EE40BAF0EE60BA7E
:101A10009DED0C0AB1EE400A10EE101A08461CF0BB
:101A20005FFA41EC1C0B53EC1B2B1CF03BF941EC17
:101A30001A0B53EC192B1CF08EF841EC180B1CF010
:101A400093FA60619DED170A84ED080A19B0BDECA8
:101A50000C8B30BD10B52DED068B04463449088C37
:101A60001CF012FA41EC1A0B9FED320B53EC102BC9
:101A70001CF018F941EC190B1CF076FA08EE900AEC
:101A80002E4890ED040AB0EE408AB4EEE88AF1EEFA
:101A900010FA02DDB0EE688A25E0B1EE680AB4EE15
:101AA000C08AF1EE10FA04D2B1EE680AB0EE408AB4
:101AB00019E0B5EEC08AF1EE10FA0ADB38EE280A1A
:101AC00030EE080AF0EE080A80EE201AB0EE418AE5
:101AD00009E038EE080A30EE680AF0EE080A80EEF7
:101AE000201AB0EE418A012C06D1B5EEC08AF1EE83
:101AF00010FA01D2B0EE688A032C08D1B5EEC08A84
:101B0000F1EE10FA03DDB1EE680AB0EE408AB0EEF5
:101B1000480ABDEC068B10BD840000208C04002018
:101B200008000020000A01030D3200206123000894
:101B3000A03300209A9999999999B93FD8330020F8
:101B400010B52DED068B04464149088C1CF09CF91C
:101B500041EC1A0B1FED090B53EC102B1CF0A2F8F3
:101B600041EC190B1CF000FA08EE100A394890ED10
:101B7000050AF0EE408AF4EEC88AF1EE10FA02DDB2
:101B8000F0EE488A25E0B1EE480AF4EEC08AF1EEA4
:101B900010FA04D2B1EE480AF0EE408A19E0F5EEF0
:101BA000C08AF1EE10FA0ADB38EEA80A30EE080A15
:101BB000F0EE080A80EE201AF0EE418A09E038EED5
:101BC000A80A30EE480AF0EE080A80EE201AF0EE7D
:101BD000418A022C06D1F5EEC08AF1EE10FA01D24C
:101BE000F0EE488A042C08D1F5EEC08AF1EE10FA26
:101BF00003DDB1EE480AF0EE408AB0EE680ABDECB3
:101C0000068B10BD10B500230A220121032011F01C
:101C100039FB11490860062324220221032011F018
:101C200031FB0E49086010BD00F0010181F31388FB
:101C30007047BFF34F8F0A48006800F4E06009491D
:101C40000843001D06490860BFF34F8F00BFFEE741
:101C5000A0330020D83300209400002098000020FA
:101C60000CED00E00000FA05F0B52DED088BA5B0F5
:101C700000244FF4FA661427FE4800681422816895
:101C80000EA80AF079FBE6E0FA49096888680AF0CC
:101C9000CDF92490F7480068816807A80AF09BF8FE
:101CA0001C2207A91DA81DF077FCF2480068816876
:101CB0000BA80AF06EF90BA807C81AAB07C3ED49C9
:101CC0000968886809F0D4FF8DED170ACDED180A70
:101CD0008DED191AE7490968886809F07FFF8DEDD5
:101CE000130ACDED140A8DED151ACDED161A214605
:101CF000E1A020F09FFBE4A020F09CFB9DF8901059
:101D0000E4A020F097FB9DED210A10EE101A084682
:101D10001CF0E6F841EC180B8DED028B9DED1F0BCE
:101D20008DED000B9DED1D1BB0EE410AF0EE610A3A
:101D300053EC102BDCA020F07DFBBDF96E00009071
:101D4000BDF96C30BDF96A20BDF96810DFA020F044
:101D500071FB9DED190A10EE101A08461CF0C0F830
:101D600041EC180B9DED180A10EE101A08461CF0F5
:101D7000B7F841EC190B9DED170A10EE101A084642
:101D80001CF0AEF841EC1A0B8DED028B8DED009B33
:101D900053EC1A2BD8A020F04DFB9DED160A10EE47
:101DA000101A08461CF09CF841EC180B9DED150A22
:101DB00010EE101A08461CF093F841EC190B9DED3B
:101DC000140A10EE101A08461CF08AF841EC1A0B9F
:101DD0009DED130A10EE101A08461CF081F841EC34
:101DE0001B0B8DED048B8DED029B8DED00AB53EC49
:101DF0001B2BCBA020F01EFB9E4800688168684624
:101E000009F0E9FF1C22694607A81DF0C5FB9DEDFE
:101E10000C0A10EE101A08461CF062F841EC180B80
:101E200053EC182BCCA020F005FB92490968886878
:101E30000AF064F90D909DF8350000F00705294679
:101E4000C9A020F0F7FACEA020F0F4FA32344FF413
:101E5000FA7003F063FCB442FFF616AFCBA020F09B
:101E6000E9FA012025B0BDEC088BF0BD2DE9F04F5B
:101E70002DED088BA1B0002020904FF47A601F90C8
:101E800000201E900124C54800681D9001201C9070
:101E900000267849CDE9006409681DAB48681C9AA2
:101EA0001E990DF062F805462DB9284621B0BDEC0B
:101EB000088BBDE8F08F6F49096848681E990DF0DE
:101EC000F1F94FF4FA7003F029FC01201E900A2466
:101ED000B248001D00681B9001201C900026654937
:101EE000CDE9006409681BAB48681C9A1E990DF087
:101EF0003CF805460DB92846D8E75E4909684868A8
:101F00001E990DF0CFF94FF4FA7003F007FC022090
:101F10001E903224A148083000681A9002201C90BC
:101F200000265449CDE9006409681AAB48681C9A38
:101F30001E990DF01AF805460DB92846B6E74D4929
:101F4000096848681E990DF0ADF94FF4FA7003F076
:101F5000E5FB03201E90C8240020199001201C904E
:101F600000264449CDE90064096819AB48681C9A09
:101F70001E990CF0FAFF05460DB9284696E73D4933
:101F8000096848681E990DF08DF94FF4FA7003F056
:101F9000C5FB4FF4FA5003F0C1FB4FF47A674FF4DE
:101FA000FA780020069033490968086815F076FB36
:101FB00083460068C1685846884710EB070A00BF8F
:101FC0002C490968486822F077FC18902948006875
:101FD0004168684622F0FCFA1822694612A81DF0F2
:101FE000DBFA24480068416803A822F04FFB03A8ED
:101FF00007C80FAB07C31F480068416802A822F05A
:10200000FFFC02A80FC8CDE90D23CDE90B0119494A
:102010000968486822F07AFA8DED070ACDED080AC2
:102020008DED091ACDED0A1A13A0209920F002FABD
:1020300015A020F0FFF917A0189920F0FBF99DEDED
:10204000160A10EE101A08461BF04AFF41EC180B56
:102050008DED028B9DED120B8DED000B9DED141B94
:10206000B0EE410AF0EE610A53EC102B0EA020F006
:10207000E1F995E008000020436F756E74657220E9
:102080003D2025643A0A00002D2D2D2D2D2D2D0AE1
:1020900000000000466C69676874205374617475B1
:1020A00073203D2025640A00506F736974696F6E58
:1020B00020284C4C4129203D20252E33662C2025FC
:1020C0002E33662C20252E33660A0000524320430F
:1020D0006F6D6D616E64732028722F702F792F746D
:1020E000687229203D2025642C2025642C2025643D
:1020F0002C2025640A00000056656C6F63697479B2
:10210000202876782C76792C767A29203D20252E69
:1021100033662C20252E33662C20252E33660A00AC
:102120004174746974756465205175617465726E6B
:10213000696F6E2028772C782C792C7A29203D2005
:10214000252E33662C20252E33662C20252E336633
:102150002C20252E33660A00686569676874203D67
:102160002025660A00000000636F6E74726F6C4475
:10217000657669636528645329203D2025640A003B
:102180002D2D2D2D2D2D2D0A0A000000446F6E657A
:10219000207072696E74696E67210A0010770208F8
:1021A000BDF942000090BDF94030BDF93E20BDF9B7
:1021B0003C10AFF2E80020F03DF99DED0D0A10EE65
:1021C000101A08461BF08CFE41EC180B9DED0C0A12
:1021D00010EE101A08461BF083FE41EC190B9DED22
:1021E0000B0A10EE101A08461BF07AFE41EC1A0B8F
:1021F0008DED028B8DED009B53EC1A2BAFF2081086
:1022000020F018F99DED0A0A10EE101A08461BF08E
:1022100067FE41EC180B9DED090A10EE101A0846F6
:102220001BF05EFE41EC190B9DED080A10EE101A32
:1022300008461BF055FE41EC1A0B9DED070A10EE07
:10224000101A08461BF04CFE41EC1B0B8DED048B65
:102250008DED029B8DED00AB53EC1B2BAFF24010CC
:1022600020F0E8F8AFF2E80020F0E4F84FF4FA705C
:1022700003F054FA35490968086815F00FFA8146E9
:102280000068C1684846884710EB08000690069829
:102290005045FFF495AEAFF20C1020F0CBF82B496F
:1022A0000968486800210DF034FA40F6B83003F0B0
:1022B00035FA26490968486801210DF02AFA40F6E6
:1022C000B83003F02BFA21490968486802210DF063
:1022D00020FA40F6B83003F021FA1C490968486832
:1022E00003210DF016FA40F6B83003F017FA01207A
:1022F000DCE570B500230A220121032010F0C2FFA3
:1023000013490860062324220221032010F0BAFF9B
:10231000104908601048007800F00100002814D12E
:102320000D4820F0C3F900280FD000250C2020F024
:102330005BF804460125002112F054F904460025FB
:10234000064804600448AFF3008070BD0800002018
:10235000A0000020A4000020500600205406002009
:102360000FB42DE9F0478146589D2E4606F1C80767
:102370000DF13108BDF82600123884B2142C08DBA8
:10238000642C06DC2246414638461DF005F986F8E5
:102390009041BDE8F0075DF814FB70B504460D46AA
:1023A000D14909682A46C86921460CF037FA00204D
:1023B000CE490860CE480068CE49086070BD0FB4B1
:1023C0002DE9F04389B00446609FBDF846001038FF
:1023D000022865D80D2211A904A81DF0DDF82046B9
:1023E0000EF0E2F8C449884204D09DF85100CDF8BF
:1023F0001D0003E0BDF85100CDF81D009DF8200040
:102400008DF8000004A80FC806F04EFA48B1BB488A
:1024100001909DF820008DF8000004A80FC806F078
:10242000ACFF9DF844008DF808009DF845008DF83C
:10243000090012988078072809D00222B04902A822
:102440001BF049FA88B11298807801280DD1052037
:10245000ADF80C00BDF81D0080B2ADF80E000422EE
:1024600003A9E0690CF0DAF919E0129880780828DD
:1024700008D00222A24902A81BF02DFA78B11298C6
:10248000807860B90620ADF80C00BDF81D0080B260
:10249000ADF80E00042203A9E0690CF0BFF919E0C1
:1024A00022F00CFB814612F02CF9064622F006FBC6
:1024B0008046DB20914B93A231460090404612F0BB
:1024C000CCF805469DF84C20006891A18368284609
:1024D000984700BF09B0BDE8F0035DF814FB0FB4E6
:1024E0002DE9F04F87B00546609F91480088CDF8F0
:1024F00015004FF0010828460DF08BFE8146BDF80F
:1025000046001038022809D8BDF85100CDF8150052
:102510000D2211A902A81DF03FF819E022F0CEFA11
:10252000834612F0EEF8064622F0C8FA82468C2066
:10253000804B74A231460090504612F08EF804464B
:102540009DF84C20006872A183682046984700BF20
:10255000DDF8150078490988884206D10022AFF2DB
:10256000810128460DF012FF25E0DDF815007349C2
:102570000988884206D10022AFF29D0128460DF05D
:1025800059FE18E012988078012803D10220ADF896
:10259000040005E01298807810B90320ADF804001B
:1025A000BDF8150080B2ADF80600042201A9E86963
:1025B0000CF034F900BF07B0BDE8F00F5DF814FB74
:1025C0000FB470B50646549DBDF82140022C06D0CC
:1025D000032C0CD0052C12D0062C44D129E000226B
:1025E000AFF20511404800680DF0D0FE3CE000223B
:1025F000AFF215113C4800680DF01CFE34E03A487B
:1026000000680DF0D1FF3C49884209D0364909687D
:102610000023AFF25522C868072109F0A8FF07E0A0
:10262000314909680022C868AFF26D210AF020F92B
:102630001AE02D4800680DF0B7FF2F49884209D0F5
:10264000294909680023AFF28922C868082109F0E6
:102650008EFF07E0244909680022C868AFF2A12173
:102660000AF066F900E000BF00BF70BC5DF814FB23
:102670007FB5054654AC1C4800688168684609F07F
:10268000AEFC9DE80F0084E80F007FBD70B500230D
:102690000A220121032010F0F5FD294908600623D4
:1026A00024220221032010F0EDFD2649086026486F
:1026B000007800F00100002814D123481FF0F6FF35
:1026C00000280FD000250C201FF08EFE04460125A7
:1026D000002111F087FF044600251C4804601A48B9
:1026E000AFF3008070BD000008000020A00243424C
:1026F0008C04002090040020000A010339770208AE
:102700000D7902084552524F524C4F4700000000CD
:1027100041434B20697320657863657074696F6EFF
:102720002C2073657175656E63652025640A000051
:10273000F47902081A7702088E7A0208907A020861
:10274000AC000020B00000205006002054060020FD
:102750002DE9FE43814601260A24FD4800680290C7
:1027600002274FF00008FB49CDE90084096802AB5D
:102770003A46486831460CF0F8FB054615B928463C
:10278000BDE8FE83F3490968486831460CF08AFDCC
:102790004FF4FA5002F0C2FF0120F1E730B52DED01
:1027A000028B85B00546284624F0FFF8044620E059
:1027B000641C216908461BF093FB41EC180B8DED5E
:1027C000028BA068E168CDE9000120686168641EA1
:1027D00041EC100B53EC102BDFA01FF02BFEDD495A
:1027E0000968096A00231A464868214611F0FEFB71
:1027F0005A34284624F0D5F8A042D9D105B0BDEC12
:10280000028B30BD9FEDDE0A10EE101A40F8151F46
:1028100000218180C1800172417464214182017D67
:1028200021F00F010175017D21F0F00101751538CE
:10283000002108E0002300F12A025354103202EB79
:1028400041021380491C1029F4DB70472DE9F04741
:102850002DED0C8B98B006468846B0EE408AF0EE1F
:10286000608A1546344617A823F047FD07463946C7
:10287000204623F041FD0446002020606060A060F7
:1028800000BF264628461BF0EEFA41EC1A0B53EC2B
:102890001A2B9FEDBC0B51EC100B1BF075FA41ECA1
:1028A000190B002088F800004146304624F081F8DA
:1028B000012476E0B146A4F1010A484624F075F8F7
:1028C000CAEB0A1101EB410100EB410007466846E3
:1028D000FFF798FFE0B28DF8000020461BF0C3FA26
:1028E00053EC192B1BF0DEF941EC1C0BB0EE4C0A3B
:1028F000F0EE6C0A20F0BCFBB0EE40BAF0EE60BA2D
:1029000053EC182B51EC1B0B1BF0CCF941EC1A0BC0
:1029100057F8010F796841EC100B53EC102B51EC78
:102920001A0B1BF018F9CDF80100CDF80510204660
:102930001BF099FA53EC192B1BF0B4F941EC1C0B6A
:10294000B0EE4C0AF0EE6C0A20F002FCB0EE40BA99
:10295000F0EE60BA53EC182B51EC1B0B1BF0A2F9F4
:1029600041EC1A0BB868F96841EC100B53EC102BD2
:1029700051EC1A0B1BF0EFF8CDF80900CDF80D1053
:1029800038697F1E00EE100AF7EE000A30EE200ACA
:1029900010EE100ACDF811006946304624F009F80F
:1029A000641CAC4286DB88F800504146304624F077
:1029B00000F818B0BDEC0C8BBDE8F08730B52DEDFC
:1029C000068BABB005460C46B0EE409AF0EE609A2E
:1029D000B0EE418A4FF4FA5002F0A0FE14A8FFF7BF
:1029E00011FF5C4800680DF0DFFD6849884232D075
:1029F00058480068416801A821F0EAFD182201A9A1
:102A00000EA81CF0C9FDDDE91001CDF85100CDF88C
:102A10005510DDE90E01CDF85900CDF85D1018EE26
:102A2000100ACDF8610018EE100A1BF059FA41ECBB
:102A30001A0B8DED02AB9DED0E0B8DED000B9DED98
:102A4000101BB0EE410AF0EE610A53EC102B50A0BF
:102A50001FF0F0FC31E03F4800688168684609F0EB
:102A6000BAF91C22694607A81CF096FDDDE90701AA
:102A7000CDF85100CDF85510DDE90901CDF8590028
:102A8000CDF85D1018EE100ACDF8610018EE100AAE
:102A90001BF026FA41EC1A0B8DED02AB9DED090BF4
:102AA0008DED000B9DED071BB0EE410AF0EE610AC3
:102AB00053EC102B36A01FF0BDFC2246B0EE490AA5
:102AC000F0EE690A14A92846FFF7C0FE2BB0BDEC52
:102AD000068B30BDB2EE040A10EE101AC01C40F88E
:102AE000021CB1EE040A10EE101AC0F80210002108
:102AF00081710121C1710021017241720121817234
:102B00000021C1729FED2C0B52EC101BC1600261C1
:102B10009FED290B52EC101B416182619FED180A59
:102B200010EE101AC161C01E704710B52DED048B58
:102B300096B00446074800680DF036FD13498842F8
:102B400046D004480068FFF703FE00B938E03FE0D4
:102B50006477020808000020576179706F696E740D
:102B6000206372656174656420617420284C4C4157
:102B7000293A20256620092566200925660A2000B5
:102B800000000000182D4454FB211940000A0103E5
:102B9000576179706F696E742063726561746564E2
:102BA00020617420284C4C41293A202566200925B3
:102BB00066200925660A00000000000000000000F1
:102BC000E1A01FF037FC002016B0BDEC048B10BD57
:102BD00009A8FFF77FFF601CC0B28DF824009FEDAD
:102BE000E29BB2EE048A09A80090E1480068012344
:102BF0000022016A01A80BF0A3FB4FF4FA7002F067
:102C00008DFDDB490968086A0BF0C8FCD9A01FF0EC
:102C100011FCB0EE481AB0EE490AF0EE690A2146FE
:102C200006A8FFF7CBFEDCA01FF004FC06A8FFF708
:102C3000B5FDDFA01FF0FEFBCD490968096A4868B1
:102C4000CB490968096A4968096800228B681146FE
:102C500098474FF4FA7002F061FDDBA01FF0EAFB29
:102C6000C3490968486801210CF053FD40F6B830AB
:102C700002F054FD06A823F0C3FE0120A4E710B51E
:102C80002DED068B96B00446B94800680DF08CFC1B
:102C9000D44988420CD0B6480068FFF759FD38B9CE
:102CA000A9A01FF0C7FB002016B0BDEC068B10BD1D
:102CB00000200090AE48006801231A46016A02A86D
:102CC0000BF03EFBAA490968086A0BF067FCA848AC
:102CD00000680DF069FCC349884226D0A44800680A
:102CE000416801A821F074FC182201A910A81CF069
:102CF00053FC20461BF0B7F841EC180B9DED122B4E
:102D0000B0EE421AF0EE621A9DED102BB0EE420AC0
:102D1000F0EE620A96490968096AB0EE482AF0EEB8
:102D2000682A88680AF025FF25E0914800688168D4
:102D3000684609F050F81C22694609A81CF02CFCD2
:102D400020461BF090F841EC180B9DED092BB0EEDE
:102D5000421AF0EE621A9DED0B2BB0EE420AF0EE35
:102D6000620A83490968096AB0EE482AF0EE682AC7
:102D700088680AF0FEFE00F09DF99BA01FF05AFB48
:102D80007B490968096A886879490968096A896814
:102D9000096800228B68114698474FF4FA7002F0D8
:102DA000BDFC4FF47A6002F0B9FC9AA01FF042FB20
:102DB0006F490968096A88686D490968096A8968FC
:102DC000096800228B691146984741F2883002F069
:102DD000A5FC94A01FF02EFB65490968096A886864
:102DE00063490968096A8968096800220B6A114603
:102DF00098474FF47A6002F091FC20461BF033F8BC
:102E000041EC190B9FED890B53EC102B1AF04AFF84
:102E100041EC180B53EC182B86A01FF00BFB20463F
:102E20001BF021F841EC1A0B9FED800B53EC102B9B
:102E30001AF038FF41EC190B1BF096F808EE100A57
:102E40004B490968096A002288681146B0EE480AB1
:102E50000AF042FC42F2107002F060FC80A01FF009
:102E6000E9FA01208DF81C00B1EE040A10EE100AF8
:102E7000CDF81D003E490968096A00231A46886892
:102E800007A90AF08FFB42F2107002F047FC44F6EB
:102E9000206002F043FC7FA01FF0CCFA344909689F
:102EA000096A886832490968096A896809680022DC
:102EB0000B69114698474FF47A7002F02FFC77A007
:102EC0001FF0B8FA2A4800680DF06EFB45498842A9
:102ED00009D027490968486801210CF01AFC40F61E
:102EE000B83002F01BFC00F0ACFADDE670B5002350
:102EF0000A220121032010F0C5F96A49086006235F
:102F000024220221032010F0BDF9674908606748B8
:102F1000007800F00100002814D164481FF0C6FBBF
:102F200000280FD000250C201FF05EFA0446012572
:102F3000002111F057FB044600255D4804605B4802
:102F4000AFF3008070BD00004661696C6564207459
:102F50006F20736574207570205375627363726996
:102F60007074696F6E210A008DEDB5A0F7C6B03E92
:102F700008000020496E697469616C697A696E673E
:102F800020576179706F696E74204D697373696F32
:102F90006E2E2E0A000000004372656174696E6730
:102FA00020576179706F696E74732E2E0A000000CD
:102FB00055706C6F6164696E6720576179706F69D5
:102FC0006E74732E2E0A00005374617274696E67FA
:102FD00020576179706F696E74204D697373696FE2
:102FE0006E2E0A00000A010353746172742077691F
:102FF00074682064656661756C7420726F746174A6
:10300000696F6E20726174653A203135206465679E
:103010002F730000506175736520666F72203573E1
:103020000A000000526573756D650A00000000001B
:103030000000F83F557064617465207261646975C1
:103040007320746F20312E35783A206E65772072A8
:103050006164697573203D2025302E33660A0000B7
:1030600055706461746520686F74706F696E742048
:10307000726F746174696F6E20726174653A206E4C
:1030800065772072617465203D2035206465672F67
:10309000730A000053746F700A0000004C616E6484
:1030A0000A000000B8000020BC00002050060020EC
:1030B000540600202DE9F04F2DED048B9BB0FA480B
:1030C00000680DF071FAF94988422AD00020199061
:1030D0004FF00A0AF648006815900220149000206C
:1030E00013901398F049CDE9000A096815AB4868B8
:1030F000149A19990BF039FF8346BBF1000F05D1E3
:1031000058461BB0BDEC048BBDE8F08FE64909685A
:10311000486819990CF0C6F84FF4FA7002F0FEFAFC
:1031200000BFE14909680022C868114609F043FC64
:103130004FF4FA7002F0F2FA43F698244FF4FA755D
:1031400000270020189017901690D7490968086842
:1031500014F0A4FA80460068C16840468847061902
:1031600000BF4FF4FA6002F0D9FACF4800680DF0C2
:103170001BFACE49884210D0CB490968486821F033
:103180009BFB012820D1C8490968486821F0E6FB6B
:10319000292819D10120189023E0C34909688868BB
:1031A00008F044FF14909DF85000022809D0BE4951
:1031B0000968886808F03AFF15909DF854000328C4
:1031C00002D1012018900CE0B7490968086814F092
:1031D00065FA82460068C168504688474719B74279
:1031E000BFD300BF1898A0B9B2A01FF023F9AE4812
:1031F00000680DF0D9F9AD49884208D0AA4909689C
:10320000486819990CF085FA322002F087FA0020FC
:1032100077E7B3A01FF00EF9A3490968086814F016
:103220003DFA81460068C16848468847061900BFD4
:103230004FF4FA6002F072FA9B4800680DF0B4F99E
:103240009A49884217D098490968486821F034FBA8
:1032500002281DD194490968486821F07FFB0A289B
:1032600006D091490968486821F078FB0B280FD1F6
:103270000120179019E08C490968886808F0D6FE8B
:1032800015909DF85400032802D1012017900CE0FE
:1032900085490968086814F001FA82460068C16827
:1032A000504688474719B742C2D300BF1798A8B9FC
:1032B00091481FF0BFF87C4800680DF075F97B4914
:1032C000884209D078490968486819990CF021FAB0
:1032D0004FF4FA7002F022FA002012E787A01FF0E4
:1032E000A9F871490968086814F0D8F91A900068BB
:1032F000C1681A98884706196B4800680DF054F9A0
:103300006A49884223D000BF4FF4FA6002F006FAFF
:1033100065490968486821F021FB0A2806D16249FD
:103320000968486821F01AFB0B2802D0012016908A
:103330000CE05D490968086814F0B0F9824600683D
:10334000C168504688474719B742DDD300BF564889
:1033500000680DF029F95549884220D05249096882
:10336000486821F0FBFA062806D14F4909684868E9
:1033700021F0F4FA012803D066A01FF05BF84DE0BD
:103380006A481FF057F848490968486819990CF0CD
:10339000C0F94FF4FA7002F0C1F90020B1E64248DA
:1033A0000068816808A808F016FD00BF40F6B83034
:1033B00002F0B4F93C480068816801A808F00BFDF0
:1033C0001C2201A90FA81CF0E7F8DDED130A9DED02
:1033D0000C1A30EEC10AB0EEC08A00BF9DED130A90
:1033E0008DED0C0A18EE100A1AF07AFD41EC190B5B
:1033F0009FED4F0B53EC102B1AF09EFDD6D99DED8F
:10340000130A10EE101A08461AF06AFD41EC190B67
:1034100053EC192B48A01FF00DF800BF224800689C
:103420000DF0C2F82149884209D01F49096848684F
:1034300019990CF06EF940F6B83002F06FF90120DE
:103440005FE62DE9F04F93B047F230544FF4FA7530
:103450004FF0000A00201290119010900F900A2057
:103460000E90114800680DF09FF8104988427FD0F7
:103470000F48001D00680D9002200C904FF0000BCB
:103480000E9880B20849CDE900B009680DAB4868D4
:103490000C9A0F990BF069FD8146B9F1000F5CD1D0
:1034A000484613B0BDE8F08F08000020000A010371
:1034B0006877020854616B656F6666206661696CA7
:1034C00065642E204D6F746F7273206661696C6540
:1034D0006420746F207374617274210A000000000C
:1034E0000A5375636365737366756C2074616B65ED
:1034F0006F6666210A000000ACA302085665686981
:10350000636C6520617363656E64696E672E2E2E31
:103510000A00000056656869636C6520697320685D
:103520006F766572696E670A00000000FCA20208EF
:103530003BDF4F8D976E823F4169726372616674A3
:1035400020686F766572696E6720617420252E355C
:10355000666D21200A0000000AE0FE4909684868FB
:103560000F990BF09FFE4FF4FA7002F0D7F800BFEE
:10357000F84909680022C868114609F0A2FA4FF418
:10358000FA7002F0CBF8F3490968086814F086F87D
:1035900007460068C16838468847061900BF4FF4DF
:1035A000FA6002F0BBF8EB4800680CF0FDFFEA4956
:1035B000884209D0E7490968486821F0CFF90C280A
:1035C0000FD1012012901AE0E2490968886808F0DA
:1035D0002DFD0D909DF83400042802D0012012909A
:1035E0000DE0DC490968086814F058F88146006865
:1035F000C1684846884710EB050AB245CFD300BFE3
:103600001298B8B9D5A01EF015FFD24800680CF08A
:10361000CBFFD149884209D0CE49096848680F9943
:103620000CF077F84FF4FA7002F078F8002013B03D
:10363000BDE8F08FD5A01EF0FDFEC64909680868F8
:1036400014F02CF880460068C16840468847061987
:1036500000BF4FF4FA6002F061F8BE4800680CF059
:10366000A3FFBD4988421ED0BA490968486821F0C5
:1036700075F90C2846D0B7490968486821F01CF94B
:1036800002283FD0B3490968486821F067F9062845
:1036900006D1B0490968486821F060F9012831D0A5
:1036A000012011903CE0AB490968886808F0BEFC35
:1036B0000D909DF83400052803D1642002F02EF807
:1036C00020E000BF4FF4FA6002F028F8A14800683B
:1036D0008168684608F07FFB1C22694607A81BF03A
:1036E0005BFF9DED0B0AB5EEC00AF1EE10FAE9D1D1
:1036F0009DED0B0AB5EEC00AF1EE10FA01D10120E2
:10370000119000BF93490968086813F0C7FF81460C
:103710000068C1684846884710EB050AB24598D34F
:1037200000BF119818B19EA01EF084FE15E0A248BB
:103730001EF080FE874800680CF036FF86498842FC
:1037400009D08449096848680F990BF0E2FF4FF4EB
:10375000FA7001F0E3FF002069E77E4800680CF092
:1037600023FF7D49884209D07A49096848680F9942
:103770000BF0CFFF40F6B83001F0D0FF012056E744
:103780002DE9F05F2DED0A8B83460E4614461D464B
:10379000704800680CF008FF6F49884250D02746F7
:1037A000A9464D46D9F80000D9F8041041EC100B99
:1037B0003C463868796853EC102B1AF06DFA41ECEE
:1037C000180BD9F80800D9F80C1041EC100BB868A8
:1037D000F96853EC102B1AF05FFA41EC190B9FEDCE
:1037E000770B53EC102B51EC190B1AF05BFA1AF013
:1037F000BBFB3060B868F96841EC100B1FF038FC77
:10380000B0EE40BAF0EE60BA9FED6C0B53EC102BAB
:1038100051EC180B1AF046FA53EC1B2B1AF042FA33
:103820001AF0A2FB7060386900EE100AD9F8100097
:1038300000EE900A30EE600A10EE100AB06056E01A
:10384000A046AA465546DAF80800DAF80C1041EC12
:10385000100B4446D8F80800D8F80C1053EC102B85
:103860001AF01AFA41EC180BDAF80000DAF8041032
:1038700041EC100BD8F80000D8F8041053EC102BD2
:103880001AF00AFA41EC190B9FED4C0B53EC102B7C
:1038900051EC190B1AF006FA1AF066FB3060D8F8F2
:1038A0000000D8F8041041EC100B1FF0E1FBB0EE63
:1038B00040BAF0EE60BA9FED410B53EC102B51EC87
:1038C000180B1AF0EFF953EC1B2B1AF0EBF91AF066
:1038D0004BFB7060D8F8100000EE100ADAF8100008
:1038E00000EE900A30EE600A10EE100AB060BDECF7
:1038F0000A8BBDE8F09F30B52DED108B85B00446E6
:103900002546A86800EE100A20EE000A10EE101AF4
:1039100008461AF0E5FA41EC190BE86800EE100AC7
:1039200020EE000A10EE101A08461AF0D9FA41ECFF
:103930001F0B53EC192B1AF00EF941EC1E0B9FEDE7
:10394000210B53EC102B1AF0ADF941EC1D0B9FED40
:103950001F0B3FE008000020000A01034C616E6469
:10396000696E67206661696C65642E2041697263C7
:1039700072616674206973207374696C6C20696E5F
:1039800020746865206169722E0A000056656869B6
:10399000636C65206C616E64696E672E2E2E0A0062
:1039A0005375636365737366756C206C616E6469CF
:1039B0006E67210A0000000054A3020800000040C6
:1039C000A654584100000000000000C000000000A4
:1039D0000000F03F53EC102B1AF0BDF841EC1A0B2D
:1039E000686800EE100AA86800EE900A20EE201A1F
:1039F000286800EE100AE86800EE900A00EE201A2F
:103A000011EE101A08461AF06BFA41EC1D0B9FEDEF
:103A1000FE0B53EC102B1AF045F941EC1B0B6868B8
:103A200000EE100AE86800EE900A20EE201A2868DE
:103A300000EE100AA86800EE900A00EE601A11EE7F
:103A4000101A08461AF04CFA41EC1D0B1FED230B1F
:103A500053EC102B1AF026F941EC180BA86800EE75
:103A6000100AE86800EE900A20EE201A286800EE9E
:103A7000100A686800EE900A00EE201A11EE101A83
:103A800008461AF02DFA41EC1D0B9FEDDF0B53ECAD
:103A9000102B1AF007F941EC1C0B686800EE100AB5
:103AA00020EE000A10EE101A08461AF019FA41EC3E
:103AB0001F0B53EC192B1AF04EF841EC1E0B1FEDA7
:103AC0003F0B53EC102B1AF0EDF841EC1D0B1FEDE2
:103AD000410B53EC102B1AF03EF8CDE900011FED1D
:103AE000450B53EC102B51EC180B1AF025FA02D2AF
:103AF0001FED4A0B03E0B0EE480AF0EE680AB0EEA4
:103B0000408AF0EE608A9FEDC20B53EC102B51EC13
:103B1000180B1AF0F9F902D29FEDBD0B03E0B0EEDD
:103B2000480AF0EE680AB0EE408AF0EE608AB0EE25
:103B3000480AF0EE680A1EF087FEB0EE40DAF0EEBA
:103B400060DA51EC1D0B1AF00FFA02909DED001B8C
:103B5000B0EE4C0AF0EE6C0A1FF092F9B0EE40DACB
:103B6000F0EE60DA51EC1D0B1AF0FEF90390B0EEA6
:103B70004A1AF0EE6A1AB0EE4B0AF0EE6B0A1FF02A
:103B80007FF9B0EE40DAF0EE60DA51EC1D0B1AF07E
:103B9000EBF904909DED020ADDED030A9DED041A98
:103BA00005B0BDEC108B30BD1FB5044605208DF867
:103BB00000008DF801008DF802008DF803008DF8EB
:103BC000040003208DF8050005208DF806008DF80F
:103BD00007008DF808008DF809008DF80A008DF8AF
:103BE0000B008DF80C008DF80D0000231A46694675
:103BF000A06808F0CEFA1FBD00B52DED060BCBB0C6
:103C000085484990322048904FF47A71489891FB4A
:103C1000F0F04790479800EB80004000469032213A
:103C200047984843459000204490322043907B4879
:103C300000680CF0B9FC7A4988422ED079480068B7
:103C400008900220079000200690439880B20699C1
:103C5000CDE9001071480068406808AB0490079AED
:103C600044990BF082F90590059810B9059851B068
:103C700000BD6A4800684068049044990BF012FB4C
:103C80004FF4FA7001F04AFD64480068FFF78CFFBA
:103C90004FF4FA5001F042FD00BF604800680CF09C
:103CA00083FC5F4988422BD05C4800680CF081FCA3
:103CB00030BB5A48006840680146029003A820F0D3
:103CC00087FC182203A93DA81BF066FC18223DA919
:103CD00037A81BF061FC37AB3DAA26A94F48006806
:103CE000FFF74EFD4D48006880680146019002A82C
:103CF00008F071F81C2202A930A81BF04DFC18E056
:103D00004648006880680146019002A808F063F800
:103D10001C2202A930A81BF03FFC1C2230A929A8B4
:103D20001BF03AFC29AB30AA26A93C480068FFF7F3
:103D300027FDDDED260A9DED4B0A30EE600A8DED84
:103D4000080A08981AF0CCF8CDE92401DDED270A1D
:103D50009DED4C0A30EE600A8DED080A08981AF0C5
:103D6000BFF8CDE922019DED280AF1EE400A9DED54
:103D70004D0A30EE600A8DED080A08981AF0B0F886
:103D8000CDE920014E981AF0ABF89FED270B53ECCC
:103D9000102BCDE906019DED060B51EC100B19F02F
:103DA00081FFCDE91E0150981AF09AF89FED1E0B85
:103DB00053EC102BCDE906019DED060B51EC100BD9
:103DC00019F070FFCDE91C01144800680CF0ECFB01
:103DD000134988423ED0114800684068089020F09E
:103DE00095FB8DED180ACDED190A8DED1A1ACDED62
:103DF0001B1A18A8FFF77FFD8DED060ACDED070A07
:103E00008DED081A089813E0000000000000004043
:103E1000000000000000F0BFA086010008000020A4
:103E2000000A01037077020811DD52A246DF913FBC
:103E300003901AF055F81FED040B53EC102BCDE94D
:103E400004019DED040B51EC100B19F09DFFCDE921
:103E5000120128E0FE4800688068089007F0BEFE66
:103E60008DED140ACDED150A8DED161ACDED171A4C
:103E700014A8FFF740FD8DED060ACDED070A8DED84
:103E8000081A089803901AF02BF81FED190B53EC41
:103E9000102BCDE904019DED040B51EC100B19F032
:103EA00073FFCDE912010020119010900F900E9039
:103EB00002200D909FEDE70A8DED090AE4480068A5
:103EC0000CF072FBE449884203D19FEDE40A8DEDCA
:103ED000090A9DED4B0AB5EEC00AF1EE10FA14DDA9
:103EE000DDED4B0A9DED0D0AB8EEC00AF4EEC00AF6
:103EF000F1EE10FA02D29DED4B0A03E09DED0D0AA2
:103F0000B8EEC00A8DED0C0A23E09DED4B0AB5EE2C
:103F1000C00AF1EE10FA18D20D98404200EE100AD5
:103F2000F8EEC00A9DED4B0AF4EEC00AF1EE10FA6D
:103F300002D29DED4B0A05E00D98404200EE100ABA
:103F4000B8EEC00A8DED0C0A03E09FEDC50A8DEDB9
:103F50000C0A9DED4C0AB5EEC00AF1EE10FA14DD24
:103F6000DDED4C0A9DED0D0AB8EEC00AF4EEC00A74
:103F7000F1EE10FA02D29DED4C0A03E09DED0D0A20
:103F8000B8EEC00A8DED0B0A23E09DED4C0AB5EEAC
:103F9000C00AF1EE10FA18D20D98404200EE100A55
:103FA000F8EEC00A9DED4C0AF4EEC00AF1EE10FAEC
:103FB00002D29DED4C0A05E00D98404200EE100A39
:103FC000B8EEC00A8DED0B0A03E09FEDA50A8DED5A
:103FD0000B0A9F4800680CF0E7FA9F49884208D016
:103FE000DDED350A9DED4D0A30EE800A8DED0A0AB1
:103FF00007E0DDED350A9DED4D0A30EE800A8DEDCE
:104000000A0AE0E11FED780B53EC102B9DED1E0B1F
:1040100051EC100B19F0B8FECDE906019DED060B31
:1040200051EC100B19F0A0FF089089480068C06897
:104030000790DDED081A9DED0A1ADDED0B0A9DEDE6
:104040000C0A08F0F6FD479880B2089001F066FB74
:1040500011994798084411907D4800680CF0A4FA23
:104060007D49884245D07A4800680CF0A2FAE0BB4E
:10407000774800684068089020F048FA8DED180AEB
:10408000CDED190A8DED1A1ACDED1B1A18A8FFF700
:1040900032FC8DED060ACDED070A8DED081A089861
:1040A000059019F01DFFCDE91201694800684068CC
:1040B0000146029003A820F08BFA182203A93DA81C
:1040C0001BF06AFA37AB3DAA26A961480068FFF7E2
:1040D00057FB5F48006880680146019002A807F01E
:1040E0007AFE1C2202A930A800E002E01BF054FA7C
:1040F00030E0574800688068089007F06FFD8DED4C
:10410000140ACDED150A8DED161ACDED171A14A867
:10411000FFF7F1FB8DED060ACDED070A8DED081ACC
:104120000898059019F0DCFECDE9120148480068B6
:1041300080680146019002A807F04DFE1C2202A9EA
:1041400030A81BF029FA29AB30AA26A940480068FC
:10415000FFF716FBDDED260A9DED4B0A30EE600AF7
:104160008DED080A089819F0BBFECDE92401DDEDBC
:10417000270A9DED4C0A30EE600A8DED080A08987A
:1041800019F0AEFECDE922019DED280AF1EE400ABC
:104190009DED4D0A30EE600A8DED080A089819F081
:1041A0009FFECDE920010D9819F05DFECDE90601D5
:1041B0009DED240B1EF0F8F88DED040B9DED060B24
:1041C00053EC102B9DED040B51EC100B19F09CFEE1
:1041D00006D29DED240B51EC100B19F0C5FE0C908E
:1041E0000D9819F040FECDE906019DED220B1EF061
:1041F000DBF88DED040B9DED060B53EC102B9DEDC4
:10420000040B51EC100B19F07FFE06D29DED220B32
:1042100051EC100B19F0A8FE0B900D4800680CF043
:10422000C3F90D49884258D14F9819F059FECDE98C
:1042300006019DED240B1EF0B7F88DED040B9DEDEE
:10424000060B53EC102B9DED040B51EC100B09E009
:10425000080000208FC2F53D000A01039A99993F9A
:104260000000000019F050FE37D24F9819F038FEC8
:10427000CDE906019DED220B1EF096F88DED040BA5
:104280009DED060B53EC102B9DED040B51EC100B28
:1042900019F03AFE21D29DED1E0B53EC102B9DED33
:1042A000120B51EC100B19F0F7FCCDE904019DED58
:1042B000040B1EF079F88DED060B9DED1C0B53ECF5
:1042C000102B9DED060B51EC100B19F01DFE04D2C6
:1042D000479910980844109069E04F9819F000FE33
:1042E000CDE906019DED240B1EF05EF88DED040B6B
:1042F0009DED060B53EC102B9DED040B51EC100BB8
:1043000019F002FE4DD24F9819F0EAFDCDE90601F1
:104310009DED220B1EF048F88DED040B9DED060B74
:1043200053EC102B9DED040B51EC100B19F0ECFD30
:1043300037D2099819F0D4FDCDE906019DED200B87
:104340001EF032F88DED040B9DED060B53EC102B97
:104350009DED040B51EC100B19F0D6FD21D29DED13
:104360001E0B53EC102B9DED120B51EC100B19F0A2
:1043700093FCCDE904019DED040B1EF015F88DEDC5
:10438000060B9DED1C0B53EC102B9DED060B51EC19
:10439000100B19F0B9FD04D24799109808441090F9
:1043A00005E0109818B147990F9808440F90469966
:1043B0000F98884202DD002010900F9045991098C8
:1043C000884200DB04E0499911988842FFF61AAE52
:1043D00000BF534800680CF0E7F85249884213D0F8
:1043E0000EE04F480068C068089008F026FD479826
:1043F00080B2089001F092F947990E9808440E9007
:1044000045990E988842ECDB49991198884217DB50
:1044100045A01EF00FF8424800680CF0C5F841496D
:1044200088420AD03E4800684068089044990BF0E2
:1044300070F94FF4FA7001F071F93F48007816E412
:10444000374800680CF0B0F8364988420AD0344842
:1044500000684068089044990BF05BF940F6B8306A
:1044600001F05CF93548007801E42DE9F047054694
:1044700042F210774FF032084FF47A7090FBF8F464
:1044800004EB84004FEA4009322004FB00FA0026C6
:1044900012E0234909685FED8E1A1FED8F1A5FED58
:1044A000900A00EE105AB8EEC00AC86808F0EAFB9D
:1044B000A0B201F033F92644BE42EADB1F4800787F
:1044C000BDE8F08770B500230A22012103200EF019
:1044D000D9FE1B49086006232422022103200EF086
:1044E000D1FE184908601848007800F00100002843
:1044F00014D115481EF0DAF800280FD000250C2042
:104500001DF072FF04460125002110F06BF80446EF
:1045100000250E4804600C48AFF3008070BD000019
:1045200008000020000A01035461736B2074696D58
:10453000656F7574210A00007777020876770208A4
:10454000C4000020C80000205006002054060020AF
:1045500010B52DED068B84B0044694ED020A10EEE2
:10456000101A084619F0BCFC41EC180B94ED010A36
:1045700010EE101A084619F0B3FC41EC190B94ED3B
:10458000000A10EE101A084619F0AAFC41EC1A0BAA
:104590008DED028B8DED009B53EC1A2BFEA01DF0D0
:1045A00049FF04B0BDEC068B10BD1CB5044694ED6C
:1045B000000ABDEEC00A10EE100A00B2ADF802000B
:1045C00094ED010ABDEEC00A10EE100A00B2ADF87B
:1045D000040094ED020ABDEEC00A10EE100A00B20B
:1045E000ADF80000207B8DF807009DF806008DF8DF
:1045F00006009DF80600217C0843C0B28DF8060035
:104600009DF80600217D40EA4100C0B28DF8060009
:104610009DF80600A17D40EA8100C0B28DF8060039
:104620009DF80600617D40EAC100C0B28DF8060029
:10463000E74909684869694608F023FD4FF47A6044
:1046400001F06CF81CBD00B5B5B0002022909FEDC4
:10465000E11ADFEDE00A9FEDDF0A2FA81BF094FCC2
:104660009FEDDC1ADFEDDB0A9FEDDA0A099032A834
:104670001BF08AFC089000200190029003900490A7
:1046800000900998D0ED022A90ED012AD0ED001A91
:10469000089890ED021AD0ED010A90ED000A00236F
:1046A0001A46194616A81BF076FC9FEDCA1ADFEDD4
:1046B000C90A9FEDC80A13A81BF066FC9FEDC51A36
:1046C000DFEDC40A9FEDC30A10A81BF05DFC0020BB
:1046D0000D900A200C90BE4800680BF065FFBE49A3
:1046E00088422AD0BD480068099002200890002026
:1046F00007900C9880B20799CDE90010B448006883
:10470000406809AB0590089A0D990AF02EFC0690B6
:10471000069810B9069835B000BDAD4800684068ED
:1047200005900D990AF0BEFD4FF4FA7000F0F6FF07
:104730004FF4FA6000F0F2FF00BFA9481DF07AFEC6
:10474000A34800680BF030FFA349884230D0A0484E
:104750000068406806901FF0FDFF8DED070ACDED63
:10476000080A8DED091A9DED080A8DED130A984887
:104770000068406806901FF0EDFF8DED070ACDED53
:10478000080A8DED091A9DED070A8DED140A90486F
:104790000068406806901FF0DDFF8DED070ACDED43
:1047A000080A8DED091A9DED090A8DED150A35E00F
:1047B0008748006880680146019002A807F00FFC56
:1047C00002A80FC8CDE90823CDE906019DED060A30
:1047D0008DED130A7E48006880680146019002A8AA
:1047E00007F0FDFB02A80FC8CDE90823CDE90601BB
:1047F0009DED070A8DED140A754800688068014632
:10480000019002A807F0EBFB02A80FC8CDE908232E
:10481000CDE906019DED080A8DED150A1598039066
:1048200019F05EFBCDE908011498039019F058FBCC
:10483000CDE906011398039019F052FBCDE904016C
:10484000DDE90801CDE90201DDE90601CDE900015C
:104850009DED040B53EC102B62A01DF0EBFD9FEDC2
:104860005D1ADFED5C0A9FED5B0A2FA81BF08CFB45
:10487000099000200123CDE9013003900490142019
:1048800000900998D0ED022A90ED012AD0ED001A8F
:104890009DED151ADDED140A9DED130A00231A464D
:1048A000194623A81BF077FB30220146089016A872
:1048B0001AF072FE16A8FFF778FE59481DF0BAFDEF
:1048C000434800680BF070FE4349884230D04048AE
:1048D0000068406806901FF03DFF8DED070ACDEDA2
:1048E000080A8DED091A9DED080A8DED100A384869
:1048F0000068406806901FF02DFF8DED070ACDED92
:10490000080A8DED091A9DED070A8DED110A304850
:104910000068406806901FF01DFF8DED070ACDED81
:10492000080A8DED091A9DED090A8DED120A7DE048
:104930002748006880680146019002A807F04FFBF5
:1049400002A80FC8CDE90823CDE906019DED060AAE
:104950008DED100A1E48006880680146019002A88B
:1049600007F03DFB02A80FC8CDE90823CDE90601F9
:104970009DED070A8DED110A154800688068014613
:10498000019002A807F02BFB02A80FC8CDE908236D
:10499000CDE9060146E000004E65772047696D626B
:1049A000616C20726F746174696F6E20616E676CE8
:1049B00065206973205B2025302E33662C2025303E
:1049C0002E33662C2025302E3366205D0A0A000027
:1049D0000800002000000000000A010374770208AC
:1049E000FCA30208496E697469616C2047696D62B5
:1049F000616C20726F746174696F6E20616E676C98
:104A0000653A205B2025302E33662C2025302E334E
:104A1000662C2025302E3366205D0A0A0000000037
:104A2000A8A502089DED080A8DED120A002001904C
:104A300002900390049014200090DDED122A9DED69
:104A4000112ADDED101A9DED151ADDED140A9DED0C
:104A5000130A4FF4E163C822002123A81BF09BFA3C
:104A600030220146099016A81AF096FD16A8FFF705
:104A70009CFDFE4800680BF097FDFD49884230D050
:104A8000FA480068406806901FF064FE8DED070A42
:104A9000CDED080A8DED091A9DED080A8DED100A7D
:104AA000F2480068406806901FF054FE8DED070A3A
:104AB000CDED080A8DED091A9DED070A8DED110A5D
:104AC000EA480068406806901FF044FE8DED070A32
:104AD000CDED080A8DED091A9DED090A8DED120A3A
:104AE00035E0E248006880680146019002A807F0BE
:104AF00076FA02A80FC8CDE90823CDE906019DED9D
:104B0000060A8DED100AD9480068806801460190B8
:104B100002A807F064FA02A80FC8CDE90823CDE97E
:104B200006019DED070A8DED110AD04800688068E6
:104B30000146019002A807F052FA02A80FC8CDE979
:104B40000823CDE906019DED080A8DED120A10A893
:104B5000FFF7FEFCC7A01DF06DFCCDA01DF06AFCA8
:104B6000C24800680069099007F081FCCDA01DF0E3
:104B700061FCD8481DF05EFC1FED6A1A5FED6B0A00
:104B80001FED6C0A2FA81BF0FFF9099000200123EC
:104B9000CDE9013003900490142000900998D0EDE5
:104BA000022A90ED012AD0ED001A9DED151ADDEDD7
:104BB000140A9DED130A0023C74A194623A81BF0C7
:104BC000EAF930220146089016A81AF0E5FC16A86A
:104BD000FFF7EBFCA54800680BF0E6FCA44988420F
:104BE00030D0A2480068406806901FF0B3FD8DEDFC
:104BF000070ACDED080A8DED091A9DED080A8DED25
:104C0000100A9A480068406806901FF0A3FD8DEDD9
:104C1000070ACDED080A8DED091A9DED070A8DED05
:104C2000110A92480068406806901FF093FD8DEDD0
:104C3000070ACDED080A8DED091A9DED090A8DEDE3
:104C4000120A35E08948006880680146019002A890
:104C500007F0C5F902A80FC8CDE90823CDE9060180
:104C60009DED060A8DED100A8048006880680146B7
:104C7000019002A807F0B3F902A80FC8CDE90823F4
:104C8000CDE906019DED070A8DED110A7748006810
:104C900080680146019002A807F0A1F902A80FC898
:104CA000CDE90823CDE906019DED080A8DED120A34
:104CB00010A8FFF74DFC6FA01DF0BCFB87A01DF0F6
:104CC000B9FB6A4800680069099007F0D7FB88487B
:104CD0001DF0B0FB87A01DF0ADFB6420ADF83A00DD
:104CE0003220ADF83C006FF0C700ADF838004FF44B
:104CF0007A600B9064200A90002009900FE05B48D6
:104D0000006840690EA9089008F0D5F90A9880B2A9
:104D1000089000F003FDDDE90901084409900B99B2
:104D200009988842EBDB514800680BF03DFC504984
:104D3000884230D04D480068406806901FF00AFD58
:104D40008DED070ACDED080A8DED091A9DED080AD3
:104D50008DED100A45480068406806901FF0FAFC87
:104D60008DED070ACDED080A8DED091A9DED070AB4
:104D70008DED110A3D480068406806901FF0EAFC7E
:104D80008DED070ACDED080A8DED091A9DED090A92
:104D90008DED120A35E035480068806801460190C3
:104DA00002A807F01CF902A80FC8CDE90823CDE935
:104DB00006019DED060A8DED100A2C4800688068FA
:104DC0000146019002A807F00AF902A80FC8CDE930
:104DD0000823CDE906019DED070A8DED110A234850
:104DE000006880680146019002A807F0F8F802A860
:104DF0000FC8CDE90823CDE906019DED080A8DED28
:104E0000120A10A8FFF7A4FB49A01DF013FB9FEDA9
:104E10004E1ADFED4D0A9FED4C0A2FA81BF0B4F897
:104E2000099000200123CDE9013003900490142063
:104E300000900998D0ED022A90ED012AD0ED001AD9
:104E40009DED151ADDED140A9DED130A00231A4697
:104E5000194623A81BF09FF830220146089016A897
:104E60001AF09AFB16A8FFF7A0FB6FE008000020DD
:104E7000000A0103456E7375726520534420636117
:104E800072642069732070726573656E742E0A00F7
:104E900054616B696E6720706963747572652E2E3C
:104EA0000A000000436865636B20444A4920474F6D
:104EB00020417070206F722053442063617264201F
:104EC000666F722061206E657720706963747572F9
:104ED000652E0A005CA502080CFEFFFF5374617288
:104EE00074696E6720766964656F2E2E0A00000073
:104EF00094A4020853657474696E6720526F6C6CD9
:104F0000207261746520746F2031302C20506974D8
:104F10006368207261746520746F20352C2059619C
:104F200077205261746520746F202D32302E0A0074
:104F3000526573657474696E6720706F7369746904
:104F40006F6E2E2E2E0A00000000000063480068DD
:104F50000BF02AFB6249884230D060480068406804
:104F600006901FF0F7FB8DED070ACDED080A8DEDD9
:104F7000091A9DED080A8DED100A5848006840682E
:104F800006901FF0E7FB8DED070ACDED080A8DEDC9
:104F9000091A9DED070A8DED110A50480068406816
:104FA00006901FF0D7FB8DED070ACDED080A8DEDB9
:104FB000091A9DED090A8DED120A39E0474800688B
:104FC00080680146019002A807F009F803A80DC8FF
:104FD0000299CDE90823CDE906109DED060A8DED75
:104FE000100A3E48006880680146019002A806F059
:104FF000F6FF02A90EC90598CDE90723069109908D
:105000009DED070A8DED110A34480068806801465D
:10501000019002A806F0E3FFDDE90403DDE90212D6
:10502000CDE90803CDE906129DED080A8DED120ABF
:1050300010A8FFF78DFA2BA01DF0FCF92748006897
:105040000069099007F021FA4FF47A7000F066FBCE
:1050500029A01DF0EFF9214800680BF0A5FA2049BE
:1050600088420AD01D480068406809900D990AF0EE
:1050700050FB40F6B83000F051FB0120FFF74BBB6E
:1050800070B500230A22012103200EF0FBF8264907
:10509000086006232422022103200EF0F3F823499E
:1050A00008602348007800F00100002814D120484F
:1050B0001DF0FCFA00280FD000250C201DF094F9FB
:1050C0000446012500210FF08DFA044600251948F9
:1050D00004601748AFF3008070BD00000800002096
:1050E000000A010353746F7070696E6720766964FB
:1050F000656F2E2E2E0A0000436865636B20444ABC
:105100004920474F20417070206F72205344206324
:1051100061726420666F722061206E657720766907
:1051200064656F2E0A000000D0000020D40000202B
:10513000500600205406002000B52DED040B2DED87
:10514000108B89B09DED1B0A20EE000A10EE101A9C
:10515000084618F0C5FE41EC190B9DED1C0A20EE27
:10516000000A10EE101A084618F0BAFE41EC1F0BA8
:1051700053EC192B18F0EFFC41EC1E0B9FEDA10B2B
:1051800053EC102B18F08EFD41EC1D0B9FED9F0B87
:1051900053EC102B18F0DFFC41EC1A0B9DED1A0AB2
:1051A000DDED1B0A20EE200ADDED190A9DED1C1A2B
:1051B00000EE810A10EE101A084618F091FE41EC3C
:1051C0001D0B9FED940B53EC102B18F06BFD41EC75
:1051D0001B0B9DED1A0ADDED1C0A20EE200ADDED09
:1051E000190A9DED1B1A00EEC10A10EE101A0846AE
:1051F00018F076FE41EC1D0B9FED820B53EC102B4B
:1052000018F050FD41EC180B9DED1B0ADDED1C0A5A
:1052100020EE200ADDED190A9DED1A1A00EE810A32
:1052200010EE101A084618F05BFE41EC1D0B9FEDC6
:10523000790B53EC102B18F035FD41EC1C0B9DED58
:105240001A0A20EE000A10EE101A084618F048FE5E
:1052500041EC1F0B53EC192B18F07DFC41EC1E0B9D
:105260009FED680B53EC102B18F01CFD41EC1D0B4F
:105270009FED660B53EC102B18F06DFCCDE900018F
:105280009FED620B53EC102B51EC180B18F054FEF1
:1052900002D29FED5E0B03E0B0EE480AF0EE680A22
:1052A000B0EE408AF0EE608A9FED5C0B53EC102B61
:1052B00051EC180B18F028FE02D29FED580B03E0BA
:1052C000B0EE480AF0EE680AB0EE408AF0EE608A6E
:1052D000B0EE480AF0EE680A1DF0B6FA8DED060B46
:1052E0009DED001BB0EE4C0AF0EE6C0A1DF0C8FDFF
:1052F0008DED040BB0EE4A1AF0EE6A1AB0EE4B0ACE
:10530000F0EE6B0A1DF0BCFD8DED020B9DED020B66
:105310009DED041B9DED062B09B0BDEC108B0FBD60
:1053200000B52DED040B87B0DDED0A1A9DED091ACD
:10533000DDED080A9DED070AFFF7FEFE8DED000B7F
:105340008DED021B8DED042B9DED000B0BB000BD10
:1053500000B52DED040B87B0DDED0A1A9DED091A9D
:10536000DDED080A9DED070AFFF7E6FE8DED000B67
:105370008DED021B8DED042B9DED020B0BB000BDDE
:1053800000B52DED040B87B0DDED0A1A9DED091A6D
:10539000DDED080A9DED070AFFF7CEFE8DED000B4F
:1053A0008DED021B8DED042B9DED040B0BB000BDAC
:1053B00010B52DED048BB0EE408AF0EE608A9FEDC3
:1053C000190B53EC102B51EC180B18F06BFC41EC43
:1053D000190BB0EE490AF0EE690ABDEC048B10BD62
:1053E00010B500230A22012103200DF04BFF0F49C5
:1053F000086006232422022103200DF043FF0C49FC
:10540000086010BD00000000000000C000000000A7
:105410000000F03F0000000000000040000000001D
:105420000000F0BFE8C35CB0DDA54C40DC0000200C
:10543000E000002003204D494870002008707047AC
:1054400010B58AB04948007828B35A208DF820005A
:1054500003208DF82100464800688168684606F000
:1054600014FE9DE80F000C46CDE90623CDE90401AA
:10547000CDF822400D208DF826000A208DF8270057
:105480003C4A082108A815F091FC00203749087013
:105490000120487000BF0AB010BD00B589B02021BE
:1054A000684618F0ECF9334A08A9684615F068FC1C
:1054B000052801D009B000BDBDF820001E2800DD80
:1054C000F8E79DF800005A2800D0F3E79DF80100A6
:1054D00004282ED19DF80200FF2829D19DF8030051
:1054E000FF2825D19DF804000D2821D19DF8050045
:1054F0000A281DD11E4909680022C868114607F014
:105500009DFA5A208DF8000014208DF801004F20DC
:105510008DF802004B208DF803000D208DF804005B
:105520000A208DF80500134A0621684615F03EFC56
:1055300000E000BF00BF00BFBCE710B5FFF7ADFF44
:10554000FFF77EFF10BD10B500230A2201210320C2
:105550000DF098FE0849086006232422022103204A
:105560000DF090FE0549086010BD0000E800002025
:105570000800002000440040EC000020F000002063
:1055800010B500F09DF84FF4A06000F0ABF914F0F6
:10559000A7FB13F0CFFD12F0ACFB12F023FD13F0CC
:1055A000D4F800F046F915F01DFC12F04EFA13F095
:1055B00035FA10BD10B500230A22012103200DF099
:1055C00061FE0549086006232422022103200DF014
:1055D00059FE0249086010BDF8000020FC000020C0
:1055E0001FB50121084601F0CEFE0121084601F059
:1055F000CAFE0020ADF80C00ADF80600C7200290EE
:1056000042F2CF00ADF8040000208DF80E0001A991
:10561000534802F060F819208DF8000003208DF83F
:1056200001008DF8020001208DF80300684600F0AB
:105630005EF901214A4802F003FD01221146484863
:1056400002F0EAFC0021464802F0CEF81FBD1FB56B
:105650000121084601F086FE0121084601F082FE84
:105660000020ADF80C00ADF80600C72002902720FE
:1056700002904AF20F40ADF8040001A94FF08040BB
:1056800002F029F81C208DF8000002208DF801009E
:1056900003208DF8020001208DF80300684600F019
:1056A00026F90121880702F0CBFC01221146900760
:1056B00002F0B2FC00214FF0804002F095F81FBDCF
:1056C00030B5284800684FF47A72B0FBF2F1B1F1BE
:1056D000807F01D301201DE021F07F40401E4FF06C
:1056E000E022506150170022002807DA13071D0E30
:1056F0001D4B00F00F04241F1D5503E013071C0E63
:105700001A4B1C5400BF00204FF0E022906107208C
:105710001061002008B100BFFEE730BD002106E0A7
:1057200047F2305100BF0A1EA1F10101FBD1021E58
:10573000A0F1010398B2F3D1704710B500230A22FB
:10574000012103200DF09EFD094908600623242253
:10575000022103200DF096FD0649086010BD0000EF
:10576000000001403401002018ED00E000E400E0FA
:10577000080100200C01002000B587B00121084677
:1057800001F0BDFD0121102001F0FDFD4FF4C060CE
:10579000059002208DF8180003208DF819000020D4
:1057A0008DF81A0001208DF81B0005A9454801F06D
:1057B000C3FA07220921434801F049FB07220A21C5
:1057C000404801F044FB4FF4613001900020ADF8F7
:1057D0000800ADF80A00ADF80C00ADF810000C2080
:1057E000ADF80E0001A9384802F081FD012240F217
:1057F0002551354802F0B9FE0121334802F0FFFD82
:1058000000BF8021304802F0D5FE0128F9D107B051
:1058100000BD08B501208DF801008DF8020025209B
:105820008DF8000001208DF80300684600F05FF855
:1058300008BD10B5FFF7A0FFFFF7EBFF10BD70B577
:105840002021214802F0B6FE012828D100201F495E
:1058500008701F48006804681B4802F0FFFDC5B2CD
:1058600020682946C269204690471A4908700846B0
:105870000078012812D116490968086811F023FF41
:105880001549086008460168114800680DF03DFAA6
:1058900000201049087001200C49087000BF70BD3D
:1058A00010B500230A22012103200DF0EBFC0B4967
:1058B000086006232422022103200DF0E3FC08499E
:1058C000086010BD000002400010014014010020DB
:1058D0000800002001000020040000201801002022
:1058E0001C01002032490143324A1160704770B5F3
:1058F000002100230F22C4781CB32E4C246804F42A
:10590000E064C4F5E064C4F30721C1F10404E3B228
:105910000A4144789C40E1B28478144021430C074A
:10592000210E254C05786155047804F01F050124EB
:10593000AC4005786D11AD0005F1E025C5F80041DA
:1059400009E0047804F01F050124AC401B4D0678E3
:10595000761145F8264070BD194A0A400243154B9E
:105960001B1F1A60704739B1124A121D1268024398
:10597000104B1B1D1A6006E00E4A121D126882436E
:105980000C4B1B1D1A607047042808D14FF0E02112
:10599000096941F004014FF0E022116107E04FF086
:1059A000E021096921F004014FF0E0221161704704
:1059B0000000FA050CED00E000E400E080E100E00A
:1059C00080FFFF1F10B50446FE48844209D1012123
:1059D000480601F031FD00214FF0007001F02CFD70
:1059E00008E00121880601F027FD00214FF08060CA
:1059F00001F022FD10BD30B50246002000231468DE
:105A000024F002041460146844F00104146000E0FF
:105A10005B1C546804F001041CB94FF6FF74A342E8
:105A2000F6D1546804F001040CB900206CE08C79C4
:105A3000012C04D1146844F08004146003E014685D
:105A400024F080041460CC79012C04D1146844F053
:105A50004004146003E0146824F0400414600C7ADD
:105A6000012C04D1146844F02004146003E014688D
:105A700024F0200414604C7A012C04D1146844F002
:105A80001004146003E0146824F0100414608C7A8D
:105A9000012C04D1146844F00804146003E0146875
:105AA00024F008041460CC7A012C04D1146844F06A
:105AB0000404146003E0146824F0040414608C7877
:105AC000A407CD7844EA05640D7944EA05444D798C
:105AD00044EA05540D886D1E2C43D461146824F0EB
