:020000040800F2
:1000000018C0002049850008518500085385000864
:100010005585000857850008598500080000000034
:100020000000000000000000000000005B850008E8
:100030005D850008000000005F850008A9520108E6
:1000400063850008638500086385000863850008F0
:1000500063850008638500086385000863850008E0
:1000600063850008638500086385000863850008D0
:1000700063850008638500086385000863850008C0
:1000800063850008638500086385000863850008B0
:1000900051640108638500086385000863850008D2
:1000A0006385000863850008638500086385000890
:1000B0006385000863850008638500086385000880
:1000C0006385000863850008638500086385000870
:1000D00063850008EB540008458701084F87010835
:1000E0006385000863850008638500088D7F01082B
:1000F000638500082981010863850008638500087D
:10010000638500086385000863850008638500082F
:100110005987010863850008638500086385000826
:10012000638500086385000863850008638500080F
:1001300063850008638500086385000863850008FF
:10014000056601086385000863850008638500086B
:1001500063850008638500086385000863870108DC
:1001600063850008638500086385000863850008CF
:1001700063850008638500086385000863850008BF
:100180006385000863850008DFF814D01CF09CFA32
:100190001AF0B6FF00480047F10700081BF0ABFF5C
:1001A00018C00020FEB442464B4654465D463EB45D
:1001B0001AF005FD3EBC90469946A246AB46FEBCF1
:1001C00000F032F8704700BF80EC200B7047C0ECA5
:1001D000200B704790EC200B7047D0EC200B704741
:1001E00085460D98DDF838E00F9B5DF8042B20E97B
:1001F0000C009DE8FE1F854601BD4DF808ED0DF190
:10020000080E4DF804ED2DE9FF1F002102B46946E8
:1002100081B01CF0ACF9DDF840E012B0704700008E
:100220003C6C0200CC7202004DF808ED0DF1080E96
:100230004DF804ED2DE9FF1F002102B4694681B09D
:100240001CF0FCB92DE9F0472DED048B4FF00009AF
:100250009FEDF90A10EE105A9FEDF70A10EE106AA2
:100260009FEDF50A10EE107A9FEDF30A10EE108A5A
:100270009FEDF10AB0EE408AB6EE000AF0EE408A39
:10028000B6EE000AB0EE409AB3EE040AF0EE409AE1
:10029000EA480078042803D0BDEC048BBDE8F08761
:1002A000E748807D00B9F7E7E548007F48B9E348B3
:1002B000007A28B1E148007A20F00200DF49087294
:1002C000EAE718F0CDFDDF4801F03CFADC4881890F
:1002D0000122DC4819F0DAFADB490870D848018AB3
:1002E0000322D84819F0D2FAD7498871D448C18975
:1002F0000222D44819F0CAFAD349C870D048418ABA
:100300000422D04819F0C2FACF494872002487E08D
:1003100004EB4400CC49085C012813D104EB4400F1
:1003200008448078401E00EB4000085C032809D197
:10033000002104EB4400C44A10448078401E00EBC6
:100340004000115404EB4400BF49085C022813D15B
:1003500004EB440008448078401E00EB4000085C39
:10036000032809D1022104EB4400B74A10448078E5
:10037000401E00EB4000115404EB4400B249085CFD
:10038000032817D104EB440008448078401E00EB9A
:100390004000085C03280DD1022104EB4400AA4A66
:1003A00010448078401E00EB40001154022004EB02
:1003B0004401505404EB4400A349085C78BB04EBAF
:1003C000440008448078401E00EB4000085C03288D
:1003D00025D1611CC8B219F010FA48B1002104EB14
:1003E0004400994A10448078401E00EB40001154AC
:1003F00093480A30611C30F811009149C98B88423A
:100400000DDA022104EB44008F4A10448078401E2C
:1004100000EB40001154022004EB44015054641CD2
:10042000042CFFF675AF88480078012806D101F04A
:10043000A2FA10EE105A012083490873824880798D
:10044000012807D1032001F096FA10EE105A01207E
:100450007D4908737C48C078012807D1022001F04B
:10046000ECFA10EE106A0120774948737648407A1A
:10047000012807D1042001F0E0FA10EE106A0120F3
:100480007149487370480078022803D118EE105A59
:100490006D4908736C488079022805D1B1EE480A8D
:1004A00010EE105A684908736748C078022803D1D3
:1004B00018EE106A644948736348407A022805D1EF
:1004C000B1EE480A10EE106A5F4948735E48007842
:1004D000032805D1B1EE680A10EE105A5A49087384
:1004E00059488079032803D118EE905A5649087369
:1004F0005548C078032805D1B1EE680A10EE106A9D
:10050000514948735048407A032803D118EE906A45
:100510004D494873012019F070F970B9032019F0A2
:100520006CF950B94848007B022806D19FED420A79
:1005300010EE105A002044490873022019F05DF9AA
:1005400070B9042019F059F950B93F48407B02288E
:1005500006D19FED390A10EE106A00203A4948731F
:100560003948007B00281BDD3748407BC0B902209A
:1005700019F043F940B1022001F05FFA10EE106A61
:100580000420314948730BE0042019F036F938B1E2
:10059000042001F052FA10EE106A04202A49487330
:1005A0002948407B00281BDD2748007BC0B901207B
:1005B00019F023F940B1012001F0DDF910EE105AD5
:1005C0000420214908730BE0032019F016F938B113
:1005D000032001F0D0F910EE105A04201A490873D4
:1005E0001948007B002803DC1748407B00283DDDCC
:1005F0004FF001091348B0F91C00B0F5FA7F02DD95
:1006000019EE107A0EE00F48B0F91C0010F5FA7FD1
:1006100004DAB1EE490A10EE107A03E09FED060A03
:1006200010EE107A0748B0F91E00B0F5FA7F0DDD24
:1006300019EE908A26E000000000000084000020EF
:10064000083300204033002068330020FE48B0F912
:100650001E0010F5FA7F04DAB1EE690A10EE108A76
:1006600010E01FED0B0A10EE108A0BE04FF00009AE
:10067000002405E0002004EB4401F44A5054641CBB
:10068000042CF7DB002409E004EB4400EF49085C8C
:1006900004EB4401ED4A11444870641C042CF3DB64
:1006A000B9F1000F0FD0EA48C0F80150C0F805605A
:1006B000C0F80970C0F80D80E648007A40F00200EA
:1006C000E44908722AE0E348007A28B1E148007A58
:1006D00020F00200DF490872DD48D0F8010000EE8A
:1006E000100AB5EEC00AF1EE10FA06D01FED2E0A80
:1006F00010EE100AD649C1F80100D548D0F805001F
:1007000000EE100AB5EEC00AF1EE10FA06D01FEDA9
:10071000360A10EE100ACE49C1F8050000BFBBE54D
:10072000CD4A107B517BCB4A1278042A00D0704707
:10073000FC2801D0FC2910D10122C64B5A70B7EE1B
:10074000000A10EE102AC24BC3F80920C14A127ADF
:1007500042F00102BF4B1A721CE00022BD4B5A70DE
:10076000BB4AD2F8092000EE102AB5EEC00AF1EE1D
:1007700010FA06D01FED500A10EE102AB44BC3F841
:100780000920B44A127A2AB1B24A127A22F001023E
:10079000B04B1A7200BFCAE710B518F054FA01281E
:1007A00001D1FFF7BDFF10BD0020AC4908601AE081
:1007B000AB49AA4A1268885C411ECAB2A849A74B35
:1007C0001B68CA5450B10846A4490968405C28B95E
:1007D0000021A348001DA14A126881549F48006867
:1007E000401C9E4908609D4800680428E0DB704773
:1007F0001CB504F01BFD18F04BFA4FF47A7004F0AE
:10080000E3FD5F20974B98A29B4900909B481EF008
:10081000E7FF0446601C38B1B4F5967F04D29749CF
:1008200097A01EF0CDFF02E096A01EF0C9FF9DA08C
:100830009FA1A2A3A3A2CDE90010A5A1A7481EF0E5
:10084000BFFF6120874B88A28B4900908B481EF028
:10085000C7FF0446601C38B1B4F5967F04D28749BF
:1008600087A01EF0ADFF02E086A01EF0A9FF00F0F9
:100870009AFC002802DA4FF0FF301CBD18F0EAFAAB
:1008800019F0DCFC19F048FB19F002FE19F0ABF886
:1008900002224FF47A71AFF2EF0016F05CFD019086
:1008A00015E019F04DFE00F0E5FD18F082FA19F0A0
:1008B000CAFBFFF771FF19F0C8FD19F0E7F9FFF760
:1008C000C1FC15F00AF815F0A2FC15F0B5FFE8E739
:1008D00010B52DED048B5F480078042802D0BDECE4
:1008E000048B10BD5E482A38807D00B9F7E75C486C
:1008F0002A38007F48B95748007A28B15548007A0D
:1009000020F0020053490872E9E718F0B8FA0446EB
:10091000002C75D04F48007A40F002004D49087213
:1009200004F00100A0B14E492A39088C1AF0A8FD44
:1009300041EC190B9FED6A0B53EC102B1AF0AEFC37
:1009400041EC180B1AF00CFE4149C1F801001EE001
:1009500004F00400A0B142492A39088C1AF090FD35
:1009600041EC190B9FED600B53EC102B1AF096FC29
:1009700041EC180B1AF0F4FD3549C1F8010006E00E
:100980001FEDD30A10EE100A3149C1F8010004F03E
:100990000200A0B132492A39088C1AF071FD41ECED
:1009A000190B9FED4F0B53EC102B1AF077FC41EC19
:1009B000180B1AF0D5FD2649C1F80500A0E004F097
:1009C0000800A0B126492A39088C1AF059FD41ECDB
:1009D000190B9FED450B53EC102B1AF05FFC41EC0B
:1009E000180B1AF0BDFD1A49C1F8050088E01FED8B
:1009F000EE0A10EE100A1649C1F8050080E0FFE784
:100A00001448007A28B11348007A20F002001149F6
:100A100008720F48D0F8010000EE100AB5EEC00AC7
:100A2000F1EE10FA06D01FEDFC0A10EE100A08498C
:100A3000C1F801000648D0F8050000EE100AB5EE36
:100A4000C00AF1EE10FA53E0403300206833002072
:100A50003812002084000020C03900200C00002043
:100A60003233002058420208494D504F52545F4ED5
:100A70004F54494345000000B8630208121B002090
:100A8000257300004552524F523A206C6F67207018
:100A900072696E74657220696E6E6572206661752A
:100AA0006C740A0031303A34313A343700000000B7
:100AB0004D61722020382032303138005630352DCB
:100AC0003030000031303030303030300000000045
:100AD0004D61696E426F617264000000FC63020840
:100AE0009A9999999999B93F9A9999999999B9BF68
:100AF00006D09FEDB70A10EE100AB649C1F80500FE
:100B000000BFECE630B52DED0C8B8FB0B24800780D
:100B1000042803D00FB0BDEC0C8B30BDAF48807DF6
:100B200000B9F7E7AD48007F48B9AB48007A28B173
:100B3000A948007A20F00200A7490872EAE7A8490C
:100B4000096888680AF045FD8DED090ACDED0A0AAD
:100B50008DED0B1ACDED0C1ADDED0C1A9DED0B1A77
:100B6000DDED0A0A9DED090A04F0D6FAB0EE408ADE
:100B7000F0EE608A9B49A1F1080000F0ADFDB0EEF7
:100B8000480AF0EE680A1FF097FCB0EE40CAF0EE9B
:100B900060CA9349096888680AF065FD8DED0A0A04
:100BA000CDED0B0A8DED0C1A9DED0B0A10EE101A0F
:100BB00008461AF091FC41EC1D0B53EC1C2B1AF06B
:100BC0006DFB41EC1A0BB0EE480AF0EE680A1FF01C
:100BD00003FCB0EE40CAF0EE60CA8149096888683B
:100BE0000AF041FD8DED070ACDED080A8DED091AD9
:100BF0009DED070A10EE101A08461AF06DFC41EC44
:100C00001D0B53EC1C2B1AF049FB41EC1B0B53EC56
:100C10001A2B1AF09CFA41EC190B1AF0A1FC71493D
:100C200008390861B0EE480AF0EE680A1FF0D4FBFC
:100C3000B0EE40CAF0EE60CA6949096888680AF0F7
:100C400012FD8DED0A0ACDED0B0A8DED0C1A9DED0E
:100C50000B0A10EE101A08461AF03EFC41EC1D0B70
:100C600053EC1C2B1AF01AFB41EC1B0BB0EE480A9C
:100C7000F0EE680A1FF020FCB0EE40CAF0EE60CA49
:100C80005749096888680AF0EEFC8DED070ACDED3A
:100C9000080A8DED091A9DED070AB1EE400A10EE23
:100CA000105A28461AF018FC41EC1D0B53EC1C2B73
:100CB0001AF0F4FA41EC190B53EC1B2B1AF047FA1B
:100CC00041EC1A0B1AF04CFC46490839486144487B
:100CD0000068816804A80AF014FE04A807C80AABDB
:100CE00007C33F480068816801A80AF00AFE01A80E
:100CF00007C807AB07C3BDF92830BDF91E200DA9F1
:100D00000EA818F048FC04466CB132490E98C1F8A0
:100D100001000D98C1F805002F48007A40F002004C
:100D20002D4908722AE02C48007A28B12A48007A16
:100D300020F00200284908722648D0F8010000EE91
:100D4000100AB5EEC00AF1EE10FA06D09FED200AA7
:100D500010EE100A1F49C1F801001E48D0F8050026
:100D600000EE100AB5EEC00AF1EE10FA06D09FEDC3
:100D7000180A10EE100A1749C1F8050000BFC9E6AD
:100D800010B500230A220121032010F009FB1649A7
:100D90000860062324220221032010F001FB1349DE
:100DA00008601348017813480EF09EFF0446124A6B
:100DB00012491AF0B5F9DFED061A9FED051ADFEDBD
:100DC000040A9FED030A4A2102480BF0DBFA10BD2A
:100DD00000000000381200208400002008330020AA
:100DE00008000020483300201000002014000020DC
:100DF0000000002080070020000000081DFD000802
:100E000070B504460D4600BF40210E4807F034FA85
:100E10000028F9D0E1B20B4807F07EF9204670BDFA
:100E200010B500230A220121032010F0B9FA064967
:100E30000860062324220221032010F0B1FA03499E
:100E4000086010BD004800401C0000202000002069
:100E500000B58DB05B4801905B480C9000231A46AA
:100E600001A95A4800680FF07BFB0DB000BD0FB41C
:100E70002DE9F04188B004465E9FBDF83E00103871
:100E8000022846DCBDF84950C4F874570D220FA95A
:100E900004F267701BF07CFE40F27770005D8DF805
:100EA0000000112204F2677103A81BF071FE03A871
:100EB0000FC807F05BFBD0B145480088854216D1CA
:100EC00020F06CFF80463220424B43A2012100906B
:100ED000404611F063FB0646006841A18268304637
:100EE00090470022114620460EF00BFC00BF394807
:100EF000019040F27770005D8DF80000112204F23D
:100F0000677103A81BF044FE03A80FC808F00CF893
:100F100013E020F043FF80463B202E4B2EA2012100
:100F20000090404611F03AFB06469DF844200068C8
:100F300032A183683046984700BF38480088854210
:100F40000CD140F2E460005940B140F2E462115922
:100F5000206813F033FF04203149087008B0BDE861
:100F6000F0015DF814FB10B500230A2201210320D3
:100F700010F016FA2B4908600623242202210320D0
:100F800010F00EFA284908602848007800F00100A7
:100F9000002815D125481EF061FD002810D00C2036
:100FA0001EF0E8FB041E05D00021204611F0D2FA05
:100FB000044600E000201E4908601C48AFF3008092
:100FC00010BD00001FBF0F003400002008000020EB
:100FD000F8450208B34202084552524F5200000041
:100FE00053444B2076657273696F6E206469642088
:100FF0006E6F74206D617463680A000041434B207A
:10100000697320657863657074696F6E2C207365F1
:101010007175656E63652025640A0000E845020865
:1010200084000020280000202C0000202C06002036
:101030003006002000F07F0200EE102AB8EEC00A51
:10104000F0EE400A00EE101AB8EE400AB0EE401A78
:1010500000F0800262B1DFED451AB0EE410A00EE09
:10106000A10AF1EE401A9FED422A81EE820A7047F2
:10107000DFED3E1AB0EE410A00EEA10A9FED3C2AD8
:10108000C0EE021AB0EE610AF1E770B586B0044610
:101090000D462068012802D10020206001E006B042
:1010A00070BD2079FA2802D16079FB2800D0F6E7DC
:1010B000A07920B1012808D0AA283AD108E000225E
:1010C000114628460EF01DFB34E0FFF7C1FE31E06B
:1010D000A07B00EB80004000616A4143607B00EB35
:1010E00080004000626A4243207B00EB80004000A9
:1010F000636A4343E07A00EB80004000666A704315
:10110000CDE9023204910190A07A00EB800040000A
:101110000090607A00EB80004300207A00EB8000B2
:101120004200E07900EB8000410012481EF048FBCD
:1011300000E000BF00BF00BFB1E710B500230A22E6
:101140000121032010F02CF90B490860062324220A
:101150000221032010F024F9084908600848002102
:1011600001608162C16200BF10BD000000008043C9
:101170000000C8424C640208780000207C00002077
:101180004C120020D848008820B1D7480088401E63
:10119000D5490880D548008820B1D4480088401E31
:1011A000D2490880704738B50020D149086041F223
:1011B000883004F009F9CF490968086813F0D4FDB4
:1011C0000446006881692046884700281AD15020CB
:1011D000C94BCAA2CBA10090D8481EF001FB05461E
:1011E000681C38B1B5F5967F04D2D449D4A01EF05E
:1011F000E7FA02E0D3A01EF0E3FA012000F09FFC22
:1012000000F0A2FCD7A01EF0DBFADBA01EF0D8FA9B
:10121000E9A01EF0D5FAEFA01EF0D2FAFAA01EF057
:10122000CFFA1E2004F0D0F8B24800680EF0BFFAE2
:101230004FF4FA7004F0C8F8AE4800680DF076FE7E
:10124000F9490968884221D2AA4800680DF06EFE6B
:10125000F64988421AD06720A74BA8A2F44900900B
:10126000B6481EF0BDFA0546681C38B1B5F5967F44
:1012700004D2B249B2A01EF0A3FA02E0B1A01EF05F
:101280009FFA012000F05BFC00F05EFC4FF47A70E6
:1012900004F09AF802221421AFF2171016F05BF84E
:1012A0000090012038BD30B589B0E249A1F1650058
:1012B00018F017FCA0B1E04890F82D11C83000F0EC
:1012C000F4FFDC4D543D002408E001A800EB84014C
:1012D00005F11F0050F824000860641C082CF4DBA2
:1012E00009B030BD00B52DED028B8FB07F4800886E
:1012F00018B90A207D49088003E00FB0BDEC028BCD
:1013000000BD7C480068816801A80AF03DFA1C22F3
:1013100001A908A81BF03CFC9DED0D8AC748007B85
:1013200000B9EAE7B1EE000AB4EEC08AF1EE10FAB5
:1013300003DD0220C14988600AE0B0EE080AB4EE7D
:10134000C08AF1EE10FA03D24FF0FF30BB4988603B
:1013500000BFD2E710B58CB06649096888680AF00A
:101360001DFB0B9063480068816804A80AF0C9FA65
:1013700004A807C808AB07C35E49096888680AF073
:1013800064FB0790BDF92800002801DC0CB010BDFB
:101390009DF82C00022800D0F8E7A948007A002820
:1013A00024D19DF81D0000F0070002281DD1002265
:1013B0001146504800680EF030FD4FF48270A14B8A
:1013C000A1A2A5A100905D481EF00AFA0446601C87
:1013D00038B1B4F5967F04D2584959A01EF0F0F9FF
:1013E00002E058A01EF0ECF900BFCFE79448007A65
:1013F00030B13D48008818B901203B49088000E021
:10140000C4E79DF81D0000F0070002281DD000224F
:101410001146384800680EF0A4FD4FF48A70894BDD
:1014200089A296A1009045481EF0DAF90446601C96
:1014300038B1B4F5967F04D2404941A01EF0C0F9FE
:1014400002E040A01EF0BCF900BF9448C1680091C2
:10145000007C8DF804002748006811228F49C46879
:1014600002A81BF095FB204602A90EC90AF01DFF39
:1014700000BF8BE700B585B07148007820B1032824
:101480002FD004282ED11CE103206D490870844818
:1014900000684860FFF7DCFC164800680DF046FD68
:1014A0006249884208D01349096848680CF0F4FF83
:1014B0004FF4FA7003F088FF0E4800681422816828
:1014C00068460AF0E6FB322003F07EFF094909680E
:1014D000594AC86973490CF05EFC322003F074FF6E
:1014E000F7E0E1E0F4E0000090000020920000202E
:1014F000AC82424208000020C44202084552524FCA
:101500005200000025732025732C6C696E65202520
:10151000643A20555341525420636F6D6D756E6966
:10152000636174696F6E206973206E6F7420776FCA
:10153000726B696E672E0D0A00000000121B0020FE
:10154000257300004552524F523A206C6F6720704D
:1015500072696E74657220696E6E6572206661755F
:101560006C740A000A5072657265717569736974EA
:1015700065733A0D0A000000312E205665686963D4
:101580006C6520636F6E6E656374656420746F2094
:1015900074686520417373697374616E7420616E41
:1015A000642073696D756C6174696F6E2069732056
:1015B0004F4E0D0A00000000322E20426174746507
:1015C00072792066756C6C79206368616E726765EC
:1015D000640D0A00332E20444A49474F2041707061
:1015E00020636F6E6E65637465642028666F722079
:1015F0007468652066697273742074696D65207201
:10160000756E290D0A000000342E2047696D626155
:101610006C206D6F756E746564206966206E6565FB
:101620006465640D0A00000098000020000A0103B0
:10163000BC64020802330020D5310020783300203A
:1016400084000020CD420208494D504F52545F4E55
:101650004F5449434500000025732025732C6C69C5
:101660006E652025643A206F657320636F6E747217
:101670006F6C20636C6F7365640A0000257320250E
:10168000732C6C696E652025643A206F6573207336
:101690006574436F6E74726F6C0A0000381200201C
:1016A0006804002071220008FB484068FB49096873
:1016B000401A41F28831884202D30020F64908706E
:1016C00007E0FFF747FEFFF70DFEFFF7ECFD00E038
:1016D00000BF00BF05B000BD7FB504460D46F04910
:1016E0000968886809F075FF8DED000ACDED010AE3
:1016F0008DED021ACDED031ADDED031A9DED021AF0
:10170000DDED010A9DED000A03F01EFD84ED000BE6
:10171000E3490968886809F05CFF8DED000ACDEDAA
:10172000010A8DED021ACDED031ADDED031A9DEDD0
:10173000021ADDED010A9DED000A03F01DFD85EDA5
:10174000000B7FBD30B52DED0C8B99B00446D4480D
:101750000068816801A80AF017F81C2201A912A8E4
:101760001BF016FACE480068816805A80AF0C9F88F
:1017700005A807C80FAB07C3C9490968886809F0FD
:1017800072FF8DED0C0ACDED0D0A8DED0E1AC449D8
:101790000968886809F01DFF8DED080ACDED090A7A
:1017A0008DED0A1ACDED0B1A2546BD4909688868EA
:1017B00009F00FFF8DED040ACDED050A8DED061A37
:1017C000CDED071ADDED071A9DED061ADDED050AD0
:1017D0009DED040A03F0B8FC85ED000BB0490968E3
:1017E000886809F0F6FE8DED040ACDED050A8DED51
:1017F000061ACDED071ADDED071A9DED061ADDED8F
:10180000050A9DED040A03F0B7FC85ED020BBDF857
:101810003E006883BDF83C002883BDF84200A883E1
:10182000BDF84000E883DDED0B1A9DED0A1ADDEDF1
:10183000090A9DED080A03F06FFCB0EE40DAF0EE05
:1018400060DA1EF039FEB0EE40BAF0EE60BA9DEDFF
:101850000D0A10EE101A084619F03EFE41EC1C0B62
:1018600053EC1B2B19F01AFD41EC190BDDED0B1A93
:101870009DED0A1ADDED090A9DED080A03F04CFC06
:10188000B0EE40DAF0EE60DA1EF0A6FDB0EE40BA3F
:10189000F0EE60BA9DED0C0A10EE101A084619F031
:1018A0001BFE41EC1C0B53EC1B2B19F0F7FC41EC1D
:1018B0001A0B53EC192B19F04AFC41EC180B19F0D8
:1018C0004FFE2861DDED0B1A9DED0A1ADDED090AC8
:1018D0009DED080A03F020FCB0EE40DAF0EE60DA8D
:1018E0001EF07AFDB0EE40BAF0EE60BA9DED0D0A42
:1018F00010EE101A084619F0EFFD41EC1C0B53ECEA
:101900001B2B19F0CBFC41EC180BDDED0B1A9DEDF8
:101910000A1ADDED090A9DED080A03F0FDFBB0EEA1
:1019200040DAF0EE60DA1EF0C7FDB0EE40BAF0EE3D
:1019300060BA9DED0C0AB1EE400A10EE101A08468E
:1019400019F0CAFD41EC1C0B53EC1B2B19F0A6FC43
:1019500041EC1A0B53EC182B19F0F9FB41EC190B65
:1019600019F0FEFD68619DED170A85ED080A19B0B2
:10197000BDEC0C8B30BD10B52DED068B04464949EE
:10198000088C19F07DFD41EC1A0B9FED470B53ECD1
:10199000102B19F083FC41EC190B19F0E1FD08EE56
:1019A000900A434890ED040AB0EE408AB4EEE88A0B
:1019B000F1EE10FA02DDB0EE688A25E0B1EE680AB9
:1019C000B4EEC08AF1EE10FA04D2B1EE680AB0EEBD
:1019D000408A19E0B5EEC08AF1EE10FA0ADB38EE63
:1019E000280A30EE080AF0EE080A80EE201AB0EE5F
:1019F000418A09E038EE080A30EE680AF0EE080A7B
:101A000080EE201AB0EE418A012C06D1B5EEC08AD4
:101A1000F1EE10FA01D2B0EE688A032C08D1B5EECF
:101A2000C08AF1EE10FA03DDB1EE680AB0EE408A2A
:101A3000B0EE480ABDEC068B10BD10B52DED068B3F
:101A400004461849088C19F01BFD41EC1A0B9FED58
:101A5000160B53EC102B19F021FC41EC190B19F06B
:101A60007FFD08EE100A124890ED050AF0EE408A5C
:101A7000F4EEC88AF1EE10FA02DDF0EE488A33E0A7
:101A8000B1EE480AF4EEC08AF1EE10FA12D2B1EECD
:101A9000480AF0EE408A27E0840000206804002015
:101AA00008000020083300209A9999999999B93F24
:101AB00040330020F5EEC08AF1EE10FA0ADB38EE72
:101AC000A80A30EE080AF0EE080A80EE201AF0EEBE
:101AD000418A09E038EEA80A30EE480AF0EE080A1A
:101AE00080EE201AF0EE418A022C06D1F5EEC08A73
:101AF000F1EE10FA01D2F0EE488A042C08D1F5EE8E
:101B0000C08AF1EE10FA03DDB1EE480AF0EE408A29
:101B1000B0EE680ABDEC068B10BD10B500230A229A
:101B2000012103200FF03CFC0F490860062324220A
:101B3000022103200FF034FC0C49086010BD00F0B6
:101B4000010181F313887047BFF34F8F0848006885
:101B500000F4E06007490843001D05490860BFF331
:101B60004F8F00BFFEE70000940000209800002087
:101B70000CED00E00000FA05F0B52DED088BA5B0E6
:101B800000244FF4FA651427FE4800681422816887
:101B90000EA80AF07EF8E6E0FA490968886809F0BC
:101BA000FDFE2490F7480068816807A809F0ECFD65
:101BB0001C2207A91DA81AF0EBFFF24800688168F3
:101BC0000BA809F09EFE0BA807C81AAB07C3ED4986
:101BD0000968886809F047FD8DED170ACDED180AF0
:101BE0008DED191AE7490968886809F0F2FC8DED56
:101BF000130ACDED140A8DED151ACDED161A2146F6
:101C0000E1A01DF0DDFDE4A01DF0DAFD9DF89010CF
:101C1000E4A01DF0D5FD9DED210A10EE101A084636
:101C200019F05AFC41EC180B8DED028B9DED1F0B4A
:101C30008DED000B9DED1D1BB0EE410AF0EE610A2B
:101C400053EC102BDCA01DF0BBFDBDF96E00009025
:101C5000BDF96C30BDF96A20BDF96810DFA01DF038
:101C6000AFFD9DED190A10EE101A084619F034FC6C
:101C700041EC180B9DED180A10EE101A084619F0E9
:101C80002BFC41EC190B9DED170A10EE101A0846BB
:101C900019F022FC41EC1A0B8DED028B8DED009BAF
:101CA00053EC1A2BD8A01DF08BFD9DED160A10EEFB
:101CB000101A084619F010FC41EC180B9DED150A9E
:101CC00010EE101A084619F007FC41EC190B9DEDB7
:101CD000140A10EE101A084619F0FEFB41EC1A0B1C
:101CE0009DED130A10EE101A084619F0F5FB41ECB1
:101CF0001B0B8DED048B8DED029B8DED00AB53EC3A
:101D00001B2BCBA01DF05CFD9E48006881686846D7
:101D100009F03AFD1C22694607A81AF039FF9DED2B
:101D20000C0A10EE101A084619F0D6FB41EC180BFD
:101D300053EC182BCCA01DF043FD9249096888682C
:101D400009F083FE0D909DF8350000F0070631463E
:101D5000C9A01DF035FDCEA01DF032FD32344FF488
:101D6000FA7003F031FBAC42FFF616AFCBA01DF0CA
:101D700027FD012025B0BDEC088BF0BD2DE9F04F0B
:101D80002DED088BA1B0002020904FF47A601F90B9
:101D900000201E900124C54800681D9001201C9061
:101DA00000267849CDE9006409681DAB48681C9A93
:101DB0001E990CF0F7FA05462DB9284621B0BDEC66
:101DC000088BBDE8F08F6F49096848681E990CF0D0
:101DD0003BFC4FF4FA7003F0F7FA01201E900A243E
:101DE000B248001D00681B9001201C900026654928
:101DF000CDE9006409681BAB48681C9A1E990CF079
:101E0000D1FA05460DB92846D8E75E490968486801
:101E10001E990CF019FC4FF4FA7003F0D5FA022069
:101E20001E903224A148083000681A9002201C90AD
:101E300000265449CDE9006409681AAB48681C9A29
:101E40001E990CF0AFFA05460DB92846B6E74D4984
:101E5000096848681E990CF0F7FB4FF4FA7003F01C
:101E6000B3FA03201E90C8240020199001201C9072
:101E700000264449CDE90064096819AB48681C9AFA
:101E80001E990CF08FFA05460DB9284696E73D4994
:101E9000096848681E990CF0D7FB4FF4FA7003F0FC
:101EA00093FA4FF4FA5003F08FFA4FF47A674FF435
:101EB000FA7800BF33490968086812F055FF834675
:101EC0000068C1685846884710EB070A00BF2D49D3
:101ED000096848681FF078FE18902A480068416831
:101EE00068461FF021FD1822694612A81AF050FE1C
:101EF00024480068416803A81FF06CFD03A807C8C8
:101F00000FAB07C31F480068416802A81FF0F0FE2E
:101F100002A80FC8CDE90D23CDE90B0119490968C5
:101F200048681FF0A7FC8DED070ACDED080A8DED7E
:101F3000091ACDED0A1A14A020991DF041FC16A033
:101F40001DF03EFC17A018991DF03AFC9DED160AF5
:101F500010EE101A084619F0BFFA41EC180B8DED7F
:101F6000028B9DED120B8DED000B9DED141BB0EE61
:101F7000410AF0EE610A53EC102B0FA01DF020FC7B
:101F800096E0000008000020436F756E74657220B3
:101F90003D2025643A0A00002D2D2D2D2D2D2D0AD2
:101FA00000000000466C69676874205374617475A2
:101FB00073203D2025640A00506F736974696F6E49
:101FC00020284C4C4129203D20252E33662C2025ED
:101FD0002E33662C20252E33660A00005243204300
:101FE0006F6D6D616E64732028722F702F792F745E
:101FF000687229203D2025642C2025642C2025642E
:102000002C2025640A00000056656C6F63697479A2
:10201000202876782C76792C767A29203D20252E5A
:1020200033662C20252E33662C20252E33660A009D
:102030004174746974756465205175617465726E5C
:10204000696F6E2028772C782C792C7A29203D20F6
:10205000252E33662C20252E33662C20252E336624
:102060002C20252E33660A00686569676874203D58
:102070002025660A00000000636F6E74726F6C4466
:10208000657669636528645329203D2025640A002C
:102090002D2D2D2D2D2D2D0A0A000000446F6E656B
:1020A000207072696E74696E67210A00EC42020842
:1020B000BDF942000090BDF94030BDF93E20BDF9A8
:1020C0003C10AFF2E8001DF07BFB9DED0D0A10EE19
:1020D000101A084619F000FA41EC180B9DED0C0A95
:1020E00010EE101A084619F0F7F941EC190B9DEDA6
:1020F0000B0A10EE101A084619F0EEF941EC1A0B13
:102100008DED028B8DED009B53EC1A2BAFF2081076
:102110001DF056FB9DED0A0A10EE101A084619F044
:10212000DBF941EC180B9DED090A10EE101A084678
:1021300019F0D2F941EC190B9DED080A10EE101AB6
:10214000084619F0C9F941EC1A0B9DED070A10EE8B
:10215000101A084619F0C0F941EC1B0B8DED048BE9
:102160008DED029B8DED00AB53EC1B2BAFF24010BD
:102170001DF026FBAFF2E8001DF022FB4FF4FA70D1
:1021800003F022F935490968086812F0EDFD069060
:102190000068C1680698884710EB0809D145FFF42C
:1021A00096AEAFF208101DF00BFB2C490968486889
:1021B00000210CF04DFC40F6B83003F005F927493A
:1021C0000968486801210CF043FC40F6B83003F080
:1021D000FBF822490968486802210CF039FC40F6F6
:1021E000B83003F0F1F81D490968486803210CF084
:1021F0002FFC40F6B83003F0E7F80120DEE510B51B
:1022000000230A22012103200FF0CAF814490860B4
:1022100006232422022103200FF0C2F8114908608E
:102220001148007800F00100002815D10E481DF07B
:1022300015FC002810D00C201DF09CFA041E05D0BF
:102240000021204610F086F9044600E000200749EE
:1022500008600548AFF3008010BD000008000020B2
:10226000A0000020A40000202C0600203006002042
:102270000FB42DE9F0478146589D2E4606F16407BC
:102280000DF13108BDF82600123884B2142C08DB99
:10229000642C06DC2246414638461AF079FC86F862
:1022A0002C41BDE8F0075DF814FB70B504460D46FF
:1022B000CA4909682A46C86921460BF03DFD00203D
:1022C000C7490860C7480068C749086070BD0FB4B7
:1022D000F0B589B004465E9EBDF83E001038022875
:1022E00065D80D220FA904A81AF052FC20460CF064
:1022F0001DFEBE49884204D09DF84900CDF81D005E
:1023000003E0BDF84900CDF81D009DF820008DF8D0
:10231000000004A80FC806F029F948B1B44801909C
:102320009DF820008DF8000004A80FC806F0FCFD01
:102330009DF83C008DF808009DF83D008DF80900DF
:1023400010988078072809D00222AA4902A818F01C
:10235000CEFD88B11098807801280DD10520ADF808
:102360000C00BDF81D0080B2ADF80E00042203A9D8
:10237000E0690BF0E1FC19E010988078082808D09B
:1023800002229C4902A818F0B2FD78B1109880781A
:1023900060B90620ADF80C00BDF81D0080B2ADF8A4
:1023A0000E00042203A9E0690BF0C6FC13E01FF045
:1023B000F5FC0746B7208E4B8FA2012100903846CE
:1023C00010F0ECF805469DF8442000688CA1836865
:1023D0002846984700BF09B0F0BC5DF814FB0FB465
:1023E0002DE9F04387B004465E9E8D480088CDF805
:1023F0001500012720460DF073F98046BDF83E0018
:102400001038022809D8BDF84900CDF815000D2272
:102410000FA902A81AF0BCFB13E01FF0BFFC814615
:102420006820804B74A201210090484610F0B6F855
:1024300005469DF84420006871A1836828469847A6
:1024400000BFDDF8150078490988884206D10022CE
:10245000AFF2750120460DF084FD25E0DDF8150092
:1024600072490988884206D10022AFF28D012046C8
:102470000DF0D3FC18E010988078012803D10220D9
:10248000ADF8040005E01098807810B90320ADF88D
:102490000400BDF8150080B2ADF80600042201A9C1
:1024A000E0690BF049FC00BF07B0BDE8F0035DF840
:1024B00014FB0FB470B50646549DBDF82140022CA4
:1024C00006D0032C0CD0052C12D0062C44D129E0C8
:1024D0000022AFF2F501414800680DF042FD3CE0FA
:1024E0000022AFF205113D4800680DF096FC34E083
:1024F0003A4800680CF01AFD3C49884209D0374937
:1025000009680023AFF23922C868072109F0B4FC3A
:1025100007E0324909680022C868AFF24D2109F08E
:10252000CCFD1AE02D4800680CF000FD2F498842D0
:1025300009D02A4909680023AFF26D22C868082132
:1025400009F09AFC07E0254909680022C868AFF243
:10255000812109F0E3FD00E000BF00BF70BC5DF821
:1025600014FB7FB5054654AC1C480068816868467A
:1025700009F0EDF99DE80F0084E80F007FBD10B56C
:1025800000230A22012103200EF00AFF28490860D7
:1025900006232422022103200EF002FF25490860B1
:1025A0002548007800F00100002815D122481DF0D0
:1025B00055FA002810D00C201DF0DCF8041E05D0C0
:1025C000002120460FF0C6FF044600E000201B4912
:1025D00008601948AFF3008010BD0000080000201B
:1025E000A0024342680400206C040020000A01039A
:1025F00015430208CF4402084552524F52000000D2
:1026000041434B20697320657863657074696F6E10
:102610002C2073657175656E63652025640A000062
:1026200066450208F6420208004602080246020811
:10263000AC000020B00000202C0600203006002056
:102640002DE9FE43814601260A24FA4800680290DB
:1026500002274FF00008F849CDE90084096802AB71
:102660003A46486831460BF09DFE054615B92846A6
:10267000BDE8FE83F0490968486831460BF0E4FF85
:102680004FF4FA5002F0A0FE0120F1E730B52DED35
:10269000028B85B00546284621F048FA044620E022
:1026A000641C2169084618F017FF41EC180B8DEDEA
:1026B000028BA068E168CDE9000120686168641EB2
:1026C00041EC100B53EC102BDCA01DF079F8DA492B
:1026D0000968096A00231A46486821460FF08BFCF6
:1026E0005A34284621F01EFAA042D9D105B0BDECDB
:1026F000028B30BD9FEDDB0A10EE101A40F8151F5B
:1027000000218180C1800172417464214182017D78
:1027100021F00F010175017D21F0F00101751538DF
:10272000002108E0002300F12A025354103202EB8A
:1027300041021380491C1029F4DB70472DE9F04356
:102740002DED0C8B99B004468846B0EE408AF0EE31
:10275000608A164618A800BF00BF00BF00BF00BFB8
:10276000002121606160A16000BF00BF304618F009
:1027700076FE41EC1A0B53EC1A2B9FEDBB0B51EC80
:10278000100B18F0FDFD41EC190B002088F800003B
:102790004146204621F0CEF9012574E0A5F101095A
:1027A000204621F0C3F9C9EB091101EB410100EB0F
:1027B0004100074601A8FFF79DFFE8B28DF804002D
:1027C000284618F04CFE53EC192B18F067FD41EC2D
:1027D0001C0BB0EE4C0AF0EE6C0A1DF0FDFDB0EEE5
:1027E00040BAF0EE60BA53EC182B51EC1B0B18F00A
:1027F00055FD41EC1A0B57F8010F796841EC100BAD
:1028000053EC102B51EC1A0B18F0A1FCCDF805007D
:10281000CDF80910284618F022FE53EC192B18F0B9
:102820003DFD41EC1C0BB0EE4C0AF0EE6C0A1DF0C5
:1028300043FEB0EE40BAF0EE60BA53EC182B51EC08
:102840001B0B18F02BFD41EC1A0BB868F96841EC32
:10285000100B53EC102B51EC1A0B18F078FCCDF840
:102860000D00CDF81110386900EE100AF7EE000ADD
:1028700030EE200A10EE100ACDF8150001A920460E
:1028800021F058F96D1CB54288DB88F8006041469C
:10289000204621F04FF919B0BDEC0C8BBDE8F08358
:1028A00030B52DED068BABB005460C46B0EE409A28
:1028B000F0EE609AB0EE418A4FF4FA5002F084FDD7
:1028C00014A8FFF717FF5C4800680CF02FFB68495D
:1028D000884232D058480068416801A81FF024F8A7
:1028E000182201A90EA81AF053F9DDE91001CDF85C
:1028F0005100CDF85510DDE90E01CDF85900CDF8A5
:102900005D1018EE100ACDF8610018EE100A18F0EC
:10291000E3FD41EC1A0B8DED02AB9DED0E0B8DED41
:10292000000B9DED101BB0EE410AF0EE610A53EC76
:10293000102B50A01CF044FF31E03F480068816834
:10294000684608F021FF1C22694607A81AF020F902
:10295000DDE90701CDF85100CDF85510DDE9090199
:10296000CDF85900CDF85D1018EE100ACDF86100D1
:1029700018EE100A18F0B0FD41EC1A0B8DED02AB09
:102980009DED090B8DED000B9DED071BB0EE410A8F
:10299000F0EE610A53EC102B36A01CF011FF22461A
:1029A000B0EE490AF0EE690A14A92846FFF7C6FE00
:1029B0002BB0BDEC068B30BDB2EE040A10EE101A3F
:1029C000C01C40F8021CB1EE040A10EE101AC0F848
:1029D0000210002181710121C17100210172417237
:1029E000012181720021C1729FED2C0B52EC101B52
:1029F000C16002619FED290B52EC101B41618261A5
:102A00009FED180A10EE101AC161C01E7047F0B594
:102A10002DED048B97B00546074800680CF086FA48
:102A20001349884246D004480068FFF709FE00B900
:102A300038E03FE040430208080000205761797009
:102A40006F696E74206372656174656420617420BF
:102A5000284C4C41293A2025662009256620092565
:102A6000660A200000000000182D4454FB21194084
:102A7000000A0103576179706F696E742063726593
:102A80006174656420617420284C4C41293A2025EA
:102A90006620092566200925660A0000000000005E
:102AA00000000000EDA01CF08BFE002017B0BDEC74
:102AB000048BF0BD0AA8FFF77FFF681CC0B28DF839
:102AC00028009FEDEE9BB2EE048A0AA80090ED4824
:102AD000006801230022016A02A80AF000FF4FF4F7
:102AE000FA7002F071FCE7490968086A0AF0FCFF15
:102AF000E5A01CF065FEB0EE481AB0EE490AF0EE13
:102B0000690A294607A8FFF7CBFEE8A01CF058FE8B
:102B100007A8FFF7BBFDEBA01CF052FED9490968DE
:102B2000096A4868D7490968096A4968096800223A
:102B30008B68114698474FF4FA7002F045FCE7A005
:102B40001CF03EFECF490968486801210BF080FF68
:102B500040F6B83002F038FC07AC204620F0E2FF27
:102B60000646204620F0E2FF074632463946204618
:102B700020F01CFF2168A068401A5A2190FBF1F652
:102B800032462046216820F090FC00BF01208DE7EE
:102B900010B52DED068B96B00446BA4800680CF0CF
:102BA000C5F9D54988420CD0B6480068FFF748FD02
:102BB00038B9AAA01CF004FE002016B0BDEC068BAC
:102BC00010BD00200090AF48006801231A46016A3A
:102BD00002A80AF084FEAB490968086A0AF084FF7B
:102BE000A84800680CF0A2F9C349884226D0A5483D
:102BF0000068416801A81EF097FE182201A910A8DC
:102C000019F0C6FF204618F02AFC41EC180B9DED88
:102C1000122BB0EE421AF0EE621A9DED102BB0EEC0
:102C2000420AF0EE620A97490968096AB0EE482A3A
:102C3000F0EE682A88680AF0B7FA25E09148006843
:102C40008168684608F0A0FD1C22694609A819F0B1
:102C50009FFF204618F003FC41EC180B9DED092B5B
:102C6000B0EE421AF0EE621A9DED0B2BB0EE420A66
:102C7000F0EE620A83490968096AB0EE482AF0EE6C
:102C8000682A88680AF090FA00F09EF99BA01CF070
:102C900097FD7C490968096A88687A490968096A60
:102CA0008968096800228B68114698474FF4FA70CA
:102CB00002F08AFB4FF47A6002F086FB9AA01CF0C7
:102CC0007FFD70490968096A88686E490968096A60
:102CD0008968096800228B691146984741F288305B
:102CE00002F072FB94A01CF06BFD66490968096A4A
:102CF000886864490968096A8968096800220B6A5A
:102D0000114698474FF47A6002F05EFB204618F0B7
:102D1000A6FB41EC190B9FED8A0B53EC102B18F01E
:102D2000BDFA41EC180B53EC182B87A01CF048FDA2
:102D3000204618F094FB41EC1A0B9FED810B53ECED
:102D4000102B18F0ABFA41EC190B18F009FC08EE47
:102D5000100A4C490968096A002288681146B0EED9
:102D6000480A09F0FAFF42F2107002F02DFB81A030
:102D70001CF026FD01208DF81C00B1EE040A10EEB7
:102D8000100ACDF81D003F490968096A00231A4658
:102D9000886807A909F03CFF42F2107002F014FBAA
:102DA00044F6206002F010FB7FA01CF009FD3549BD
:102DB0000968096A886833490968096A896809687D
:102DC00000220B69114698474FF47A7002F0FCFA22
:102DD00077A01CF0F5FC2B4800680CF0A7F84649DA
:102DE000884209D027490968486801210BF030FE64
:102DF00040F6B83002F0E8FA00F0ACFADDE610B5C3
:102E000000230A22012103200EF0CAFA6A49086051
:102E100006232422022103200EF0C2FA674908602B
:102E20006748007800F00100002815D164481CF0C4
:102E300015FE002810D00C201CF09CFC041E05D0B0
:102E4000002120460FF086FB044600E000205D498B
:102E500008605B48AFF3008010BD00004661696CFC
:102E6000656420746F2073657420757020537562DB
:102E7000736372697074696F6E210A008DEDB5A07D
:102E8000F7C6B03E08000020496E697469616C693C
:102E90007A696E6720576179706F696E74204D6929
:102EA0007373696F6E2E2E0A000000004372656115
:102EB00074696E6720576179706F696E74732E2E16
:102EC0000A00000055706C6F6164696E672057617D
:102ED00079706F696E74732E2E0A000053746172DC
:102EE00074696E6720576179706F696E74204D69DF
:102EF0007373696F6E2E0A00000A010353746172C6
:102F00007420776974682064656661756C742072DA
:102F10006F746174696F6E20726174653A20313527
:102F2000206465672F730000506175736520666FBC
:102F3000722035730A000000526573756D650A00D2
:102F4000000000000000F83F557064617465207255
:102F5000616469757320746F20312E35783A206E64
:102F6000657720726164697573203D2025302E33AA
:102F7000660A000055706461746520686F74706F34
:102F8000696E7420726F746174696F6E20726174FF
:102F9000653A206E65772072617465203D2035208A
:102FA0006465672F730A000053746F700A00000095
:102FB0004C616E640A000000B8000020BC000020D4
:102FC0002C060020300600202DE9F04F2DED048B5B
:102FD00099B0FA4800680BF0A9FFF949884229D056
:102FE000002018904FF00A0BF64800681490022059
:102FF0001390002012901298F049CDE9000B096857
:1030000014AB4868139A18990BF0CCF911901198E9
:1030100028B9119819B0BDEC048BBDE8F08FE749D1
:103020000968486818990BF00FFB4FF4FA7002F02A
:10303000CBF900BFE14909680022C868114609F0D0
:103040009EF84FF4FA7002F0BFF943F698244FF45B
:10305000FA7500270020179016901590D749096837
:10306000086811F081FE80460068C16840468847C4
:10307000061900BF4FF4FA6002F0A6F9CF480068C5
:103080000BF054FFCE49884210D0CC4909684868FB
:103090001EF09AFD012820D1C849096848681EF031
:1030A000DDFD292819D10120179023E0C3490968C3
:1030B000886808F073FC13909DF84C00022809D032
:1030C000BE490968886808F069FC14909DF85000B2
:1030D000032802D1012017900CE0B849096808685C
:1030E00011F042FE83460068C16858468847471978
:1030F000B742BFD300BF1798A0B9B3A01CF060FBC4
:10310000AE4800680BF012FFAD49884208D0AB49C9
:103110000968486818990BF09BFC322002F054F9BA
:10312000002077E7B3A01CF04BFBA44909680868AE
:1031300011F01AFE81460068C168484688470619A2
:1031400000BF4FF4FA6002F03FF99C4800680BF0B2
:10315000EDFE9B49884217D09849096848681EF0DF
:1031600033FD02281DD19549096848681EF076FD97
:103170000A2806D09149096848681EF06FFD0B289F
:103180000FD10120169019E08C490968886808F071
:1031900005FC14909DF85000032802D101201690E0
:1031A0000CE086490968086811F0DEFD8346006876
:1031B000C168584688474719B742C2D300BF16981E
:1031C000A8B992481CF0FCFA7C4800680BF0AEFEEF
:1031D0007B49884209D079490968486818990BF0F9
:1031E00037FC4FF4FA7002F0EFF8002012E788A0E5
:1031F0001CF0E6FA71490968086811F0B5FD8246CD
:103200000068C1685046884706196C4800680BF092
:103210008DFE6B49884223D000BF4FF4FA6002F064
:10322000D3F86649096848681EF018FD0A2806D1D7
:103230006249096848681EF011FD0B2802D0012080
:1032400015900CE05D490968086811F08DFD834612
:103250000068C168584688474719B742DDD300BFA8
:10326000564800680BF062FE5549884220D0534909
:10327000096848681EF0F2FC062806D14F49096823
:1032800048681EF0EBFC012803D067A01CF098FAF8
:103290004DE06B481CF094FA484909684868189951
:1032A0000BF0D6FB4FF4FA7002F08EF80020B1E676
:1032B00042480068816807A808F066FA00BF40F637
:1032C000B83002F081F83D4800688168684608F02F
:1032D0005BFA1C2269460EA819F05AFCDDED120AB1
:1032E0009DED0B1A30EEC10AB0EEC08A00BF9DED15
:1032F000120A8DED0B0A18EE100A18F0EDF841ECE9
:10330000190B9FED500B53EC102B18F011F9D6D977
:103310009DED120A10EE101A084618F0DDF841EC87
:10332000190B53EC192B49A01CF04AFA00BF234893
:1033300000680BF0FBFD2249884209D01F4909684B
:10334000486818990BF084FB40F6B83002F03CF85E
:1033500001205FE62DE9F04F93B047F230544FF46F
:10336000FA754FF0000A00201290119010900F9003
:103370000A200E90114800680BF0D8FD10498842D1
:103380007FD01048001D00680D9002200C904FF077
:10339000000B0E9880B20949CDE900B009680DAB69
:1033A00048680C9A0F990AF0FDFF8146B9F1000FA9
:1033B0005CD1484613B0BDE8F08F62E00800002001
:1033C000000A01034443020854616B656F6666207E
:1033D0006661696C65642E204D6F746F7273206630
:1033E00061696C656420746F207374617274210A62
:1033F000000000000A5375636365737366756C2083
:1034000074616B656F6666210A000000B86502088A
:1034100056656869636C6520617363656E64696E87
:10342000672E2E2E0A00000056656869636C6520C1
:10343000697320686F766572696E670A0000000024
:10344000086502083BDF4F8D976E823F41697263CA
:103450007261667420686F766572696E6720617448
:1034600020252E35666D21200A000000FE490968DE
:1034700048680F990BF0E8F84FF4FA7001F0A4FFD8
:1034800000BFF94909680022C868114608F0F5FE36
:103490004FF4FA7001F098FFF3490968086811F0D9
:1034A00063FC07460068C16838468847061900BFB4
:1034B0004FF4FA6001F088FFEB4800680BF036FD2E
:1034C000EA49884209D0E849096848681EF0C6FB05
:1034D0000C280FD1012012901AE0E349096888688E
:1034E00008F05CFA0D909DF83400042802D0012009
:1034F00012900DE0DC490968086811F035FC81463E
:103500000068C1684846884710EB050AB245CFD32A
:1035100000BF1298B8B9D6A01CF052F9D248006882
:103520000BF004FDD149884209D0CF4909684868A9
:103530000F990BF08DFA4FF4FA7001F045FF00205F
:1035400013B0BDE8F08FD6A01CF03AF9C64909685F
:10355000086811F009FC80460068C1684046884749
:10356000061900BF4FF4FA6001F02EFFBE48006854
:103570000BF0DCFCBD4988421ED0BB490968486895
:103580001EF06CFB0C2846D0B749096848681EF04D
:103590001BFB02283FD0B449096848681EF05EFB57
:1035A000062806D1B049096848681EF057FB012873
:1035B00031D0012011903CE0AB490968886808F0DF
:1035C000EDF90D909DF83400052803D1642001F039
:1035D000FBFE20E000BF4FF4FA6001F0F5FEA248C8
:1035E00000688168684608F0CFF81C22694607A881
:1035F00019F0CEFA9DED0B0AB5EEC00AF1EE10FA05
:10360000E9D19DED0B0AB5EEC00AF1EE10FA01D139
:103610000120119000BF94490968086811F0A4FBCB
:1036200081460068C1684846884710EB050AB245E4
:1036300098D300BF119818B19EA01CF0C1F815E0F6
:10364000A2481CF0BDF8884800680BF06FFC874961
:10365000884209D08449096848680F990BF0F8F945
:103660004FF4FA7001F0B0FE002069E77E48006870
:103670000BF05CFC7D49884209D07B4909684868A9
:103680000F990BF0E5F940F6B83001F09DFE0120EE
:1036900056E72DE9F05F2DED0A8B83460E46144662
:1036A0001D46714800680BF041FC7049884250D0BB
:1036B0002746A9464D46D9F80000D9F8041041EC38
:1036C000100B3C463868796853EC102B17F0E0FD7E
:1036D00041EC180BD9F80800D9F80C1041EC100B8C
:1036E000B868F96853EC102B17F0D2FD41EC190BB8
:1036F0009FED770B53EC102B51EC190B17F0CEFD0F
:1037000017F02EFF3060B868F96841EC100B1CF020
:1037100063FEB0EE40BAF0EE60BA9FED6D0B53EC75
:10372000102B51EC180B17F0B9FD53EC1B2B17F0B5
:10373000B5FD17F015FF7060386900EE100AD9F872
:10374000100000EE900A30EE600A10EE100AB06031
:1037500056E0A046AA465546DAF80800DAF80C10FA
:1037600041EC100B4446D8F80800D8F80C1053EC84
:10377000102B17F08DFD41EC180BDAF80000DAF889
:10378000041041EC100BD8F80000D8F8041053ECEA
:10379000102B17F07DFD41EC190B9FED4D0B53ECF9
:1037A000102B51EC190B17F079FD17F0D9FE306092
:1037B000D8F80000D8F8041041EC100B1CF00CFEF7
:1037C000B0EE40BAF0EE60BA9FED410B53EC102B17
:1037D00051EC180B17F062FD53EC1B2B17F05EFD3C
:1037E00017F0BEFE7060D8F8100000EE100ADAF88C
:1037F000100000EE900A30EE600A10EE100AB06081
:10380000BDEC0A8BBDE8F09F30B52DED108B85B077
:1038100004462546A86800EE100A20EE000A10EEC5
:10382000101A084617F058FE41EC190BE86800EE34
:10383000100A20EE000A10EE101A084617F04CFE8F
:1038400041EC1F0B53EC192B17F081FC41EC1E0BC4
:103850009FED210B53EC102B17F020FD41EC1D0BBD
:103860009FED1F0B40E0000008000020000A01034C
:103870004C616E64696E67206661696C65642E20B8
:103880004169726372616674206973207374696C34
:103890006C20696E20746865206169722E0A0000D0
:1038A00056656869636C65206C616E64696E672E2D
:1038B0002E2E0A005375636365737366756C206CF6
:1038C000616E64696E67210A00000000606502088D
:1038D00000000040A654584100000000000000C055
:1038E000000000000000F03F53EC102B17F02FFCFD
:1038F00041EC1A0B686800EE100AA86800EE900A06
:1039000020EE201A286800EE100AE86800EE900AFF
:1039100000EE201A11EE101A084617F0DDFD41ECFA
:103920001D0B9FEDFE0B53EC102B17F0B7FC41EC79
:103930001B0B686800EE100AE86800EE900A20EEA3
:10394000201A286800EE100AA86800EE900A00EE1F
:10395000601A11EE101A084617F0BEFD41EC1D0B5F
:103960001FED230B53EC102B17F098FC41EC180BB8
:10397000A86800EE100AE86800EE900A20EE201A0F
:10398000286800EE100A686800EE900A00EE201A1F
:1039900011EE101A084617F09FFD41EC1D0B9FED2C
:1039A000DF0B53EC102B17F079FC41EC1C0B686813
:1039B00000EE100A20EE000A10EE101A084617F06A
:1039C0008BFD41EC1F0B53EC192B17F0C0FB41ECA6
:1039D0001E0B1FED3F0B53EC102B17F05FFC41EC5F
:1039E0001D0B1FED410B53EC102B17F0B0FBCDE975
:1039F00000011FED450B53EC102B51EC180B17F089
:103A000097FD02D21FED4A0B03E0B0EE480AF0EE3C
:103A1000680AB0EE408AF0EE608A9FEDC20B53EC6C
:103A2000102B51EC180B17F06BFD02D29FEDBD0B64
:103A300003E0B0EE480AF0EE680AB0EE408AF0EE1D
:103A4000608AB0EE480AF0EE680A1CF0B1F8B0EEF9
:103A500040DAF0EE60DA51EC1D0B17F081FD0290B8
:103A60009DED001BB0EE4C0AF0EE6C0A1CF0BCFBA6
:103A7000B0EE40DAF0EE60DA51EC1D0B17F070FD9D
:103A80000390B0EE4A1AF0EE6A1AB0EE4B0AF0EE6E
:103A90006B0A1CF0A9FBB0EE40DAF0EE60DA51ECF4
:103AA0001D0B17F05DFD04909DED020ADDED030A8C
:103AB0009DED041A05B0BDEC108B30BD2DE9F04F23
:103AC0002DED060B2DED108BB7B0B0EE408AF0EE69
:103AD000608AB0EE419AF0EE61FAF0EE429A9348B5
:103AE0003590322034904FF47A71349891FBF0F590
:103AF00005EB850040003390322005FB00FA0020E2
:103B00003290322031908A4800680BF00FFA8949D0
:103B100088422DD088480068069002200590002039
:103B20000490319880B20499CDE900108049096869
:103B300006AB4868059A32990AF034FC8346BBF11B
:103B4000000F06D1584637B0BDEC108B06B0BDE86B
:103B5000F08F77490968486832990AF075FD4FF48B
:103B6000FA7001F031FC4FF4FA5001F02DFC00BF67
:103B70006F4800680BF0DAF96E49884217D06C483C
:103B80000068416801A81DF0CFFE182201A92BA8EA
:103B900018F0FEFF18222BA925A818F0F9FF25AB75
:103BA0002BAA14A962480068FFF773FD16E060486D
:103BB00000688168684607F0E7FD1C2269461EA878
:103BC00018F0E6FF1C221EA917A818F0E1FF17AB9A
:103BD0001EAA14A956480068FFF75BFD9DED140A64
:103BE00038EE400A10EE101A084617F075FC41EC4A
:103BF0001C0B9DED150A38EEC00A10EE101A08468F
:103C000017F06AFC41EC1D0B9DED160AB1EE400A5F
:103C100039EE400A10EE101A084617F05DFCCDE9A7
:103C200012011FEE900A17F057FC9FED440B53EC66
:103C3000102BCDE904019DED040B51EC100B17F096
:103C40002DFB41EC1A0B4C9817F046FC9FED3B0BFB
:103C500053EC102BCDE904019DED040B51EC100B3E
:103C600017F01CFB41EC1E0B314800680BF05EF9AD
:103C7000304988422BD02E49096848681DF0FAFD6A
:103C80008DED0E0ACDED0F0A8DED101ACDED111A46
:103C90000EA8FFF7B9FD8DED040ACDED050A8DEDF7
:103CA000061A9DED060A10EE101A084617F014FCCD
:103CB0009FED220B53EC102BCDE902019DED020B81
:103CC00051EC100B17F05CFB41EC1B0B40E018496A
:103CD0000968886807F07DFC8DED0A0ACDED0B0AB6
:103CE0008DED0C1ACDED0D1A0AA8FFF78DFD8DEDA7
:103CF000040ACDED050A8DED061A9DED060A10EEBB
:103D0000101A084617F0E8FB9FED0C0B53EC102B34
:103D1000CDE902019DED020B14E00000000000005F
:103D200000000040000000000000F0BFA08601007D
:103D300008000020000A01034C43020811DD52A2D2
:103D400046DF913F51EC100B17F01AFB41EC1B0BB7
:103D500000270026B046B14602249FEDFE0A8DEDF5
:103D6000070AFD4800680BF0E1F8FC49884203D1DE
:103D70009FEDFB0A8DED070AB5EEC08AF1EE10FA51
:103D800012DD00EE104AB8EEC00AB4EEC08AF1EEC1
:103D900010FA02D2B0EE480A03E000EE104AB8EE84
:103DA000C00A8DED090A1DE0B5EEC08AF1EE10FAE9
:103DB00014D2604200EE100AB8EEC00AB4EEC80A8F
:103DC000F1EE10FA02D2B0EE480A04E0604200EED2
:103DD000100AB8EEC00A8DED090A03E09FEDE10A72
:103DE0008DED090AF5EEC08AF1EE10FA12DD00EE53
:103DF000104AB8EEC00AF4EEC08AF1EE10FA02D210
:103E0000B0EE680A03E000EE104AB8EEC00A8DED8D
:103E1000080A1DE0F5EEC08AF1EE10FA14D26042F5
:103E200000EE100AB8EEC00AB4EEE80AF1EE10FA9D
:103E300002D2B0EE680A04E0604200EE100AB8EE6A
:103E4000C00A8DED080A03E09FEDC60A8DED080A51
:103E5000C14800680BF06AF8C049884204D09DED63
:103E60002F0A30EE09FA03E09DED220A30EE09FA3E
:103E7000B0E11FED4E0B53EC102B51EC1A0B17F069
:103E80007FFACDE904019DED040B51EC100B17F006
:103E900067FBB14906900968C868DDED061AB0EE07
:103EA0004F1ADDED080A9DED090A08F07CFAA8B268
:103EB00001F08AFA2F44A84800680BF037F8A749A8
:103EC000884231D0A449096848681DF0D3FC8DEDC3
:103ED0000E0ACDED0F0A8DED101ACDED111A0EA8B8
:103EE000FFF792FC8DED040ACDED050A8DED061A63
:103EF0009DED060A10EE101A084617F0EDFA41EC97
:103F00001B0B95480068416801A81DF00DFD1822A3
:103F100001A92BA818F03CFE25AB2BAA14A98E48AA
:103F20000068FFF7B6FB30E08B490968886807F046
:103F300050FB8DED0A0ACDED0B0A8DED0C1ACDED7F
:103F40000D1A0AA8FFF760FC8DED040ACDED050AF5
:103F50008DED061A9DED060A10EE101A084617F0B0
:103F6000BBFA41EC1B0B7C4800688168684607F08F
:103F70000BFC1C2269461EA818F00AFE17AB1EAAED
:103F800014A975480068FFF784FB9DED140A38EE0C
:103F9000400A10EE101A084617F09EFA41EC1C0B6E
:103FA0009DED150A38EEC00A10EE101A084617F0FB
:103FB00093FA41EC1D0B9DED160AB1EE400A39EE65
:103FC000400A10EE101A084617F086FACDE91201E1
:103FD000204617F044FAB0EE4C0AF0EE6C0ACDE938
:103FE00004011BF0ABFB8DED020B9DED040B53ECBC
:103FF000102B9DED020B51EC100B17F081FA04D23F
:1040000051EC1C0B17F0ACFA0990204617F027FA78
:10401000B0EE4D0AF0EE6D0ACDE904011BF08EFB07
:104020008DED020B9DED040B53EC102B9DED020B5F
:1040300051EC100B17F064FA04D251EC1D0B17F081
:104040008FFA0890444800680AF070FF434988429C
:104050004AD119EE900A17F03FFAB0EE4C0AF0EE92
:104060006C0ACDE904011BF069FB8DED020B9DED9F
:10407000040B53EC102B9DED020B51EC100B17F0C1
:104080003FFA31D219EE900A17F026FAB0EE4D0A37
:10409000F0EE6D0ACDE904011BF050FB8DED020B33
:1040A0009DED040B53EC102B9DED020B51EC100B0E
:1040B00017F026FA18D253EC1A2B51EC1B0B17F001
:1040C000E7F8CDE902019DED020B1BF037FB8DED0A
:1040D000040B53EC1E2B9DED040B51EC100B17F051
:1040E0000FFA01D22E446DE019EE900A17F0F4F9A0
:1040F000B0EE4C0AF0EE6C0ACDE904011BF01EFB99
:104100008DED020B9DED040B53EC102B9DED020B7E
:1041100051EC100B17F0F4F952D219EE900A17F087
:10412000DBF9B0EE4D0AF0EE6D0ACDE904011BF0AB
:1041300005FB8DED020B9DED040B53EC102B9DED5B
:10414000020B51EC100B17F0DBF939D2079817F07E
:10415000C3F909E08FC2F53D08000020000A010301
:104160009A99993F00000000CDE904019DED120BE2
:104170001BF0E4FA8DED020B9DED040B53EC102BBC
:104180009DED020B51EC100B17F0BAF918D253EC5D
:104190001A2B51EC1B0B17F07BF8CDE902019DEDBA
:1041A000020B1BF0CBFA8DED040B53EC1E2B9DED97
:1041B000040B51EC100B17F0A3F901D22E4401E0CF
:1041C00006B1A8443398804501DD0026B046564527
:1041D00000DB03E035988742FFF64BAE00BF4E4848
:1041E00000680AF0A3FE4D4988420BD008E04A4916
:1041F0000968C86808F0CBF9A8B201F0E5F8A9444D
:10420000D145F4DB3598874216DB45A01BF0D8FA80
:10421000414800680AF08AFE4049884209D03E4978
:104220000968486832990AF013FC4FF4FA7001F0FB
:10423000CBF83F48007886E4374800680AF076FEFD
:104240003649884209D034490968486832990AF0E9
:10425000FFFB40F6B83001F0B7F83648007872E45A
:104260002DE9F047054642F210774FF032084FF43F
:104270007A7090FBF8F404EB84004FEA4009322096
:1042800004FB00FA002612E0234909685FED4B1A8F
:104290001FED4C1A5FED4D0A00EE105AB8EEC00A41
:1042A000C86808F0A9F8A0B201F08EF82644BE4212
:1042B000EADB20480078BDE8F08710B500230A2229
:1042C000012103200DF06CF81B490860062324220D
:1042D000022103200DF064F818490860184800789E
:1042E00000F00100002815D115481BF0B7FB00288D
:1042F00010D00C201BF03EFA041E05D000212046F1
:104300000EF028F9044600E000200E4908600C4831
:10431000AFF3008010BD000008000020000A010378
:104320005461736B2074696D656F7574210A0000A8
:104330005343020852430208C4000020C800002072
:104340002C0600203006002010B52DED068B84B021
:10435000044694ED020A10EE101A084617F0BCF855
:1043600041EC180B94ED010A10EE101A084617F0F4
:10437000B3F841EC190B94ED000A10EE101A084640
:1043800017F0AAF841EC1A0B8DED028B8DED009B16
:1043900053EC1A2BFEA01BF013FA04B0BDEC068BF5
:1043A00010BD1CB5044694ED000ABDEEC00A10EE27
:1043B000100A00B2ADF8020094ED010ABDEEC00A89
:1043C00010EE100A00B2ADF8040094ED020ABDEE42
:1043D000C00A10EE100A00B2ADF80000207B8DF884
:1043E00007009DF806008DF806009DF80600217C68
:1043F0000843C0B28DF806009DF80600217D40EA12
:104400004100C0B28DF806009DF80600A17D40EA8B
:104410008100C0B28DF806009DF80600617D40EA7B
:10442000C100C0B28DF80600E749096848696946CD
:1044300008F0A3F94FF47A6000F0C6FF1CBD00B588
:10444000B5B0002022909FEDE11ADFEDE00A9FED6C
:10445000DF0A2FA818F06CFF9FEDDC1ADFEDDB0AF6
:104460009FEDDA0A099032A818F062FF0890002048
:10447000019002900390049000900998D0ED022AD8
:1044800090ED012AD0ED001A089890ED021AD0EDB7
:10449000010A90ED000A00231A46194616A818F0E2
:1044A0004EFF9FEDCA1ADFEDC90A9FEDC80A13A897
:1044B00018F03EFF9FEDC51ADFEDC40A9FEDC30A59
:1044C00010A818F035FF00200D900A200C90BE486F
:1044D00000680AF02BFDBE4988422AD0BD4800681A
:1044E000099002200890002007900C9880B207994C
:1044F000CDE90010B4480068406809AB0590089AFF
:104500000D9909F04FFF0690069810B9069835B03E
:1045100000BDAD480068406805900D990AF094F818
:104520004FF4FA7000F050FF4FF4FA6000F04CFFC7
:1045300000BFA9481BF044F9A34800680AF0F6FC44
:10454000A349884230D0A0480068406806901DF01A
:104550009BFA8DED070ACDED080A8DED091A9DED48
:10456000080A8DED130A98480068406806901DF00F
:104570008BFA8DED070ACDED080A8DED091A9DED38
:10458000070A8DED140A90480068406806901DF0F7
:104590007BFA8DED070ACDED080A8DED091A9DED28
:1045A000090A8DED150A35E08748006880680146E4
:1045B000019002A807F0CBF902A80FC8CDE90823A3
:1045C000CDE906019DED060A8DED130A7E480068CF
:1045D00080680146019002A807F0B9F902A80FC847
:1045E000CDE90823CDE906019DED070A8DED140AFA
:1045F0007548006880680146019002A807F0A7F995
:1046000002A80FC8CDE90823CDE906019DED080AEF
:104610008DED150A1598039016F05EFFCDE908019F
:104620001498039016F058FFCDE9060113980390F3
:1046300016F052FFCDE90401DDE90801CDE90201E0
:10464000DDE90601CDE900019DED040B53EC102BD3
:1046500062A01BF0B5F89FED5D1ADFED5C0A9FEDDF
:104660005B0A2FA818F064FE099000200123CDE911
:10467000013003900490142000900998D0ED022A94
:1046800090ED012AD0ED001A9DED151ADDED140A0A
:104690009DED130A00231A46194623A818F04FFE71
:1046A00030220146089016A818F072FA16A8FFF7F3
:1046B00078FE59481BF084F8434800680AF036FC3D
:1046C0004349884230D040480068406806901DF059
:1046D000DBF98DED070ACDED080A8DED091A9DED88
:1046E000080A8DED100A38480068406806901DF0F1
:1046F000CBF98DED070ACDED080A8DED091A9DED78
:10470000070A8DED110A30480068406806901DF0D8
:10471000BBF98DED070ACDED080A8DED091A9DED67
:10472000090A8DED120A7DE027480068806801467D
:10473000019002A807F00BF902A80FC8CDE90823E1
:10474000CDE906019DED060A8DED100A1E480068B0
:1047500080680146019002A807F0F9F802A80FC886
:10476000CDE90823CDE906019DED070A8DED110A7B
:104770001548006880680146019002A807F0E7F834
:1047800002A80FC8CDE90823CDE9060146E00000E4
:104790004E65772047696D62616C20726F74617439
:1047A000696F6E20616E676C65206973205B2025E0
:1047B000302E33662C2025302E33662C2025302ECB
:1047C0003366205D0A0A0000080000200000000097
:1047D000000A01035043020808660208496E697422
:1047E00069616C2047696D62616C20726F746174DD
:1047F000696F6E20616E676C653A205B2025302EF4
:1048000033662C2025302E33662C2025302E33663F
:10481000205D0A0A00000000B46702089DED080A46
:104820008DED120A00200190029003900490142054
:104830000090DDED122A9DED112ADDED101A9DED9F
:10484000151ADDED140A9DED130A4FF4E163C82239
:10485000002123A818F073FD30220146099016A804
:1048600018F096F916A8FFF79CFDFE4800680AF0BC
:104870005DFBFD49884230D0FA48006840680690E8
:104880001DF002F98DED070ACDED080A8DED091A2C
:104890009DED080A8DED100AF24800684068069008
:1048A0001DF0F2F88DED070ACDED080A8DED091A1D
:1048B0009DED070A8DED110AEA48006840680690F0
:1048C0001DF0E2F88DED070ACDED080A8DED091A0D
:1048D0009DED090A8DED120A35E0E2480068806816
:1048E0000146019002A807F032F802A80FC8CDE9EE
:1048F0000823CDE906019DED060A8DED100AD94881
:10490000006880680146019002A807F020F802A81C
:104910000FC8CDE90823CDE906019DED070A8DED0D
:10492000110AD048006880680146019002A807F08B
:104930000EF802A80FC8CDE90823CDE906019DEDC8
:10494000080A8DED120A10A8FFF7FEFCC7A01AF0A6
:1049500037FFCDA01AF034FFC24800680069099003
:1049600007F010FACDA01AF02BFFD8481AF028FF54
:104970001FED6A1A5FED6B0A1FED6C0A2FA818F085
:10498000D7FC099000200123CDE901300390049069
:10499000142000900998D0ED022A90ED012AD0ED64
:1049A000001A9DED151ADDED140A9DED130A002382
:1049B000C74A194623A818F0C2FC302201460890C5
:1049C00016A818F0E5F816A8FFF7EBFCA548006854
:1049D0000AF0ACFAA449884230D0A2480068406886
:1049E00006901DF051F88DED070ACDED080A8DED0A
:1049F000091A9DED080A8DED100A9A480068406872
:104A000006901DF041F88DED070ACDED080A8DEDF9
:104A1000091A9DED070A8DED110A92480068406859
:104A200006901DF031F88DED070ACDED080A8DEDE9
:104A3000091A9DED090A8DED120A35E089480068D2
:104A400080680146019002A806F081FF02A80FC805
:104A5000CDE90823CDE906019DED060A8DED100A8A
:104A60008048006880680146019002A806F06FFF48
:104A700002A80FC8CDE90823CDE906019DED070A7C
:104A80008DED110A7748006880680146019002A800
:104A900006F05DFF02A80FC8CDE90823CDE90601A5
:104AA0009DED080A8DED120A10A8FFF74DFC6FA0CE
:104AB0001AF086FE87A01AF083FE6A480068006933
:104AC000099007F066F988481AF07AFE87A01AF074
:104AD00077FE6420ADF83A003220ADF83C006FF06C
:104AE000C700ADF838004FF47A600B9064200A904C
:104AF000002009900FE05B48006840690EA908900B
:104B000007F051FE0A9880B2089000F05DFCDDE9E4
:104B10000901084409900B9909988842EBDB514838
:104B200000680AF003FA5049884230D04D480068C6
:104B3000406806901CF0A8FF8DED070ACDED080A2D
:104B40008DED091A9DED080A8DED100A45480068A3
:104B5000406806901CF098FF8DED070ACDED080A1D
:104B60008DED091A9DED070A8DED110A3D4800688B
:104B7000406806901CF088FF8DED070ACDED080A0D
:104B80008DED091A9DED090A8DED120A35E03548C3
:104B9000006880680146019002A806F0D8FE02A8CD
:104BA0000FC8CDE90823CDE906019DED060A8DED7C
:104BB000100A2C48006880680146019002A806F09F
:104BC000C6FE02A80FC8CDE90823CDE906019DED78
:104BD000070A8DED110A234800688068014601909C
:104BE00002A806F0B4FE02A80FC8CDE90823CDE95B
:104BF00006019DED080A8DED120A10A8FFF7A4FB2F
:104C000049A01AF0DDFD9FED4E1ADFED4D0A9FED34
:104C10004C0A2FA818F08CFB099000200123CDE945
:104C2000013003900490142000900998D0ED022ADE
:104C300090ED012AD0ED001A9DED151ADDED140A54
:104C40009DED130A00231A46194623A818F077FB96
:104C500030220146089016A817F09AFF16A8FFF711
:104C6000A0FB6FE008000020000A0103456E737589
:104C700072652053442063617264206973207072EE
:104C80006573656E742E0A0054616B696E672070DF
:104C90006963747572652E2E0A00000043686563AF
:104CA0006B20444A4920474F20417070206F72208A
:104CB0005344206361726420666F722061206E65C8
:104CC0007720706963747572652E0A006867020840
:104CD0000CFEFFFF5374617274696E67207669641D
:104CE000656F2E2E0A000000A066020853657474DA
:104CF000696E6720526F6C6C207261746520746FEE
:104D00002031302C205069746368207261746520F2
:104D1000746F20352C20596177205261746520749E
:104D20006F202D32302E0A00526573657474696EDF
:104D30006720706F736974696F6E2E2E2E0A0000E3
:104D400000000000634800680AF0F0F862498842F9
:104D500030D060480068406806901CF095FE8DEDEC
:104D6000070ACDED080A8DED091A9DED080A8DEDB3
:104D7000100A58480068406806901CF085FE8DEDCA
:104D8000070ACDED080A8DED091A9DED070A8DED94
:104D9000110A50480068406806901CF075FE8DEDC1
:104DA000070ACDED080A8DED091A9DED090A8DED72
:104DB000120A39E04748006880680146019002A85D
:104DC00006F0C5FD03A80DC80299CDE90823CDE979
:104DD00006109DED060A8DED100A3E4800688068B9
:104DE0000146019002A806F0B2FD02A90EC905987D
:104DF000CDE90723069109909DED070A8DED110A73
:104E00003448006880680146019002A806F09FFDC2
:104E1000DDE90403DDE90212CDE90803CDE906125C
:104E20009DED080A8DED120A10A8FFF78DFA2BA050
:104E30001AF0C6FC274800680069099006F0B0FF28
:104E40004FF47A7000F0C0FA29A01AF0B9FC21489A
:104E500000680AF06BF8204988420AD01D480068B3
:104E6000406809900D9909F0F3FD40F6B83000F064
:104E7000ABFA0120FFF74BBB10B500230A2201213A
:104E800003200CF08DFA2649086006232422022113
:104E900003200CF085FA234908602348007800F0CD
:104EA0000100002815D120481AF0D8FD002810D0A4
:104EB0000C201AF05FFC041E05D0002120460DF0E6
:104EC00049FB044600E00020184908601648AFF38B
:104ED000008010BD08000020000A010353746F70A9
:104EE00070696E6720766964656F2E2E2E0A000049
:104EF000436865636B20444A4920474F20417070E6
:104F0000206F72205344206361726420666F7220A8
:104F100061206E657720766964656F2E0A00000057
:104F2000D0000020D40000202C06002030060020F5
:104F300000B52DED040B2DED108B89B09DED1B0AF6
:104F400020EE000A10EE101A084616F0C5FA41ECE1
:104F5000190B9DED1C0A20EE000A10EE101A0846EF
:104F600016F0BAFA41EC1F0B53EC192B16F0EFF8C0
:104F700041EC1E0B9FEDA10B53EC102B16F08EF99C
:104F800041EC1D0B9FED9F0B53EC102B16F0DFF83F
:104F900041EC1A0B9DED1A0ADDED1B0A20EE200AEA
:104FA000DDED190A9DED1C1A00EE810A10EE101AB3
:104FB000084616F091FA41EC1D0B9FED940B53EC53
:104FC000102B16F06BF941EC1B0B9DED1A0ADDED71
:104FD0001C0A20EE200ADDED190A9DED1B1A00EED9
:104FE000C10A10EE101A084616F076FA41EC1D0BB5
:104FF0009FED820B53EC102B16F050F941EC180B7F
:105000009DED1B0ADDED1C0A20EE200ADDED190ADC
:105010009DED1A1A00EE810A10EE101A084616F0DD
:105020005BFA41EC1D0B9FED790B53EC102B16F046
:1050300035F941EC1C0B9DED1A0A20EE000A10EE2A
:10504000101A084616F048FA41EC1F0B53EC192BC6
:1050500016F07DF841EC1E0B9FED680B53EC102B06
:1050600016F01CF941EC1D0B9FED660B53EC102B59
:1050700016F06DF8CDE900019FED620B53EC102B9B
:1050800051EC180B16F054FA02D29FED5E0B03E0C0
:10509000B0EE480AF0EE680AB0EE408AF0EE608AA0
:1050A0009FED5C0B53EC102B51EC180B16F028FA0B
:1050B00002D29FED580B03E0B0EE480AF0EE680A0A
:1050C000B0EE408AF0EE608AB0EE480AF0EE680A70
:1050D0001AF06EFD8DED060B9DED001BB0EE4C0A37
:1050E000F0EE6C0A1BF080F88DED040BB0EE4A1A5E
:1050F000F0EE6A1AB0EE4B0AF0EE6B0A1BF074F891
:105100008DED020B9DED020B9DED041B9DED062B1D
:1051100009B0BDEC108B0FBD00B52DED040B87B0B1
:10512000DDED0A1A9DED091ADDED080A9DED070A6D
:10513000FFF7FEFE8DED000B8DED021B8DED042BB8
:105140009DED000B0BB000BD00B52DED040B87B03D
:10515000DDED0A1A9DED091ADDED080A9DED070A3D
:10516000FFF7E6FE8DED000B8DED021B8DED042BA0
:105170009DED020B0BB000BD00B52DED040B87B00B
:10518000DDED0A1A9DED091ADDED080A9DED070A0D
:10519000FFF7CEFE8DED000B8DED021B8DED042B88
:1051A0009DED040B0BB000BD10B52DED048BB0EEE2
:1051B000408AF0EE608A9FED190B53EC102B51ECF6
:1051C000180B16F06BF841EC190BB0EE490AF0EE33
:1051D000690ABDEC048B10BD10B500230A22012121
:1051E00003200CF0DDF80F49086006232422022179
:1051F00003200CF0D5F80C49086010BD0000000039
:10520000000000C0000000000000F03F00000000AF
:1052100000000040000000000000F0BFE8C35CB0E8
:10522000DDA54C40DC000020E000002010B500F0BF
:105230009DF84FF4A06000F0B7F912F054FA11F0A5
:1052400083FC10F06AFA10F0E1FB10F090FF00F020
:1052500046F913F0C9FA10F00CF911F0F1F810BD8D
:1052600010B500230A22012103200CF099F805490A
:10527000086006232422022103200CF091F8024941
:10528000086010BDE8000020EC0000201FB50121DF
:10529000084601F0DAFE0121084601F0D6FE0020A2
:1052A000ADF80C00ADF80600C720029042F2CF0026
:1052B000ADF8040000208DF80E0001A9534802F05B
:1052C0006CF819208DF8000003208DF801008DF88E
:1052D000020001208DF80300684600F06AF9012100
:1052E0004A4802F00FFD01221146484802F0F6FC40
:1052F0000021464802F0DAF81FBD1FB5012108461B
:1053000001F092FE0121084601F08EFE0020ADF86A
:105310000C00ADF80600C7200290272002904AF248
:105320000F40ADF8040001A94FF0804002F035F8BD
:105330001C208DF8000002208DF8010003208DF85C
:10534000020001208DF80300684600F032F90121C7
:10535000880702F0D7FC01221146900702F0BEFC3C
:1053600000214FF0804002F0A1F81FBD30B5284861
:1053700000684FF47A72B0FBF2F1B1F1807F01D393
:1053800001201DE021F07F40401E4FF0E0225061DF
:1053900050170022002807DA13071D0E1D4B00F0DE
:1053A0000F04241F1D5503E013071C0E1A4B1C5439
:1053B00000BF00204FF0E022906107201061002024
:1053C00008B100BFFEE730BD002106E047F23051D2
:1053D00000BF0A1EA1F10101FBD1021EA0F10103D1
:1053E00098B2F3D1704710B500230A22012103209F
:1053F0000BF0D6FF0949086006232422022103206E
:105400000BF0CEFF0649086010BD0000000001400F
:105410002401002018ED00E000E400E0F800002086
:10542000FC00002000B587B00121084601F0C9FD4D
:105430000121102001F009FE4FF4C0600590022008
:105440008DF8180003208DF8190000208DF81A003F
:1054500001208DF81B0005A94B4801F0CFFA072267
:105460000921494801F055FB07220A21464801F06D
:1054700050FB4FF4613001900020ADF80800ADF80A
:105480000A00ADF80C00ADF810000C20ADF80E00CD
:1054900001A93E4802F08DFD012240F225513B4812
:1054A00002F0C5FE0121394802F00BFE00BF802149
:1054B000364802F0E1FE0128F9D107B000BD08B579
:1054C00001208DF801008DF8020025208DF80000E4
:1054D00001208DF80300684600F06BF808BD10B598
:1054E000FFF7A0FFFFF7EBFF10BD10B5ADF51C7D7A
:1054F0002021264802F0C0FE01282FD10020244997
:105500000870224802F00CFEC4B2224909680868FB
:1055100021490A6821460FF0A6FB20490870084679
:10552000007801281AD14FF498721B4801680C3199
:10553000684617F02DFB4FF49E72174801684DA87E
:1055400017F026FB13484DA90EC900680BF003FCA9
:1055500000201249087001200D4908700DF51C7DCE
:1055600010BD10B500230A22012103200BF018FF03
:105570000B49086006232422022103200BF010FFB0
:105580000849086010BD0000000002400010014002
:105590000401002008000020040000200100002079
:1055A000080100200C01002032490143324A1160F9
:1055B000704770B5002100230F22C4781CB32E4C15
:1055C000246804F4E064C4F5E064C4F30721C1F185
:1055D0000404E3B20A4144789C40E1B28478144068
:1055E00021430C07210E254C05786155047804F001
:1055F0001F050124AC4005786D11AD0005F1E025D3
:10560000C5F8004109E0047804F01F050124AC400E
:105610001B4D0678761145F8264070BD194A0A40A0
:105620000243154B1B1F1A60704739B1124A121DF5
:1056300012680243104B1B1D1A6006E00E4A121D31
:10564000126882430C4B1B1D1A607047042808D156
:105650004FF0E021096941F004014FF0E0221161AF
:1056600007E04FF0E021096921F004014FF0E0224A
:10567000116170470000FA050CED00E000E400E065
:1056800080E100E080FFFF1F10B50446FE48844221
:1056900009D10121480601F031FD00214FF00070D1
:1056A00001F02CFD08E00121880601F027FD002112
:1056B0004FF0806001F022FD10BD30B502460020A1
:1056C0000023146824F002041460146844F00104F8
:1056D000146000E05B1C546804F001041CB94FF630
:1056E000FF74A342F6D1546804F001040CB9002001
:1056F0006CE08C79012C04D1146844F080041460AF
:1057000003E0146824F080041460CC79012C04D1E7
:10571000146844F04004146003E0146824F040046A
:1057200014600C7A012C04D1146844F02004146035
:1057300003E0146824F0200414604C7A012C04D196
:10574000146844F01004146003E0146824F010049A
:1057500014608C7A012C04D1146844F0080414609D
:1057600003E0146824F008041460CC7A012C04D1FE
:10577000146844F00404146003E0146824F0040482
:1057800014608C78A407CD7844EA05640D7944EA66
:1057900005444D7944EA05540D886D1E2C43D461AF
:1057A000146824F001041460002300E05B1C5468BA
:1057B00004F001041CB14FF6FF74A342F6D1546803
:1057C00004F001040CB1002000E0012030BD10B550
:1057D0000021837A012202FA03F1AC4A126842F0F6
:1057E0000102AA4B1A60A94A1C3212688A43A74BCD
:1057F0001C331A60027BCAB9A44A0C3212688A436D
:10580000A24B0C331A604288C38842EA03439F4A82
:105810004032847A42F834300288838842EA034373
:105820009A4A4032847A02EBC4025360027B012A16
:1058300019D1964A0C3212680A43944B0C331A6001
:105840004288038842EA0343904A4032847A42F80D
:105850003430C288838842EA03438C4A4032847AD7
:1058600002EBC4025360C27A3AB9884A121D126828
:105870008A43864B1B1D1A6006E0844A121D12687B
:105880000A43824B1B1D1A60028932B97F4A1432C7
:1058900012688A437D4B14331A600289012A06D1AB
:1058A0007A4A143212680A43784B14331A60427BE6
:1058B000012A06D1754A1C3212680A43734B1C3305
:1058C0001A60724A126822F00102704B1A6010BD11
:1058D00000218171C171017241728172C172817046
:1058E000C1700321017102214171012101807047C2
:1058F0006649096841F00101644A1160114609686E
:1059000043F60E729143614A11601146096841EAFB
:10591000002111601146096821F0010111607047F2
:1059200021B1026842F48032026003E0026822F48E
:10593000803202607047E1B1026842F0800202608A
:105940004FF4C272125842F480734FF4C272135073
:105950004FF4CA72125842F480734FF4CA72135053
:105960004FF4D272125842F480734FF4D272135033
:105970001BE0026822F0800202604FF4C2721258EB
:1059800022F480734FF4C27213504FF4CA7212584B
:1059900022F480734FF4CA7213504FF4D27212582B
:1059A00022F480734FF4D2721350704710B5024640
:1059B0000020936803F08063B3F1806F00D110E0A2
:1059C000936803F00063B3F1006F01D1012008E098
:1059D000936803F08053B3F1805F01D1022000E0AF
:1059E0000420042879D002F5C07303EB00131B6870
:1059F00003F0010402F5C07303EB00131C600B7A83
:105A00007BB94B7A0C8843EA445302F5C07404EB2B
:105A100000142468234302F5C07404EB00142360CF
:105A200010E00B7A4C6843EAC4034C7A234302F536
:105A3000C07404EB00142468234302F5C07404EB23
:105A4000001423608B7A03F00F038B7202F5C0738E
:105A500003EB00135B6823F00F0402F5C07303EB44
:105A600000135C6002F5C07303EB00135B688C7A73
:105A7000234302F5C07404EB001463608B7B1C06A7
:105A80004B7B44EA034403E00064004000660040AE
:105A90000B7B44EA0323CC7A234302F5C07404EB66
:105AA0000014A3608B7C1C064B7C44EA03440B7CF3
:105AB00044EA0323CC7B234302F5C07404EB0014B7
:105AC000E36002F5C07303EB00131B6843F00104AD
:105AD00002F5C07303EB00131C6010BD10B5024645
