:020000040800F2
:1000000040C300201D8500082585000827850008BD
:10001000298500082B8500082D85000800000000B8
:100020000000000000000000000000002F85000814
:100030003185000800000000338500087D5201086A
:1000400037850008378500083785000837850008A0
:100050003785000837850008378500083785000890
:100060003785000837850008378500083785000880
:10007000378500083785000801580108655A0108CE
:100080003785000837850008378500083785000860
:10009000916A010837850008378500083785000810
:1000A0003785000837850008378500083785000840
:1000B0003785000837850008378500083785000830
:1000C0003785000837850008378500083785000820
:1000D00037850008BF5400083785000887100008DE
:1000E000378500083785000837850008CD85010869
:1000F00037850008698701083785000837850008BB
:1001000037850008378500083785000837850008DF
:1001100037850008378500083785000837850008CF
:1001200037850008378500083785000837850008BF
:1001300037850008378500083785000837850008AF
:10014000456C0108378500083785000837850008A9
:1001500037850008175901084D56010837850008F2
:10016000378500083785000837850008378500087F
:10017000378500083785000837850008378500086F
:100180003785000837850008DFF814D01BF0B0FF72
:100190001AF0CAFC00480047F10700081BF0BFFC3A
:1001A00040C30020FEB442464B4654465D463EB432
:1001B0001AF019FA3EBC90469946A246AB46FEBCE0
:1001C00000F032F8704700BF80EC200B7047C0ECA5
:1001D000200B704790EC200B7047D0EC200B704741
:1001E00085460D98DDF838E00F9B5DF8042B20E97B
:1001F0000C009DE8FE1F854601BD4DF808ED0DF190
:10020000080E4DF804ED2DE9FF1F002102B46946E8
:1002100081B01BF0C0FEDDF840E012B07047000076
:1002200030650200C06B02004DF808ED0DF1080EBC
:100230004DF804ED2DE9FF1F002102B4694681B09D
:100240001BF010BF2DE9F0472DED048B4FF0000996
:100250009FEDF90A10EE105A9FEDF70A10EE106AA2
:100260009FEDF50A10EE107A9FEDF30A10EE108A5A
:100270009FEDF10AB0EE408AB6EE000AF0EE408A39
:10028000B6EE000AB0EE409AB3EE040AF0EE409AE1
:10029000EA480078042803D0BDEC048BBDE8F08761
:1002A000E748807D00B9F7E7E548007F48B9E348B3
:1002B000007A28B1E148007A20F00200DF49087294
:1002C000EAE718F0C1FDDF4801F03AFADC4881891D
:1002D0000122DC4819F0CEFADB490870D848018ABF
:1002E0000322D84819F0C6FAD7498871D448C18981
:1002F0000222D44819F0BEFAD349C870D048418AC6
:100300000422D04819F0B6FACF494872002487E099
:1003100004EB4400CC49085C012813D104EB4400F1
:1003200008448078401E00EB4000085C032809D197
:10033000002104EB4400C44A10448078401E00EBC6
:100340004000115404EB4400BF49085C022813D15B
:1003500004EB440008448078401E00EB4000085C39
:10036000032809D1022104EB4400B74A10448078E5
:10037000401E00EB4000115404EB4400B249085CFD
:10038000032817D104EB440008448078401E00EB9A
:100390004000085C03280DD1022104EB4400AA4A66
:1003A00010448078401E00EB40001154022004EB02
:1003B0004401505404EB4400A349085C78BB04EBAF
:1003C000440008448078401E00EB4000085C03288D
:1003D00025D1611CC8B219F004FA48B1002104EB20
:1003E0004400994A10448078401E00EB40001154AC
:1003F00093480A30611C30F811009149C98B88423A
:100400000DDA022104EB44008F4A10448078401E2C
:1004100000EB40001154022004EB44015054641CD2
:10042000042CFFF675AF88480078012806D101F04A
:10043000A0FA10EE105A012083490873824880798F
:10044000012807D1032001F094FA10EE105A012080
:100450007D4908737C48C078012807D1022001F04B
:10046000EAFA10EE106A0120774948737648407A1C
:10047000012807D1042001F0DEFA10EE106A0120F5
:100480007149487370480078022803D118EE105A59
:100490006D4908736C488079022805D1B1EE480A8D
:1004A00010EE105A684908736748C078022803D1D3
:1004B00018EE106A644948736348407A022805D1EF
:1004C000B1EE480A10EE106A5F4948735E48007842
:1004D000032805D1B1EE680A10EE105A5A49087384
:1004E00059488079032803D118EE905A5649087369
:1004F0005548C078032805D1B1EE680A10EE106A9D
:10050000514948735048407A032803D118EE906A45
:100510004D494873012019F064F970B9032019F0AE
:1005200060F950B94848007B022806D19FED420A85
:1005300010EE105A002044490873022019F051F9B6
:1005400070B9042019F04DF950B93F48407B02289A
:1005500006D19FED390A10EE106A00203A4948731F
:100560003948007B00281BDD3748407BC0B902209A
:1005700019F037F940B1022001F05DFA10EE106A6F
:100580000420314948730BE0042019F02AF938B1EE
:10059000042001F050FA10EE106A04202A49487332
:1005A0002948407B00281BDD2748007BC0B901207B
:1005B00019F017F940B1012001F0DBF910EE105AE3
:1005C0000420214908730BE0032019F00AF938B11F
:1005D000032001F0CEF910EE105A04201A490873D6
:1005E0001948007B002803DC1748407B00283DDDCC
:1005F0004FF001091348B0F91C00B0F5FA7F02DD95
:1006000019EE107A0EE00F48B0F91C0010F5FA7FD1
:1006100004DAB1EE490A10EE107A03E09FED060A03
:1006200010EE107A0748B0F91E00B0F5FA7F0DDD24
:1006300019EE908A26E000000000000084000020EF
:100640005838002090380020B8380020FD48B0F914
:100650001E0010F5FA7F04DAB1EE690A10EE108A76
:1006600010E01FED0B0A10EE108A0BE04FF00009AE
:10067000002405E0002004EB4401F34A5054641CBC
:10068000042CF7DB002409E004EB4400EE49085C8D
:1006900004EB4401EC4A11444870641C042CF3DB65
:1006A000B9F1000F0FD0E948C0F80150C0F805605B
:1006B000C0F80970C0F80D80E548007A40F00200EB
:1006C000E34908722AE0E248007A28B1E048007A5B
:1006D00020F00200DE490872DC48D0F8010000EE8C
:1006E000100AB5EEC00AF1EE10FA06D01FED2E0A80
:1006F00010EE100AD549C1F80100D448D0F8050021
:1007000000EE100AB5EEC00AF1EE10FA06D01FEDA9
:10071000360A10EE100ACD49C1F8050000BFBBE54E
:10072000CC4A107A517ACA4A1278042A00D070470B
:10073000FC2801D0FC2910D10122C54B5A70B7EE1C
:10074000000A10EE102AC14BC3F80920C04A127AE1
:1007500042F00102BE4B1A721CE00022BC4B5A70E0
:10076000BA4AD2F8092000EE102AB5EEC00AF1EE1E
:1007700010FA06D01FED500A10EE102AB34BC3F842
:100780000920B34A127A2AB1B14A127A22F0010240
:10079000AF4B1A7200BFCAE710B518F076FA0128FD
:1007A00001D1FFF7BDFF10BD0020AB4908601AE082
:1007B000AA49A94A1268885C411ECAB2A749A64B39
:1007C0001B68CA5450B10846A3490968405C28B95F
:1007D0000021A248001DA04A126881549E4800686A
:1007E000401C9D4908609C4800680428E0DB704775
:1007F0001CB504F007FD18F06BFA4FF47A7004F0A2
:10080000CDFD5D20964B97A29A4900909A481EF024
:10081000FBFC0446601C38B1B4F5967F04D29649BF
:1008200096A01EF0E1FC02E095A01EF0DDFC9CA06D
:100830009EA1A1A3A2A2CDE90010A4A1A6481EF0EA
:10084000D3FC5F20864B87A28A4900908A481EF01D
:10085000DBFC0446601C38B1B4F5967F04D28649AF
:1008600086A01EF0C1FC02E085A01EF0BDFC00F0D9
:10087000CCFC002802DA4FF0FF301CBD18F0DEFA85
:1008800019F0A6FD19F006FC19F0AFF802224FF49A
:100890007A71AFF2EB0017F07EF8019013E000F0F0
:1008A000E3FD18F07EFA19F090FCFFF775FF19F0E0
:1008B00063FE19F0ADFAFFF7C5FC15F02EFB15F03D
:1008C000C6FF16F0D9FAEAE710B52DED048B6048A3
:1008D0000078042802D0BDEC048B10BD5F482A3894
:1008E000807D00B9F7E75D482A38007F48B958484D
:1008F000007A28B15648007A20F002005449087264
:10090000E9E718F0B0FA0446002C75D05048007A98
:1009100040F002004E49087204F00100A0B14F49B6
:100920002A39088C1AF0C0FA41EC190B9FED6B0BB9
:1009300053EC102B1AF0C6F941EC180B1AF024FBFB
:100940004249C1F801001EE004F00400A0B143498F
:100950002A39088C1AF0A8FA41EC190B9FED610BAB
:1009600053EC102B1AF0AEF941EC180B1AF00CFBFB
:100970003649C1F8010006E01FEDD10A10EE100A59
:100980003249C1F8010004F00200A0B133492A390C
:10099000088C1AF089FA41EC190B9FED500B53ECBF
:1009A000102B1AF08FF941EC180B1AF0EDFA2749C9
:1009B000C1F80500A1E004F00800A0B127492A39D8
:1009C000088C1AF071FA41EC190B9FED460B53ECB1
:1009D000102B1AF077F941EC180B1AF0D5FA1B49D5
:1009E000C1F8050089E01FEDEC0A10EE100A174966
:1009F000C1F8050081E0FFE71548007A28B11448E6
:100A0000007A20F00200124908721048D0F8010064
:100A100000EE100AB5EEC00AF1EE10FA06D01FED96
:100A2000FA0A10EE100A0949C1F801000748D0F887
:100A3000050000EE100AB5EEC00AF1EE10FA5CD027
:100A400054E0000090380020B83800200012002048
:100A5000840000200A3F00200C0000208238002083
:100A6000803C0208494D504F52545F4E4F54494309
:100A700045000000F85C0208DA1A00202573000027
:100A80004552524F523A206C6F67207072696E74F3
:100A9000657220696E6E6572206661756C740A00FD
:100AA00031363A31343A3237000000004465632071
:100AB00032362032303137005630352D303000009C
:100AC0003130303030303030000000004D61696E20
:100AD000426F6172640000003C5D02089A99999926
:100AE0009999B93F9A9999999999B9BF9FEDB70A80
:100AF00010EE100AB649C1F8050000BFEBE630B5AC
:100B00002DED0C8B8FB0B3480078042803D00FB0C4
:100B1000BDEC0C8B30BDB048807D00B9F7E7AE4826
:100B2000007F48B9AB48007A28B1AA48007A20F083
:100B30000200A8490872EAE7A849096888680AF02B
:100B400032FD8DED090ACDED0A0A8DED0B1ACDEDC2
:100B50000C1ADDED0C1A9DED0B1ADDED0A0A9DED68
:100B6000090A04F0C5FAB0EE408AF0EE608A9C49AA
:100B7000A1F1080000F0C7FCB0EE480AF0EE680AE8
:100B80001FF0AEF9B0EE40CAF0EE60CA93490968B2
:100B900088680AF052FD8DED0A0ACDED0B0A8DED45
:100BA0000C1A9DED0B0A10EE101A08461AF0A8F95F
:100BB00041EC1D0B53EC1C2B1AF084F841EC1A0B82
:100BC000B0EE480AF0EE680A1FF01AF9B0EE40CA1B
:100BD000F0EE60CA8149096888680AF02EFD8DED43
:100BE000070ACDED080A8DED091A9DED070A10EEF2
:100BF000101A08461AF084F941EC1D0B53EC1C2B1B
:100C00001AF060F841EC1B0B53EC1A2B19F0B3FFF0
:100C100041EC190B1AF0B8F9714908390861B0EEC6
:100C2000480AF0EE680A1FF0EBF8B0EE40CAF0EEAA
:100C300060CA6A49096888680AF0FFFC8DED0A0AF3
:100C4000CDED0B0A8DED0C1A9DED0B0A10EE101A6E
:100C500008461AF055F941EC1D0B53EC1C2B1AF009
:100C600031F841EC1B0BB0EE480AF0EE680A1FF0B9
:100C700037F9B0EE40CAF0EE60CA58490968886892
:100C80000AF0DBFC8DED070ACDED080A8DED091A9F
:100C90009DED070AB1EE400A10EE105A28461AF0F0
:100CA0002FF941EC1D0B53EC1C2B1AF00BF841EC07
:100CB000190B53EC1B2B19F05EFF41EC1A0B1AF0C9
:100CC00063F947490839486144480068816804A8C5
:100CD0000AF001FE04A807C80AAB07C33F48006832
:100CE000816801A80AF0F7FD01A807C807AB07C390
:100CF000BDF92830BDF91E200DA90EA818F03FFC43
:100D000004466CB132490E98C1F801000D98C1F843
:100D100005003048007A40F002002E4908722AE0AF
:100D20002C48007A28B12B48007A20F0020029498B
:100D300008722748D0F8010000EE100AB5EEC00A8C
:100D4000F1EE10FA06D09FED210A10EE100A2049AC
:100D5000C1F801001E48D0F8050000EE100AB5EEFB
:100D6000C00AF1EE10FA06D09FED180A10EE100A34
:100D70001749C1F8050000BFC9E610B500230A22D3
:100D80000121032010F0F6FA1649086006232422F8
:100D90000221032010F0EEFA13490860134801788D
:100DA00013480EF08BFF0446124A134919F0CCFE8B
:100DB000DFED061A9FED051ADFED040A9FED030A29
:100DC0004A2103480BF0C8FA10BD000000000000E3
:100DD0000012002084000020583800200800002065
:100DE000983800201000002014000020000000208F
:100DF0004807002000000008F1FC000870B5044618
:100E00000D4600BF40210E4807F020FA0028F9D017
:100E1000E1B20B4807F06AF9204670BD10B5002317
:100E20000A220121032010F0A5FA064908600623D2
:100E300024220221032010F09DFA0349086010BD0E
:100E4000004800401C0000202000002000B58DB0AC
:100E50005B4801905B480C9000231A4601A95A4850
:100E600000680FF067FB0DB000BD0FB42DE9F04135
:100E700088B004465E9FBDF83E001038022846DC6C
:100E8000BDF84950C4F874570D220FA904F26770D9
:100E90001BF092FB40F27770005D8DF8000011228C
:100EA00004F2677103A81BF087FB03A80FC807F0C3
:100EB00047FBD0B145480088854216D120F082FC1E
:100EC00080463220424B43A201210090404611F05F
:100ED0004FFB0646006841A18268304690470022D9
:100EE000114620460EF0F7FB00BF3948019040F252
:100EF0007770005D8DF80000112204F2677103A87D
:100F00001BF05AFB03A80FC807F0F8FF13E020F00E
:100F100059FC80463B202E4B2EA2012100904046DA
:100F200011F026FB06469DF84420006832A1836834
:100F30003046984700BF3848008885420CD140F2BF
:100F4000E460005940B140F2E4621159206813F0A6
:100F50001FFF04203149087008B0BDE8F0015DF8BA
:100F600014FB10B500230A220121032010F002FA1D
:100F70002B490860062324220221032010F0FAF9ED
:100F8000284908602848007800F00100002815D1A1
:100F900025481EF077FA002810D00C201EF0FEF82D
:100FA000041E05D00021204611F0BEFA044600E0E0
:100FB00000201E4908601C48AFF3008010BD0000EF
:100FC0001FBF0F003400002008000020F43F02087B
:100FD000DB3C02084552524F5200000053444B2064
:100FE00076657273696F6E20646964206E6F742019
:100FF0006D617463680A000041434B20697320658A
:101000007863657074696F6E2C2073657175656E99
:1010100063652025640A0000E43F02088400002084
:10102000280000202C000020F4050020F8050020F6
:1010300000F07F0200EE102AB8EEC00AF0EE400A7F
:1010400000EE101AB8EE400AB0EE401A00F080022E
:1010500062B1DFED5E1AB0EE410A00EEA10AF1EED8
:10106000401A9FED5B2A81EE820A7047DFED571A26
:10107000B0EE410A00EEA10A9FED552AC0EE021A19
:10108000B0EE610AF1E710B52021524807F0DEF812
:1010900001282AD14F4807F02DF8C4B24E48806A83
:1010A00048B9FA2C20D14C48816A001D44540120D3
:1010B0004949886218E0FE2C0DD14748816A001D1D
:1010C0004454001F806A401C4349C8620020886263
:1010D0000120086008E04048816A001D4454001F58
:1010E000806A401C3C49886200BF10BD70B586B064
:1010F00004460D462068012802D10020206001E04E
:1011000006B070BD2079FA2802D16079FB2800D0A2
:10111000F6E7A07920B1012808D0AA283AD108E042
:101120000022114628460EF0D6FA34E0FFF78EFE74
:1011300031E0A07B00EB80004000616A4143607BAE
:1011400000EB80004000626A4243207B00EB80009D
:101150004000636A4343E07A00EB80004000666A27
:101160007043CDE9023204910190A07A00EB800037
:1011700040000090607A00EB80004300207A00EB92
:1011800080004200E07900EB8000410013481EF02F
:101190002BF800E000BF00BF00BFB1E710B500238F
:1011A0000A220121032010F0E5F80D49086006230A
:1011B00024220221032010F0DDF80A4908600648C5
:1011C000002101608162C16200BF10BD0000804348
:1011D0000000C84200480040141200208C5D020844
:1011E000780000207C000020E248008820B1E1481F
:1011F0000088401EDF490880DF48008820B1DE48B3
:101200000088401EDC490880704738B50020DB4963
:10121000086041F2883004F0C1F8D94909680868CB
:1012200013F08CFD0446006881692046884738B970
:10123000D4A01DF0D9FF012000F071FC00F082FC69
:10124000DAA01DF0D1FFDEA01DF0CEFFECA01DF056
:10125000CBFFF2A01DF0C8FFFDA01DF0C5FF1E20B2
:1012600004F09CF8C64800680EF08BFA4FF4FA7050
:1012700004F094F8C24800680DF042FEFC49096889
:1012800088420ED2BE4800680DF03AFEF949884205
:1012900007D0F9A01DF0A8FF012000F040FC00F0ED
:1012A00051FC4FF47A7004F079F802221421AFF265
:1012B000C70016F070FB0090012038BD10B5F94949
:1012C000A1F1650018F057FC28B1F74890F82D11EE
:1012D000C83000F0E4FF10BD00B52DED028B8FB0DB
:1012E000A548008818B90A20A349088003E00FB078
:1012F000BDEC028B00BDA2480068816801A80AF01D
:101300002DFA1C2201A908A81BF056F99DED0D8AA3
:10131000E648007B00B9EAE7B1EE000AB4EEC08A05
:10132000F1EE10FA03DD0220E04988600AE0B0EE39
:10133000080AB4EEC08AF1EE10FA03D24FF0FF3083
:10134000DA49886000BFD2E710B58CB08C490968D3
:1013500088680AF00DFB0B9089480068816804A832
:101360000AF0B9FA04A807C808AB07C3844909689A
:1013700088680AF054FB0790BDF92800002801DCBA
:101380000CB010BD9DF82C00022800D0F8E7C8482A
:10139000007A002824D19DF81D0000F007000228E3
:1013A0001DD100221146764800680EF020FD4FF452
:1013B0008270C04BC0A2C4A10090CC481DF024FF95
:1013C0000446601C38B1B4F5967F04D2C749C8A062
:1013D0001DF00AFF02E0C7A01DF006FF00BFCFE727
:1013E000B348007A30B16348008818B901206149D8
:1013F000088000E0C4E79DF81D0000F00700022807
:101400001DD0002211465E4800680EF094FD4FF496
:101410008A70A84BA8A2BFA10090B4481DF0F4FEAA
:101420000446601C38B1B4F5967F04D2AF49B0A031
:101430001DF0DAFE02E0AFA01DF0D6FE00BFBD48F1
:10144000C1680091007C8DF804004D4800681122AD
:10145000B849C46802A81BF0AFF8204602A90EC91B
:101460000AF00DFF00BF8BE700B585B0904800780B
:1014700020B103282FD0042841D139E003208C4922
:101480000870AD4800684860FFF7E0FC3C48006821
:101490000DF036FD7749884208D039490968486817
:1014A0000CF0E4FF4FF4FA7003F078FF3448006862
:1014B0001422816868460AF0D7FB322003F06EFFE1
:1014C0002F490968784AC8699C490CF04EFC3220C3
:1014D00003F064FF14E07648406897490968401AB1
:1014E00041F28831884202D300207149087007E038
:1014F000FFF72AFFFFF7F0FEFFF7E0FE00E000BF76
:1015000000BF05B000BD7FB504460D461C49096803
:1015100088680AF048F88DED000ACDED010A8DEDDE
:10152000021ACDED031ADDED031A9DED021ADDED71
:10153000010A9DED000A03F0F3FD84ED000B104954
:10154000096888680AF02FF88DED000ACDED010AD0
:101550008DED021ACDED031ADDED031A9DED021A91
:10156000DDED010A9DED000A03F0F2FD85ED000BB3
:101570007FBD00009000002092000020AC8242421B
:1015800008000020555341525420636F6D6D756EF5
:1015900069636174696F6E206973206E6F74207760
:1015A0006F726B696E672E0D0A0000000A5072653B
:1015B000726571756973697465733A0D0A0000008C
:1015C000312E2056656869636C6520636F6E6E65A9
:1015D0006374656420746F20746865204173736957
:1015E0007374616E7420616E642073696D756C61D3
:1015F00074696F6E206973204F4E0D0A0000000061
:10160000322E20426174746572792066756C6C7933
:10161000206368616E726765640D0A00332E204492
:101620004A49474F2041707020636F6E6E65637446
:1016300065642028666F722074686520666972731D
:10164000742074696D652072756E290D0A000000A2
:10165000342E2047696D62616C206D6F756E746504
:1016600064206966206E65656465640D0A0000008B
:1016700098000020000A01035570677261646520BC
:101680006669726D77617265207573696E67204156
:101690007373697374616E7420736F6674776172AB
:1016A00065210A005238002025370020C838002064
:1016B00084000020EC3C0208494D504F52545F4ECC
:1016C0004F5449434500000025732025732C6C6955
:1016D0006E652025643A206F657320636F6E7472A7
:1016E0006F6C20636C6F7365640A0000DA1A002067
:1016F000257300004552524F523A206C6F6720709C
:1017000072696E74657220696E6E657220666175AD
:101710006C740A0025732025732C6C696E65202576
:10172000643A206F657320736574436F6E74726FD3
:101730006C0A0000001200206804002065220008E6
:1017400030B52DED0C8B99B00446F74800688168E0
:1017500001A80AF003F81C2201A912A81AF02CFF14
:10176000F1480068816805A80AF0B5F805A807C81F
:101770000FAB07C3EC490968886809F05EFF8DED7F
:101780000C0ACDED0D0A8DED0E1AE749096888683F
:1017900009F009FF8DED080ACDED090A8DED0A1A51
:1017A000CDED0B1A2546E0490968886809F0FBFE73
:1017B0008DED040ACDED050A8DED061ACDED071A63
:1017C000DDED071A9DED061ADDED050A9DED040A13
:1017D00003F0A6FC85ED000BD3490968886809F081
:1017E000E2FE8DED040ACDED050A8DED061ACDED74
:1017F000071ADDED071A9DED061ADDED050A9DEDD0
:10180000040A03F0A5FC85ED020BBDF83E006883D9
:10181000BDF83C002883BDF84200A883BDF8400015
:10182000E883DDED0B1A9DED0A1ADDED090A9DED49
:10183000080A03F05DFCB0EE40DAF0EE60DA1EF06C
:101840004FFBB0EE40BAF0EE60BA9DED0D0A10EE1F
:10185000101A084619F054FB41EC1C0B53EC1B2BDF
:1018600019F030FA41EC190BDDED0B1A9DED0A1A57
:10187000DDED090A9DED080A03F03AFCB0EE40DA0E
:10188000F0EE60DA1EF0BCFAB0EE40BAF0EE60BAEC
:101890009DED0C0A10EE101A084619F031FB41ECD0
:1018A0001C0B53EC1B2B19F00DFA41EC1A0B53ECEB
:1018B000192B19F060F941EC180B19F065FB286140
:1018C000DDED0B1A9DED0A1ADDED090A9DED080A02
:1018D00003F00EFCB0EE40DAF0EE60DA1EF090FAA3
:1018E000B0EE40BAF0EE60BA9DED0D0A10EE101A9F
:1018F000084619F005FB41EC1C0B53EC1B2B19F0AF
:10190000E1F941EC180BDDED0B1A9DED0A1ADDED46
:10191000090A9DED080A03F0EBFBB0EE40DAF0EEA9
:1019200060DA1EF0DDFAB0EE40BAF0EE60BA9DED7E
:101930000C0AB1EE400A10EE101A084619F0E0FA4F
:1019400041EC1C0B53EC1B2B19F0BCF941EC1A0BAE
:1019500053EC182B19F00FF941EC190B19F014FB8B
:1019600068619DED170A85ED080A19B0BDEC0C8B76
:1019700030BD10B52DED068B04466C49088C19F06E
:1019800093FA41EC1A0B9FED6A0B53EC102B19F0F4
:1019900099F941EC190B19F0F7FA08EE900A66482C
:1019A00090ED040AB0EE408AB4EEE88AF1EE10FA47
:1019B00002DDB0EE688A25E0B1EE680AB4EEC08AB6
:1019C000F1EE10FA04D2B1EE680AB0EE408A19E0E6
:1019D000B5EEC08AF1EE10FA0ADB38EE280A30EED6
:1019E000080AF0EE080A80EE201AB0EE418A09E0FB
:1019F00038EE080A30EE680AF0EE080A80EE201A87
:101A0000B0EE418A012C06D1B5EEC08AF1EE10FA93
:101A100001D2B0EE688A032C08D1B5EEC08AF1EE8F
:101A200010FA03DDB1EE680AB0EE408AB0EE480A63
:101A3000BDEC068B10BD10B52DED068B04463B4961
:101A4000088C19F031FA41EC1A0B9FED390B53EC6D
:101A5000102B19F037F941EC190B19F095FA08EE33
:101A6000100A354890ED050AF0EE408AF4EEC88A77
:101A7000F1EE10FA02DDF0EE488A25E0B1EE480AF8
:101A8000F4EEC08AF1EE10FA04D2B1EE480AF0EE9C
:101A9000408A19E0F5EEC08AF1EE10FA0ADB38EE62
:101AA000A80A30EE080AF0EE080A80EE201AF0EEDE
:101AB000418A09E038EEA80A30EE480AF0EE080A3A
:101AC00080EE201AF0EE418A022C06D1F5EEC08A93
:101AD000F1EE10FA01D2F0EE488A042C08D1F5EEAE
:101AE000C08AF1EE10FA03DDB1EE480AF0EE408A4A
:101AF000B0EE680ABDEC068B10BD10B500230A22BB
:101B0000012103200FF036FC0C4908600623242233
:101B1000022103200FF02EFC0949086010BD00F0DF
:101B2000010181F313887047080000205838002015
:101B30009A9999999999B93F90380020940000207A
:101B400098000020BFF34F8F0648006800F4E06063
:101B500005490843001D03490860BFF34F8F00BFCC
:101B6000FEE700000CED00E00000FA05F0B52DEDF9
:101B7000088BA5B000244FF4FA651427FE480068CE
:101B8000142281680EA80AF06FF8E6E0FA490968A5
:101B9000886809F0EDFE2490F7480068816807A87E
:101BA00009F0DCFD1C2207A91DA81AF005FDF2486A
:101BB000006881680BA809F08EFE0BA807C81AAB55
:101BC00007C3ED490968886809F037FD8DED170AEC
:101BD000CDED180A8DED191AE7490968886809F0F2
:101BE000E2FC8DED130ACDED140A8DED151ACDED45
:101BF000161A2146E1A01DF0F7FAE4A01DF0F4FA50
:101C00009DF89010E4A01DF0EFFA9DED210A10EE72
:101C1000101A084619F074F941EC180B8DED028B7F
:101C20009DED1F0B8DED000B9DED1D1BB0EE410AD0
:101C3000F0EE610A53EC102BDCA01DF0D5FABDF9D3
:101C40006E000090BDF96C30BDF96A20BDF96810D6
:101C5000DFA01DF0C9FA9DED190A10EE101A084612
:101C600019F04EF941EC180B9DED180A10EE101A00
:101C7000084619F045F941EC190B9DED170A10EED5
:101C8000101A084619F03CF941EC1A0B8DED028B45
:101C90008DED009B53EC1A2BD8A01DF0A5FA9DEDFD
:101CA000160A10EE101A084619F02AF941EC180B22
:101CB0009DED150A10EE101A084619F021F941ECB5
:101CC000190B9DED140A10EE101A084619F018F9B8
:101CD00041EC1A0B9DED130A10EE101A084619F08C
:101CE0000FF941EC1B0B8DED048B8DED029B8DEDFF
:101CF00000AB53EC1B2BCBA01DF076FA9E4800687E
:101D00008168684609F02AFD1C22694607A81AF076
:101D100053FC9DED0C0A10EE101A084619F0F0F86D
:101D200041EC180B53EC182BCCA01DF05DFA924936
:101D30000968886809F073FE0D909DF8350000F081
:101D400007063146C9A01DF04FFACEA01DF04CFA8F
:101D500032344FF4FA7003F021FBAC42FFF616AFB9
:101D6000CBA01DF041FA012025B0BDEC088BF0BDE1
:101D70002DE9F04F2DED088BA1B0002020904FF4FD
:101D80007A601F9000201E900124C54800681D90B5
:101D900001201C9000267849CDE9006409681DAB3C
:101DA00048681C9A1E990CF0E7FA05462DB928469A
:101DB00021B0BDEC088BBDE8F08F6F490968486819
:101DC0001E990CF02BFC4FF4FA7003F0E7FA012097
:101DD0001E900A24B248001D00681B9001201C9030
:101DE00000266549CDE9006409681BAB48681C9A68
:101DF0001E990CF0C1FA05460DB92846D8E75E4990
:101E0000096848681E990CF009FC4FF4FA7003F059
:101E1000C5FA02201E903224A148083000681A90AA
:101E200002201C9000265449CDE9006409681AABD1
:101E300048681C9A1E990CF09FFA05460DB9284671
:101E4000B6E74D49096848681E990CF0E7FB4FF466
:101E5000FA7003F0A3FA03201E90C8240020199002
:101E600001201C9000264449CDE90064096819ABA3
:101E700048681C9A1E990CF07FFA05460DB9284651
:101E800096E73D49096848681E990CF0C7FB4FF476
:101E9000FA7003F083FA4FF4FA5003F07FFA4FF42C
:101EA0007A674FF4FA7800BF33490968086812F07E
:101EB00045FF83460068C1685846884710EB070A0B
:101EC00000BF2D49096848681FF092FB18902A4806
:101ED0000068416868461FF03BFA1822694612A85C
:101EE0001AF06AFB24480068416803A81FF086FACC
:101EF00003A807C80FAB07C31F480068416802A8C2
:101F00001FF00AFC02A80FC8CDE90D23CDE90B0193
:101F10001949096848681FF0C1F98DED070ACDED30
:101F2000080A8DED091ACDED0A1A14A020991DF0AA
:101F30005BF916A01DF058F917A018991DF054F977
:101F40009DED160A10EE101A084618F0D9FF41EC64
:101F5000180B8DED028B9DED120B8DED000B9DEDA1
:101F6000141BB0EE410AF0EE610A53EC102B0FA0E7
:101F70001DF03AF996E0000008000020436F756EEE
:101F8000746572203D2025643A0A00002D2D2D2D08
:101F90002D2D2D0A00000000466C696768742053DF
:101FA0007461747573203D2025640A00506F736955
:101FB00074696F6E20284C4C4129203D20252E331A
:101FC000662C20252E33662C20252E33660A000031
:101FD000524320436F6D6D616E64732028722F70C1
:101FE0002F792F74687229203D2025642C202564C8
:101FF0002C2025642C2025640A00000056656C6F97
:1020000063697479202876782C76792C767A292061
:102010003D20252E33662C20252E33662C20252EA0
:1020200033660A0041747469747564652051756182
:102030007465726E696F6E2028772C782C792C7AF3
:1020400029203D20252E33662C20252E33662C207A
:10205000252E33662C20252E33660A0068656967B5
:102060006874203D2025660A00000000636F6E74CE
:10207000726F6C44657669636528645329203D203E
:1020800025640A002D2D2D2D2D2D2D0A0A0000006E
:10209000446F6E65207072696E74696E67210A0004
:1020A000FC3C0208BDF942000090BDF94030BDF98A
:1020B0003E20BDF93C10AFF2E8001DF095F89DED13
:1020C0000D0A10EE101A084618F01AFF41EC180B12
:1020D0009DED0C0A10EE101A084618F011FF41ECA5
:1020E000190B9DED0B0A10EE101A084618F008FFA8
:1020F00041EC1A0B8DED028B8DED009B53EC1A2BEE
:10210000AFF208101DF070F89DED0A0A10EE101ADB
:10211000084618F0F5FE41EC180B9DED090A10EE8B
:10212000101A084618F0ECFE41EC190B9DED080A58
:1021300010EE101A084618F0E3FE41EC1A0B9DED64
:10214000070A10EE101A084618F0DAFE41EC1B0BD5
:102150008DED048B8DED029B8DED00AB53EC1B2BB5
:10216000AFF240101DF040F8AFF2E8001DF03CF86F
:102170004FF4FA7003F012F935490968086812F053
:10218000DDFD06900068C1680698884710EB0809D5
:10219000D145FFF496AEAFF208101DF025F82C499A
:1021A0000968486800210CF03DFC40F6B83003F0A7
:1021B000F5F827490968486801210CF033FC40F61E
:1021C000B83003F0EBF822490968486802210CF0A6
:1021D00029FC40F6B83003F0E1F81D490968486869
:1021E00003210CF01FFC40F6B83003F0D7F80120B3
:1021F000DEE510B500230A22012103200FF0BAF812
:102200001449086006232422022103200FF0B2F8AB
:10221000114908601148007800F00100002815D12C
:102220000E481DF02FF9002810D00C201CF0B6FF2E
:10223000041E05D00021204610F076F9044600E087
:102240000020074908600548AFF3008010BD00007A
:1022500008000020A0000020A4000020F4050020B9
:10226000F80500200FB42DE9F0478146589D2E4611
:1022700006F164070DF13108BDF82600123884B26A
:10228000142C08DB642C06DC2246414638461AF042
:1022900093F986F82C41BDE8F0075DF814FB70B5A2
:1022A00004460D46C34909682A46C86921460BF011
:1022B0002DFD0020C0490860C0480068C049086082
:1022C00070BD0FB4F0B589B004465E9EBDF83E0007
:1022D0001038022865D80D220FA904A81AF06CF94D
:1022E00020460CF00DFEB749884204D09DF8490005
:1022F000CDF81D0003E0BDF84900CDF81D009DF8A4
:1023000020008DF8000004A80FC806F019F948B1A4
:10231000AD4801909DF820008DF8000004A80FC87A
:1023200006F0ECFD9DF83C008DF808009DF83D009E
:102330008DF8090010988078072809D00222A34957
:1023400002A818F0E8FA88B11098807801280DD119
:102350000520ADF80C00BDF81D0080B2ADF80E00F0
:10236000042203A9E0690BF0D1FC19E010988078F1
:10237000082808D00222954902A818F0CCFA78B1B2
:102380001098807860B90620ADF80C00BDF81D00EB
:1023900080B2ADF80E00042203A9E0690BF0B6FC90
:1023A00013E01FF00FFA0746B520874B88A20121E2
:1023B0000090384610F0DCF805469DF8442000688F
:1023C00085A183682846984700BF09B0F0BC5DF836
:1023D00014FB0FB42DE9F04387B004465E9E864897
:1023E0000088CDF81500012720460DF063F98046DE
:1023F000BDF83E001038022809D8BDF84900CDF8D4
:1024000015000D220FA902A81AF0D6F813E01FF04C
:10241000D9F981466620794B6DA20121009048468A
:1024200010F0A6F805469DF8442000686AA183686C
:102430002846984700BFDDF8150071490988884291
:1024400006D10022AFF2750120460DF074FD25E0A3
:10245000DDF815006B490988884206D10022AFF2E9
:102460008D0120460DF0C3FC18E0109880780128FB
:1024700003D10220ADF8040005E01098807810B96F
:102480000320ADF80400BDF8150080B2ADF80600D9
:10249000042201A9E0690BF039FC00BF07B0BDE8D8
:1024A000F0035DF814FB0FB470B50646549DBDF8FB
:1024B0002140022C06D0032C0CD0052C12D0062C67
:1024C00044D129E00022AFF2F5013A4800680DF04E
:1024D00032FD3CE00022AFF20511364800680DF0F5
:1024E00086FC34E0334800680CF00AFD3549884228
:1024F00009D0304909680023AFF23922C8680721A2
:1025000009F0A4FC07E02B4909680022C868AFF273
:102510004D2109F0BCFD1AE0264800680CF0F0FCE3
:102520002849884209D0234909680023AFF26D2267
:10253000C868082109F08AFC07E01E4909680022E2
:10254000C868AFF2812109F0D3FD00E000BF00BFF1
:1025500070BC5DF814FB10B500230A220121032092
:102560000EF008FF284908600623242202210320D8
:102570000EF000FF254908602548007800F00100B2
:10258000002815D122481CF07DFF002810D00C2017
:102590001CF004FE041E05D0002120460FF0C4FFED
:1025A000044600E000201B4908601948AFF3008092
:1025B00010BD000008000020A00243426804002073
:1025C0006C040020000A0103253D0208CB3E0208EE
:1025D0004552524F5200000041434B206973206521
:1025E0007863657074696F6E2C2073657175656EA4
:1025F00063652025640A0000623F0208063D020868
:10260000FC3F0208FE3F0208AC000020B0000020A2
:10261000F4050020F80500202DE9FE43814601263F
:102620000A24FA480068029002274FF00008F8498F
:10263000CDE90084096802AB3A46486831460BF0A0
:102640009BFE054615B92846BDE8FE83F04909689A
:10265000486831460BF0E2FF4FF4FA5002F09EFE5C
:102660000120F1E730B52DED028B85B005462846F7
:1026700020F070FF044620E0641C2169084618F031
:102680003FFC41EC180B8DED028BA068E168CDE9B1
:10269000000120686168641E41EC100B53EC102BA4
:1026A000DCA01CF0A1FDDA490968096A00231A467A
:1026B000486821460FF089FC5A34284620F046FF2E
:1026C000A042D9D105B0BDEC028B30BD9FEDDB0A35
:1026D00010EE101A40F8151F00218180C180017290
:1026E000417464214182017D21F00F010175017D5A
:1026F00021F0F00101751538002108E0002300F1F8
:102700002A025354103202EB41021380491C102953
:10271000F4DB70472DE9F0432DED0C8B99B00446A6
:102720008846B0EE408AF0EE608A164618A800BFD0
:1027300000BF00BF00BF00BF002121606160A16039
:1027400000BF00BF304618F09EFB41EC1A0B53EC63
:102750001A2B9FEDBB0B51EC100B18F025FB41EC35
:10276000190B002088F800004146204620F0F6FEB4
:10277000012574E0A5F10109204620F0EBFEC9EB2C
:10278000091101EB410100EB4100074601A8FFF7E9
:102790009DFFE8B28DF80400284618F074FB53EC56
:1027A000192B18F08FFA41EC1C0BB0EE4C0AF0EE2E
:1027B0006C0A1DF025FBB0EE40BAF0EE60BA53ECA7
:1027C000182B51EC1B0B18F07DFA41EC1A0B57F843
:1027D000010F796841EC100B53EC102B51EC1A0BE4
:1027E00018F0C9F9CDF80500CDF80910284618F001
:1027F0004AFB53EC192B18F065FA41EC1C0BB0EEB8
:102800004C0AF0EE6C0A1DF06BFBB0EE40BAF0EE35
:1028100060BA53EC182B51EC1B0B18F053FA41EC37
:102820001A0BB868F96841EC100B53EC102B51EC03
:102830001A0B18F0A0F9CDF80D00CDF81110386979
:1028400000EE100AF7EE000A30EE200A10EE100A31
:10285000CDF8150001A9204620F080FE6D1CB54280
:1028600088DB88F800604146204620F077FE19B0EA
:10287000BDEC0C8BBDE8F08330B52DED068BABB015
:1028800005460C46B0EE409AF0EE609AB0EE418AF2
:102890004FF4FA5002F082FD14A8FFF717FF5C48CE
:1028A00000680CF02DFB6849884232D05848006817
:1028B000416801A81EF04CFD182201A90EA819F0CC
:1028C0007BFEDDE91001CDF85100CDF85510DDE9B2
:1028D0000E01CDF85900CDF85D1018EE100ACDF8B4
:1028E000610018EE100A18F00BFB41EC1A0B8DED8D
:1028F00002AB9DED0E0B8DED000B9DED101BB0EEB0
:10290000410AF0EE610A53EC102B50A01CF06CFC55
:1029100031E03F4800688168684608F01FFF1C22CC
:10292000694607A819F048FEDDE90701CDF8510016
:10293000CDF85510DDE90901CDF85900CDF85D104D
:1029400018EE100ACDF8610018EE100A18F0D8FA47
:1029500041EC1A0B8DED02AB9DED090B8DED000BDB
:102960009DED071BB0EE410AF0EE610A53EC102B0F
:1029700036A01CF039FC2246B0EE490AF0EE690A96
:1029800014A92846FFF7C6FE2BB0BDEC068B30BD60
:10299000B2EE040A10EE101AC01C40F8021CB1EE90
:1029A000040A10EE101AC0F80210002181710121F2
:1029B000C171002101724172012181720021C17235
:1029C0009FED2C0B52EC101BC16002619FED290B97
:1029D00052EC101B416182619FED180A10EE101A33
:1029E000C161C01E7047F0B52DED048B97B0054650
:1029F000074800680CF084FA1349884246D004481E
:102A00000068FFF709FE00B938E03FE03C3D0208EE
:102A100008000020576179706F696E7420637265D9
:102A20006174656420617420284C4C41293A20254A
:102A30006620092566200925660A2000000000009E
:102A4000182D4454FB211940000A01035761797085
:102A50006F696E74206372656174656420617420AF
:102A6000284C4C41293A2025662009256620092555
:102A7000660A00000000000000000000EDA01CF04D
:102A8000B3FB002017B0BDEC048BF0BD0AA8FFF724
:102A90007FFF681CC0B28DF828009FEDEE9BB2EE60
:102AA000048A0AA80090ED48006801230022016A08
:102AB00002A80AF0FEFE4FF4FA7002F06FFCE7493C
:102AC0000968086A0AF0FAFFE5A01CF08DFBB0EE79
:102AD000481AB0EE490AF0EE690A294607A8FFF73E
:102AE000CBFEE8A01CF080FB07A8FFF7BBFDEBA026
:102AF0001CF07AFBD9490968096A4868D74909680E
:102B0000096A4968096800228B68114698474FF4A2
:102B1000FA7002F043FCE7A01CF066FBCF4909689D
:102B2000486801210BF07EFF40F6B83002F036FC19
:102B300007AC204620F00AFD0646204620F00AFD9C
:102B4000074632463946204620F044FC2168A068FA
:102B5000401A5A2190FBF1F632462046216820F0B7
:102B6000B8F900BF01208DE710B52DED068B96B0AA
:102B70000446BA4800680CF0C3F9D54988420CD025
:102B8000B6480068FFF748FD38B9AAA01CF02CFB36
:102B9000002016B0BDEC068B10BD00200090AF48A1
:102BA000006801231A46016A02A80AF082FEAB49B6
:102BB0000968086A0AF082FFA84800680CF0A0F9CA
:102BC000C349884226D0A5480068416801A81EF084
:102BD000BFFB182201A910A819F0EEFC204618F03E
:102BE00052F941EC180B9DED122BB0EE421AF0EEAB
:102BF000621A9DED102BB0EE420AF0EE620A974980
:102C00000968096AB0EE482AF0EE682A88680AF076
:102C1000B5FA25E0914800688168684608F09EFD95
:102C20001C22694609A819F0C7FC204618F02BF9A8
:102C300041EC180B9DED092BB0EE421AF0EE621A32
:102C40009DED0B2BB0EE420AF0EE620A8349096853
:102C5000096AB0EE482AF0EE682A88680AF08EFA0F
:102C600000F09EF99BA01CF0BFFA7C490968096A34
:102C700088687A490968096A8968096800228B6846
:102C8000114698474FF4FA7002F088FB4FF47A60CF
:102C900002F084FB9AA01CF0A7FA70490968096A3F
:102CA00088686E490968096A8968096800228B6921
:102CB0001146984741F2883002F070FB94A01CF056
:102CC00093FA66490968096A886864490968096A63
:102CD0008968096800220B6A114698474FF47A60A8
:102CE00002F05CFB204618F0CEF841EC190B9FED8A
:102CF0008A0B53EC102B17F0E5FF41EC180B53EC4B
:102D0000182B87A01CF070FA204618F0BCF841EC94
:102D10001A0B9FED810B53EC102B17F0D3FF41ECF6
:102D2000190B18F031F908EE100A4C490968096AC4
:102D3000002288681146B0EE480A09F0F8FF42F216
:102D4000107002F02BFB81A01CF04EFA01208DF8D0
:102D50001C00B1EE040A10EE100ACDF81D003F4928
:102D60000968096A00231A46886807A909F03AFF2A
:102D700042F2107002F012FB44F6206002F00EFBEB
:102D80007FA01CF031FA35490968096A886833491F
:102D90000968096A8968096800220B691146984721
:102DA0004FF47A7002F0FAFA77A01CF01DFA2B4863
:102DB00000680CF0A5F84649884209D027490968FF
:102DC000486801210BF02EFE40F6B83002F0E6FA1A
:102DD00000F0ACFADDE610B500230A220121032041
:102DE0000EF0C8FA6A490860062324220221032053
:102DF0000EF0C0FA674908606748007800F00100EB
:102E0000002815D164481CF03DFB002810D00C2090
:102E10001CF0C4F9041E05D0002120460FF084FBED
:102E2000044600E000205D4908605B48AFF3008085
:102E300010BD00004661696C656420746F20736585
:102E40007420757020537562736372697074696F52
:102E50006E210A008DEDB5A0F7C6B03E0800002037
:102E6000496E697469616C697A696E672057617926
:102E7000706F696E74204D697373696F6E2E2E0AC0
:102E8000000000004372656174696E6720576179C4
:102E9000706F696E74732E2E0A00000055706C6F8F
:102EA0006164696E6720576179706F696E74732E03
:102EB0002E0A00005374617274696E67205761793D
:102EC000706F696E74204D697373696F6E2E0A009E
:102ED000000A010353746172742077697468206476
:102EE000656661756C7420726F746174696F6E20B1
:102EF000726174653A203135206465672F73000074
:102F0000506175736520666F722035730A0000008A
:102F1000526573756D650A00000000000000F83FFF
:102F20005570646174652072616469757320746F93
:102F300020312E35783A206E65772072616469758C
:102F400073203D2025302E33660A000055706461E1
:102F5000746520686F74706F696E7420726F74612D
:102F600074696F6E20726174653A206E65772072A5
:102F7000617465203D2035206465672F730A000069
:102F800053746F700A0000004C616E640A00000008
:102F9000B8000020BC000020F4050020F805002047
:102FA0002DE9F04F2DED048B99B0FA4800680BF035
:102FB000A7FFF949884229D0002018904FF00A0B4A
:102FC000F648006814900220139000201290129886
:102FD000F049CDE9000B096814AB4868139A1899B9
:102FE0000BF0CAF91190119828B9119819B0BDECDD
:102FF000048BBDE8F08FE7490968486818990BF021
:103000000DFB4FF4FA7002F0C9F900BFE1490968FD
:103010000022C868114609F09CF84FF4FA7002F0DB
:10302000BDF943F698244FF4FA7500270020179055
:1030300016901590D7490968086811F07FFE804600
:103040000068C16840468847061900BF4FF4FA601F
:1030500002F0A4F9CF4800680BF052FFCE49884235
:1030600010D0CC49096848681EF0C2FA012820D166
:10307000C849096848681EF005FB292819D10120B4
:10308000179023E0C3490968886808F071FC139021
:103090009DF84C00022809D0BE490968886808F0EC
:1030A00067FC14909DF85000032802D1012017906E
:1030B0000CE0B8490968086811F040FE83460068D2
:1030C000C168584688474719B742BFD300BF179811
:1030D000A0B9B3A01CF088F8AE4800680BF010FF50
:1030E000AD49884208D0AB490968486818990BF087
:1030F00099FC322002F052F9002077E7B3A01CF0CF
:1031000073F8A4490968086811F018FE8146006840
:10311000C16848468847061900BF4FF4FA6002F0BC
:103120003DF99C4800680BF0EBFE9B49884217D0A4
:103130009849096848681EF05BFA02281DD1954934
:10314000096848681EF09EFA0A2806D09149096865
:1031500048681EF097FA0B280FD10120169019E04D
:103160008C490968886808F003FC14909DF85000A9
:10317000032802D1012016900CE0864909680868EE
:1031800011F0DCFD83460068C1685846884747193E
:10319000B742C2D300BF1698A8B992481CF024F8D1
:1031A0007C4800680BF0ACFE7B49884209D0794925
:1031B0000968486818990BF035FC4FF4FA7002F072
:1031C000EDF8002012E788A01CF00EF8714909689C
:1031D000086811F0B3FD82460068C1685046884710
:1031E00006196C4800680BF08BFE6B49884223D0AF
:1031F00000BF4FF4FA6002F0D1F8664909684868E8
:103200001EF040FA0A2806D16249096848681EF093
:1032100039FA0B2802D0012015900CE05D490968AD
:10322000086811F08BFD83460068C16858468847DE
:103230004719B742DDD300BF564800680BF060FE67
:103240005549884220D05349096848681EF01AFA47
:10325000062806D14F49096848681EF013FA01286C
:1032600003D067A01BF0C0FF4DE06B481BF0BCFF14
:1032700048490968486818990BF0D4FB4FF4FA7074
:1032800002F08CF80020B1E642480068816807A887
:1032900008F064FA00BF40F6B83002F07FF83D480D
:1032A00000688168684608F059FA1C2269460EA831
:1032B00019F082F9DDED120A9DED0B1A30EEC10A0C
:1032C000B0EEC08A00BF9DED120A8DED0B0A18EE1C
:1032D000100A17F015FE41EC190B9FED500B53EC43
:1032E000102B17F039FED6D99DED120A10EE101AE8
:1032F000084617F005FE41EC190B53EC192B49A0B9
:103300001BF072FF00BF234800680BF0F9FD224953
:10331000884209D01F490968486818990BF082FB58
:1033200040F6B83002F03AF801205FE62DE9F04FA0
:1033300093B047F230544FF4FA754FF0000A002072
:103340001290119010900F900A200E901148006872
:103350000BF0D6FD104988427FD01048001D006850
:103360000D9002200C904FF0000B0E9880B209498E
:10337000CDE900B009680DAB48680C9A0F990AF0C6
:10338000FBFF8146B9F1000F5CD1484613B0BDE8A0
:10339000F08F62E008000020000A0103403D0208AF
:1033A00054616B656F6666206661696C65642E208A
:1033B0004D6F746F7273206661696C656420746F01
:1033C000207374617274210A000000000A5375634F
:1033D0006365737366756C2074616B656F666621D7
:1033E0000A000000AC5E020856656869636C6520DF
:1033F000617363656E64696E672E2E2E0A0000008D
:1034000056656869636C6520697320686F766572BC
:10341000696E670A00000000FC5D02083BDF4F8D0B
:10342000976E823F416972637261667420686F763D
:103430006572696E6720617420252E35666D2120C6
:103440000A000000FE49096848680F990BF0E6F889
:103450004FF4FA7001F0A2FF00BFF9490968002299
:10346000C868114608F0F3FE4FF4FA7001F096FFB9
:10347000F3490968086811F061FC07460068C168F3
:1034800038468847061900BF4FF4FA6001F086FFFE
:10349000EB4800680BF034FDEA49884209D0E8495E
:1034A000096848681EF0EEF80C280FD10120129030
:1034B0001AE0E3490968886808F05AFA0D909DF807
:1034C0003400042802D0012012900DE0DC49096884
:1034D000086811F033FC81460068C1684846884797
:1034E00010EB050AB245CFD300BF1298B8B9D6A0E9
:1034F0001BF07AFED24800680BF002FDD1498842E9
:1035000009D0CF49096848680F990BF08BFA4FF43E
:10351000FA7001F043FF002013B0BDE8F08FD6A091
:103520001BF062FEC6490968086811F007FC804676
:103530000068C16840468847061900BF4FF4FA602A
:1035400001F02CFFBE4800680BF0DAFCBD49884250
:103550001ED0BB49096848681EF094F80C2846D074
:10356000B749096848681EF043F802283FD0B449BB
:10357000096848681EF086F8062806D1B04909682F
:1035800048681EF07FF8012831D0012011903CE0FE
:10359000AB490968886808F0EBF90D909DF8340094
:1035A000052803D1642001F0F9FE20E000BF4FF4AC
:1035B000FA6001F0F3FEA24800688168684608F0EE
:1035C000CDF81C22694607A818F0F6FF9DED0B0AFE
:1035D000B5EEC00AF1EE10FAE9D19DED0B0AB5EE99
:1035E000C00AF1EE10FA01D10120119000BF9449F8
:1035F0000968086811F0A2FB81460068C168484666
:10360000884710EB050AB24598D300BF119818B14E
:103610009EA01BF0E9FD15E0A2481BF0E5FD8848DF
:1036200000680BF06DFC8749884209D0844909681D
:1036300048680F990BF0F6F94FF4FA7001F0AEFEFE
:10364000002069E77E4800680BF05AFC7D498842FB
:1036500009D07B49096848680F990BF0E3F940F6F7
:10366000B83001F09BFE012056E72DE9F05F2DED0B
:103670000A8B83460E4614461D46714800680BF0BF
:103680003FFC7049884250D02746A9464D46D9F89C
:103690000000D9F8041041EC100B3C4638687968FA
:1036A00053EC102B17F008FB41EC180BD9F808006D
:1036B000D9F80C1041EC100BB868F96853EC102BDA
:1036C00017F0FAFA41EC190B9FED770B53EC102B26
:1036D00051EC190B17F0F6FA17F056FC3060B86889
:1036E000F96841EC100B1CF08BFBB0EE40BAF0EE29
:1036F00060BA9FED6D0B53EC102B51EC180B17F0CB
:10370000E1FA53EC1B2B17F0DDFA17F03DFC70606B
:10371000386900EE100AD9F8100000EE900A30EE79
:10372000600A10EE100AB06056E0A046AA46554660
:10373000DAF80800DAF80C1041EC100B4446D8F81F
:103740000800D8F80C1053EC102B17F0B5FA41EC28
:10375000180BDAF80000DAF8041041EC100BD8F876
:103760000000D8F8041053EC102B17F0A5FA41EC28
:10377000190B9FED4D0B53EC102B51EC190B17F05F
:10378000A1FA17F001FC3060D8F80000D8F8041056
:1037900041EC100B1CF034FBB0EE40BAF0EE60BA16
:1037A0009FED410B53EC102B51EC180B17F08AFADC
:1037B00053EC1B2B17F086FA17F0E6FB7060D8F875
:1037C000100000EE100ADAF8100000EE900A30EE59
:1037D000600A10EE100AB060BDEC0A8BBDE8F09FE5
:1037E00030B52DED108B85B004462546A86800EE57
:1037F000100A20EE000A10EE101A084617F080FB9F
:1038000041EC190BE86800EE100A20EE000A10EEF9
:10381000101A084617F074FB41EC1F0B53EC192BE0
:1038200017F0A9F941EC1E0B9FED210B53EC102B67
:1038300017F048FA41EC1D0B9FED1F0B40E0000014
:1038400008000020000A01034C616E64696E672065
:103850006661696C65642E20416972637261667489
:10386000206973207374696C6C20696E20746865BC
:10387000206169722E0A000056656869636C6520D4
:103880006C616E64696E672E2E2E0A005375636339
:1038900065737366756C206C616E64696E67210A6E
:1038A00000000000545E020800000040A654584189
:1038B00000000000000000C0000000000000F03F19
:1038C00053EC102B17F057F941EC1A0B686800EE17
:1038D000100AA86800EE900A20EE201A286800EE70
:1038E000100AE86800EE900A00EE201A11EE101A95
:1038F000084617F005FB41EC1D0B9FEDFE0B53EC4A
:10390000102B17F0DFF941EC1B0B686800EE100A72
:10391000E86800EE900A20EE201A286800EE100AEF
:10392000A86800EE900A00EE601A11EE101A084620
:1039300017F0E6FA41EC1D0B1FED230B53EC102B97
:1039400017F0C0F941EC180BA86800EE100AE868FF
:1039500000EE900A20EE201A286800EE100A68682F
:1039600000EE900A00EE201A11EE101A084617F029
:10397000C7FA41EC1D0B9FEDDF0B53EC102B17F03A
:10398000A1F941EC1C0B686800EE100A20EE000A59
:1039900010EE101A084617F0B3FA41EC1F0B53EC67
:1039A000192B17F0E8F841EC1E0B1FED3F0B53EC01
:1039B000102B17F087F941EC1D0B1FED410B53EC59
:1039C000102B17F0D8F8CDE900011FED450B53EC93
:1039D000102B51EC180B17F0BFFA02D21FED4A0B57
:1039E00003E0B0EE480AF0EE680AB0EE408AF0EE6E
:1039F000608A9FEDC20B53EC102B51EC180B17F0A3
:103A000093FA02D29FEDBD0B03E0B0EE480AF0EE50
:103A1000680AB0EE408AF0EE608AB0EE480AF0EE36
:103A2000680A1BF0D9FDB0EE40DAF0EE60DA51EC36
:103A30001D0B17F0A9FA02909DED001BB0EE4C0A89
:103A4000F0EE6C0A1CF0E4F8B0EE40DAF0EE60DA6A
:103A500051EC1D0B17F098FA0390B0EE4A1AF0EEF5
:103A60006A1AB0EE4B0AF0EE6B0A1CF0D1F8B0EE19
:103A700040DAF0EE60DA51EC1D0B17F085FA049095
:103A80009DED020ADDED030A9DED041A05B0BDECC3
:103A9000108B30BD2DE9F04F2DED060B2DED108B69
:103AA000B7B0B0EE408AF0EE608AB0EE419AF0EE28
:103AB00061FAF0EE429A93483590322034904FF4F8
:103AC0007A71349891FBF0F505EB85004000339056
:103AD000322005FB00FA00203290322031908A48D3
:103AE00000680BF00DFA894988422DD0884800689B
:103AF00006900220059000200490319880B204992D
:103B0000CDE900108049096806AB4868059A3299EA
:103B10000AF032FC8346BBF1000F06D1584637B09D
:103B2000BDEC108B06B0BDE8F08F77490968486896
:103B300032990AF073FD4FF4FA7001F02FFC4FF444
:103B4000FA5001F02BFC00BF6F4800680BF0D8F969
:103B50006E49884217D06C480068416801A81DF082
:103B6000F7FB182201A92BA818F026FD18222BA973
:103B700025A818F021FD25AB2BAA14A962480068DE
:103B8000FFF773FD16E0604800688168684607F03B
:103B9000E5FD1C2269461EA818F00EFD1C221EA978
:103BA00017A818F009FD17AB1EAA14A956480068FB
:103BB000FFF75BFD9DED140A38EE400A10EE101A77
:103BC000084617F09DF941EC1C0B9DED150A38EEE7
:103BD000C00A10EE101A084617F092F941EC1D0BBE
:103BE0009DED160AB1EE400A39EE400A10EE101AA9
:103BF000084617F085F9CDE912011FEE900A17F07B
:103C00007FF99FED440B53EC102BCDE904019DEDA2
:103C1000040B51EC100B17F055F841EC1A0B4C98B3
:103C200017F06EF99FED3B0B53EC102BCDE904011F
:103C30009DED040B51EC100B17F044F841EC1E0BFA
:103C4000314800680BF05CF9304988422BD02E498E
:103C5000096848681DF022FB8DED0E0ACDED0F0AB4
:103C60008DED101ACDED111A0EA8FFF7B9FD8DEDEF
:103C7000040ACDED050A8DED061A9DED060A10EE3B
:103C8000101A084617F03CF99FED220B53EC102B4D
:103C9000CDE902019DED020B51EC100B17F084F8F9
:103CA00041EC1B0B40E018490968886807F07BFC71
:103CB0008DED0A0ACDED0B0A8DED0C1ACDED0D1A26
:103CC0000AA8FFF78DFD8DED040ACDED050A8DEDF7
:103CD000061A9DED060A10EE101A084617F010F9A4
:103CE0009FED0C0B53EC102BCDE902019DED020B67
:103CF00014E0000000000000000000400000000090
:103D00000000F0BFA086010008000020000A0103A7
:103D1000483D020811DD52A246DF913F51EC100BE5
:103D200017F042F841EC1B0B00270026B046B146C5
:103D300002249FEDFE0A8DED070AFD4800680BF096
:103D4000DFF8FC49884203D19FEDFB0A8DED070A9D
:103D5000B5EEC08AF1EE10FA12DD00EE104AB8EEB0
:103D6000C00AB4EEC08AF1EE10FA02D2B0EE480AF0
:103D700003E000EE104AB8EEC00A8DED090A1DE01E
:103D8000B5EEC08AF1EE10FA14D2604200EE100ACD
:103D9000B8EEC00AB4EEC80AF1EE10FA02D2B0EEE4
:103DA000480A04E0604200EE100AB8EEC00A8DED49
:103DB000090A03E09FEDE10A8DED090AF5EEC08ADC
:103DC000F1EE10FA12DD00EE104AB8EEC00AF4EE81
:103DD000C08AF1EE10FA02D2B0EE680A03E000EEFB
:103DE000104AB8EEC00A8DED080A1DE0F5EEC08A53
:103DF000F1EE10FA14D2604200EE100AB8EEC00ADA
:103E0000B4EEE80AF1EE10FA02D2B0EE680A04E06D
:103E1000604200EE100AB8EEC00A8DED080A03E019
:103E20009FEDC60A8DED080AC14800680BF068F8DE
:103E3000C049884204D09DED2F0A30EE09FA03E014
:103E40009DED220A30EE09FAB0E11FED4E0B53EC66
:103E5000102B51EC1A0B16F0A7FFCDE904019DEDD4
:103E6000040B51EC100B17F08FF8B149069009685C
:103E7000C868DDED061AB0EE4F1ADDED080A9DEDBB
:103E8000090A08F07AFAA8B201F088FA2F44A84883
:103E900000680BF035F8A749884231D0A449096879
:103EA00048681DF0FBF98DED0E0ACDED0F0A8DED82
:103EB000101ACDED111A0EA8FFF792FC8DED040A31
:103EC000CDED050A8DED061A9DED060A10EE101ACD
:103ED000084617F015F841EC1B0B9548006841683F
:103EE00001A81DF035FA182201A92BA818F064FBCF
:103EF00025AB2BAA14A98E480068FFF7B6FB30E06B
:103F00008B490968886807F04EFB8DED0A0ACDEDF4
:103F10000B0A8DED0C1ACDED0D1A0AA8FFF760FC07
:103F20008DED040ACDED050A8DED061A9DED060A0C
:103F300010EE101A084616F0E3FF41EC1B0B7C480C
:103F400000688168684607F009FC1C2269461EA8C3
:103F500018F032FB17AB1EAA14A975480068FFF7CA
:103F600084FB9DED140A38EE400A10EE101A084644
:103F700016F0C6FF41EC1C0B9DED150A38EEC00A89
:103F800010EE101A084616F0BBFF41EC1D0B9DED1C
:103F9000160AB1EE400A39EE400A10EE101A084631
:103FA00016F0AEFFCDE91201204616F06CFFB0EE20
:103FB0004C0AF0EE6C0ACDE904011BF0D3F88DED4C
:103FC000020B9DED040B53EC102B9DED020B51ECFD
:103FD000100B16F0A9FF04D251EC1C0B16F0D4FF05
:103FE0000990204616F04FFFB0EE4D0AF0EE6D0A34
:103FF000CDE904011BF0B6F88DED020B9DED040B2D
:1040000053EC102B9DED020B51EC100B16F08CFFB6
:1040100004D251EC1D0B16F0B7FF0890444800681D
:104020000AF06EFF434988424AD119EE900A16F011
:1040300067FFB0EE4C0AF0EE6C0ACDE904011BF00C
:1040400091F88DED020B9DED040B53EC102B9DEDC3
:10405000020B51EC100B16F067FF31D219EE900AEB
:1040600016F04EFFB0EE4D0AF0EE6D0ACDE90401F8
:104070001BF078F88DED020B9DED040B53EC102B2B
:104080009DED020B51EC100B16F04EFF18D253ECC5
:104090001A2B51EC1B0B16F00FFECDE902019DED22
:1040A000020B1BF05FF88DED040B53EC1E2B9DED06
:1040B000040B51EC100B16F037FF01D22E446DE0CB
:1040C00019EE900A16F01CFFB0EE4C0AF0EE6C0AE6
:1040D000CDE904011BF046F88DED020B9DED040BBC
:1040E00053EC102B9DED020B51EC100B16F01CFF46
:1040F00052D219EE900A16F003FFB0EE4D0AF0EE20
:104100006D0ACDE904011BF02DF88DED020B9DED3C
:10411000040B53EC102B9DED020B51EC100B16F021
:1041200003FF39D2079816F0EBFE09E08FC2F53D88
:1041300008000020000A01039A99993F000000003E
:10414000CDE904019DED120B1BF00CF88DED020B77
:104150009DED040B53EC102B9DED020B51EC100B5D
:1041600016F0E2FE18D253EC1A2B51EC1B0B16F092
:10417000A3FDCDE902019DED020B1AF0F3FF8DEDD9
:10418000040B53EC1E2B9DED040B51EC100B16F0A1
:10419000CBFE01D22E4401E006B1A84433988045FD
:1041A00001DD0026B046564500DB03E03598874226
:1041B000FFF64BAE00BF4E4800680AF0A1FE4D4925
:1041C00088420BD008E04A490968C86808F0C9F974
:1041D000A8B201F0E3F8A944D145F4DB3598874251
:1041E00016DB45A01BF000F8414800680AF088FE85
:1041F0004049884209D03E490968486832990AF026
:1042000011FC4FF4FA7001F0C9F83F48007886E4D9
:10421000374800680AF074FE3649884209D03449AC
:104220000968486832990AF0FDFB40F6B83001F0A1
:10423000B5F83648007872E42DE9F047054642F2B9
:1042400010774FF032084FF47A7090FBF8F404EBDB
:1042500084004FEA4009322004FB00FA002612E0F5
:10426000234909685FED4B1A1FED4C1A5FED4D0AAB
:1042700000EE105AB8EEC00AC86808F0A7F8A0B25D
:1042800001F08CF82644BE42EADB20480078BDE805
:10429000F08710B500230A22012103200DF06AF8EF
:1042A0001B49086006232422022103200DF062F836
:1042B000184908601848007800F00100002815D15E
:1042C00015481BF0DFF8002810D00C201AF066FF0C
:1042D000041E05D0002120460EF026F9044600E019
:1042E00000200E4908600C48AFF3008010BD0000AC
:1042F00008000020000A01035461736B2074696D8B
:10430000656F7574210A00004F3D02084E3D02089A
:10431000C4000020C8000020F4050020F80500209B
:1043200010B52DED068B84B0044694ED020A10EE14
:10433000101A084616F0E4FD41EC180B94ED010A42
:1043400010EE101A084616F0DBFD41EC190B94ED47
:10435000000A10EE101A084616F0D2FD41EC1A0BB6
:104360008DED028B8DED009B53EC1A2BFEA01AF005
:104370003BFF04B0BDEC068B10BD1CB5044694EDAC
:10438000000ABDEEC00A10EE100A00B2ADF802003D
:1043900094ED010ABDEEC00A10EE100A00B2ADF8AD
:1043A000040094ED020ABDEEC00A10EE100A00B23D
:1043B000ADF80000207B8DF807009DF806008DF811
:1043C00006009DF80600217C0843C0B28DF8060067
:1043D0009DF80600217D40EA4100C0B28DF806003C
:1043E0009DF80600A17D40EA8100C0B28DF806006C
:1043F0009DF80600617D40EAC100C0B28DF806005C
:10440000E74909684869694608F0A1F94FF47A60FC
:1044100000F0C4FF1CBD00B5B5B0002022909FED98
:10442000E11ADFEDE00A9FEDDF0A2FA818F094FCF7
:104430009FEDDC1ADFEDDB0A9FEDDA0A099032A866
:1044400018F08AFC089000200190029003900490DC
:1044500000900998D0ED022A90ED012AD0ED001AC3
:10446000089890ED021AD0ED010A90ED000A0023A1
:104470001A46194616A818F076FC9FEDCA1ADFED09
:10448000C90A9FEDC80A13A818F066FC9FEDC51A6B
:10449000DFEDC40A9FEDC30A10A818F05DFC0020F0
:1044A0000D900A200C90BE4800680AF029FDBE4914
:1044B00088422AD0BD480068099002200890002058
:1044C00007900C9880B20799CDE90010B4480068B5
:1044D000406809AB0590089A0D9909F04DFF0690C8
:1044E000069810B9069835B000BDAD480068406820
:1044F00005900D990AF092F84FF4FA7000F04EFF13
:104500004FF4FA6000F04AFF00BFA9481AF06CFEB1
:10451000A34800680AF0F4FCA349884230D0A048C0
:104520000068406806901CF0C3FF8DED070ACDEDD2
:10453000080A8DED091A9DED080A8DED130A9848B9
:104540000068406806901CF0B3FF8DED070ACDEDC2
:10455000080A8DED091A9DED070A8DED140A9048A1
:104560000068406806901CF0A3FF8DED070ACDEDB2
:10457000080A8DED091A9DED090A8DED150A35E041
:104580008748006880680146019002A807F0C9F9D1
:1045900002A80FC8CDE90823CDE906019DED060A62
:1045A0008DED130A7E48006880680146019002A8DC
:1045B00007F0B7F902A80FC8CDE90823CDE9060135
:1045C0009DED070A8DED140A754800688068014664
:1045D000019002A807F0A5F902A80FC8CDE90823A9
:1045E000CDE906019DED080A8DED150A1598039099
:1045F00016F086FCCDE908011498039016F080FCB3
:10460000CDE906011398039016F07AFCCDE9040178
:10461000DDE90801CDE90201DDE90601CDE900018E
:104620009DED040B53EC102B62A01AF0DDFD9FED05
:104630005D1ADFED5C0A9FED5B0A2FA818F08CFB7A
:10464000099000200123CDE901300390049014204B
:1046500000900998D0ED022A90ED012AD0ED001AC1
:104660009DED151ADDED140A9DED130A00231A467F
:10467000194623A818F077FB30220146089016A8A7
:1046800017F09AFF16A8FFF778FE59481AF0ACFD0C
:10469000434800680AF034FC4349884230D040481F
:1046A0000068406806901CF003FF8DED070ACDED11
:1046B000080A8DED091A9DED080A8DED100A38489B
:1046C0000068406806901CF0F3FE8DED070ACDED02
:1046D000080A8DED091A9DED070A8DED110A304883
:1046E0000068406806901CF0E3FE8DED070ACDEDF2
:1046F000080A8DED091A9DED090A8DED120A7DE07B
:104700002748006880680146019002A807F009F96F
:1047100002A80FC8CDE90823CDE906019DED060AE0
:104720008DED100A1E48006880680146019002A8BD
:1047300007F0F7F802A80FC8CDE90823CDE9060174
:104740009DED070A8DED110A154800688068014645
:10475000019002A807F0E5F802A80FC8CDE90823E8
:10476000CDE9060146E000004E65772047696D629D
:10477000616C20726F746174696F6E20616E676C1A
:1047800065206973205B2025302E33662C20253070
:104790002E33662C2025302E3366205D0A0A000059
:1047A0000800002000000000000A01034C3D020840
:1047B000FC5E0208496E697469616C2047696D622C
:1047C000616C20726F746174696F6E20616E676CCA
:1047D000653A205B2025302E33662C2025302E3381
:1047E000662C2025302E3366205D0A0A000000006A
:1047F000A86002089DED080A8DED120A00200190C4
:1048000002900390049014200090DDED122A9DED9B
:10481000112ADDED101A9DED151ADDED140A9DED3E
:10482000130A4FF4E163C822002123A818F09BFA71
:1048300030220146099016A817F0BEFE16A8FFF711
:104840009CFDFE4800680AF05BFBFD49884230D0C1
:10485000FA480068406806901CF02AFE8DED070AB1
:10486000CDED080A8DED091A9DED080A8DED100AAF
:10487000F2480068406806901CF01AFE8DED070AA9
:10488000CDED080A8DED091A9DED070A8DED110A8F
:10489000EA480068406806901CF00AFE8DED070AA1
:1048A000CDED080A8DED091A9DED090A8DED120A6C
:1048B00035E0E248006880680146019002A807F0F0
:1048C00030F802A80FC8CDE90823CDE906019DED17
:1048D000060A8DED100AD9480068806801460190EB
:1048E00002A807F01EF802A80FC8CDE90823CDE9F9
:1048F00006019DED070A8DED110AD0480068806819
:104900000146019002A807F00CF802A80FC8CDE9F3
:104910000823CDE906019DED080A8DED120A10A8C5
:10492000FFF7FEFCC7A01AF05FFCCDA01AF05CFCFC
:10493000C24800680069099007F00EFACDA01AF08D
:1049400053FCD8481AF050FC1FED6A1A5FED6B0A51
:104950001FED6C0A2FA818F0FFF909900020012321
:10496000CDE9013003900490142000900998D0ED17
:10497000022A90ED012AD0ED001A9DED151ADDED09
:10498000140A9DED130A0023C74A194623A818F0FC
:10499000EAF930220146089016A817F00DFE16A875
:1049A000FFF7EBFCA54800680AF0AAFAA449884280
:1049B00030D0A2480068406806901CF079FD8DED6B
:1049C000070ACDED080A8DED091A9DED080A8DED57
:1049D000100A9A480068406806901CF069FD8DED49
:1049E000070ACDED080A8DED091A9DED070A8DED38
:1049F000110A92480068406806901CF059FD8DED40
:104A0000070ACDED080A8DED091A9DED090A8DED15
:104A1000120A35E08948006880680146019002A8C2
:104A200006F07FFF02A80FC8CDE90823CDE90601F3
:104A30009DED060A8DED100A8048006880680146E9
:104A4000019002A806F06DFF02A80FC8CDE9082367
:104A5000CDE906019DED070A8DED110A7748006842
:104A600080680146019002A806F05BFF02A80FC80B
:104A7000CDE90823CDE906019DED080A8DED120A66
:104A800010A8FFF74DFC6FA01AF0AEFB87A01AF03C
:104A9000ABFB6A4800680069099007F064F9884830
:104AA0001AF0A2FB87A01AF09FFB6420ADF83A0031
:104AB0003220ADF83C006FF0C700ADF838004FF47D
:104AC0007A600B9064200A90002009900FE05B4808
:104AD000006840690EA9089007F04FFE0A9880B25E
:104AE000089000F05BFCDDE90901084409900B998E
:104AF00009988842EBDB514800680AF001FA5049F6
:104B0000884230D04D480068406806901CF0D0FCC8
:104B10008DED070ACDED080A8DED091A9DED080A05
:104B20008DED100A45480068406806901CF0C0FCF6
:104B30008DED070ACDED080A8DED091A9DED070AE6
:104B40008DED110A3D480068406806901CF0B0FCED
:104B50008DED070ACDED080A8DED091A9DED090AC4
:104B60008DED120A35E035480068806801460190F5
:104B700002A806F0D6FE02A80FC8CDE90823CDE9A9
:104B800006019DED060A8DED100A2C48006880682C
:104B90000146019002A806F0C4FE02A80FC8CDE9A4
:104BA0000823CDE906019DED070A8DED110A234882
:104BB000006880680146019002A806F0B2FE02A8D3
:104BC0000FC8CDE90823CDE906019DED080A8DED5A
:104BD000120A10A8FFF7A4FB49A01AF005FB9FEDED
:104BE0004E1ADFED4D0A9FED4C0A2FA818F0B4F8CD
:104BF000099000200123CDE9013003900490142096
:104C000000900998D0ED022A90ED012AD0ED001A0B
:104C10009DED151ADDED140A9DED130A00231A46C9
:104C2000194623A818F09FF830220146089016A8CC
:104C300017F0C2FC16A8FFF7A0FB6FE008000020E9
:104C4000000A0103456E7375726520534420636149
:104C500072642069732070726573656E742E0A0029
:104C600054616B696E6720706963747572652E2E6E
:104C70000A000000436865636B20444A4920474F9F
:104C800020417070206F7220534420636172642051
:104C9000666F722061206E6577207069637475722B
:104CA000652E0A005C6002080CFEFFFF53746172FF
:104CB00074696E6720766964656F2E2E0A000000A5
:104CC000945F020853657474696E6720526F6C6C50
:104CD000207261746520746F2031302C205069740B
:104CE0006368207261746520746F20352C205961CF
:104CF00077205261746520746F202D32302E0A00A7
:104D0000526573657474696E6720706F7369746936
:104D10006F6E2E2E2E0A000000000000634800680F
:104D20000AF0EEF86249884230D060480068406876
:104D300006901CF0BDFB8DED070ACDED080A8DED48
:104D4000091A9DED080A8DED100A58480068406860
:104D500006901CF0ADFB8DED070ACDED080A8DED38
:104D6000091A9DED070A8DED110A50480068406848
:104D700006901CF09DFB8DED070ACDED080A8DED28
:104D8000091A9DED090A8DED120A39E047480068BD
:104D900080680146019002A806F0C3FD03A80DC873
:104DA0000299CDE90823CDE906109DED060A8DEDA7
:104DB000100A3E48006880680146019002A806F08B
:104DC000B0FD02A90EC90598CDE907230691099007
:104DD0009DED070A8DED110A344800688068014690
:104DE000019002A806F09DFDDDE90403DDE9021251
:104DF000CDE90803CDE906129DED080A8DED120AF2
:104E000010A8FFF78DFA2BA01AF0EEF927480068DA
:104E10000069099006F0AEFF4FF47A7000F0BEFA18
:104E200029A01AF0E1F9214800680AF069F8204940
:104E300088420AD01D480068406809900D9909F021
:104E4000F1FD40F6B83000F0A9FA0120FFF74BBBA6
:104E500010B500230A22012103200CF08BFA264909
:104E6000086006232422022103200CF083FA234940
:104E700008602348007800F00100002815D1204880
:104E80001AF000FB002810D00C201AF087F9041E3D
:104E900005D0002120460DF047FB044600E000202D
:104EA000184908601648AFF3008010BD08000020C4
:104EB000000A010353746F7070696E67207669642D
:104EC000656F2E2E2E0A0000436865636B20444AEE
:104ED0004920474F20417070206F72205344206357
:104EE00061726420666F722061206E65772076693A
:104EF00064656F2E0A000000D0000020D40000205E
:104F0000F4050020F805002000B52DED040B2DED73
:104F1000108B89B09DED1B0A20EE000A10EE101ACE
:104F2000084615F0EDFF41EC190B9DED1C0A20EE33
:104F3000000A10EE101A084615F0E2FF41EC1F0BB4
:104F400053EC192B15F017FE41EC1E0B9FEDA10B36
:104F500053EC102B15F0B6FE41EC1D0B9FED9F0B93
:104F600053EC102B15F007FE41EC1A0B9DED1A0ABD
:104F7000DDED1B0A20EE200ADDED190A9DED1C1A5D
:104F800000EE810A10EE101A084615F0B9FF41EC48
:104F90001D0B9FED940B53EC102B15F093FE41EC81
:104FA0001B0B9DED1A0ADDED1C0A20EE200ADDED3B
:104FB000190A9DED1B1A00EEC10A10EE101A0846E0
:104FC00015F09EFF41EC1D0B9FED820B53EC102B57
:104FD00015F078FE41EC180B9DED1B0ADDED1C0A67
:104FE00020EE200ADDED190A9DED1A1A00EE810A65
:104FF00010EE101A084615F083FF41EC1D0B9FEDD3
:10500000790B53EC102B15F05DFE41EC1C0B9DED64
:105010001A0A20EE000A10EE101A084615F070FF6A
:1050200041EC1F0B53EC192B15F0A5FD41EC1E0BA9
:105030009FED680B53EC102B15F044FE41EC1D0B5B
:105040009FED660B53EC102B15F095FDCDE900019B
:105050009FED620B53EC102B51EC180B15F07CFFFD
:1050600002D29FED5E0B03E0B0EE480AF0EE680A54
:10507000B0EE408AF0EE608A9FED5C0B53EC102B93
:1050800051EC180B15F050FF02D29FED580B03E0C6
:10509000B0EE480AF0EE680AB0EE408AF0EE608AA0
:1050A000B0EE480AF0EE680A1AF096FA8DED060B9B
:1050B0009DED001BB0EE4C0AF0EE6C0A1AF0A8FD54
:1050C0008DED040BB0EE4A1AF0EE6A1AB0EE4B0A00
:1050D000F0EE6B0A1AF09CFD8DED020B9DED020BBC
:1050E0009DED041B9DED062B09B0BDEC108B0FBD93
:1050F00000B52DED040B87B0DDED0A1A9DED091A00
:10510000DDED080A9DED070AFFF7FEFE8DED000BB1
:105110008DED021B8DED042B9DED000B0BB000BD42
:1051200000B52DED040B87B0DDED0A1A9DED091ACF
:10513000DDED080A9DED070AFFF7E6FE8DED000B99
:105140008DED021B8DED042B9DED020B0BB000BD10
:1051500000B52DED040B87B0DDED0A1A9DED091A9F
:10516000DDED080A9DED070AFFF7CEFE8DED000B81
:105170008DED021B8DED042B9DED040B0BB000BDDE
:1051800010B52DED048BB0EE408AF0EE608A9FEDF5
:10519000190B53EC102B51EC180B15F093FD41EC4F
:1051A000190BB0EE490AF0EE690ABDEC048B10BD94
:1051B00010B500230A22012103200CF0DBF80F496F
:1051C000086006232422022103200CF0D3F80C49A6
:1051D000086010BD00000000000000C000000000DA
:1051E0000000F03F00000000000000400000000050
:1051F0000000F0BFE8C35CB0DDA54C40DC0000203F
:10520000E000002010B500F09BF84FF4A06000F023
:10521000B5F912F088FD11F0B7FF10F09EFD10F007
:1052200015FF11F0C4FA00F044F910F079F811F00C
:1052300027FC10BD10B500230A22012103200CF029
:1052400099F80549086006232422022103200CF066
:1052500091F80249086010BDE8000020EC00002031
:105260001FB50121084601F0DAFE0121084601F0D0
:10527000D6FE0020ADF80C00ADF80600C720029065
:1052800042F2CF00ADF8040000208DF80E0001A915
:10529000534802F06CF819208DF8000003208DF8B7
:1052A00001008DF8020001208DF80300684600F02F
:1052B0006AF901214A4802F00FFD012211464848CF
:1052C00002F0F6FC0021464802F0DAF81FBD1FB5D7
:1052D0000121084601F092FE0121084601F08EFEF0
:1052E0000020ADF80C00ADF80600C7200290272082
:1052F00002904AF20F40ADF8040001A94FF080403F
:1053000002F035F81C208DF8000002208DF8010015
:1053100003208DF8020001208DF80300684600F09C
:1053200032F90121880702F0D7FC012211469007CB
:1053300002F0BEFC00214FF0804002F0A1F81FBD3A
:1053400030B5284800684FF47A72B0FBF2F1B1F141
:10535000807F01D301201DE021F07F40401E4FF0EF
:10536000E022506150170022002807DA13071D0EB3
:105370001D4B00F00F04241F1D5503E013071C0EE6
:105380001A4B1C5400BF00204FF0E0229061072010
:105390001061002008B100BFFEE730BD002106E02B
:1053A00047F2305100BF0A1EA1F10101FBD1021EDC
:1053B000A0F1010398B2F3D1704710B500230A227F
:1053C000012103200BF0D6FF09490860062324229F
:1053D000022103200BF0CEFF0649086010BD00003B
:1053E000000001402401002018ED00E000E400E08E
:1053F000F8000020FC00002000B587B0012108461D
:1054000001F0C9FD0121102001F009FE4FF4C06038
:10541000059002208DF818008DF8190000208DF8F5
:105420001A0001208DF81B0005A94C4801F0D0FAA4
:1054300007220921494801F056FB07220A21474863
:1054400001F051FB4FF4613001900020ADF80800ED
:10545000ADF80A00ADF80C00ADF810000C20ADF866
:105460000E0001A93E4802F08EFD012240F22551B6
:105470003B4802F0C6FE0121394802F00CFE00BF95
:105480008021374802F0E2FE0128F9D107B000BDC3
:1054900008B503208DF8010002208DF802002520B8
:1054A0008DF8000001208DF80300684600F06BF8CD
:1054B00008BD10B5FFF7A0FFFFF7EAFF10BD10B55C
:1054C000ADF51C7D2021264802F0C0FE01282FD119
:1054D000002024490870224802F00CFEC4B2224980
:1054E0000968086821490A6821460FF0A6FB20498F
:1054F00008700846007801281AD14FF498721B48AA
:1055000001680C31684617F057F84FF49E7217483F
:1055100001684DA817F050F813484DA90EC900684E
:105520000BF003FC00201249087001200D4908709F
:105530000DF51C7D10BD10B500230A2201210320AA
:105540000BF018FF0B4908600623242202210320D8
:105550000BF010FF0849086010BD00000000024079
:105560000010014004010020080000200400002079
:1055700001000020080100200C01002032490143F5
:10558000324A1160704770B5002100230F22C478A1
:105590001CB32E4C246804F4E064C4F5E064C4F346
:1055A0000721C1F10404E3B20A4144789C40E1B20E
:1055B0008478144021430C07210E254C0578615551
:1055C000047804F01F050124AC4005786D11AD008E
:1055D00005F1E025C5F8004109E0047804F01F0555
:1055E0000124AC401B4D0678761145F8264070BD6D
:1055F000194A0A400243154B1B1F1A60704739B104
:10560000124A121D12680243104B1B1D1A6006E05D
:105610000E4A121D126882430C4B1B1D1A60704704
:10562000042808D14FF0E021096941F004014FF04E
:10563000E022116107E04FF0E021096921F0040147
:105640004FF0E022116170470000FA050CED00E018
:1056500000E400E080E100E080FFFF1F10B5044699
:10566000FE48844209D10121480601F031FD0021A4
:105670004FF0007001F02CFD08E00121880601F0D8
:1056800027FD00214FF0806001F022FD10BD30B5F4
:10569000024600200023146824F0020414601468F9
:1056A00044F00104146000E05B1C546804F0010441
:1056B0001CB94FF6FF74A342F6D1546804F00104FC
:1056C0000CB900206CE08C79012C04D1146844F0F2
:1056D0008004146003E0146824F080041460CC7922
:1056E000012C04D1146844F04004146003E01468F1
:1056F00024F0400414600C7A012C04D1146844F0A6
:105700002004146003E0146824F0200414604C7A30
:10571000012C04D1146844F01004146003E01468F0
:1057200024F0100414608C7A012C04D1146844F025
:105730000804146003E0146824F008041460CC7AB0
:10574000012C04D1146844F00404146003E01468CC
:1057500024F0040414608C78A407CD7844EA05642E
:105760000D7944EA05444D7944EA05540D886D1ECF
:105770002C43D461146824F001041460002300E079
:105780005B1C546804F001041CB14FF6FF74A34283
:10579000F6D1546804F001040CB1002000E00120AF
:1057A00030BD10B50021837A012202FA03F1AC4A20
:1057B000126842F00102AA4B1A60A94A1C32126810
:1057C0008A43A74B1C331A60027BCAB9A44A0C3225
:1057D00012688A43A24B0C331A604288C38842EA9B
:1057E00003439F4A4032847A42F8343002888388E7
:1057F00042EA03439A4A4032847A02EBC40253607D
:10580000027B012A19D1964A0C3212680A43944B42
:105810000C331A604288038842EA0343904A4032BC
:10582000847A42F83430C288838842EA03438C4A3F
:105830004032847A02EBC4025360C27A3AB9884A91
:10584000121D12688A43864B1B1D1A6006E0844AAB
:10585000121D12680A43824B1B1D1A60028932B95D
:105860007F4A143212688A437D4B14331A600289CE
:10587000012A06D17A4A143212680A43784B14334B
:105880001A60427B012A06D1754A1C3212680A430B
:10589000734B1C331A60724A126822F00102704B7B
:1058A0001A6010BD00218171C17101724172817253
:1058B000C1728170C1700321017102214171012106
:1058C000018070476649096841F00101644A11602E
:1058D0001146096843F60E729143614A1160114600
:1058E000096841EA002111601146096821F00101AF
:1058F0001160704721B1026842F48032026003E017
:10590000026822F4803202607047E1B1026842F01E
:10591000800202604FF4C272125842F480734FF456
:10592000C27213504FF4CA72125842F480734FF48B
:10593000CA7213504FF4D272125842F480734FF46B
:10594000D27213501BE0026822F0800202604FF412
:10595000C272125822F480734FF4C27213504FF483
:10596000CA72125822F480734FF4CA7213504FF463
:10597000D272125822F480734FF4D27213507047CF
:1059800010B502460020936803F08063B3F1806F86
:1059900000D110E0936803F00063B3F1006F01D110
:1059A000012008E0936803F08053B3F1805F01D1D8
:1059B000022000E00420042879D002F5C07303EB34
:1059C00000131B6803F0010402F5C07303EB00131E
:1059D0001C600B7A7BB94B7A0C8843EA445302F57E
:1059E000C07404EB00142468234302F5C07404EB74
:1059F0000014236010E00B7A4C6843EAC4034C7A2D
:105A0000234302F5C07404EB00142468234302F519
:105A1000C07404EB001423608B7A03F00F038B72C5
:105A200002F5C07303EB00135B6823F00F0402F56B
:105A3000C07303EB00135C6002F5C07303EB00134B
:105A40005B688C7A234302F5C07404EB0014636036
:105A50008B7B1C064B7B44EA034403E0006400405C
:105A6000006600400B7B44EA0323CC7A234302F513
:105A7000C07404EB0014A3608B7C1C064B7C44EACE
:105A800003440B7C44EA0323CC7B234302F5C0741C
:105A900004EB0014E36002F5C07303EB00131B6812
:105AA00043F0010402F5C07303EB00131C6010BD4A
:105AB00010B50246002321B1012907D002290FD1D8
:105AC00009E09068F94C00EA04030BE09068F84C98
:105AD00000EA040306E09068F64C00EA040301E0E3
