:020000040800F2
:10000000D0BF0020BD840008C5840008C784000854
:10001000C9840008CB840008CD84000800000000DB
:10002000000000000000000000000000CF84000875
:10003000D184000800000000D38400081D5201088C
:10004000D7840008D7840008D7840008D784000824
:10005000D7840008D7840008D7840008D784000814
:10006000D7840008D7840008D7840008D784000804
:10007000D7840008D7840008D7840008D7840008F4
:10008000D7840008D7840008D7840008D7840008E4
:10009000C1630108D7840008D7840008D78400080A
:1000A000D7840008D7840008D7840008D7840008C4
:1000B000D7840008D7840008D7840008D7840008B4
:1000C000D7840008D7840008D7840008D7840008A4
:1000D000D78400085F5400089F860108A98601089C
:1000E000D7840008D7840008D7840008FD7E010863
:1000F000D784000899800108D7840008D7840008B5
:10010000D7840008D7840008D7840008D784000863
:10011000B3860108D7840008D7840008D784000874
:10012000D7840008D7840008D7840008D784000843
:10013000D7840008D7840008D7840008D784000833
:1001400075650108D7840008D7840008D7840008A3
:10015000D7840008D7840008D7840008BD8601082A
:10016000D7840008D7840008D7840008D784000803
:10017000D7840008D7840008D7840008D7840008F3
:10018000D7840008D7840008DFF814D01CF0BEF92B
:100190001AF0D8FE00480047F10700081BF0CDFE1A
:1001A000D0BF0020FEB442464B4654465D463EB4A6
:1001B0001AF027FC3EBC90469946A246AB46FEBCD0
:1001C00000F032F8704700BF80EC200B7047C0ECA5
:1001D000200B704790EC200B7047D0EC200B704741
:1001E00085460D98DDF838E00F9B5DF8042B20E97B
:1001F0000C009DE8FE1F854601BD4DF808ED0DF190
:10020000080E4DF804ED2DE9FF1F002102B46946E8
:1002100081B01CF0CEF8DDF840E012B0704700006D
:10022000CC6902005C7002004DF808ED0DF1080E7B
:100230004DF804ED2DE9FF1F002102B4694681B09D
:100240001CF01EB92DE9F0472DED048B4FF000098D
:100250009FEDF90A10EE105A9FEDF70A10EE106AA2
:100260009FEDF50A10EE107A9FEDF30A10EE108A5A
:100270009FEDF10AB0EE408AB6EE000AF0EE408A39
:10028000B6EE000AB0EE409AB3EE040AF0EE409AE1
:10029000EA480078042803D0BDEC048BBDE8F08761
:1002A000E748807D00B9F7E7E548007F48B9E348B3
:1002B000007A28B1E148007A20F00200DF49087294
:1002C000EAE718F061FDDF4801F008FADC488189AF
:1002D0000122DC4819F06EFADB490870D848018A1F
:1002E0000322D84819F066FAD7498871D448C189E1
:1002F0000222D44819F05EFAD349C870D048418A26
:100300000422D04819F056FACF494872002487E0F9
:1003100004EB4400CC49085C012813D104EB4400F1
:1003200008448078401E00EB4000085C032809D197
:10033000002104EB4400C44A10448078401E00EBC6
:100340004000115404EB4400BF49085C022813D15B
:1003500004EB440008448078401E00EB4000085C39
:10036000032809D1022104EB4400B74A10448078E5
:10037000401E00EB4000115404EB4400B249085CFD
:10038000032817D104EB440008448078401E00EB9A
:100390004000085C03280DD1022104EB4400AA4A66
:1003A00010448078401E00EB40001154022004EB02
:1003B0004401505404EB4400A349085C78BB04EBAF
:1003C000440008448078401E00EB4000085C03288D
:1003D00025D1611CC8B219F0A4F948B1002104EB81
:1003E0004400994A10448078401E00EB40001154AC
:1003F00093480A30611C30F811009149C98B88423A
:100400000DDA022104EB44008F4A10448078401E2C
:1004100000EB40001154022004EB44015054641CD2
:10042000042CFFF675AF88480078012806D101F04A
:100430006EFA10EE105A01208349087382488079C1
:10044000012807D1032001F062FA10EE105A0120B2
:100450007D4908737C48C078012807D1022001F04B
:10046000B8FA10EE106A0120774948737648407A4E
:10047000012807D1042001F0ACFA10EE106A012027
:100480007149487370480078022803D118EE105A59
:100490006D4908736C488079022805D1B1EE480A8D
:1004A00010EE105A684908736748C078022803D1D3
:1004B00018EE106A644948736348407A022805D1EF
:1004C000B1EE480A10EE106A5F4948735E48007842
:1004D000032805D1B1EE680A10EE105A5A49087384
:1004E00059488079032803D118EE905A5649087369
:1004F0005548C078032805D1B1EE680A10EE106A9D
:10050000514948735048407A032803D118EE906A45
:100510004D494873012019F004F970B9032019F00E
:1005200000F950B94848007B022806D19FED420AE5
:1005300010EE105A002044490873022019F0F1F817
:1005400070B9042019F0EDF850B93F48407B0228FB
:1005500006D19FED390A10EE106A00203A4948731F
:100560003948007B00281BDD3748407BC0B902209A
:1005700019F0D7F840B1022001F02BFA10EE106A02
:100580000420314948730BE0042019F0CAF838B14F
:10059000042001F01EFA10EE106A04202A49487364
:1005A0002948407B00281BDD2748007BC0B901207B
:1005B00019F0B7F840B1012001F0A9F910EE105A76
:1005C0000420214908730BE0032019F0AAF838B180
:1005D000032001F09CF910EE105A04201A49087308
:1005E0001948007B002803DC1748407B00283DDDCC
:1005F0004FF001091348B0F91C00B0F5FA7F02DD95
:1006000019EE107A0EE00F48B0F91C0010F5FA7FD1
:1006100004DAB1EE490A10EE107A03E09FED060A03
:1006200010EE107A0748B0F91E00B0F5FA7F0DDD24
:1006300019EE908A26E000000000000084000020EF
:10064000F03200202833002050330020FE48B0F95B
:100650001E0010F5FA7F04DAB1EE690A10EE108A76
:1006600010E01FED0B0A10EE108A0BE04FF00009AE
:10067000002405E0002004EB4401F44A5054641CBB
:10068000042CF7DB002409E004EB4400EF49085C8C
:1006900004EB4401ED4A11444870641C042CF3DB64
:1006A000B9F1000F0FD0EA48C0F80150C0F805605A
:1006B000C0F80970C0F80D80E648007A40F00200EA
:1006C000E44908722AE0E348007A28B1E148007A58
:1006D00020F00200DF490872DD48D0F8010000EE8A
:1006E000100AB5EEC00AF1EE10FA06D01FED2E0A80
:1006F00010EE100AD649C1F80100D548D0F805001F
:1007000000EE100AB5EEC00AF1EE10FA06D01FEDA9
:10071000360A10EE100ACE49C1F8050000BFBBE54D
:10072000CD4A107A517ACB4A1278042A00D0704709
:10073000FC2801D0FC2910D10122C64B5A70B7EE1B
:10074000000A10EE102AC24BC3F80920C14A127ADF
:1007500042F00102BF4B1A721CE00022BD4B5A70DE
:10076000BB4AD2F8092000EE102AB5EEC00AF1EE1D
:1007700010FA06D01FED500A10EE102AB44BC3F841
:100780000920B44A127A2AB1B24A127A22F001023E
:10079000B04B1A7200BFCAE710B518F002FA012870
:1007A00001D1FFF7BDFF10BD0020AC4908601AE081
:1007B000AB49AA4A1268885C411ECAB2A849A74B35
:1007C0001B68CA5450B10846A4490968405C28B95E
:1007D0000021A348001DA14A126881549F48006867
:1007E000401C9E4908609D4800680428E0DB704773
:1007F0001CB504F0D5FC18F0F7F94FF47A7004F04A
:100800009DFD5E20974B98A29B4900909B481EF04F
:1008100009FF0446601C38B1B4F5967F04D29749AD
:1008200097A01EF0EFFE02E096A01EF0EBFE9DA04A
:100830009FA1A2A3A3A2CDE90010A5A1A7481EF0E5
:10084000E1FE6020874B88A28B4900908B481EF008
:10085000E9FE0446601C38B1B4F5967F04D287499E
:1008600087A01EF0CFFE02E086A01EF0CBFE00F0B7
:100870009AFC002802DA4FF0FF301CBD18F07EFA17
:1008800019F052FD19F0A6FB19F03EFE19F04DF8D3
:1008900002224FF47A71AFF2EF0016F014FD0190CE
:1008A00015E019F035FE00F0ADFD18F017FA19F05B
:1008B00033FCFFF771FF19F00BFE19F049FAFFF74F
:1008C000C1FC14F0C2FF15F05AFC15F06DFFE8E70B
:1008D00010B52DED048B5F480078042802D0BDECE4
:1008E000048B10BD5E482A38807D00B9F7E75C486C
:1008F0002A38007F48B95748007A28B15548007A0D
:1009000020F0020053490872E9E718F04CFA044657
:10091000002C75D04F48007A40F002004D49087213
:1009200004F00100A0B14E492A39088C1AF0CAFC23
:1009300041EC190B9FED6A0B53EC102B1AF0D0FB16
:1009400041EC180B1AF02EFD4149C1F801001EE0E0
:1009500004F00400A0B142492A39088C1AF0B2FC14
:1009600041EC190B9FED600B53EC102B1AF0B8FB08
:1009700041EC180B1AF016FD3549C1F8010006E0EC
:100980001FEDD30A10EE100A3149C1F8010004F03E
:100990000200A0B132492A39088C1AF093FC41ECCC
:1009A000190B9FED4F0B53EC102B1AF099FB41ECF8
:1009B000180B1AF0F7FC2649C1F80500A0E004F076
:1009C0000800A0B126492A39088C1AF07BFC41ECBA
:1009D000190B9FED450B53EC102B1AF081FB41ECEA
:1009E000180B1AF0DFFC1A49C1F8050088E01FED6A
:1009F000EE0A10EE100A1649C1F8050080E0FFE784
:100A00001448007A28B11348007A20F002001149F6
:100A100008720F48D0F8010000EE100AB5EEC00AC7
:100A2000F1EE10FA06D01FEDFC0A10EE100A08498C
:100A3000C1F801000648D0F8050000EE100AB5EE36
:100A4000C00AF1EE10FA53E02833002050330020A2
:100A50002412002084000020A23900200C00002075
:100A60001A330020A0400208494D504F52545F4EA7
:100A70004F5449434500000048610208FE1A002017
:100A8000257300004552524F523A206C6F67207018
:100A900072696E74657220696E6E6572206661752A
:100AA0006C740A0031363A34373A303500000000B1
:100AB0004A616E2031312032303138005630352DC8
:100AC0003030000031303030303030300000000045
:100AD0004D61696E426F6172640000008C610208B2
:100AE0009A9999999999B93F9A9999999999B9BF68
:100AF00006D09FEDB70A10EE100AB649C1F80500FE
:100B000000BFECE630B52DED0C8B8FB0B24800780D
:100B1000042803D00FB0BDEC0C8B30BDAF48807DF6
:100B200000B9F7E7AD48007F48B9AB48007A28B173
:100B3000A948007A20F00200A7490872EAE7A8490C
:100B4000096888680AF0FFFC8DED090ACDED0A0AF4
:100B50008DED0B1ACDED0C1ADDED0C1A9DED0B1A77
:100B6000DDED0A0A9DED090A04F090FAB0EE408A24
:100B7000F0EE608A9B49A1F1080000F092FCB0EE13
:100B8000480AF0EE680A1FF0BBFBB0EE40CAF0EE78
:100B900060CA9349096888680AF01FFD8DED0A0A4A
:100BA000CDED0B0A8DED0C1A9DED0B0A10EE101A0F
:100BB00008461AF0B3FB41EC1D0B53EC1C2B1AF04A
:100BC0008FFA41EC1A0BB0EE480AF0EE680A1FF0FB
:100BD00027FBB0EE40CAF0EE60CA81490968886818
:100BE0000AF0FBFC8DED070ACDED080A8DED091A20
:100BF0009DED070A10EE101A08461AF08FFB41EC23
:100C00001D0B53EC1C2B1AF06BFA41EC1B0B53EC35
:100C10001A2B1AF0BEF941EC190B1AF0C3FB7149FB
:100C200008390861B0EE480AF0EE680A1FF0F8FAD9
:100C3000B0EE40CAF0EE60CA6949096888680AF0F7
:100C4000CCFC8DED0A0ACDED0B0A8DED0C1A9DED55
:100C50000B0A10EE101A08461AF060FB41EC1D0B4F
:100C600053EC1C2B1AF03CFA41EC1B0BB0EE480A7B
:100C7000F0EE680A1FF044FBB0EE40CAF0EE60CA26
:100C80005749096888680AF0A8FC8DED070ACDED80
:100C9000080A8DED091A9DED070AB1EE400A10EE23
:100CA000105A28461AF03AFB41EC1D0B53EC1C2B52
:100CB0001AF016FA41EC190B53EC1B2B1AF069F9D8
:100CC00041EC1A0B1AF06EFB46490839486144485A
:100CD0000068816804A80AF0CEFD04A807C80AAB22
:100CE00007C33F480068816801A80AF0C4FD01A855
:100CF00007C807AB07C3BDF92830BDF91E200DA9F1
:100D00000EA818F0DCFB04466CB132490E98C1F80D
:100D100001000D98C1F805002F48007A40F002004C
:100D20002D4908722AE02C48007A28B12A48007A16
:100D300020F00200284908722648D0F8010000EE91
:100D4000100AB5EEC00AF1EE10FA06D09FED200AA7
:100D500010EE100A1F49C1F801001E48D0F8050026
:100D600000EE100AB5EEC00AF1EE10FA06D09FEDC3
:100D7000180A10EE100A1749C1F8050000BFC9E6AD
:100D800010B500230A220121032010F0C3FA1649EE
:100D90000860062324220221032010F0BBFA134925
:100DA00008601348017813480EF058FF0446124AB1
:100DB00012491AF0D7F8DFED061A9FED051ADFED9C
:100DC000040A9FED030A4A2102480BF095FA10BD70
:100DD000000000002412002084000020F0320020D7
:100DE00008000020303300201000002014000020F4
:100DF000000000206C0700200000000891FC0008A3
:100E000070B504460D4600BF40210E4807F0EEF9CC
:100E10000028F9D0E1B20B4807F038F9204670BD40
:100E200010B500230A220121032010F073FA0649AD
:100E30000860062324220221032010F06BFA0349E4
:100E4000086010BD004800401C0000202000002069
:100E500000B58DB05B4801905B480C9000231A46AA
:100E600001A95A4800680FF035FB0DB000BD0FB462
:100E70002DE9F04188B004465E9FBDF83E00103871
:100E8000022846DCBDF84950C4F874570D220FA95A
:100E900004F267701BF09EFD40F27770005D8DF8E4
:100EA0000000112204F2677103A81BF093FD03A850
:100EB0000FC807F015FBD0B145480088854216D110
:100EC00020F090FE80463220424B43A20121009048
:100ED000404611F01DFB0646006841A1826830467D
:100EE00090470022114620460EF0C5FB00BF39484E
:100EF000019040F27770005D8DF80000112204F23D
:100F0000677103A81BF066FD03A80FC807F0C6FFB2
:100F100013E020F067FE80463B202E4B2EA20121DD
:100F20000090404611F0F4FA06469DF8442000680F
:100F300032A183683046984700BF38480088854210
:100F40000CD140F2E460005940B140F2E462115922
:100F5000206813F0EDFE04203149087008B0BDE8A8
:100F6000F0015DF814FB10B500230A2201210320D3
:100F700010F0D0F92B490860062324220221032017
:100F800010F0C8F9284908602848007800F00100EE
:100F9000002815D125481EF083FC002810D00C2015
:100FA0001EF00AFB041E05D00021204611F08CFA29
:100FB000044600E000201E4908601C48AFF3008092
:100FC00010BD00001FBF0F003400002008000020EB
:100FD00014440208FB4002084552524F52000000E0
:100FE00053444B2076657273696F6E206469642088
:100FF0006E6F74206D617463680A000041434B207A
:10100000697320657863657074696F6E2C207365F1
:101010007175656E63652025640A0000044402084A
:1010200084000020280000202C000020180600204A
:101030001C06002000F07F0200EE102AB8EEC00A65
:10104000F0EE400A00EE101AB8EE400AB0EE401A78
:1010500000F0800262B1DFED451AB0EE410A00EE09
:10106000A10AF1EE401A9FED422A81EE820A7047F2
:10107000DFED3E1AB0EE410A00EEA10A9FED3C2AD8
:10108000C0EE021AB0EE610AF1E770B586B0044610
:101090000D462068012802D10020206001E006B042
:1010A00070BD2079FA2802D16079FB2800D0F6E7DC
:1010B000A07920B1012808D0AA283AD108E000225E
:1010C000114628460EF0D7FA34E0FFF7C1FE31E0B2
:1010D000A07B00EB80004000616A4143607B00EB35
:1010E00080004000626A4243207B00EB80004000A9
:1010F000636A4343E07A00EB80004000666A704315
:10110000CDE9023204910190A07A00EB800040000A
:101110000090607A00EB80004300207A00EB8000B2
:101120004200E07900EB8000410012481EF06AFAAC
:1011300000E000BF00BF00BFB1E710B500230A22E6
:101140000121032010F0E6F80B4908600623242251
:101150000221032010F0DEF8084908600848002149
:1011600001608162C16200BF10BD000000008043C9
:101170000000C842DC610208780000207C000020EA
:1011800038120020E248008820B1E1480088401E63
:10119000DF490880DF48008820B1DE480088401E13
:1011A000DC490880704738B50020DB49086041F20F
:1011B000883004F0C3F8D9490968086813F08EFD37
:1011C0000446006881692046884738B9D4A01EF0DB
:1011D00019FA012000F071FC00F082FCDAA01EF088
:1011E00011FADEA01EF00EFAECA01EF00BFAF2A02F
:1011F0001EF008FAFDA01EF005FA1E2004F09EF86D
:10120000C64800680EF08DFA4FF4FA7004F096F8B4
:10121000C24800680DF044FEFC49096888420ED2BD
:10122000BE4800680DF03CFEF949884207D0F9A09D
:101230001EF0E8F9012000F040FC00F051FC4FF4F2
:101240007A7004F07BF802221421AFF2C70016F086
:101250003AF80090012038BD10B5F949A1F16500B8
:1012600018F029FC28B1F74890F82D11C83000F08B
:10127000E4FF10BD00B52DED028B8FB0A5480088AE
:1012800018B90A20A349088003E00FB0BDEC028B17
:1012900000BDA2480068816801A80AF02FFA1C224C
:1012A00001A908A81BF096FB9DED0D8AE648007B7E
:1012B00000B9EAE7B1EE000AB4EEC08AF1EE10FA26
:1012C00003DD0220E04988600AE0B0EE080AB4EECF
:1012D000C08AF1EE10FA03D24FF0FF30DA4988608D
:1012E00000BFD2E710B58CB08C49096888680AF055
:1012F0000FFB0B9089480068816804A80AF0BBFACC
:1013000004A807C808AB07C38449096888680AF0BD
:1013100056FB0790BDF92800002801DC0CB010BD79
:101320009DF82C00022800D0F8E7C848007A002871
:1013300024D19DF81D0000F0070002281DD10022D5
:101340001146764800680EF022FD4FF48270C04BC3
:10135000C0A2C4A10090CC481EF064F90446601CF1
:1013600038B1B4F5967F04D2C749C8A01EF04AF937
:1013700002E0C7A01EF046F900BFCFE7B348007AED
:1013800030B16348008818B901206149088000E045
:10139000C4E79DF81D0000F0070002281DD00022C0
:1013A00011465E4800680EF096FD4FF48A70A84B17
:1013B000A8A2BFA10090B4481EF034F90446601CF6
:1013C00038B1B4F5967F04D2AF49B0A01EF01AF937
:1013D00002E0AFA01EF016F900BFBD48C168009141
:1013E000007C8DF804004D4800681122B849C4689B
:1013F00002A81BF0EFFA204602A90EC90AF00FFF5F
:1014000000BF8BE700B585B09048007820B1032875
:101410002FD0042841D139E003208C490870AD4811
:1014200000684860FFF714FD3C4800680DF038FD87
:101430007749884208D03949096848680CF0E6FFC6
:101440004FF4FA7003F07AFF344800681422816880
:1014500068460AF0D9FB322003F070FF2F49096873
:10146000784AC8699C490CF050FC322003F066FFB2
:1014700014E07648406897490968401A41F288317B
:10148000884202D300207149087007E0FFF72AFF65
:10149000FFF7F0FEFFF7E0FE00E000BF00BF05B081
:1014A00000BD7FB504460D461C49096888680AF0EE
:1014B0004AF88DED000ACDED010A8DED021ACDED51
:1014C000031ADDED031A9DED021ADDED010A9DED13
:1014D000000A03F0F3FD84ED000B104909688868E9
:1014E0000AF031F88DED000ACDED010A8DED021AFA
:1014F000CDED031ADDED031A9DED021ADDED010AB3
:101500009DED000A03F0F2FD85ED000B7FBD0000AC
:101510009000002092000020AC824242080000208F
:10152000555341525420636F6D6D756E69636174DC
:10153000696F6E206973206E6F7420776F726B69AC
:101540006E672E0D0A0000000A5072657265717593
:101550006973697465733A0D0A000000312E2056D4
:10156000656869636C6520636F6E6E65637465643E
:1015700020746F2074686520417373697374616EA1
:101580007420616E642073696D756C6174696F6E2F
:10159000206973204F4E0D0A00000000322E2042B9
:1015A0006174746572792066756C6C79206368610A
:1015B0006E726765640D0A00332E20444A49474F16
:1015C0002041707020636F6E6E65637465642028BF
:1015D000666F72207468652066697273742074691E
:1015E0006D652072756E290D0A000000342E2047AB
:1015F000696D62616C206D6F756E746564206966DB
:10160000206E65656465640D0A0000009800002086
:10161000000A010355706772616465206669726D26
:1016200077617265207573696E67204173736973A2
:1016300074616E7420736F667477617265210A003D
:10164000EE320020C13100206033002084000020F1
:101650000C410208494D504F52545F4E4F5449437C
:101660004500000025732025732C6C696E652025CC
:10167000643A206F657320636F6E74726F6C2063C1
:101680006C6F7365640A0000FE1A00202573000069
:101690004552524F523A206C6F67207072696E74D7
:1016A000657220696E6E6572206661756C740A00E1
:1016B00025732025732C6C696E652025643A206F94
:1016C000657320736574436F6E74726F6C0A0000EB
:1016D00024120020680400200122000830B52DEDFE
:1016E0000C8B99B00446F7480068816801A80AF09D
:1016F00005F81C2201A912A81BF06CF9F14800683A
:10170000816805A80AF0B7F805A807C80FAB07C39A
:10171000EC490968886809F060FF8DED0C0ACDED91
:101720000D0A8DED0E1AE7490968886809F00BFF6C
:101730008DED080ACDED090A8DED0A1ACDED0B1AD3
:101740002546E0490968886809F0FDFE8DED040A28
:10175000CDED050A8DED061ACDED071ADDED071A60
:101760009DED061ADDED050A9DED040A03F0A6FCC9
:1017700085ED000BD3490968886809F0E4FE8DED1A
:10178000040ACDED050A8DED061ACDED071ADDED43
:10179000071A9DED061ADDED050A9DED040A03F01A
:1017A000A5FC85ED020BBDF83E006883BDF83C004A
:1017B0002883BDF84200A883BDF84000E883DDED32
:1017C0000B1A9DED0A1ADDED090A9DED080A03F0DA
:1017D0005DFCB0EE40DAF0EE60DA1EF091FDB0EEA6
:1017E00040BAF0EE60BA9DED0D0A10EE101A0846F0
:1017F00019F094FD41EC1C0B53EC1B2B19F070FC01
:1018000041EC190BDDED0B1A9DED0A1ADDED090A0D
:101810009DED080A03F03AFCB0EE40DAF0EE60DA33
:101820001EF0FEFCB0EE40BAF0EE60BA9DED0C0A80
:1018300010EE101A084619F071FD41EC1C0B53EC28
:101840001B2B19F04DFC41EC1A0B53EC192B19F022
:10185000A0FB41EC180B19F0A5FD2861DDED0B1A7A
:101860009DED0A1ADDED090A9DED080A03F00EFC54
:10187000B0EE40DAF0EE60DA1EF0D2FCB0EE40BA24
:10188000F0EE60BA9DED0D0A10EE101A084619F040
:1018900045FD41EC1C0B53EC1B2B19F021FC41ECDA
:1018A000180BDDED0B1A9DED0A1ADDED090A9DED11
:1018B000080A03F0EBFBB0EE40DAF0EE60DA1EF05F
:1018C0001FFDB0EE40BAF0EE60BA9DED0C0AB1EE2D
:1018D000400A10EE101A084619F020FD41EC1C0BCE
:1018E00053EC1B2B19F0FCFB41EC1A0B53EC182B9F
:1018F00019F04FFB41EC190B19F054FD68619DED97
:10190000170A85ED080A19B0BDEC0C8B30BD10B577
:101910002DED068B04466C49088C19F0D3FC41EC84
:101920001A0B9FED6A0B53EC102B19F0D9FB41EC0D
:10193000190B19F037FD08EE900A664890ED040A7D
:10194000B0EE408AB4EEE88AF1EE10FA02DDB0EEB5
:10195000688A25E0B1EE680AB4EEC08AF1EE10FAAA
:1019600004D2B1EE680AB0EE408A19E0B5EEC08A42
:10197000F1EE10FA0ADB38EE280A30EE080AF0EE33
:10198000080A80EE201AB0EE418A09E038EE080A13
:1019900030EE680AF0EE080A80EE201AB0EE418AB6
:1019A000012C06D1B5EEC08AF1EE10FA01D2B0EEEC
:1019B000688A032C08D1B5EEC08AF1EE10FA03DD77
:1019C000B1EE680AB0EE408AB0EE480ABDEC068B74
:1019D00010BD10B52DED068B04463B49088C19F05F
:1019E00071FC41EC1A0B9FED390B53EC102B19F0E5
:1019F00077FB41EC190B19F0D5FC08EE100A3548BD
:101A000090ED050AF0EE408AF4EEC88AF1EE10FA85
:101A100002DDF0EE488A25E0B1EE480AF4EEC08A15
:101A2000F1EE10FA04D2B1EE480AF0EE408A19E065
:101A3000F5EEC08AF1EE10FA0ADB38EEA80A30EEB5
:101A4000080AF0EE080A80EE201AF0EE418A09E05A
:101A500038EEA80A30EE480AF0EE080A80EE201AA6
:101A6000F0EE418A022C06D1F5EEC08AF1EE10FAB2
:101A700001D2F0EE488A042C08D1F5EEC08AF1EECE
:101A800010FA03DDB1EE480AF0EE408AB0EE680AC3
:101A9000BDEC068B10BD10B500230A2201210320E6
:101AA0000FF038FC0C490860062324220221032091
:101AB0000FF030FC0949086010BD00F0010181F30E
:101AC0001388704708000020F03200209A999999F5
:101AD0009999B93F283300209400002098000020F5
:101AE000BFF34F8F0648006800F4E06005490843E3
:101AF000001D03490860BFF34F8F00BFFEE70000E1
:101B00000CED00E00000FA05F0B52DED088BA5B056
:101B100000244FF4FA651427FE48006814228168F7
:101B20000EA80AF071F8E6E0FA490968886809F039
:101B3000EFFE2490F7480068816807A809F0DEFDF1
:101B40001C2207A91DA81AF045FFF2480068816809
:101B50000BA809F090FE0BA807C81AAB07C3ED4904
:101B60000968886809F039FD8DED170ACDED180A6E
:101B70008DED191AE7490968886809F0E4FC8DEDD4
:101B8000130ACDED140A8DED151ACDED161A214666
:101B9000E1A01DF037FDE4A01DF034FD9DF890108C
:101BA000E4A01DF02FFD9DED210A10EE101A08464D
:101BB00019F0B4FB41EC180B8DED028B9DED1F0B62
:101BC0008DED000B9DED1D1BB0EE410AF0EE610A9C
:101BD00053EC102BDCA01DF015FDBDF96E0000903C
:101BE000BDF96C30BDF96A20BDF96810DFA01DF0A9
:101BF00009FD9DED190A10EE101A084619F08EFB2A
:101C000041EC180B9DED180A10EE101A084619F059
:101C100085FB41EC190B9DED170A10EE101A0846D2
:101C200019F07CFB41EC1A0B8DED028B8DED009BC6
:101C300053EC1A2BD8A01DF0E5FC9DED160A10EE12
:101C4000101A084619F06AFB41EC180B9DED150AB5
:101C500010EE101A084619F061FB41EC190B9DEDCE
:101C6000140A10EE101A084619F058FB41EC1A0B32
:101C70009DED130A10EE101A084619F04FFB41ECC7
:101C80001B0B8DED048B8DED029B8DED00AB53ECAA
:101C90001B2BCBA01DF0B6FC9E48006881686846EF
:101CA00009F02CFD1C22694607A81AF093FE9DED51
:101CB0000C0A10EE101A084619F030FB41EC180B14
:101CC00053EC182BCCA01DF09DFC92490968886844
:101CD00009F075FE0D909DF8350000F007063146BD
:101CE000C9A01DF08FFCCEA01DF08CFC32344FF447
:101CF000FA7003F023FBAC42FFF616AFCBA01DF049
:101D000081FC012025B0BDEC088BF0BD2DE9F04F22
:101D10002DED088BA1B0002020904FF47A601F9029
:101D200000201E900124C54800681D9001201C90D1
:101D300000267849CDE9006409681DAB48681C9A03
:101D40001E990CF0E9FA05462DB9284621B0BDECE4
:101D5000088BBDE8F08F6F49096848681E990CF040
:101D60002DFC4FF4FA7003F0E9FA01201E900A24CA
:101D7000B248001D00681B9001201C900026654998
:101D8000CDE9006409681BAB48681C9A1E990CF0E9
:101D9000C3FA05460DB92846D8E75E490968486880
:101DA0001E990CF00BFC4FF4FA7003F0C7FA0220F6
:101DB0001E903224A148083000681A9002201C901E
:101DC00000265449CDE9006409681AAB48681C9A9A
:101DD0001E990CF0A1FA05460DB92846B6E74D4903
:101DE000096848681E990CF0E9FB4FF4FA7003F09B
:101DF000A5FA03201E90C8240020199001201C90F1
:101E000000264449CDE90064096819AB48681C9A6A
:101E10001E990CF081FA05460DB9284696E73D4912
:101E2000096848681E990CF0C9FB4FF4FA7003F07A
:101E300085FA4FF4FA5003F081FA4FF47A674FF4C1
:101E4000FA7800BF33490968086812F047FF8346F3
:101E50000068C1685846884710EB070A00BF2D4943
:101E6000096848681FF0D4FD18902A480068416846
:101E700068461FF07DFC1822694612A81AF0AAFDD8
:101E800024480068416803A81FF0C8FC03A807C8DD
:101E90000FAB07C31F480068416802A81FF04CFE43
:101EA00002A80FC8CDE90D23CDE90B011949096836
:101EB00048681FF003FC8DED070ACDED080A8DED93
:101EC000091ACDED0A1A14A020991DF09BFB16A04B
:101ED0001DF098FB17A018991DF094FB9DED160AB4
:101EE00010EE101A084619F019FA41EC180B8DED96
:101EF000028B9DED120B8DED000B9DED141BB0EED2
:101F0000410AF0EE610A53EC102B0FA01DF07AFB92
:101F100096E0000008000020436F756E7465722023
:101F20003D2025643A0A00002D2D2D2D2D2D2D0A42
:101F300000000000466C6967687420537461747512
:101F400073203D2025640A00506F736974696F6EB9
:101F500020284C4C4129203D20252E33662C20255D
:101F60002E33662C20252E33660A00005243204370
:101F70006F6D6D616E64732028722F702F792F74CE
:101F8000687229203D2025642C2025642C2025649E
:101F90002C2025640A00000056656C6F6369747913
:101FA000202876782C76792C767A29203D20252ECB
:101FB00033662C20252E33662C20252E33660A000E
:101FC0004174746974756465205175617465726ECD
:101FD000696F6E2028772C782C792C7A29203D2067
:101FE000252E33662C20252E33662C20252E336695
:101FF0002C20252E33660A00686569676874203DC9
:102000002025660A00000000636F6E74726F6C44D6
:10201000657669636528645329203D2025640A009C
:102020002D2D2D2D2D2D2D0A0A000000446F6E65DB
:10203000207072696E74696E67210A001C41020883
:10204000BDF942000090BDF94030BDF93E20BDF918
:102050003C10AFF2E8001DF0D5FA9DED0D0A10EE30
:10206000101A084619F05AF941EC180B9DED0C0AAC
:1020700010EE101A084619F051F941EC190B9DEDBC
:102080000B0A10EE101A084619F048F941EC1A0B29
:102090008DED028B8DED009B53EC1A2BAFF20810E7
:1020A0001DF0B0FA9DED0A0A10EE101A084619F05C
:1020B00035F941EC180B9DED090A10EE101A08468F
:1020C00019F02CF941EC190B9DED080A10EE101ACD
:1020D000084619F023F941EC1A0B9DED070A10EEA2
:1020E000101A084619F01AF941EC1B0B8DED048B00
:1020F0008DED029B8DED00AB53EC1B2BAFF240102E
:102100001DF080FAAFF2E8001DF07CFA4FF4FA708F
:1021100003F014F935490968086812F0DFFD0690EC
:102120000068C1680698884710EB0809D145FFF49C
:1021300096AEAFF208101DF065FA2C4909684868A0
:1021400000210CF03FFC40F6B83003F0F7F82749C7
:102150000968486801210CF035FC40F6B83003F0FE
:10216000EDF822490968486802210CF02BFC40F682
:10217000B83003F0E3F81D490968486803210CF002
:1021800021FC40F6B83003F0D9F80120DEE510B5A7
:1021900000230A22012103200FF0BCF81449086033
:1021A00006232422022103200FF0B4F8114908600D
:1021B0001148007800F00100002815D10E481DF0EC
:1021C0006FFB002810D00C201DF0F6F9041E05D07E
:1021D0000021204610F078F9044600E0002007496D
:1021E00008600548AFF3008010BD00000800002023
:1021F000A0000020A4000020180600201C060020DB
:102200000FB42DE9F0478146589D2E4606F164072C
:102210000DF13108BDF82600123884B2142C08DB09
:10222000642C06DC2246414638461AF0D3FB86F879
:102230002C41BDE8F0075DF814FB70B504460D466F
:10224000C34909682A46C86921460BF02FFD0020C2
:10225000C0490860C0480068C049086070BD0FB43C
:10226000F0B589B004465E9EBDF83E0010380228E5
:1022700065D80D220FA904A81AF0ACFB20460CF07B
:102280000FFEB749884204D09DF84900CDF81D00E3
:1022900003E0BDF84900CDF81D009DF820008DF841
:1022A000000004A80FC806F01BF948B1AD48019022
:1022B0009DF820008DF8000004A80FC806F0EEFD80
:1022C0009DF83C008DF808009DF83D008DF8090050
:1022D00010988078072809D00222A34902A818F094
:1022E00028FD88B11098807801280DD10520ADF81F
:1022F0000C00BDF81D0080B2ADF80E00042203A949
:10230000E0690BF0D3FC19E010988078082808D019
:102310000222954902A818F00CFD78B11098807837
:1023200060B90620ADF80C00BDF81D0080B2ADF814
:102330000E00042203A9E0690BF0B8FC13E01FF0C3
:1023400051FC0746B520874B88A2012100903846F2
:1023500010F0DEF805469DF84420006885A18368EA
:102360002846984700BF09B0F0BC5DF814FB0FB4D5
:102370002DE9F04387B004465E9E86480088CDF87C
:102380001500012720460DF065F98046BDF83E0096
:102390001038022809D8BDF84900CDF815000D22E3
:1023A0000FA902A81AF016FB13E01FF01BFC8146D0
:1023B0006620794B6DA201210090484610F0A8F8E4
:1023C00005469DF8442000686AA18368284698471E
:1023D00000BFDDF8150071490988884206D1002246
:1023E000AFF2750120460DF076FD25E0DDF8150011
:1023F0006B490988884206D10022AFF28D01204640
:102400000DF0C5FC18E010988078012803D1022057
:10241000ADF8040005E01098807810B90320ADF8FD
:102420000400BDF8150080B2ADF80600042201A931
:10243000E0690BF03BFC00BF07B0BDE8F0035DF8BE
:1024400014FB0FB470B50646549DBDF82140022C14
:1024500006D0032C0CD0052C12D0062C44D129E038
:102460000022AFF2F5013A4800680DF034FD3CE07F
:102470000022AFF20511364800680DF088FC34E008
:10248000334800680CF00CFD3549884209D03049CA
:1024900009680023AFF23922C868072109F0A6FCB9
:1024A00007E02B4909680022C868AFF24D2109F006
:1024B000BEFD1AE0264800680CF0F2FC284988426C
:1024C00009D0234909680023AFF26D22C8680821AA
:1024D00009F08CFC07E01E4909680022C868AFF2C9
:1024E000812109F0D5FD00E000BF00BF70BC5DF8A0
:1024F00014FB10B500230A22012103200EF00AFF6D
:102500002849086006232422022103200EF002FF3E
:10251000254908602548007800F00100002815D101
:1025200022481DF0BDF9002810D00C201DF044F801
:10253000041E05D0002120460FF0C6FF044600E02F
:1025400000201B4908601948AFF3008010BD00004F
:1025500008000020A0024342680400206C04002010
:10256000000A010345410208EB4202084552524F5E
:102570005200000041434B20697320657863657009
:1025800074696F6E2C2073657175656E63652025A7
:10259000640A000082430208264102081C44020823
:1025A0001E440208AC000020B000002018060020E5
:1025B0001C0600202DE9FE43814601260A24FA4824
:1025C0000068029002274FF00008F849CDE9008426
:1025D000096802AB3A46486831460BF09DFE054655
:1025E00015B92846BDE8FE83F049096848683146B8
:1025F0000BF0E4FF4FF4FA5002F0A0FE0120F1E7E7
:1026000030B52DED028B85B00546284621F0B2F994
:10261000044620E0641C2169084618F07FFE41EC66
:10262000180B8DED028BA068E168CDE900012068F0
:102630006168641E41EC100B53EC102BDCA01CF005
:10264000E1FFDA490968096A00231A464868214609
:102650000FF08BFC5A34284621F088F9A042D9D1DA
:1026600005B0BDEC028B30BD9FEDDB0A10EE101AF9
:1026700040F8151F00218180C180017241746421DE
:102680004182017D21F00F010175017D21F0F001F2
:1026900001751538002108E0002300F12A02535487
:1026A000103202EB41021380491C1029F4DB704701
:1026B0002DE9F0432DED0C8B99B004468846B0EE21
:1026C000408AF0EE608A164618A800BF00BF00BF1F
:1026D00000BF00BF002121606160A16000BF00BF9A
:1026E000304618F0DEFD41EC1A0B53EC1A2B9FED2F
:1026F000BB0B51EC100B18F065FD41EC190B0020E1
:1027000088F800004146204621F038F9012574E0A0
:10271000A5F10109204621F02DF9C9EB091101EBC2
:10272000410100EB4100074601A8FFF79DFFE8B219
:102730008DF80400284618F0B4FD53EC192B18F05E
:10274000CFFC41EC1C0BB0EE4C0AF0EE6C0A1DF015
:1027500067FDB0EE40BAF0EE60BA53EC182B51ECC6
:102760001B0B18F0BDFC41EC1A0B57F8010F7968F0
:1027700041EC100B53EC102B51EC1A0B18F009FC28
:10278000CDF80500CDF80910284618F08AFD53EC65
:10279000192B18F0A5FC41EC1C0BB0EE4C0AF0EE26
:1027A0006C0A1DF0ADFDB0EE40BAF0EE60BA53EC2D
:1027B000182B51EC1B0B18F093FC41EC1A0BB8686A
:1027C000F96841EC100B53EC102B51EC1A0B18F07C
:1027D000E0FBCDF80D00CDF81110386900EE100ABD
:1027E000F7EE000A30EE200A10EE100ACDF81500C0
:1027F00001A9204621F0C2F86D1CB54288DB88F89B
:1028000000604146204621F0B9F819B0BDEC0C8BB0
:10281000BDE8F08330B52DED068BABB005460C4618
:10282000B0EE409AF0EE609AB0EE418A4FF4FA5062
:1028300002F084FD14A8FFF717FF5C4800680CF055
:102840002FFB6849884232D058480068416801A887
:102850001EF08EFF182201A90EA81AF0BBF8DDE9C0
:102860001001CDF85100CDF85510DDE90E01CDF87D
:102870005900CDF85D1018EE100ACDF8610018EE81
:10288000100A18F04BFD41EC1A0B8DED02AB9DEDDB
:102890000E0B8DED000B9DED101BB0EE410AF0EE1E
:1028A000610A53EC102B50A01CF0ACFE31E03F4805
:1028B00000688168684608F021FF1C22694607A865
:1028C0001AF088F8DDE90701CDF85100CDF8551070
:1028D000DDE90901CDF85900CDF85D1018EE100AB8
:1028E000CDF8610018EE100A18F018FD41EC1A0B33
:1028F0008DED02AB9DED090B8DED000B9DED071BE2
:10290000B0EE410AF0EE610A53EC102B36A01CF039
:1029100079FE2246B0EE490AF0EE690A14A928466B
:10292000FFF7C6FE2BB0BDEC068B30BDB2EE040A3D
:1029300010EE101AC01C40F8021CB1EE040A10EE92
:10294000101AC0F80210002181710121C17100210B
:1029500001724172012181720021C1729FED2C0B25
:1029600052EC101BC16002619FED290B52EC101B51
:10297000416182619FED180A10EE101AC161C01EFC
:102980007047F0B52DED048B97B0054607480068F9
:102990000CF086FA1349884246D004480068FFF7D5
:1029A00009FE00B938E03FE05C4102080800002061
:1029B000576179706F696E742063726561746564C4
:1029C00020617420284C4C41293A20256620092595
:1029D00066200925660A200000000000182D4454D6
:1029E000FB211940000A0103576179706F696E7409
:1029F000206372656174656420617420284C4C41C9
:102A0000293A20256620092566200925660A000046
:102A10000000000000000000EDA01CF0F3FD00200D
:102A200017B0BDEC048BF0BD0AA8FFF77FFF681C50
:102A3000C0B28DF828009FEDEE9BB2EE048A0AA882
:102A40000090ED48006801230022016A02A80AF004
:102A500000FF4FF4FA7002F071FCE7490968086A58
:102A60000AF0FCFFE5A01CF0CDFDB0EE481AB0EE78
:102A7000490AF0EE690A294607A8FFF7CBFEE8A04D
:102A80001CF0C0FD07A8FFF7BBFDEBA01CF0BAFDD2
:102A9000D9490968096A4868D7490968096A4968CB
:102AA000096800228B68114698474FF4FA7002F0CB
:102AB00045FCE7A01CF0A6FDCF4909684868012144
:102AC0000BF080FF40F6B83002F038FC07AC20462F
:102AD00020F04CFF0646204620F04CFF07463246C9
:102AE0003946204620F086FE2168A068401A5A2107
:102AF00090FBF1F632462046216820F0FAFB00BF39
:102B000001208DE710B52DED068B96B00446BA482E
:102B100000680CF0C5F9D54988420CD0B648006869
:102B2000FFF748FD38B9AAA01CF06CFD002016B0D4
:102B3000BDEC068B10BD00200090AF48006801235B
:102B40001A46016A02A80AF084FEAB490968086ABD
:102B50000AF084FFA84800680CF0A2F9C349884233
:102B600026D0A5480068416801A81EF001FE182281
:102B700001A910A819F02EFF204618F092FB41EC95
:102B8000180B9DED122BB0EE421AF0EE621A9DED7D
:102B9000102BB0EE420AF0EE620A97490968096A02
:102BA000B0EE482AF0EE682A88680AF0B7FA25E005
:102BB000914800688168684608F0A0FD1C226946BB
:102BC00009A819F007FF204618F06BFB41EC180B21
:102BD0009DED092BB0EE421AF0EE621A9DED0B2B23
:102BE000B0EE420AF0EE620A83490968096AB0EE63
:102BF000482AF0EE682A88680AF090FA00F09EF9F8
:102C00009BA01CF0FFFC7C490968096A88687A4926
:102C10000968096A8968096800228B681146984723
:102C20004FF4FA7002F08AFB4FF47A6002F086FBF0
:102C30009AA01CF0E7FC70490968096A88686E4927
:102C40000968096A8968096800228B6911469847F2
:102C500041F2883002F072FB94A01CF0D3FC66496C
:102C60000968096A886864490968096A896809689D
:102C700000220B6A114698474FF47A6002F05EFB1F
:102C8000204618F00EFB41EC190B9FED8A0B53EC1C
:102C9000102B18F025FA41EC180B53EC182B87A0D9
:102CA0001CF0B0FC204618F0FCFA41EC1A0B9FED2A
:102CB000810B53EC102B18F013FA41EC190B18F0A0
:102CC00071FB08EE100A4C490968096A00228868FD
:102CD0001146B0EE480A09F0FAFF42F2107002F015
:102CE0002DFB81A01CF08EFC01208DF81C00B1EEA4
:102CF000040A10EE100ACDF81D003F490968096A60
:102D000000231A46886807A909F03CFF42F21070B8
:102D100002F014FB44F6206002F010FB7FA01CF0D0
:102D200071FC35490968096A886833490968096A84
:102D30008968096800220B69114698474FF47A7038
:102D400002F0FCFA77A01CF05DFC2B4800680CF048
:102D5000A7F84649884209D02749096848680121EF
:102D60000BF030FE40F6B83002F0E8FA00F0ACFAB2
:102D7000DDE610B500230A22012103200EF0CAFA75
:102D80006A49086006232422022103200EF0C2FAB9
:102D9000674908606748007800F00100002815D1F5
:102DA00064481CF07DFD002810D00C201CF004FCB1
:102DB000041E05D0002120460FF086FB044600E0EB
:102DC00000205D4908605B48AFF3008010BD000043
:102DD0004661696C656420746F207365742075703A
:102DE00020537562736372697074696F6E210A0093
:102DF0008DEDB5A0F7C6B03E08000020496E69749D
:102E000069616C697A696E6720576179706F696E64
:102E100074204D697373696F6E2E2E0A00000000D6
:102E20004372656174696E6720576179706F696E6E
:102E300074732E2E0A00000055706C6F6164696E09
:102E40006720576179706F696E74732E2E0A0000C7
:102E50005374617274696E6720576179706F696E1F
:102E600074204D697373696F6E2E0A00000A0103A6
:102E70005374617274207769746820646566617543
:102E80006C7420726F746174696F6E207261746506
:102E90003A203135206465672F73000050617573E7
:102EA0006520666F722035730A00000052657375E5
:102EB0006D650A00000000000000F83F5570646175
:102EC00074652072616469757320746F20312E35CA
:102ED000783A206E657720726164697573203D20B1
:102EE00025302E33660A00005570646174652068D1
:102EF0006F74706F696E7420726F746174696F6E35
:102F000020726174653A206E657720726174652065
:102F10003D2035206465672F730A000053746F707D
:102F20000A0000004C616E640A000000B800002036
:102F3000BC000020180600201C0600202DE9F04FE0
:102F40002DED048B99B0FA4800680BF0A9FFF94900
:102F5000884229D0002018904FF00A0BF6480068EC
:102F6000149002201390002012901298F049CDE99D
:102F7000000B096814AB4868139A18990BF0CCF948
:102F80001190119828B9119819B0BDEC048BBDE8C7
:102F9000F08FE7490968486818990BF00FFB4FF468
:102FA000FA7002F0CBF900BFE14909680022C86855
:102FB000114609F09EF84FF4FA7002F0BFF943F69B
:102FC00098244FF4FA75002700201790169015905A
:102FD000D7490968086811F081FE80460068C16819
:102FE00040468847061900BF4FF4FA6002F0A6F980
:102FF000CF4800680BF054FFCE49884210D0CC492E
:10300000096848681EF004FD012820D1C8490968F4
:1030100048681EF047FD292819D10120179023E0A8
:10302000C3490968886808F073FC13909DF84C0048
:10303000022809D0BE490968886808F069FC149024
:103040009DF85000032802D1012017900CE0B849E8
:103050000968086811F042FE83460068C168584656
:1030600088474719B742BFD300BF1798A0B9B3A08C
:103070001CF0C8FAAE4800680BF012FFAD49884258
:1030800008D0AB490968486818990BF09BFC3220BE
:1030900002F054F9002077E7B3A01CF0B3FAA4497A
:1030A0000968086811F01AFE81460068C168484640
:1030B0008847061900BF4FF4FA6002F03FF99C48B8
:1030C00000680BF0EDFE9B49884217D098490968CB
:1030D00048681EF09DFC02281DD195490968486882
:1030E0001EF0E0FC0A2806D09149096848681EF0E5
:1030F000D9FC0B280FD10120169019E08C490968E2
:10310000886808F005FC14909DF85000032802D14F
:10311000012016900CE086490968086811F0DEFD70
:1031200083460068C168584688474719B742C2D3EA
:1031300000BF1698A8B992481CF064FA7C48006851
:103140000BF0AEFE7B49884209D07949096848688E
:1031500018990BF037FC4FF4FA7002F0EFF80020EA
:1031600012E788A01CF04EFA71490968086811F04E
:10317000B5FD82460068C1685046884706196C480C
:1031800000680BF08DFE6B49884223D000BF4FF4DE
:10319000FA6002F0D3F86649096848681EF082FCBC
:1031A0000A2806D16249096848681EF07BFC0B2892
:1031B00002D0012015900CE05D490968086811F003
:1031C0008DFD83460068C168584688474719B74255
:1031D000DDD300BF564800680BF062FE55498842B7
:1031E00020D05349096848681EF05CFC062806D1C7
:1031F0004F49096848681EF055FC012803D067A0B4
:103200001CF000FA4DE06B481CF0FCF948490968D5
:10321000486818990BF0D6FB4FF4FA7002F08EF85C
:103220000020B1E642480068816807A808F066FA05
:1032300000BF40F6B83002F081F83D480068816870
:10324000684608F05BFA1C2269460EA819F0C2FB1A
:10325000DDED120A9DED0B1A30EEC10AB0EEC08A08
:1032600000BF9DED120A8DED0B0A18EE100A18F042
:1032700055F841EC190B9FED500B53EC102B18F047
:1032800079F8D6D99DED120A10EE101A084618F0FA
:1032900045F841EC190B53EC192B49A01CF0B2F97D
:1032A00000BF234800680BF0FBFD2249884209D08B
:1032B0001F490968486818990BF084FB40F6B8303C
:1032C00002F03CF801205FE62DE9F04F93B047F2A1
:1032D00030544FF4FA754FF0000A0020129011900C
:1032E00010900F900A200E90114800680BF0D8FD46
:1032F000104988427FD01048001D00680D900220C0
:103300000C904FF0000B0E9880B20949CDE900B047
:1033100009680DAB48680C9A0F990AF0FDFF8146C9
:10332000B9F1000F5CD1484613B0BDE8F08F62E000
:1033300008000020000A01036041020854616B6527
:103340006F6666206661696C65642E204D6F746FD0
:103350007273206661696C656420746F2073746198
:103360007274210A000000000A5375636365737369
:1033700066756C2074616B656F6666210A000000DB
:10338000FC62020856656869636C65206173636559
:103390006E64696E672E2E2E0A00000056656869FD
:1033A000636C6520697320686F766572696E670A61
:1033B000000000004C6202083BDF4F8D976E823F99
:1033C000416972637261667420686F766572696EB6
:1033D0006720617420252E35666D21200A000000CB
:1033E000FE49096848680F990BF0E8F84FF4FA7045
:1033F00001F0A4FF00BFF94909680022C86811461E
:1034000008F0F5FE4FF4FA7001F098FFF3490968EF
:10341000086811F063FC07460068C16838468847B1
:10342000061900BF4FF4FA6001F088FFEB4800680E
:103430000BF036FDEA49884209D0E8490968486836
:103440001EF030FB0C280FD1012012901AE0E34946
:103450000968886808F05CFA0D909DF8340004282B
:1034600002D0012012900DE0DC490968086811F0D3
:1034700035FC81460068C1684846884710EB050A5C
:10348000B245CFD300BF1298B8B9D6A01CF0BAF895
:10349000D24800680BF004FDD149884209D0CF49D9
:1034A000096848680F990BF08DFA4FF4FA7001F033
:1034B00045FF002013B0BDE8F08FD6A01CF0A2F8A5
:1034C000C6490968086811F009FC80460068C168AF
:1034D00040468847061900BF4FF4FA6001F02EFFFE
:1034E000BE4800680BF0DCFCBD4988421ED0BB49D9
:1034F000096848681EF0D6FA0C2846D0B749096812
:1035000048681EF085FA02283FD0B4490968486827
:103510001EF0C8FA062806D1B049096848681EF0AE
:10352000C1FA012831D0012011903CE0AB49096873
:10353000886808F0EDF90D909DF83400052803D156
:10354000642001F0FBFE20E000BF4FF4FA6001F0C0
:10355000F5FEA24800688168684608F0CFF81C2292
:10356000694607A819F036FA9DED0B0AB5EEC00AB8
:10357000F1EE10FAE9D19DED0B0AB5EEC00AF1EEBD
:1035800010FA01D10120119000BF94490968086820
:1035900011F0A4FB81460068C1684846884710EBDB
:1035A000050AB24598D300BF119818B19EA01CF02F
:1035B00029F815E0A2481CF025F8884800680BF0AF
:1035C0006FFC8749884209D08449096848680F9987
:1035D0000BF0F8F94FF4FA7001F0B0FE002069E743
:1035E0007E4800680BF05CFC7D49884209D07B492D
:1035F000096848680F990BF0E5F940F6B83001F01A
:103600009DFE012056E72DE9F05F2DED0A8B8346E4
:103610000E4614461D46714800680BF041FC704987
:10362000884250D02746A9464D46D9F80000D9F81F
:10363000041041EC100B3C463868796853EC102BB1
:1036400017F048FD41EC180BD9F80800D9F80C1018
:1036500041EC100BB868F96853EC102B17F03AFDE9
:1036600041EC190B9FED770B53EC102B51EC190B20
:1036700017F036FD17F096FE3060B868F96841EC37
:10368000100B1CF0CDFDB0EE40BAF0EE60BA9FED2D
:103690006D0B53EC102B51EC180B17F021FD53EC74
:1036A0001B2B17F01DFD17F07DFE7060386900EED2
:1036B000100AD9F8100000EE900A30EE600A10EE01
:1036C000100AB06056E0A046AA465546DAF808004F
:1036D000DAF80C1041EC100B4446D8F80800D8F882
:1036E0000C1053EC102B17F0F5FC41EC180BDAF82A
:1036F0000000DAF8041041EC100BD8F80000D8F8FC
:10370000041053EC102B17F0E5FC41EC190B9FED66
:103710004D0B53EC102B51EC190B17F0E1FC17F08B
:1037200041FE3060D8F80000D8F8041041EC100BCE
:103730001CF076FDB0EE40BAF0EE60BA9FED410BA2
:1037400053EC102B51EC180B17F0CAFC53EC1B2B4D
:1037500017F0C6FC17F026FE7060D8F8100000EED7
:10376000100ADAF8100000EE900A30EE600A10EE4F
:10377000100AB060BDEC0A8BBDE8F09F30B52DEDAE
:10378000108B85B004462546A86800EE100A20EE8E
:10379000000A10EE101A084617F0C0FD41EC190B94
:1037A000E86800EE100A20EE000A10EE101A084633
:1037B00017F0B4FD41EC1F0B53EC192B17F0E9FB8C
:1037C00041EC1E0B9FED210B53EC102B17F088FCE6
:1037D00041EC1D0B9FED1F0B40E000000800002096
:1037E000000A01034C616E64696E67206661696C52
:1037F00065642E204169726372616674206973206A
:103800007374696C6C20696E2074686520616972DC
:103810002E0A000056656869636C65206C616E64F1
:10382000696E672E2E2E0A00537563636573736687
:10383000756C206C616E64696E67210A000000007F
:10384000A462020800000040A65458410000000095
:10385000000000C0000000000000F03F53EC102BFF
:1038600017F097FB41EC1A0B686800EE100AA86885
:1038700000EE900A20EE201A286800EE100AE86890
:1038800000EE900A00EE201A11EE101A084617F00A
:1038900045FD41EC1D0B9FEDFE0B53EC102B17F07B
:1038A0001FFC41EC1B0B686800EE100AE86800EE94
:1038B000900A20EE201A286800EE100AA86800EE90
:1038C000900A00EE601A11EE101A084617F026FD55
:1038D00041EC1D0B1FED230B53EC102B17F000FCDC
:1038E00041EC180BA86800EE100AE86800EE900A98
:1038F00020EE201A286800EE100A686800EE900A90
:1039000000EE201A11EE101A084617F007FD41ECE0
:103910001D0B9FEDDF0B53EC102B17F0E1FB41EC7F
:103920001C0B686800EE100A20EE000A10EE101A58
:10393000084617F0F3FC41EC1F0B53EC192B17F062
:1039400028FB41EC1E0B1FED3F0B53EC102B17F027
:10395000C7FB41EC1D0B1FED410B53EC102B17F077
:1039600018FBCDE900011FED450B53EC102B51EC7A
:10397000180B17F0FFFC02D21FED4A0B03E0B0EE6C
:10398000480AF0EE680AB0EE408AF0EE608A9FEDD9
:10399000C20B53EC102B51EC180B17F0D3FC02D2D6
:1039A0009FEDBD0B03E0B0EE480AF0EE680AB0EE02
:1039B000408AF0EE608AB0EE480AF0EE680A1CF029
:1039C0001BF8B0EE40DAF0EE60DA51EC1D0B17F0A8
:1039D000E9FC02909DED001BB0EE4C0AF0EE6C0A83
:1039E0001CF026FBB0EE40DAF0EE60DA51EC1D0B75
:1039F00017F0D8FC0390B0EE4A1AF0EE6A1AB0EE57
:103A00004B0AF0EE6B0A1CF013FBB0EE40DAF0EE5E
:103A100060DA51EC1D0B17F0C5FC04909DED020A15
:103A2000DDED030A9DED041A05B0BDEC108B30BD31
:103A30002DE9F04F2DED060B2DED108BB7B0B0EE4C
:103A4000408AF0EE608AB0EE419AF0EE61FAF0EE54
:103A5000429A93483590322034904FF47A713498DA
:103A600091FBF0F505EB850040003390322005FB1B
:103A700000FA00203290322031908A4800680BF022
:103A80000FFA894988422DD08848006806900220A4
:103A9000059000200490319880B20499CDE900107F
:103AA0008049096806AB4868059A32990AF034FCE7
:103AB0008346BBF1000F06D1584637B0BDEC108BE2
:103AC00006B0BDE8F08F77490968486832990AF076
:103AD00075FD4FF4FA7001F031FC4FF4FA5001F02B
:103AE0002DFC00BF6F4800680BF0DAF96E49884280
:103AF00017D06C480068416801A81DF039FE1822F3
:103B000001A92BA818F066FF18222BA925A818F0E8
:103B100061FF25AB2BAA14A962480068FFF773FD6B
:103B200016E0604800688168684607F0E7FD1C22DF
:103B300069461EA818F04EFF1C221EA917A818F0EF
:103B400049FF17AB1EAA14A956480068FFF75BFD92
:103B50009DED140A38EE400A10EE101A084617F0D0
:103B6000DDFB41EC1C0B9DED150A38EEC00A10EE92
:103B7000101A084617F0D2FB41EC1D0B9DED160AFA
:103B8000B1EE400A39EE400A10EE101A084617F05E
:103B9000C5FBCDE912011FEE900A17F0BFFB9FEDA8
:103BA000440B53EC102BCDE904019DED040B51ECBB
:103BB000100B17F095FA41EC1A0B4C9817F0AEFB6E
:103BC0009FED3B0B53EC102BCDE904019DED040B55
:103BD00051EC100B17F084FA41EC1E0B31480068D1
:103BE0000BF05EF9304988422BD02E4909684868AD
:103BF0001DF064FD8DED0E0ACDED0F0A8DED101A4E
:103C0000CDED111A0EA8FFF7B9FD8DED040ACDED2B
:103C1000050A8DED061A9DED060A10EE101A0846EB
:103C200017F07CFB9FED220B53EC102BCDE902012A
:103C30009DED020B51EC100B17F0C4FA41EC1B0B7D
:103C400040E018490968886807F07DFC8DED0A0A94
:103C5000CDED0B0A8DED0C1ACDED0D1A0AA8FFF76C
:103C60008DFD8DED040ACDED050A8DED061A9DED55
:103C7000060A10EE101A084617F050FB9FED0C0BC9
:103C800053EC102BCDE902019DED020B14E0000076
:103C90000000000000000040000000000000F0BF35
:103CA000A086010008000020000A01036841020804
:103CB00011DD52A246DF913F51EC100B17F082FA52
:103CC00041EC1B0B00270026B046B14602249FEDB5
:103CD000FE0A8DED070AFD4800680BF0E1F8FC498B
:103CE000884203D19FEDFB0A8DED070AB5EEC08A2D
:103CF000F1EE10FA12DD00EE104AB8EEC00AB4EE92
:103D0000C08AF1EE10FA02D2B0EE480A03E000EEEB
:103D1000104AB8EEC00A8DED090A1DE0B5EEC08A62
:103D2000F1EE10FA14D2604200EE100AB8EEC00AAA
:103D3000B4EEC80AF1EE10FA02D2B0EE480A04E07E
:103D4000604200EE100AB8EEC00A8DED090A03E0E9
:103D50009FEDE10A8DED090AF5EEC08AF1EE10FA49
:103D600012DD00EE104AB8EEC00AF4EEC08AF1EEA1
:103D700010FA02D2B0EE680A03E000EE104AB8EE84
:103D8000C00A8DED080A1DE0F5EEC08AF1EE10FACA
:103D900014D2604200EE100AB8EEC00AB4EEE80A8F
:103DA000F1EE10FA02D2B0EE680A04E0604200EED2
:103DB000100AB8EEC00A8DED080A03E09FEDC60AAE
:103DC0008DED080AC14800680BF06AF8C0498842C6
:103DD00004D09DED2F0A30EE09FA03E09DED220A92
:103DE00030EE09FAB0E11FED4E0B53EC102B51EC05
:103DF0001A0B17F0E7F9CDE904019DED040B51EC26
:103E0000100B17F0CFFAB14906900968C868DDEDCC
:103E1000061AB0EE4F1ADDED080A9DED090A08F00A
:103E20007CFAA8B201F08AFA2F44A84800680BF087
:103E300037F8A749884231D0A449096848681DF07D
:103E40003DFC8DED0E0ACDED0F0A8DED101ACDED76
:103E5000111A0EA8FFF792FC8DED040ACDED050AAC
:103E60008DED061A9DED060A10EE101A084617F0A1
:103E700055FA41EC1B0B95480068416801A81DF0FC
:103E800077FC182201A92BA818F0A4FD25AB2BAABA
:103E900014A98E480068FFF7B6FB30E08B4909682B
:103EA000886807F050FB8DED0A0ACDED0B0A8DED09
:103EB0000C1ACDED0D1A0AA8FFF760FC8DED040A6F
:103EC000CDED050A8DED061A9DED060A10EE101ACD
:103ED000084617F023FA41EC1B0B7C480068816808
:103EE000684607F00BFC1C2269461EA818F072FDFC
:103EF00017AB1EAA14A975480068FFF784FB9DED57
:103F0000140A38EE400A10EE101A084617F006FAA6
:103F100041EC1C0B9DED150A38EEC00A10EE101A8C
:103F2000084617F0FBF941EC1D0B9DED160AB1EEAA
:103F3000400A39EE400A10EE101A084617F0EEF962
:103F4000CDE91201204617F0ACF9B0EE4C0AF0EEC4
:103F50006C0ACDE904011BF013FB8DED020B9DED06
:103F6000040B53EC102B9DED020B51EC100B17F0D2
:103F7000E9F904D251EC1C0B17F014FA0990204611
:103F800017F08FF9B0EE4D0AF0EE6D0ACDE904019D
:103F90001BF0F6FA8DED020B9DED040B53EC102B8C
:103FA0009DED020B51EC100B17F0CCF904D251EC43
:103FB0001D0B17F0F7F90890444800680AF070FFED
:103FC000434988424AD119EE900A17F0A7F9B0EE9A
:103FD0004C0AF0EE6C0ACDE904011BF0D1FA8DED2C
:103FE000020B9DED040B53EC102B9DED020B51ECDD
:103FF000100B17F0A7F931D219EE900A17F08EF9CD
:10400000B0EE4D0AF0EE6D0ACDE904011BF0B8FAEE
:104010008DED020B9DED040B53EC102B9DED020B6F
:1040200051EC100B17F08EF918D253EC1A2B51ECFF
:104030001B0B17F04FF8CDE902019DED020B1BF0B1
:104040009FFA8DED040B53EC1E2B9DED040B51ECF0
:10405000100B17F077F901D22E446DE019EE900A9B
:1040600017F05CF9B0EE4C0AF0EE6C0ACDE90401F1
:104070001BF086FA8DED020B9DED040B53EC102B1B
:104080009DED020B51EC100B17F05CF952D219EEBA
:10409000900A17F043F9B0EE4D0AF0EE6D0ACDE943
:1040A00004011BF06DFA8DED020B9DED040B53EC3A
:1040B000102B9DED020B51EC100B17F043F939D288
:1040C000079817F02BF909E08FC2F53D0800002092
:1040D000000A01039A99993F00000000CDE904010C
:1040E0009DED120B1BF04CFA8DED020B9DED040BB8
:1040F00053EC102B9DED020B51EC100B17F022F935
:1041000018D253EC1A2B51EC1B0B16F0E3FFCDE940
:1041100002019DED020B1BF033FA8DED040B53EC05
:104120001E2B9DED040B51EC100B17F00BF901D277
:104130002E4401E006B1A8443398804501DD0026F5
:10414000B046564500DB03E035988742FFF64BAE9C
:1041500000BF4E4800680AF0A3FE4D4988420BD0CC
:1041600008E04A490968C86808F0CBF9A8B201F02C
:10417000E5F8A944D145F4DB3598874216DB45A024
:104180001BF040FA414800680AF08AFE4049884224
:1041900009D03E490968486832990AF013FC4FF487
:1041A000FA7001F0CBF83F48007886E437480068A1
:1041B0000AF076FE3649884209D0344909684868D1
:1041C00032990AF0FFFB40F6B83001F0B7F83648F4
:1041D000007872E42DE9F047054642F210774FF07F
:1041E00032084FF47A7090FBF8F404EB84004FEA45
:1041F0004009322004FB00FA002612E02349096836
:104200005FED4B1A1FED4C1A5FED4D0A00EE105A90
:10421000B8EEC00AC86808F0A9F8A0B201F08EF89C
:104220002644BE42EADB20480078BDE8F08710B59E
:1042300000230A22012103200DF06CF81B490860BD
:1042400006232422022103200DF064F81849086097
:104250001848007800F00100002815D115481BF01F
:104260001FFB002810D00C201BF0A6F9041E05D05F
:10427000002120460EF028F9044600E000200E49F7
:1042800008600C48AFF3008010BD0000080000205B
:10429000000A01035461736B2074696D656F757456
:1042A000210A00006F4102086E410208C40000208C
:1042B000C8000020180600201C06002010B52DEDB7
:1042C000068B84B0044694ED020A10EE101A0846DC
:1042D00017F024F841EC180B94ED010A10EE101AB7
:1042E000084617F01BF841EC190B94ED000A10EE8C
:1042F000101A084617F012F841EC1A0B8DED028BDC
:104300008DED009B53EC1A2BFEA01BF07BF904B043
:10431000BDEC068B10BD1CB5044694ED000ABDEE45
:10432000C00A10EE100A00B2ADF8020094ED010AC6
:10433000BDEEC00A10EE100A00B2ADF8040094ED14
:10434000020ABDEEC00A10EE100A00B2ADF800007D
:10435000207B8DF807009DF806008DF806009DF87B
:104360000600217C0843C0B28DF806009DF80600C7
:10437000217D40EA4100C0B28DF806009DF806009C
:10438000A17D40EA8100C0B28DF806009DF80600CC
:10439000617D40EAC100C0B28DF80600E7490968B6
:1043A0004869694608F0A3F94FF47A6000F0C6FF47
:1043B0001CBD00B5B5B0002022909FEDE11ADFEDE5
:1043C000E00A9FEDDF0A2FA818F0D4FE9FEDDC1A5B
:1043D000DFEDDB0A9FEDDA0A099032A818F0CAFE79
:1043E000089000200190029003900490009009989A
:1043F000D0ED022A90ED012AD0ED001A089890ED38
:10440000021AD0ED010A90ED000A00231A4619465F
:1044100016A818F0B6FE9FEDCA1ADFEDC90A9FED87
:10442000C80A13A818F0A6FE9FEDC51ADFEDC40A4E
:104430009FEDC30A10A818F09DFE00200D900A20E1
:104440000C90BE4800680AF02BFDBE4988422AD075
:10445000BD480068099002200890002007900C9841
:1044600080B20799CDE90010B4480068406809ABF4
:104470000590089A0D9909F04FFF0690069810B91B
:10448000069835B000BDAD480068406805900D99AC
:104490000AF094F84FF4FA7000F050FF4FF4FA600D
:1044A00000F04CFF00BFA9481BF0ACF8A34800681F
:1044B0000AF0F6FCA349884230D0A0480068406862
:1044C00006901DF005FA8DED070ACDED080A8DED79
:1044D000091A9DED080A8DED130A98480068406896
:1044E00006901DF0F5F98DED070ACDED080A8DED6A
:1044F000091A9DED070A8DED140A9048006840687E
:1045000006901DF0E5F98DED070ACDED080A8DED59
:10451000091A9DED090A8DED150A35E087480068F6
:1045200080680146019002A807F0CBF902A80FC8E5
:10453000CDE90823CDE906019DED060A8DED130AAC
:104540007E48006880680146019002A807F0B9F92A
:1045500002A80FC8CDE90823CDE906019DED070AA1
:104560008DED140A7548006880680146019002A824
:1045700007F0A7F902A80FC8CDE90823CDE9060185
:104580009DED080A8DED150A1598039016F0C6FEEC
:10459000CDE908011498039016F0C0FECDE906019C
:1045A0001398039016F0BAFECDE90401DDE9080185
:1045B000CDE90201DDE90601CDE900019DED040B25
:1045C00053EC102B62A01BF01DF89FED5D1ADFED80
:1045D0005C0A9FED5B0A2FA818F0CCFD0990002023
:1045E0000123CDE901300390049014200090099834
:1045F000D0ED022A90ED012AD0ED001A9DED151A9A
:10460000DDED140A9DED130A00231A46194623A86E
:1046100018F0B7FD30220146089016A818F0DAF914
:1046200016A8FFF778FE59481AF0ECFF43480068D7
:104630000AF036FC4349884230D040480068406860
:1046400006901DF045F98DED070ACDED080A8DEDB8
:10465000091A9DED080A8DED100A38480068406877
:1046600006901DF035F98DED070ACDED080A8DEDA8
:10467000091A9DED070A8DED110A3048006840685F
:1046800006901DF025F98DED070ACDED080A8DED98
:10469000091A9DED090A8DED120A7DE02748006890
:1046A00080680146019002A807F00BF902A80FC824
:1046B000CDE90823CDE906019DED060A8DED100A2E
:1046C0001E48006880680146019002A807F0F9F8CA
:1046D00002A80FC8CDE90823CDE906019DED070A20
:1046E0008DED110A1548006880680146019002A806
:1046F00007F0E7F802A80FC8CDE90823CDE90601C5
:1047000046E000004E65772047696D62616C20725B
:104710006F746174696F6E20616E676C6520697378
:10472000205B2025302E33662C2025302E33662C3E
:104730002025302E3366205D0A0A00000800002084
:1047400000000000000A01036C4102084C630208EB
:10475000496E697469616C2047696D62616C207291
:104760006F746174696F6E20616E676C653A205B6F
:104770002025302E33662C2025302E33662C202524
:10478000302E3366205D0A0A00000000F86402083B
:104790009DED080A8DED120A002001900290039011
:1047A000049014200090DDED122A9DED112ADDED1C
:1047B000101A9DED151ADDED140A9DED130A4FF444
:1047C000E163C822002123A818F0DBFC3022014657
:1047D000099016A818F0FEF816A8FFF79CFDFE48F1
:1047E00000680AF05DFBFD49884230D0FA48006855
:1047F000406806901DF06CF88DED070ACDED080AB3
:104800008DED091A9DED080A8DED100AF248006839
:10481000406806901DF05CF88DED070ACDED080AA2
:104820008DED091A9DED070A8DED110AEA48006821
:10483000406806901DF04CF88DED070ACDED080A92
:104840008DED091A9DED090A8DED120A35E0E24859
:10485000006880680146019002A807F032F802A8BB
:104860000FC8CDE90823CDE906019DED060A8DEDBF
:10487000100AD948006880680146019002A807F034
:1048800020F802A80FC8CDE90823CDE906019DED67
:10489000070A8DED110AD048006880680146019032
:1048A00002A807F00EF802A80FC8CDE90823CDE949
:1048B00006019DED080A8DED120A10A8FFF7FEFC17
:1048C000C7A01AF09FFECDA01AF09CFEC248006857
:1048D0000069099007F010FACDA01AF093FED848AD
:1048E0001AF090FE1FED6A1A5FED6B0A1FED6C0A5D
:1048F0002FA818F03FFC099000200123CDE90130DA
:1049000003900490142000900998D0ED022A90EDB5
:10491000012AD0ED001A9DED151ADDED140A9DED6A
:10492000130A0023C74A194623A818F02AFC30228C
:104930000146089016A818F04DF816A8FFF7EBFCF2
:10494000A54800680AF0ACFAA449884230D0A248D1
:104950000068406806901CF0BBFF8DED070ACDEDA6
:10496000080A8DED091A9DED080A8DED100A9A4886
:104970000068406806901CF0ABFF8DED070ACDED96
:10498000080A8DED091A9DED070A8DED110A92486E
:104990000068406806901CF09BFF8DED070ACDED86
:1049A000080A8DED091A9DED090A8DED120A35E010
:1049B0008948006880680146019002A806F081FFDE
:1049C00002A80FC8CDE90823CDE906019DED060A2E
:1049D0008DED100A8048006880680146019002A8A9
:1049E00006F06FFF02A80FC8CDE90823CDE9060144
:1049F0009DED070A8DED110A774800688068014631
:104A0000019002A806F05DFF02A80FC8CDE90823B7
:104A1000CDE906019DED080A8DED120A10A8FFF7F9
:104A20004DFC6FA01AF0EEFD87A01AF0EBFD6A486E
:104A300000680069099007F066F988481AF0E2FDFD
:104A400087A01AF0DFFD6420ADF83A003220ADF8FF
:104A50003C006FF0C700ADF838004FF47A600B905F
:104A600064200A90002009900FE05B4800684069CC
:104A70000EA9089007F051FE0A9880B2089000F045
:104A80005DFCDDE90901084409900B990998884209
:104A9000EBDB514800680AF003FA5049884230D0F5
:104AA0004D480068406806901CF012FF8DED070A23
:104AB000CDED080A8DED091A9DED080A8DED100A5D
:104AC00045480068406806901CF002FF8DED070A1B
:104AD000CDED080A8DED091A9DED070A8DED110A3D
:104AE0003D480068406806901CF0F2FE8DED070A14
:104AF000CDED080A8DED091A9DED090A8DED120A1A
:104B000035E03548006880680146019002A806F04B
:104B1000D8FE02A80FC8CDE90823CDE906019DED16
:104B2000060A8DED100A2C48006880680146019045
:104B300002A806F0C6FE02A80FC8CDE90823CDE9F9
:104B400006019DED070A8DED110A23480068806873
:104B50000146019002A806F0B4FE02A80FC8CDE9F4
:104B60000823CDE906019DED080A8DED120A10A873
:104B7000FFF7A4FB49A01AF045FD9FED4E1ADFEDAB
:104B80004D0A9FED4C0A2FA818F0F4FA0990002066
:104B90000123CDE90130039004901420009009987E
:104BA000D0ED022A90ED012AD0ED001A9DED151AE4
:104BB000DDED140A9DED130A00231A46194623A8B9
:104BC00018F0DFFA30220146089016A817F002FF0D
:104BD00016A8FFF7A0FB6FE008000020000A010301
:104BE000456E737572652053442063617264206959
:104BF000732070726573656E742E0A0054616B6960
:104C00006E6720706963747572652E2E0A0000004D
:104C1000436865636B20444A4920474F20417070C8
:104C2000206F72205344206361726420666F72208B
:104C300061206E657720706963747572652E0A0055
:104C4000AC6402080CFEFFFF5374617274696E67F6
:104C500020766964656F2E2E0A000000E463020866
:104C600053657474696E6720526F6C6C2072617446
:104C70006520746F2031302C205069746368207275
:104C800061746520746F20352C2059617720526142
:104C9000746520746F202D32302E0A0052657365C2
:104CA0007474696E6720706F736974696F6E2E2EED
:104CB0002E0A000000000000634800680AF0F0F8C7
:104CC0006249884230D060480068406806901CF015
:104CD000FFFD8DED070ACDED080A8DED091A9DED5A
:104CE000080A8DED100A58480068406806901CF0CC
:104CF000EFFD8DED070ACDED080A8DED091A9DED4A
:104D0000070A8DED110A50480068406806901CF0B3
:104D1000DFFD8DED070ACDED080A8DED091A9DED39
:104D2000090A8DED120A39E047480068806801469B
:104D3000019002A806F0C5FD03A80DC80299CDE9AF
:104D40000823CDE906109DED060A8DED100A3E48B8
:104D5000006880680146019002A806F0B2FD02A931
:104D60000EC90598CDE90723069109909DED070A24
:104D70008DED110A3448006880680146019002A850
:104D800006F09FFDDDE90403DDE90212CDE9080329
:104D9000CDE906129DED080A8DED120A10A8FFF765
:104DA0008DFA2BA01AF02EFC2748006800690990A4
:104DB00006F0B0FF4FF47A7000F0C0FA29A01AF0A4
:104DC00021FC214800680AF06BF8204988420AD08B
:104DD0001D480068406809900D9909F0F3FD40F600
:104DE000B83000F0ABFA0120FFF74BBB10B5002341
:104DF0000A22012103200CF08DFA264908600623BF
:104E00002422022103200CF085FA2349086023485C
:104E1000007800F00100002815D120481AF040FD6C
:104E2000002810D00C201AF0C7FB041E05D000216A
:104E300020460DF049FB044600E0002018490860B8
:104E40001648AFF3008010BD08000020000A0103DF
:104E500053746F7070696E6720766964656F2E2E6B
:104E60002E0A0000436865636B20444A4920474F7F
:104E700020417070206F722053442063617264205F
:104E8000666F722061206E657720766964656F2E8B
:104E90000A000000D0000020D400002018060020E6
:104EA0001C06002000B52DED040B2DED108B89B0F4
:104EB0009DED1B0A20EE000A10EE101A084616F0AF
:104EC0002DFA41EC190B9DED1C0A20EE000A10EEA4
:104ED000101A084616F022FA41EC1F0B53EC192B5E
:104EE00016F057F841EC1E0B9FEDA10B53EC102B65
:104EF00016F0F6F841EC1D0B9FED9F0B53EC102BB9
:104F000016F047F841EC1A0B9DED1A0ADDED1B0A6D
:104F100020EE200ADDED190A9DED1C1A00EE810A33
:104F200010EE101A084616F0F9F941EC1D0B9FED32
:104F3000940B53EC102B16F0D3F841EC1B0B9DEDAA
:104F40001A0ADDED1C0A20EE200ADDED190A9DED9E
:104F50001B1A00EEC10A10EE101A084616F0DEF910
:104F600041EC1D0B9FED820B53EC102B16F0B8F8A3
:104F700041EC180B9DED1B0ADDED1C0A20EE200A0A
:104F8000DDED190A9DED1A1A00EE810A10EE101AD5
:104F9000084616F0C3F941EC1D0B9FED790B53EC5D
:104FA000102B16F09DF841EC1C0B9DED1A0A20EE1B
:104FB000000A10EE101A084616F0B0F941EC1F0B6B
:104FC00053EC192B15F0E5FF41EC1E0B9FED680B20
:104FD00053EC102B16F084F841EC1D0B9FED660B83
:104FE00053EC102B15F0D5FFCDE900019FED620BBE
:104FF00053EC102B51EC180B16F0BCF902D29FEDBC
:105000005E0B03E0B0EE480AF0EE680AB0EE408AAC
:10501000F0EE608A9FED5C0B53EC102B51EC180BFB
:1050200016F090F902D29FED580B03E0B0EE480A5B
:10503000F0EE680AB0EE408AF0EE608AB0EE480A00
:10504000F0EE680A1AF0D8FC8DED060B9DED001B02
:10505000B0EE4C0AF0EE6C0A1AF0EAFF8DED040B8C
:10506000B0EE4A1AF0EE6A1AB0EE4B0AF0EE6B0A96
:105070001AF0DEFF8DED020B9DED020B9DED041B82
:105080009DED062B09B0BDEC108B0FBD00B52DEDCD
:10509000040B87B0DDED0A1A9DED091ADDED080A53
:1050A0009DED070AFFF7FEFE8DED000B8DED021B57
:1050B0008DED042B9DED000B0BB000BD00B52DED6B
:1050C000040B87B0DDED0A1A9DED091ADDED080A23
:1050D0009DED070AFFF7E6FE8DED000B8DED021B3F
:1050E0008DED042B9DED020B0BB000BD00B52DED39
:1050F000040B87B0DDED0A1A9DED091ADDED080AF3
:105100009DED070AFFF7CEFE8DED000B8DED021B26
:105110008DED042B9DED040B0BB000BD10B52DEDF6
:10512000048BB0EE408AF0EE608A9FED190B53ECD1
:10513000102B51EC180B15F0D3FF41EC190BB0EE0E
:10514000490AF0EE690ABDEC048B10BD10B50023CE
:105150000A22012103200CF0DDF80F490860062324
:105160002422022103200CF0D5F80C49086010BD60
:1051700000000000000000C0000000000000F03F40
:105180000000000000000040000000000000F0BF30
:10519000E8C35CB0DDA54C40DC000020E00000204E
:1051A00010B500F09DF84FF4A06000F0B7F912F0D0
:1051B00052FA11F081FC10F068FA10F0DFFB10F0E9
:1051C0008EFF00F046F913F0BDFA10F00CF911F063
:1051D000EFF810BD10B500230A22012103200CF0C6
:1051E00099F80549086006232422022103200CF0C7
:1051F00091F80249086010BDE8000020EC00002092
:105200001FB50121084601F0DAFE0121084601F030
:10521000D6FE0020ADF80C00ADF80600C7200290C5
:1052200042F2CF00ADF8040000208DF80E0001A975
:10523000534802F06CF819208DF8000003208DF817
:1052400001008DF8020001208DF80300684600F08F
:105250006AF901214A4802F00FFD0122114648482F
:1052600002F0F6FC0021464802F0DAF81FBD1FB537
:105270000121084601F092FE0121084601F08EFE50
:105280000020ADF80C00ADF80600C72002902720E2
:1052900002904AF20F40ADF8040001A94FF080409F
:1052A00002F035F81C208DF8000002208DF8010076
:1052B00003208DF8020001208DF80300684600F0FD
:1052C00032F90121880702F0D7FC0122114690072C
:1052D00002F0BEFC00214FF0804002F0A1F81FBD9B
:1052E00030B5284800684FF47A72B0FBF2F1B1F1A2
:1052F000807F01D301201DE021F07F40401E4FF050
:10530000E022506150170022002807DA13071D0E13
:105310001D4B00F00F04241F1D5503E013071C0E46
:105320001A4B1C5400BF00204FF0E0229061072070
:105330001061002008B100BFFEE730BD002106E08B
:1053400047F2305100BF0A1EA1F10101FBD1021E3C
:10535000A0F1010398B2F3D1704710B500230A22DF
:10536000012103200BF0D6FF0949086006232422FF
:10537000022103200BF0CEFF0649086010BD00009B
:10538000000001402401002018ED00E000E400E0EE
:10539000F8000020FC00002000B587B0012108467D
:1053A00001F0C9FD0121102001F009FE4FF4C06099
:1053B000059002208DF8180003208DF819000020B8
:1053C0008DF81A0001208DF81B0005A94B4801F04B
:1053D000CFFA07220921494801F055FB07220A218B
:1053E000464801F050FB4FF4613001900020ADF8C9
:1053F0000800ADF80A00ADF80C00ADF810000C2064
:10540000ADF80E0001A93E4802F08DFD012240F2E8
:1054100025513B4802F0C5FE0121394802F00BFE40
:1054200000BF8021364802F0E1FE0128F9D107B023
:1054300000BD08B501208DF801008DF8020025207F
:105440008DF8000001208DF80300684600F06BF82D
:1054500008BD10B5FFF7A0FFFFF7EBFF10BD10B5BB
:10546000ADF51C7D2021264802F0C0FE01282FD179
:10547000002024490870224802F00CFEC4B22249E0
:105480000968086821490A6821460FF0A6FB2049EF
:1054900008700846007801281AD14FF498721B480A
:1054A00001680C31684617F095FA4FF49E72174860
:1054B00001684DA817F08EFA13484DA90EC900686F
:1054C0000BF003FC00201249087001200D49087000
:1054D0000DF51C7D10BD10B500230A22012103200B
:1054E0000BF018FF0B490860062324220221032039
:1054F0000BF010FF0849086010BD000000000240DA
:1055000000100140040100200800002004000020D9
:1055100001000020080100200C0100203249014355
:10552000324A1160704770B5002100230F22C47801
:105530001CB32E4C246804F4E064C4F5E064C4F3A6
:105540000721C1F10404E3B20A4144789C40E1B26E
:105550008478144021430C07210E254C05786155B1
:10556000047804F01F050124AC4005786D11AD00EE
:1055700005F1E025C5F8004109E0047804F01F05B5
:105580000124AC401B4D0678761145F8264070BDCD
:10559000194A0A400243154B1B1F1A60704739B164
:1055A000124A121D12680243104B1B1D1A6006E0BE
:1055B0000E4A121D126882430C4B1B1D1A60704765
:1055C000042808D14FF0E021096941F004014FF0AF
:1055D000E022116107E04FF0E021096921F00401A8
:1055E0004FF0E022116170470000FA050CED00E079
:1055F00000E400E080E100E080FFFF1F10B50446FA
:10560000FE48844209D10121480601F031FD002104
:105610004FF0007001F02CFD08E00121880601F038
:1056200027FD00214FF0806001F022FD10BD30B554
:10563000024600200023146824F002041460146859
:1056400044F00104146000E05B1C546804F00104A1
:105650001CB94FF6FF74A342F6D1546804F001045C
:105660000CB900206CE08C79012C04D1146844F052
:105670008004146003E0146824F080041460CC7982
:10568000012C04D1146844F04004146003E0146851
:1056900024F0400414600C7A012C04D1146844F006
:1056A0002004146003E0146824F0200414604C7A91
:1056B000012C04D1146844F01004146003E0146851
:1056C00024F0100414608C7A012C04D1146844F086
:1056D0000804146003E0146824F008041460CC7A11
:1056E000012C04D1146844F00404146003E014682D
:1056F00024F0040414608C78A407CD7844EA05648F
:105700000D7944EA05444D7944EA05540D886D1E2F
:105710002C43D461146824F001041460002300E0D9
:105720005B1C546804F001041CB14FF6FF74A342E3
:10573000F6D1546804F001040CB1002000E001200F
:1057400030BD10B50021837A012202FA03F1AC4A80
:10575000126842F00102AA4B1A60A94A1C32126870
:105760008A43A74B1C331A60027BCAB9A44A0C3285
:1057700012688A43A24B0C331A604288C38842EAFB
:1057800003439F4A4032847A42F834300288838847
:1057900042EA03439A4A4032847A02EBC4025360DD
:1057A000027B012A19D1964A0C3212680A43944BA3
:1057B0000C331A604288038842EA0343904A40321D
:1057C000847A42F83430C288838842EA03438C4AA0
:1057D0004032847A02EBC4025360C27A3AB9884AF2
:1057E000121D12688A43864B1B1D1A6006E0844A0C
:1057F000121D12680A43824B1B1D1A60028932B9BE
:105800007F4A143212688A437D4B14331A6002892E
:10581000012A06D17A4A143212680A43784B1433AB
:105820001A60427B012A06D1754A1C3212680A436B
:10583000734B1C331A60724A126822F00102704BDB
:105840001A6010BD00218171C171017241728172B3
:10585000C1728170C1700321017102214171012166
:10586000018070476649096841F00101644A11608E
:105870001146096843F60E729143614A1160114660
:10588000096841EA002111601146096821F001010F
:105890001160704721B1026842F48032026003E077
:1058A000026822F4803202607047E1B1026842F07F
:1058B000800202604FF4C272125842F480734FF4B7
:1058C000C27213504FF4CA72125842F480734FF4EC
:1058D000CA7213504FF4D272125842F480734FF4CC
:1058E000D27213501BE0026822F0800202604FF473
:1058F000C272125822F480734FF4C27213504FF4E4
:10590000CA72125822F480734FF4CA7213504FF4C3
:10591000D272125822F480734FF4D272135070472F
:1059200010B502460020936803F08063B3F1806FE6
:1059300000D110E0936803F00063B3F1006F01D170
:10594000012008E0936803F08053B3F1805F01D138
:10595000022000E00420042879D002F5C07303EB94
:1059600000131B6803F0010402F5C07303EB00137E
:105970001C600B7A7BB94B7A0C8843EA445302F5DE
:10598000C07404EB00142468234302F5C07404EBD4
:105990000014236010E00B7A4C6843EAC4034C7A8D
:1059A000234302F5C07404EB00142468234302F57A
:1059B000C07404EB001423608B7A03F00F038B7226
:1059C00002F5C07303EB00135B6823F00F0402F5CC
:1059D000C07303EB00135C6002F5C07303EB0013AC
:1059E0005B688C7A234302F5C07404EB0014636097
:1059F0008B7B1C064B7B44EA034403E000640040BD
:105A0000006600400B7B44EA0323CC7A234302F573
:105A1000C07404EB0014A3608B7C1C064B7C44EA2E
:105A200003440B7C44EA0323CC7B234302F5C0747C
:105A300004EB0014E36002F5C07303EB00131B6872
:105A400043F0010402F5C07303EB00131C6010BDAA
:105A500010B50246002321B1012907D002290FD138
:105A600009E09068F94C00EA04030BE09068F84CF8
:105A700000EA040306E09068F64C00EA040301E043
:105A8000002300BF00BFF44C181BA34216D007DC54
:105A900083B16FF08060184470B1022818D111E012
:105AA000B0F5007F10D0ED4C204448B1B0F5003F78
:105AB0000ED10BE002230DE000230BE0002309E0F0
:105AC000002307E0012305E0012303E0012301E0B7
:105AD000002300BF00BFD8B210BD21B1012907D0FB
