:020000040800F2
:100000004887002031500008395000083B50000854
:100010003D5000083F50000841500008000000001B
:100020000000000000000000000000004350000835
:100030004550000800000000475000081DB90008A6
:100040004B5000084B5000084B5000084B50000824
:100050004B5000084B5000084B5000084B50000814
:100060004B5000084B5000084B5000084B50000804
:100070004B5000084B50000845BF0008A7C10008BE
:100080004B5000084B5000084B5000084B500008E4
:1000900077D200084B5000084B5000084B50000826
:1000A0004B500008DB1A00084B5000084B5000086A
:1000B0004B5000084B5000084B5000084B500008B4
:1000C0004B5000084B5000084B5000084B500008A4
:1000D0004B500008F71B0008E30E00084B500008C7
:1000E0004B5000084B5000084B50000895F1000899
:1000F0004B50000831F300084B5000084B500008EB
:100100004B5000084B5000084B5000084B50000863
:100110004B5000084B5000084B5000084B50000853
:100120004B5000084B5000084B5000084B50000843
:100130004B5000084B5000084B5000084B50000833
:100140004B5000084B5000084B5000084B50000823
:100150004B5000085BC0000873BD00084B500008FE
:100160004B5000084B5000084B5000084B50000803
:100170004B5000084B5000084B5000084B500008F3
:100180004B5000084B500008DFF810D012F004F973
:1001900011F0A2FC00480047330500084887002002
:1001A00010B5FE480068C0F1FF3041F28831884246
:1001B0000BD3FB480068F9490968401AB0F5487F3D
:1001C00003D3F6480068F6490860F6480068F3492A
:1001D0000968401A41F2883188420BD30D21F24858
:1001E00011F05DFBF0480A38C07D00F0EF00EE49E9
:1001F0000A39C875ED480068E8490968401A41F2B3
:100200008831884207D3E8480A38C07D00F0DF0013
:10021000E5490A39C875E6480068E0490968401AA6
:1002200041F28831884207D3DF480A38C07D00F0A8
:10023000F700DD490A39C875DE480068D749096802
:10024000401A41F28831884207D3D7480A38007EE5
:1002500000F0FE00D4490A390876D7480068CF4933
:100260000968401A41F28831884207D3CE480A38DB
:10027000007E00F0FD00CC490A390876CF480068BE
:10028000C6490968401A41F28831884207D3C648F6
:100290000A38007E00F0F700C3490A390876C848DA
:1002A0000068BE490968401A41F28831884207D384
:1002B000BD480A38007E00F0EF00BB490A390876D5
:1002C00010BD10B52DED048BBE480078042802D077
:1002D000BDEC048B10BDBC48807D00B9F8E7BA487E
:1002E000007F48B9B748007A28B1B648007A20F0B4
:1002F0000200B4490872EBE710F0C9FD0446002C77
:1003000071D0B048007A40F00200AE49087204F0A3
:10031000010098B1AC49088C11F087FD41EC190B34
:100320009FEDAA0B53EC102B11F08DFC41EC180B38
:1003300011F004FEA749C1F801001DE004F004001B
:1003400098B1A149088C11F070FD41EC190B9FED9B
:10035000A20B53EC102B11F076FC41EC180B11F0B2
:10036000EDFD9C49C1F8010006E09FED9D0A10EEED
:10037000100A9849C1F8010004F0020098B19249AE
:10038000088C11F052FD41EC190B9FED900B53ECD2
:10039000102B11F058FC41EC180B11F0CFFD8D49DA
:1003A000C1F805004AE004F0080098B18649088CBD
:1003B00011F03BFD41EC190B9FED870B53EC102B1B
:1003C00011F041FC41EC180B11F0B8FD8149C1F866
:1003D000050033E09FED820A10EE100A7D49C1F856
:1003E00005002BE0FFE77748007A28B17548007ACE
:1003F00020F00200734908727648D0F8010000EE40
:10040000100AB5EEC00AF1EE10FA06D09FED740A9C
:1004100010EE100A6F49C1F801006E48D0F80500CF
:1004200000EE100AB5EEC00AF1EE10FA06D09FED0C
:100430006C0A10EE100A6749C1F8050000BF47E7D3
:10044000594A0A3A1078D1785E4A1278042A00D0C4
:100450007047FC2801D0FC2910D10122594B5A7059
:10046000B7EE000A10EE102A5A4BC3F80920554A7D
:10047000127A42F00102534B1A721CE00022514BD7
:100480005A70544AD2F8092000EE102AB5EEC00A7C
:10049000F1EE10FA06D09FED520A10EE102A4D4BE5
:1004A000C3F80920474A127A2AB1464A127A22F042
:1004B0000102444B1A7200BFCAE710B549480068F0
:1004C00036490968401AA02832D3344800684549A3
:1004D0000860454801F007FD4448006800F001004D
:1004E00060B90FF06BFFFFF7ABFF2C480068C0F15D
:1004F000FF30B0F57A6F01D30FF0F2FF3B48006890
:100500000A21B0FBF1F201FB120060B90DF0D3F942
:100510000FF064FF21480068C0F1FF30B0F57A6F3A
:1005200001D30FF06CFF31480068401C2F49086070
:1005300010BD1CB501F00AFA4FF47A7001F0BEFA52
:1005400064202B4B2BA22F4900902F4812F0B8F9B2
:100550000446601C38B1B4F5967F04D22A492BA01A
:1005600012F09EF902E02AA012F09AF930A033A10D
:1005700035A337A2CDE9001038A13B4812F090F91D
:1005800066201B4B1BA21F4900901F4812F098F9D0
:100590000446601C00B169E071E0000044090020DD
:1005A0006009002068090020EB4100206C09002050
:1005B0007009002074090020780900207C090020BF
:1005C0008009002010010020C04200209A999999CA
:1005D0009999B93F100000209A9999999999B9BFB2
:1005E0000000000064090020002001408409002070
:1005F000E2440108494D504F52545F4E4F54494315
:1006000045000000A0560108FE24002025730000CC
:100610004552524F523A206C6F67207072696E7467
:10062000657220696E6E6572206661756C740A0071
:1006300031303A33363A3032000000004D617920D3
:1006400020352032303137005630312D3030000027
:100650003130303030303030000000004D61696E94
:10066000426F617264000000E4560108B4F5967FA1
:1006700005D23449AFF26C0012F012F903E0AFF288
:10068000700012F00DF900F0F4FF10F0B0FA10F065
:1006900011FD10F092FE15E001F0B9F810F080FAAB
:1006A0000FF0D8FDFFF709FF10F0A5FAFFF709FEDC
:1006B000FFF776FD0CF0ABF80CF034FD10F03CFDCC
:1006C0000CF0DEFEE8E738B504460D460020034690
:1006D0002A46214600901C48006805F0EFFD0020E6
:1006E0001A4908601A4800681A49086038BD10B5F0
:1006F0001548006809F064F910BD38B5042012F0FF
:10070000BBF804461449016000BF14490160144855
:100710000460002003460246009011480168114819
:1007200004F00EFD084801680F4807F08BFC0648EE
:1007300001680E4806F0AEFC034801680C480AF058
:1007400087FE38BDFE24002004000020A0024342A2
:10075000440900204809002048560108E8550108CE
:1007600000000020880A002008000020340000203B
:10077000AC1F0020F0B599B004460D461746286816
:10078000C0F30920103802287ED82868C0F3092059
:10079000A0F1100205F10C0118A811F059F8BDF8EC
:1007A0006010204607F01CFBBDF8600009286CD2E1
:1007B000DFE800F0053959387C9CBCDCFD004020A6
:1007C000C64BC7A2CAA10090D34812F079F80646DA
:1007D000701C38B1B6F5967F04D2CF49CFA012F085
:1007E0005FF802E0CEA012F05BF80420D449087054
:1007F0002146684605F0DEFC302269460CA811F05F
:1008000027F8179860B12146684605F0D3FC3022DE
:1008100069460CA811F01CF82046179909F03AFA1D
:1008200019B0F0BD0AE14A20AC4BC6A2C7A10090A6
:10083000CE4812F045F80646701C58B1B6F5806FE8
:1008400008DA41F208510859095909684A6D00212E
:10085000904707E041F208510859095909684A6D63
:10086000AFA19047EAE04D209C4BB6A2C0A10090FA
:10087000BE4812F025F80646701C70B1B6F5806FC0
:100880000BDA41F2085101E0D9E0B0E0085909590A
:1008900009684A6D0021904707E041F20851085964
:1008A000095909684A6D9EA19047C7E050208B4BBB
:1008B000A4A2B7A10090AD4812F002F80646701C41
:1008C00058B1B6F5806F08DA41F208510859095954
:1008D00009684A6D0021904707E041F20851085924
:1008E000095909684A6D8EA19047A7E053207B4BB8
:1008F00094A2B0A100909D4811F0E2FF0646701C42
:1009000058B1B6F5806F08DA41F208510859095913
:1009100009684A6D0021904707E041F208510859E3
:10092000095909684A6D7EA1904787E057206B4BB3
:1009300084A2AD4900908D4811F0C2FF0646701C9C
:1009400058B1B6F5806F08DA41F2085108590959D3
:1009500009684A6D0021904707E041F208510859A3
:10096000095909684A6D6EA1904767E05B205B4BAF
:1009700074A29EA100907D4811F0A2FF0646701C53
:1009800060B1B6F5806F09DA41F20851085909598A
:1009900009684A6D0021904708E008E041F20851DB
:1009A0000859095909684A6D5DA1904746E05E20E3
:1009B0004A4B64A297A100906C4811F081FF064653
:1009C000701C58B1B6F5806F08DA41F20851085929
:1009D000095909684A6D0021904707E041F2085122
:1009E0000859095909684A6D4DA1904726E0BDF89C
:1009F0006010204607F0FAF8F8B96320374B51A28F
:100A00008FA10090594811F05BFF0646701C58B149
:100A1000B6F5806F08DA41F208510859095909689A
:100A20004A6D0021904707E041F2085108590959E1
:100A300009684A6D3AA1904700BF00BF26E02889A7
:100A400080B22968C1F304616A22244BCDE90021F8
:100A500002903CA285A1454811F032FF0646701C69
:100A600058B1B6F5806F08DA41F2085108590959B2
:100A700009684A6D0021904707E041F20851085982
:100A8000095909684A6D26A1904700BF00BFC7E613
:100A900010B58EB01920844B11A284A100901E487D
:100AA00011F00EFF0446601C38B1B4F5967F04D2F5
:100AB00019491AA011F0F4FE02E019A011F0F0FE9D
:100AC0008748029087480D900023AFF2573202A961
:100AD0008548006804F080FD0EB010BD1B4501087C
:100AE000494D504F52545F4E4F544943450000000A
:100AF00025732025732C6C696E652025643A20418E
:100B00006374697661746564207375636365737378
:100B100066756C6C790A0000FE24002025730000C5
:100B20004552524F523A206C6F67207072696E7452
:100B3000657220696E6E6572206661756C740A005C
:100B4000100100204552524F52000000257320250D
:100B5000732C6C696E652025643A2057726F6E673E
:100B600020706172616D657465720A00E02000207A
:100B700025732025732C6C696E652025643A204509
:100B80006E636F6465206572726F720A0000000008
:100B900025732025732C6C696E652025643A2044EA
:100BA0004A49474F206E6F7420636F6E6E656374A1
:100BB00065640A0025732025732C6C696E652025F9
:100BC000643A20444A49474F206E6F7420636F6E29
:100BD0006E656374656420746F2074686520696E47
:100BE0007465726E65740A003457010825732025F8
:100BF000732C6C696E652025643A2057726F6E679E
:100C00002053444B207065726D697373696F6E0A6F
:100C10000000000025732025732C6C696E6520256B
:100C2000643A2053444B2076657273696F6E20647A
:100C30006964206E6F74206D617463680A0000003F
:100C400025732025732C6C696E652025643A205726
:100C500068696C652063616C6C696E672074686993
:100C6000732066756E6374696F6E000025732025AE
:100C7000732C6C696E652025643A2041434B2069D2
:100C80007320657863657074696F6E2C207365736B
:100C900073696F6E2069642025642C7365717565B6
:100CA0006E63652025640A000D4501082573202523
:100CB000732C6C696E652025643A204040404040AA
:100CC000404040557365725F416374697661746535
:100CD000202829214040404040404040400A000038
:100CE0001FBF0F007F0000200400002010B500226D
:100CF000012111480AF0B5FB40221049104810F0BC
:100D0000A7FD10BD10B5002201210B480AF0A9FB78
:100D10004FF480600A49086048608860C8600861D4
:100D200048618861C861086248628862C862086375
:100D300048638863C86310BDAC1F0020C00000205A
:100D40003F0000202DE9F04107460C461646254697
:100D500014B90020BDE8F0810BE000BF40210C4831
:100D600003F0FEFF0028F9D015F8011B084803F036
:100D700047FF3000A6F10106EFD10120EAE7024665
:100D8000044800680449086008460068002170476C
:100D900000100140440900202001002000B52DED85
:100DA000068BEDB0B0EE409AF0EE609AB0EE418A5C
:100DB000F0EE618A324A19EE100A19EE901A1061AB
:100DC000516130480168684605F0EAFECC22694668
:100DD0003AA810F03DFD1C224AA933A810F038FDB6
:100DE0002748DDE933120160426026480168684601
:100DF00005F0D6FECC2269463AA810F029FD1C2247
:100E00004AA933A810F024FD1D48DDE935128160A0
:100E1000C2601822014667A810F01AFD9DED6B2BE9
:100E20009DED691B9DED670B174808F0C2FCB0EE05
:100E3000480A154808F0DDFC18EE900A11F03AF85F
:100E400041EC1A0BB0EE4A0AF0EE6A0A0E4808F0BE
:100E5000C7FC002211460C4808F0DCF86DB0BDEC70
:100E6000068B00BD10B500221146074808F046F970
:100E700010BD10B503480168034808F054F810BDD0
:100E80002820002004000020F01F002000F07F0236
:100E900000EE102AB8EEC00AF0EE400A00EE101A7A
:100EA000B8EE400AB0EE401A00F0800262B1DFED09
:100EB000F21AB0EE410A00EEA10AF1EE401A9FEDDF
:100EC000EF2A81EE820A7047DFEDEB1AB0EE410A9D
:100ED00000EEA10A9FEDE92AC0EE021AB0EE610A07
:100EE000F1E710B52021E64803F03AFF01282AD1A6
:100EF000E34803F089FEC4B2E248406A48B9FA2CDC
:100F000020D1E048416A001D44540120DD49486277
:100F100018E0FE2C0DD1DB48416A001D4454001F2F
:100F2000406A401CD749886200204862012008605E
:100F300008E0D448416A001D4454001F406A401C28
:100F4000D049486200BF10BDF0B52DED028BE9B06D
:100F500004460D4616462068012802D10020206074
:100F600003E069B0BDEC028BF0BD2079FA2802D114
:100F70006079FB2800D0F4E7A0790A287DD2DFE869
:100F800000F0050B0E1A26DFF1F0EFEE00221146FD
:100F9000284605F029FC64E1FFF77AFD61E1E0797C
:100FA00008B1012000E00020014600231A4628462F
:100FB00005F087F855E1E07908B1012000E0002054
:100FC000014600231A46304607F046F949E1E07928
:100FD000012871D1207AAC490870A17A607AFFF7B4
:100FE00055FF10EE100AA849C1F80100217BE07AF4
:100FF000FFF74CFF10EE100AA349C1F80500A17BD2
:10100000607BFFF743FF10EE100A9F49C1F809000B
:10101000217CE07BFFF73AFF10EE100A9A49C1F8F5
:101020000D00304607F089F90121880702F0B2FF70
:10103000A17A607AFFF72AFF10EE107A384610F096
:1010400039FF41EC180B53EC182B90A011F028FC41
:10105000217BE07AFFF71AFF10EE107A384610F085
:1010600029FF41EC180B53EC182B8CA011F018FC45
:10107000A17B607BFFF70AFF00E0F1E010EE107A41
:10108000384610F017FF41EC180B53EC182B87A0D3
:1010900011F006FC217CE07BFFF7F8FE10EE107AE1
:1010A000384610F007FF41EC180B53EC182B82A0C8
:1010B00011F0F6FB43E0FFE7E07902283FD1A17A87
:1010C000607AFFF7E3FE10EE107A384610F0F2FE79
:1010D00041EC180B53EC182B6CA011F0E1FB217BB9
:1010E000E07AFFF7D3FE10EE107A384610F0E2FEF9
:1010F00041EC180B53EC182B68A011F0D1FBA17B2D
:10110000607BFFF7C3FE10EE107A384610F0D2FE77
:1011100041EC180B53EC182B64A011F0C1FB217C9F
:10112000E07BFFF7B3FE10EE107A384610F0C2FEF7
:1011300041EC180B53EC182B5FA011F0B1FB90E0C1
:10114000E079012804D002280DD0032819D111E03C
:1011500000231A460121304606F0B7FF11E074E083
:101160004DE02DE00FE000231A460421304606F042
:10117000ACFF06E000231A460621304606F0A5FF24
:1011800000BF00BF6DE0E07930B9FFF7BBFD002183
:101190004C4802F0FFFE12E0E079022806D1FFF78A
:1011A000A5FD0121474802F0F5FE08E0E07901289D
:1011B00005D1FFF7A7FD0121424802F0EBFE50E008
:1011C000E079C8B9207A10F030FE41EC180BA07A13
:1011D00000EE100AB8EE400AF0EE401A607A00EE17
:1011E000100AB8EE400AB0EE401AB0EE480AF0EE2F
:1011F000680AFFF7D3FD01E0FFF734FE31E029462E
:10120000684605F0CDFCCC22694636A810F020FBDC
:10121000DDF8DA003390DDF8DE003490BDF8E2004E
:10122000ADF8D40028A0339911F03AFB294603A861
:1012300005F0B6FCCC2203A936A810F009FB9DF8F6
:101240009D1126A011F02CFB0BE0E079012802D1C2
:1012500000F0C1F903E0E07908B900F0E2F900E03C
:1012600000BF00BF00BF7CE606480021016041626C
:10127000816200BF70470000000080430000C84248
:101280000044004074200020981F0020726F6C6C96
:101290005F6F725F78203D25660A00007069746395
:1012A000685F6F725F79203D25660A007468725F1F
:1012B0007A203D25660A0000796177203D25660A7F
:1012C0000A0000000000014054696D655374616DAF
:1012D000702069732025640D0A0000004261747457
:1012E0006572792063617061636974792072656DDC
:1012F00061696E732025642070657263656E740D7C
:101300000A00000070B52DED068B04460D46F0EE88
:10131000408AB0EE608AB0EE419AF0EE619A38EE03
:10132000C90AB0EE40AA38EE690AF0EE40AA9FED75
:10133000C10A2AEE800A84ED000AB0EE480A10F0D5
:10134000FFF9DFEDBC0A6AEE200A20EE200A85EDE7
:10135000000ABDEC068B70BD0FB400B52DED048BFB
:1013600083B068469FEDB40A80ED000A9FEDB20A93
:1013700080ED010A9FEDB00A80ED020A00BF9DEDED
:101380000F1BB0EE410AF0EE610A51EC100B10F0A9
:10139000D5FD08EE100A9DED111BB0EE410AF0EEEE
:1013A000610A51EC100B10F0C9FD08EE900A9DED9A
:1013B000081BB0EE410AF0EE610A51EC100B10F080
:1013C000BDFD09EE100A9DED0A1BB0EE410AF0EEDC
:1013D000610A51EC100B10F0B1FD09EE900AF0EE2D
:1013E000481AB0EE681AF0EE490AB0EE690A01A98F
:1013F0006846FFF787FF9DED0C0A8DED020A9DED13
:10140000000ADDED010A9DED021A03B0BDEC048B6C
:101410005DF814FB00B52DED048B8DB0874890ED81
:10142000050ADFED870AB4EEE00AF1EE10FA0FD2FA
:10143000DFED811AB3EE091ADFED7F0A9FED7E0A18
:101440009121804806F0BEFF0DB0BDEC048B00BDBD
:101450007A4890ED0E0ADFED7C0A30EE200A80ED2E
:101460000E0AD0ED0E0AB0EE001A60EE810AB0EE60
:10147000600A10F0A1F9F3EE090A20EE200AB0EE9E
:10148000408A6E48D0ED0E0AB0EE600A10F058F9AE
:1014900020EE080AF0EE408A6848D0ED0E0AB0EE61
:1014A000600A10F089F920EE080AB0EE409A19227D
:1014B0006249193103A810F0CBF909225F491031B4
:1014C000684610F0C5F95D480FC8FFF745FF8DED80
:1014D0000A0ACDED0B0A8DED0C1A9DED0B1A39EEB3
:1014E000411AF0EE410A9DED0A1A38EEC11AB0EE2B
:1014F000410ADFED511AB3EE091A9121514806F065
:1015000061FF4E4890ED0E0ADFED500AB4EEE00A9E
:10151000F1EE10FA06DD9FED480A80ED0E0A00207C
:101520004649C86300BF00BF8EE72DE9F043E7B02E
:1015300007468846914608F10C054C462878022853
:1015400046D16878002843D1AD1C2E46307800F093
:101550002000C8B1394601A805F022FBCC2201A920
:1015600034A810F075F9192244A9204610F070F93A
:10157000E06B012808D194F83300032804D1606B94
:10158000012801D1FFF746FF308800F40070F8B160
:10159000323460782070384605F071F9607014F8C4
:1015A0003209012814D194F83300032810D13946A8
:1015B00001A805F0F5FACC2201A934A810F048F9E9
:1015C000192244A904F1190010F042F901206063C6
:1015D00067B0BDE8F0831948406B01280DD117486A
:1015E00090ED050AF6EE000AB4EEE00AF1EE10FA0C
:1015F00003D390F83300032809D09FED0F0A0F485A
:1016000080ED0E0A00200D49C863012070479FED50
:101610000A0A0A4880ED0E0A01200849C863002022
:10162000F4E79FED050A054880ED0E0A0020034906
:10163000C863704732A5C24A00000000A020002005
:101640000000C441080000206F12033BC3F5C840EE
:101650009348008820B192480088401E9049088035
:101660009048008820B18F480088401E8D4908802E
:10167000704708B541F2883000F020FA4FF47A70D4
:1016800000F01CFA02221421AFF23B000CF067FFBD
:10169000009008BD10B50FF066FF18B132218248E6
:1016A000FFF711F810BD00B52DED028B8FB07D480E
:1016B000008818B90A207B49088003E00FB0BDEC10
:1016C000028B00BD794901A807F02DF81C2201A961
:1016D00008A810F0BDF89DED0D8A7548007B00B993
:1016E000ECE7B1EE000AB4EEC08AF1EE10FA03DDC9
:1016F00002206F4988600AE0B0EE080AB4EEC08AA2
:10170000F1EE10FA03D24FF0FF306949886000BF54
:10171000D4E710B586B06749684609F026FF9DE812
:10172000070003AB07C3BDF91400002801DC06B0B5
:1017300010BD6148007A10B95F48407A30B158480E
:10174000008818B902205649088000E0EFE75A489F
:10175000007A00282CD0554807F069F802284AD1B1
:10176000524807F04FF802281DD000231A460121E5
:101770005248006804F0A5FC8E20514B51A255A19F
:1017800000905C4811F09CF80446601C38B1B4F538
:10179000967F04D2574958A011F082F802E057A072
:1017A00011F07EF800BF5D49404806F0C6FD22E01A
:1017B0003E4807F027F802281DD100231A46194693
:1017C0003E48006804F07DFC99203D4B3DA254A1A9
:1017D0000090484811F074F80446601C38B1B4F524
:1017E000967F04D2434944A011F05AF802E043A086
:1017F00011F056F800BF3048407A2F49097A8842E4
:1018000003D02D48007A2C49487200BF8FE710B5ED
:101810002948007820B1032826D0042838D130E0A8
:1018200003202549087047480068486000231A468D
:1018300045492248006804F0FAFD322000F03EF9E4
:10184000002211461D48006804F0CEFF4FF47A7064
:1018500000F034F91948006808F0B2F8FFF718F9F9
:10186000322000F02BF914E013484068354909682C
:10187000401A41F28831884202D300200E49087094
:1018800007E0FFF746FFFFF70EFFFFF703FF00E05B
:1018900000BF00BF0948006808F092F810BD0000C2
:1018A0001C0100201E01002016430020080000201B
:1018B000E4420020AC1F00201001002004000020A2
:1018C0003A450108494D504F52545F4E4F544943D9
:1018D0004500000025732025732C6C696E6520255A
:1018E000643A206F657320736574436F6E74726F12
:1018F0006C0A0000FE240020257300004552524F60
:10190000523A206C6F67207072696E74657220693C
:101910006E6E6572206661756C740A00100000209E
:1019200025732025732C6C696E652025643A206F21
:10193000657320636F6E74726F6C20636C6F736578
:10194000640A0000440900200001002010B500F0E6
:1019500087F84FF4A06000F069F90CF0C8FF0CF0B4
:10196000F7F90AF06BFE0AF0DBFF0BF08AFB00F0E0
:101970003CF90AF025F80BF079FC0AF063FD10BD84
:101980001FB50121084602F0D4F80121084602F0F3
:10199000D0F80020ADF80C00ADF80600C72002908A
:1019A00042F2CF00ADF8040000208DF80E0001A92E
:1019B000594802F066FA19208DF8000003208DF8CE
:1019C00001008DF8020001208DF80300684600F048
:1019D00032F90121504802F009FF012211464E4818
:1019E00002F0F0FE00214C4802F0D4FA1FBD1FB5F2
:1019F0000121084602F08CF80121084602F088F81F
:101A00000020ADF80C00ADF80600C720029027209A
:101A100002904AF20F40ADF8040001A94FF0804057
:101A200002F02FFA1C208DF8000002208DF8010032
:101A300003208DF8020001208DF80300684600F0B5
:101A4000FAF80121880702F0D1FE01221146900721
:101A500002F0B8FE00214FF0804002F09BFA1FBD5B
:101A600030B52E4800684FF47A72B0FBF2F1B1F154
:101A7000807F01D301201DE021F07F40401E4FF008
:101A8000E022506150170022002807DA13071D0ECC
:101A9000234B00F00F04241F1D5503E013071C0EF9
:101AA000204B1C5400BF00204FF0E0229061072023
:101AB0001061002008B100BFFEE730BD002106E044
:101AC00047F2305100BF0A00A1F10101FBD1020031
:101AD000A0F1010398B2F3D1704700B59DB0012188
:101AE0000D4802F086FE01280FD134220E496846C7
:101AF0000FF0AEFE40220C490C390DA80FF0A8FEE5
:101B00000A480DA90EC909F0D5FC0121024802F0CE
:101B10006DFE1DB000BD0000000001403801002036
:101B200018ED00E000E400E04B000020AC1F0020B6
:101B300000B587B00121084601F0B7FF0121102050
:101B400001F0F7FF4FF4C060059002208DF81800F7
:101B50008DF8190000208DF81A0001208DF81B0067
:101B600005A92E4801F0BEFC072209212B4801F0EF
:101B700044FD07220A21294801F03FFD4FF461305E
:101B800001900020ADF80800ADF80A00ADF80C0097
:101B9000ADF810000C20ADF80E0001A9204802F0AD
:101BA0007CFF012240F225511D4803F0B4F80121C9
:101BB0001B4802F0FAFF00BF8021194803F0D0F85B
:101BC0000128F9D107B000BD08B503208DF8010048
:101BD00002208DF8020025208DF8000001208DF8EC
:101BE0000300684600F027F808BD10B5FFF7A0FF16
:101BF000FFF7EAFF10BD10B52021094803F0B0F847
:101C000001280AD1064802F0FFFF0649087008467D
:101C100001780548006805F0BCFF10BD00000240D7
:101C2000001001402401002004000020324901433B
:101C3000324A1160704770B5002100230F22C4782A
:101C40001CB32E4C246804F4E064C4F5E064C4F3CF
:101C50000721C1F10404E3B20A4144789C40E1B297
:101C60008478144021430C07210E254C05786155DA
:101C7000047804F01F050124AC4005786D11AD0017
:101C800005F1E025C5F8004109E0047804F01F05DE
:101C90000124AC401B4D0678761145F8264070BDF6
:101CA000194A0A400243154B1B1F1A60704739B18D
:101CB000124A121D12680243104B1B1D1A6006E0E7
:101CC0000E4A121D126882430C4B1B1D1A6070478E
:101CD000042808D14FF0E021096941F004014FF0D8
:101CE000E022116107E04FF0E021096921F00401D1
:101CF0004FF0E022116170470000FA050CED00E0A2
:101D000000E400E080E100E080FFFF1F10B501214A
:101D1000080201F078FF00214FF4807001F073FF9A
:101D200010BD30B50246002000235068F84C20401A
:101D30000D790C6844EA0524204350609068F54C06
:101D40002040D1E903542C438D682C434D7944EA5B
:101D5000450420439060D06A20F470000C7D641E1E
:101D6000E4B2234340EA0350D06230BD0021016059
:101D7000017141718160C16001610121017570478C
:101D80000021E54A1168E54A1140D0E900231A43D1
:101D900083681A43C3681A431143E14AC2F8041323
:101DA00070470021016041608160C160704721B1CE
:101DB000826842F00102826003E0826822F0010240
:101DC000826070470A4600214168D64B1940114392
:101DD000416070474162826270470A460021416853
:101DE00021F01F0111434160704738B1CA490968A9
:101DF00041F40001CA4AC2F8041306E0C649096862
:101E000021F40001C64AC2F80413704738B1C24930
:101E1000096841F48001C24AC2F8041306E0BE49D1
:101E2000096821F48001BE4AC2F804137047F0B576
:101E300004460D4600200021092D11DDE068A5F1C2
:101E40000A0606EB4607072606FA07F18843A5F1BE
:101E50000A0606EB460603FA06F10843E0600CE0CA
:101E6000206905EB4507072606FA07F1884305EBCD
:101E7000450603FA06F108432061072A0FDA606B72
:101E8000561E06EB86071F2606FA07F18843561EE4
:101E900006EB860605FA06F10843606322E00D2A88
:101EA0000FDA206BD61F06EB86071F2606FA07F10E
:101EB0008843D61F06EB860605FA06F10843206321
:101EC00010E0E06AA2F10D0606EB86071F2606FA6F
:101ED00007F18843A2F10D0606EB860605FA06F126
:101EE0000843E062F0BD816841F080418160704745
:101EF000014600208A6802F480020AB1012000E055
:101F00000020704721B1826842F48062826003E061
:101F1000826822F480628260704721B1826842F058
:101F20000202826003E0826822F00202826070474F
:101F300010B50A4600210023416821F46041531E78
:101F400041EA4331416010BD21B1426842F4006270
:101F5000426003E0426822F400624260704701463A
:101F6000C86C80B270476C48001D0068704721B192
:101F7000826842F48072826003E0826822F4807298
:101F80008260704721B1826842F40072826003E08F
:101F9000826822F400728260704738B15E49096835
:101FA00041F400515E4AC2F8041306E05A49096838
:101FB00021F400515A4AC2F804137047F0B50446A0
:101FC0001546002000220026092911DDE068A1F154
:101FD0000A0707EB470C072707FA0CF29043A1F119
:101FE0000A0707EB470703FA07F21043E0600CE02B
:101FF000206901EB410C072707FA0CF2904301EB33
:10200000410703FA07F210432061A06BC0F30156A9
:10201000EF1C06F1010CA7EB0C0707EB870C1F2741
:1020200007FA0CF29043EF1C06F1010CA7EB0C072A
:1020300007EB870701FA07F21043A063F0BD10B564
:102040000A4600210023816B21F44011531E41EA0E
:102050000351816310BD08B5002300930090009BDD
:102060000B440093009B1A6008BD0A46002181685A
:1020700021F470211143816070470A460021816874
:1020800021F44011114381607047816841F480015F
:1020900081607047014600208A6802F480020AB11C
:1020A000012000E00020704721B1426842F48062C4
:1020B000426003E0426822F480624260704721B1CE
:1020C000426842F48052426003E0426822F4805247
:1020D0004260704708B5024600200090009201F16E
:1020E0002800009B184400900098006880B208BD4A
:1020F00010B50B460021D9B2012404FA01F11AB13E
:1021000044680C43446002E044688C43446010BD62
:10211000FFFEFFFCFDF7FFC004230140E030FCFFA1
:1021200000200140FFFD3FFF0246002013680B40E6
:102130000BB1012000E000207047CA4302607047E5
:1021400070B502460020002300240B1255680126BA
:102150008E4005EA060415681D4015B10CB101203A
:1021600000E0002070BD00220A12D34303607047D4
:1021700010B50446FE48844209D10121480601F009
:1021800031FD00214FF0007001F02CFD08E001212D
:10219000880601F027FD00214FF0806001F022FD4C
:1021A00010BD30B5024600200023146824F002045C
:1021B0001460146844F00104146000E05B1C54686F
:1021C00004F001041CB94FF6FF74A342F6D1546821
:1021D00004F001040CB900206CE08C79012C04D1CE
:1021E000146844F08004146003E0146824F0800450
:1021F0001460CC79012C04D1146844F040041460BC
:1022000003E0146824F0400414600C7A012C04D11B
:10221000146844F02004146003E0146824F02004DF
:1022200014604C7A012C04D1146844F0100414603A
:1022300003E0146824F0100414608C7A012C04D19B
:10224000146844F00804146003E0146824F00804DF
:102250001460CC7A012C04D1146844F00404146096
:1022600003E0146824F0040414608C78A407CD788B
:1022700044EA05640D7944EA05444D7944EA05547D
:102280000D886D1E2C43D461146824F00104146081
:10229000002300E05B1C546804F001041CB14FF6FD
:1022A000FF74A342F6D1546804F001040CB100207D
:1022B00000E0012030BD10B50021837A012202FA2E
:1022C00003F1AC4A126842F00102AA4B1A60A94A13
:1022D0001C3212688A43A74B1C331A60027BCAB9AE
:1022E000A44A0C3212688A43A24B0C331A6042880B
:1022F000C38842EA03439F4A4032847A42F834302A
:102300000288838842EA03439A4A4032847A02EB85
:10231000C4025360027B012A19D1964A0C3212681A
:102320000A43944B0C331A604288038842EA034301
:10233000904A4032847A42F83430C288838842EA34
:1023400003438C4A4032847A02EBC4025360C27A5F
:102350003AB9884A121D12688A43864B1B1D1A60BF
:1023600006E0844A121D12680A43824B1B1D1A6044
:10237000028932B97F4A143212688A437D4B143382
:102380001A600289012A06D17A4A143212680A4375
:10239000784B14331A60427B012A06D1754A1C32ED
:1023A00012680A43734B1C331A60724A126822F097
:1023B0000102704B1A6010BD00218171C171017260
:1023C00041728172C1728170C17003210171022159
:1023D00041710121018070476649096841F001019E
:1023E000644A11601146096843F60E729143614ACE
:1023F00011601146096841EA00211160114609681F
:1024000021F001011160704721B1026842F480326D
:10241000026003E0026822F4803202607047E1B19A
:10242000026842F0800202604FF4C272125842F415
:1024300080734FF4C27213504FF4CA72125842F4B0
:1024400080734FF4CA7213504FF4D272125842F490
:1024500080734FF4D27213501BE0026822F08002A6
:1024600002604FF4C272125822F480734FF4C272A9
:1024700013504FF4CA72125822F480734FF4CA7288
:1024800013504FF4D272125822F480734FF4D27268
:102490001350704710B502460020936803F0806324
:1024A000B3F1806F00D110E0936803F00063B3F1E3
:1024B000006F01D1012008E0936803F08053B3F16D
:1024C000805F01D1022000E00420042879D002F5C9
:1024D000C07303EB00131B6803F0010402F5C07323
:1024E00003EB00131C600B7A7BB94B7A0C8843EA30
:1024F000445302F5C07404EB00142468234302F52E
:10250000C07404EB0014236010E00B7A4C6843EABB
:10251000C4034C7A234302F5C07404EB001424680E
:10252000234302F5C07404EB001423608B7A03F09C
:102530000F038B7202F5C07303EB00135B6823F08B
:102540000F0402F5C07303EB00135C6002F5C07367
:1025500003EB00135B688C7A234302F5C07404EB31
:10256000001463608B7B1C064B7B44EA034403E04E
:1025700000640040006600400B7B44EA0323CC7AF1
:10258000234302F5C07404EB0014A3608B7C1C068B
:102590004B7C44EA03440B7C44EA0323CC7B234377
:1025A00002F5C07404EB0014E36002F5C07303EBA2
:1025B00000131B6843F0010402F5C07303EB001322
:1025C0001C6010BD10B50246002321B1012907D0BF
:1025D00002290FD109E09068F94C00EA04030BE0EE
:1025E0009068F84C00EA040306E09068F64C00EAB4
:1025F000040301E0002300BF00BFF44C181BA342FA
:1026000016D007DC83B16FF08060184470B10228E7
:1026100018D111E0B0F5007F10D0ED4C204448B146
:10262000B0F5003F0ED10BE002230DE000230BE0DC
:10263000002309E0002307E0012305E0012303E074
:10264000012301E0002300BF00BFD8B210BD21B1BB
:10265000012907D002290FD109E0826842F08002E7
:1026600082600AE0826842F40042826005E082688B
:1026700042F40002826000E000BF00BF704710B566
:1026800000F5D87303EB01131B6803F00403137206
:10269000137A53B900F5D87303EB01131B6840F2AA
:1026A000FF7404EA5353136009E000F5D87303EB99
:1026B00001131B686FF0604404EAD303536000F514
:1026C000D87303EB01131B6803F00203537200F588
:1026D000D87303EB01135B6803F00F03937200F5EB
:1026E000D87303EB01135B681B0AD37400F5D8732E
:1026F00003EB01139B68D37200F5D87303EB01134E
:102700009B681C0A147300F5D87303EB01139B68D4
:102710001C0C547300F5D87303EB01139B681B0E5C
:10272000937300F5D87303EB0113DB68D37300F5E3
:10273000D87303EB0113DB681C0A147400F5D8731B
:1027400003EB0113DB681C0C547400F5D87303EB26
:102750000113DB681B0E937421B9C36843F0200397
:10276000C36003E0036943F02003036110BD21B996
:10277000C26842F02002C26003E0026942F0200217
:10278000026170470246002019B9D36803F00300C4
:1027900006E0012903D1136903F0030000E00020E3
:1027A000704710B502460B4600204FF6FF71BBB9CB
:1027B000146824F0020444F00104146000E0491E8F
:1027C000546804F00304012C01D00029F7D15468A7
:1027D00004F00304012C01D0002032E0012030E09D
:1027E000012B13D1146824F00304146000E0491E87
:1027F000546804F003040CB10029F8D1546804F0C3
:1028000003040CB100201CE001201AE0022B17D1B8
:10281000146824F0010444F00204146000E0491E2E
:10282000546804F00304022C01D00029F7D1546845
:1028300004F00304022C01D0002002E0012000E09B
:10284000002010BD014600200A6822F0010242F07B
:1028500002020A604A6802F00302022A00D1012043
:10286000704701464FF6FF7200200B6823F0020309
:102870000B6000E0521E4B6803F00203022B01D1F3
:10288000002AF7D14B6803F00203022B00D001208D
:102890007047014600208A6902F0700070470146C7
:1028A00000208A69100E7047014600208A69C2F331
:1028B000074070471AB143690B43436102E0436923
:1028C0008B434361704710B50246002001F470034A
:1028D00043B19369C1F3130423400BB101202DE0F0
:1028E00000202BE001F0807343B15368C1F313045F
:1028F00023400BB1012021E000201FE001F0006324
:1029000043B19368C1F3130423400BB1012015E0D8
:10291000002013E001F0007343B1D368C1F3130446
:1029200023400BB1012009E0002007E01369C1F347
:10293000130423400BB1012000E0002010BD002251
:10294000244B994202D10023836111E0C1F31302A9
:1029500001F000730BB1C2600AE001F080630BB1BB
:10296000026105E001F000630BB1826000E04260AB
:1029700070470246002002EA01030BB1012000E08B
:102980000020704770B504460D4600266069284057
:10299000002872D0B5F5807F69D01DDC082D42D0AB
:1029A00006DC012D2DD0022D31D0042D7FD134E055
:1029B000102D3ED0202D42D0402D78D145E0000092
:1029C00003000004000300080000031000010008D9
:1029D0000001FFF77000F030B5F5004F61D009DC61
:1029E000B5F5007F4AD0B5F5806F4DD0B5F5006FD5
:1029F0005DD150E0B5F5803F2DD0B5F5003F56D103
:102A00002FE0A0685549FFF7B4FF064651E0E068A3
:102A10000321FFF7AEFF06464BE0E0680821FFF711
:102A2000A8FF064645E0E0681021FFF7A2FF064632
:102A30003FE020690321FFF79CFF064639E020694B
:102A40000821FFF796FF064633E020691021FFF7C3
:102A500090FF06462DE060680821FFF78AFF0646D2
:102A600027E060681021FFF784FF064621E0A06997
:102A70000121FFF77EFF06461BE01BE0A069022153
:102A8000FFF777FF064614E0A0690421FFF771FF06
:102A900006460EE00BE0A0697021FFF76AFF0646CC
:102AA00007E060680421FFF764FF064601E00026A6
:102AB00000BF00E00026304670BDB1F5007F3AD07F
:102AC0000FDC202928D006DC01291CD004291DD0C8
:102AD000082940D11DE0402921D0B1F5807F3AD1AD
:102AE00026E0B1F5004F31D006DCB1F5806F25D07E
:102AF000B1F5006F2FD124E0B1F5803F12D0B1F5D0
:102B0000003F28D111E0154A826025E00822C2600A
:102B100022E01022C2601FE0082202611CE01022A5
:102B2000026119E00822426016E01022426013E0C0
:102B30000422426010E0042242600DE00422426060
:102B40000AE0002282610422426005E000228261E4
:102B50000422426000E000BF00BF70470101010095
:102B6000016821F001010160002101604160816084
:102B7000C160016121214161DB49884204D13D21CD
:102B8000D94A103A91608CE0D7491831884205D172
:102B90004FF47461D44A103A916082E0D2493031E6
:102BA000884205D14FF47411CF4A103A916078E011
:102BB000CD494831884205D14FF07461CA4A103A74
:102BC00091606EE0C8496031884204D1C749C64A65
:102BD000103AD16065E0C4497831884204D1C449D3
:102BE000C14A103AD1605CE0BF499031884204D1BB
:102BF000C049BD4A103AD16053E0BB49A831884270
:102C000005D14FF03D51B84A103AD16049E0BA4978
:102C1000884204D13D21B84A083A116041E0B649E2
:102C20001831884205D14FF47461B34A083A1160F3
:102C300037E0B1493031884205D14FF47411AE4AC2
:102C4000083A11602DE0AC494831884205D14FF077
:102C50007461A94A083A116023E0A74960318842AB
:102C600004D1A249A44A121F11601AE0A249783186
:102C7000884204D19E49A04A121F116011E09E496A
:102C80009031884204D19B499B4A121F116008E091
:102C90009949A831884204D14FF03D51964A121FFC
:102CA0001160704710B500220268944B1A40CC683E
:102CB0000B6823434C6923438C692343CC6923432A
:102CC0000C6A23434C6A23438C6A23434C6B234393
:102CD0008C6B23431A430260426922F00702D1E958
:102CE0000B3423431A4342610B6943604B68836092
:102CF0008B68C36010BD0021016041608160C160CC
:102D0000016141618161C161016241628162C162AF
:102D1000016341638163704721B1026842F001029F
:102D2000026003E0026822F001020260704721B1F4
:102D3000026842F40042026003E0026822F40042AA
:102D40000260704721B1026842F02002026003E095
:102D5000026822F02002026070474160704701461D
:102D6000486880B2704722B1036843F400230360CF
:102D700003E0036823F4002303600161704721B17D
:102D8000026842F48022026003E0026822F480229A
:102D9000026070470AB1016100E0C16070470146FE
:102DA00000200A6802F400220AB1012000E000209D
:102DB0007047014600200A6802F001020AB10120B2
:102DC00000E000207047014600204A6902F0380008
:102DD000704730B503460A4600200024464DAB42FA
:102DE00002D24149103901E04349103902F000553F
:102DF0000DB14C6800E00C68414D2C4004EA02051E
:102E00000DB1012000E0002030BD02463A4B9A424D
:102E100002D23548103801E03748103801F000532D
:102E20001BB1374B0B40C36002E0354B0B40836056
:102E3000704710B501F080034BB122B1436943F0F4
:102E40008003436103E0436923F0800343618029E9
:102E50000BD02AB1036801F01E042343036004E091
:102E6000036801F01E04A343036010BD70B5024661
:102E7000002000240025204EB24202D21A4B103B03
:102E800001E01D4B103B1F4E0E4036B11E2606EAD8
:102E9000D124166806EA040502E0566906F08005AA
:102EA00001F000560EB15C6800E01C68144E34401E
:102EB00004EA010616B10DB1012000E0002070BD4A
:102EC00002460D4B9A4202D20748103801E00A48E8
:102ED000103801F000531BB1094B0B40C36002E0F6
:102EE000074B0B4083607047106002403D0000209C
:102EF000400F002000003D20106402403F801CF085
:102F00007D0F7D0F3C0F3C0FF74A1070704730B1BA
:102F1000F549096841F48071F34A116005E0F2490E
:102F2000096821F48071F04A1160704730B1EE49B0
:102F3000096841F40071EC4A116005E0EA4909684A
:102F400021F40071E84A1160704730B1E649096820
:102F500041F48061E44A116005E0E349096821F425
:102F60008061E14A11607047DF48006840F400600A
:102F7000DD4908607047DC48006840F48050DA4959
:102F800008607047D8481030006800F0004028B151
:102F9000D648D549091D0860D54808607047D24811
:102FA0001030006840F00040CF4910310860704791
:102FB0000820CD490C31096801F48031B1F5803F1A
:102FC00001D1012018E0C8490C31096801F0100155
:102FD00009B1052010E0C4490C31096801F0EF0186
:102FE00009B1062008E0C0490C31096801F002016E
:102FF00009B1072000E00820704708B508200090BC
:10300000FFF7D6FF009002E0FFF7D2FF00909DF897
:1030100000000128F8D09DF8000008BD70B50446F6
:103020000A460026082502B909E0012A01D1160244
:1030300005E0022A01D1160201E04FF44076FFF7C5
:10304000DCFF0546082D2DD1A7481030006820F47C
:103050004070A54910310860084600683043086098
:103060000846006820F0F80008600846006844F050
:10307000020108439C49103108600846006840F48A
:1030800080300860FFF7B9FF0546974810300068A8
:1030900020F002009449103108600846006820F0D2
:1030A000F8000860284670BD30B5024600250824A7
:1030B000FFF7A3FF044602B909E0012A01D1150276
:1030C00005E0022A01D1150201E04FF44075082CF9
:1030D00020D185481030006820F4407082491031BA
:1030E000086008460068284308600846006840F009
:1030F000040008600846006840F480300860FFF76C
:103100007CFF044678481030006820F004007649BF
:1031100010310860204630BD70B5064614461D4685
:103120000822FFF76AFF0246082A1ED16E481030B7
:10313000006820F440706C4910310860084600684F
:1031400040F4407008600846006840F001000860E4
:1031500034607560FFF751FF024663481030006825
:1031600020F00100604910310860104670BD30B594
:1031700002460C460825FFF740FF0546082D1DD1E5
:1031800059481030006820F44070574910310860E9
:103190000846006840F4007008600846006840F087
:1031A000010008601460FFF728FF05464E48103004
:1031B000006820F001004C4910310860284630BDFD
:1031C00030B502460C460825FFF717FF0546082DC7
:1031D0001DD145481030006820F44070424910313C
:1031E00008600846006840F480700860084600687F
:1031F00040F0010008601480FFF7FFFE05463A48E2
:103200001030006820F0010037491031086028466E
:1032100030BD30B502460C460825FFF7EEFE0546E8
:10322000082D1BD130481030006820F440702E4922
:10323000103108600846006808600846006840F0E1
:10324000010008601470FFF7D8FE054626481030CC
:10325000006820F00100244910310860284630BD84
:1032600021481430006800F0010028B121481E49AF
:10327000083108602048086070471B481430006817
:1032800040F00100184914310860704730B502461B
:103290000C460825FFF7B1FE0546082D10D13CB1BC
:1032A00011481630008890430F491631088007E016
:1032B0000D481630008891B208430B49163108803A
:1032C00030BD30B502460C460825FFF796FE054690
:1032D000082D19D194B104481A300088904302494E
:1032E0001A31088010E00000003C024023016745CD
:1032F000AB89EFCD3B2A19087F6E5D4C41480088B1
:1033000091B208433F49088030BD10B502460824F9
:10331000FFF773FE0446082C02D13A48401F0270A2
:1033200010BDF0B504460D46FF260827FFF765FEE1
:103330000746082F0BD13348801F007800F00F0696
:1033400045EA0600104320432E49891F0870F0BD4E
:103350002C49891F097821F00C012A4A921F11700B
:103360001146097801431170704700B508222548BD
:10337000801F007840F002002249891F0870FFF783
:103380003CFE0246104600BD1E48801F0068C0F388
:10339000471070471B48001F008870471948008875
:1033A000704700201749491F0978AA2901D0012038
:1033B00000E0002070471348801F007800F00C00E8
:1033C000704739B10F4A0A3A126802430D4B0A3B63
:1033D0001A6006E00B4A0A3A12688243094B0A3B1C
:1033E0001A60704701460020064A0E3A12680A40E9
:1033F0000AB1012000E00020704702490E39086040
:10340000704700001A3C024010B504468C488442C4
:1034100008D10121084600F09DFB0021012000F0A9
:1034200099FB5EE08748844208D10121022000F028
:1034300091FB0021022000F08DFB52E08248844283
:1034400008D10121042000F085FB0021042000F0B8
:1034500081FB46E07D48844208D10121082000F02C
:1034600079FB0021082000F075FB3AE0784884429F
:1034700008D10121102000F06DFB0021102000F088
:1034800069FB2EE07348844208D10121202000F01E
:1034900061FB0021202000F05DFB22E06E488442A9
:1034A00008D10121402000F055FB0021402000F010
:1034B00051FB16E06948844208D10121802000F0C8
:1034C00049FB0021802000F045FB0AE0644884426B
:1034D00007D10121801500F03DFB0021A01500F06F
:1034E00039FB10BDF0B50A4600210023002400BFBF
:1034F0003DE0012505FA01F3156805EA03049C4245
:1035000034D105684F000326BE40B54305601579E8
:103510004E00B5400668354305601579012D02D08F
:103520001579022D16D185684F000326BE40B5439C
:10353000856055794E00B54086683543856045689D
:1035400001268E40B5434560456896798E40B6B2F7
:1035500035434560C5684F000326BE40B543C5608E
:10356000D5794E00B540C6683543C560491C102961
:10357000BFD3F0BD4FF6FF710160002101714171B1
:103580008171C171704708B54FF480320092009A82
:103590000A430092009AC261C161009AC261C26985
:1035A0000092C269009208BD0246002013690B40D8
:1035B0000BB1012000E0002070470146086980B28D
:1035C00070470246002053690B400BB1012000E018
:1035D000002070470146486980B2704701837047F8
:1035E000418370470AB1018300E041837047416124
:1035F000704742694A4042617047F0B50023002499
:103600004D07ED0E02FA05F3CE1000F1200555F836
:1036100026504E07F70E0F26BE40B543CF1000F1DF
:10362000200646F82750CE1000F1200555F8265008
:1036300045EA0304CE1000F1200545F82640F0BD10
:10364000000002400004024000080240000C02405A
:10365000001002400014024000180240001C02400A
:10366000002002400E49086070470D4948607047CD
:103670000B49886070474AF6AA20094908607047DC
:103680004CF6CC4006490860704701460020044AC9
:10369000D2680A400AB1012000E000207047000013
:1036A0000030004010B50121080700F09BFA00210E
:1036B0004FF0805000F096FA10BD32490862704712
:1036C00001460020304A106820F0E00008431060F6
:1036D00070472C49086170472A49A031086070473B
:1036E0002849A4310860704701460020264A106826
:1036F00020F44040084310607047224948627047F8
:1037000010B502460020204B186820F0030010433B
:1037100018601E4B1B6843F004031C4C23600129F6
:1037200001D130BF00E020BF184B1B6823F0040319
:10373000164C236010BD1448006840F00400124984
:1037400008600846006840F0020008600F48006802
:1037500040F004000D49086000BF00BF30BF704753
:1037600001460020084A52680A400AB1012000E0E0
:10377000002070470449096841EA8001024A11604B
:103780007047000000000E420070004010ED00E0A5
:10379000F948006840F00100F74908600020F64948
:1037A00008310860F4480068F4490840F2490860AC
:1037B000F348091D0860F348EF4984310860EE487A
:1037C000006820F48020EC4908600020EA490C31B0
:1037D000086070470021E84A921C11701146087079
:1037E000704710B501460022002300204A11012A2B
:1037F00002D1E14C236808E0022A03D1DE4C703488
:10380000236802E0DC4C7434236801F01F020124B9
:1038100094401C400CB1012000E0002010BD38B5E0
:10382000002000900024002500BF3120FFF7D9FFC1
:1038300005460098401C00900098B0F5A06F01D09C
:10384000002DF2D03120FFF7CCFF08B1012400E0B9
:103850000024204638BD01460020C74A106820F0E9
:10386000F80040EAC10010607047C749086070471F
:103870000021C14A703211701170012802D0042851
:103880000AD104E00121BC4A7032117005E0052123
:10389000B94A7032117000E000BF00BF7047BB49E9
:1038A0000860704770B5049C41EA82150126C6EB9A
:1038B000530645EA0645054345EA0465AE4E361D06
:1038C000356070BDB04908667047820142EA0172F6
:1038D000A94B84331A607047AB4988667047AA4980
:1038E000C864704702460020A34B0833186820F0D4
:1038F000EC6042EA010318439F4B0833186070479D
:10390000024600209C4B0833186820F0784042EAB9
:1039100001031843984B0833186070470146002094
:10392000954A0832106820F0030008431060704781
:1039300091480830006800F00C00704701460020F4
:103940008D4A0832106820F0F0000843106070477C
:1039500001460020884A0832106820F4E0500843ED
:103960001060704701460020834A0832106820F436
:10397000604040EAC10010607047F0B500210022AD
:1039800000240225002602237B4F08373F6807F0FA
:103990000C0121B1042905D0082937D105E07C4F5D
:1039A000076036E07B4F076033E0734F3F1D3F6891
:1039B000C7F38056704F3F1D3F6807F03F036EB15D
:1039C000744FB7FBF3F7DFF8B0C10CF1040CDCF86F
:1039D00000C0CCF3881C07FB0CF40CE06C4FB7FB69
:1039E000F3F7DFF894C10CF1040CDCF800C0CCF361
:1039F000881C07FB0CF4604F3F1D3F68C7F301476D
:103A00007F1C7D00B4FBF5F7076002E0604F0760A4
:103A100000BF00BF584F08373F6807F0F0010909A1
:103A20005D4F7A5C0768D7404760534F08373F685F
:103A300007F4E051890A584F7A5C4768D74087609D
:103A40004D4F08373F6807F46041490B524F7A5C8D
:103A50004768D740C760F0BD002100F44072B2F55E
:103A6000407F0AD1444A0832116821F4F8114B4AC8
:103A700002401143404A083211603F4A70321268D6
:103A8000C0F30B031A433C4B70331A6070473F4935
:103A90004439086070473D494039086070474049E3
:103AA000086070473F490860704739B1324A303288
:103AB00012680243304B30331A6006E02E4A30322F
:103AC000126882432C4B30331A60704739B12A4A4E
:103AD000343212680243284B34331A6006E0264A17
:103AE000343212688243244B34331A60704739B140
:103AF000214A3832126802431F4B38331A6006E0FD
:103B00001D4A3832126882431B4B38331A607047A3
:103B100039B1194A403212680243174B40331A60D8
:103B200006E0154A403212688243134B40331A6054
:103B3000704739B1104A4432126802430E4B443385
:103B40001A6006E00C4A4432126882430A4B44333E
:103B50001A60704739B1084A103212680243064BA6
:103B600010331A6006E0044A103212688243024B96
:103B700010331A607047000000380240FFFFF6FA69
:103B8000103000240030002000004742800E4742E1
:103B90000024F40000127A0025010020FFFCFF0F32
:103BA0005C014742E011474229B15E4A1268024374
:103BB0005C4B1A6004E05B4A12688243594B1A60FE
:103BC000704739B1574A121D12680243554B1B1DED
:103BD0001A6006E0534A121D12688243514B1B1DA6
:103BE0001A60704739B14F4A0C32126802434D4B8C
:103BF0000C331A6006E04B4A0C3212688243494B80
:103C00000C331A60704739B1464A103212680243C9
:103C1000444B10331A6006E0424A10321268824365
:103C2000404B10331A60704739B13E4A3C3212683B
:103C300002433C4B3C331A6006E03A4A3C3212687D
:103C40008243384B3C331A60704739B1354A4032B1
:103C500012680243334B40331A6006E0314A403267
:103C6000126882432F4B40331A60704739B12D4A96
:103C70004432126802432B4B44331A6006E0294A4F
:103C8000443212688243274B44331A60704739B17B
:103C9000244A4C3212680243224B4C331A6006E02D
:103CA000204A4C32126882431E4B4C331A607047D4
:103CB00039B11C4A5032126802431A4B50331A6011
:103CC00006E0184A503212688243164B50331A608D
:103CD000704739B1134AD21F12780243114BDB1FD0
:103CE0001A7006E00F4AD21F127882430D4BDB1F79
:103CF0001A7070470B486030006840F080700949C6
:103D000060310860704701460020064A083A126890
:103D10000A400AB1012000E0002070470149891FD4
:103D2000087070471438024010B50446FE488442BB
:103D300008D101210846FFF766FF00210120FFF7A7
:103D400062FF9DE0B4F1804F08D101210846FFF7E2
:103D500049FF00210120FFF745FF91E0F34884422D
:103D600008D101210220FFF73DFF00210220FFF7CB
:103D700039FF85E0EE48844208D101210420FFF795
:103D800031FF00210420FFF72DFF79E0E94884424C
:103D900008D101210820FFF725FF00210820FFF7A7
:103DA00021FF6DE0E448844208D101211020FFF793
:103DB00019FF00211020FFF715FF61E0DF48844262
:103DC00008D101212020FFF70DFF00212020FFF75F
:103DD00009FF55E0DA48844208D101210220FFF7AB
:103DE00012FF00210220FFF70EFF49E0D548844270
:103DF00009D101210804FFF706FF00214FF48030AC
:103E0000FFF701FF3CE0D048844209D1012148047A
:103E1000FFF7F9FE00214FF40030FFF7F4FE2FE02A
:103E2000CA48844209D101218804FFF7ECFE002131
:103E30004FF48020FFF7E7FE22E0C548844208D116
:103E400001214020FFF7CEFE00214020FFF7CAFEEF
:103E500016E0C048844208D101218020FFF7C2FE4D
:103E600000218020FFF7BEFE0AE0BB48844207D154
:103E700001218015FFF7B6FE0021A015FFF7B2FE65
:103E800010BD00220288A84B98420ED0AC4B98423D
:103E90000BD0B0F1804F08D0A44B984205D0A44B72
:103EA000984202D0A34B984204D14FF68F731A4028
:103EB0004B881A43A04B984207D0A04B984204D09D
:103EC0004FF6FF431A400B891A4302804B68C362C6
:103ED0000B880385944B984202D0994B984201D1AC
:103EE0008B7A03860123838270474FF0FF31416054
:103EF00000210180018141808172704701858282A9
:103F000070470A46002101884FF68F73194011430C
:103F10000180704741627047C16270470146486A3C
:103F200070470146088D704721B1028842F00202B5
:103F3000028004E002884FF6FD731A400280704749
:103F400021B1028842F00402028004E002884FF6A8
:103F5000FB731A400280704721B1028842F0800250
:103F6000028004E002884FF67F731A400280704797
:103F700002884FF6F7731A40028002880A430280D3
:103F8000704702884FF6FF431A40028002880A43B6
:103F90000280704721B1028842F00102028004E0F1
:103FA00002884FF6FE731A400280704770B50024F5
:103FB00000220023058C4FF6FE7635400584028CE6
:103FC0008388048B4FF68F752C40B51E2C400D88CE
:103FD0002C43751E2A408D892A434D882A43524D11
:103FE000A84202D0564DA84213D14FF6F7752A4089
:103FF000CD892A434FF6FB752A408D882A434FF618
:10400000FF652B404FF6FF552B400D8A2B434D8A01
:104010002B43838004838D684563028470BD70B533
:10402000002400220023058C4FF6EF7635400584EE
:10403000028C8388048B48F6FF752C404FF6FF45B1
:104040002C400D884FF6FF7606EA05252C434FF6E7
:10405000DF752A408D8906EA05152A434D8806EA50
:1040600005152A43304DA84202D0354DA8421DD136
:104070004FF67F752A40CD894FF6FF7606EA051583
:104080002A434FF6BF752A408D8806EA05152A4354
:104090004FF6FF352B404FF2FF752B400D8A06EA95
:1040A00085052B434D8A06EA85052B4383800483CF
:1040B0008D688563028470BD70B5002400220023E2
:1040C000058C4FF6FF6635400584028C8388848B0F
:1040D0004FF68F752C404FF6FC752C400D882C4305
:1040E0004FF6FF552A408D894FF6FF7606EA0525E3
:1040F0002A434D8806EA05252A430B4DA84202D0E3
:104100000F4DA84238D14FF2FF752A40CD894FF6A6
:10411000FF7606EA05252A434FF6FF352A408D88AB
:1041200006EA05252A4319E000000140000400408A
:1041300000080040000C0040001000400014004047
:10414000000401400040014000440140004801409B
:1041500000180040001C0040002000404EF6FF7593
:104160002B404DF6FF752B400D8A06EA05152B43B3
:104170004D8A06EA05152B43838084838D68C563C9
:10418000028470BD70B5002200230024058C4EF619
:10419000FF7635400584038C8488828B48F6FF7552
:1041A0002A404FF6FF452A400D884FF6FF7606EA73
:1041B00005252A434DF6FF752B408D8906EA053506
:1041C0002B434D8806EA05352B43FE4DA84202D00D
:1041D000FD4DA84208D14BF6FF752C400D8A4FF6D5
:1041E000FF7606EA85152C43848082838D680564FA
:1041F000038470BD002101804180818081608181C4
:10420000C18101824182704770B5034600200024BD
:104210001846183001258D40ACB21D8CA5431D8475
:1042200009B108290AD100EB610005684FF68F76C5
:10423000354005600568154305600FE00D1FC5F3A7
:104240004E052844056848F6FF7635400560056848
:104250004FF6FF7606EA02263543056070BD4163DE
:10426000704781637047C1637047016470470A46B5
:104270000021018B4FF68F73194011430183704762
:104280000A460021018B48F6FF7319404FF6FF7371
:1042900003EA02231943018370470A460021818BF8
:1042A0004FF68F7319401143818370470A460021EE
:1042B000818B48F6FF7319404FF6FF7303EA022320
:1042C0001943818370470A460021018B4FF6F7732B
:1042D00019401143018370470A460021018B4FF2B8
:1042E000FF7319404FF6FF7303EA0223194301835A
:1042F00070470A460021818B4FF6F773194011432E
:10430000818370470A460021818B4FF2FF73194069
:104310004FF6FF7303EA02231943818370470A466D
:104320000021018B4FF6FB73194011430183704745
:104330000A460021018B4FF6FF3319404FF6FF73F9
:1043400003EA02231943018370470A460021818B47
:104350004FF6FB7319401143818370470A460021D1
:10436000818B4FF6FF3319404FF6FF7303EA0223A8
:104370001943818370470A460021018B4FF67F73F2
:1043800019401143018370470A460021018BC1F394
:104390000E014FF6FF7303EA0223194301837047AE
:1043A0000A460021818B4FF67F73194011438183A8
:1043B00070470A460021818BC1F30E014FF6FF734F
:1043C00003EA02231943818370470A460021018CC6
:1043D0004FF6FD7319401143018470470A460021CE
:1043E000018C4FF6F77319401143018470470A4658
:1043F0000021018C4FF6DF7319404FF6FF7303EA7B
:1044000002131943018470470A460021018C4FF6BC
:104410007F7319404FF6FF7303EA021319430184B7
:1044200070470A460021018C4FF6FF5319404FF6A2
:10443000FF7303EA02231943018470470A460021EF
:10444000018C4FF2FF7319404FF6FF7303EA02230A
:104450001943018470470A460021018C4DF6FF7311
:1044600019404FF6FF7303EA023319430184704782
:1044700030B5002301248C40A3B2048C9C430484F7
:10448000048C02FA01F5ADB22C43048430BD30B582
:10449000002304248C40A3B2048C9C430484048C29
:1044A00002FA01F5ADB22C43048430BD828B4FF289
:1044B000FF331A408283828B4FF6FF7303EA012396
:1044C0001A4382837047F0B50C461546002100223E
:1044D0000026078C4EF6FF7C07EA0C070784818BC9
:1044E000028C4FF6FF7707EA043640F6FF47394063
:1044F0004FF6FF7707EA052739434FF6FF7707EABC
:104500000337394345F6FF773A4046F480573A433C
:1045100081830284F0BD828B4FF6F3731A4082834D
:10452000828B0A4382837047F0B50C461546002102
:1045300000220026078C4FF6FF6C07EA0C07078461
:10454000818B028C4FF6FF7707EA04264FF60C7733
:1045500039404FF6FF7707EA03172F4339434FF2ED
:10456000FF573A4046F480773A4381830284F0BD96
:10457000028B4FF2FF331A400283028B4FF6FF7318
:1045800003EA01231A4302837047F0B50C4615462F
:10459000002100220026078C4FF6EF7C07EA0C076B
:1045A0000784018B028C4FF6FF7707EA041640F66A
:1045B000FF4739404FF6FF7707EA033739434FF695
:1045C000FF7703E0000001400004014007EA0527EF
:1045D00039434FF65F773A4046F010073A4301837C
:1045E0000284F0BD028B4FF6F3731A400283028BF4
:1045F0000A4302837047F0B50C461546002100229D
:10460000068C4FF6FE773E400684018B028C4FF6F7
:104610000C7631407E1C06EA03162E4331434FF6DA
:10462000F576324044F00106324301830284F0BD46
:1046300070B505460C46208850B92389A288618848
:104640002846FFF7D8FFE1882846FFF7CBFF25E093
:10465000208804280AD12389A28861882846FFF788
:1046600094FFE1882846FFF783FF17E02088082899
:104670000AD12389A28861882846FFF755FFE1887F
:104680002846FFF748FF09E02389A2886188284669
:10469000FFF719FFE1882846FFF708FF70BD0021EA
:1046A00001804180012181800021C180018170470A
:1046B0002DE9F04105460C4600260127608808B91F
:1046C000022600E00026A088012801D1022700E090
:1046D00001272088A0B92389A28861882846FFF78E
:1046E0008AFFE1882846FFF77DFF23893A46314655
:1046F0002846FFF74AFFE1882846FFF739FF13E015
:104700002389A28861882846FFF73FFFE188284671
:10471000FFF72EFF23893A4631462846FFF76BFF05
:10472000E1882846FFF75EFFBDE8F0810146486B4F
:1047300070470146886B70470146C86B7047014659
:10474000086C70470A884B881A438B881A43CB88B9
:104750001A430B891A434B891A438B891A43A0F8D1
:10476000442070470021018041808180C180018107
:1047700041818181704731B1B0F8442042F4004258
:10478000A0F8442005E0B0F84420C2F30E02A0F8DF
:104790004420704721B1828842F00402828004E004
:1047A00082884FF6FB731A408280704721B182885D
:1047B00042F00102828004E082884FF6FE731A40C4
:1047C000828070471AB183890B43838102E0838919
:1047D0008B43838170478182704702460020138A91
:1047E0000B400BB1012000E000207047CA43028259
:1047F000704730B50246002000230024158A05EAE0
:104800000103958905EA010413B10CB1012000E010
:10481000002030BDCA430282704741EA0203A0F87B
:10482000483070471AB183890B43838102E0838942
:104830008B438381704721B1828842F008028280D5
:1048400004E082884FF6F7731A408280704701892E
:104850004FF6F8721140018170470A460021018924
:104860004FF68F73194011430181704730B50446EC
:104870000D4629462046FFF7F0FF208940F007004B
:10488000208130BD2DE9F04104460D4616461F46F5
:10489000602D06D13B46012231462046FFF775FECA
:1048A00005E03B46012231462046FFF7A4FE29469B
:1048B0002046FFF7D2FF208940F007002081BDE8A5
:1048C000F08130B50C4600210189C9B24FF6FF7561
:1048D00005EA0325154325432943018130BD2DE910
:1048E000F04105460E4617469846002443463A4690
:1048F00031462846FFF7E5FF2C894FF6F870044053
:1049000044F007044FF68F70044044F070042C818B
:10491000BDE8F081F0B504460D4616461F463B46FD
:10492000324629462046FFF7CCFF208940F48040DC
:104930002081F0BD82884FF68F731A408280828872
:104940000A438280704702894FF6F8731A40028149
:1049500002890A430281704702894FF67F731A4029
:10496000028102890A4302817047F0B50C46154660
:104970001E460021002200230189028B038C4FF682
:10498000F877394021434FF6FC473A4040F201178F
:104990003A434FF6DD773B404FF6FF7707EA0617BD
:1049A0002F433B43018102830384F0BD21B1828800
:1049B00042F08002828004E082884FF67F731A40C2
:1049C00082807047A0F850107047000010B5044670
:1049D000FA48844208D101211020FFF714F9002180
:1049E0001020FFF710F957E0F548844209D1012162
:1049F0004804FFF7F7F800214FF40030FFF7F2F812
:104A00004AE0F048844209D101218804FFF7EAF81E
:104A100000214FF48020FFF7E5F83DE0EA488442AA
:104A200009D10121C804FFF7DDF800214FF400206F
:104A3000FFF7D8F830E0E548844209D101210805A4
:104A4000FFF7D0F800214FF48010FFF7CBF823E0F8
:104A5000DF48844208D101212020FFF7D4F800214B
:104A60002020FFF7D0F817E0DA48844209D101216D
:104A70008807FFF7B7F800214FF08040FFF7B2F842
:104A80000AE0D548844207D101214005FFF7AAF882
:104A900000216005FFF7A6F810BD2DE9FF47054688
:104AA0000E460024A14600BFA046B08900B100BF59
:104AB0002C8A24F44054F08804432C82AC8941F2BF
:104AC0000C608443B08831890843718908430443EA
:104AD000AC81AC8A24F44074B0890443AC8268464B
:104AE000FEF74BFFB548854202D0B948854202D156
:104AF000DDF80C9001E0DDF80890A88900F4004092
:104B000040B109EBC90000EB091031684900B0FB66
:104B1000F1F707E009EBC90000EB091031688900E3
:104B2000B0FBF1F76420B7FBF0F004012009642129
:104B300001FB1078A88900F4004040B1322000EB5E
:104B4000C800B0FBF1F000F00700044308E0322099
:104B500000EB08106421B0FBF1F000F00F000443FB
:104B60002C81BDE8FF874FF4165101600021818040
:104B7000C18001810C21418100218181704710B5E4
:104B800002460020108A20F470600B884C88234372
:104B90008C882343CC8823431843108210BD002106
:104BA000018041808180C180704721B1828942F4B7
:104BB0000052828104E082894DF6FF731A4082819F
:104BC0007047028B02F47F420283028B0A43028306
:104BD000704721B1828942F40042828103E08289D8
:104BE000C2F30E028281704721B1828A42F40062D0
:104BF000828204E0828A4FF2FF731A4082827047F9
:104C0000C1F308028280704701468888C0F308001B
:104C10007047028A4FF6F0731A400282028A0A43F2
:104C20000282704721B1828942F00202828104E04F
:104C300082894FF6FD731A408281704782894FF254
:104C4000FF731A40828182890A4382817047028AF7
:104C50004FF6DF731A400282028A0A4302827047CB
:104C600021B1028A42F48042028204E0028A4BF6B9
:104C7000FF731A4002827047818941F001018181EE
:104C8000704721B1828A42F00802828204E0828A5F
:104C90004FF6F7731A4082827047028BD2B20283BA
:104CA000028B42EA01220283704721B1828A42F0DC
:104CB0002002828204E0828A4FF6DF731A408282E9
:104CC000704721B1828A42F01002828204E0828A17
:104CD0004FF6EF731A4082827047828A4FF6FB7359
:104CE0001A408282828A0A438282704721B1828A74
:104CF00042F00202828204E0828A4FF6FD731A407B
:104D0000828270471AB1838A0B43838202E0838ACE
:104D10008B4383827047F0B50346002400260025AC
:104D2000002040F66A17B94200D100BF1846C1F30F
:104D3000421401F01F06012707FA06F5012C01D1E4
:104D40000C3004E0022C01D1103000E014301AB114
:104D500007682F43076002E00768AF430760F0BDB4
:104D600002460020B1F5007F00D100BF13880B4040
:104D70000BB1012000E00020704701F40072B2F591
:104D8000007F00D100BFCA430280704770B5024661
:104D9000002400230025002040F66A16B14200D10D
:104DA00000BFC1F3421501F01F03012606FA03F309
:104DB000012D13D19689334017E000000010014007
:104DC0000044004000480040004C004000500040BB
:104DD0000014014000780040007C0040022D02D108
:104DE000168A334001E0968A33400C12012606FAF7
:104DF00004F41688344013B10CB1012000E0002007
:104E000070BD10B50022002340F66A14A14200D103
:104E100000BF0A1201249440A3B2DC43048010BDF9
:104E20000CB50020019000907648006840F4803076
:104E30007449086000BF7348006800F400300090B7
:104E40000198401C0190009818B90198B0F5A06F26
:104E5000F1D16C48006800F4003010B101200090DE
:104E600001E0002000900098012846D165484030BC
:104E7000006840F080506349403108606248006833
:104E800040F44040604908605E48083000685D4971
:104E9000083108600846006840F400400860084691
:104EA000006840F4A05008605848091F0860081FB7
:104EB000006840F08070091F086000BF514800681A
:104EC00000F000700028F9D040F2057050490860E9
:104ED0004C480830006820F003004A490831086057
:104EE0000846006840F00200086000BF45480830EE
:104EF000006800F00C000828F8D10CBD10B545483A
:104F0000006840F47000434908603E48006840F083
:104F100001003C49086000203A49083108603948DE
:104F200000683D490840374908603C48091D086051
:104F3000081F006820F48020091F08600020314904
:104F40000C310860FFF76CFF4FF000603149803989
:104F5000086010BD70B50020002202230024022149
:104F6000284D08352D6805F00C0020B1042806D026
:104F7000082834D107E02A4D2A4E356033E02A4D07
:104F8000284E35602FE01F4D2D1D2D68C5F3805430
:104F90001C4D2D1D2D6805F03F0154B1224DB5FB70
:104FA000F1F5184E361D3668C6F3881605FB06F275
:104FB00009E01B4DB5FBF1F5124E361D3668C6F300
:104FC000881605FB06F20F4D2D1D2D68C5F3014512
:104FD0006D1C6B00B2FBF3F5124E356003E0104D13
:104FE000104E356000BF00BF064D08352D68C5F373
:104FF00003150E4E705D0B4D2D68C540094E356092
:1050000070BD0000003802400070004008544007A6
:10501000003C024088ED00E0FFFFF6FE1030002467
:105020000024F4003801002000127A003C01002026
:105030000648804706480047FEE7FEE7FEE7FEE732
:10504000FEE7FEE7FEE7FEE7FEE7FEE7FD4E0008AF
:10505000890100087FB504460D46089E41F20850BC
:1050600005510020A4F8E4060B20C4F8AC01002090
:1050700084F8B001002140F2EA600153801E015320
:105080000020A4F8E60684F80C1BC4F8C4054FF40D
:10509000B96001510020C4F8BC054FF4B86001515B
:1050A0000020C4F8CC05C4F8D4054FF4BA6001510F
:1050B0000020C4F8DC054FF4BC6001514FF4BB6024
:1050C00001510020C4F8E4054FF4BD6001510020F7
:1050D000C4F8EC054FF4BE6001510298C4F8F40521
:1050E0004FF4BF6003990151002141F20C5001556A
:1050F000401C0155801C0155401E0155801E06555F
:105100000020207063206060C4F88F16FF20C4F870
:10511000DC0041F20852105912591268516A88474E
:10512000C92104F1E0000CF0BAFB41F20852105919
:1051300012591268916A8847204605F08CFC7FBDA1
:105140002DE9FE4306460F4614461D46DDF828802D
:105150000195CDF80880009439463046DDE90123F9
:10516000FFF778FF3046BDE8FE830146D1F88F0691
:1051700070477FB582B004460D460A9E00962946C8
:105180002046DDE90423FFF765FF2046FFF7EDFF2A
:10519000204606B070BD7FB584B0044616461D4655
:1051A0002A46314604F2B1500CF052FB9DF816002D
:1051B00000F01F01BDF8040061F30700ADF8040022
:1051C000BDF81400ADF806009DF81600C0F34011BC
:1051D000BDF8040061F30F20ADF8040004F2B150F3
:1051E0000390029501A9204605F07FFB08B070BD31
:1051F0002DE9F04F85B004460E4617469846DDF877
:1052000038B0DDF84CA0DDF8409004F2B11505F897
:10521000018B05F801BB4A4604F2B3100F990CF05C
:1052200017FB11980390BDF8000066F30100ADF87C
:10523000000009F10200019004F2B1100290BDF8E3
:1052400000006AF3CF00ADF80000129880B2ADF80C
:105250000200BDF8000067F38200ADF800000020F6
:1052600004906946204604F087FE05B0BDE8F08F43
:105270002DE9F04F85B004460F4616469846DDF8F6
:1052800038B0DDF848A0DDF8409004F2B11505F81B
:10529000018B05F801BB4A4604F2B3100F990CF0DC
:1052A000D7FA13980390BDF8000067F30100ADF83A
:1052B000000009F10200019004F2B1100290BDF863
:1052C00000006AF3CF00ADF80000119880B2ADF88D
:1052D0000200BDF8000066F38200ADF800001498EB
:1052E00004906946204604F047FE05B0BDE8F08F03
:1052F00070B504460D462946204604F03DFE70BDBB
:105300002DE9FF4104460D4617462868C0F30920E1
:10531000103802287ED82868C0F30920A0F11002B6
:1053200005F10C0103A80CF093FABDF80C1020460F
:1053300002F056FDBDF80C0009286CD2DFE800F041
:105340000510310F527596B7D800D4F8DF0620B19A
:10535000D4F8DF16204604F09DFCBDE8FF8110E183
:1053600040F20B30F24BF3A2F4A10090FB480DF099
:10537000A7FA0646701C58B1B6F5806F08DA41F2FC
:1053800008510859095909684A6D0021904707E0FA
:1053900041F208510859095909684A6DF0A190472E
:1053A000EFE040F20E30E24BE2A2F5A10090EB48B4
:1053B0000DF086FA0646701C58B1B6F5806F08DA13
:1053C00041F208510859095909684A6D002190476E
:1053D00007E041F208510859095909684A6DE0A1EE
:1053E0009047CEE040F21130D14BD2A2ECA1009018
:1053F000DA480DF065FA0646701C68B1B6F5806FA4
:105400000ADA41F208510859095909684A6D002120
:10541000904709E0B6E08CE041F20851085909597B
:1054200009684A6DCEA19047ABE04FF44570C04B80
:10543000C0A2E4A10090C9480DF042FA0646701CD3
:1054400058B1B6F5806F08DA41F208510859095988
:1054500009684A6D0021904707E041F20851085958
:10546000095909684A6DBEA190478AE04FF4467019
:10547000AF4BB0A2E0490090B8480DF021FA0646C3
:10548000701C58B1B6F5806F08DA41F2085108591E
:10549000095909684A6D0021904707E041F2085117
:1054A0000859095909684A6DADA1904769E04FF460
:1054B00047709F4B9FA2D1A10090A8480DF000FA21
:1054C0000646701C58B1B6F5806F08DA41F20851F3
:1054D0000859095909684A6D0021904707E041F2CF
:1054E00008510859095909684A6D9DA1904748E03B
:1054F00040F21F308E4B8FA2CAA1009097480DF04A
:10550000DFF90646701C58B1B6F5806F08DA41F233
:1055100008510859095909684A6D0021904707E068
:1055200041F208510859095909684A6D8CA1904700
:1055300027E0BDF80C10204602F058FB00BB4FF4EA
:1055400049707B4B7BA2C2A1009084480DF0B8F952
:105550000646701C58B1B6F5806F08DA41F2085162
:105560000859095909684A6D0021904707E041F23E
:1055700008510859095909684A6D79A1904700BF37
:1055800000BF27E0288980B22968C1F3046140F296
:105590002B32674BCDE90021029066A2B7A16F487C
:1055A0000DF08EF90646701C58B1B6F5806F08DA1A
:1055B00041F208510859095909684A6D002190477C
:1055C00007E041F208510859095909684A6D64A178
:1055D000904700BF00BFC0E62DE9F04188B0044607
:1055E0000D4616461F46D4F88F06002823D14FF4E7
:1055F000BF70B14B4FA2B1A1009058480DF060F9B7
:10560000804608F1010058B1B8F5806F08DA41F220
:1056100008510859095909684A6D0021904707E067
:1056200041F208510859095909684A6D4CA190473F
:1056300008B0BDE8F081D4F88F06A8603022294672
:1056400004F2B3600CF004F90221C4F8B71600208C
:1056500004E0302204F2BF610A54401C2028F8DB29
:105660000EB1304601E0AFF2673003214FF47A7299
:10567000CDE90507CDE903212C2104F2B360012215
:105680000023CDE9002002911A4602212046FFF7AF
:10569000EFFD00BFCCE72DE9F34F99B00446402160
:1056A00009A80CF0FCF8402209A81A990CF0D0F8CF
:1056B00009AD2E462878697800EB0120A4F86D0624
:1056C000AD1C00200590069007900890049013E10F
:1056D000297805AA049811540498401C04906D1C64
:1056E000A81B122823DDE720814B12A281490090DC
:1056F0001A480DF0E5F8804608F1010058B1B8F5F8
:10570000806F08DA41F208510859095909684A6D51
:105710000021904707E041F20851085909590968EA
:105720004A6D0FA1904700201BB0BDE8F08FE3E069
:105730007F4501084552524F520000002573202535
:10574000732C6C696E652025643A2057726F6E6702
:1057500020706172616D657465720A00E02000203E
:105760004552524F523A206C6F67207072696E74C6
:10577000657220696E6E6572206661756C740A00D0
:1057800025732025732C6C696E652025643A2045AD
:105790006E636F6465206572726F720A00000000AC
:1057A00025732025732C6C696E652025643A20448E
:1057B0004A49474F206E6F7420636F6E6E65637445
:1057C00065640A0025732025732C6C696E6520259D
:1057D000643A20444A49474F206E6F7420636F6ECD
:1057E0006E656374656420746F2074686520696EEB
:1057F0007465726E65740A0034570108257320259C
:10580000732C6C696E652025643A2057726F6E6741
:105810002053444B207065726D697373696F6E0A13
:105820000000000025732025732C6C696E6520250F
:10583000643A2053444B2076657273696F6E20641E
:105840006964206E6F74206D617463680A000000E3
:1058500025732025732C6C696E652025643A2057CA
:1058600068696C652063616C6C696E672074686937
:10587000732066756E6374696F6E00002573202552
:10588000732C6C696E652025643A2041434B206976
:105890007320657863657074696F6E2C207365730F
:1058A00073696F6E2069642025642C73657175655A
:1058B0006E63652025640A004A450108257320258A
:1058C000732C6C696E652025643A20506C65617399
:1058D000652063616C6C2067657444726F6E6556F9
:1058E000657273696F6E2066697273742E0A0000A8
:1058F0006945010880570108287800287FF4E8AE40
:10590000297805AA049811546D1C2022294604F216
:1059100093600BF09DFF29E06D1CA81B402825DD3E
:10592000F620F74BAFF2F412F6490090F6480CF06F
:10593000C7FF804608F1010058B1B8F5806F08DA5A
:1059400041F208510859095909684A6D00219047E8
:1059500008E041F208510859095909684A6DAFF247
:105960000021904700201BB0BDE8F08F2878202848
:10597000D2D16D1C27E06D1CA81B402823DDFF2021
:10598000DF4BAFF25022DF490090DF480CF098FF68
:10599000804608F1010058B1B8F5806F08DA41F28D
:1059A00008510859095909684A6D0021904708E0D3
:1059B00041F208510859095909684A6DAFF260214E
:1059C00090470020CFE728782028D4D16D1C4FF0D5
:1059D00000092FE0297804F2836000F809106D1C9B
:1059E00009F10109A81B402824DD4FF48670C44B3F
:1059F000AFF2C022C3490090C3480CF061FF80465B
:105A000008F1010058B1B8F5806F08DA41F2085189
:105A10000859095909684A6D0021904708E041F288
:105A200008510859095909684A6DAFF2CC219047CD
:105A3000002098E728782D28CCD1002104F283603B
:105A400000F809106D1C8A468B4600270020039041
:105A50002DE0287830380A210AFB010A6D1CA81BAA
:105A6000402824DD40F21B10A54BAFF23832A54987
:105A70000090A5480CF024FF804608F1010058B1C1
:105A8000B8F5806F08DA41F20851085909590968D8
:105A90004A6D0021904708E041F208510859095920
:105AA00009684A6DAFF24831904700205BE72878DB
:105AB0002E28CED16D1C2DE0287830380A210BFB22
:105AC000010B6D1CA81B402824DD4FF492708C4BF9
:105AD000AFF2A0328B4900908B480CF0F1FE80466B
