:020000040800F2
:1000000028C3002081970008899700088B97000873
:100010008D9700088F970008919700080000000056
:10002000000000000000000000000000939700089E
:1000300095970008000000009797000801870108C5
:100040009B9700089B9700089B9700089B970008C8
:100050009B9700089B9700089B9700089B970008B8
:100060009B9700089B9700089B9700089B970008A8
:100070009B9700089B9700089B9700089B97000898
:100080009B9700089B9700089B9700089B97000888
:10009000DD9801089B9700089B9700089B97000834
:1000A0009B9700089B9700089B9700089B97000868
:1000B0009B9700089B9700089B9700089B97000858
:1000C0009B9700089B9700089B9700089B97000848
:1000D0009B97000839670008F1BB0108FBBB0108CA
:1000E0009B9700089B9700089B97000839B401086C
:1000F0009B970008D5B501089B9700089B970008BF
:100100009B9700089B9700089B9700089B97000807
:1001100005BC01089B9700089B9700089B97000867
:100120009B9700089B9700089B9700089B970008E7
:100130009B9700089B9700089B9700089B970008D7
:10014000919A01089B9700089B9700089B970008CD
:100150009B9700089B9700089B9700080FBC01081D
:100160009B9700089B9700089B9700089B970008A7
:100170009B9700089B9700089B9700089B97000897
:100180009B9700089B970008DFF814D01FF0AAFE89
:100190001EF0C4FB004800470B0800081FF0B9FB25
:1001A00028C30020FEB442464B4654465D463EB44A
:1001B0001EF003F93EBC90469946A246AB46FEBCF3
:1001C00000F032F8704700BF80EC200B7047C0ECA5
:1001D000200B704790EC200B7047D0EC200B704741
:1001E00085460D98DDF838E00F9B5DF8042B20E97B
:1001F0000C009DE8FE1F854601BD4DF808ED0DF190
:10020000080E4DF804ED2DE9FF1F002102B46946E8
:1002100081B01FF0BAFDDDF840E012B07047000079
:10022000F4BC020034D302004DF808ED0DF1080EC5
:100230004DF804ED2DE9FF1F002102B4694681B09D
:100240001FF00ABE2DE9F0472DED048B4FF0000999
:100250009FEDF90A10EE105A9FEDF70A10EE106AA2
:100260009FEDF50A10EE107A9FEDF30A10EE108A5A
:100270009FEDF10AB0EE408AB6EE000AF0EE408A39
:10028000B6EE000AB0EE409AB3EE040AF0EE409AE1
:10029000EA480078042803D0BDEC048BBDE8F08761
:1002A000E748807D00B9F7E7E548007F48B9E348B3
:1002B000007A28B1E148007A20F00200DF49087294
:1002C000EAE71CF059F8DF4801F001FBDC488189BE
:1002D0000122DC481CF066FDDB490870D848018A21
:1002E0000322D8481CF05EFDD7498871D448C189E3
:1002F0000222D4481CF056FDD349C870D048418A28
:100300000422D0481CF04EFDCF494872002487E0FB
:1003100004EB4400CC49085C012813D104EB4400F1
:1003200008448078401E00EB4000085C032809D197
:10033000002104EB4400C44A10448078401E00EBC6
:100340004000115404EB4400BF49085C022813D15B
:1003500004EB440008448078401E00EB4000085C39
:10036000032809D1022104EB4400B74A10448078E5
:10037000401E00EB4000115404EB4400B249085CFD
:10038000032817D104EB440008448078401E00EB9A
:100390004000085C03280DD1022104EB4400AA4A66
:1003A00010448078401E00EB40001154022004EB02
:1003B0004401505404EB4400A349085C78BB04EBAF
:1003C000440008448078401E00EB4000085C03288D
:1003D00025D1611CC8B21CF09CFC48B1002104EB83
:1003E0004400994A10448078401E00EB40001154AC
:1003F00093480A30611C30F811009149C98B88423A
:100400000DDA022104EB44008F4A10448078401E2C
:1004100000EB40001154022004EB44015054641CD2
:10042000042CFFF675AF88480078012806D101F04A
:10043000B9FB10EE105A0120834908738248807975
:10044000012807D1032001F0ADFB10EE105A012066
:100450007D4908737C48C078012807D1022001F04B
:1004600003FC10EE106A0120774948737648407A01
:10047000012807D1042001F0F7FB10EE106A0120DB
:100480007149487370480078022803D118EE105A59
:100490006D4908736C488079022805D1B1EE480A8D
:1004A00010EE105A684908736748C078022803D1D3
:1004B00018EE106A644948736348407A022805D1EF
:1004C000B1EE480A10EE106A5F4948735E48007842
:1004D000032805D1B1EE680A10EE105A5A49087384
:1004E00059488079032803D118EE905A5649087369
:1004F0005548C078032805D1B1EE680A10EE106A9D
:10050000514948735048407A032803D118EE906A45
:100510004D49487301201CF0FCFB70B903201CF00E
:10052000F8FB50B94848007B022806D19FED420AEB
:1005300010EE105A00204449087302201CF0E9FB19
:1005400070B904201CF0E5FB50B93F48407B0228FD
:1005500006D19FED390A10EE106A00203A4948731F
:100560003948007B00281BDD3748407BC0B902209A
:100570001CF0CFFB40B1022001F076FB10EE106AB8
:100580000420314948730BE004201CF0C2FB38B151
:10059000042001F069FB10EE106A04202A49487318
:1005A0002948407B00281BDD2748007BC0B901207B
:1005B0001CF0AFFB40B1012001F0F4FA10EE105A2C
:1005C0000420214908730BE003201CF0A2FB38B182
:1005D000032001F0E7FA10EE105A04201A490873BC
:1005E0001948007B002803DC1748407B00283DDDCC
:1005F0004FF001091348B0F91C00B0F5FA7F02DD95
:1006000019EE107A0EE00F48B0F91C0010F5FA7FD1
:1006100004DAB1EE490A10EE107A03E09FED060A03
:1006200010EE107A0748B0F91E00B0F5FA7F0DDD24
:1006300019EE908A26E000000000000084000020EF
:10064000183600205036002078360020F648B0F9E1
:100650001E0010F5FA7F04DAB1EE690A10EE108A76
:1006600010E01FED0B0A10EE108A0BE04FF00009AE
:10067000002405E0002004EB4401EC4A5054641CC3
:10068000042CF7DB002409E004EB4400E749085C94
:1006900004EB4401E54A11444870641C042CF3DB6C
:1006A000B9F1000F0FD0E248C0F80150C0F8056062
:1006B000C0F80970C0F80D80DE48007A40F00200F2
:1006C000DC4908722AE0DB48007A28B1D948007A70
:1006D00020F00200D7490872D548D0F8010000EE9A
:1006E000100AB5EEC00AF1EE10FA06D01FED2E0A80
:1006F00010EE100ACE49C1F80100CD48D0F805002F
:1007000000EE100AB5EEC00AF1EE10FA06D01FEDA9
:10071000360A10EE100AC649C1F8050000BFBBE555
:10072000C54A107B517BC34A1278042A00D0704717
:10073000FC2801D0FC2910D10122BE4B5A70B7EE23
:10074000000A10EE102ABA4BC3F80920B94A127AEF
:1007500042F00102B74B1A721CE00022B54B5A70EE
:10076000B34AD2F8092000EE102AB5EEC00AF1EE25
:1007700010FA06D01FED500A10EE102AAC4BC3F849
:100780000920AC4A127A2AB1AA4A127A22F001024E
:10079000A84B1A7200BFCAE710B51BF0AAFC0128CB
:1007A00001D1FFF7BDFF10BD0020A44908601AE089
:1007B000A349A24A1268885C411ECAB2A0499F4B55
:1007C0001B68CA5450B108469C490968405C28B966
:1007D00000219B48001D994A12688154974800687F
:1007E000401C96490860954800680428E0DB95485D
:1007F000407848B193484078401E92494870084676
:10080000407808B90120087070473EB505F034FE05
:100810001BF094FC4FF47A7005F0FCFE62208A4BCA
:100820008AA28E4900908E4822F024FD0446601C66
:1008300038B1B4F5967F04D289498AA022F00AFD26
:1008400002E089A022F006FD8FA092A194A296A3B7
:10085000CDE90021029096A297A19C4822F0FAFCD3
:100860006420794B79A27D4900907D4822F002FDF9
:100870000446601C38B1B4F5967F04D2784979A05B
:1008800022F0E8FC02E078A022F0E4FC00F0B3FCE7
:10089000002802DA4FF0FF303EBD1BF067FD1DF06F
:1008A000D3F81CF03FFF1DF0F9F91CF09CFC02226C
:1008B0004FF47A71AFF20F1019F09BFF029004F021
:1008C00051FE17E005F08BFD1DF03DFA00F03CFFF6
:1008D0001BF0FBFC1CF0BCFFFFF75EFF1DF0BBF93B
:1008E0001CF02EFEFFF7AEFC18F023FA18F0D5FE30
:1008F00019F0E8F9E6E710B52DED048B4D480078C6
:10090000042802D0BDEC048B10BD4D482A38807DF0
:1009100000B9F7E74A482A38007F48B94548007AC5
:1009200028B14448007A20F0020042490872E9E701
:100930001BF031FD0446002C74D03E48007A40F094
:1009400002003C49087204F00100A0B13C492A3978
:10095000088C1EF0A3F941EC190B9FED5D0B53ECD5
:10096000102B1EF0A9F841EC180B1EF007FA3049C5
:10097000C1F801001EE004F00400A0B130492A399A
:10098000088C1EF08BF941EC190B9FED530B53ECC7
:10099000102B1EF091F841EC180B1EF0EFF92449D2
:1009A000C1F8010006E01FEDDC0A10EE100A204934
:1009B000C1F8010004F00200A0B121492A39088CD5
:1009C0001EF06CF941EC190B9FED410B53EC102B11
:1009D0001EF072F841EC180B1EF0D0F91449C1F862
:1009E0000500A8E004F00800A0B115492A39088CD8
:1009F0001EF054F941EC190B9FED370B53EC102B03
:100A00001EF05AF841EC180B1EF0B8F90849C1F86D
:100A1000050090E01FEDF80A10EE100A0449C1F835
:100A2000050088E05CE000005036002078360020A9
:100A30008012002084000020D03C00200C00002008
:100A400042360020F0000020B4840208494D504F87
:100A500052545F4E4F5449434500000030B00208E5
:100A6000C21D0020257300004552524F523A206C9F
:100A70006F67207072696E74657220696E6E657240
:100A8000206661756C740A0031343A35383A343274
:100A9000000000004D6172203139203230313900C0
:100AA00030303034303000003030303630330000F9
:100AB0004F4D552D4E5244004D61696E426F61722B
:100AC000642D4E75636C65617252440074B0020807
:100AD0009A9999999999B93F9A9999999999B9BF78
:100AE000C848007A28B1C748007A20F00200C549FA
:100AF0000872C548D0F8010000EE100AB5EEC00A31
:100B0000F1EE10FA06D09FEDC10A10EE100ABE49B0
:100B1000C1F80100BC48D0F8050000EE100AB5EE9F
:100B2000C00AF1EE10FA06D09FEDB80A10EE100AD6
:100B3000B549C1F8050000BFE4E610B52DED0E8BF8
:100B40008EB0B0480078042803D00EB0BDEC0E8BF8
:100B500010BDAF48807D00B9F7E7AD48007F48B9C8
:100B6000A848007A28B1A748007A20F00200A549D9
:100B70000872EAE7A749096888680BF0ADFF8DEDB8
:100B8000080ACDED090A8DED0A1ACDED0B1ADDED3F
:100B90000B1A9DED0A1ADDED090A9DED080A04F015
:100BA00057FCB0EE409AF0EE609A9B49A1F1080024
:100BB00000F057FEB0EE490AF0EE690A23F0D8F9CA
:100BC000B0EE40CAF0EE60CA9249096888680BF03E
:100BD000CDFF8DED090ACDED0A0A8DED0B1A9DEDC5
:100BE0000A0A10EE101A08461EF084F841EC1D0B9C
:100BF00053EC1C2B1DF060FF41EC1B0BB0EE490ABF
:100C0000F0EE690A23F044F9B0EE40CAF0EE60CA93
:100C10008049096888680BF0A9FF8DED060ACDEDC3
:100C2000070A8DED081A9DED060A10EE101A084607
:100C30001EF060F841EC1D0B53EC1C2B1DF03CFF2B
:100C400041EC180B53EC1B2B1DF08FFE41EC1A0BE3
:100C50001EF094F8704908390861B0EE490AF0EEC8
:100C6000690A23F015F9B0EE408AF0EE608A69490E
:100C7000096888680BF07AFF8DED090ACDED0A0A44
:100C80008DED0B1A9DED0A0A10EE101A08461EF0A3
:100C900031F841EC1D0B53EC182B1DF00DFF41EC0E
:100CA0001B0BB0EE490AF0EE690A23F061F9B0EED1
:100CB00040DAF0EE60DA5749096888680BF056FFB1
:100CC0008DED060ACDED070A8DED081A9DED060A99
:100CD000B1EE408A18EE100A1EF00CF841EC1E0B23
:100CE00053EC1D2B1DF0E8FE41EC1C0B53EC1B2BB1
:100CF0001DF03BFE41EC1A0B1EF040F84649083946
:100D0000486144480068816803A80CF0C0F803A853
:100D100007C809AB07C33F480068816868460CF004
:100D2000B6F89DE8070006AB07C3BDF92430BDF94E
:100D30001A200CA90DA81BF0BAFE04466CB132496A
:100D40000D98C1F801000C98C1F805002D48007AF3
:100D500040F002002B4908722AE02A48007A28B1A4
:100D60002848007A20F00200264908722648D0F868
:100D7000010000EE100AB5EEC00AF1EE10FA06D03E
:100D80009FED220A10EE100A1F49C1F801001E480B
:100D9000D0F8050000EE100AB5EEC00AF1EE10FA28
:100DA00006D09FED1A0A10EE100A1749C1F8050087
:100DB00000BFCAE610B500230A220121032013F068
:100DC000A1F916490860062324220221032013F00A
:100DD00099F91349086013480178134810F038F85E
:100DE0000446124A12491DF0A9FDDFED081A9FEDD5
:100DF000071ADFED060A9FED050A4A2102480CF0AA
:100E000085FE10BD8400002080120020000000003C
:100E1000183600200800002058360020100000205E
:100E20001400002000000020B4070020000000088B
:100E3000990E010870B504460D4600BF40210E48CA
:100E400008F036FB0028F9D0E1B20B4808F080FA30
:100E5000204670BD10B500230A220121032013F0A3
:100E600051F906490860062324220221032013F0C9
:100E700049F90349086010BD004800401C000020EB
:100E80002000002000B58DB06148019061480C90B1
:100E900000231A4601A96048006812F022F90DB03B
:100EA00000BD0FB42DE9F04788B00446DDF880811D
:100EB000BDF84600103802284CDCBDF85150C4F88B
:100EC0007C570D2211A904F26F701FF06FFA40F2E7
:100ED0007F70005D8DF80000112204F26F7103A88D
:100EE0001FF064FA03A80FC808F05CFC00B34B487D
:100EF000008885421CD124F0F1FC824614F041FBAD
:100F0000074624F0EBFC81462D20454B45A239468F
:100F10000090484614F0E1FA0646006844A1826851
:100F20003046904700221146204611F054FC00BF85
:100F30003B48019040F27F70005D8DF80000112267
:100F400004F26F7103A81FF031FA03A80FC809F06B
:100F500092F919E024F0C2FC824614F012FB074615
:100F600024F0BCFC814634202D4B2EA23946009043
:100F7000484614F0B2FA06469DF84C20006833A1AA
:100F800083683046984700BF3848008885420CD1B6
:100F900040F2E460005940B140F2E4621159206827
:100FA00016F016FF04203249087008B0BDE8F007BB
:100FB0005DF814FB70B500230A220121032013F011
:100FC000A1F82C490860062324220221032013F0F3
:100FD00099F8294908602948007800F001000028A4
:100FE00014D1264822F072FA00280FD000250C20D8
:100FF00022F00AF904460125002114F033FA0446D0
:1010000000251F4804601D48AFF3008070BD00003C
:101010001FBF0F0034000020080000203A8902089A
:101020000F8502084552524F524C4F4700000000B6
:1010300053444B2076657273696F6E206469642037
:101040006E6F74206D617463680A000041434B2029
:10105000697320657863657074696F6E2C207365A1
:101060007175656E63652025640A00002A8902088F
:1010700084000020280000202C00002060060020B2
:101080006406002000F07F0200EE102AB8EEC00ACD
:10109000F0EE400A00EE101AB8EE400AB0EE401A28
:1010A00000F0800262B1DFED451AB0EE410A00EEB9
:1010B000A10AF1EE401A9FED422A81EE820A7047A2
:1010C000DFED3E1AB0EE410A00EEA10A9FED3C2A88
:1010D000C0EE021AB0EE610AF1E770B586B00446C0
:1010E0000D462068012802D10020206001E006B0F2
:1010F00070BD2079FA2802D16079FB2800D0F6E78C
:10110000A07920B1012808D0AA283AD108E000220D
:101110001146284611F05FFB34E0FFF7B3FE31E0E3
:10112000A07B00EB80004000616A4143607B00EBE4
:1011300080004000626A4243207B00EB8000400058
:10114000636A4343E07A00EB80004000666A7043C4
:10115000CDE9023204910190A07A00EB80004000BA
:101160000090607A00EB80004300207A00EB800062
:101170004200E07900EB80004100124822F06AF85A
:1011800000E000BF00BF00BFB1E710B500230A2296
:101190000121032012F0B6FF0B4908600623242228
:1011A0000221032012F0AEFF084908600848002120
:1011B00001608162C16200BF10BD00000000804379
:1011C0000000C842D8B00208780000207C0000204F
:1011D00094120020E148008820B1E0480088401EB9
:1011E000DE490880DE48008820B1DD480088401EC6
:1011F000DB490880704738B50020DA49086041F2C1
:10120000883005F007FAD8490968086817F086F9A8
:1012100004460068816920468847002827D1572066
:10122000D24BD3A2D4A10090E14822F023F8054686
:10123000681C38B1B5F5967F04D2DD49DDA022F0F7
:1012400009F802E0DCA022F005F8012000F080FDA2
:1012500000F083FDC448006830B1C34800680FF057
:101260001BFE054621F0C4FF4FF0FF3038BDDAA069
:1012700021F0F0FFDDA021F0EDFFECA021F0EAFF6E
:10128000F1A021F0E7FFFDA021F0E4FF1E2005F012
:10129000C1F9B548006811F0F6FA4FF4FA7005F09C
:1012A000B9F9B148006810F0E5F8002827D16B20A3
:1012B000AE4BAFA2F9490090BD4821F0DBFF0546D7
:1012C000681C38B1B5F5967F04D2B949B9A021F0B0
:1012D000C1FF02E0B8A021F0BDFF012000F038FD01
:1012E00000F03BFDA048006830B19F4800680FF057
:1012F000D3FD054621F07CFF4FF0FF30B6E79A485A
:10130000006810F0B7F8002836D09748006810F051
:10131000B1F8E349096888422ED29348006810F07A
:10132000A9F8E049884227D07620904B90A2DB496B
:1013300000909F4821F09EFF0546681C38B1B5F526
:10134000967F04D29A499BA021F084FF02E09AA0E4
:1013500021F080FF012000F0FBFC00F0FEFC824841
:10136000006830B1804800680FF096FD054621F016
:101370003FFF4FF0FF3079E74FF47A7005F04AF9FC
:1013800002221421AFF2B31019F033FA00900120B9
:101390006CE730B589B0C449A1F165001BF0A1FF2D
:1013A000A8B1C24890F8911100F5967001F08DF83F
:1013B000BD4D543D002408E001A800EB840105F177
:1013C0001F0050F824000860641C082CF4DB09B0EE
:1013D00030BD00B52DED028B8FB06148008818B983
:1013E0000A205F49088003E00FB0BDEC028B00BD0E
:1013F0005D480068816801A80BF06BFC1C2201A904
:1014000008A81EF0D3FF9DED0D8AA948007B00B906
:10141000EAE7B1EE000AB4EEC08AF1EE10FA03DD9D
:101420000220A34988600AE0B0EE080AB4EEC08A40
:10143000F1EE10FA03D24FF0FF309D49886000BFF3
:10144000D2E710B58CB04849096888680BF06CFD8C
:101450000B9045480068816804A80BF018FD04A8AB
:1014600007C808AB07C34049096888680BF0C4FD8A
:101470000790BDF92800002801DC0CB010BD8D4894
:10148000007A00F0040058B18B48007840B900227F
:101490001146354800680FF0DFFE012086490870CC
:1014A0009DF82C00022800D0E7E78248007A002847
:1014B00024D19DF81D0000F0070002281DD1002254
:1014C0001146294800680FF01BFE4FF495707B4BC6
:1014D0007BA27FA10090364821F0CCFE0446601C20
:1014E00038B1B4F5967F04D2314932A021F0B2FE72
:1014F00002E031A021F0AEFE00BFBEE76D48007AE9
:1015000000F0010028B96B48007A00F002000028C2
:1015100021D06848007A30B11048008818B90120FD
:101520000E49088000E0A8E79DF81D0000F00700C4
:10153000022811D0002211460B4800680FF08CFEE3
:101540009DF81D0000F007004FF49F715B4B5CA2FB
:10155000CDE90010CEE0F5E0E1E0000090000020D1
:1015600092000020AC82424208000020368502082A
:101570004552524F5200000025732025732C6C6990
:101580006E652025643A20555341525420636F6D97
:101590006D756E69636174696F6E206973206E6F1B
:1015A0007420776F726B696E672E0D0A0000000061
:1015B000C21D0020257300004552524F523A206C44
:1015C0006F67207072696E74657220696E6E6572E5
:1015D000206661756C740A000A50726572657175D7
:1015E0006973697465733A0D0A000000312E205644
:1015F000656869636C6520636F6E6E6563746564AE
:1016000020746F2074686520417373697374616E10
:101610007420616E642073696D756C6174696F6E9E
:10162000206973204F4E0D0A00000000322E204228
:101630006174746572792066756C6C792063686179
:101640006E726765640D0A00332E20444A49474F85
:101650002041707020636F6E6E656374656420282E
:10166000666F72207468652066697273742074698D
:101670006D652072756E290D0A000000342E20471A
:10168000696D62616C206D6F756E7465642069664A
:10169000206E65656465640D0A00000048B10208AB
:1016A000A0000020000A0103163600208534002027
:1016B0008836002084000020980000204B85020816
:1016C000494D504F52545F4E4F544943450000001E
:1016D00025732025732C6C696E652025643A206F74
:1016E000657320636F6E74726F6C20636C6F7365CB
:1016F000640A0000F0A1FE4821F0BCFD0446601C15
:1017000040B1B4F5967F05D2F949AFF2581021F0F7
:10171000A1FD03E0AFF2601021F09CFD12E0F5485E
:10172000C1680091007C8DF80400F3480068112224
:10173000F049C46802A81EF039FE204602A90EC96D
:101740000CF05EF900BF98E610B586B0EB48007863
:1017500020B1032834D004287FD172E0E848006823
:10176000401CE74908600320E4490870E548006828
:101770004860FFF787FBE04800680FF07BFEE24916
:10178000884208D0DC49096848680EF0DBFB4FF45A
:10179000FA7004F03FFFD84800680222816801A86F
:1017A0000BF068FD322004F035FFD3490968D74AB1
:1017B000C869D7490DF0D1FF322004F02BFF4DE06E
:1017C000CE484068CF490968401A41F288318842C2
:1017D00036D30020C9490870C7490968086814F061
:1017E000C7FFC748006805282ADDBA20C94BAFF2F9
:1017F0008022C9A10090BE4821F03CFD0446601C37
:1018000040B1B4F5967F05D2B949AFF2582021F026
:1018100021FD03E0AFF2602021F01CFD012000F06B
:1018200097FA00F09AFAB448006830B1B2480068FC
:101830000FF032FB044621F0DBFC06B010BD0CE0DB
:101840000CE0FFF7FEFDFFF7C4FDFFF7A2FDAA497C
:101850000968086814F08CFF00E000BF00BF00BFFB
:10186000EBE77FB504460D46A349096888680BF08D
:1018700033F98DED000ACDED010A8DED021ACDEDA3
:10188000031ADDED031A9DED021ADDED010A9DED4F
:10189000000A03F0F5FD84ED000B9749096888689C
:1018A0000BF01AF98DED000ACDED010A8DED021A4B
:1018B000CDED031ADDED031A9DED021ADDED010AEF
:1018C0009DED000A03F0F4FD85ED000B7FBD30B502
:1018D0002DED0C8B99B0054687480068816801A8FA
:1018E0000BF0F7F91C2201A912A81EF05FFD824837
:1018F0000068816805A80BF0CAFA05A807C80FABF5
:1019000007C37D49096888680BF030F98DED0C0A32
:10191000CDED0D0A8DED0E1A7749096888680BF038
:10192000DBF88DED080ACDED090A8DED0A1ACDED33
:101930000B1A2C467049096888680BF0CDF88DEDBC
:10194000040ACDED050A8DED061ACDED071ADDED81
:10195000071A9DED061ADDED050A9DED040A03F058
:101960008FFD84ED000B6449096888680BF0B4F8BA
:101970008DED040ACDED050A8DED061ACDED071AA1
:10198000DDED071A9DED061ADDED050A9DED040A51
:1019900003F08EFD84ED020BBDF83E006083BDF8C0
:1019A0003C002083BDF84200A083BDF84000E083E6
:1019B000DDED0B1A9DED0A1ADDED090A9DED080A11
:1019C00003F046FDB0EE40DAF0EE60DA22F0D0FA35
:1019D000B0EE40BAF0EE60BA9DED0D0A10EE101AAE
:1019E00008461DF087F941EC1C0B53EC1B2B1DF036
:1019F00063F841EC190BDDED0B1A9DED0A1ADDEDD4
:101A0000090A9DED080A03F023FDB0EE40DAF0EE7E
:101A100060DA22F03DFAB0EE40BAF0EE60BA9DED29
:101A20000C0A10EE101A08461DF064F941EC1C0B6C
:101A300053EC1B2B1DF040F841EC1A0B53EC192B07
:101A40001CF093FF41EC180B1DF098F92061DDEDBF
:101A50000B1A9DED0A1ADDED090A9DED080A03F047
:101A6000F7FCB0EE40DAF0EE60DA22F011FAB0EEF8
:101A700040BAF0EE60BA9DED0D0A10EE101A08465D
:101A80001DF038F941EC1C0B53EC1B2B1DF014F826
:101A900041EC190BDDED0B1A9DED0A1ADDED090A7B
:101AA0009DED080A03F0D4FCB0EE40DAF0EE60DA07
:101AB00022F05EFA50E0000025732025732C6C693B
:101AC0006E652025643A2073646B696E666F2E64C0
:101AD00065766963655374617475733D25642C2064
:101AE0006F657320736574436F6E74726F6C0A0058
:101AF000C21D002080120020080000208400002069
:101B00009400002094040020000A01038534002082
:101B1000912400083F85020825732025732C6C69E9
:101B20006E652025643A2061767469766520646A62
:101B300069206661696C652065786365656420313C
:101B4000302074696D65732C7265736574207072D2
:101B50006F6772616D210A00B0EE40BAF0EE60BAB4
:101B60009DED0C0AB1EE400A10EE101A08461DF069
:101B7000C1F841EC1C0B53EC1B2B1CF09DFF41ECFE
:101B80001A0B53EC192B1CF0F0FE41EC180B1DF056
:101B9000F5F860619DED170A84ED080A19B0BDECF7
:101BA0000C8B30BD10B52DED068B04467249088CA8
:101BB0001DF074F841EC1A0B9FED700B53EC102BD9
:101BC0001CF07AFF41EC190B1DF0D8F808EE900AD2
:101BD0006C4890ED040AB0EE408AB4EEE88AF1EE6B
:101BE00010FA02DDB0EE688A25E0B1EE680AB4EEC4
:101BF000C08AF1EE10FA04D2B1EE680AB0EE408A63
:101C000019E0B5EEC08AF1EE10FA0ADB38EE280AC8
:101C100030EE080AF0EE080A80EE201AB0EE418A93
:101C200009E038EE080A30EE680AF0EE080A80EEA5
:101C3000201AB0EE418A012C06D1B5EEC08AF1EE31
:101C400010FA01D2B0EE688A032C08D1B5EEC08A32
:101C5000F1EE10FA03DDB1EE680AB0EE408AB0EEA4
:101C6000480ABDEC068B10BD10B52DED068B044661
:101C70004149088C1DF012F841EC1A0B9FED3F0B07
:101C800053EC102B1CF018FF41EC190B1DF076F8EB
:101C900008EE100A3B4890ED050AF0EE408AF4EE9B
:101CA000C88AF1EE10FA02DDF0EE488A25E0B1EEC6
:101CB000480AF4EEC08AF1EE10FA04D2B1EE480AF6
:101CC000F0EE408A19E0F5EEC08AF1EE10FA0ADB78
:101CD00038EEA80A30EE080AF0EE080A80EE201A64
:101CE000F0EE418A09E038EEA80A30EE480AF0EE3C
:101CF000080A80EE201AF0EE418A022C06D1F5EE99
:101D0000C08AF1EE10FA01D2F0EE488A042C08D114
:101D1000F5EEC08AF1EE10FA03DDB1EE480AF0EEFE
:101D2000408AB0EE680ABDEC068B10BD10B50023EA
:101D30000A220121032012F0E5F913490860062365
:101D400024220221032012F0DDF91049086010BDA1
:101D500000F0010181F313887047BFF34F8F0C48E7
:101D6000006800F4E0600B490843001D0849086062
:101D7000BFF34F8F00BFFEE7183600209A9999995C
:101D80009999B93F503600209C000020A000002007
:101D90000CED00E00000FA05F0B52DED088BA5B0C4
:101DA00000244FF4FA661427FE4800681422816864
:101DB0000EA80BF05FFAE6E0FA49096888680BF0B4
:101DC000B3F82490F7480068816807A80AF081FFFB
:101DD0001C2207A91DA81EF0E9FAF24800688168D4
:101DE0000BA80BF054F80BA807C81AAB07C3ED49B2
:101DF000096888680AF0BAFE8DED170ACDED180A59
:101E00008DED191AE749096888680AF065FE8DEDBD
:101E1000130ACDED140A8DED151ACDED161A2146D3
:101E2000E1A021F017FAE4A021F014FA9DF8901037
:101E3000E4A021F00FFA9DED210A10EE101A0846D9
:101E40001CF058FF41EC180B8DED028B9DED1F0B24
:101E50008DED000B9DED1D1BB0EE410AF0EE610A09
:101E600053EC102BDCA021F0F5F9BDF96E000090C9
:101E7000BDF96C30BDF96A20BDF96810DFA021F012
:101E8000E9F99DED190A10EE101A08461CF032FF10
:101E900041EC180B9DED180A10EE101A08461CF0C4
:101EA00029FF41EC190B9DED170A10EE101A084698
:101EB0001CF020FF41EC1A0B8DED028B8DED009B89
:101EC00053EC1A2BD8A021F0C5F99DED160A10EE9F
:101ED000101A08461CF00EFF41EC180B9DED150A78
:101EE00010EE101A08461CF005FF41EC190B9DED91
:101EF000140A10EE101A08461CF0FCFE41EC1A0BF6
:101F00009DED130A10EE101A08461CF0F3FE41EC8A
:101F10001B0B8DED048B8DED029B8DED00AB53EC17
:101F20001B2BCBA021F096F99E480068816868467B
:101F30000AF0CFFE1C22694607A81EF037FA9DED75
:101F40000C0A10EE101A08461CF0D4FE41EC180BD7
:101F500053EC182BCCA021F07DF9924909688868D0
:101F60000BF04AF80D909DF8350000F00705294662
:101F7000C9A021F06FF9CEA021F06CF932344FF4F2
:101F8000FA7004F047FBB442FFF616AFCBA021F085
:101F900061F9012025B0BDEC088BF0BD2DE9F04FB3
:101FA0002DED088BA1B0002020904FF47A601F9097
:101FB00000201E900124C54800681D9001201C903F
:101FC00000267849CDE9006409681DAB48681C9A71
:101FD0001E990DF030FF05462DB9284621B0BDEC05
:101FE000088BBDE8F08F6F49096848681E990EF0AC
:101FF000BFF84FF4FA7004F00DFB01201E900A2484
:10200000B248001D00681B9001201C900026654905
:10201000CDE9006409681BAB48681C9A1E990DF055
:102020000AFF05460DB92846D8E75E4909684868A1
:102030001E990EF09DF84FF4FA7004F0EBFA0220AE
:102040001E903224A148083000681A9002201C908B
:1020500000265449CDE9006409681AAB48681C9A07
:102060001E990DF0E8FE05460DB92846B6E74D4924
:10207000096848681E990EF07BF84FF4FA7004F076
:10208000C9FA03201E90C8240020199001201C903A
:1020900000264449CDE90064096819AB48681C9AD8
:1020A0001E990DF0C8FE05460DB9284696E73D4934
:1020B000096848681E990EF05BF84FF4FA7004F056
:1020C000A9FA4FF4FA5004F0A5FA4FF47A674FF4E6
:1020D000FA780020069033490968086816F01EFA5D
:1020E00083460068C1685846884710EB070A00BF5E
:1020F0002C490968486823F0EFFA189029480068CD
:102100004168684623F074F91822694612A81EF047
:102110004DF924480068416803A823F0C7F903A8D3
:1021200007C80FAB07C31F480068416802A823F027
:1021300077FB02A80FC8CDE90D23CDE90B011949A2
:102140000968486823F0F2F88DED070ACDED080A1A
:102150008DED091ACDED0A1A13A0209921F07AF815
:1021600015A021F077F817A0189921F073F89DEDCC
:10217000160A10EE101A08461CF0BCFD41EC180BB4
:102180008DED028B9DED120B8DED000B9DED141B63
:10219000B0EE410AF0EE610A53EC102B0EA021F0D4
:1021A00059F895E008000020436F756E7465722041
:1021B0003D2025643A0A00002D2D2D2D2D2D2D0AB0
:1021C00000000000466C6967687420537461747580
:1021D00073203D2025640A00506F736974696F6E27
:1021E00020284C4C4129203D20252E33662C2025CB
:1021F0002E33662C20252E33660A000052432043DE
:102200006F6D6D616E64732028722F702F792F743B
:10221000687229203D2025642C2025642C2025640B
:102220002C2025640A00000056656C6F6369747980
:10223000202876782C76792C767A29203D20252E38
:1022400033662C20252E33662C20252E33660A007B
:102250004174746974756465205175617465726E3A
:10226000696F6E2028772C782C792C7A29203D20D4
:10227000252E33662C20252E33662C20252E336602
:102280002C20252E33660A00686569676874203D36
:102290002025660A00000000636F6E74726F6C4444
:1022A000657669636528645329203D2025640A000A
:1022B0002D2D2D2D2D2D2D0A0A000000446F6E6549
:1022C000207072696E74696E67210A006C8502085D
:1022D000BDF942000090BDF94030BDF93E20BDF986
:1022E0003C10AFF2E80020F0B5FF9DED0D0A10EEB6
:1022F000101A08461CF0FEFC41EC180B9DED0C0A70
:1023000010EE101A08461CF0F5FC41EC190B9DED7F
:102310000B0A10EE101A08461CF0ECFC41EC1A0BEC
:102320008DED028B8DED009B53EC1A2BAFF2081054
:1023300020F090FF9DED0A0A10EE101A08461CF0DE
:10234000D9FC41EC180B9DED090A10EE101A084655
:102350001CF0D0FC41EC190B9DED080A10EE101A90
:1023600008461CF0C7FC41EC1A0B9DED070A10EE65
:10237000101A08461CF0BEFC41EC1B0B8DED048BC3
:102380008DED029B8DED00AB53EC1B2BAFF240109B
:1023900020F060FFAFF2E80020F05CFF4FF4FA702D
:1023A00004F038F935490968086816F0B7F881462D
:1023B0000068C1684846884710EB080006900698F8
:1023C0005045FFF495AEAFF20C1020F043FF2B49BF
:1023D0000968486800210EF002F940F6B83004F0B0
:1023E00019F926490968486801210EF0F8F840F605
:1023F000B83004F00FF921490968486802210EF04D
:10240000EEF840F6B83004F005F91C490968486850
:1024100003210EF0E4F840F6B83004F0FBF8012098
:10242000DCE570B500230A220121032011F06AFEC9
:1024300013490860062324220221032011F062FEC2
:10244000104908601048007800F00100002814D1FD
:102450000D4821F03BF800280FD000250C2020F07B
:10246000D3FE04460125002112F0FCFF044600259E
:10247000064804600448AFF3008070BD08000020E7
:10248000A8000020AC0000206006002064060020A8
:102490000FB42DE9F0478146589D2E4606F1C80736
:1024A0000DF13108BDF82600123884B2142C08DB77
:1024B000642C06DC2246414638461DF077FF86F83C
:1024C0009041BDE8F0075DF814FB70B504460D4679
:1024D000D14909682A46C86921460DF005F900204E
:1024E000CE490860CE480068CE49086070BD0FB480
:1024F0002DE9F04389B00446609FBDF846001038CE
:10250000022865D80D2211A904A81DF04FFF20460E
:102510000EF0B0FFC449884204D09DF85100CDF8B8
:102520001D0003E0BDF85100CDF81D009DF820000E
:102530008DF8000004A80FC807F034F948B1BB4873
:1025400001909DF820008DF8000004A80FC807F046
:1025500092FE9DF844008DF808009DF845008DF826
:10256000090012988078072809D00222B04902A8F1
:102570001CF0BBF888B11298807801280DD1052095
:10258000ADF80C00BDF81D0080B2ADF80E000422BD
:1025900003A9E0690DF0A8F819E0129880780828DE
:1025A00008D00222A24902A81CF09FF878B1129824
:1025B000807860B90620ADF80C00BDF81D0080B22F
:1025C000ADF80E00042203A9E0690DF08DF819E0C2
:1025D00023F084F9814612F0D4FF064623F07EF9F9
:1025E0008046DB20914B93A231460090404612F08A
:1025F00074FF05469DF84C20006891A18368284629
:10260000984700BF09B0BDE8F0035DF814FB0FB4B4
:102610002DE9F04F87B00546609F91480088CDF8BE
:1026200015004FF0010828460EF059FD8146BDF80F
:1026300046001038022809D8BDF85100CDF8150021
:102640000D2211A902A81DF0B1FE19E023F046F9F0
:10265000834612F096FF064623F040F982468C200E
:10266000804B74A231460090504612F036FF04466B
:102670009DF84C20006872A183682046984700BFEF
:10268000DDF8150078490988884206D10022AFF2AA
:10269000810128460EF0E0FD25E0DDF815007349C4
:1026A0000988884206D10022AFF29D0128460EF02B
:1026B00027FD18E012988078012803D10220ADF898
:1026C000040005E01298807810B90320ADF80400EA
:1026D000BDF8150080B2ADF80600042201A9E86932
:1026E0000DF002F800BF07B0BDE8F00F5DF814FB75
:1026F0000FB470B50646549DBDF82140022C06D09B
:10270000032C0CD0052C12D0062C44D129E0002239
:10271000AFF20511404800680EF09EFD3CE000223B
:10272000AFF215113C4800680EF0EAFC34E03A487C
:1027300000680EF09FFE3C49884209D0364909687E
:102740000023AFF25522C86807210AF08EFE07E089
:10275000314909680022C868AFF26D210BF006F814
:102760001AE02D4800680EF085FE2F49884209D0F6
:10277000294909680023AFF28922C86808210AF0B4
:1027800074FE07E0244909680022C868AFF2A1215D
:102790000BF04CF800E000BF00BF70BC5DF814FB0C
:1027A0007FB5054654AC1C480068816868460AF04D
:1027B00094FB9DE80F0084E80F007FBD70B50023F7
:1027C0000A220121032011F09DFC294908600623FB
:1027D00024220221032011F095FC26490860264896
:1027E000007800F00100002814D1234820F06EFE8C
:1027F00000280FD000250C2020F006FD04460125FE
:10280000002112F02FFE044600251C4804601A48DF
:10281000AFF3008070BD000008000020A00243421A
:102820009404002098040020000A01039585020802
:10283000C18702084552524F524C4F4700000000DA
:1028400041434B20697320657863657074696F6ECE
:102850002C2073657175656E63652025640A000020
:10286000A88802087685020842890208448902087D
:10287000B4000020B800002060060020640600209C
:102880002DE9FE43814601260A24FD480068029096
:1028900002274FF00008FB49CDE90084096802AB2C
:1028A0003A46486831460DF0C6FA054615B928463D
:1028B000BDE8FE83F3490968486831460DF058FCCD
:1028C0004FF4FA5003F0A6FE0120F1E730B52DEDEC
:1028D000028B85B00546284624F077FF044620E0A9
:1028E000641C216908461CF005FA41EC180B8DEDBB
:1028F000028BA068E168CDE9000120686168641E70
:1029000041EC100B53EC102BDFA020F0A3FCDD49B1
:102910000968096A00231A464868214612F0A6FA97
:102920005A34284624F04DFFA042D9D105B0BDEC61
:10293000028B30BD9FEDDE0A10EE101A40F8151F15
:1029400000218180C1800172417464214182017D36
:1029500021F00F010175017D21F0F001017515389D
:10296000002108E0002300F12A025354103202EB48
:1029700041021380491C1029F4DB70472DE9F04710
:102980002DED0C8B98B006468846B0EE408AF0EEEE
:10299000608A1546344617A824F0BFFB074639461F
:1029A000204624F0B9FB0446002020606060A0604F
:1029B00000BF264628461CF060F941EC1A0B53EC88
:1029C0001A2B9FEDBC0B51EC100B1CF0E7F841ECFF
:1029D000190B002088F800004146304624F0F9FE2B
:1029E000012476E0B146A4F1010A484624F0EDFE48
:1029F000CAEB0A1101EB410100EB410007466846B2
:102A0000FFF798FFE0B28DF8000020461CF035F982
:102A100053EC192B1CF050F841EC1C0BB0EE4C0A97
:102A2000F0EE6C0A21F034FAB0EE40BAF0EE60BA83
:102A300053EC182B51EC1B0B1CF03EF841EC1A0B1D
:102A400057F8010F796841EC100B53EC102B51EC47
:102A50001A0B1BF08AFFCDF80100CDF805102046B7
:102A60001CF00BF953EC192B1CF026F841EC1C0B55
:102A7000B0EE4C0AF0EE6C0A21F07AFAB0EE40BAF1
:102A8000F0EE60BA53EC182B51EC1B0B1CF014F851
:102A900041EC1A0BB868F96841EC100B53EC102BA1
:102AA00051EC1A0B1BF061FFCDF80900CDF80D10A9
:102AB00038697F1E00EE100AF7EE000A30EE200A99
:102AC00010EE100ACDF811006946304624F081FE60
:102AD000641CAC4286DB88F800504146304624F046
:102AE00078FE18B0BDEC0C8BBDE8F08730B52DED4D
:102AF000068BABB005460C46B0EE409AF0EE609AFD
:102B0000B0EE418A4FF4FA5003F084FD14A8FFF7A9
:102B100011FF5C4800680EF0ADFC6849884232D075
:102B200058480068416801A822F062FC182201A9F7
:102B30000EA81DF03BFCDDE91001CDF85100CDF8E9
:102B40005510DDE90E01CDF85900CDF85D1018EEF5
:102B5000100ACDF8610018EE100A1CF0CBF841EC19
:102B60001A0B8DED02AB9DED0E0B8DED000B9DED67
:102B7000101BB0EE410AF0EE610A53EC102B50A08E
:102B800020F068FB31E03F480068816868460AF041
:102B9000A0F81C22694607A81DF008FCDDE9070122
:102BA000CDF85100CDF85510DDE90901CDF85900F7
:102BB000CDF85D1018EE100ACDF8610018EE100A7D
:102BC0001CF098F841EC1A0B8DED02AB9DED090B52
:102BD0008DED000B9DED071BB0EE410AF0EE610A92
:102BE00053EC102B36A020F035FB2246B0EE490AFC
:102BF000F0EE690A14A92846FFF7C0FE2BB0BDEC21
:102C0000068B30BDB2EE040A10EE101AC01C40F85C
:102C1000021CB1EE040A10EE101AC0F802100021D6
:102C200081710121C1710021017241720121817202
:102C30000021C1729FED2C0B52EC101BC160026190
:102C40009FED290B52EC101B416182619FED180A28
:102C500010EE101AC161C01E704710B52DED048B27
:102C600096B00446074800680EF004FC13498842F9
:102C700046D004480068FFF703FE00B938E03FE0A3
:102C8000C085020808000020576179706F696E7472
:102C9000206372656174656420617420284C4C4126
:102CA000293A20256620092566200925660A200084
:102CB00000000000182D4454FB211940000A0103B4
:102CC000576179706F696E742063726561746564B1
:102CD00020617420284C4C41293A20256620092582
:102CE00066200925660A00000000000000000000C0
:102CF000E1A020F0AFFA002016B0BDEC048B10BDAF
:102D000009A8FFF77FFF601CC0B28DF824009FED7B
:102D1000E29BB2EE048A09A80090E1480068012312
:102D20000022016A01A80CF089FA4FF4FA7003F04E
:102D300071FCDB490968086A0CF0ADFBD9A020F0F2
:102D400089FAB0EE481AB0EE490AF0EE690A214657
:102D500006A8FFF7CBFEDCA020F07CFA06A8FFF760
:102D6000B5FDDFA020F076FACD490968096A486808
:102D7000CB490968096A4968096800228B681146CD
:102D800098474FF4FA7003F045FCDBA020F062FA9C
:102D9000C3490968486801210DF021FC40F6B830AC
:102DA00003F038FC06A824F03BFD0120A4E710B591
:102DB0002DED068B96B00446B94800680EF05AFB1C
:102DC000D44988420CD0B6480068FFF759FD38B99D
:102DD000A9A020F03FFA002016B0BDEC068B10BD74
:102DE00000200090AE48006801231A46016A02A83C
:102DF0000CF024FAAA490968086A0CF04CFBA848B0
:102E000000680EF037FBC349884226D0A44800680A
:102E1000416801A822F0ECFA182201A910A81DF0BF
:102E2000C5FA20461BF029FF41EC180B9DED122B33
:102E3000B0EE421AF0EE621A9DED102BB0EE420A8F
:102E4000F0EE620A96490968096AB0EE482AF0EE87
:102E5000682A88680BF00BFE25E0914800688168BD
:102E6000684609F036FF1C22694609A81DF09EFA43
:102E700020461BF002FF41EC180B9DED092BB0EE34
:102E8000421AF0EE621A9DED0B2BB0EE420AF0EE04
:102E9000620A83490968096AB0EE482AF0EE682A96
:102EA00088680BF0E4FD00F09DF99BA020F0D2F9BA
:102EB0007B490968096A886879490968096A8968E3
:102EC000096800228B68114698474FF4FA7003F0A6
:102ED000A1FB4FF47A6003F09DFB9AA020F0BAF9B1
:102EE0006F490968096A88686D490968096A8968CB
:102EF000096800228B691146984741F2883003F037
:102F000089FB94A020F0A6F965490968096A8868D8
:102F100063490968096A8968096800220B6A1146D1
:102F200098474FF47A6003F075FB20461BF0A5FE2E
:102F300041EC190B9FED890B53EC102B1BF0BCFDE2
:102F400041EC180B53EC182B86A020F083F9204697
:102F50001BF093FE41EC1A0B9FED800B53EC102BF2
:102F60001BF0AAFD41EC190B1BF008FF08EE100A3C
:102F70004B490968096A002288681146B0EE480A80
:102F80000BF028FB42F2107003F044FB80A020F00D
:102F900061F901208DF81C00B1EE040A10EE100A50
:102FA000CDF81D003E490968096A00231A46886861
:102FB00007A90BF075FA42F2107003F02BFB44F6F0
:102FC000206003F027FB7FA020F044F93449096812
:102FD000096A886832490968096A896809680022AB
:102FE0000B69114698474FF47A7003F013FB77A0F2
:102FF00020F030F92A4800680EF03CFA4549884232
:1030000009D027490968486801210DF0E8FA40F61F
:10301000B83003F0FFFA00F0ACFADDE670B500233B
:103020000A220121032011F06DF86A490860062385
:1030300024220221032011F065F8674908606748DF
:10304000007800F00100002814D1644820F03EFA16
:1030500000280FD000250C2020F0D6F804460125CA
:10306000002112F0FFF9044600255D4804605B482A
:10307000AFF3008070BD00004661696C6564207428
:103080006F20736574207570205375627363726965
:103090007074696F6E210A008DEDB5A0F7C6B03E61
:1030A00008000020496E697469616C697A696E670D
:1030B00020576179706F696E74204D697373696F01
:1030C0006E2E2E0A000000004372656174696E67FF
:1030D00020576179706F696E74732E2E0A0000009C
:1030E00055706C6F6164696E6720576179706F69A4
:1030F0006E74732E2E0A00005374617274696E67C9
:1031000020576179706F696E74204D697373696FB0
:103110006E2E0A00000A01035374617274207769ED
:1031200074682064656661756C7420726F74617474
:10313000696F6E20726174653A203135206465676D
:103140002F730000506175736520666F72203573B0
:103150000A000000526573756D650A0000000000EA
:103160000000F83F55706461746520726164697590
:103170007320746F20312E35783A206E6577207277
:103180006164697573203D2025302E33660A000086
:1031900055706461746520686F74706F696E742017
:1031A000726F746174696F6E20726174653A206E1B
:1031B00065772072617465203D2035206465672F36
:1031C000730A000053746F700A0000004C616E6453
:1031D0000A000000C0000020C4000020600600209B
:1031E000640600202DE9F04F2DED048B9BB0FA48CA
:1031F00000680EF03FF9F94988422AD00020199062
:103200004FF00A0AF648006815900220149000203A
:1032100013901398F049CDE9000A096815AB486886
:10322000149A19990CF007FE8346BBF1000F05D1E3
:1032300058461BB0BDEC048BBDE8F08FE649096829
:10324000486819990CF094FF4FF4FA7003F0E2F912
:1032500000BFE14909680022C86811460AF029FB4D
:103260004FF4FA7003F0D6F943F698244FF4FA7548
:1032700000270020189017901690D7490968086811
:1032800015F04CF980460068C16840468847061929
:1032900000BF4FF4FA6003F0BDF9CF4800680EF0AC
:1032A000E9F8CE49884210D0CB490968486822F035
:1032B00013FA012820D1C8490968486822F05EFA4B
:1032C000292819D10120189023E0C349096888688A
:1032D00009F02AFE14909DF85000022809D0BE493A
:1032E0000968886809F020FE15909DF854000328AD
:1032F00002D1012018900CE0B7490968086815F060
:103300000DF982460068C168504688474719B742A0
:10331000BFD300BF1898A0B9B2A01FF09BFFAE4862
:1033200000680EF0A7F8AD49884208D0AA4909689C
:10333000486819990DF053F9322003F06BF9002019
:1033400077E7B3A01FF086FFA3490968086815F066
:10335000E5F881460068C16848468847061900BFFD
:103360004FF4FA6003F056F99B4800680EF082F8BB
:103370009A49884217D098490968486822F0ACF900
:1033800002281DD194490968486822F0F7F90A28F3
:1033900006D091490968486822F0F0F90B280FD14E
:1033A0000120179019E08C490968886809F0BCFD74
:1033B00015909DF85400032802D1012017900CE0CD
:1033C00085490968086815F0A9F882460068C1684F
:1033D000504688474719B742C2D300BF1798A8B9CB
:1033E00091481FF037FF7C4800680EF043F87B4996
:1033F000884209D078490968486819990DF0EFF8B2
:103400004FF4FA7003F006F9002012E787A01FF0CE
:1034100021FF71490968086815F080F81A90006862
:10342000C1681A98884706196B4800680EF022F8A0
:103430006A49884223D000BF4FF4FA6003F0EAF8EB
:1034400065490968486822F099F90A2806D1624955
:103450000968486822F092F90B2802D001201690E2
:103460000CE05D490968086815F058F88246006864
:10347000C168504688474719B742DDD300BF564858
:1034800000680DF0F7FF5549884220D0524909687D
:10349000486822F073F9062806D14F490968486840
:1034A00022F06CF9012803D066A01FF0D3FE4DE096
:1034B0006A481FF0CFFE48490968486819990DF01D
:1034C0008EF84FF4FA7003F0A5F80020B1E64248F8
:1034D0000068816808A809F0FCFB00BF40F6B8301E
:1034E00003F098F83C480068816801A809F0F1FBF6
:1034F0001C2201A90FA81CF059FFDDED130A9DED58
:103500000C1A30EEC10AB0EEC08A00BF9DED130A5E
:103510008DED0C0A18EE100A1BF0ECFB41EC190BB8
:103520009FED4F0B53EC102B1BF010FCD6D99DEDEB
:10353000130A10EE101A08461BF0DCFB41EC190BC5
:1035400053EC192B48A01FF085FE00BF22480068ED
:103550000DF090FF2149884209D01F490968486849
:1035600019990DF03CF840F6B83003F053F80120FB
:103570005FE62DE9F04F93B047F230544FF4FA75FF
:103580004FF0000A00201290119010900F900A2026
:103590000E90114800680DF06DFF104988427FD0F1
:1035A0000F48001D00680D9002200C904FF0000B9A
:1035B0000E9880B20849CDE900B009680DAB4868A3
:1035C0000C9A0F990CF037FC8146B9F1000F5CD1D1
:1035D000484613B0BDE8F08F08000020000A010340
:1035E000C485020854616B656F6666206661696C0C
:1035F00065642E204D6F746F7273206661696C650F
:103600006420746F207374617274210A00000000DA
:103610000A5375636365737366756C2074616B65BB
:103620006F6666210A00000044B2020856656869A8
:10363000636C6520617363656E64696E672E2E2E00
:103640000A00000056656869636C6520697320682C
:103650006F766572696E670A0000000094B1020817
:103660003BDF4F8D976E823F416972637261667472
:1036700020686F766572696E6720617420252E352B
:10368000666D21200A0000000AE0FE4909684868CA
:103690000F990CF06DFD4FF4FA7002F0BBFF00BF04
:1036A000F84909680022C86811460AF088F94FF401
:1036B000FA7002F0AFFFF3490968086814F02EFFB2
:1036C00007460068C16838468847061900BF4FF4AE
:1036D000FA6002F09FFFEB4800680DF0CBFEEA496C
:1036E000884209D0E7490968486822F047F80C2861
:1036F0000FD1012012901AE0E2490968886809F0A8
:1037000013FC0D909DF83400042802D00120129083
:103710000DE0DC490968086814F000FF8146006884
:10372000C1684846884710EB050AB245CFD300BFB1
:103730001298B8B9D5A01FF08DFDD24800680DF0E1
:1037400099FED149884209D0CE49096848680F9945
:103750000CF045FF4FF4FA7002F05CFF002013B04C
:10376000BDE8F08FD5A01FF075FDC649096808684F
:1037700014F0D4FE80460068C168404688470619A8
:1037800000BF4FF4FA6002F045FFBE4800680DF03C
:1037900071FEBD4988421ED0BA490968486821F0C7
:1037A000EDFF0C2846D0B7490968486821F094FF1E
:1037B00002283FD0B3490968486821F0DFFF062896
:1037C00006D1B0490968486821F0D8FF012831D0F6
:1037D000012011903CE0AB490968886809F0A4FB1E
:1037E0000D909DF83400052803D1642002F012FFEB
:1037F00020E000BF4FF4FA6002F00CFFA14800681F
:103800008168684609F065FA1C22694607A81CF021
:10381000CDFD9DED0B0AB5EEC00AF1EE10FAE9D12F
:103820009DED0B0AB5EEC00AF1EE10FA01D10120B0
:10383000119000BF93490968086814F06FFE814633
:103840000068C1684846884710EB050AB24598D31E
:1038500000BF119818B19EA01FF0FCFC15E0A24813
:103860001FF0F8FC874800680DF004FE8649884286
:1038700009D08449096848680F990CF0B0FE4FF4EC
:10388000FA7002F0C7FE002069E77E4800680DF07C
:10389000F1FD7D49884209D07A49096848680F9945
:1038A0000CF09DFE40F6B83002F0B4FE012056E761
:1038B0002DE9F05F2DED0A8B83460E4614461D461A
:1038C000704800680DF0D6FD6F49884250D02746F9
:1038D000A9464D46D9F80000D9F8041041EC100B68
:1038E0003C463868796853EC102B1BF0DFF841EC4C
:1038F000180BD9F80800D9F80C1041EC100BB86877
:10390000F96853EC102B1BF0D1F841EC190B9FED2B
:10391000770B53EC102B51EC190B1BF0CDF81BF06F
:103920002DFA3060B868F96841EC100B20F0B0FA5D
:10393000B0EE40BAF0EE60BA9FED6C0B53EC102B7A
:1039400051EC180B1BF0B8F853EC1B2B1BF0B4F820
:103950001BF014FA7060386900EE100AD9F81000F4
:1039600000EE900A30EE600A10EE100AB06056E0E9
:10397000A046AA465546DAF80800DAF80C1041ECE1
:10398000100B4446D8F80800D8F80C1053EC102B54
:103990001BF08CF841EC180BDAF80000DAF8041090
:1039A00041EC100BD8F80000D8F8041053EC102BA1
:1039B0001BF07CF841EC190B9FED4C0B53EC102BDA
:1039C00051EC190B1BF078F81BF0D8F93060D8F8DF
:1039D0000000D8F8041041EC100B20F059FAB0EEBA
:1039E00040BAF0EE60BA9FED410B53EC102B51EC56
:1039F000180B1BF061F853EC1B2B1BF05DF81BF050
:103A0000BDF97060D8F8100000EE100ADAF8100066
:103A100000EE900A30EE600A10EE100AB060BDECC5
:103A20000A8BBDE8F09F30B52DED108B85B00446B4
:103A30002546A86800EE100A20EE000A10EE101AC3
:103A400008461BF057F941EC190BE86800EE100A24
:103A500020EE000A10EE101A08461BF04BF941EC5C
:103A60001F0B53EC192B1AF080FF41EC1E0B9FED3E
:103A7000210B53EC102B1BF01FF841EC1D0B9FED9D
:103A80001F0B3FE008000020000A01034C616E6438
:103A9000696E67206661696C65642E204169726396
:103AA00072616674206973207374696C6C20696E2E
:103AB00020746865206169722E0A00005665686985
:103AC000636C65206C616E64696E672E2E2E0A0031
:103AD0005375636365737366756C206C616E64699E
:103AE0006E67210A00000000ECB1020800000040EF
:103AF000A654584100000000000000C00000000073
:103B00000000F03F53EC102B1AF02FFF41EC1A0B82
:103B1000686800EE100AA86800EE900A20EE201AED
:103B2000286800EE100AE86800EE900A00EE201AFD
:103B300011EE101A08461BF0DDF841EC1D0B9FED4D
:103B4000FE0B53EC102B1AF0B7FF41EC1B0B68680F
:103B500000EE100AE86800EE900A20EE201A2868AD
:103B600000EE100AA86800EE900A00EE601A11EE4E
:103B7000101A08461BF0BEF841EC1D0B1FED230B7D
:103B800053EC102B1AF098FF41EC180BA86800EECC
:103B9000100AE86800EE900A20EE201A286800EE6D
:103BA000100A686800EE900A00EE201A11EE101A52
:103BB00008461BF09FF841EC1D0B9FEDDF0B53EC0B
:103BC000102B1AF079FF41EC1C0B686800EE100A0C
:103BD00020EE000A10EE101A08461BF08BF841EC9C
:103BE0001F0B53EC192B1AF0C0FE41EC1E0B1FEDFE
:103BF0003F0B53EC102B1AF05FFF41EC1D0B1FED38
:103C0000410B53EC102B1AF0B0FECDE900011FED73
:103C1000450B53EC102B51EC180B1BF097F802D20C
:103C20001FED4A0B03E0B0EE480AF0EE680AB0EE72
:103C3000408AF0EE608A9FEDC20B53EC102B51ECE2
:103C4000180B1BF06BF802D29FEDBD0B03E0B0EE3A
:103C5000480AF0EE680AB0EE408AF0EE608AB0EEF4
:103C6000480AF0EE680A1FF0FFFCB0EE40DAF0EE12
:103C700060DA51EC1D0B1BF081F802909DED001BEA
:103C8000B0EE4C0AF0EE6C0A20F00AF8B0EE40DA22
:103C9000F0EE60DA51EC1D0B1BF070F80390B0EE03
:103CA0004A1AF0EE6A1AB0EE4B0AF0EE6B0A1FF0F9
:103CB000F7FFB0EE40DAF0EE60DA51EC1D0B1BF0CE
:103CC0005DF804909DED020ADDED030A9DED041AF6
:103CD00005B0BDEC108B30BD1FB5044605208DF836
:103CE00000008DF801008DF802008DF803008DF8BA
:103CF000040003208DF8050005208DF806008DF8DE
:103D000007008DF808008DF809008DF80A008DF87D
:103D10000B008DF80C008DF80D0000231A46694643
:103D2000A06809F0B4F91FBD00B52DED060BCBB0AE
:103D300085484990322048904FF47A71489891FB19
:103D4000F0F04790479800EB800040004690322109
:103D500047984843459000204490322043907B4848
:103D600000680DF087FB7A4988422ED079480068B8
:103D700008900220079000200690439880B2069990
:103D8000CDE9001071480068406808AB0490079ABC
:103D900044990CF050F80590059810B9059851B069
:103DA00000BD6A4800684068049044990CF0E0F94E
:103DB0004FF4FA7002F02EFC64480068FFF78CFFA5
:103DC0004FF4FA5002F026FC00BF604800680DF086
:103DD00051FB5F4988422BD05C4800680DF04FFBD7
:103DE00030BB5A48006840680146029003A821F0A1
:103DF000FFFA182203A93DA81CF0D8FA18223DA901
:103E000037A81CF0D3FA37AB3DAA26A94F48006863
:103E1000FFF74EFD4D48006880680146019002A8FA
:103E200008F057FF1C2202A930A81CF0BFFA18E0C6
:103E30004648006880680146019002A808F049FFE2
:103E40001C2202A930A81CF0B1FA1C2230A929A812
:103E50001CF0ACFA29AB30AA26A93C480068FFF751
:103E600027FDDDED260A9DED4B0A30EE600A8DED53
:103E7000080A08981AF03EFFCDE92401DDED270A73
:103E80009DED4C0A30EE600A8DED080A08981AF094
:103E900031FFCDE922019DED280AF1EE400A9DEDAA
:103EA0004D0A30EE600A8DED080A08981AF022FFDC
:103EB000CDE920014E981AF01DFF9FED270B53EC22
:103EC000102BCDE906019DED060B51EC100B1AF0FD
:103ED000F3FDCDE91E0150981AF00CFF9FED1E0B6B
:103EE00053EC102BCDE906019DED060B51EC100BA8
:103EF0001AF0E2FDCDE91C01144800680DF0BAFA91
:103F0000134988423ED0114800684068089021F06B
:103F10000DFA8DED180ACDED190A8DED1A1ACDEDB9
:103F20001B1A18A8FFF77FFD8DED060ACDED070AD5
:103F30008DED081A089813E0000000000000004012
:103F4000000000000000F0BFA08601000800002073
:103F5000000A0103CC85020811DD52A246DF913F21
:103F600003901AF0C7FE1FED040B53EC102BCDE9A4
:103F700004019DED040B51EC100B1AF00FFECDE97E
:103F8000120128E0FE4800688068089008F0A4FD4F
:103F90008DED140ACDED150A8DED161ACDED171A1B
:103FA00014A8FFF740FD8DED060ACDED070A8DED53
:103FB000081A089803901AF09DFE1FED190B53EC98
:103FC000102BCDE904019DED040B51EC100B1AF000
:103FD000E5FDCDE912010020119010900F900E9098
:103FE00002200D909FEDE70A8DED090AE448006874
:103FF0000DF040FAE449884203D19FEDE40A8DEDCB
:10400000090A9DED4B0AB5EEC00AF1EE10FA14DD77
:10401000DDED4B0A9DED0D0AB8EEC00AF4EEC00AC4
:10402000F1EE10FA02D29DED4B0A03E09DED0D0A70
:10403000B8EEC00A8DED0C0A23E09DED4B0AB5EEFB
:10404000C00AF1EE10FA18D20D98404200EE100AA4
:10405000F8EEC00A9DED4B0AF4EEC00AF1EE10FA3C
:1040600002D29DED4B0A05E00D98404200EE100A89
:10407000B8EEC00A8DED0C0A03E09FEDC50A8DED88
:104080000C0A9DED4C0AB5EEC00AF1EE10FA14DDF3
:10409000DDED4C0A9DED0D0AB8EEC00AF4EEC00A43
:1040A000F1EE10FA02D29DED4C0A03E09DED0D0AEF
:1040B000B8EEC00A8DED0B0A23E09DED4C0AB5EE7B
:1040C000C00AF1EE10FA18D20D98404200EE100A24
:1040D000F8EEC00A9DED4C0AF4EEC00AF1EE10FABB
:1040E00002D29DED4C0A05E00D98404200EE100A08
:1040F000B8EEC00A8DED0B0A03E09FEDA50A8DED29
:104100000B0A9F4800680DF0B5F99F49884208D016
:10411000DDED350A9DED4D0A30EE800A8DED0A0A7F
:1041200007E0DDED350A9DED4D0A30EE800A8DED9C
:104130000A0AE0E11FED780B53EC102B9DED1E0BEE
:1041400051EC100B1AF02AFDCDE906019DED060B8E
:1041500051EC100B1AF012FE089089480068C068F4
:104160000790DDED081A9DED0A1ADDED0B0A9DEDB5
:104170000C0A09F0DCFC479880B2089002F04AFA79
:1041800011994798084411907D4800680DF072F924
:104190007D49884245D07A4800680DF070F9E0BB4F
:1041A000774800684068089021F0C0F88DED180A43
:1041B000CDED190A8DED1A1ACDED1B1A18A8FFF7CF
:1041C00032FC8DED060ACDED070A8DED081A089830
:1041D00005901AF08FFDCDE912016948006840682A
:1041E0000146029003A821F003F9182203A93DA873
:1041F0001CF0DCF837AB3DAA26A961480068FFF740
:1042000057FB5F48006880680146019002A808F0EB
:1042100060FD1C2202A930A800E002E01CF0C6F8F4
:1042200030E0574800688068089008F055FC8DED34
:10423000140ACDED150A8DED161ACDED171A14A836
:10424000FFF7F1FB8DED060ACDED070A8DED081A9B
:10425000089805901AF04EFDCDE912014848006813
:1042600080680146019002A808F033FD1C2202A9D3
:1042700030A81CF09BF829AB30AA26A9404800685A
:10428000FFF716FBDDED260A9DED4B0A30EE600AC6
:104290008DED080A08981AF02DFDCDE92401DDED19
:1042A000270A9DED4C0A30EE600A8DED080A089849
:1042B0001AF020FDCDE922019DED280AF1EE400A19
:1042C0009DED4D0A30EE600A8DED080A08981AF04F
:1042D00011FDCDE920010D981AF0CFFCCDE90601C2
:1042E0009DED240B1EF070FF8DED040B9DED060B74
:1042F00053EC102B9DED040B51EC100B1AF00EFD3E
:1043000006D29DED240B51EC100B1AF037FD0C90EA
:104310000D981AF0B2FCCDE906019DED220B1EF0BE
:1043200053FF8DED040B9DED060B53EC102B9DED13
:10433000040B51EC100B1AF0F1FC06D29DED220B90
:1043400051EC100B1AF01AFD0B900D4800680DF09F
:1043500091F80D49884258D14F981AF0CBFCCDE91D
:1043600006019DED240B1EF02FFF8DED040B9DED3E
:10437000060B53EC102B9DED040B51EC100B09E0D8
:10438000080000208FC2F53D000A01039A99993F69
:10439000000000001AF0C2FC37D24F981AF0AAFCB5
:1043A000CDE906019DED220B1EF00EFF8DED040BF5
:1043B0009DED060B53EC102B9DED040B51EC100BF7
:1043C0001AF0ACFC21D29DED1E0B53EC102B9DED91
:1043D000120B51EC100B1AF069FBCDE904019DEDB5
:1043E000040B1EF0F1FE8DED060B9DED1C0B53EC46
:1043F000102B9DED060B51EC100B1AF08FFC04D224
:10440000479910980844109069E04F981AF072FC90
:10441000CDE906019DED240B1EF0D6FE8DED040BBB
:104420009DED060B53EC102B9DED040B51EC100B86
:104430001AF074FC4DD24F981AF05CFCCDE90601DD
:104440009DED220B1EF0C0FE8DED040B9DED060BC5
:1044500053EC102B9DED040B51EC100B1AF05EFC8D
:1044600037D209981AF046FCCDE906019DED200BE4
:104470001EF0AAFE8DED040B9DED060B53EC102BE8
:104480009DED040B51EC100B1AF048FC21D29DED70
:104490001E0B53EC102B9DED120B51EC100B1AF070
:1044A00005FBCDE904019DED040B1EF08DFE8DEDA5
:1044B000060B9DED1C0B53EC102B9DED060B51ECE8
:1044C000100B1AF02BFC04D2479910980844109056
:1044D00005E0109818B147990F9808440F90469935
:1044E0000F98884202DD002010900F904599109897
:1044F000884200DB04E0499911988842FFF61AAE21
:1045000000BF534800680CF0B5FF5249884213D0F1
:104510000EE04F480068C068089009F00CFC47980E
:1045200080B2089002F076F847990E9808440E90F1
:1045300045990E988842ECDB49991198884217DB1F
:1045400045A01EF087FE424800680CF093FF4149E9
:1045500088420AD03E4800684068089044990CF0B0
:104560003EF84FF4FA7002F055F83F48007816E430
:10457000374800680CF07EFF364988420AD034483C
:1045800000684068089044990CF029F840F6B8306B
:1045900002F040F83548007801E42DE9F04705467F
:1045A00042F210774FF032084FF47A7090FBF8F433
:1045B00004EB84004FEA4009322004FB00FA002695
:1045C00012E0234909685FED8E1A1FED8F1A5FED27
:1045D000900A00EE105AB8EEC00AC86809F0D0FA86
:1045E000A0B202F017F82644BE42EADB1F4800786A
:1045F000BDE8F08770B500230A22012103200FF0E7
:1046000081FD1B49086006232422022103200FF0AC
:1046100079FD184908601848007800F0010000286A
:1046200014D115481EF052FF00280FD000250C2091
:104630001EF0EAFD04460125002110F013FF044698
:1046400000250E4804600C48AFF3008070BD0000E8
:1046500008000020000A01035461736B2074696D27
:10466000656F7574210A00002B8602082A860208ED
:10467000CC000020D000002060060020640600204E
:1046800010B52DED068B84B0044694ED020A10EEB1
:10469000101A08461AF02EFB41EC180B94ED010A93
:1046A00010EE101A08461AF025FB41EC190B94ED98
:1046B000000A10EE101A08461AF01CFB41EC1A0B07
:1046C0008DED028B8DED009B53EC1A2BFEA01EF09E
:1046D000C1FD04B0BDEC068B10BD1CB5044694EDC5
:1046E000000ABDEEC00A10EE100A00B2ADF80200DA
:1046F00094ED010ABDEEC00A10EE100A00B2ADF84A
:10470000040094ED020ABDEEC00A10EE100A00B2D9
:10471000ADF80000207B8DF807009DF806008DF8AD
:1047200006009DF80600217C0843C0B28DF8060003
:104730009DF80600217D40EA4100C0B28DF80600D8
:104740009DF80600A17D40EA8100C0B28DF8060008
:104750009DF80600617D40EAC100C0B28DF80600F8
:10476000E74909684869694609F009FC4FF47A602D
:1047700001F050FF1CBD00B5B5B0002022909FEDA8
:10478000E11ADFEDE00A9FEDDF0A2FA81CF00CFB19
:104790009FEDDC1ADFEDDB0A9FEDDA0A099032A803
:1047A0001CF002FB089000200190029003900490FE
:1047B00000900998D0ED022A90ED012AD0ED001A60
:1047C000089890ED021AD0ED010A90ED000A00233E
:1047D0001A46194616A81CF0EEFA9FEDCA1ADFED2C
:1047E000C90A9FEDC80A13A81CF0DEFA9FEDC51A8E
:1047F000DFEDC40A9FEDC30A10A81CF0D5FA002013
:104800000D900A200C90BE4800680CF033FEBE49A3
:1048100088422AD0BD4800680990022008900020F4
:1048200007900C9880B20799CDE90010B448006851
:10483000406809AB0590089A0D990BF0FCFA0690B8
:10484000069810B9069835B000BDAD4800684068BC
:1048500005900D990BF08CFC4FF4FA7001F0DAFE24
:104860004FF4FA6001F0D6FE00BFA9481EF0F2FC3A
:10487000A34800680CF0FEFDA349884230D0A04850
:1048800000684068069020F075FE8DED070ACDEDBA
:10489000080A8DED091A9DED080A8DED130A984856
:1048A00000684068069020F065FE8DED070ACDEDAA
:1048B000080A8DED091A9DED070A8DED140A90483E
:1048C00000684068069020F055FE8DED070ACDED9A
:1048D000080A8DED091A9DED090A8DED150A35E0DE
:1048E0008748006880680146019002A808F0F5FA40
:1048F00002A80FC8CDE90823CDE906019DED060AFF
:104900008DED130A7E48006880680146019002A878
:1049100008F0E3FA02A80FC8CDE90823CDE90601A3
:104920009DED070A8DED140A754800688068014600
:10493000019002A808F0D1FA02A80FC8CDE9082317
:10494000CDE906019DED080A8DED150A1598039035
:104950001AF0D0F9CDE90801149803901AF0CAF9B9
:10496000CDE90601139803901AF0C4F9CDE90401CA
:10497000DDE90801CDE90201DDE90601CDE900012B
:104980009DED040B53EC102B62A01EF063FC9FED19
:104990005D1ADFED5C0A9FED5B0A2FA81CF004FA9C
:1049A000099000200123CDE90130039004901420E8
:1049B00000900998D0ED022A90ED012AD0ED001A5E
:1049C0009DED151ADDED140A9DED130A00231A461C
:1049D000194623A81CF0EFF930220146089016A8CA
:1049E0001BF0E4FC16A8FFF778FE59481EF032FCD5
:1049F000434800680CF03EFD4349884230D04048AF
:104A000000684068069020F0B5FD8DED070ACDEDF9
:104A1000080A8DED091A9DED080A8DED100A384837
:104A200000684068069020F0A5FD8DED070ACDEDE9
:104A3000080A8DED091A9DED070A8DED110A30481F
:104A400000684068069020F095FD8DED070ACDEDD9
:104A5000080A8DED091A9DED090A8DED120A7DE017
:104A60002748006880680146019002A808F035FADE
:104A700002A80FC8CDE90823CDE906019DED060A7D
:104A80008DED100A1E48006880680146019002A85A
:104A900008F023FA02A80FC8CDE90823CDE90601E2
:104AA0009DED070A8DED110A1548006880680146E2
:104AB000019002A808F011FA02A80FC8CDE9082356
:104AC000CDE9060146E000004E65772047696D623A
:104AD000616C20726F746174696F6E20616E676CB7
:104AE00065206973205B2025302E33662C2025300D
:104AF0002E33662C2025302E3366205D0A0A0000F6
:104B00000800002000000000000A0103D085020810
:104B100094B20208496E697469616C2047696D62DC
:104B2000616C20726F746174696F6E20616E676C66
:104B3000653A205B2025302E33662C2025302E331D
:104B4000662C2025302E3366205D0A0A0000000006
:104B500040B402089DED080A8DED120A0020019074
:104B600002900390049014200090DDED122A9DED38
:104B7000112ADDED101A9DED151ADDED140A9DEDDB
:104B8000130A4FF4E163C822002123A81CF013F993
:104B900030220146099016A81BF008FC16A8FFF762
:104BA0009CFDFE4800680CF065FCFD49884230D051
:104BB000FA4800684068069020F0DCFC8DED070A9A
:104BC000CDED080A8DED091A9DED080A8DED100A4C
:104BD000F24800684068069020F0CCFC8DED070A92
:104BE000CDED080A8DED091A9DED070A8DED110A2C
:104BF000EA4800684068069020F0BCFC8DED070A8A
:104C0000CDED080A8DED091A9DED090A8DED120A08
:104C100035E0E248006880680146019002A808F08B
:104C20005CF902A80FC8CDE90823CDE906019DED86
:104C3000060A8DED100AD948006880680146019087
:104C400002A808F04AF902A80FC8CDE90823CDE967
:104C500006019DED070A8DED110AD04800688068B5
:104C60000146019002A808F038F902A80FC8CDE962
:104C70000823CDE906019DED080A8DED120A10A862
:104C8000FFF7FEFCC7A01EF0E5FACDA01EF0E2FA89
:104C9000C24800680069099008F067FBCDA01EF0CB
:104CA000D9FAD8481EF0D6FA1FED6A1A5FED6B0AE2
:104CB0001FED6C0A2FA81CF077F809900020012343
:104CC000CDE9013003900490142000900998D0EDB4
:104CD000022A90ED012AD0ED001A9DED151ADDEDA6
:104CE000140A9DED130A0023C74A194623A81CF095
:104CF00062F830220146089016A81BF057FB16A850
:104D0000FFF7EBFCA54800680CF0B4FBA44988420F
:104D100030D0A24800684068069020F02BFC8DED52
:104D2000070ACDED080A8DED091A9DED080A8DEDF3
:104D3000100A9A4800684068069020F01BFC8DED30
:104D4000070ACDED080A8DED091A9DED070A8DEDD4
:104D5000110A924800684068069020F00BFC8DED27
:104D6000070ACDED080A8DED091A9DED090A8DEDB2
:104D7000120A35E08948006880680146019002A85F
:104D800008F0ABF802A80FC8CDE90823CDE9060169
:104D90009DED060A8DED100A804800688068014686
:104DA000019002A808F099F802A80FC8CDE90823DD
:104DB000CDE906019DED070A8DED110A77480068DF
:104DC00080680146019002A808F087F802A80FC881
:104DD000CDE90823CDE906019DED080A8DED120A03
:104DE00010A8FFF74DFC6FA01EF034FA87A01EF04C
:104DF00031FA6A4800680069099008F0BDFA8848ED
:104E00001EF028FA87A01EF025FA6420ADF83A00BB
:104E10003220ADF83C006FF0C700ADF838004FF419
:104E20007A600B9064200A90002009900FE05B48A4
:104E3000006840690EA9089009F0BBF80A9880B292
:104E4000089001F0E7FBDDE90901084409900B999E
:104E500009988842EBDB514800680CF00BFB504985
:104E6000884230D04D4800684068069020F082FBB0
:104E70008DED070ACDED080A8DED091A9DED080AA2
:104E80008DED100A454800684068069020F072FBDE
:104E90008DED070ACDED080A8DED091A9DED070A83
:104EA0008DED110A3D4800684068069020F062FBD5
:104EB0008DED070ACDED080A8DED091A9DED090A61
:104EC0008DED120A35E03548006880680146019092
:104ED00002A808F002F802A80FC8CDE90823CDE91E
:104EE00006019DED060A8DED100A2C4800688068C9
:104EF0000146019002A807F0F0FF02A80FC8CDE913
:104F00000823CDE906019DED070A8DED110A23481E
:104F1000006880680146019002A807F0DEFF02A841
:104F20000FC8CDE90823CDE906019DED080A8DEDF6
:104F3000120A10A8FFF7A4FB49A01EF08BF99FED01
:104F40004E1ADFED4D0A9FED4C0A2FA81BF02CFFE7
:104F5000099000200123CDE9013003900490142032
:104F600000900998D0ED022A90ED012AD0ED001AA8
:104F70009DED151ADDED140A9DED130A00231A4666
:104F8000194623A81BF017FF30220146089016A8E7
:104F90001BF00CFA16A8FFF7A0FB6FE0080000203A
:104FA000000A0103456E73757265205344206361E6
:104FB00072642069732070726573656E742E0A00C6
:104FC00054616B696E6720706963747572652E2E0B
:104FD0000A000000436865636B20444A4920474F3C
:104FE00020417070206F72205344206361726420EE
:104FF000666F722061206E657720706963747572C8
:10500000652E0A00F4B302080CFEFFFF53746172B0
:1050100074696E6720766964656F2E2E0A00000041
:105020002CB3020853657474696E6720526F6C6C00
:10503000207261746520746F2031302C20506974A7
:105040006368207261746520746F20352C2059616B
:1050500077205261746520746F202D32302E0A0043
:10506000526573657474696E6720706F73697469D3
:105070006F6E2E2E2E0A00000000000063480068AC
:105080000CF0F8F96249884230D060480068406806
:10509000069020F06FFA8DED070ACDED080A8DED30
:1050A000091A9DED080A8DED100A584800684068FD
:1050B000069020F05FFA8DED070ACDED080A8DED20
:1050C000091A9DED070A8DED110A504800684068E5
:1050D000069020F04FFA8DED070ACDED080A8DED10
:1050E000091A9DED090A8DED120A39E0474800685A
:1050F00080680146019002A807F0EFFE03A80DC8E2
:105100000299CDE90823CDE906109DED060A8DED43
:10511000100A3E48006880680146019002A807F026
:10512000DCFE02A90EC90598CDE907230691099076
:105130009DED070A8DED110A34480068806801462C
:10514000019002A807F0C9FEDDE90403DDE90212BF
:10515000CDE90803CDE906129DED080A8DED120A8E
:1051600010A8FFF78DFA2BA01EF074F827480068EE
:105170000069099008F007F94FF47A7001F04AFAD3
:1051800029A01EF067F8214800680CF073F9204947
:1051900088420AD01D480068406809900D990BF0BC
:1051A0001EFA40F6B83001F035FA0120FFF74BBB8C
:1051B00070B500230A22012103200EF0A3FF264927
:1051C000086006232422022103200EF09BFF2349BE
:1051D00008602348007800F00100002814D120481E
:1051E0001EF074F900280FD000250C201EF00CF8DA
:1051F00004460125002110F035F904460025194820
:1052000004601748AFF3008070BD00000800002064
:10521000000A010353746F7070696E6720766964C9
:10522000656F2E2E2E0A0000436865636B20444A8A
:105230004920474F20417070206F722053442063F3
:1052400061726420666F722061206E6577207669D6
:1052500064656F2E0A000000D8000020DC000020EA
:10526000600600206406002000B52DED040B2DED36
:10527000108B89B09DED1B0A20EE000A10EE101A6B
:10528000084619F037FD41EC190B9DED1C0A20EE84
:10529000000A10EE101A084619F02CFD41EC1F0B05
:1052A00053EC192B19F061FB41EC1E0B9FEDA10B88
:1052B00053EC102B19F000FC41EC1D0B9FED9F0BE4
:1052C00053EC102B19F051FB41EC1A0B9DED1A0A0F
:1052D000DDED1B0A20EE200ADDED190A9DED1C1AFA
:1052E00000EE810A10EE101A084619F003FD41EC99
:1052F0001D0B9FED940B53EC102B19F0DDFB41ECD3
:105300001B0B9DED1A0ADDED1C0A20EE200ADDEDD7
:10531000190A9DED1B1A00EEC10A10EE101A08467C
:1053200019F0E8FC41EC1D0B9FED820B53EC102BA8
:1053300019F0C2FB41EC180B9DED1B0ADDED1C0AB8
:1053400020EE200ADDED190A9DED1A1A00EE810A01
:1053500010EE101A084619F0CDFC41EC1D0B9FED24
:10536000790B53EC102B19F0A7FB41EC1C0B9DEDB6
:105370001A0A20EE000A10EE101A084619F0BAFCBC
:1053800041EC1F0B53EC192B19F0EFFA41EC1E0BFB
:105390009FED680B53EC102B19F08EFB41EC1D0BAD
:1053A0009FED660B53EC102B19F0DFFACDE90001ED
:1053B0009FED620B53EC102B51EC180B19F0C6FC4F
:1053C00002D29FED5E0B03E0B0EE480AF0EE680AF1
:1053D000B0EE408AF0EE608A9FED5C0B53EC102B30
:1053E00051EC180B19F09AFC02D29FED580B03E018
:1053F000B0EE480AF0EE680AB0EE408AF0EE608A3D
:10540000B0EE480AF0EE680A1EF02EF98DED060B9C
:105410009DED001BB0EE4C0AF0EE6C0A1EF040FC55
:105420008DED040BB0EE4A1AF0EE6A1AB0EE4B0A9C
:10543000F0EE6B0A1EF034FC8DED020B9DED020BBD
:105440009DED041B9DED062B09B0BDEC108B0FBD2F
:1054500000B52DED040B87B0DDED0A1A9DED091A9C
:10546000DDED080A9DED070AFFF7FEFE8DED000B4E
:105470008DED021B8DED042B9DED000B0BB000BDDF
:1054800000B52DED040B87B0DDED0A1A9DED091A6C
:10549000DDED080A9DED070AFFF7E6FE8DED000B36
:1054A0008DED021B8DED042B9DED020B0BB000BDAD
:1054B00000B52DED040B87B0DDED0A1A9DED091A3C
:1054C000DDED080A9DED070AFFF7CEFE8DED000B1E
:1054D0008DED021B8DED042B9DED040B0BB000BD7B
:1054E00010B52DED048BB0EE408AF0EE608A9FED92
:1054F000190B53EC102B51EC180B19F0DDFA41ECA1
:10550000190BB0EE490AF0EE690ABDEC048B10BD30
:1055100010B500230A22012103200EF0F3FD0F49EC
:10552000086006232422022103200EF0EBFD0C4923
:10553000086010BD00000000000000C00000000076
:105540000000F03F000000000000004000000000EC
:105550000000F0BFE8C35CB0DDA54C40E4000020D3
:10556000E80000200B20FB49487000200870FA4832
:10557000007A40F00400F8490872704770B504469C
:105580000D46F64A2946204616F068FBF4480068A6
:10559000F44908600020F449086070BD10B5F34874
:1055A00090F8CA0018B1F148B0F8C80000B910BDB1
:1055B000EE48B0F8C810FFF7E1FF0020EB4981F892
:1055C000CA00A1F8C800C821E84819F062F800BF75
:1055D000EDE701460220072923D007DC07292ED258
:1055E000DFE801F02D131517191B1D000B2920D022
:1055F00006DC082917D0092917D00A291FD116E07F
:105600000C2918D0FE291AD117E0012019E0012039
:1056100017E0012015E0012013E0012011E05C20DB
:105620000FE001200DE001200BE0342009E05C20B8
:1056300007E0052005E0052003E0372001E0002019
:1056400000BF00BF704770B588B0C94DC148007831
:1056500008B908B070BDC0480078042800D0F8E749
:105660005A20C4490870FE204870A81CC1F80200E6
:1056700040F60D2008814878FFF7ABFF0446002074
:10568000BC49D1F802100870BA48D0F80200461C94
:10569000B9490968886807F01FFA8DED040ACDED55
:1056A000050A8DED061ACDED071A102204A9304621
:1056B0001AF07CFEB0480068816804A807F063FC1B
:1056C0000D2204A906F129001AF070FEAA4800680C
:1056D000816801A807F0FDFA192201A906F110005E
:1056E0001AF064FEA34800882880A01C81B22846D6
:1056F00016F0F6FA9F49C880A81C2044D1F806107D
:105700000160A01D81B22846FFF738FF00209149B3
:1057100008700120487000BF9BE701460120934AB2
:1057200082F8CA001046A0F8C81070470FB42DE9DF
:10573000F04F85B0DDF878A18C4CA01CCDF80A00A4
:105740005646BDF83E00103805280CD89DF8498013
:10575000DDF80A0080F80080DDF80A10DDF84A0064
:10576000C1F801001EE020F0B9F883460FF009FFF0
:10577000814620F0B3F8019040F27E407F4B80A23A
:105780004946009001980FF0A8FE07469DF8442076
:1057900000687EA183683846984705B0BDE8F00FE1
:1057A0005DF814FB5A208DF8080030780B2802D0E1
:1057B00030780C2803D130788DF8090002E00C20F5
:1057C0008DF8090040F60D20ADF810009DF8090095
:1057D000FFF7FFFE0546BDF808002080A91C204603
:1057E00016F07EFAADF80E00A01C2844DDF80E106D
:1057F0000160A91D88B2FFF790FF00BFCDE7002030
:105800005D490968096AC96821B15B490968096A83
:10581000496801B97047012000BFFBE70FB42DE9CB
:10582000FF5FDDF87891514CA01CCDF80600BDF863
:105830003E0010385B2812D39DF84970DDF8060051
:1058400007700FA8807BDDF806104870DDF80610A1
:10585000881C5A220DF14A011AF0A8FD1DE020F023
:105860003DF883460FF08DFE804620F037F88246E3
:1058700040F25F404D4B42A24146009050460FF02F
:105880002CFE06469DF84420006840A183683046FF
:105890009847BDE8FF1F5DF814FB5A208DF80400FF
:1058A0000A208DF8050040F60D20ADF80C009DF89B
:1058B0000500FFF78EFE0546BDF804002080A91CF8
:1058C000204616F00DFAADF80A00A01C2844DDF8B9
:1058D0000A100160A91D88B2FFF71FFF00BFD8E7BB
:1058E0000FB42DE9FF5FDDF87891204CA01CCDF8B6
:1058F0000600BDF83E00103834280DD39DF84970DD
:10590000DDF806000770DDF80610481C33220DF1A3
:105910004A011AF04BFD4DE01FF0E0FF83460FF007
:1059200030FE80461FF0DAFF824640F23E40204BB8
:1059300013A24146009050460FF0CFFD06469DF859
:105940004420006811A1836830469847BDE8FF1FD6
:105950005DF814FBF00000208400002000440040AB
:1059600094040020A0040020B8824042C412002009
:105970006214002090130020080000200F86020807
:105980004552524F524C4F470000000041434B20BC
:10599000697320657863657074696F6E2C20736518
:1059A0007175656E63652025640A0000F285020842
:1059B000D28502085A208DF8040009208DF80500D0
:1059C00040F60D20ADF80C009DF80500FFF701FE34
:1059D0000546BDF804002080A91C204616F080F979
:1059E000ADF80A00A01C2844DDF80A100160A91DCA
:1059F00088B2FFF792FE00BFBDE8FF1F5DF814FB01
:105A00000FB42DE9FE4380465A9FF7480678F74CBD
:105A1000A01CCDF80200BDF82E001038012804DBD0
:105A20009DF83960DDF8020006705A208DF80000FC
:105A300008208DF8010040F60D20ADF808009DF813
:105A40000100FFF7C6FD0546BDF800002080A91C37
:105A5000204616F045F9ADF80600A01C2844DDF8F4
:105A600006100160A91D88B2FFF757FEBDE8FE03CE
:105A70005DF814FB0FB42DE9FE4380465A9FDA48C7
:105A80000678DA4CA01CCDF80200BDF82E001038C4
:105A9000012804DB9DF83960DDF8020006705A2009
:105AA0008DF8000008208DF8010040F60D20ADF8BB
:105AB00008009DF80100FFF78CFD0546BDF80000C9
:105AC0002080A91C204616F00BF9ADF80600A01C9A
:105AD0002844DDF806100160A91D88B2FFF71DFEFD
