:020000040800F2
:10000000F8BE0020F98A0008018B0008038B000865
:10001000058B0008078B0008098B00080000000012
:100020000000000000000000000000000B8B000832
:100030000D8B0008000000000F8B000859580108C4
:10004000138B0008138B0008138B0008138B000818
:10005000138B0008138B0008138B0008138B000808
:10006000138B0008138B0008138B0008138B0008F8
:10007000138B0008138B0008DD5D01084160010847
:10008000138B0008138B0008138B0008138B0008D8
:1000900049720108138B0008138B0008138B0008AA
:1000A000138B0008138B0008138B0008138B0008B8
:1000B000138B0008138B0008138B0008138B0008A8
:1000C000138B0008138B0008138B0008138B000898
:1000D000138B000837560008138B00082312000802
:1000E000138B0008138B0008138B00084D93010835
:1000F000138B0008E9940108138B0008138B000888
:10010000138B0008138B0008138B0008138B000857
:10011000138B0008138B0008138B0008138B000847
:10012000138B0008138B0008138B0008138B000837
:10013000138B0008138B0008138B0008138B000827
:1001400005740108138B0008138B0008138B00083B
:10015000138B0008F35E0108295C0108138B00086B
:10016000138B0008138B0008138B0008138B0008F7
:10017000138B0008138B0008138B0008138B0008E7
:10018000138B0008138B0008DFF814D01DF06CFDF2
:100190001CF06EFA00480047990900081DF07BFA30
:1001A000F8BE0020FEB442464B4654465D463EB47F
:1001B0001BF0BDFF3EBC90469946A246AB46FEBC36
:1001C00000F032F8704700BF80EC200B7047C0ECA5
:1001D000200B704790EC200B7047D0EC200B704741
:1001E00085460D98DDF838E00F9B5DF8042B20E97B
:1001F0000C009DE8FE1F854601BD4DF808ED0DF190
:10020000080E4DF804ED2DE9FF1F002102B46946E8
:1002100081B01DF07CFCDDF840E012B070470000BA
:1002200070810200008802004DF808ED0DF1080E03
:100230004DF804ED2DE9FF1F002102B4694681B09D
:100240001DF0CCBC10B5FE480068C0F1FF3041F293
:10025000883188420BD3FB480068F9490968401A85
:10026000B0F5487F03D3F6480068F6490860F648C1
:100270000068F3490968401A41F2883188420BD37B
:100280000D21F2481CF0BFF8F0480A38C07D00F09C
:10029000EF00EE490A39C875ED480068E849096879
:1002A000401A41F28831884207D3E8480A38C07DB5
:1002B00000F0DF00E5490A39C875E6480068E04902
:1002C0000968401A41F28831884207D3DF480A386A
:1002D000C07D00F0F700DD490A39C875DE480068C6
:1002E000D7490968401A41F28831884207D3D74874
:1002F0000A38007E00F0FE00D4490A390876D74853
:100300000068CF490968401A41F28831884207D312
:10031000CE480A38007E00F0FD00CC490A39087644
:10032000CF480068C6490968401A41F288318842BE
:1003300007D3C6480A38007E00F0F700C3490A39DF
:100340000876C8480068BE490968401A41F28831F9
:10035000884207D3BD480A38007E00F0EF00BB4951
:100360000A39087610BD2DE9F0472DED048B4FF0CA
:1003700000099FEDBD0A10EE105A9FEDBB0A10EE6A
:10038000106A9FEDB90A10EE107A9FEDB70A10EED1
:10039000108A9FEDB50AB0EE408AB6EE000AF0EE84
:1003A000408AB6EE000AB0EE409AB3EE040AF0EED0
:1003B000409AAE480078042803D0BDEC048BBDE819
:1003C000F087AB48807D00B9F7E7A948007F48B9BE
:1003D000A648007A28B1A548007A20F00200A34977
:1003E0000872EAE71AF050FDA24801F071FAA0483D
:1003F000818901229F481BF05DFA9F4908709C4843
:10040000018A03229B481BF055FA9B498871984842
:10041000C189022297481BF04DFA9749C870944849
:10042000418A042293481BF045FA934948720024FC
:1004300087E004EB44009049085C012813D104EBE9
:10044000440008448078401E00EB4000085C03280C
:1004500009D1002104EB4400874A10448078401EF3
:1004600000EB4000115404EB44008349085C02286F
:1004700013D104EB440008448078401E00EB400098
:10048000085C032809D1022104EB44007A4A104495
:100490008078401E00EB4000115404EB4400764984
:1004A000085C032817D104EB440008448078401E00
:1004B00000EB4000085C03280DD1022104EB44004E
:1004C0006D4A10448078401E00EB40001154022019
:1004D00004EB4401505404EB44006749085C78BBCA
:1004E00004EB440008448078401E00EB4000085CA8
:1004F000032825D1611CC8B21BF093F948B1002133
:1005000004EB44005C4A10448078401E00EB40003D
:10051000115457480A30611C30F811005449C98BF6
:1005200088420DDA022104EB4400534A10448078DB
:10053000401E00EB40001154022004EB44015054D3
:10054000641C042CFFF675AF4B480078012806D1D7
:1005500001F0D7FA10EE105A0120474908734648B7
:100560008079012807D1032001F0CBFA10EE105A50
:100570000120414908734048C078012807D1022072
:1005800001F021FB10EE106A01203B4948733A4804
:10059000407A012807D1042001F015FB10EE106A03
:1005A00001203549487334480078022803D118EEF9
:1005B000105A3149087330488079022805D1B1EECC
:1005C000480A10EE105A2C4908732B48C0780228AC
:1005D00003D118EE106A284948732748407A022848
:1005E00005D1B1EE480A10EE106A2349487322483B
:1005F0000078032805D1B1EE680A10EE105A1E49A2
:1006000008731D488079032803D118EE905A1A49BF
:1006100008731948C078032805D1B1EE680A10EEB6
:10062000106A154948731448407A032803D118EE1C
:10063000906A1149487301201BF0F3F868BB1DE074
:1006400068040020840400208C040020F938002075
:100650009004002094040020980400209C040020B2
:10066000A0040020A404002000000000840000205A
:10067000D0390020083A0020303A002003201BF037
:10068000D0F850B9F748007B022806D11FED0A0ABE
:1006900010EE105A0020F349087302201BF0C1F835
:1006A00070B904201BF0BDF850B9EE48407B022819
:1006B00006D11FED130A10EE106A0020E9494873B5
:1006C000E848007B00281BDDE648407BC0B90220DB
:1006D0001BF0A7F840B1022001F075FA10EE106A85
:1006E0000420E04948730BE004201BF09AF838B16D
:1006F000042001F068FA10EE106A0420D94948730A
:10070000D848407B00281BDDD648007BC0B90120BB
:100710001BF087F840B1012001F0F3F910EE105AF8
:100720000420D04908730BE003201BF07AF838B19D
:10073000032001F0E6F910EE105A0420C9490873AD
:10074000C848007B002803DCC648407B002832DD17
:100750004FF00109C448B0F91C00B0F5FA7F02DD82
:1007600019EE107A0EE0C048B0F91C0010F5FA7FBF
:1007700004DAB1EE490A10EE107A03E01FED460AE2
:1007800010EE107AB848B0F91E00B0F5FA7F02DD1D
:1007900019EE908A1BE0B448B0F91E0010F5FA7FFC
:1007A00004DAB1EE690A10EE108A10E01FED520A69
:1007B00010EE108A0BE04FF00009002405E0002045
:1007C00004EB4401A74A5054641C042CF7DB0024BA
:1007D00009E004EB4400A349085C04EB4401A14A8E
:1007E00011444870641C042CF3DBB9F1000F0FD0E6
:1007F0009E48C0F80150C0F80560C0F80970C0F804
:100800000D809B48007A40F00200994908722AE066
:100810009748007A28B19648007A20F0020094495F
:1008200008729248D0F8010000EE100AB5EEC00A36
:10083000F1EE10FA06D01FED740A10EE100A8B4983
:10084000C1F801008948D0F8050000EE100AB5EEA5
:10085000C00AF1EE10FA06D01FED7D0A10EE100A64
:100860008249C1F8050000BFA7E5824A1078D17817
:100870007F4A1278042A00D07047FC2801D0FC2956
:1008800010D101227A4B5A70B7EE000A10EE102AEE
:10089000764BC3F80920764A127A42F00102744B73
:1008A0001A721CE00022724B5A70704AD2F809206A
:1008B00000EE102AB5EEC00AF1EE10FA06D01FEDD8
:1008C000960A10EE102A694BC3F80920684A127A7A
:1008D0002AB1674A127A22F00102654B1A7200BFF0
:1008E000CAE710B56448006864490968401AA0283E
:1008F0002DD362480068604908606148006800F0D4
:10090000010050B9FFF7B1FF5C480068C0F1FF304B
:10091000B0F57A6F01D319F007FF594800680A2132
:10092000B0FBF1F201FB120060B917F0A0F819F06A
:1009300079FE52480068C0F1FF30B0F57A6F01D3FC
:1009400019F081FE4E480068401C4D49086010BDFA
:1009500000204C4908601AE04B494A4A1268885CFA
:10096000411ECAB24849474B1B68CA5450B1084699
:1009700044490968405C28B900214348001D414AA8
:10098000126881543F480068401C3E4908603D4859
:1009900000680428E0DB70471CB504F0EFFC4FF45E
:1009A0007A7004F0B7FD5A20384B39A23C490090C8
:1009B0003C4820F0E5F90446601C38B1B4F5967F58
:1009C00004D2384938A020F0CBF902E037A020F05B
:1009D000C7F93EA040A143A344A2CDE9001046A11F
:1009E000484820F0BDF95C20284B29A22C490090F2
:1009F0002C4820F0C5F90446601C38B1B4F5967F48
:100A000004D2284928A020F0ABF902E027A020F06A
:100A1000A7F900F0C8FC002802DA4FF0FF301CBD37
:100A20001AF02CFA1BF001F802224FF47A71AFF29F
:100A3000DF0017F070FE019013E000F0DEFD1AF009
:100A4000D5F919F030FDFFF74CFF1BF00BFAFFF75B
:100A50008AFCFFF7F7FB15F04AFE16F0CFFA16F006
:100A6000EBFDEAE7303A0020083A00202C12002083
:100A700084000020EF380020880400206804002053
:100A8000A80400200C000020FA390020F8570208C2
:100A9000494D504F52545F4E4F544943450000005A
:100AA00038790208061B0020257300004552524F7A
:100AB000523A206C6F67207072696E74657220699B
:100AC0006E6E6572206661756C740A0031353A3459
:100AD000373A303000000000417567203330203253
:100AE000303137005630342D303000003130303066
:100AF00030303030000000004D61696E426F61722D
:100B0000640000007C79020810B52DED048BFD48CF
:100B10000078042802D0BDEC048B10BDFA48807D1B
:100B200000B9F8E7F848007F48B9F648007A28B1DC
:100B3000F448007A20F00200F2490872EBE71AF05C
:100B4000B2F90446002C71D0EE48007A40F0020061
:100B5000EC49087204F0010098B1EB49088C1BF0D5
:100B600047FF41EC190B9FEDE90B53EC102B1BF0E9
:100B70004DFE41EC180B1BF0C3FFE649C1F8010024
:100B80001DE004F0040098B1DF49088C1BF030FF31
:100B900041EC190B9FEDE00B53EC102B1BF036FED4
:100BA00041EC180B1BF0ACFFDA49C1F8010006E07C
:100BB0009FEDDB0A10EE100AD649C1F8010004F0DF
:100BC000020098B1D049088C1BF012FF41EC190BC0
:100BD0009FEDCE0B53EC102B1BF018FE41EC180BC5
:100BE0001BF08EFFCB49C1F805004AE004F0080075
:100BF00098B1C549088C1BF0FBFE41EC190B9FED29
:100C0000C60B53EC102B1BF001FE41EC180B1BF034
:100C100077FFC049C1F8050033E09FEDC10A10EE2F
:100C2000100ABC49C1F805002BE0FFE7B548007A7F
:100C300028B1B448007A20F00200B2490872B548E1
:100C4000D0F8010000EE100AB5EEC00AF1EE10FA7D
:100C500006D09FEDB30A10EE100AAE49C1F80100AC
:100C6000AC48D0F8050000EE100AB5EEC00AF1EE6F
:100C700010FA06D09FEDAA0A10EE100AA549C1F895
:100C8000050000BF47E730B52DED0C8B8FB09D48B8
:100C90000078042803D00FB0BDEC0C8B30BD9A480F
:100CA000807D00B9F7E79848007F48B99548007AF9
:100CB00028B19448007A20F0020092490872EAE7CD
:100CC0009849096888680AF05CFF8DED090ACDED46
:100CD0000A0A8DED0B1ACDED0C1ADDED0C1A9DED07
:100CE0000B1ADDED0A0A9DED090A04F0BDFAB0EE1B
:100CF000408AF0EE608A8C49A1F1080000F0CCFC3B
:100D0000B0EE480AF0EE680A20F0A6FEB0EE40CA47
:100D1000F0EE60CA8349096888680AF07CFF8DEDAF
:100D20000A0ACDED0B0A8DED0C1A9DED0B0A10EEA3
:100D3000101A08461BF0A1FE41EC1D0B53EC1C2BB6
:100D40001BF064FD41EC1A0BB0EE480AF0EE680AA5
:100D500020F012FEB0EE40CAF0EE60CA7149096898
:100D600088680AF058FF8DED070ACDED080A8DED71
:100D7000091A9DED070A10EE101A08461BF07DFEB9
:100D800041EC1D0B53EC1C2B1BF040FD41EC1B0BED
:100D900053EC1A2B1BF093FC41EC190B1BF0B0FE2B
:100DA000614908390861B0EE480AF0EE680A20F09F
:100DB000E3FDB0EE40CAF0EE60CA5A49096888689F
:100DC0000AF029FF8DED0A0ACDED0B0A8DED0C1A04
:100DD0009DED0B0A10EE101A08461BF04EFE41EC7A
:100DE0001D0B53EC1C2B1BF011FD41EC1B0BB0EE4B
:100DF000480AF0EE680A20F02FFEB0EE40CAF0EE8E
:100E000060CA4849096888680AF005FF8DED070A3D
:100E1000CDED080A8DED091A9DED070AB1EE400AE5
:100E200010EE105A28461BF028FE41EC1D0B53EC27
:100E30001C2B1BF0EBFC41EC190B53EC1B2B1BF098
:100E40003EFC41EC1A0B1BF05BFE37490839486148
:100E500034480068816804A80BF02BF804A807C880
:100E60000AAB07C32F480068816801A80BF021F87E
:100E700001A807C807AB07C3BDF92830BDF91E207C
:100E80000DA90EA81AF09BFB04466CB121490E98DF
:100E9000C1F801000D98C1F805001A48007A40F029
:100EA0000200184908722AE01648007A28B115484D
:100EB000007A20F00200134908721648D0F80100A9
:100EC00000EE100AB5EEC00AF1EE10FA06D09FED62
:100ED000140A10EE100A0F49C1F801000D48D0F8AD
:100EE000050000EE100AB5EEC00AF1EE10FA06D0C9
:100EF0009FED0B0A10EE100A0649C1F8050000BF6D
:100F0000C9E6000084000020D03900209A99999900
:100F10009999B93F2C1200209A9999999999B9BF3A
:100F20000000000008000020103A002010B5002347
:100F30000A220121032010F00BFD1049086006234E
:100F400024220221032010F003FD0D4908600D4802
:100F500001780D480FF0A0F904460C4A0C491BF02B
:100F600097FB5FED111A1FED121A5FED130A1FEDCB
:100F7000140A4A2107480BF0DDFC10BD10000020C8
:100F8000140000200000002074070020000000086A
:100F9000CD0201082C12002070B504460D4600BF9A
:100FA00040210E4807F040FC0028F9D0E1B20B4880
:100FB00007F08AFB204670BD10B500230A220121EC
:100FC000032010F0C5FC06490860062324220221F4
:100FD000032010F0BDFC0349086010BD004800402C
:100FE0001C0000202000002000B58DB05B4801905F
:100FF0005B480C9000231A4601A95A4800680FF07C
:1010000087FD0DB000BD0FB42DE9F04188B0044656
:101010005E9FBDF83E001038022846DCBDF84950FE
:10102000C4F874570D220FA904F267701DF080F800
:1010300040F27770005D8DF80000112204F26771B4
:1010400003A81DF075F803A80FC807F067FDD0B11D
:1010500045480088854216D122F070F98046332039
:10106000424B43A201210090404611F06FFD06461D
:10107000006841A182683046904700221146204610
:101080000EF017FE00BF3948019040F27770005D06
:101090008DF80000112204F2677103A81DF048F8D2
:1010A00003A80FC808F018FA13E022F047F98046A9
:1010B0003C202E4B2EA201210090404611F046FD0F
:1010C00006469DF84420006832A183683046984760
:1010D00000BF3848008885420CD140F2E4600059D6
:1010E00040B140F2E4621159206814F03FF9042045
:1010F0003149087008B0BDE8F0015DF814FB10B587
:1011000000230A220121032010F022FC2B49086051
:10111000062324220221032010F01AFC284908602B
:101120002848007800F00100002815D125481FF05C
:1011300065FF002810D00C201FF0ECFD041E05D028
:101140000021204611F0DEFC044600E000201E498C
:1011500008601C48AFF3008010BD00001FBF0F00E7
:1011600034000020080000206C5B0208535802087D
:101170004552524F5200000053444B207665727323
:10118000696F6E20646964206E6F74206D61746392
:10119000680A000041434B206973206578636570DD
:1011A00074696F6E2C2073657175656E636520259B
:1011B000640A00005C5B0208840000202800002014
:1011C0002C000020200600202406002000F07F02D2
:1011D00000EE102AB8EEC00AF0EE400A00EE101A37
:1011E000B8EE400AB0EE401A00F0800262B1DFEDC6
:1011F0005E1AB0EE410A00EEA10AF1EE401A9FED30
:101200005B2A81EE820A7047DFED571AB0EE410A81
:1012100000EEA10A9FED552AC0EE021AB0EE610A57
:10122000F1E710B52021524807F0FEFA01282AD133
:101230004F4807F04DFAC4B24E48806A48B9FA2CBC
:1012400020D14C48816A001D4454012049498862DC
:1012500018E0FE2C0DD14748816A001D4454001F40
:10126000806A401C4349C8620020886201200860EF
:1012700008E04048816A001D4454001F806A401CF9
:101280003C49886200BF10BD70B586B004460D466B
:101290002068012802D10020206001E006B070BD66
:1012A0002079FA2802D16079FB2800D0F6E7A079EE
:1012B00020B1012808D0AA283AD108E0002211461E
:1012C00028460EF0F6FC34E0FFF78EFE31E0A07BFE
:1012D00000EB80004000616A4143607B00EB8000CE
:1012E0004000626A4243207B00EB80004000636A5A
:1012F0004343E07A00EB80004000666A7043CDE92A
:10130000023204910190A07A00EB8000400000902E
:10131000607A00EB80004300207A00EB80004200FE
:10132000E07900EB8000410013481FF019FD00E058
:1013300000BF00BF00BFB1E710B500230A220121A2
:10134000032010F005FB0D4908600623242202212A
:10135000032010F0FDFA0A490860064800210160E8
:101360008162C16200BF10BD000080430000C8421E
:101370000048004040120020CC790208780000208C
:101380007C000020DF48008820B1DE480088401E35
:10139000DC490880DC48008820B1DB480088401E1A
:1013A000D9490880704738B50020D849086041F213
:1013B000883004F0AFF8D6490968086813F0ACFF2C
:1013C0000446006881692046884738B9D1A01FF0DB
:1013D000C7FC012000F06BFC00F07CFCD7A01FF0E4
:1013E000BFFCDBA01FF0BCFCE9A01FF0B9FCEFA024
:1013F0001FF0B6FCFAA01FF0B3FC1E2004F08AF820
:10140000C34800680EF0ABFC4FF4FA7004F082F8A9
:10141000BF4800680EF062F8F949096888420ED2A8
:10142000BB4800680EF05AF8F649884207D0F6A08B
:101430001FF096FC012000F03AFC00F04BFC4FF44A
:101440007A7004F067F802221421AFF2C70017F097
:1014500062F90090012038BD10B51AF0AFFB18B149
:101460003221F44800F0D7FF10BD00B52DED028BFE
:101470008FB0A548008818B90A20A349088003E066
:101480000FB0BDEC028B00BDA1480068816801A8C7
:101490000AF052FC1C2201A908A81CF049FE9DED8F
:1014A0000D8AE548007B00B9EAE7B1EE000AB4EE28
:1014B000C08AF1EE10FA03DD0220DF4988600AE0FD
:1014C000B0EE080AB4EEC08AF1EE10FA03D24FF083
:1014D000FF30D949886000BFD2E710B58CB08C4985
:1014E000096888680AF032FD0B90894800688168B5
:1014F00004A80AF0DEFC04A807C808AB07C38449A7
:10150000096888680AF079FD0790BDF9280000286D
:1015100001DC0CB010BD9DF82C00022800D0F8E7CB
:10152000C648007A002824D19DF81D0000F007006D
:1015300002281DD100221146754800680EF045FFB3
:101540004FF48270BE4BBFA2C2A10090CA481FF0E8
:1015500017FC0446601C38B1B4F5967F04D2C64926
:10156000C6A01FF0FDFB02E0C5A01FF0F9FB00BF05
:10157000CFE7B248007A30B16248008818B901203C
:101580006049088000E0C4E79DF81D0000F00700F6
:1015900002281DD0002211465D4800680EF0B9FFF8
:1015A0004FF48A70A64BA7A2BDA10090B2481FF0CD
:1015B000E7FB0446601C38B1B4F5967F04D2AE490F
:1015C000AEA01FF0CDFB02E0ADA01FF0C9FB00BF35
:1015D000BB48C1680091007C8DF804004C4800684D
:1015E0001122B749C46802A81CF0A2FD204602A936
:1015F0000EC90BF032F900BF8BE700B585B08F48FC
:10160000007820B103282FD0042841D139E00320ED
:101610008A490870AB4800684860FFF7E5FC3C4821
:1016200000680DF05BFF7749884208D038490968A7
:1016300048680DF009FA4FF4FA7003F06BFF344874
:1016400000681422816868460AF0FCFD322003F02D
:1016500061FF2F4909689C4AC8699C490CF073FED8
:10166000322003F057FF14E0744840689549096838
:10167000401A41F28831884202D300206F49087035
:1016800007E0FFF72AFFFFF7F0FEFFF7E5FE00E0B7
:1016900000BF00BF05B000BD7FB504460D461C4924
:1016A000096888680AF06DFA8DED000ACDED010A2F
:1016B0008DED021ACDED031ADDED031A9DED021A30
:1016C000DDED010A9DED000A03F0E6FD84ED000B5F
:1016D0000F49096888680AF054FA8DED000ACDEDCB
:1016E000010A8DED021ACDED031ADDED031A9DED11
:1016F000021ADDED010A9DED000A03F0E5FD85ED1E
:10170000000B7FBD9000002092000020AC8242427E
:1017100008000020555341525420636F6D6D756E63
:1017200069636174696F6E206973206E6F742077CE
:101730006F726B696E672E0D0A0000000A507265A9
:10174000726571756973697465733A0D0A000000FA
:10175000312E2056656869636C6520636F6E6E6517
:101760006374656420746F207468652041737369C5
:101770007374616E7420616E642073696D756C6141
:1017800074696F6E206973204F4E0D0A00000000CF
:10179000322E20426174746572792066756C6C79A2
:1017A000206368616E726765640D0A00332E204401
:1017B0004A49474F2041707020636F6E6E656374B5
:1017C00065642028666F722074686520666972738C
:1017D000742074696D652072756E290D0A00000011
:1017E000342E2047696D62616C206D6F756E746573
:1017F00064206966206E65656465640D0A000000FA
:1018000098000020000A010355706772616465202A
:101810006669726D77617265207573696E672041C4
:101820007373697374616E7420736F667477617219
:1018300065210A00723A0020403A0020840000200E
:1018400064580208494D504F52545F4E4F5449431B
:101850004500000025732025732C6C696E652025DA
:10186000643A206F657320636F6E74726F6C2063CF
:101870006C6F7365640A0000061B0020257300006E
:101880004552524F523A206C6F67207072696E74E5
:10189000657220696E6E6572206661756C740A00EF
:1018A00025732025732C6C696E652025643A206FA2
:1018B000657320736574436F6E74726F6C0A0000F9
:1018C0002C1200206804002069390020F52300084C
:1018D00030B52DED0C8B99B00446F748006881684F
:1018E00001A80AF029FA1C2201A912A81CF020FC68
:1018F000F1480068816805A80AF0DBFA05A807C866
:101900000FAB07C3EC49096888680AF084F98DEDCC
:101910000C0ACDED0D0A8DED0E1AE74909688868AD
:101920000AF02FF98DED080ACDED090A8DED0A1A9E
:10193000CDED0B1A2546E049096888680AF021F9BF
:101940008DED040ACDED050A8DED061ACDED071AD1
:10195000DDED071A9DED061ADDED050A9DED040A81
:1019600003F09AFC85ED000BD349096888680AF0FA
:1019700008F98DED040ACDED050A8DED061ACDEDC1
:10198000071ADDED071A9DED061ADDED050A9DED3E
:10199000040A03F099FC85ED020BBDF83E00688354
:1019A000BDF83C002883BDF84200A883BDF8400084
:1019B000E883DDED0B1A9DED0A1ADDED090A9DEDB8
:1019C000080A03F051FCB0EE40DAF0EE60DA20F0E5
:1019D00043F8B0EE40BAF0EE60BA9DED0D0A10EE9D
:1019E000101A08461BF049F841EC1C0B53EC1B2B5A
:1019F0001AF00CFF41EC190BDDED0B1A9DED0A1AE4
:101A0000DDED090A9DED080A03F02EFCB0EE40DA88
:101A1000F0EE60DA1FF0B0FFB0EE40BAF0EE60BA60
:101A20009DED0C0A10EE101A08461BF026F841EC4A
:101A30001C0B53EC1B2B1AF0E9FE41EC1A0B53EC78
:101A4000192B1AF03CFE41EC180B1BF059F82861D9
:101A5000DDED0B1A9DED0A1ADDED090A9DED080A70
:101A600003F002FCB0EE40DAF0EE60DA1FF084FF23
:101A7000B0EE40BAF0EE60BA9DED0D0A10EE101A0D
:101A800008461AF0FAFF41EC1C0B53EC1B2B1AF022
:101A9000BDFE41EC180BDDED0B1A9DED0A1ADDEDD4
:101AA000090A9DED080A03F0DFFBB0EE40DAF0EE24
:101AB00060DA1FF0D1FFB0EE40BAF0EE60BA9DEDF3
:101AC0000C0AB1EE400A10EE101A08461AF0D5FFC3
:101AD00041EC1C0B53EC1B2B1AF098FE41EC1A0B3B
:101AE00053EC182B1AF0EBFD41EC190B1BF008F826
:101AF00068619DED170A85ED080A19B0BDEC0C8BE5
:101B000030BD10B52DED068B04466C49088C1AF0DB
:101B10006FFF41EC1A0B9FED6A0B53EC102B1AF080
:101B200075FE41EC190B1AF0EBFF08EE900A6648BF
:101B300090ED040AB0EE408AB4EEE88AF1EE10FAB5
:101B400002DDB0EE688A25E0B1EE680AB4EEC08A24
:101B5000F1EE10FA04D2B1EE680AB0EE408A19E054
:101B6000B5EEC08AF1EE10FA0ADB38EE280A30EE44
:101B7000080AF0EE080A80EE201AB0EE418A09E069
:101B800038EE080A30EE680AF0EE080A80EE201AF5
:101B9000B0EE418A012C06D1B5EEC08AF1EE10FA02
:101BA00001D2B0EE688A032C08D1B5EEC08AF1EEFE
:101BB00010FA03DDB1EE680AB0EE408AB0EE480AD2
:101BC000BDEC068B10BD10B52DED068B04463B49D0
:101BD000088C1AF00DFF41EC1A0B9FED390B53ECFA
:101BE000102B1AF013FE41EC190B1AF089FF08EEC6
:101BF000100A354890ED050AF0EE408AF4EEC88AE6
:101C0000F1EE10FA02DDF0EE488A25E0B1EE480A66
:101C1000F4EEC08AF1EE10FA04D2B1EE480AF0EE0A
:101C2000408A19E0F5EEC08AF1EE10FA0ADB38EED0
:101C3000A80A30EE080AF0EE080A80EE201AF0EE4C
:101C4000418A09E038EEA80A30EE480AF0EE080AA8
:101C500080EE201AF0EE418A022C06D1F5EEC08A01
:101C6000F1EE10FA01D2F0EE488A042C08D1F5EE1C
:101C7000C08AF1EE10FA03DDB1EE480AF0EE408AB8
:101C8000B0EE680ABDEC068B10BD10B500230A2229
:101C9000012103200FF05CFE0C490860062324227A
:101CA000022103200FF054FE0949086010BD00F026
:101CB000010181F31388704708000020D03900200B
:101CC0009A9999999999B93F083A0020940000206F
:101CD00098000020BFF34F8F0648006800F4E060D2
:101CE00005490843001D03490860BFF34F8F00BF3B
:101CF000FEE700000CED00E00000FA05F0B52DED68
:101D0000088BA5B000244FF4FA651427FE4800683C
:101D1000142281680EA80AF095FAE6E0FA490968EB
:101D200088680AF013F92490F7480068816807A8CA
:101D30000AF002F81C2207A91DA81CF0F9F9F248C4
:101D4000006881680BA80AF0B4F80BA807C81AABA2
:101D500007C3ED490968886809F05DFF8DED170A32
:101D6000CDED180A8DED191AE7490968886809F060
:101D700008FF8DED130ACDED140A8DED151ACDED8A
:101D8000161A2146E1A01EF0EBFFE4A01EF0E8FFCA
:101D90009DF89010E4A01EF0E3FF9DED210A10EEE7
:101DA000101A08461AF069FE41EC180B8DED028BF3
:101DB0009DED1F0B8DED000B9DED1D1BB0EE410A3F
:101DC000F0EE610A53EC102BDCA01EF0C9FFBDF948
:101DD0006E000090BDF96C30BDF96A20BDF9681045
:101DE000DFA01EF0BDFF9DED190A10EE101A084687
:101DF0001AF043FE41EC180B9DED180A10EE101A74
:101E000008461AF03AFE41EC190B9DED170A10EE48
:101E1000101A08461AF031FE41EC1A0B8DED028BB8
:101E20008DED009B53EC1A2BD8A01EF099FF9DED71
:101E3000160A10EE101A08461AF01FFE41EC180B95
:101E40009DED150A10EE101A08461AF016FE41EC28
:101E5000190B9DED140A10EE101A08461AF00DFE2B
:101E600041EC1A0B9DED130A10EE101A08461AF0F9
:101E700004FE41EC1B0B8DED048B8DED029B8DED73
:101E800000AB53EC1B2BCBA01EF06AFF9E480068F2
:101E90008168684609F050FF1C22694607A81CF0BB
:101EA00047F99DED0C0A10EE101A08461AF0E5FDF0
:101EB00041EC180B53EC182BCCA01EF051FF9249AB
:101EC000096888680AF099F80D909DF8350000F0CF
:101ED00007063146C9A01EF043FFCEA01EF040FF0A
:101EE00032344FF4FA7003F015FBAC42FFF616AF34
:101EF000CBA01EF035FF012025B0BDEC088BF0BD56
:101F00002DE9F04F2DED088BA1B0002020904FF46B
:101F10007A601F9000201E900124C54800681D9023
:101F200001201C9000267849CDE9006409681DABAA
:101F300048681C9A1E990CF00DFD05462DB92846DF
:101F400021B0BDEC088BBDE8F08F6F490968486887
:101F50001E990CF051FE4FF4FA7003F0DBFA0120E9
:101F60001E900A24B248001D00681B9001201C909E
:101F700000266549CDE9006409681BAB48681C9AD6
:101F80001E990CF0E7FC05460DB92846D8E75E49D6
:101F9000096848681E990CF02FFE4FF4FA7003F0A0
:101FA000B9FA02201E903224A148083000681A9025
:101FB00002201C9000265449CDE9006409681AAB40
:101FC00048681C9A1E990CF0C5FC05460DB92846B8
:101FD000B6E74D49096848681E990CF00DFE4FF4AC
:101FE000FA7003F097FA03201E90C824002019907D
:101FF00001201C9000264449CDE90064096819AB12
:1020000048681C9A1E990CF0A5FC05460DB9284697
:1020100096E73D49096848681E990CF0EDFD4FF4BC
:10202000FA7003F077FA4FF4FA5003F073FA4FF4B2
:102030007A674FF4FA7800BF33490968086813F0EB
:102040006BF983460068C1685846884710EB070A59
:1020500000BF2D490968486821F086F818902A4881
:1020600000684168684620F02FFF1822694612A8D0
:102070001CF05EF824480068416803A820F07AFF4D
:1020800003A807C80FAB07C31F480068416802A830
:1020900021F0FEF802A80FC8CDE90D23CDE90B0110
:1020A00019490968486820F0B5FE8DED070ACDEDA5
:1020B000080A8DED091ACDED0A1A14A020991EF018
:1020C0004FFE16A01EF04CFE17A018991EF048FEF9
:1020D0009DED160A10EE101A08461AF0CEFC41ECDF
:1020E000180B8DED028B9DED120B8DED000B9DED10
:1020F000141BB0EE410AF0EE610A53EC102B0FA056
:102100001EF02EFE96E0000008000020436F756E62
:10211000746572203D2025643A0A00002D2D2D2D76
:102120002D2D2D0A00000000466C6967687420534D
:102130007461747573203D2025640A00506F7369C3
:1021400074696F6E20284C4C4129203D20252E3388
:10215000662C20252E33662C20252E33660A00009F
:10216000524320436F6D6D616E64732028722F702F
:102170002F792F74687229203D2025642C20256436
:102180002C2025642C2025640A00000056656C6F05
:1021900063697479202876782C76792C767A2920D0
:1021A0003D20252E33662C20252E33662C20252E0F
:1021B00033660A00417474697475646520517561F1
:1021C0007465726E696F6E2028772C782C792C7A62
:1021D00029203D20252E33662C20252E33662C20E9
:1021E000252E33662C20252E33660A006865696724
:1021F0006874203D2025660A00000000636F6E743D
:10220000726F6C44657669636528645329203D20AC
:1022100025640A002D2D2D2D2D2D2D0A0A000000DC
:10222000446F6E65207072696E74696E67210A0072
:1022300074580208BDF942000090BDF94030BDF964
:102240003E20BDF93C10AFF2E8001EF089FD9DED87
:102250000D0A10EE101A08461AF00FFC41EC180B8C
:102260009DED0C0A10EE101A08461AF006FC41EC1F
:10227000190B9DED0B0A10EE101A08461AF0FDFB23
:1022800041EC1A0B8DED028B8DED009B53EC1A2B5C
:10229000AFF208101EF064FD9DED0A0A10EE101A50
:1022A00008461AF0EAFB41EC180B9DED090A10EE06
:1022B000101A08461AF0E1FB41EC190B9DED080AD3
:1022C00010EE101A08461AF0D8FB41EC1A0B9DEDDF
:1022D000070A10EE101A08461AF0CFFB41EC1B0B50
:1022E0008DED048B8DED029B8DED00AB53EC1B2B24
:1022F000AFF240101EF034FDAFF2E8001EF030FDEA
:102300004FF4FA7003F006F935490968086813F0CC
:1023100003F806900068C1680698884710EB080922
:10232000D145FFF496AEAFF208101EF019FD2C490E
:102330000968486800210CF063FE40F6B83003F0ED
:10234000E9F827490968486801210CF059FE40F670
:10235000B83003F0DFF822490968486802210CF020
:102360004FFE40F6B83003F0D5F81D4909684868BB
:1023700003210CF045FE40F6B83003F0CBF8012005
:10238000DEE510B500230A22012103200FF0E0FA58
:102390001449086006232422022103200FF0D8FAF2
:1023A000114908601148007800F00100002815D19B
:1023B0000E481EF023FE002810D00C201EF0AAFCB0
:1023C000041E05D00021204610F09CFB044600E0CE
:1023D0000020074908600548AFF3008010BD0000E9
:1023E00008000020A0000020A400002020060020FB
:1023F000240600200FB42DE9F0410746569C2546DF
:102400000DF129063222314628461BF091FEBDE827
:10241000F0015DF814FB70B504460D46C349096828
:102420002A46C86921460BF05FFF0020C0490860BA
:10243000C0480068C049086070BD0FB4F0B589B0ED
:1024400004465E9EBDF83E001038022865D80D2275
:102450000FA904A81BF06CFE20460DF03FF8B74909
:10246000884204D09DF84900CDF81D0003E0BDF876
:102470004900CDF81D009DF820008DF8000004A84B
:102480000FC806F04BFB48B1AD4801909DF8200005
:102490008DF8000004A80FC807F01EF89DF83C0056
:1024A0008DF808009DF83D008DF80900109880789F
:1024B000072809D00222A34902A819F0D0FF88B149
:1024C0001098807801280DD10520ADF80C00BDF8DA
:1024D0001D0080B2ADF80E00042203A9E0690BF0E4
:1024E00003FF19E010988078082808D00222954947
:1024F00002A819F0B4FF78B11098807860B906206E
:10250000ADF80C00BDF81D0080B2ADF80E0004223D
:1025100003A9E0690BF0E8FE13E020F00FFF074687
:10252000AF20874B88A201210090384610F00EFBA7
:1025300005469DF84420006885A183682846984791
:1025400000BF09B0F0BC5DF814FB0FB42DE9F043F7
:1025500087B004465E9E86480088CDF815000127A6
:1025600020460DF095FB8046BDF83E00103802284D
:1025700009D8BDF84900CDF815000D220FA902A811
:102580001BF0D6FD13E020F0D9FE81466020794B88
:102590006DA201210090484610F0D8FA05469DF83A
:1025A000442000686AA183682846984700BFDDF888
:1025B000150071490988884206D10022AFF27501E1
:1025C00020460DF0A6FF25E0DDF815006B490988CF
:1025D000884206D10022AFF28D0120460DF0F5FEB3
:1025E00018E010988078012803D10220ADF804008B
:1025F00005E01098807810B90320ADF80400BDF80C
:10260000150080B2ADF80600042201A9E0690BF0C4
:102610006BFE00BF07B0BDE8F0035DF814FB0FB41C
:1026200070B50646549DBDF82140022C06D0032CFF
:102630000CD0052C12D0062C44D129E00022AFF298
:10264000F5013A4800680DF064FF3CE00022AFF26B
:102650000511364800680DF0B8FE34E033480068D4
:102660000CF03CFF3549884209D030490968002305
:10267000AFF23922C868072109F0D6FE07E02B49DE
:1026800009680022C868AFF24D2109F0EEFF1AE098
:10269000264800680CF022FF2849884209D02349C7
:1026A00009680023AFF26D22C868082109F0BCFE5A
:1026B00007E01E4909680022C868AFF281210AF0CC
:1026C00005F800E000BF00BF70BC5DF814FB10B55A
:1026D00000230A22012103200FF03AF9284908605B
:1026E00006232422022103200FF032F92549086035
:1026F0002548007800F00100002815D122481EF07E
:102700007DFC002810D00C201EF004FB041E05D018
:102710000021204610F0F6F9044600E000201B4995
:1027200008601948AFF3008010BD000008000020C9
:10273000A0024342680400206C040020000A010348
:102740009D580208435A02084552524F5200000059
:1027500041434B20697320657863657074696F6EBF
:102760002C2073657175656E63652025640A000011
:10277000DA5A02087E580208745B0208765B020887
:10278000AC000020B000002020060020240600201D
:102790002DE9FE43814601260A24FA48006802908A
:1027A00002274FF00008F849CDE90084096802AB20
:1027B0003A46486831460CF0CDF8054615B928462A
:1027C000BDE8FE83F0490968486831460CF014FA08
:1027D0004FF4FA5002F09EFE0120F1E730B52DEDE6
:1027E000028B85B00546284622F070FC044620E0A6
:1027F000641C216908461AF040F941EC180B8DED74
:10280000028BA068E168CDE9000120686168641E60
:1028100041EC100B53EC102BDCA01EF0A1FADA49AE
:102820000968096A00231A46486821460FF0BBFE72
:102830005A34284622F046FCA042D9D105B0BDEC5E
:10284000028B30BD9FEDDB0A10EE101A40F8151F09
:1028500000218180C1800172417464214182017D27
:1028600021F00F010175017D21F0F001017515388E
:10287000002108E0002300F12A025354103202EB39
:1028800041021380491C1029F4DB70472DE9F04305
:102890002DED0C8B99B004468846B0EE408AF0EEE0
:1028A000608A164618A800BF00BF00BF00BF00BF67
:1028B000002121606160A16000BF00BF30461AF0B6
:1028C00086F841EC1A0B53EC1A2B9FEDBB0B51EC25
:1028D000100B1AF00DF841EC190B002088F80000DD
:1028E0004146204622F0F6FB012574E0A5F10109DE
:1028F000204622F0EBFBC9EB091101EB410100EB93
:102900004100074601A8FFF79DFFE8B28DF80400DB
:1029100028461AF05CF853EC192B19F077FF41ECBC
:102920001C0BB0EE4C0AF0EE6C0A1FF025F8B0EE6E
:1029300040BAF0EE60BA53EC182B51EC1B0B19F0B7
:1029400065FF41EC1A0B57F8010F796841EC100B49
:1029500053EC102B51EC1A0B19F0B1FECDF8050019
:10296000CDF8091028461AF032F853EC192B19F05B
:102970004DFF41EC1C0BB0EE4C0AF0EE6C0A1FF060
:102980006BF8B0EE40BAF0EE60BA53EC182B51EC95
:102990001B0B19F03BFF41EC1A0BB868F96841ECCE
:1029A000100B53EC102B51EC1A0B19F088FECDF8DC
:1029B0000D00CDF81110386900EE100AF7EE000A8C
:1029C00030EE200A10EE100ACDF8150001A92046BD
:1029D00022F080FB6D1CB54288DB88F80060414620
:1029E000204622F077FB19B0BDEC0C8BBDE8F083DC
:1029F00030B52DED068BABB005460C46B0EE409AD7
:102A0000F0EE609AB0EE418A4FF4FA5002F082FD87
:102A100014A8FFF717FF5C4800680CF05FFD6849D9
:102A2000884232D058480068416801A820F04CFA2A
:102A3000182201A90EA81BF07BFBDDE91001CDF8DF
:102A40005100CDF85510DDE90E01CDF85900CDF853
:102A50005D1018EE100ACDF8610018EE100A1AF099
:102A60000CF841EC1A0B8DED02AB9DED0E0B8DEDCC
:102A7000000B9DED101BB0EE410AF0EE610A53EC25
:102A8000102B50A01EF06CF931E03F4800688168BF
:102A9000684609F051F91C22694607A81BF048FB5B
:102AA000DDE90701CDF85100CDF85510DDE9090148
:102AB000CDF85900CDF85D1018EE100ACDF8610080
:102AC00018EE100A19F0D9FF41EC1A0B8DED02AB8C
:102AD0009DED090B8DED000B9DED071BB0EE410A3E
:102AE000F0EE610A53EC102B36A01EF039F92246A5
:102AF000B0EE490AF0EE690A14A92846FFF7C6FEAF
:102B00002BB0BDEC068B30BDB2EE040A10EE101AED
:102B1000C01C40F8021CB1EE040A10EE101AC0F8F6
:102B20000210002181710121C171002101724172E5
:102B3000012181720021C1729FED2C0B52EC101B00
:102B4000C16002619FED290B52EC101B4161826153
:102B50009FED180A10EE101AC161C01E7047F0B543
:102B60002DED048B97B00546074800680CF0B6FCC5
:102B70001349884246D004480068FFF709FE00B9AF
:102B800038E03FE0B458020808000020576179702F
:102B90006F696E742063726561746564206174206E
:102BA000284C4C41293A2025662009256620092514
:102BB000660A200000000000182D4454FB21194033
:102BC000000A0103576179706F696E742063726542
:102BD0006174656420617420284C4C41293A202599
:102BE0006620092566200925660A0000000000000D
:102BF00000000000EDA01EF0B3F8002017B0BDECFF
:102C0000048BF0BD0AA8FFF77FFF681CC0B28DF8E7
:102C100028009FEDEE9BB2EE048A0AA80090ED48D2
:102C2000006801230022016A02A80BF030F94FF47A
:102C3000FA7002F06FFCE7490968086A0BF02CFA99
:102C4000E5A01EF08DF8B0EE481AB0EE490AF0EE9D
:102C5000690A294607A8FFF7CBFEE8A01EF080F816
:102C600007A8FFF7BBFDEBA01EF07AF8D949096869
:102C7000096A4868D7490968096A496809680022E9
:102C80008B68114698474FF4FA7002F043FCE7A0B6
:102C90001EF066F8CF490968486801210CF0B0F9C8
:102CA00040F6B83002F036FC07AC204622F00AFAB3
:102CB0000646204622F00AFA0746324639462046A2
:102CC00022F044F92168A068401A5A2190FBF1F6DD
:102CD00032462046216821F0B8FE00BF01208DE772
:102CE00010B52DED068B96B00446BA4800680CF07E
:102CF000F5FBD54988420CD0B6480068FFF748FD7F
:102D000038B9AAA01EF02CF8002016B0BDEC068B36
:102D100010BD00200090AF48006801231A46016AE8
:102D200002A80BF0B4F8AB490968086A0BF0B4F9D3
:102D3000A84800680CF0D2FBC349884226D0A548B9
:102D40000068416801A820F0BFF8182201A910A866
:102D50001BF0EEF9204619F03AFE41EC180B9DED00
:102D6000122BB0EE421AF0EE621A9DED102BB0EE6F
:102D7000420AF0EE620A97490968096AB0EE482AE9
:102D8000F0EE682A88680AF0E7FC25E091480068C0
:102D90008168684608F0D0FF1C22694609A81BF02C
:102DA000C7F9204619F013FE41EC180B9DED092BD5
:102DB000B0EE421AF0EE621A9DED0B2BB0EE420A15
:102DC000F0EE620A83490968096AB0EE482AF0EE1B
:102DD000682A88680AF0C0FC00F09EF99BA01DF0EC
:102DE000BFFF7C490968096A88687A490968096AE5
:102DF0008968096800228B68114698474FF4FA7079
:102E000002F088FB4FF47A6002F084FB9AA01DF078
:102E1000A7FF70490968096A88686E490968096AE4
:102E20008968096800228B691146984741F2883009
:102E300002F070FB94A01DF093FF66490968096ACF
:102E4000886864490968096A8968096800220B6A08
:102E5000114698474FF47A6002F05CFB204619F067
:102E6000B6FD41EC190B9FED8A0B53EC102B19F0BA
:102E7000CDFC41EC180B53EC182B87A01DF070FF14
:102E8000204619F0A4FD41EC1A0B9FED810B53EC89
:102E9000102B19F0BBFC41EC190B19F031FE08EEB8
:102EA000100A4C490968096A002288681146B0EE88
:102EB000480A0AF02AFA42F2107002F02BFB81A0B5
:102EC0001DF04EFF01208DF81C00B1EE040A10EE3B
:102ED000100ACDF81D003F490968096A00231A4607
:102EE000886807A90AF06CF942F2107002F012FB30
:102EF00044F6206002F00EFB7FA01DF031FF354943
:102F00000968096A886833490968096A896809682B
:102F100000220B69114698474FF47A7002F0FAFAD2
:102F200077A01DF01DFF2B4800680CF0D7FA46492A
:102F3000884209D027490968486801210CF060F8E7
:102F400040F6B83002F0E6FA00F0ACFADDE610B573
:102F500000230A22012103200EF0FAFC6A490860CE
:102F600006232422022103200EF0F2FC67490860A8
:102F70006748007800F00100002815D164481EF071
:102F80003DF8002810D00C201DF0C4FE041E05D012
:102F9000002120460FF0B6FD044600E000205D4908
:102FA00008605B48AFF3008010BD00004661696CAB
:102FB000656420746F20736574207570205375628A
:102FC000736372697074696F6E210A008DEDB5A02C
:102FD000F7C6B03E08000020496E697469616C69EB
:102FE0007A696E6720576179706F696E74204D69D8
:102FF0007373696F6E2E2E0A0000000043726561C4
:1030000074696E6720576179706F696E74732E2EC4
:103010000A00000055706C6F6164696E672057612B
:1030200079706F696E74732E2E0A0000537461728A
:1030300074696E6720576179706F696E74204D698D
:103040007373696F6E2E0A00000A01035374617274
:103050007420776974682064656661756C74207289
:103060006F746174696F6E20726174653A203135D6
:10307000206465672F730000506175736520666F6B
:10308000722035730A000000526573756D650A0081
:10309000000000000000F83F557064617465207204
:1030A000616469757320746F20312E35783A206E13
:1030B000657720726164697573203D2025302E3359
:1030C000660A000055706461746520686F74706FE3
:1030D000696E7420726F746174696F6E20726174AE
:1030E000653A206E65772072617465203D20352039
:1030F0006465672F730A000053746F700A00000044
:103100004C616E640A000000B8000020BC00002082
:1031100020060020240600202DE9F04F2DED048B21
:1031200099B0FA4800680CF0D9F9F949884229D0D9
:10313000002018904FF00A0BF64800681490022007
:103140001390002012901298F049CDE9000B096805
:1031500014AB4868139A18990BF0FCFB1190119866
:1031600028B9119819B0BDEC048BBDE8F08FE74980
:103170000968486818990BF03FFD4FF4FA7002F0A7
:10318000C9F900BFE14909680022C868114609F081
:10319000CEFA4FF4FA7002F0BDF943F698244FF4DA
:1031A000FA7500270020179016901590D7490968E6
:1031B000086812F0B1F880460068C1684046884748
:1031C000061900BF4FF4FA6002F0A4F9CF48006876
:1031D0000CF084F9CE49884210D0CC49096848687F
:1031E0001FF0C2FF012820D1C8490968486820F0B3
:1031F00005F8292819D10120179023E0C34909684F
:10320000886808F0A3FE13909DF84C00022809D0AE
:10321000BE490968886808F099FE14909DF850002E
:10322000032802D1012017900CE0B849096808680A
:1032300012F072F883460068C168584688474719FB
:10324000B742BFD300BF1798A0B9B3A01DF088FD47
:10325000AE4800680CF042F9AD49884208D0AB494D
:103260000968486818990BF0CBFE322002F052F939
:10327000002077E7B3A01DF073FDA4490968086832
:1032800012F04AF881460068C16848468847061926
:1032900000BF4FF4FA6002F03DF99C4800680CF062
:1032A0001DF99B49884217D09849096848681FF062
:1032B0005BFF02281DD19549096848681FF09EFFF1
:1032C0000A2806D09149096848681FF097FF0B2823
:1032D0000FD10120169019E08C490968886808F020
:1032E00035FE14909DF85000032802D1012016905D
:1032F0000CE086490968086812F00EF883460068F9
:10330000C168584688474719B742C2D300BF1698CC
:10331000A8B992481DF024FD7C4800680CF0DEF846
:103320007B49884209D079490968486818990BF0A7
:1033300067FE4FF4FA7002F0EDF8002012E788A063
:103340001DF00EFD71490968086811F0E5FF82461D
:103350000068C1685046884706196C4800680CF040
:10336000BDF86B49884223D000BF4FF4FA6002F0E9
:10337000D1F86649096848681FF040FF0A2806D15D
:103380006249096848681FF039FF0B2802D0012004
:1033900015900CE05D490968086811F0BDFF83468F
:1033A0000068C168584688474719B742DDD300BF57
:1033B000564800680CF092F85549884220D053498D
:1033C000096848681FF01AFF062806D14F490968A6
:1033D00048681FF013FF012803D067A01DF0C0FC50
:1033E0004DE06B481DF0BCFC4849096848681899D5
:1033F0000BF006FE4FF4FA7002F08CF80020B1E6F4
:1034000042480068816807A808F096FC00BF40F6B3
:10341000B83002F07FF83D4800688168684608F0DF
:103420008BFC1C2269460EA81AF082FEDDED120A02
:103430009DED0B1A30EEC10AB0EEC08A00BF9DEDC3
:10344000120A8DED0B0A18EE100A19F016FB41EC6A
:10345000190B9FED500B53EC102B19F039FBD6D9FB
:103460009DED120A10EE101A084619F006FB41EC09
:10347000190B53EC192B49A01DF072FC00BF234817
:1034800000680CF02BF82249884209D01F490968CE
:10349000486818990BF0B4FD40F6B83002F03AF8DD
:1034A00001205FE62DE9F04F93B047F230544FF41E
:1034B000FA754FF0000A00201290119010900F90B2
:1034C0000A200E90114800680CF008F81049884254
:1034D0007FD01048001D00680D9002200C904FF026
:1034E000000B0E9880B20949CDE900B009680DAB18
:1034F00048680C9A0F990BF02DFA8146B9F1000F2C
:103500005CD1484613B0BDE8F08F62E008000020AF
:10351000000A0103B858020854616B656F666620A3
:103520006661696C65642E204D6F746F72732066DE
:1035300061696C656420746F207374617274210A10
:10354000000000000A5375636365737366756C2031
:1035500074616B656F6666210A000000EC7A0208F0
:1035600056656869636C6520617363656E64696E36
:10357000672E2E2E0A00000056656869636C652070
:10358000697320686F766572696E670A00000000D3
:103590003C7A02083BDF4F8D976E823F4169726330
:1035A0007261667420686F766572696E67206174F7
:1035B00020252E35666D21200A000000FE4909688D
:1035C00048680F990BF018FB4FF4FA7001F0A2FF56
:1035D00000BFF94909680022C868114609F025F9B9
:1035E0004FF4FA7001F096FFF3490968086811F08A
:1035F00093FE07460068C16838468847061900BF31
:103600004FF4FA6001F086FFEB4800680BF066FFAC
:10361000EA49884209D0E849096848681FF0EEFD88
:103620000C280FD1012012901AE0E349096888683C
:1036300008F08CFC0D909DF83400042802D0012085
:1036400012900DE0DC490968086811F065FE8146BA
:103650000068C1684846884710EB050AB245CFD3D9
:1036600000BF1298B8B9D6A01DF07AFBD248006806
:103670000BF034FFD149884209D0CF490968486826
:103680000F990BF0BDFC4FF4FA7001F043FF0020DE
:1036900013B0BDE8F08FD6A01DF062FBC6490968E3
:1036A000086811F039FE80460068C16840468847C6
:1036B000061900BF4FF4FA6001F02CFFBE48006805
:1036C0000BF00CFFBD4988421ED0BB490968486811
:1036D0001FF094FD0C2846D0B749096848681FF0D0
:1036E00043FD02283FD0B449096848681FF086FDB1
:1036F000062806D1B049096848681FF07FFD0128F7
:1037000031D0012011903CE0AB490968886808F08D
:103710001DFC0D909DF83400052803D1642001F0B4
:10372000F9FE20E000BF4FF4FA6001F0F3FEA2487A
:1037300000688168684608F0FFFA1C22694607A8FD
:103740001AF0F6FC9DED0B0AB5EEC00AF1EE10FA88
:10375000E9D19DED0B0AB5EEC00AF1EE10FA01D1E8
:103760000120119000BF94490968086811F0D4FD48
:1037700081460068C1684846884710EB050AB24593
:1037800098D300BF119818B19EA01DF0E9FA15E07A
:10379000A2481DF0E5FA884800680BF09FFE8749B3
:1037A000884209D08449096848680F990BF028FCC1
:1037B0004FF4FA7001F0AEFE002069E77E48006821
:1037C0000BF08CFE7D49884209D07B490968486826
:1037D0000F990BF015FC40F6B83001F09BFE01206C
:1037E00056E72DE9F05F2DED0A8B83460E46144611
:1037F0001D46714800680BF071FE7049884250D038
:103800002746A9464D46D9F80000D9F8041041ECE6
:10381000100B3C463868796853EC102B18F0F0FF19
:1038200041EC180BD9F80800D9F80C1041EC100B3A
:10383000B868F96853EC102B18F0E2FF41EC190B53
:103840009FED770B53EC102B51EC190B18F0DEFFAA
:1038500019F056F93060B868F96841EC100B1EF0A9
:103860008BF8B0EE40BAF0EE60BA9FED6D0B53EC02
:10387000102B51EC180B18F0C9FF53EC1B2B18F050
:10388000C5FF19F03DF97060386900EE100AD9F8EB
:10389000100000EE900A30EE600A10EE100AB060E0
:1038A00056E0A046AA465546DAF80800DAF80C10A9
:1038B00041EC100B4446D8F80800D8F80C1053EC33
:1038C000102B18F09DFF41EC180BDAF80000DAF825
:1038D000041041EC100BD8F80000D8F8041053EC99
:1038E000102B18F08DFF41EC190B9FED4D0B53EC95
:1038F000102B51EC190B18F089FF19F001F9306009
:10390000D8F80000D8F8041041EC100B1EF034F881
:10391000B0EE40BAF0EE60BA9FED410B53EC102BC5
:1039200051EC180B18F072FF53EC1B2B18F06EFFC4
:1039300019F0E6F87060D8F8100000EE100ADAF816
:10394000100000EE900A30EE600A10EE100AB0602F
:10395000BDEC0A8BBDE8F09F30B52DED108B85B026
:1039600004462546A86800EE100A20EE000A10EE74
:10397000101A084619F081F841EC190BE86800EEBE
:10398000100A20EE000A10EE101A084619F075F819
:1039900041EC1F0B53EC192B18F091FE41EC1E0B60
:1039A0009FED210B53EC102B18F030FF41EC1D0B59
:1039B0009FED1F0B40E0000008000020000A0103FB
:1039C0004C616E64696E67206661696C65642E2067
:1039D0004169726372616674206973207374696CE3
:1039E0006C20696E20746865206169722E0A00007F
:1039F00056656869636C65206C616E64696E672EDC
:103A00002E2E0A005375636365737366756C206CA4
:103A1000616E64696E67210A00000000947A0208F2
:103A200000000040A654584100000000000000C003
:103A3000000000000000F03F53EC102B18F03FFE98
:103A400041EC1A0B686800EE100AA86800EE900AB4
:103A500020EE201A286800EE100AE86800EE900AAE
:103A600000EE201A11EE101A084619F006F841EC83
:103A70001D0B9FEDFE0B53EC102B18F0C7FE41EC15
:103A80001B0B686800EE100AE86800EE900A20EE52
:103A9000201A286800EE100AA86800EE900A00EECE
:103AA000601A11EE101A084618F0E7FF41EC1D0BE2
:103AB0001FED230B53EC102B18F0A8FE41EC180B54
:103AC000A86800EE100AE86800EE900A20EE201ABE
:103AD000286800EE100A686800EE900A00EE201ACE
:103AE00011EE101A084618F0C8FF41EC1D0B9FEDAF
:103AF000DF0B53EC102B18F089FE41EC1C0B6868AF
:103B000000EE100A20EE000A10EE101A084618F017
:103B1000B4FF41EC1F0B53EC192B18F0D0FD41EC16
:103B20001E0B1FED3F0B53EC102B18F06FFE41ECFA
:103B30001D0B1FED410B53EC102B18F0C0FDCDE910
:103B400000011FED450B53EC102B51EC180B18F036
:103B5000BFFF02D21FED4A0B03E0B0EE480AF0EEC1
:103B6000680AB0EE408AF0EE608A9FEDC20B53EC1B
:103B7000102B51EC180B18F093FF02D29FEDBD0BE8
:103B800003E0B0EE480AF0EE680AB0EE408AF0EECC
:103B9000608AB0EE480AF0EE680A1DF0D9FAB0EE7D
:103BA00040DAF0EE60DA51EC1D0B18F0A9FF02903C
:103BB0009DED001BB0EE4C0AF0EE6C0A1DF0E4FD2A
:103BC000B0EE40DAF0EE60DA51EC1D0B18F098FF21
:103BD0000390B0EE4A1AF0EE6A1AB0EE4B0AF0EE1D
:103BE0006B0A1DF0D1FDB0EE40DAF0EE60DA51EC78
:103BF0001D0B18F085FF04909DED020ADDED030A10
:103C00009DED041A05B0BDEC108B30BD2DE9F04FD1
:103C10002DED060B2DED108BB7B0B0EE408AF0EE17
:103C2000608AB0EE419AF0EE61FAF0EE429A934863
:103C30003590322034904FF47A71349891FBF0F53E
:103C400005EB850040003390322005FB00FA002090
:103C50003290322031908A4800680BF03FFC89494D
:103C600088422DD0884800680690022005900020E8
:103C70000490319880B20499CDE900108049096818
:103C800006AB4868059A32990AF064FE8346BBF198
:103C9000000F06D1584637B0BDEC108B06B0BDE81A
:103CA000F08F77490968486832990AF0A5FF4FF408
:103CB000FA7001F02FFC4FF4FA5001F02BFC00BF1A
:103CC0006F4800680BF00AFC6E49884217D06C48B8
:103CD0000068416801A81FF0F7F8182201A92BA875
:103CE0001AF026FA18222BA925A81AF021FA25ABDA
:103CF0002BAA14A962480068FFF773FD16E060481C
:103D000000688168684608F017F81C2269461EA8FA
:103D10001AF00EFA1C221EA917A81AF009FA17ABFE
:103D20001EAA14A956480068FFF75BFD9DED140A12
:103D300038EE400A10EE101A084618F09EFE41ECCC
:103D40001C0B9DED150A38EEC00A10EE101A08463D
:103D500018F093FE41EC1D0B9DED160AB1EE400AE2
:103D600039EE400A10EE101A084618F086FECDE92A
:103D700012011FEE900A18F080FE9FED440B53ECE9
:103D8000102BCDE904019DED040B51EC100B18F044
:103D90003DFD41EC1A0B4C9818F06FFE9FED3B0B6C
:103DA00053EC102BCDE904019DED040B51EC100BED
:103DB00018F02CFD41EC1E0B314800680BF08EFB17
:103DC000304988422BD02E49096848681FF022F8F4
:103DD0008DED0E0ACDED0F0A8DED101ACDED111AF5
:103DE0000EA8FFF7B9FD8DED040ACDED050A8DEDA6
:103DF000061A9DED060A10EE101A084618F03DFE50
:103E00009FED220B53EC102BCDE902019DED020B2F
:103E100051EC100B18F06CFD41EC1B0B40E0184905
:103E20000968886807F0ADFE8DED0A0ACDED0B0A32
:103E30008DED0C1ACDED0D1A0AA8FFF78DFD8DED55
:103E4000040ACDED050A8DED061A9DED060A10EE69
:103E5000101A084618F011FE9FED0C0B53EC102BB6
:103E6000CDE902019DED020B14E00000000000000E
:103E700000000040000000000000F0BFA08601002C
:103E800008000020000A0103C058020811DD52A2F8
:103E900046DF913F51EC100B18F02AFD41EC1B0B53
:103EA00000270026B046B14602249FEDFE0A8DEDA4
:103EB000070AFD4800680BF011FBFC49884203D15A
:103EC0009FEDFB0A8DED070AB5EEC08AF1EE10FA00
:103ED00012DD00EE104AB8EEC00AB4EEC08AF1EE70
:103EE00010FA02D2B0EE480A03E000EE104AB8EE33
:103EF000C00A8DED090A1DE0B5EEC08AF1EE10FA98
:103F000014D2604200EE100AB8EEC00AB4EEC80A3D
:103F1000F1EE10FA02D2B0EE480A04E0604200EE80
:103F2000100AB8EEC00A8DED090A03E09FEDE10A20
:103F30008DED090AF5EEC08AF1EE10FA12DD00EE01
:103F4000104AB8EEC00AF4EEC08AF1EE10FA02D2BE
:103F5000B0EE680A03E000EE104AB8EEC00A8DED3C
:103F6000080A1DE0F5EEC08AF1EE10FA14D26042A4
:103F700000EE100AB8EEC00AB4EEE80AF1EE10FA4C
:103F800002D2B0EE680A04E0604200EE100AB8EE19
:103F9000C00A8DED080A03E09FEDC60A8DED080A00
:103FA000C14800680BF09AFAC049884204D09DEDE0
:103FB0002F0A30EE09FA03E09DED220A30EE09FAED
:103FC000B0E11FED4E0B53EC102B51EC1A0B18F017
:103FD0008FFCCDE904019DED040B51EC100B18F0A2
:103FE0008FFDB14906900968C868DDED061AB0EE8C
:103FF0004F1ADDED080A9DED090A08F0ACFCA8B2E5
:1040000001F088FA2F44A84800680BF067FAA74926
:10401000884231D0A449096848681EF0FBFE8DED46
:104020000E0ACDED0F0A8DED101ACDED111A0EA866
:10403000FFF792FC8DED040ACDED050A8DED061A11
:104040009DED060A10EE101A084618F016FD41EC18
:104050001B0B95480068416801A81EF035FF182227
:1040600001A92BA81AF064F825AB2BAA14A98E4835
:104070000068FFF7B6FB30E08B490968886807F0F5
:1040800080FD8DED0A0ACDED0B0A8DED0C1ACDEDFC
:104090000D1A0AA8FFF760FC8DED040ACDED050AA4
:1040A0008DED061A9DED060A10EE101A084618F05E
:1040B000E4FC41EC1B0B7C4800688168684607F013
:1040C0003BFE1C2269461EA81AF032F817AB1EAA46
:1040D00014A975480068FFF784FB9DED140A38EEBB
:1040E000400A10EE101A084618F0C7FC41EC1C0BF1
:1040F0009DED150A38EEC00A10EE101A084618F0A9
:10410000BCFC41EC1D0B9DED160AB1EE400A39EEE8
:10411000400A10EE101A084618F0AFFCCDE9120163
:10412000204618F054FCB0EE4C0AF0EE6C0ACDE9D3
:1041300004011CF0D3FD8DED020B9DED040B53EC3F
:10414000102B9DED020B51EC100B18F0A9FC04D2C2
:1041500051EC1C0B18F0D4FC0990204618F037FCE9
:10416000B0EE4D0AF0EE6D0ACDE904011CF0B6FD8B
:104170008DED020B9DED040B53EC102B9DED020B0E
:1041800051EC100B18F08CFC04D251EC1D0B18F004
:10419000B7FC0890444800680BF0A0F943498842F6
:1041A0004AD119EE900A18F068FCB0EE4C0AF0EE15
:1041B0006C0ACDE904011CF091FD8DED020B9DED23
:1041C000040B53EC102B9DED020B51EC100B18F06F
:1041D00067FC31D219EE900A18F04FFCB0EE4D0A90
:1041E000F0EE6D0ACDE904011CF078FD8DED020BB7
:1041F0009DED040B53EC102B9DED020B51EC100BBD
:1042000018F04EFC18D253EC1A2B51EC1B0B18F083
:10421000F7FACDE902019DED020B1CF05FFD8DED7B
:10422000040B53EC1E2B9DED040B51EC100B18F0FE
:1042300037FC01D22E446DE019EE900A18F01DFCF7
:10424000B0EE4C0AF0EE6C0ACDE904011CF046FD1C
:104250008DED020B9DED040B53EC102B9DED020B2D
:1042600051EC100B18F01CFC52D219EE900A18F009
:1042700004FCB0EE4D0AF0EE6D0ACDE904011CF02D
:104280002DFD8DED020B9DED040B53EC102B9DEDE0
:10429000020B51EC100B18F003FC39D2079818F000
:1042A000ECFB09E08FC2F53D08000020000A010385
:1042B0009A99993F00000000CDE904019DED120B91
:1042C0001CF00CFD8DED020B9DED040B53EC102B3F
:1042D0009DED020B51EC100B18F0E2FB18D253ECE1
:1042E0001A2B51EC1B0B18F08BFACDE902019DED56
:1042F000020B1CF0F3FC8DED040B53EC1E2B9DED1B
:10430000040B51EC100B18F0CBFB01D22E4401E052
:1043100006B1A8443398804501DD0026B0465645D5
:1043200000DB03E035988742FFF64BAE00BF4E48F6
:1043300000680BF0D3F84D4988420BD008E04A4999
:104340000968C86808F0FBFBA8B201F0E3F8A944CB
:10435000D145F4DB3598874216DB45A01CF000FD03
:10436000414800680BF0BAF84049884209D03E49FC
:104370000968486832990AF043FE4FF4FA7001F078
:10438000C9F83F48007886E4374800680BF0A6F883
:104390003649884209D034490968486832990AF098
:1043A0002FFE40F6B83001F0B5F83648007872E4D8
:1043B0002DE9F047054642F210774FF032084FF4EE
:1043C0007A7090FBF8F404EB84004FEA4009322045
:1043D00004FB00FA002612E0234909685FED4B1A3E
:1043E0001FED4C1A5FED4D0A00EE105AB8EEC00AF0
:1043F000C86808F0D9FAA0B201F08CF82644BE4291
:10440000EADB20480078BDE8F08710B500230A22D7
:10441000012103200DF09CFA1B4908600623242289
:10442000022103200DF094FA18490860184800781A
:1044300000F00100002815D115481CF0DFFD002810
:1044400010D00C201CF066FC041E05D00021204674
:104450000EF058FB044600E000200E4908600C48AE
:10446000AFF3008010BD000008000020000A010327
:104470005461736B2074696D656F7574210A000057
:10448000C7580208C6580208C4000020C80000200F
:10449000200600202406002010B52DED068B84B0E8
:1044A000044694ED020A10EE101A084618F0E5FAD8
:1044B00041EC180B94ED010A10EE101A084618F0A2
:1044C000DCFA41EC190B94ED000A10EE101A0846C4
:1044D00018F0D3FA41EC1A0B8DED028B8DED009B99
:1044E00053EC1A2BFEA01CF03BFC04B0BDEC068B79
:1044F00010BD1CB5044694ED000ABDEEC00A10EED6
:10450000100A00B2ADF8020094ED010ABDEEC00A37
:1045100010EE100A00B2ADF8040094ED020ABDEEF0
:10452000C00A10EE100A00B2ADF80000207B8DF832
:1045300007009DF806008DF806009DF80600217C16
:104540000843C0B28DF806009DF80600217D40EAC0
:104550004100C0B28DF806009DF80600A17D40EA3A
:104560008100C0B28DF806009DF80600617D40EA2A
:10457000C100C0B28DF80600E7490968486969467C
:1045800008F0D3FB4FF47A6000F0C4FF1CBD00B507
:10459000B5B0002022909FEDE11ADFEDE00A9FED1B
:1045A000DF0A2FA81AF094F99FEDDC1ADFEDDB0A81
:1045B0009FEDDA0A099032A81AF08AF908900020D3
:1045C000019002900390049000900998D0ED022A87
:1045D00090ED012AD0ED001A089890ED021AD0ED66
:1045E000010A90ED000A00231A46194616A81AF08F
:1045F00076F99FEDCA1ADFEDC90A9FEDC80A13A824
:104600001AF066F99FEDC51ADFEDC40A9FEDC30AE3
:1046100010A81AF05DF900200D900A200C90BE48F9
:1046200000680AF05BFFBE4988422AD0BD48006896
:10463000099002200890002007900C9880B20799FA
:10464000CDE90010B4480068406809AB0590089AAD
:104650000D990AF07FF90690069810B9069835B0C2
:1046600000BDAD480068406805900D990AF0C4FA95
:104670004FF4FA7000F04EFF4FF4FA6000F04AFF7A
:1046800000BFA9481CF06CFBA34800680AF026FF95
:10469000A349884230D0A0480068406806901EF0C8
:1046A000C3FC8DED070ACDED080A8DED091A9DEDCD
:1046B000080A8DED130A98480068406806901EF0BD
:1046C000B3FC8DED070ACDED080A8DED091A9DEDBD
:1046D000070A8DED140A90480068406806901EF0A5
:1046E000A3FC8DED070ACDED080A8DED091A9DEDAD
:1046F000090A8DED150A35E0874800688068014693
:10470000019002A807F0FBFB02A80FC8CDE908231F
:10471000CDE906019DED060A8DED130A7E4800687D
:1047200080680146019002A807F0E9FB02A80FC8C3
:10473000CDE90823CDE906019DED070A8DED140AA8
:104740007548006880680146019002A807F0D7FB11
:1047500002A80FC8CDE90823CDE906019DED080A9E
:104760008DED150A1598039018F087F9CDE9080129
:104770001498039018F081F9CDE90601139803907D
:1047800018F07BF9CDE90401DDE90801CDE902016A
:10479000DDE90601CDE900019DED040B53EC102B82
:1047A00062A01CF0DDFA9FED5D1ADFED5C0A9FED63
:1047B0005B0A2FA81AF08CF8099000200123CDE99C
:1047C000013003900490142000900998D0ED022A43
:1047D00090ED012AD0ED001A9DED151ADDED140AB9
:1047E0009DED130A00231A46194623A81AF077F8FC
:1047F00030220146089016A819F09AFC16A8FFF777
:1048000078FE59481CF0ACFA434800680AF066FE8E
:104810004349884230D040480068406806901EF006
:1048200003FC8DED070ACDED080A8DED091A9DED0B
:10483000080A8DED100A38480068406806901EF09E
:10484000F3FB8DED070ACDED080A8DED091A9DEDFC
:10485000070A8DED110A30480068406806901EF086
:10486000E3FB8DED070ACDED080A8DED091A9DEDEC
:10487000090A8DED120A7DE027480068806801462C
:10488000019002A807F03BFB02A80FC8CDE908235E
:10489000CDE906019DED060A8DED100A1E4800685F
:1048A00080680146019002A807F029FB02A80FC802
:1048B000CDE90823CDE906019DED070A8DED110A2A
:1048C0001548006880680146019002A807F017FBB0
:1048D00002A80FC8CDE90823CDE9060146E0000093
:1048E0004E65772047696D62616C20726F746174E8
:1048F000696F6E20616E676C65206973205B20258F
:10490000302E33662C2025302E33662C2025302E79
:104910003366205D0A0A0000080000200000000045
:10492000000A0103C45802083C7B0208496E6974FE
:1049300069616C2047696D62616C20726F7461748B
:10494000696F6E20616E676C653A205B2025302EA2
:1049500033662C2025302E33662C2025302E3366EE
:10496000205D0A0A00000000E87C02089DED080AAC
:104970008DED120A00200190029003900490142003
:104980000090DDED122A9DED112ADDED101A9DED4E
:10499000151ADDED140A9DED130A4FF4E163C822E8
:1049A000002123A819F09BFF30220146099016A888
:1049B00019F0BEFB16A8FFF79CFDFE4800680AF040
:1049C0008DFDFD49884230D0FA4800684068069065
:1049D0001EF02AFB8DED070ACDED080A8DED091AB0
:1049E0009DED080A8DED100AF248006840680690B7
:1049F0001EF01AFB8DED070ACDED080A8DED091AA0
:104A00009DED070A8DED110AEA480068406806909E
:104A10001EF00AFB8DED070ACDED080A8DED091A8F
:104A20009DED090A8DED120A35E0E24800688068C4
:104A30000146019002A807F062FA02A80FC8CDE96A
:104A40000823CDE906019DED060A8DED100AD9482F
:104A5000006880680146019002A807F050FA02A899
:104A60000FC8CDE90823CDE906019DED070A8DEDBC
:104A7000110AD048006880680146019002A807F03A
:104A80003EFA02A80FC8CDE90823CDE906019DED45
:104A9000080A8DED120A10A8FFF7FEFCC7A01CF053
:104AA0005FF9CDA01CF05CF9C2480068006909906C
:104AB00007F040FCCDA01CF053F9D8481CF050F989
:104AC0001FED6A1A5FED6B0A1FED6C0A2FA819F033
:104AD000FFFE099000200123CDE9013003900490EE
:104AE000142000900998D0ED022A90ED012AD0ED13
:104AF000001A9DED151ADDED140A9DED130A002331
:104B0000C74A194623A819F0EAFE30220146089048
:104B100016A819F00DFB16A8FFF7EBFCA5480068D6
:104B20000AF0DCFCA449884230D0A2480068406802
:104B300006901EF079FA8DED070ACDED080A8DED8D
:104B4000091A9DED080A8DED100A9A480068406820
:104B500006901EF069FA8DED070ACDED080A8DED7D
:104B6000091A9DED070A8DED110A92480068406808
:104B700006901EF059FA8DED070ACDED080A8DED6D
:104B8000091A9DED090A8DED120A35E08948006881
:104B900080680146019002A807F0B1F902A80FC889
:104BA000CDE90823CDE906019DED060A8DED100A39
:104BB0008048006880680146019002A807F09FF9CC
:104BC00002A80FC8CDE90823CDE906019DED070A2B
:104BD0008DED110A7748006880680146019002A8AF
:104BE00007F08DF902A80FC8CDE90823CDE9060129
:104BF0009DED080A8DED120A10A8FFF74DFC6FA07D
:104C00001CF0AEF887A01CF0ABF86A480068006999
:104C1000099007F096FB88481CF0A2F887A01CF0CA
:104C20009FF86420ADF83A003220ADF83C006FF0F8
:104C3000C700ADF838004FF47A600B9064200A90FA
:104C4000002009900FE05B48006840690EA90890B9
:104C500008F081F80A9880B2089000F05BFCDDE96A
:104C60000901084409900B9909988842EBDB5148E7
:104C700000680AF033FC5049884230D04D48006843
:104C8000406806901EF0D0F98DED070ACDED080AB8
:104C90008DED091A9DED080A8DED100A4548006852
:104CA000406806901EF0C0F98DED070ACDED080AA8
:104CB0008DED091A9DED070A8DED110A3D4800683A
:104CC000406806901EF0B0F98DED070ACDED080A98
:104CD0008DED091A9DED090A8DED120A35E0354872
:104CE000006880680146019002A807F008F902A850
:104CF0000FC8CDE90823CDE906019DED060A8DED2B
:104D0000100A2C48006880680146019002A807F04C
:104D1000F6F802A80FC8CDE90823CDE906019DEDFC
:104D2000070A8DED110A234800688068014601904A
:104D300002A807F0E4F802A80FC8CDE90823CDE9DE
:104D400006019DED080A8DED120A10A8FFF7A4FBDD
:104D500049A01CF005F89FED4E1ADFED4D0A9FEDBE
:104D60004C0A2FA819F0B4FD099000200123CDE9C9
:104D7000013003900490142000900998D0ED022A8D
:104D800090ED012AD0ED001A9DED151ADDED140A03
:104D90009DED130A00231A46194623A819F09FFD1A
:104DA00030220146089016A819F0C2F916A8FFF79C
:104DB000A0FB6FE008000020000A0103456E737538
:104DC000726520534420636172642069732070729D
:104DD0006573656E742E0A0054616B696E6720708E
:104DE0006963747572652E2E0A000000436865635E
:104DF0006B20444A4920474F20417070206F722039
:104E00005344206361726420666F722061206E6576
:104E10007720706963747572652E0A009C7C0208A5
:104E20000CFEFFFF5374617274696E6720766964CB
:104E3000656F2E2E0A000000D47B0208536574743F
:104E4000696E6720526F6C6C207261746520746F9C
:104E50002031302C205069746368207261746520A1
:104E6000746F20352C20596177205261746520744D
:104E70006F202D32302E0A00526573657474696E8E
:104E80006720706F736974696F6E2E2E2E0A000092
:104E900000000000634800680AF020FB6249884275
:104EA00030D060480068406806901EF0BDF88DED77
:104EB000070ACDED080A8DED091A9DED080A8DED62
:104EC000100A58480068406806901EF0ADF88DED55
:104ED000070ACDED080A8DED091A9DED070A8DED43
:104EE000110A50480068406806901EF09DF88DED4C
:104EF000070ACDED080A8DED091A9DED090A8DED21
:104F0000120A39E04748006880680146019002A80B
:104F100006F0F5FF03A80DC80299CDE90823CDE9F5
:104F200006109DED060A8DED100A3E480068806867
:104F30000146019002A806F0E2FF02A90EC90598F9
:104F4000CDE90723069109909DED070A8DED110A21
:104F50003448006880680146019002A806F0CFFF3F
:104F6000DDE90403DDE90212CDE90803CDE906120B
:104F70009DED080A8DED120A10A8FFF78DFA2BA0FF
:104F80001BF0EEFE274800680069099007F0E0F981
:104F90004FF47A7000F0BEFA29A01BF0E1FE214820
:104FA00000680AF09BFA204988420AD01D48006830
:104FB000406809900D990AF023F840F6B83000F0E7
:104FC000A9FA0120FFF74BBB10B500230A220121EB
:104FD00003200CF0BDFC2649086006232422022190
:104FE00003200CF0B5FC234908602348007800F04A
:104FF0000100002815D120481CF000F8002810D02E
:105000000C201BF087FE041E05D0002120460DF069
:1050100079FD044600E00020184908601648AFF307
:10502000008010BD08000020000A010353746F7057
:1050300070696E6720766964656F2E2E2E0A0000F7
:10504000436865636B20444A4920474F2041707094
:10505000206F72205344206361726420666F722057
:1050600061206E657720766964656F2E0A00000006
:10507000D0000020D40000202006002024060020BC
:1050800000B52DED040B2DED108B89B09DED1B0AA5
:1050900020EE000A10EE101A084617F0EEFC41EC64
:1050A000190B9DED1C0A20EE000A10EE101A08469E
:1050B00017F0E3FC41EC1F0B53EC192B17F0FFFA30
:1050C00041EC1E0B9FEDA10B53EC102B17F09EFB38
:1050D00041EC1D0B9FED9F0B53EC102B17F0EFFADB
:1050E00041EC1A0B9DED1A0ADDED1B0A20EE200A99
:1050F000DDED190A9DED1C1A00EE810A10EE101A62
:10510000084617F0BAFC41EC1D0B9FED940B53ECD5
:10511000102B17F07BFB41EC1B0B9DED1A0ADDED0C
:105120001C0A20EE200ADDED190A9DED1B1A00EE87
:10513000C10A10EE101A084617F09FFC41EC1D0B37
:105140009FED820B53EC102B17F060FB41EC180B1A
:105150009DED1B0ADDED1C0A20EE200ADDED190A8B
:105160009DED1A1A00EE810A10EE101A084617F08B
:1051700084FC41EC1D0B9FED790B53EC102B17F0C9
:1051800045FB41EC1C0B9DED1A0A20EE000A10EEC7
:10519000101A084617F071FC41EC1F0B53EC192B49
:1051A00017F08DFA41EC1E0B9FED680B53EC102BA2
:1051B00017F02CFB41EC1D0B9FED660B53EC102BF5
:1051C00017F07DFACDE900019FED620B53EC102B37
:1051D00051EC180B17F07CFC02D29FED5E0B03E044
:1051E000B0EE480AF0EE680AB0EE408AF0EE608A4F
:1051F0009FED5C0B53EC102B51EC180B17F050FC8F
:1052000002D29FED580B03E0B0EE480AF0EE680AB8
:10521000B0EE408AF0EE608AB0EE480AF0EE680A1E
:105220001BF096FF8DED060B9DED001BB0EE4C0ABA
:10523000F0EE6C0A1CF0A8FA8DED040BB0EE4A1AE1
:10524000F0EE6A1AB0EE4B0AF0EE6B0A1CF09CFA14
:105250008DED020B9DED020B9DED041B9DED062BCC
:1052600009B0BDEC108B0FBD00B52DED040B87B060
:10527000DDED0A1A9DED091ADDED080A9DED070A1C
:10528000FFF7FEFE8DED000B8DED021B8DED042B67
:105290009DED000B0BB000BD00B52DED040B87B0EC
:1052A000DDED0A1A9DED091ADDED080A9DED070AEC
:1052B000FFF7E6FE8DED000B8DED021B8DED042B4F
:1052C0009DED020B0BB000BD00B52DED040B87B0BA
:1052D000DDED0A1A9DED091ADDED080A9DED070ABC
:1052E000FFF7CEFE8DED000B8DED021B8DED042B37
:1052F0009DED040B0BB000BD10B52DED048BB0EE91
:10530000408AF0EE608A9FED190B53EC102B51ECA4
:10531000180B17F07BFA41EC190BB0EE490AF0EECE
:10532000690ABDEC048B10BD10B500230A220121CF
:1053300003200CF00DFB0F490860062324220221F4
:1053400003200CF005FB0C49086010BD00000000B4
:10535000000000C0000000000000F03F000000005E
:1053600000000040000000000000F0BFE8C35CB097
:10537000DDA54C40DC000020E000002010B500F06E
:105380009BF84FF4A06000F0B5F913F08CFB12F01D
:10539000BBFD11F0CCF811F02FFA11F0DEFD00F09A
:1053A00044F910F0ABFA11F047FF10BD10B500231F
:1053B0000A22012103200CF0CBFA054908600623DC
:1053C0002422022103200CF0C3FA0249086010BD18
:1053D000E8000020EC0000201FB50121084602F083
:1053E0000CF90121084602F008F90020ADF80C0084
:1053F000ADF80600C720029042F2CF00ADF80400DD
:1054000000208DF80E0001A9534802F09EFA1920E1
:105410008DF8000003208DF801008DF802000120B6
:105420008DF80300684600F06AF901214A4802F04D
:1054300041FF01221146484802F028FF002146485A
:1054400002F00CFB1FBD1FB50121084602F0C4F895
:105450000121084602F0C0F80020ADF80C00ADF8BC
:105460000600C7200290272002904AF20F40ADF8B4
:10547000040001A94FF0804002F067FA1C208DF86B
:10548000000002208DF8010003208DF802000120A9
:105490008DF80300684600F032F90121880702F018
:1054A00009FF01221146900702F0F0FE00214FF0A3
:1054B000804002F0D3FA1FBD30B5284800684FF491
:1054C0007A72B0FBF2F1B1F1807F01D301201DE0CF
:1054D00021F07F40401E4FF0E02250615017002223
:1054E000002807DA13071D0E1D4B00F00F04241FC0
:1054F0001D5503E013071C0E1A4B1C5400BF00205F
:105500004FF0E022906107201061002008B100BF39
:10551000FEE730BD002106E047F2305100BF0A1E11
:10552000A1F10101FBD1021EA0F1010398B2F3D158
:10553000704710B500230A22012103200CF008FA5D
:105540000949086006232422022103200CF000FAF6
:105550000649086010BD0000000001402401002041
:1055600018ED00E000E400E0F8000020FC0000205E
:1055700000B587B00121084601F0FBFF0121102092
:1055800002F03BF84FF4C060059002208DF818003F
:105590008DF8190000208DF81A0001208DF81B00ED
:1055A00005A94C4801F002FD07220921494801F0F4
:1055B00088FD07220A21474801F083FD4FF461303E
:1055C00001900020ADF80800ADF80A00ADF80C001D
:1055D000ADF810000C20ADF80E0001A93E4802F015
:1055E000C0FF012240F225513B4803F0F8F80121A9
:1055F000394803F03EF800BF8021374803F014F922
:105600000128F9D107B000BD08B503208DF80100CD
:1056100002208DF8020025208DF8000001208DF871
:105620000300684600F06BF808BD10B5FFF7A0FF57
:10563000FFF7EAFF10BD10B5ADF51C7D202126480F
:1056400003F0F2F801282FD10020244908702248E5
:1056500003F03EF8C4B222490968086821490A6883
:1056600021460FF0D8FD204908700846007801282F
:105670001AD14FF498721B4801680C31684618F033
:1056800057FD4FF49E72174801684DA818F050FD61
:1056900013484DA90EC900680BF035FE00201249D1
:1056A000087001200D4908700DF51C7D10BD10B566
:1056B00000230A22012103200CF04AF90B4908605B
:1056C00006232422022103200CF042F90849086035
:1056D00010BD000000000240001001400401002045
:1056E0000800002004000020010000200801002024
:1056F0000C01002032490143324A1160704770B5F5
:10570000002100230F22C4781CB32E4C246804F41B
:10571000E064C4F5E064C4F30721C1F10404E3B21A
:105720000A4144789C40E1B28478144021430C073C
:10573000210E254C05786155047804F01F050124DD
:10574000AC4005786D11AD0005F1E025C5F80041CC
:1057500009E0047804F01F050124AC401B4D0678D5
:10576000761145F8264070BD194A0A400243154B90
:105770001B1F1A60704739B1124A121D126802438A
:10578000104B1B1D1A6006E00E4A121D1268824360
:105790000C4B1B1D1A607047042808D14FF0E02104
:1057A000096941F004014FF0E022116107E04FF078
:1057B000E021096921F004014FF0E02211617047F6
:1057C0000000FA050CED00E000E400E080E100E0FC
:1057D00080FFFF1F10B50121080201F078FF0021B2
:1057E0004FF4807001F073FF10BD30B50246002009
:1057F00000235068F84C20400D790C6844EA0524D9
:10580000204350609068F54C2040D1E903542C436C
:105810008D682C434D7944EA450420439060D06A5A
:1058200020F470000C7D641EE4B2234340EA035070
:10583000D06230BD00210160017141718160C160A1
:1058400001610121017570470021E54A1168E54AAF
:105850001140D0E900231A4383681A43C3681A43EE
:105860001143E14AC2F8041370470021016041600E
:105870008160C160704721B1826842F0010282609C
:1058800003E0826822F00102826070470A4600212C
:105890004168D64B194011434160704741628262B2
:1058A00070470A460021416821F01F011143416001
:1058B000704738B1CA49096841F40001CA4AC2F8C0
:1058C000041306E0C649096821F40001C64AC2F87B
:1058D0000413704738B1C249096841F48001C24AD3
:1058E000C2F8041306E0BE49096821F48001BE4AEB
:1058F000C2F804137047F0B504460D46002000219D
:10590000092D11DDE068A5F10A0606EB460707261A
:1059100006FA07F18843A5F10A0606EB460603FAE4
:1059200006F10843E0600CE0206905EB4507072617
:1059300006FA07F1884305EB450603FA06F108432A
:105940002061072A0FDA606B561E06EB86071F26BA
:1059500006FA07F18843561E06EB860605FA06F19D
:105960000843606322E00D2A0FDA206BD61F06EB96
:1059700086071F2606FA07F18843D61F06EB860620
:1059800005FA06F10843206310E0E06AA2F10D0673
:1059900006EB86071F2606FA07F18843A2F10D06DB
:1059A00006EB860605FA06F10843E062F0BD816861
:1059B00041F0804181607047014600208A6802F40E
:1059C00080020AB1012000E00020704721B1826806
:1059D00042F48062826003E0826822F48062826026
:1059E000704721B1826842F00202826003E082685F
:1059F00022F002028260704710B50A46002100239F
:105A0000416821F46041531E41EA4331416010BDB9
:105A100021B1426842F40062426003E0426822F42D
:105A20000062426070470146C86C80B270476C48A3
:105A3000001D0068704721B1826842F48072826064
:105A400003E0826822F480728260704721B182682C
:105A500042F40072826003E0826822F40072826085
:105A6000704738B15E49096841F400515E4AC2F896
:105A7000041306E05A49096821F400515A4AC2F851
:105A800004137047F0B50446154600200022002696
:105A9000092911DDE068A1F10A0707EB470C072788
:105AA00007FA0CF29043A1F10A0707EB470703FA44
:105AB00007F21043E0600CE0206901EB410C07277E
:105AC00007FA0CF2904301EB410703FA07F2104387
:105AD0002061A06BC0F30156EF1C06F1010CA7EB8F
