:020000040800F2
:10000000D8BE00201D820008258200082782000833
:10001000298200082B8200082D82000800000000C1
:100020000000000000000000000000002F82000817
:100030003182000800000000338200087D4F010873
:1000400037820008378200083782000837820008AC
:10005000378200083782000837820008378200089C
:10006000378200083782000837820008378200088C
:1000700037820008378200087F550108E1570108E0
:10008000378200083782000837820008378200086C
:10009000156A010837820008378200083782000895
:1000A000378200083782000837820008378200084C
:1000B000378200083782000837820008378200083C
:1000C000378200083782000837820008378200082C
:1000D000378200085B4D0008378200087F0D00085A
:1000E000378200083782000837820008198B010820
:1000F00037820008B58C0108378200083782000873
:1001000037820008378200083782000837820008EB
:1001100037820008378200083782000837820008DB
:1001200037820008378200083782000837820008CB
:1001300037820008378200083782000837820008BB
:10014000D16B010837820008378200083782000827
:100150003782000895560108D353010837820008FA
:10016000378200083782000837820008378200088B
:10017000378200083782000837820008378200087B
:100180003782000837820008DFF814D01DF028F805
:100190001BF02AFD00480047870700081CF037FDC8
:1001A000D8BE0020FEB442464B4654465D463EB49F
:1001B0001BF079FA3EBC90469946A246AB46FEBC7F
:1001C00000F032F8704700BF80EC200B7047C0ECA5
:1001D000200B704790EC200B7047D0EC200B704741
:1001E00085460D98DDF838E00F9B5DF8042B20E97B
:1001F0000C009DE8FE1F854601BD4DF808ED0DF190
:10020000080E4DF804ED2DE9FF1F002102B46946E8
:1002100081B01CF038FFDDF840E012B070470000FC
:1002200078760200087D02004DF808ED0DF1080E09
:100230004DF804ED2DE9FF1F002102B4694681B09D
:100240001CF088BF10B5FD480068C0F1FF3041F2D6
:10025000883188420BD3FA480068F8490968401A87
:10026000B0F5487F03D3F5480068F5490860F548C4
:100270000068F2490968401A41F2883188420BD37C
:100280000D21F1481BF07BFBEF480A38C07D00F0E0
:10029000EF00ED490A39C875EC480068E74909687C
:1002A000401A41F28831884207D3E7480A38C07DB6
:1002B00000F0DF00E4490A39C875E5480068DF4905
:1002C0000968401A41F28831884207D3DE480A386B
:1002D000C07D00F0F700DC490A39C875DD480068C8
:1002E000D6490968401A41F28831884207D3D64876
:1002F0000A38007E00F0FE00D3490A390876D64855
:100300000068CE490968401A41F28831884207D313
:10031000CD480A38007E00F0FD00CB490A39087646
:10032000CE480068C5490968401A41F288318842C0
:1003300007D3C5480A38007E00F0F700C2490A39E1
:100340000876C7480068BD490968401A41F28831FB
:10035000884207D3BC480A38007E00F0EF00BA4953
:100360000A39087610BD30B52DED0C8B8FB0BD4825
:100370000078042803D00FB0BDEC0C8B30BDBA4818
:10038000807D00B9F7E7B848007F48B9B548007AE2
:1003900028B1B448007A20F00200B2490872EAE7B6
:1003A000B249096888680AF07EFF8DED090ACDED33
:1003B0000A0A8DED0B1ACDED0C1ADDED0C1A9DED30
:1003C0000B1ADDED0A0A9DED090A04F0DDFAB0EE24
:1003D000408AF0EE608AA649A1F1080000F0EBFE29
:1003E000B0EE480AF0EE680A20F0F2FDB0EE40CA26
:1003F000F0EE60CA9D49096888680AF09EFF8DED9D
:100400000A0ACDED0B0A8DED0C1A9DED0B0A10EECC
:10041000101A08461BF0EDFD41EC1D0B53EC1C2B94
:100420001BF0B0FC41EC1A0BB0EE480AF0EE680A83
:1004300020F05EFDB0EE40CAF0EE60CA8B4909685C
:1004400088680AF07AFF8DED070ACDED080A8DED78
:10045000091A9DED070A10EE101A08461BF0C9FD97
:1004600041EC1D0B53EC1C2B1BF08CFC41EC1B0BCB
:1004700053EC1A2B1BF0DFFB41EC190B1BF0FCFDBE
:100480007B4908390861B0EE480AF0EE680A20F0AE
:100490002FFDB0EE40CAF0EE60CA74490968886862
:1004A0000AF04BFF8DED0A0ACDED0B0A8DED0C1A0B
:1004B0009DED0B0A10EE101A08461BF09AFD41EC58
:1004C0001D0B53EC1C2B1BF05DFC41EC1B0BB0EE29
:1004D000480AF0EE680A20F07BFDB0EE40CAF0EE6C
:1004E00060CA6249096888680AF027FF8DED070A2B
:1004F000CDED080A8DED091A9DED070AB1EE400A0F
:1005000010EE105A28461BF074FD41EC1D0B53EC05
:100510001C2B1BF037FC41EC190B53EC1B2B1BF075
:100520008AFB41EC1A0B1BF0A7FD514908394861C1
:100530004E480068816804A80BF04DF804A807C86D
:100540000AAB07C349480068816801A80BF043F86B
:1005500001A807C807AB07C3BDF92830BDF91E20A5
:100560000DA90EA81AF0F2FA04466CB141490E9892
:10057000C1F801000D98C1F805003A48007A40F032
:100580000200384908722AE03648007A28B1354816
:10059000007A20F00200334908723648D0F8010092
:1005A00000EE100AB5EEC00AF1EE10FA06D09FED8B
:1005B000320A10EE100A2F49C1F801002D48D0F878
:1005C000050000EE100AB5EEC00AF1EE10FA06D0F2
:1005D0009FED290A10EE100A2649C1F8050000BF58
:1005E000C9E6194A0A3A1078D1781E4A1278042AC4
:1005F00000D07047FC2801D0FC2910D10122194BF2
:100600005A70B7EE000A10EE102A1A4BC3F80920F0
:10061000144A127A42F00102124B1A723EE0002292
:10062000104B5A70134AD2F8092000EE102AB5EE8A
:10063000C00AF1EE10FA28D020E000006804002083
:10064000840400208C040020F53800209004002051
:1006500094040020980400209C040020A0040020A2
:10066000A404002084000020D039002008000020CD
:10067000103A00202C120020000000001FED020A9A
:1006800010EE102AEB4BC3F80920EB4A127A2AB17C
:10069000E94A127A22F00102E74B1A7200BFA8E77A
:1006A00010B5E6480068E6490968401AA0282DD32D
:1006B000E3480068E1490860E248006800F0010092
:1006C00050B9FFF78EFFDE480068C0F1FF30B0F58B
:1006D0007A6F01D319F00EFCDA4800680A21B0FBEA
:1006E000F1F201FB120060B916F0A7FD19F080FBD2
:1006F000D3480068C0F1FF30B0F57A6F01D319F02C
:1007000088FBD0480068401CCE49086010BD01201D
:10071000CD49086032E0CD49CB4A1268885C411E61
:10072000CAB2CA49C84B1B68CA5450B10846C64928
:100730000968405C28B90021C448001DC24A1268FB
:100740008154C2490839C04A1268885C411ECAB245
:10075000BE490839BC4B1B68CA5450B10846BA4957
:100760000968405C28B90021B848001FB64A1268E1
:100770008154B5480068401CB3490860B24800681D
:100780000528C8DB70471CB504F088F94FF47A706F
:1007900004F052FA5920AE4BAEA2B2490090B248D2
:1007A0001FF0AAFD0446601C38B1B4F5967F04D250
:1007B000AD49AEA01FF090FD02E0ADA01FF08CFD92
:1007C000B3A0B6A1B8A3BAA2CDE90010BBA1BE48A0
:1007D0001FF082FD5B209E4B9EA2A2490090A24882
:1007E0001FF08AFD0446601C38B1B4F5967F04D230
:1007F0009D499EA01FF070FD02E09DA01FF06CFDC2
:1008000000F049FB002802DA4FF0FF301CBD19F060
:10081000FAFE1AF0C7FA1AF048FC02224FF47A7175
:10082000AFF2151017F05DFB019015E000F074FCBD
:1008300019F0C2FE19F01DFAFFF732FF1AF052FE4E
:10084000FFF791FDFFF7FEFC15F032FB15F0BCFF42
:100850001AF0EAFA16F0D6FAE8E710B52DED048B97
:1008600075480078042802D0BDEC048B10BD774891
:100870002A38807D00B9F7E774482A38007F48B9E4
:100880006D48007A28B16C48007A20F002006A496D
:100890000872E9E719F0BBFE0446002C75D06648E3
:1008A000007A40F002006449087204F00100A0B12F
:1008B00066492A39088C1BF057FB41EC190B9FED58
:1008C000830B53EC102B1BF05DFA41EC180B1BF063
:1008D000D3FB5849C1F801001EE004F00400A0B1A8
:1008E0005A492A39088C1BF03FFB41EC190B9FED4C
:1008F000790B53EC102B1BF045FA41EC180B1BF055
:10090000BBFB4C49C1F8010006E01FEDA50A10EE43
:10091000100A4849C1F8010004F00200A0B14B4997
:100920002A39088C1BF020FB41EC190B9FED670B5B
:1009300053EC102B1BF026FA41EC180B1BF09CFB20
:100940003C49C1F805004BE004F00800A0B13F4964
:100950002A39088C1BF008FB41EC190B9FED5D0B4D
:1009600053EC102B1BF00EFA41EC180B1BF084FB20
:100970003049C1F8050033E01FEDC10A10EE100A3E
:100980002C49C1F805002BE0FFE72B48007A28B17D
:100990002948007A20F00200274908722548D0F83B
:1009A000010000EE100AB5EEC00AF1EE10FA06D012
:1009B0001FEDCF0A10EE100A1E49C1F801001D48B4
:1009C000D0F8050000EE100AB5EEC00AF1EE10FAFC
:1009D00006D01FEDD70A10EE100A1649C1F805001F
:1009E00000BF41E710B500230A220121032010F0C7
:1009F00041FB3A490860062324220221032010F01B
:100A000039FB374908603748017837480EF0D6FF80
:100A10000446364A36491BF0F7F85FEDE91A1FED38
:100A2000EA1A5FEDEB0A1FEDEC0A4A2101480BF0D0
:100A300013FB10BD2C12002084000020880400202D
:100A400068040020A80400200C000020FA390020CF
:100A5000704D0208494D504F52545F4E4F54494318
:100A600045000000B06E0208021B00202573000044
:100A70004552524F523A206C6F67207072696E7403
:100A8000657220696E6E6572206661756C740A000D
:100A900031363A35333A3033000000004175672073
:100AA00032342032303137005630332D30300000B0
:100AB0003130303030303030000000004D61696E30
:100AC000426F617264000000F46E02089A9999996D
:100AD0009999B93F9A9999999999B9BF10000020AD
:100AE000140000200000002074070020000000080F
:100AF000F1F9000870B504460D4600BF40210E48CC
:100B000007F024FA0028F9D0E1B20B4807F06EF99B
:100B1000204670BD10B500230A220121032010F0E9
:100B2000A9FA06490860062324220221032010F0B6
:100B3000A1FA0349086010BD004800401C000020D5
:100B40002000002000B58DB05B4801905B480C9000
:100B500000231A4601A95A4800680FF06BFB0DB03C
:100B600000BD0FB42DE9F04188B004465E9FBDF88A
:100B70003E001038022846DCBDF84950C4F87457CE
:100B80000D220FA904F267701CF08EFD40F2777001
:100B9000005D8DF80000112204F2677103A81CF0BB
:100BA00083FD03A80FC807F04BFBD0B14548008870
:100BB000854216D121F07EFE80463320424B43A26F
:100BC00001210090404611F053FB0646006841A108
:100BD0008268304690470022114620460EF0FBFB0B
:100BE00000BF3948019040F27770005D8DF8000039
:100BF000112204F2677103A81CF056FD03A80FC868
:100C000007F0FCFF13E021F055FE80463C202E4B00
:100C10002EA201210090404611F02AFB06469DF8C5
:100C20004420006832A183683046984700BF3848A6
:100C3000008885420CD140F2E460005940B140F296
:100C4000E4621159206813F023FF04203149087031
:100C500008B0BDE8F0015DF814FB10B500230A22CE
:100C60000121032010F006FA2B49086006232422F4
:100C70000221032010F0FEF9284908602848007876
:100C800000F00100002815D125481FF073FC002852
:100C900010D00C201FF0FAFA041E05D000212046C7
:100CA00011F0C2FA044600E000201E4908601C480A
:100CB000AFF3008010BD00001FBF0F003400002004
:100CC00008000020CC500208B34D02084552524F94
:100CD0005200000053444B2076657273696F6E209A
:100CE000646964206E6F74206D617463680A00002B
:100CF00041434B20697320657863657074696F6E3A
:100D00002C2073657175656E63652025640A00008B
:100D1000BC50020884000020280000202C00002085
:100D2000200600202406002000F07F0200EE102A9A
:100D3000B8EEC00AF0EE400A00EE101AB8EE400A13
:100D4000B0EE401A00F0800262B1DFED441AB0EE5E
:100D5000410A00EEA10AF1EE401A9FED412A81EE10
:100D6000820A7047DFED3D1AB0EE410A00EEA10A9B
:100D70009FED3B2AC0EE021AB0EE610AF1E710B512
:100D80002021384807F0E2F801282AD1354807F039
:100D900031F8C4B23448406A48B9FA2C20D13248FC
:100DA000416A001D445401202F49486218E0FE2C7E
:100DB0000DD12D48416A001D4454001F406A401C5B
:100DC00029498862002048620120086008E026481E
:100DD000416A001D4454001F406A401C2249486279
:100DE00000BF10BD70B504460D462068012802D131
:100DF0000020206000E070BD2079FA2802D16079DF
:100E0000FB2800D0F7E7A07910B1012809D105E04F
:100E10000022114628460EF0DEFA03E0FFF792FEAC
:100E200000E000BF00BF00BFE5E710B500230A22C5
:100E30000121032010F01EF90C490860062324222A
:100E40000221032010F016F9094908600648002124
:100E500001604162816200BF10BD0000000080435C
:100E60000000C842004800404012002078000020E6
:100E70007C000020E648008820B1E5480088401E3C
:100E8000E3490880E348008820B1E2480088401E1A
:100E9000E0490880704738B541F2883003F0CCFE55
:100EA000DD490968086813F0C9FD044600688169D6
:100EB0002046884778B9D9A01FF00EFAD6480068B6
:100EC00030B1D54800680EF093FD05461FF0D6F905
:100ED0004FF0FF3038BDDBA01FF0FEF9DEA01FF0A1
:100EE000FBF9EDA01FF0F8F9F2A01FF0F5F9FEA054
:100EF0001FF0F2F91E2003F09FFEC74800680EF0B5
:100F0000C0FA4FF4FA7003F097FEC34800680DF082
:100F100077FEFD490968884216D2BF4800680DF087
:100F20006FFEFA4988420FD0F9A01FF0D5F9BA48F0
:100F3000006830B1B84800680EF05AFD05461FF051
:100F40009DF94FF0FF30C5E74FF47A7003F074FE5F
:100F500002221421AFF2E30016F0C3FF009001203B
:100F6000B8E710B51AF06AF918B13221F34800F069
:100F7000E2FD10BD00B52DED028B8FB0A5480088B5
:100F800018B90A20A349088003E00FB0BDEC028B1A
:100F900000BDA1480068816801A80AF05FFA1C2220
:100FA00001A908A81CF080FB9DED0D8AE448007B98
:100FB00000B9EAE7B1EE000AB4EEC08AF1EE10FA29
:100FC00003DD0220DE4988600AE0B0EE080AB4EED4
:100FD000C08AF1EE10FA03D24FF0FF30D849886092
:100FE00000BFD2E710B58CB08B49096888680AF059
:100FF0003FFB0B9088480068816804A80AF0EBFA70
:1010000004A807C808AB07C38349096888680AF0C1
:1010100086FB0790BDF92800002801DC0CB010BD4C
:10102000C848007A10B9C748407A30B1784800887B
:1010300018B901207649088000E0EFE7C148007A3E
:1010400000283AD09DF82C00022859D19DF81D00A7
:1010500000F0070002281CD0002211466E480068EC
:101060000EF0E9FDD020B84BB8A2BCA10090C34857
:101070001FF042F90446601C38B1B4F5967F04D2E3
:10108000BE49BFA01FF028F902E0BEA01FF024F95E
:1010900000BFC448C1680091007C8DF804005E4820
:1010A00000681122BF49C46802A81CF0FDFA20465E
:1010B00002A90EC90AF063FF22E09DF81D0000F0AE
:1010C000070002281CD100221146534800680EF088
:1010D0000EFDDC209C4B9DA2B3A10090A7481FF001
:1010E0000BF90446601C38B1B4F5967F04D2A349CD
:1010F000A3A01FF0F1F802E0A2A01FF0EDF800BFDE
:101100009048407A8F49097A884203D08D48007A06
:101110008C49487200BF81E700B585B089480078E6
:1011200020B103282FD0042841D139E0032085497C
:101130000870A64800684860FFF704FD364800685C
:101140000DF05EFD7149884208D03349096848684E
:101150000DF00CF84FF4FA7003F06EFD2E480068A5
:101160001422816868460AF0FFFB322003F064FD18
:1011700029490968964AC86996490CF076FC3220DC
:1011800003F05AFD14E06F48406890490968401A1E
:1011900041F28831884202D300206A49087007E092
:1011A000FFF720FFFFF7E6FEFFF7DBFE00E000BFE2
:1011B00000BF05B000BD7FB504460D46164909685D
:1011C00088680AF070F88DED000ACDED010A8DED0A
:1011D000021ACDED031ADDED031A9DED021ADDEDC5
:1011E000010A9DED000A03F0E7FB84ED000B0A49BC
:1011F000096888680AF057F88DED000ACDED010AFC
:101200008DED021ACDED031ADDED031AE4E00000C6
:101210009000002092000020080000205553415209
:101220005420636F6D6D756E69636174696F6E20B4
:101230006973206E6F7420776F726B696E672E0D05
:101240000A0000000A5072657265717569736974ED
:1012500065733A0D0A000000312E205665686963F7
:101260006C6520636F6E6E656374656420746F20B7
:1012700074686520417373697374616E7420616E64
:10128000642073696D756C6174696F6E2069732079
:101290004F4E0D0A00000000322E2042617474652A
:1012A00072792066756C6C79206368616E7267650F
:1012B000640D0A00332E20444A49474F2041707084
:1012C00020636F6E6E65637465642028666F72209C
:1012D0007468652066697273742074696D65207224
:1012E000756E290D0A000000342E2047696D626179
:1012F0006C206D6F756E746564206966206E65651F
:101300006465640D0A00000098000020000A0103D3
:1013100055706772616465206669726D7761726588
:10132000207573696E6720417373697374616E749D
:1013300020736F667477617265210A00523A00204B
:10134000203A002084000020C44D0208494D504F2F
:1013500052545F4E4F5449434500000025732025E9
:10136000732C6C696E652025643A206F6573207359
:101370006574436F6E74726F6C0A0000021B00206C
:10138000257300004552524F523A206C6F6720700F
:1013900072696E74657220696E6E65722066617521
:1013A0006C740A002C12002025732025732C6C69A4
:1013B0006E652025643A206F657320636F6E7472CA
:1013C0006F6C20636C6F7365640A00006804002012
:1013D00065390020151B00089DED021ADDED010A9C
:1013E0009DED000A03F000FB85ED000B7FBD10B5FD
:1013F00000230A22012103200FF03CFE054908606A
:1014000006232422022103200FF034FE0249086043
:1014100010BD00009400002098000020F0B52DEDD4
:10142000088BA5B000244FF4FA651427FE48006825
:10143000142281680EA80AF097FAE6E0FA490968D2
:1014400088680AF015F92490F7480068816807A8B1
:101450000AF004F81C2207A91DA81CF025F9F2487F
:10146000006881680BA80AF0B6F80BA807C81AAB89
:1014700007C3ED490968886809F05FFF8DED170A19
:10148000CDED180A8DED191AE7490968886809F049
:101490000AFF8DED130ACDED140A8DED151ACDED71
:1014A000161A2146E1A01EF017FFE4A01EF014FF5B
:1014B0009DF89010E4A01EF00FFF9DED210A10EEA4
:1014C000101A08461AF095FD41EC180B8DED028BB1
:1014D0009DED1F0B8DED000B9DED1D1BB0EE410A28
:1014E000F0EE610A53EC102BDCA01EF0F5FEBDF906
:1014F0006E000090BDF96C30BDF96A20BDF968102E
:10150000DFA01EF0E9FE9DED190A10EE101A084644
:101510001AF06FFD41EC180B9DED180A10EE101A31
:1015200008461AF066FD41EC190B9DED170A10EE06
:10153000101A08461AF05DFD41EC1A0B8DED028B76
:101540008DED009B53EC1A2BD8A01EF0C5FE9DED2F
:10155000160A10EE101A08461AF04BFD41EC180B53
:101560009DED150A10EE101A08461AF042FD41ECE6
:10157000190B9DED140A10EE101A08461AF039FDE9
:1015800041EC1A0B9DED130A10EE101A08461AF0E2
:1015900030FD41EC1B0B8DED048B8DED029B8DED31
:1015A00000AB53EC1B2BCBA01EF096FE9E480068B0
:1015B0008168684609F052FF1C22694607A81CF0A2
:1015C00073F89DED0C0A10EE101A08461AF011FD82
:1015D00041EC180B53EC182BCCA01EF07DFE924969
:1015E000096888680AF09BF80D909DF8350000F0B6
:1015F00007063146C9A01EF06FFECEA01EF06CFE9D
:1016000032344FF4FA7003F017FBAC42FFF616AF1A
:10161000CBA01EF061FE012025B0BDEC088BF0BD13
:101620002DE9F04F2DED088BA1B0002020904FF454
:101630007A601F9000201E900124C54800681D900C
:1016400001201C9000267849CDE9006409681DAB93
:1016500048681C9A1E990CF00FFD05462DB92846C6
:1016600021B0BDEC088BBDE8F08F6F490968486870
:101670001E990CF053FE4FF4FA7003F0DDFA0120CE
:101680001E900A24B248001D00681B9001201C9087
:1016900000266549CDE9006409681BAB48681C9ABF
:1016A0001E990CF0E9FC05460DB92846D8E75E49BD
:1016B000096848681E990CF031FE4FF4FA7003F087
:1016C000BBFA02201E903224A148083000681A900C
:1016D00002201C9000265449CDE9006409681AAB29
:1016E00048681C9A1E990CF0C7FC05460DB928469F
:1016F000B6E74D49096848681E990CF00FFE4FF493
:10170000FA7003F099FA03201E90C8240020199063
:1017100001201C9000264449CDE90064096819ABFA
:1017200048681C9A1E990CF0A7FC05460DB928467E
:1017300096E73D49096848681E990CF0EFFD4FF4A3
:10174000FA7003F079FA4FF4FA5003F075FA4FF497
:101750007A674FF4FA7800BF33490968086813F0D4
:101760006DF983460068C1685846884710EB070A40
:1017700000BF2D490968486820F0B2FF18902A4838
:1017800000684168684620F05BFE1822694612A88E
:101790001BF08AFF24480068416803A820F0A6FED9
:1017A00003A807C80FAB07C31F480068416802A819
:1017B00021F02AF802A80FC8CDE90D23CDE90B01CD
:1017C00019490968486820F0E1FD8DED070ACDED63
:1017D000080A8DED091ACDED0A1A14A020991EF001
:1017E0007BFD16A01EF078FD17A018991EF074FD61
:1017F0009DED160A10EE101A08461AF0FAFB41EC9D
:10180000180B8DED028B9DED120B8DED000B9DEDF8
:10181000141BB0EE410AF0EE610A53EC102B0FA03E
:101820001EF05AFD96E0000008000020436F756E20
:10183000746572203D2025643A0A00002D2D2D2D5F
:101840002D2D2D0A00000000466C69676874205336
:101850007461747573203D2025640A00506F7369AC
:1018600074696F6E20284C4C4129203D20252E3371
:10187000662C20252E33662C20252E33660A000088
:10188000524320436F6D6D616E64732028722F7018
:101890002F792F74687229203D2025642C2025641F
:1018A0002C2025642C2025640A00000056656C6FEE
:1018B00063697479202876782C76792C767A2920B9
:1018C0003D20252E33662C20252E33662C20252EF8
:1018D00033660A00417474697475646520517561DA
:1018E0007465726E696F6E2028772C782C792C7A4B
:1018F00029203D20252E33662C20252E33662C20D2
:10190000252E33662C20252E33660A00686569670C
:101910006874203D2025660A00000000636F6E7425
:10192000726F6C44657669636528645329203D2095
:1019300025640A002D2D2D2D2D2D2D0A0A000000C5
:10194000446F6E65207072696E74696E67210A005B
:10195000D44D0208BDF942000090BDF94030BDF9F8
:101960003E20BDF93C10AFF2E8001EF0B5FC9DED45
:101970000D0A10EE101A08461AF03BFB41EC180B4A
:101980009DED0C0A10EE101A08461AF032FB41ECDD
:10199000190B9DED0B0A10EE101A08461AF029FBE0
:1019A00041EC1A0B8DED028B8DED009B53EC1A2B45
:1019B000AFF208101EF090FC9DED0A0A10EE101A0E
:1019C00008461AF016FB41EC180B9DED090A10EEC3
:1019D000101A08461AF00DFB41EC190B9DED080A90
:1019E00010EE101A08461AF004FB41EC1A0B9DED9C
:1019F000070A10EE101A08461AF0FBFA41EC1B0B0E
:101A00008DED048B8DED029B8DED00AB53EC1B2B0C
:101A1000AFF240101EF060FCAFF2E8001EF05CFC7C
:101A20004FF4FA7003F008F935490968086813F0B3
:101A300005F806900068C1680698884710EB080909
:101A4000D145FFF496AEAFF208101EF045FC2C49CC
:101A50000968486800210CF065FE40F6B83003F0D4
:101A6000EBF827490968486801210CF05BFE40F655
:101A7000B83003F0E1F822490968486802210CF007
:101A800051FE40F6B83003F0D7F81D4909684868A0
:101A900003210CF047FE40F6B83003F0CDF80120EA
:101AA000DEE510B500230A22012103200FF0E2FA3F
:101AB0001449086006232422022103200FF0DAFAD9
:101AC000114908601148007800F00100002815D184
:101AD0000E481EF04FFD002810D00C201EF0D6FB43
:101AE000041E05D00021204610F09EFB044600E0B5
:101AF0000020074908600548AFF3008010BD0000D2
:101B000008000020A0000020A400002020060020E3
:101B1000240600200FB42DE9F0410746569C2546C7
:101B20000DF129063222314628461BF0BDFDBDE8E5
:101B3000F0015DF814FB70B504460D46C349096811
:101B40002A46C86921460BF061FF0020C0490860A1
:101B5000C0480068C049086070BD0FB4F0B589B0D6
:101B600004465E9EBDF83E001038022865D80D225E
:101B70000FA904A81BF098FD20460DF041F8B749C5
:101B8000884204D09DF84900CDF81D0003E0BDF85F
:101B90004900CDF81D009DF820008DF8000004A834
:101BA0000FC806F04DFB48B1AD4801909DF82000EC
:101BB0008DF8000004A80FC807F020F89DF83C003D
:101BC0008DF808009DF83D008DF809001098807888
:101BD000072809D00222A34902A819F0FCFE88B107
:101BE0001098807801280DD10520ADF80C00BDF8C3
:101BF0001D0080B2ADF80E00042203A9E0690BF0CD
:101C000005FF19E010988078082808D0022295492D
:101C100002A819F0E0FE78B11098807860B906202B
:101C2000ADF80C00BDF81D0080B2ADF80E00042226
:101C300003A9E0690BF0EAFE13E020F03BFE074643
:101C4000AF20874B88A201210090384610F010FB8E
:101C500005469DF84420006885A18368284698477A
:101C600000BF09B0F0BC5DF814FB0FB42DE9F043E0
:101C700087B004465E9E86480088CDF8150001278F
:101C800020460DF097FB8046BDF83E001038022834
:101C900009D8BDF84900CDF815000D220FA902A8FA
:101CA0001BF002FD13E020F005FE81466020794B19
:101CB0006DA201210090484610F0DAFA05469DF821
:101CC000442000686AA183682846984700BFDDF871
:101CD000150071490988884206D10022AFF27501CA
:101CE00020460DF0A8FF25E0DDF815006B490988B6
:101CF000884206D10022AFF28D0120460DF0F7FE9A
:101D000018E010988078012803D10220ADF8040073
:101D100005E01098807810B90320ADF80400BDF8F4
:101D2000150080B2ADF80600042201A9E0690BF0AD
:101D30006DFE00BF07B0BDE8F0035DF814FB0FB403
:101D400070B50646549DBDF82140022C06D0032CE8
:101D50000CD0052C12D0062C44D129E00022AFF281
:101D6000F5013A4800680DF066FF3CE00022AFF252
:101D70000511364800680DF0BAFE34E033480068BB
:101D80000CF03EFF3549884209D0304909680023EC
:101D9000AFF23922C868072109F0D8FE07E02B49C5
:101DA00009680022C868AFF24D2109F0F0FF1AE07F
:101DB000264800680CF024FF2849884209D02349AE
:101DC00009680023AFF26D22C868082109F0BEFE41
:101DD00007E01E4909680022C868AFF281210AF0B5
:101DE00007F800E000BF00BF70BC5DF814FB10B541
:101DF00000230A22012103200FF03CF92849086042
:101E000006232422022103200FF034F9254908601B
:101E10002548007800F00100002815D122481EF066
:101E2000A9FB002810D00C201EF030FA041E05D0AB
:101E30000021204610F0F8F9044600E000201B497C
:101E400008601948AFF3008010BD000008000020B2
:101E5000A0024342680400206C040020000A010331
:101E6000FD4D0208A34F02084552524F5200000098
:101E700041434B20697320657863657074696F6EA8
:101E80002C2073657175656E63652025640A0000FA
:101E90003A500208DE4D0208D4500208D65002081B
:101EA000AC000020B0000020200600202406002006
:101EB0002DE9FE43814601260A24FA480068029073
:101EC00002274FF00008F849CDE90084096802AB09
:101ED0003A46486831460CF0CFF8054615B9284611
:101EE000BDE8FE83F0490968486831460CF016FAEF
:101EF0004FF4FA5002F0A0FE0120F1E730B52DEDCD
:101F0000028B85B00546284622F09CFB044620E063
:101F1000641C216908461AF06CF841EC180B8DED31
:101F2000028BA068E168CDE9000120686168641E49
:101F300041EC100B53EC102BDCA01EF0CDF9DA496C
:101F40000968096A00231A46486821460FF0BDFE59
:101F50005A34284622F072FBA042D9D105B0BDEC1C
:101F6000028B30BD9FEDDB0A10EE101A40F8151FF2
:101F700000218180C1800172417464214182017D10
:101F800021F00F010175017D21F0F0010175153877
:101F9000002108E0002300F12A025354103202EB22
:101FA00041021380491C1029F4DB70472DE9F043EE
:101FB0002DED0C8B99B004468846B0EE408AF0EEC9
:101FC000608A164618A800BF00BF00BF00BF00BF50
:101FD000002121606160A16000BF00BF304619F0A0
:101FE000B2FF41EC1A0B53EC1A2B9FEDBB0B51ECDB
:101FF000100B19F039FF41EC190B002088F8000094
:102000004146204622F022FB012574E0A5F101099A
:10201000204622F017FBC9EB091101EB410100EB4F
:102020004100074601A8FFF79DFFE8B28DF80400C4
:10203000284619F088FF53EC192B19F0A3FE41EC48
:102040001C0BB0EE4C0AF0EE6C0A1EF051FFB0EE25
:1020500040BAF0EE60BA53EC182B51EC1B0B19F0A0
:1020600091FE41EC1A0B57F8010F796841EC100B07
:1020700053EC102B51EC1A0B19F0DDFDCDF80500D7
:10208000CDF80910284619F05EFF53EC192B19F012
:1020900079FE41EC1C0BB0EE4C0AF0EE6C0A1EF01F
:1020A00097FFB0EE40BAF0EE60BA53EC182B51EC4B
:1020B0001B0B19F067FE41EC1A0BB868F96841EC8C
:1020C000100B53EC102B51EC1A0B19F0B4FDCDF89A
:1020D0000D00CDF81110386900EE100AF7EE000A75
:1020E00030EE200A10EE100ACDF8150001A92046A6
:1020F00022F0ACFA6D1CB54288DB88F800604146DE
:10210000204622F0A3FA19B0BDEC0C8BBDE8F08399
:1021100030B52DED068BABB005460C46B0EE409ABF
:10212000F0EE609AB0EE418A4FF4FA5002F084FD6E
:1021300014A8FFF717FF5C4800680CF061FD6849C0
:10214000884232D058480068416801A820F078F9E8
:10215000182201A90EA81BF0A7FADDE91001CDF89D
:102160005100CDF85510DDE90E01CDF85900CDF83C
:102170005D1018EE100ACDF8610018EE100A19F083
:1021800038FF41EC1A0B8DED02AB9DED0E0B8DED82
:10219000000B9DED101BB0EE410AF0EE610A53EC0E
:1021A000102B50A01EF098F831E03F48006881687D
:1021B000684609F053F91C22694607A81BF074FA17
:1021C000DDE90701CDF85100CDF85510DDE9090131
:1021D000CDF85900CDF85D1018EE100ACDF8610069
:1021E00018EE100A19F005FF41EC1A0B8DED02AB49
:1021F0009DED090B8DED000B9DED071BB0EE410A27
:10220000F0EE610A53EC102B36A01EF065F8224662
:10221000B0EE490AF0EE690A14A92846FFF7C6FE97
:102220002BB0BDEC068B30BDB2EE040A10EE101AD6
:10223000C01C40F8021CB1EE040A10EE101AC0F8DF
:102240000210002181710121C171002101724172CE
:10225000012181720021C1729FED2C0B52EC101BE9
:10226000C16002619FED290B52EC101B416182613C
:102270009FED180A10EE101AC161C01E7047F0B52C
:102280002DED048B97B00546074800680CF0B8FCAC
:102290001349884246D004480068FFF709FE00B998
:1022A00038E03FE0144E02080800002057617970C2
:1022B0006F696E7420637265617465642061742057
:1022C000284C4C41293A20256620092566200925FD
:1022D000660A200000000000182D4454FB2119401C
:1022E000000A0103576179706F696E74206372652B
:1022F0006174656420617420284C4C41293A202582
:102300006620092566200925660A000000000000F5
:1023100000000000EDA01DF0DFFF002017B0BDECB5
:10232000048BF0BD0AA8FFF77FFF681CC0B28DF8D0
:1023300028009FEDEE9BB2EE048A0AA80090ED48BB
:10234000006801230022016A02A80BF032F94FF461
:10235000FA7002F071FCE7490968086A0BF02EFA7E
:10236000E5A01DF0B9FFB0EE481AB0EE490AF0EE54
:10237000690A294607A8FFF7CBFEE8A01DF0ACFFCD
:1023800007A8FFF7BBFDEBA01DF0A6FFD949096820
:10239000096A4868D7490968096A496809680022D2
:1023A0008B68114698474FF4FA7002F045FCE7A09D
:1023B0001DF092FFCF490968486801210CF0B2F97D
:1023C00040F6B83002F038FC07AC204622F036F96F
:1023D0000646204622F036F9074632463946204660
:1023E00022F070F82168A068401A5A2190FBF1F69B
:1023F00032462046216821F0E4FD00BF01208DE730
:1024000010B52DED068B96B00446BA4800680CF066
:10241000F7FBD54988420CD0B6480068FFF748FD65
:1024200038B9AAA01DF058FF002016B0BDEC068BED
:1024300010BD00200090AF48006801231A46016AD1
:1024400002A80BF0B6F8AB490968086A0BF0B6F9B8
:10245000A84800680CF0D4FBC349884226D0A548A0
:102460000068416801A81FF0EBFF182201A910A81D
:102470001BF01AF9204619F066FD41EC180B9DED92
:10248000122BB0EE421AF0EE621A9DED102BB0EE58
:10249000420AF0EE620A97490968096AB0EE482AD2
:1024A000F0EE682A88680AF0E9FC25E091480068A7
:1024B0008168684608F0D2FF1C22694609A81BF013
:1024C000F3F8204619F03FFD41EC180B9DED092B68
:1024D000B0EE421AF0EE621A9DED0B2BB0EE420AFE
:1024E000F0EE620A83490968096AB0EE482AF0EE04
:1024F000682A88680AF0C2FC00F09EF99BA01DF0D3
:10250000EBFE7C490968096A88687A490968096AA2
:102510008968096800228B68114698474FF4FA7061
:1025200002F08AFB4FF47A6002F086FB9AA01DF05D
:10253000D3FE70490968096A88686E490968096AA2
:102540008968096800228B691146984741F28830F2
:1025500002F072FB94A01DF0BFFE66490968096A8B
:10256000886864490968096A8968096800220B6AF1
:10257000114698474FF47A6002F05EFB204619F04E
:10258000E2FC41EC190B9FED8A0B53EC102B19F078
:10259000F9FB41EC180B53EC182B87A01DF09CFEA7
:1025A000204619F0D0FC41EC1A0B9FED810B53EC47
:1025B000102B19F0E7FB41EC190B19F05DFD08EE4B
:1025C000100A4C490968096A002288681146B0EE71
:1025D000480A0AF02CFA42F2107002F02DFB81A09A
:1025E0001DF07AFE01208DF81C00B1EE040A10EEF9
:1025F000100ACDF81D003F490968096A00231A46F0
:10260000886807A90AF06EF942F2107002F014FB14
:1026100044F6206002F010FB7FA01DF05DFE3549FE
:102620000968096A886833490968096A8968096814
:1026300000220B69114698474FF47A7002F0FCFAB9
:1026400077A01DF049FE2B4800680CF0D9FA4649E6
:10265000884209D027490968486801210CF062F8CE
:1026600040F6B83002F0E8FA00F0ACFADDE610B55A
:1026700000230A22012103200EF0FCFC6A490860B5
:1026800006232422022103200EF0F4FC674908608F
:102690006748007800F00100002815D164481DF05B
:1026A00069FF002810D00C201DF0F0FD041E05D09D
:1026B000002120460FF0B8FD044600E000205D49EF
:1026C00008605B48AFF3008010BD00004661696C94
:1026D000656420746F207365742075702053756273
:1026E000736372697074696F6E210A008DEDB5A015
:1026F000F7C6B03E08000020496E697469616C69D4
:102700007A696E6720576179706F696E74204D69C0
:102710007373696F6E2E2E0A0000000043726561AC
:1027200074696E6720576179706F696E74732E2EAD
:102730000A00000055706C6F6164696E6720576114
:1027400079706F696E74732E2E0A00005374617273
:1027500074696E6720576179706F696E74204D6976
:102760007373696F6E2E0A00000A0103537461725D
:102770007420776974682064656661756C74207272
:102780006F746174696F6E20726174653A203135BF
:10279000206465672F730000506175736520666F54
:1027A000722035730A000000526573756D650A006A
:1027B000000000000000F83F5570646174652072ED
:1027C000616469757320746F20312E35783A206EFC
:1027D000657720726164697573203D2025302E3342
:1027E000660A000055706461746520686F74706FCC
:1027F000696E7420726F746174696F6E2072617497
:10280000653A206E65772072617465203D20352021
:102810006465672F730A000053746F700A0000002C
:102820004C616E640A000000B8000020BC0000206B
:1028300020060020240600202DE9F04F2DED048B0A
:1028400099B0FA4800680CF0DBF9F949884229D0C0
:10285000002018904FF00A0BF648006814900220F0
:102860001390002012901298F049CDE9000B0968EE
:1028700014AB4868139A18990BF0FEFB119011984D
:1028800028B9119819B0BDEC048BBDE8F08FE74969
:102890000968486818990BF041FD4FF4FA7002F08E
:1028A000CBF900BFE14909680022C868114609F068
:1028B000D0FA4FF4FA7002F0BFF943F698244FF4BF
:1028C000FA7500270020179016901590D7490968CF
:1028D000086812F0B3F880460068C168404688472F
:1028E000061900BF4FF4FA6002F0A6F9CF4800685D
:1028F0000CF086F9CE49884210D0CC490968486866
:102900001FF0EEFE012820D1C849096848681FF071
:1029100031FF292819D10120179023E0C349096804
:10292000886808F0A5FE13909DF84C00022809D095
:10293000BE490968886808F09BFE14909DF8500015
:10294000032802D1012017900CE0B84909680868F3
:1029500012F074F883460068C168584688474719E2
:10296000B742BFD300BF1798A0B9B3A01DF0B4FC05
:10297000AE4800680CF044F9AD49884208D0AB4934
:102980000968486818990BF0CDFE322002F054F91E
:10299000002077E7B3A01DF09FFCA44909680868F0
:1029A00012F04CF881460068C1684846884706190D
:1029B00000BF4FF4FA6002F03FF99C4800680CF049
:1029C0001FF99B49884217D09849096848681FF049
:1029D00087FE02281DD19549096848681FF0CAFE84
:1029E0000A2806D09149096848681FF0C3FE0B28E1
:1029F0000FD10120169019E08C490968886808F009
:102A000037FE14909DF85000032802D10120169043
:102A10000CE086490968086812F010F883460068DF
:102A2000C168584688474719B742C2D300BF1698B5
:102A3000A8B992481DF050FC7C4800680CF0E0F802
:102A40007B49884209D079490968486818990BF090
:102A500069FE4FF4FA7002F0EFF8002012E788A048
:102A60001DF03AFC71490968086811F0E7FF8246D9
:102A70000068C1685046884706196C4800680CF029
:102A8000BFF86B49884223D000BF4FF4FA6002F0D0
:102A9000D3F86649096848681FF06CFE0A2806D119
:102AA0006249096848681FF065FE0B2802D00120C2
:102AB00015900CE05D490968086811F0BFFF834676
:102AC0000068C168584688474719B742DDD300BF40
:102AD000564800680CF094F85549884220D0534974
:102AE000096848681FF046FE062806D14F49096864
:102AF00048681FF03FFE012803D067A01DF0ECFBE3
:102B00004DE06B481DF0E8FB484909684868189992
:102B10000BF008FE4FF4FA7002F08EF80020B1E6D8
:102B200042480068816807A808F098FC00BF40F69A
:102B3000B83002F081F83D4800688168684608F0C6
:102B40008DFC1C2269460EA81AF0AEFDDDED120ABE
:102B50009DED0B1A30EEC10AB0EEC08A00BF9DEDAC
:102B6000120A8DED0B0A18EE100A19F042FA41EC28
:102B7000190B9FED500B53EC102B19F065FAD6D9B9
:102B80009DED120A10EE101A084619F032FA41ECC7
:102B9000190B53EC192B49A01DF09EFB00BF2348D5
:102BA00000680CF02DF82249884209D01F490968B5
:102BB000486818990BF0B6FD40F6B83002F03CF8C2
:102BC00001205FE62DE9F04F93B047F230544FF407
:102BD000FA754FF0000A00201290119010900F909B
:102BE0000A200E90114800680CF00AF8104988423B
:102BF0007FD01048001D00680D9002200C904FF00F
:102C0000000B0E9880B20949CDE900B009680DAB00
:102C100048680C9A0F990BF02FFA8146B9F1000F12
:102C20005CD1484613B0BDE8F08F62E00800002098
:102C3000000A0103184E020854616B656F66662036
:102C40006661696C65642E204D6F746F72732066C7
:102C500061696C656420746F207374617274210AF9
:102C6000000000000A5375636365737366756C201A
:102C700074616B656F6666210A000000F46F0208DC
:102C800056656869636C6520617363656E64696E1F
:102C9000672E2E2E0A00000056656869636C652059
:102CA000697320686F766572696E670A00000000BC
:102CB000446F02083BDF4F8D976E823F416972631C
:102CC0007261667420686F766572696E67206174E0
:102CD00020252E35666D21200A000000FE49096876
:102CE00048680F990BF01AFB4FF4FA7001F0A4FF3B
:102CF00000BFF94909680022C868114609F027F9A0
:102D00004FF4FA7001F098FFF3490968086811F070
:102D100095FE07460068C16838468847061900BF17
:102D20004FF4FA6001F088FFEB4800680BF068FF91
:102D3000EA49884209D0E849096848681FF01AFD45
:102D40000C280FD1012012901AE0E3490968886825
:102D500008F08EFC0D909DF83400042802D001206C
:102D600012900DE0DC490968086811F067FE8146A1
:102D70000068C1684846884710EB050AB245CFD3C2
:102D800000BF1298B8B9D6A01DF0A6FAD2480068C4
:102D90000BF036FFD149884209D0CF49096848680D
:102DA0000F990BF0BFFC4FF4FA7001F045FF0020C3
:102DB00013B0BDE8F08FD6A01DF08EFAC6490968A1
:102DC000086811F03BFE80460068C16840468847AD
:102DD000061900BF4FF4FA6001F02EFFBE480068EC
:102DE0000BF00EFFBD4988421ED0BB4909684868F8
:102DF0001FF0C0FC0C2846D0B749096848681FF08E
:102E00006FFC02283FD0B449096848681FF0B2FC43
:102E1000062806D1B049096848681FF0ABFC0128B4
:102E200031D0012011903CE0AB490968886808F076
:102E30001FFC0D909DF83400052803D1642001F09B
:102E4000FBFE20E000BF4FF4FA6001F0F5FEA2485F
:102E500000688168684608F001FB1C22694607A8E3
:102E60001AF022FC9DED0B0AB5EEC00AF1EE10FA45
:102E7000E9D19DED0B0AB5EEC00AF1EE10FA01D1D1
:102E80000120119000BF94490968086811F0D6FD2F
:102E900081460068C1684846884710EB050AB2457C
:102EA00098D300BF119818B19EA01DF015FA15E037
:102EB000A2481DF011FA884800680BF0A1FE87496E
:102EC000884209D08449096848680F990BF02AFCA8
:102ED0004FF4FA7001F0B0FE002069E77E48006808
:102EE0000BF08EFE7D49884209D07B49096848680D
:102EF0000F990BF017FC40F6B83001F09DFE012051
:102F000056E72DE9F05F2DED0A8B83460E461446F9
:102F10001D46714800680BF073FE7049884250D01E
:102F20002746A9464D46D9F80000D9F8041041ECCF
:102F3000100B3C463868796853EC102B18F01CFFD6
:102F400041EC180BD9F80800D9F80C1041EC100B23
:102F5000B868F96853EC102B18F00EFF41EC190B10
:102F60009FED770B53EC102B51EC190B18F00AFF67
:102F700019F082F83060B868F96841EC100B1DF068
:102F8000B7FFB0EE40BAF0EE60BA9FED6D0B53ECB8
:102F9000102B51EC180B18F0F5FE53EC1B2B18F00E
:102FA000F1FE19F069F87060386900EE100AD9F87E
:102FB000100000EE900A30EE600A10EE100AB060C9
:102FC00056E0A046AA465546DAF80800DAF80C1092
:102FD00041EC100B4446D8F80800D8F80C1053EC1C
:102FE000102B18F0C9FE41EC180BDAF80000DAF8E3
:102FF000041041EC100BD8F80000D8F8041053EC82
:10300000102B18F0B9FE41EC190B9FED4D0B53EC52
:10301000102B51EC190B18F0B5FE19F02DF830609B
:10302000D8F80000D8F8041041EC100B1DF060FF38
:10303000B0EE40BAF0EE60BA9FED410B53EC102BAE
:1030400051EC180B18F09EFE53EC1B2B18F09AFE57
:1030500019F012F87060D8F8100000EE100ADAF8D3
:10306000100000EE900A30EE600A10EE100AB06018
:10307000BDEC0A8BBDE8F09F30B52DED108B85B00F
:1030800004462546A86800EE100A20EE000A10EE5D
:10309000101A084618F0ADFF41EC190BE86800EE75
:1030A000100A20EE000A10EE101A084618F0A1FFD0
:1030B00041EC1F0B53EC192B18F0BDFD41EC1E0B1E
:1030C0009FED210B53EC102B18F05CFE41EC1D0B17
:1030D0009FED1F0B40E0000008000020000A0103E4
:1030E0004C616E64696E67206661696C65642E2050
:1030F0004169726372616674206973207374696CCC
:103100006C20696E20746865206169722E0A000067
:1031100056656869636C65206C616E64696E672EC4
:103120002E2E0A005375636365737366756C206C8D
:10313000616E64696E67210A000000009C6F0208DE
:1031400000000040A654584100000000000000C0EC
:10315000000000000000F03F53EC102B18F06BFD56
:1031600041EC1A0B686800EE100AA86800EE900A9D
:1031700020EE201A286800EE100AE86800EE900A97
:1031800000EE201A11EE101A084618F032FF41EC3A
:103190001D0B9FEDFE0B53EC102B18F0F3FD41ECD3
:1031A0001B0B686800EE100AE86800EE900A20EE3B
:1031B000201A286800EE100AA86800EE900A00EEB7
:1031C000601A11EE101A084618F013FF41EC1D0B9F
:1031D0001FED230B53EC102B18F0D4FD41EC180B12
:1031E000A86800EE100AE86800EE900A20EE201AA7
:1031F000286800EE100A686800EE900A00EE201AB7
:1032000011EE101A084618F0F4FE41EC1D0B9FED6C
:10321000DF0B53EC102B18F0B5FD41EC1C0B68686C
:1032200000EE100A20EE000A10EE101A084618F000
:10323000E0FE41EC1F0B53EC192B18F0FCFC41ECA9
:103240001E0B1FED3F0B53EC102B18F09BFD41ECB8
:103250001D0B1FED410B53EC102B18F0ECFCCDE9CE
:1032600000011FED450B53EC102B51EC180B18F01F
:10327000EBFE02D21FED4A0B03E0B0EE480AF0EE7F
:10328000680AB0EE408AF0EE608A9FEDC20B53EC04
:10329000102B51EC180B18F0BFFE02D29FEDBD0BA6
:1032A00003E0B0EE480AF0EE680AB0EE408AF0EEB5
:1032B000608AB0EE480AF0EE680A1DF005FAB0EE3A
:1032C00040DAF0EE60DA51EC1D0B18F0D5FE0290FA
:1032D0009DED001BB0EE4C0AF0EE6C0A1DF010FDE7
:1032E000B0EE40DAF0EE60DA51EC1D0B18F0C4FEDF
:1032F0000390B0EE4A1AF0EE6A1AB0EE4B0AF0EE06
:103300006B0A1DF0FDFCB0EE40DAF0EE60DA51EC35
:103310001D0B18F0B1FE04909DED020ADDED030ACD
:103320009DED041A05B0BDEC108B30BD2DE9F04FBA
:103330002DED060B2DED108BB7B0B0EE408AF0EE00
:10334000608AB0EE419AF0EE61FAF0EE429A93484C
:103350003590322034904FF47A71349891FBF0F527
:1033600005EB850040003390322005FB00FA002079
:103370003290322031908A4800680BF041FC894934
:1033800088422DD0884800680690022005900020D1
:103390000490319880B20499CDE900108049096801
:1033A00006AB4868059A32990AF066FE8346BBF17F
:1033B000000F06D1584637B0BDEC108B06B0BDE803
:1033C000F08F77490968486832990AF0A7FF4FF4EF
:1033D000FA7001F031FC4FF4FA5001F02DFC00BFFF
:1033E0006F4800680BF00CFC6E49884217D06C489F
:1033F0000068416801A81FF023F8182201A92BA832
:103400001AF052F918222BA925A81AF04DF925AB6C
:103410002BAA14A962480068FFF773FD16E0604804
:1034200000688168684608F019F81C2269461EA8E1
:103430001AF03AF91C221EA917A81AF035F917AB91
:103440001EAA14A956480068FFF75BFD9DED140AFB
:1034500038EE400A10EE101A084618F0CAFD41EC8A
:103460001C0B9DED150A38EEC00A10EE101A084626
:1034700018F0BFFD41EC1D0B9DED160AB1EE400AA0
:1034800039EE400A10EE101A084618F0B2FDCDE9E8
:1034900012011FEE900A18F0ACFD9FED440B53ECA7
:1034A000102BCDE904019DED040B51EC100B18F02D
:1034B00069FC41EC1A0B4C9818F09BFD9FED3B0BFF
:1034C00053EC102BCDE904019DED040B51EC100BD6
:1034D00018F058FC41EC1E0B314800680BF090FBD3
:1034E000304988422BD02E49096848681EF04EFFAB
:1034F0008DED0E0ACDED0F0A8DED101ACDED111ADE
:103500000EA8FFF7B9FD8DED040ACDED050A8DED8E
:10351000061A9DED060A10EE101A084618F069FD0D
:103520009FED220B53EC102BCDE902019DED020B18
:1035300051EC100B18F098FC41EC1B0B40E01849C3
:103540000968886807F0AFFE8DED0A0ACDED0B0A19
:103550008DED0C1ACDED0D1A0AA8FFF78DFD8DED3E
:10356000040ACDED050A8DED061A9DED060A10EE52
:10357000101A084618F03DFD9FED0C0B53EC102B74
:10358000CDE902019DED020B14E0000000000000F7
:1035900000000040000000000000F0BFA086010015
:1035A00008000020000A0103204E020811DD52A28B
:1035B00046DF913F51EC100B18F056FC41EC1B0B11
:1035C00000270026B046B14602249FEDFE0A8DED8D
:1035D000070AFD4800680BF013FBFC49884203D141
:1035E0009FEDFB0A8DED070AB5EEC08AF1EE10FAE9
:1035F00012DD00EE104AB8EEC00AB4EEC08AF1EE59
:1036000010FA02D2B0EE480A03E000EE104AB8EE1B
:10361000C00A8DED090A1DE0B5EEC08AF1EE10FA80
:1036200014D2604200EE100AB8EEC00AB4EEC80A26
:10363000F1EE10FA02D2B0EE480A04E0604200EE69
:10364000100AB8EEC00A8DED090A03E09FEDE10A09
:103650008DED090AF5EEC08AF1EE10FA12DD00EEEA
:10366000104AB8EEC00AF4EEC08AF1EE10FA02D2A7
:10367000B0EE680A03E000EE104AB8EEC00A8DED25
:10368000080A1DE0F5EEC08AF1EE10FA14D260428D
:1036900000EE100AB8EEC00AB4EEE80AF1EE10FA35
:1036A00002D2B0EE680A04E0604200EE100AB8EE02
:1036B000C00A8DED080A03E09FEDC60A8DED080AE9
:1036C000C14800680BF09CFAC049884204D09DEDC7
:1036D0002F0A30EE09FA03E09DED220A30EE09FAD6
:1036E000B0E11FED4E0B53EC102B51EC1A0B18F000
:1036F000BBFBCDE904019DED040B51EC100B18F060
:10370000BBFCB14906900968C868DDED061AB0EE49
:103710004F1ADDED080A9DED090A08F0AEFCA8B2CB
:1037200001F08AFA2F44A84800680BF069FAA7490B
:10373000884231D0A449096848681EF027FE8DED03
:103740000E0ACDED0F0A8DED101ACDED111A0EA84F
:10375000FFF792FC8DED040ACDED050A8DED061AFA
:103760009DED060A10EE101A084618F042FC41ECD6
:103770001B0B95480068416801A81EF061FE1822E5
:1037800001A92BA819F090FF25AB2BAA14A98E48EC
:103790000068FFF7B6FB30E08B490968886807F0DE
:1037A00082FD8DED0A0ACDED0B0A8DED0C1ACDEDE3
:1037B0000D1A0AA8FFF760FC8DED040ACDED050A8D
:1037C0008DED061A9DED060A10EE101A084618F047
:1037D00010FC41EC1B0B7C4800688168684607F0D0
:1037E0003DFE1C2269461EA819F05EFF17AB1EAAFB
:1037F00014A975480068FFF784FB9DED140A38EEA4
:10380000400A10EE101A084618F0F3FB41EC1C0BAE
:103810009DED150A38EEC00A10EE101A084618F091
:10382000E8FB41EC1D0B9DED160AB1EE400A39EEA6
:10383000400A10EE101A084618F0DBFBCDE9120121
:10384000204618F080FBB0EE4C0AF0EE6C0ACDE991
:1038500004011CF0FFFC8DED020B9DED040B53ECFD
:10386000102B9DED020B51EC100B18F0D5FB04D280
:1038700051EC1C0B18F000FC0990204618F063FB7B
:10388000B0EE4D0AF0EE6D0ACDE904011CF0E2FC49
:103890008DED020B9DED040B53EC102B9DED020BF7
:1038A00051EC100B18F0B8FB04D251EC1D0B18F0C2
:1038B000E3FB0890444800680BF0A2F943498842B2
:1038C0004AD119EE900A18F094FBB0EE4C0AF0EED3
:1038D0006C0ACDE904011CF0BDFC8DED020B9DEDE1
:1038E000040B53EC102B9DED020B51EC100B18F058
:1038F00093FB31D219EE900A18F07BFBB0EE4D0A23
:10390000F0EE6D0ACDE904011CF0A4FC8DED020B74
:103910009DED040B53EC102B9DED020B51EC100BA5
:1039200018F07AFB18D253EC1A2B51EC1B0B18F041
:1039300023FACDE902019DED020B1CF08BFC8DED0D
:10394000040B53EC1E2B9DED040B51EC100B18F0E7
:1039500063FB01D22E446DE019EE900A18F049FB8A
:10396000B0EE4C0AF0EE6C0ACDE904011CF072FCDA
:103970008DED020B9DED040B53EC102B9DED020B16
:1039800051EC100B18F048FB52D219EE900A18F0C7
:1039900030FBB0EE4D0AF0EE6D0ACDE904011CF0EB
:1039A00059FC8DED020B9DED040B53EC102B9DED9E
:1039B000020B51EC100B18F02FFB39D2079818F0BE
:1039C00018FB09E08FC2F53D08000020000A010342
:1039D0009A99993F00000000CDE904019DED120B7A
:1039E0001CF038FC8DED020B9DED040B53EC102BFD
:1039F0009DED020B51EC100B18F00EFB18D253EC9E
:103A00001A2B51EC1B0B18F0B7F9CDE902019DED13
:103A1000020B1CF01FFC8DED040B53EC1E2B9DEDD7
:103A2000040B51EC100B18F0F7FA01D22E4401E010
:103A300006B1A8443398804501DD0026B0465645BE
:103A400000DB03E035988742FFF64BAE00BF4E48DF
:103A500000680BF0D5F84D4988420BD008E04A4980
:103A60000968C86808F0FDFBA8B201F0E5F8A944B0
:103A7000D145F4DB3598874216DB45A01CF02CFCC1
:103A8000414800680BF0BCF84049884209D03E49E3
:103A90000968486832990AF045FE4FF4FA7001F05F
:103AA000CBF83F48007886E4374800680BF0A8F868
:103AB0003649884209D034490968486832990AF081
:103AC00031FE40F6B83001F0B7F83648007872E4BD
:103AD0002DE9F047054642F210774FF032084FF4D7
:103AE0007A7090FBF8F404EB84004FEA400932202E
:103AF00004FB00FA002612E0234909685FED4B1A27
:103B00001FED4C1A5FED4D0A00EE105AB8EEC00AD8
:103B1000C86808F0DBFAA0B201F08EF82644BE4275
:103B2000EADB20480078BDE8F08710B500230A22C0
:103B3000012103200DF09EFA1B4908600623242270
:103B4000022103200DF096FA184908601848007801
:103B500000F00100002815D115481CF00BFD0028CD
:103B600010D00C201CF092FB041E05D00021204632
:103B70000EF05AFB044600E000200E4908600C4895
:103B8000AFF3008010BD000008000020000A010310
:103B90005461736B2074696D656F7574210A000040
:103BA000274E0208264E0208C4000020C80000204C
:103BB000200600202406002010B52DED068B84B0D1
:103BC000044694ED020A10EE101A084618F011FA95
:103BD00041EC180B94ED010A10EE101A084618F08B
:103BE00008FA41EC190B94ED000A10EE101A084681
:103BF00018F0FFF941EC1A0B8DED028B8DED009B57
:103C000053EC1A2BFEA01CF067FB04B0BDEC068B36
:103C100010BD1CB5044694ED000ABDEEC00A10EEBE
:103C2000100A00B2ADF8020094ED010ABDEEC00A20
:103C300010EE100A00B2ADF8040094ED020ABDEED9
:103C4000C00A10EE100A00B2ADF80000207B8DF81B
:103C500007009DF806008DF806009DF80600217CFF
:103C60000843C0B28DF806009DF80600217D40EAA9
:103C70004100C0B28DF806009DF80600A17D40EA23
:103C80008100C0B28DF806009DF80600617D40EA13
:103C9000C100C0B28DF80600E74909684869694665
:103CA00008F0D5FB4FF47A6000F0C6FF1CBD00B5EC
:103CB000B5B0002022909FEDE11ADFEDE00A9FED04
:103CC000DF0A2FA81AF0C0F89FEDDC1ADFEDDB0A3F
:103CD0009FEDDA0A099032A81AF0B6F80890002091
:103CE000019002900390049000900998D0ED022A70
:103CF00090ED012AD0ED001A089890ED021AD0ED4F
:103D0000010A90ED000A00231A46194616A81AF077
:103D1000A2F89FEDCA1ADFEDC90A9FEDC80A13A8E1
:103D20001AF092F89FEDC51ADFEDC40A9FEDC30AA1
:103D300010A81AF089F800200D900A200C90BE48B7
:103D400000680AF05DFFBE4988422AD0BD4800687D
:103D5000099002200890002007900C9880B20799E3
:103D6000CDE90010B4480068406809AB0590089A96
:103D70000D990AF081F90690069810B9069835B0A9
:103D800000BDAD480068406805900D990AF0C6FA7C
:103D90004FF4FA7000F050FF4FF4FA6000F04CFF5F
:103DA00000BFA9481CF098FAA34800680AF028FF51
:103DB000A349884230D0A0480068406806901EF0B1
:103DC000EFFB8DED070ACDED080A8DED091A9DED8B
:103DD000080A8DED130A98480068406806901EF0A6
:103DE000DFFB8DED070ACDED080A8DED091A9DED7B
:103DF000070A8DED140A90480068406806901EF08E
:103E0000CFFB8DED070ACDED080A8DED091A9DED6A
:103E1000090A8DED150A35E087480068806801467B
:103E2000019002A807F0FDFB02A80FC8CDE9082306
:103E3000CDE906019DED060A8DED130A7E48006866
:103E400080680146019002A807F0EBFB02A80FC8AA
:103E5000CDE90823CDE906019DED070A8DED140A91
:103E60007548006880680146019002A807F0D9FBF8
:103E700002A80FC8CDE90823CDE906019DED080A87
:103E80008DED150A1598039018F0B3F8CDE90801E7
:103E90001498039018F0ADF8CDE90601139803903B
:103EA00018F0A7F8CDE90401DDE90801CDE9020128
:103EB000DDE90601CDE900019DED040B53EC102B6B
:103EC00062A01CF009FA9FED5D1ADFED5C0A9FED20
:103ED0005B0A2FA819F0B8FF099000200123CDE953
:103EE000013003900490142000900998D0ED022A2C
:103EF00090ED012AD0ED001A9DED151ADDED140AA2
:103F00009DED130A00231A46194623A819F0A3FFB2
:103F100030220146089016A819F0C6FB16A8FFF734
:103F200078FE59481CF0D8F9434800680AF068FE4A
:103F30004349884230D040480068406806901EF0EF
:103F40002FFB8DED070ACDED080A8DED091A9DEDC9
:103F5000080A8DED100A38480068406806901EF087
:103F60001FFB8DED070ACDED080A8DED091A9DEDB9
:103F7000070A8DED110A30480068406806901EF06F
:103F80000FFB8DED070ACDED080A8DED091A9DEDA9
:103F9000090A8DED120A7DE0274800688068014615
:103FA000019002A807F03DFB02A80FC8CDE9082345
:103FB000CDE906019DED060A8DED100A1E48006848
:103FC00080680146019002A807F02BFB02A80FC8E9
:103FD000CDE90823CDE906019DED070A8DED110A13
:103FE0001548006880680146019002A807F019FB97
:103FF00002A80FC8CDE90823CDE9060146E000007C
:104000004E65772047696D62616C20726F746174D0
:10401000696F6E20616E676C65206973205B202577
:10402000302E33662C2025302E33662C2025302E62
:104030003366205D0A0A000008000020000000002E
:10404000000A0103244E020844700208496E697494
:1040500069616C2047696D62616C20726F74617474
:10406000696F6E20616E676C653A205B2025302E8B
:1040700033662C2025302E33662C2025302E3366D7
:10408000205D0A0A00000000F07102089DED080A98
:104090008DED120A002001900290039004901420EC
:1040A0000090DDED122A9DED112ADDED101A9DED37
:1040B000151ADDED140A9DED130A4FF4E163C822D1
:1040C000002123A819F0C7FE30220146099016A846
:1040D00019F0EAFA16A8FFF79CFDFE4800680AF0FE
:1040E0008FFDFD49884230D0FA480068406806904C
:1040F0001EF056FA8DED070ACDED080A8DED091A6E
:104100009DED080A8DED100AF2480068406806909F
:104110001EF046FA8DED070ACDED080A8DED091A5D
:104120009DED070A8DED110AEA4800684068069087
:104130001EF036FA8DED070ACDED080A8DED091A4D
:104140009DED090A8DED120A35E0E24800688068AD
:104150000146019002A807F064FA02A80FC8CDE951
:104160000823CDE906019DED060A8DED100AD94818
:10417000006880680146019002A807F052FA02A880
:104180000FC8CDE90823CDE906019DED070A8DEDA5
:10419000110AD048006880680146019002A807F023
:1041A00040FA02A80FC8CDE90823CDE906019DED2C
:1041B000080A8DED120A10A8FFF7FEFCC7A01CF03C
:1041C0008BF8CDA01CF088F8C248006800690990FF
:1041D00007F042FCCDA01CF07FF8D8481CF07CF81A
:1041E0001FED6A1A5FED6B0A1FED6C0A2FA819F01C
:1041F0002BFE099000200123CDE9013003900490AB
:10420000142000900998D0ED022A90ED012AD0EDFB
:10421000001A9DED151ADDED140A9DED130A002319
:10422000C74A194623A819F016FE30220146089005
:1042300016A819F039FA16A8FFF7EBFCA548006894
:104240000AF0DEFCA449884230D0A24800684068E9
:1042500006901EF0A5F98DED070ACDED080A8DED4B
:10426000091A9DED080A8DED100A9A480068406809
:1042700006901EF095F98DED070ACDED080A8DED3B
:10428000091A9DED070A8DED110A924800684068F1
:1042900006901EF085F98DED070ACDED080A8DED2B
:1042A000091A9DED090A8DED120A35E0894800686A
:1042B00080680146019002A807F0B3F902A80FC870
:1042C000CDE90823CDE906019DED060A8DED100A22
:1042D0008048006880680146019002A807F0A1F9B3
:1042E00002A80FC8CDE90823CDE906019DED070A14
:1042F0008DED110A7748006880680146019002A898
:1043000007F08FF902A80FC8CDE90823CDE906010F
:104310009DED080A8DED120A10A8FFF74DFC6FA065
:104320001BF0DAFF87A01BF0D7FF6A48006800691E
:10433000099007F098FB88481BF0CEFF87A01BF080
:10434000CBFF6420ADF83A003220ADF83C006FF0AE
:10435000C700ADF838004FF47A600B9064200A90E3
:10436000002009900FE05B48006840690EA90890A2
:1043700008F083F80A9880B2089000F05DFCDDE94F
:104380000901084409900B9909988842EBDB5148D0
:1043900000680AF035FC5049884230D04D4800682A
:1043A000406806901EF0FCF88DED070ACDED080A76
:1043B0008DED091A9DED080A8DED100A454800683B
:1043C000406806901EF0ECF88DED070ACDED080A66
:1043D0008DED091A9DED070A8DED110A3D48006823
:1043E000406806901EF0DCF88DED070ACDED080A56
:1043F0008DED091A9DED090A8DED120A35E035485B
:10440000006880680146019002A807F00AF902A836
:104410000FC8CDE90823CDE906019DED060A8DED13
:10442000100A2C48006880680146019002A807F035
:10443000F8F802A80FC8CDE90823CDE906019DEDE3
:10444000070A8DED110A2348006880680146019033
:1044500002A807F0E6F802A80FC8CDE90823CDE9C5
:1044600006019DED080A8DED120A10A8FFF7A4FBC6
:1044700049A01BF031FF9FED4E1ADFED4D0A9FED75
:104480004C0A2FA819F0E0FC099000200123CDE987
:10449000013003900490142000900998D0ED022A76
:1044A00090ED012AD0ED001A9DED151ADDED140AEC
:1044B0009DED130A00231A46194623A819F0CBFCD8
:1044C00030220146089016A819F0EEF816A8FFF75A
:1044D000A0FB6FE008000020000A0103456E737521
:1044E0007265205344206361726420697320707286
:1044F0006573656E742E0A0054616B696E67207077
:104500006963747572652E2E0A0000004368656346
:104510006B20444A4920474F20417070206F722021
:104520005344206361726420666F722061206E655F
:104530007720706963747572652E0A00A471020891
:104540000CFEFFFF5374617274696E6720766964B4
:10455000656F2E2E0A000000DC700208536574742B
:10456000696E6720526F6C6C207261746520746F85
:104570002031302C2050697463682072617465208A
:10458000746F20352C205961772052617465207436
:104590006F202D32302E0A00526573657474696E77
:1045A0006720706F736974696F6E2E2E2E0A00007B
:1045B00000000000634800680AF022FB624988425C
:1045C00030D060480068406806901DF0E9FF8DED2E
:1045D000070ACDED080A8DED091A9DED080A8DED4B
:1045E000100A58480068406806901DF0D9FF8DED0C
:1045F000070ACDED080A8DED091A9DED070A8DED2C
:10460000110A50480068406806901DF0C9FF8DED02
:10461000070ACDED080A8DED091A9DED090A8DED09
:10462000120A39E04748006880680146019002A8F4
:1046300006F0F7FF03A80DC80299CDE90823CDE9DC
:1046400006109DED060A8DED100A3E480068806850
:104650000146019002A806F0E4FF02A90EC90598E0
:10466000CDE90723069109909DED070A8DED110A0A
:104670003448006880680146019002A806F0D1FF26
:10468000DDE90403DDE90212CDE90803CDE90612F4
:104690009DED080A8DED120A10A8FFF78DFA2BA0E8
:1046A0001BF01AFE274800680069099007F0E2F93C
:1046B0004FF47A7000F0C0FA29A01BF00DFE2148DB
:1046C00000680AF09DFA204988420AD01D48006817
:1046D000406809900D990AF025F840F6B83000F0CE
:1046E000ABFA0120FFF74BBB10B500230A220121D2
:1046F00003200CF0BFFC2649086006232422022177
:1047000003200CF0B7FC234908602348007800F030
:104710000100002815D120481BF02CFF002810D0E4
:104720000C201BF0B3FD041E05D0002120460DF027
:104730007BFD044600E00020184908601648AFF3EE
:10474000008010BD08000020000A010353746F7040
:1047500070696E6720766964656F2E2E2E0A0000E0
:10476000436865636B20444A4920474F204170707D
:10477000206F72205344206361726420666F722040
:1047800061206E657720766964656F2E0A000000EF
:10479000D0000020D40000202006002024060020A5
:1047A00000B52DED040B2DED108B89B09DED1B0A8E
:1047B00020EE000A10EE101A084617F01AFC41EC21
:1047C000190B9DED1C0A20EE000A10EE101A084687
:1047D00017F00FFC41EC1F0B53EC192B17F02BFAC1
:1047E00041EC1E0B9FEDA10B53EC102B17F0CAFAF6
:1047F00041EC1D0B9FED9F0B53EC102B17F01BFA98
:1048000041EC1A0B9DED1A0ADDED1B0A20EE200A81
:10481000DDED190A9DED1C1A00EE810A10EE101A4A
:10482000084617F0E6FB41EC1D0B9FED940B53EC93
:10483000102B17F0A7FA41EC1B0B9DED1A0ADDEDCA
:104840001C0A20EE200ADDED190A9DED1B1A00EE70
:10485000C10A10EE101A084617F0CBFB41EC1D0BF5
:104860009FED820B53EC102B17F08CFA41EC180BD8
:104870009DED1B0ADDED1C0A20EE200ADDED190A74
:104880009DED1A1A00EE810A10EE101A084617F074
:10489000B0FB41EC1D0B9FED790B53EC102B17F087
:1048A00071FA41EC1C0B9DED1A0A20EE000A10EE85
:1048B000101A084617F09DFB41EC1F0B53EC192B07
:1048C00017F0B9F941EC1E0B9FED680B53EC102B60
:1048D00017F058FA41EC1D0B9FED660B53EC102BB3
:1048E00017F0A9F9CDE900019FED620B53EC102BF5
:1048F00051EC180B17F0A8FB02D29FED5E0B03E002
:10490000B0EE480AF0EE680AB0EE408AF0EE608A37
:104910009FED5C0B53EC102B51EC180B17F07CFB4C
:1049200002D29FED580B03E0B0EE480AF0EE680AA1
:10493000B0EE408AF0EE608AB0EE480AF0EE680A07
:104940001BF0C2FE8DED060B9DED001BB0EE4C0A78
:10495000F0EE6C0A1CF0D4F98DED040BB0EE4A1A9F
:10496000F0EE6A1AB0EE4B0AF0EE6B0A1CF0C8F9D2
:104970008DED020B9DED020B9DED041B9DED062BB5
:1049800009B0BDEC108B0FBD00B52DED040B87B049
:10499000DDED0A1A9DED091ADDED080A9DED070A05
:1049A000FFF7FEFE8DED000B8DED021B8DED042B50
:1049B0009DED000B0BB000BD00B52DED040B87B0D5
:1049C000DDED0A1A9DED091ADDED080A9DED070AD5
:1049D000FFF7E6FE8DED000B8DED021B8DED042B38
:1049E0009DED020B0BB000BD00B52DED040B87B0A3
:1049F000DDED0A1A9DED091ADDED080A9DED070AA5
:104A0000FFF7CEFE8DED000B8DED021B8DED042B1F
:104A10009DED040B0BB000BD10B52DED048BB0EE79
:104A2000408AF0EE608A9FED190B53EC102B51EC8D
:104A3000180B17F0A7F941EC190BB0EE490AF0EE8C
:104A4000690ABDEC048B10BD10B500230A220121B8
:104A500003200CF00FFB0F490860062324220221DB
:104A600003200CF007FB0C49086010BD000000009B
:104A7000000000C0000000000000F03F0000000047
:104A800000000040000000000000F0BFE8C35CB080
:104A9000DDA54C40DC000020E000002010B500F057
:104AA0009DF84FF4A06000F0B7F913F0E2FB12F0AC
:104AB00011FE11F014F911F085FA11F034FE00F036
:104AC00046F910F0ADFA11F09DFF11F00BF810BD92
:104AD00010B500230A22012103200CF0CBFA05496E
:104AE000086006232422022103200CF0C3FA0249A5
:104AF000086010BDE8000020EC0000201FB5012177
:104B0000084602F00CF90121084602F008F90020DD
:104B1000ADF80C00ADF80600C720029042F2CF00BD
:104B2000ADF8040000208DF80E0001A9534802F0F2
:104B30009EFA19208DF8000003208DF801008DF8F1
:104B4000020001208DF80300684600F06AF9012197
:104B50004A4802F041FF01221146484802F028FF6E
:104B60000021464802F00CFB1FBD1FB5012108467D
:104B700002F0C4F80121084602F0C0F80020ADF8A8
:104B80000C00ADF80600C7200290272002904AF2E0
:104B90000F40ADF8040001A94FF0804002F067FA21
:104BA0001C208DF8000002208DF8010003208DF8F4
:104BB000020001208DF80300684600F032F901215F
:104BC000880702F009FF01221146900702F0F0FE6B
:104BD00000214FF0804002F0D3FA1FBD30B52848C5
:104BE00000684FF47A72B0FBF2F1B1F1807F01D32B
:104BF00001201DE021F07F40401E4FF0E022506177
:104C000050170022002807DA13071D0E1D4B00F075
:104C10000F04241F1D5503E013071C0E1A4B1C54D0
:104C200000BF00204FF0E0229061072010610020BB
:104C300008B100BFFEE730BD002106E047F2305169
:104C400000BF0A1EA1F10101FBD1021EA0F1010368
:104C500098B2F3D1704710B500230A220121032036
:104C60000CF008FA094908600623242202210320D7
:104C70000CF000FA0649086010BD00000000014079
:104C80002401002018ED00E000E400E0F80000201E
:104C9000FC00002000B587B00121084601F0FBFFB1
:104CA0000121102002F03BF84FF4C0600590022073
:104CB0008DF818008DF8190000208DF81A000120D9
:104CC0008DF81B0005A94C4801F002FD07220921BF
:104CD000494801F088FD07220A21474801F083FD79
:104CE0004FF4613001900020ADF80800ADF80A00E3
:104CF000ADF80C00ADF810000C20ADF80E0001A9C5
:104D00003E4802F0C0FF012240F225513B4803F02B
:104D1000F8F80121394803F03EF800BF80213748F8
:104D200003F014F90128F9D107B000BD08B503203C
:104D30008DF8010002208DF8020025208DF800007A
:104D400001208DF80300684600F06BF808BD10B52F
:104D5000FFF7A0FFFFF7EAFF10BD10B5ADF51C7D12
:104D60002021264803F0F2F801282FD10020244901
:104D70000870224803F03EF8C4B222490968086866
:104D800021490A6821460FF0D8FD204908700846DD
:104D9000007801281AD14FF498721B4801680C3131
:104DA000684618F081FC4FF49E72174801684DA8C0
:104DB00018F07AFC13484DA90EC900680BF035FEB7
:104DC00000201249087001200D4908700DF51C7D66
:104DD00010BD10B500230A22012103200CF04AF96E
:104DE0000B49086006232422022103200CF042F91B
:104DF0000849086010BD000000000240001001409A
:104E00000401002008000020040000200100002010
:104E1000080100200C01002032490143324A116090
:104E2000704770B5002100230F22C4781CB32E4CAC
:104E3000246804F4E064C4F5E064C4F30721C1F11C
:104E40000404E3B20A4144789C40E1B284781440FF
:104E500021430C07210E254C05786155047804F098
:104E60001F050124AC4005786D11AD0005F1E0256A
:104E7000C5F8004109E0047804F01F050124AC40A6
:104E80001B4D0678761145F8264070BD194A0A4038
:104E90000243154B1B1F1A60704739B1124A121D8D
:104EA00012680243104B1B1D1A6006E00E4A121DC9
:104EB000126882430C4B1B1D1A607047042808D1EE
:104EC0004FF0E021096941F004014FF0E022116147
:104ED00007E04FF0E021096921F004014FF0E022E2
:104EE000116170470000FA050CED00E000E400E0FD
:104EF00080E100E080FFFF1F10B50121080201F0F2
:104F000078FF00214FF4807001F073FF10BD30B5C1
:104F10000246002000235068F84C20400D790C68B0
:104F200044EA0524204350609068F54C2040D1E9C4
:104F300003542C438D682C434D7944EA45042043A7
:104F40009060D06A20F470000C7D641EE4B22343AC
:104F500040EA0350D06230BD00210160017141710F
:104F60008160C16001610121017570470021E54A3E
:104F70001168E54A1140D0E900231A4383681A43B7
:104F8000C3681A431143E14AC2F804137047002171
:104F9000016041608160C160704721B1826842F068
:104FA0000102826003E0826822F0010282607047A1
:104FB0000A4600214168D64B1940114341607047B1
:104FC0004162826270470A460021416821F01F0158
:104FD00011434160704738B1CA49096841F4000182
:104FE000CA4AC2F8041306E0C649096821F4000160
:104FF000C64AC2F80413704738B1C249096841F47F
:105000008001C24AC2F8041306E0BE49096821F4CF
:105010008001BE4AC2F804137047F0B504460D463D
:1050200000200021092D11DDE068A5F10A0606EB3C
:105030004607072606FA07F18843A5F10A0606EB9C
:10504000460603FA06F10843E0600CE0206905EB30
:105050004507072606FA07F1884305EB450603FADC
:1050600006F108432061072A0FDA606B561E06EB33
:1050700086071F2606FA07F18843561E06EB8606AA
:1050800005FA06F10843606322E00D2A0FDA206B6F
:10509000D61F06EB86071F2606FA07F18843D61FA0
:1050A00006EB860605FA06F10843206310E0E06A85
:1050B000A2F10D0606EB86071F2606FA07F18843C4
:1050C000A2F10D0606EB860605FA06F10843E0623A
:1050D000F0BD816841F08041816070470146002049
:1050E0008A6802F480020AB1012000E000207047C3
:1050F00021B1826842F48062826003E0826822F417
:1051000080628260704721B1826842F00202826050
:1051100003E0826822F002028260704710B50A46FE
:1051200000210023416821F46041531E41EA4331CC
:10513000416010BD21B1426842F40062426003E068
:10514000426822F40062426070470146C86C80B237
:1051500070476C48001D0068704721B1826842F4B6
:105160008072826003E0826822F4807282607047FD
:1051700021B1826842F40072826003E0826822F406
:1051800000728260704738B15E49096841F400518D
:105190005E4AC2F8041306E05A49096821F4005136
:1051A0005A4AC2F804137047F0B504461546002069
:1051B00000220026092911DDE068A1F10A0707EBAA
:1051C000470C072707FA0CF29043A1F10A0707EBF7
:1051D000470703FA07F21043E0600CE0206901EB97
:1051E000410C072707FA0CF2904301EB410703FA41
:1051F00007F210432061A06BC0F30156EF1C06F1CB
:10520000010CA7EB0C0707EB870C1F2707FA0CF222
:105210009043EF1C06F1010CA7EB0C0707EB870787
:1052200001FA07F21043A063F0BD10B50A46002151
:105230000023816B21F44011531E41EA0351816325
:1052400010BD08B5002300930090009B0B44009311
:10525000009B1A6008BD0A460021816821F4702174
:105260001143816070470A460021816821F4401192
:10527000114381607047816841F48001816070470B
:10528000014600208A6802F480020AB1012000E091
:105290000020704721B1426842F48062426003E01E
:1052A000426822F480624260704721B1426842F451
:1052B0008052426003E0426822F4805242607047AC
:1052C00008B5024600200090009201F12800009BE2
:1052D000184400900098006880B208BD10B50B46D5
:1052E0000021D9B2012404FA01F11AB144680C4337
:1052F000446002E044688C43446010BDFFFEFFFC44
:10530000FDF7FFC004230140E030FCFF0020014016
:10531000FFFD3FFF0246002013680B400BB1012048
:1053200000E000207047CA430260704770B5024633
:105330000020002300240B12556801268E4005EA48
:10534000060415681D4015B10CB1012000E00020D5
:1053500070BD00220A12D3430360704710B50446A3
:10536000FE48844209D10121480601F031FD0021A7
:105370004FF0007001F02CFD08E00121880601F0DB
:1053800027FD00214FF0806001F022FD10BD30B5F7
:10539000024600200023146824F0020414601468FC
:1053A00044F00104146000E05B1C546804F0010444
:1053B0001CB94FF6FF74A342F6D1546804F00104FF
:1053C0000CB900206CE08C79012C04D1146844F0F5
:1053D0008004146003E0146824F080041460CC7925
:1053E000012C04D1146844F04004146003E01468F4
:1053F00024F0400414600C7A012C04D1146844F0A9
:105400002004146003E0146824F0200414604C7A33
:10541000012C04D1146844F01004146003E01468F3
:1054200024F0100414608C7A012C04D1146844F028
:105430000804146003E0146824F008041460CC7AB3
:10544000012C04D1146844F00404146003E01468CF
:1054500024F0040414608C78A407CD7844EA056431
:105460000D7944EA05444D7944EA05540D886D1ED2
:105470002C43D461146824F001041460002300E07C
:105480005B1C546804F001041CB14FF6FF74A34286
:10549000F6D1546804F001040CB1002000E00120B2
:1054A00030BD10B50021837A012202FA03F1AC4A23
:1054B000126842F00102AA4B1A60A94A1C32126813
:1054C0008A43A74B1C331A60027BCAB9A44A0C3228
:1054D00012688A43A24B0C331A604288C38842EA9E
:1054E00003439F4A4032847A42F8343002888388EA
:1054F00042EA03439A4A4032847A02EBC402536080
:10550000027B012A19D1964A0C3212680A43944B45
:105510000C331A604288038842EA0343904A4032BF
:10552000847A42F83430C288838842EA03438C4A42
:105530004032847A02EBC4025360C27A3AB9884A94
:10554000121D12688A43864B1B1D1A6006E0844AAE
:10555000121D12680A43824B1B1D1A60028932B960
:105560007F4A143212688A437D4B14331A600289D1
:10557000012A06D17A4A143212680A43784B14334E
:105580001A60427B012A06D1754A1C3212680A430E
:10559000734B1C331A60724A126822F00102704B7E
:1055A0001A6010BD00218171C17101724172817256
:1055B000C1728170C1700321017102214171012109
:1055C000018070476649096841F00101644A116031
:1055D0001146096843F60E729143614A1160114603
:1055E000096841EA002111601146096821F00101B2
:1055F0001160704721B1026842F48032026003E01A
:10560000026822F4803202607047E1B1026842F021
:10561000800202604FF4C272125842F480734FF459
:10562000C27213504FF4CA72125842F480734FF48E
:10563000CA7213504FF4D272125842F480734FF46E
:10564000D27213501BE0026822F0800202604FF415
:10565000C272125822F480734FF4C27213504FF486
:10566000CA72125822F480734FF4CA7213504FF466
:10567000D272125822F480734FF4D27213507047D2
:1056800010B502460020936803F08063B3F1806F89
:1056900000D110E0936803F00063B3F1006F01D113
:1056A000012008E0936803F08053B3F1805F01D1DB
:1056B000022000E00420042879D002F5C07303EB37
:1056C00000131B6803F0010402F5C07303EB001321
:1056D0001C600B7A7BB94B7A0C8843EA445302F581
:1056E000C07404EB00142468234302F5C07404EB77
:1056F0000014236010E00B7A4C6843EAC4034C7A30
:10570000234302F5C07404EB00142468234302F51C
:10571000C07404EB001423608B7A03F00F038B72C8
:1057200002F5C07303EB00135B6823F00F0402F56E
:10573000C07303EB00135C6002F5C07303EB00134E
:105740005B688C7A234302F5C07404EB0014636039
:105750008B7B1C064B7B44EA034403E0006400405F
:10576000006600400B7B44EA0323CC7A234302F516
:10577000C07404EB0014A3608B7C1C064B7C44EAD1
:1057800003440B7C44EA0323CC7B234302F5C0741F
:1057900004EB0014E36002F5C07303EB00131B6815
:1057A00043F0010402F5C07303EB00131C6010BD4D
:1057B00010B50246002321B1012907D002290FD1DB
:1057C00009E09068F94C00EA04030BE09068F84C9B
:1057D00000EA040306E09068F64C00EA040301E0E6
:1057E000002300BF00BFF44C181BA34216D007DCF7
:1057F00083B16FF08060184470B1022818D111E0B5
:10580000B0F5007F10D0ED4C204448B1B0F5003F1A
:105810000ED10BE002230DE000230BE0002309E092
:10582000002307E0012305E0012303E0012301E059
:10583000002300BF00BFD8B210BD21B1012907D09D
:1058400002290FD109E0826842F0800282600AE0FA
:10585000826842F40042826005E0826842F40002FD
:10586000826000E000BF00BF704710B500F5D8733C
:1058700003EB01131B6803F004031372137A53B98B
:1058800000F5D87303EB01131B6840F2FF7404EAC0
:105890005353136009E000F5D87303EB01131B6841
:1058A0006FF0604404EAD303536000F5D87303EB50
:1058B00001131B6803F00203537200F5D87303EB66
:1058C00001135B6803F00F03937200F5D87303EBC9
:1058D00001135B681B0AD37400F5D87303EB011343
:1058E0009B68D37200F5D87303EB01139B681C0A05
:1058F000147300F5D87303EB01139B681C0C5473ED
:1059000000F5D87303EB01139B681B0E937300F52E
:10591000D87303EB0113DB68D37300F5D87303EB83
:105920000113DB681C0A147400F5D87303EB011330
:10593000DB681C0C547400F5D87303EB0113DB68AF
:105940001B0E937421B9C36843F02003C36003E0C6
:10595000036943F02003036110BD21B9C26842F01E
:105960002002C26003E0026942F020020261704737
:105970000246002019B9D36803F0030006E00129AC
:1059800003D1136903F0030000E00020704710B555
:1059900002460B4600204FF6FF71BBB9146824F095
:1059A000020444F00104146000E0491E546804F04D
:1059B0000304012C01D00029F7D1546804F003043A
:1059C000012C01D0002032E0012030E0012B13D166
:1059D000146824F00304146000E0491E546804F0C5
:1059E00003040CB10029F8D1546804F003040CB18D
:1059F00000201CE001201AE0022B17D1146824F0CB
:105A0000010444F00204146000E0491E546804F0EC
:105A10000304022C01D00029F7D1546804F00304D8
:105A2000022C01D0002002E0012000E0002010BD87
:105A3000014600200A6822F0010242F002020A60D8
:105A40004A6802F00302022A00D101207047014691
:105A50004FF6FF7200200B6823F002030B6000E09A
:105A6000521E4B6803F00203022B01D1002AF7D12A
:105A70004B6803F00203022B00D00120704701465F
:105A800000208A6902F070007047014600208A6990
:105A9000100E7047014600208A69C2F30740704724
:105AA0001AB143690B43436102E043698B4343618D
:105AB000704710B50246002001F4700343B19369AA
:105AC000C1F3130423400BB101202DE000202BE093
:105AD00001F0807343B15368C1F3130423400BB149
