:020000040800F2
:1000000008890020B55C0008BD5C0008BF5C0008E2
:10001000C15C0008C35C0008C55C0008000000006B
:10002000000000000000000000000000C75C0008A5
:10003000C95C000800000000CB5C0008A1C50008F6
:10004000CF5C0008CF5C0008CF5C0008CF5C0008E4
:10005000CF5C0008CF5C0008CF5C0008CF5C0008D4
:10006000CF5C0008CF5C0008CF5C0008CF5C0008C4
:10007000CF5C0008CF5C000841CB0008A5CD00088C
:10008000CF5C0008CF5C0008CF5C0008CF5C0008A4
:10009000B1DF0008CF5C0008CF5C0008CF5C00082F
:1000A000CF5C0008CF5C0008CF5C0008CF5C000884
:1000B000CF5C0008CF5C0008CF5C0008CF5C000874
:1000C000CF5C0008CF5C0008CF5C0008CF5C000864
:1000D000CF5C00087B280008CF5C0008A31700084D
:1000E000CF5C0008CF5C0008CF5C0008B5000108B9
:1000F000CF5C000851020108CF5C0008CF5C00080B
:10010000CF5C0008CF5C0008CF5C0008CF5C000823
:10011000CF5C0008CF5C0008CF5C0008CF5C000813
:10012000CF5C0008CF5C0008CF5C0008CF5C000803
:10013000CF5C0008CF5C0008CF5C0008CF5C0008F3
:100140006DE10008CF5C0008CF5C0008CF5C0008C0
:10015000CF5C000857CC000871C90008CF5C0008CC
:10016000CF5C0008CF5C0008CF5C0008CF5C0008C3
:10017000CF5C0008CF5C0008CF5C0008CF5C0008B3
:10018000CF5C0008CF5C0008DFF810D013F098FCBB
:1001900013F042F800480047F508000808890020DD
:1001A00010B5FE480068C0F1FF3041F28831884246
:1001B0000BD3FB480068F9490968401AB0F5487F3D
:1001C00003D3F6480068F6490860F6480068F3492A
:1001D0000968401A41F2883188420BD30D21F24858
:1001E00012F0FDFEF0480A38C07D00F0EF00EE4945
:1001F0000A39C875ED480068E8490968401A41F2B3
:100200008831884207D3E8480A38C07D00F0DF0013
:10021000E5490A39C875E6480068E0490968401AA6
:1002200041F28831884207D3DF480A38C07D00F0A8
:10023000F700DD490A39C875DE480068D749096802
:10024000401A41F28831884207D3D7480A38007EE5
:1002500000F0FE00D4490A390876D7480068CF4933
:100260000968401A41F28831884207D3CE480A38DB
:10027000007E00F0FD00CC490A390876CF480068BE
:10028000C6490968401A41F28831884207D3C648F6
:100290000A38007E00F0F700C3490A390876C848DA
:1002A0000068BE490968401A41F28831884207D384
:1002B000BD480A38007E00F0EF00BB490A390876D5
:1002C00010BD2DE9F0472DED048B4FF000099FED97
:1002D000BD0A10EE105A9FEDBB0A10EE106A9FED9A
:1002E000B90A10EE107A9FEDB70A10EE108A9FED52
:1002F000B50AB0EE408AB6EE000AF0EE408AB6EEDD
:10030000000AB0EE409AB3EE040AF0EE409AAE480E
:100310000078042803D0BDEC048BBDE8F087AB481F
:10032000807D00B9F7E7A948007F48B9A648007A60
:1003300028B1A548007A20F00200A3490872EAE734
:1003400011F056FCA24801F050FFA048818901221B
:100350009F4812F063F99F4908709C48018A032264
:100360009B4812F05BF99B4988719848C189022229
:10037000974812F053F99749C8709448418A04226B
:10038000934812F04BF993494872002487E004EB3C
:1003900044009049085C012813D104EB4400084450
:1003A0008078401E00EB4000085C032809D1002142
:1003B00004EB4400874A10448078401E00EB400064
:1003C000115404EB44008349085C022813D104EB68
:1003D000440008448078401E00EB4000085C03287D
:1003E00009D1022104EB44007A4A10448078401E6F
:1003F00000EB4000115404EB44007649085C0328EC
:1004000017D104EB440008448078401E00EB400004
:10041000085C03280DD1022104EB44006D4A10440E
:100420008078401E00EB40001154022004EB440190
:10043000505404EB44006749085C78BB04EB44006B
:1004400008448078401E00EB4000085C032825D15A
:10045000611CC8B212F099F848B1002104EB4400C5
:100460005C4A10448078401E00EB4000115457480D
:100470000A30611C30F811005449C98B88420DDAEA
:10048000022104EB4400534A10448078401E00EBE4
:1004900040001154022004EB44015054641C042C0D
:1004A000FFF675AF4B480078012806D101F0E6FF52
:1004B00010EE105A012047490873464880790128F8
:1004C00007D1032001F0DAFF10EE105A0120414954
:1004D00008734048C078012807D1022002F030F8A4
:1004E00010EE106A01203B4948733A48407A0128CF
:1004F00007D1042002F024F810EE106A01203549DB
:10050000487334480078022803D118EE105A314954
:10051000087330488079022805D1B1EE480A10EE00
:10052000105A2C4908732B48C078022803D118EEC2
:10053000106A284948732748407A022805D1B1EE4D
:10054000480A10EE106A23494873224800780328AD
:1005500005D1B1EE680A10EE105A1E4908731D4805
:100560008079032803D118EE905A1A490873194864
:10057000C078032805D1B1EE680A10EE106A15495B
:1005800048731448407A032803D118EE906A114941
:100590004873012011F0F9FF68BB1DE054090020E9
:1005A00070090020780900202D4300207C090020DC
:1005B0008009002084090020880900208C0900207F
:1005C00090090020000000002001002008440020C5
:1005D0004044002068440020032011F0D6FF50B9A9
:1005E000FA48007B022806D11FED0A0A10EE105AC5
:1005F0000020F6490873022011F0C7FF70B90420EB
:1006000011F0C3FF50B9F148407B022806D11FED1D
:10061000130A10EE106A0020EC494873EB48007B87
:1006200000281BDDE948407BC0B9022011F0ADFF76
:1006300040B1022001F084FF10EE106A0420E3496B
:1006400048730BE0042011F0A0FF38B1042001F042
:1006500077FF10EE106A0420DC494873DB48407BCA
:1006600000281BDDD948007BC0B9012011F08DFFA7
:1006700040B1012001F002FF10EE105A0420D349CE
:1006800008730BE0032011F080FF38B1032001F064
:10069000F5FE10EE105A0420CC490873CB48007BBD
:1006A000002803DCC948407B002832DD4FF00109F7
:1006B000C748B0F91C00B0F5FA7F02DD19EE107AD8
:1006C0000EE0C348B0F91C0010F5FA7F04DAB1EE71
:1006D000490A10EE107A03E01FED460A10EE107A78
:1006E000BB48B0F91E00B0F5FA7F02DD19EE908A22
:1006F0001BE0B748B0F91E0010F5FA7F04DAB1EE3E
:10070000690A10EE108A10E01FED520A10EE108AEE
:100710000BE04FF00009002405E0002004EB440149
:10072000AA4A5054641C042CF7DB002409E004EBB3
:100730004400A649085C04EB4401A44A11444870F3
:10074000641C042CF3DBB9F1000F0FD0A148C0F8F2
:100750000150C0F80560C0F80970C0F80D809E48CF
:10076000007A40F002009C4908722AE09A48007A18
:1007700028B19948007A20F00200974908729548FC
:10078000D0F8010000EE100AB5EEC00AF1EE10FA42
:1007900006D01FED740A10EE100A8E49C1F8010050
:1007A0008C48D0F8050000EE100AB5EEC00AF1EE54
:1007B00010FA06D01FED7D0A10EE100A8549C1F827
:1007C000050000BFA7E5854A1078D178824A1278E3
:1007D000042A00D07047FC2801D0FC2910D1012246
:1007E0007D4B5A70B7EE000A10EE102A794BC3F811
:1007F0000920794A127A42F00102774B1A721CE002
:100800000022754B5A70734AD2F8092000EE102A64
:10081000B5EEC00AF1EE10FA06D01FED960A10EE02
:10082000102A6C4BC3F809206B4A127A2AB16A4A23
:10083000127A22F00102684B1A7200BFCAE710B5A3
:100840006748006867490968401AA0282DD36548A1
:100850000068634908606448006800F0010050B90E
:10086000FFF7B1FF5F480068C0F1FF30B0F57A6F65
:1008700001D310F00DFE5C4800680A21B0FBF1F2D4
:1008800001FB120060B90DF0A6FF10F07FFD554886
:100890000068C0F1FF30B0F57A6F01D310F087FD2A
:1008A00051480068401C5049086010BD00204F4965
:1008B00008601AE04E494D4A1268885C411ECAB26F
:1008C0004B494A4B1B68CA5450B10846474909680E
:1008D000405C28B900214648001D444A12688154F2
:1008E00042480068401C41490860404800680428AC
:1008F000E0DB70471CB501F08FFE4FF47A7001F019
:1009000041FF6A203B4B3CA23F4900903F4813F017
:100910006BFB0446601C38B1B4F5967F04D23B49AA
:100920003BA013F051FB02E03AA013F04DFB41A0B5
:1009300043A146A349A2CDE900104BA14D4813F0B5
:1009400043FB6C202B4B2CA22F4900902F4813F017
:100950004BFB0446601C38B1B4F5967F04D22B499A
:100960002BA013F031FB02E02AA013F02DFB01F0C5
:1009700024FB11F037F911F00CFF02224FF47A71C9
:10098000AFF2D7000EF07BFD019013E001F0D7FB32
:1009900011F0E0F810F03BFCFFF751FF12F016F9F0
:1009A000FFF78FFCFFF7FCFB0CF055FD0DF0DAF9BB
:1009B0000DF0F6FCEAE710B52DED048B0648007843
:1009C000042859D0BDEC048B10BD00006844002001
:1009D000404400201000002020010020234300207C
:1009E0007409002054090020940900208800002088
:1009F00032440020425C0108494D504F52545F4E32
:100A00004F54494345000000186E01083A25002064
:100A1000257300004552524F523A206C6F67207088
:100A200072696E74657220696E6E6572206661759A
:100A30006C740A0031363A34393A3533000000001C
:100A400053657020313920323031370048575630E5
:100A5000342D5630322D303200000000313030302D
:100A600030303030000000004D61696E426F6172BD
:100A7000640000005C6E0108FE48807D10B9BDEC8A
:100A8000048B10BDFB48007F48B9FB48007A28B1B1
:100A9000F948007A20F00200F7490872EFE711F0F8
:100AA000B6F80446002C71D0F348007A40F00200FA
:100AB000F149087204F0010098B1EE49088C12F077
:100AC00054FD41EC190B9FEDED0B53EC102B12F084
:100AD0005AFC41EC180B12F0D1FDEA49C1F80100B3
:100AE0001DE004F0040098B1E249088C12F03DFDCD
:100AF00041EC190B9FEDE40B53EC102B12F043FC6F
:100B000041EC180B12F0BAFDDE49C1F8010006E015
:100B10009FEDDF0A10EE100ADA49C1F8010004F077
:100B2000020098B1D349088C12F01FFD41EC190B5B
:100B30009FEDD20B53EC102B12F025FC41EC180B5F
:100B400012F09CFDCF49C1F805004AE004F008000E
:100B500098B1C849088C12F008FD41EC190B9FEDC3
:100B6000CA0B53EC102B12F00EFC41EC180B12F0D8
:100B700085FDC449C1F8050033E09FEDC50A10EEBC
:100B8000100AC049C1F805002BE0FFE7BA48007A17
:100B900028B1B948007A20F00200B7490872B94874
:100BA000D0F8010000EE100AB5EEC00AF1EE10FA1E
:100BB00006D09FEDB70A10EE100AB249C1F8010045
:100BC000B048D0F8050000EE100AB5EEC00AF1EE0C
:100BD00010FA06D09FEDAE0A10EE100AA949C1F82E
:100BE000050000BF4BE7F0B52DED0C8B9BB000204E
:100BF0001A900025A0480078042803D01BB0BDEC53
:100C00000C8BF0BD9B48807D00B9F7E79948007FC9
:100C100048B99948007A28B19748007A20F0020034
:100C200095490872EAE79B49A1F1080001F0CFFA63
:100C3000994808F069FCB0EE40DAF0EE60DA13F0A3
:100C40008BFEB0EE40BAF0EE60BA93490CA808F003
:100C5000C0FB0CA80FC814AC0FC49DED150A10EE14
:100C6000101A084612F0C6FC41EC1C0B53EC1B2B6F
:100C700012F089FB41EC190B874808F045FCB0EEF7
:100C800040DAF0EE60DA13F0F7FDB0EE40BAF0EEC5
:100C900060BA814908A808F09CFB08A80FC810ACEE
:100CA0000FC49DED100A10EE101A084612F0A2FCB7
:100CB00041EC1C0B53EC1B2B12F065FB41EC1A0BA7
:100CC00053EC192B12F0B8FA41EC180B12F0D6FCC9
:100CD000704908390861704808F016FCB0EE40DA37
:100CE000F0EE60DA13F0C8FDB0EE40BAF0EE60BA94
:100CF00069490CA808F06DFB0CA80FC814AC0FC410
:100D00009DED150A10EE101A084612F073FC41EC26
:100D10001C0B53EC1B2B12F036FB41EC190B5E48FD
:100D200008F0F2FBB0EE40DAF0EE60DA13F014FEF9
:100D3000B0EE40BAF0EE60BA574908A808F049FB97
:100D400008A80FC810AC0FC49DED100AB1EE400A00
:100D500010EE107A384612F04DFC41EC1C0B53ECAF
:100D60001B2B12F010FB41EC1A0B53EC192B12F059
:100D700063FA41EC180B12F081FC464908394861CE
:100D800046490FA80BF033FA0FA807C815AB07C3E5
:100D900042490CA80BF02BFA0CA807C812AB07C3EA
:100DA000BDF95430BDF94A2018A919A811F0BBFAB1
:100DB00004460CB1012C79D11AAA18A919A810F06F
:100DC000E8FF0646354912A80BF011FA12A807C829
:100DD00015AB07C3BDF95600002801DD01250CE065
:100DE0002E4912A80BF003FA12A807C815AB07C3C7
:100DF000BDF95600002800DA0425284912A80BF096
:100E0000F6F912A807C815AB07C3BDF954000028AE
:100E100001DD02250CE0214912A80BF0E8F912A827
:100E200007C815AB07C3BDF95400002800DA082530
:100E3000B5B39DF8680000F0010010B105F00100A5
:100E400070BB9DF8680000F0040010B105F00400CC
:100E500030BB9DF8680000F0020010B105F0020000
:100E6000F0B99DF8680000F0080010B105F0080026
:100E7000B0B917E008440020200100209A99999900
:100E80009999B93F100000209A9999999999B9BFF9
:100E9000000000004844002008000020E41F00205B
:100EA00001E003E000260CB906B1344664B35449AE
:100EB00068460BF09CF99DE807000CAB07C3BDF832
:100EC000320008BB4E4903A80BF091F903A807C8EC
:100ED0000FAB07C3BDF83C00B0B9494906A80BF0F9
:100EE00086F906A807C812AB07C3BDF84E0050B973
:100EF000434909A80BF07BF909A807C815AB07C33C
:100F0000BDF8580000B100246CB13E491998C1F8F1
:100F100001001898C1F805003B48007A40F0020033
:100F2000394908722AE03848007A28B13648007AF0
:100F300020F00200344908723248D0F8010000EE77
:100F4000100AB5EEC00AF1EE10FA06D01FED300A15
:100F500010EE100A2B49C1F801002A48D0F805000C
:100F600000EE100AB5EEC00AF1EE10FA06D01FED41
:100F7000380A10EE100A2349C1F8050000BF3DE60B
:100F800038B504460D46002003462A462146009007
:100F90001E48006805F0D4FF00201D4908601D4868
:100FA00000681D49086038BD10B51848006809F090
:100FB00049FB10BD38B5042012F0F2FF0446174972
:100FC000016000BF16490160164804600020034616
:100FD0000246009013480168134804F0F3FE0B48E2
:100FE0000168124807F070FE08480168104806F0D2
:100FF00093FE0648016802480BF06CF838BD00000B
:10100000E41F002010000020200100200400002028
:10101000A00243425409002058090020C06D010875
:10102000606D010800000020C00A002008000020B8
:1010300034000020F0B599B004460D4617462868E4
:10104000C0F30920103802287ED82868C0F3092090
:10105000A0F1100205F10C0118A811F099FFBDF8DC
:101060006010204607F0FEFCBDF8600009286CD235
:10107000DFE800F0053959387C9CBCDCFD004020DD
:10108000C64BC7A2CAA10090D34812F0ADFF0646D6
:10109000701C38B1B6F5967F04D2CF49CFA012F0BC
:1010A00093FF02E0CEA012F08FFF0420D449087015
:1010B0002146684605F0C0FE302269460CA811F0B2
:1010C00067FF179860B12146684605F0B5FE3022EB
:1010D00069460CA811F05CFF2046179909F01CFC2A
:1010E00019B0F0BD0AE14A20AC4BC6A2C7A10090DE
:1010F000CE4812F079FF0646701C58B1B6F5806FE5
:1011000008DA41F208510859095909684A6D002165
:10111000904707E041F208510859095909684A6D9A
:10112000AFA19047EAE04D209C4BB6A2C0A1009031
:10113000BE4812F059FF0646701C70B1B6F5806FBC
:101140000BDA41F2085101E0D9E0B0E00859095941
:1011500009684A6D0021904707E041F2085108599B
:10116000095909684A6D9EA19047C7E050208B4BF2
:10117000A4A2B7A10090AD4812F036FF0646701C3D
:1011800058B1B6F5806F08DA41F20851085909598B
:1011900009684A6D0021904707E041F2085108595B
:1011A000095909684A6D8EA19047A7E053207B4BEF
:1011B00094A2B0A100909D4812F016FF0646701C44
:1011C00058B1B6F5806F08DA41F20851085909594B
:1011D00009684A6D0021904707E041F2085108591B
:1011E000095909684A6D7EA1904787E057206B4BEB
:1011F00084A2AD4900908D4812F0F6FE0646701CA0
:1012000058B1B6F5806F08DA41F20851085909590A
:1012100009684A6D0021904707E041F208510859DA
:10122000095909684A6D6EA1904767E05B205B4BE6
:1012300074A29EA100907D4812F0D6FE0646701C56
:1012400060B1B6F5806F09DA41F2085108590959C1
:1012500009684A6D0021904708E008E041F2085112
:101260000859095909684A6D5DA1904746E05E201A
:101270004A4B64A297A100906C4812F0B5FE064656
:10128000701C58B1B6F5806F08DA41F20851085960
:10129000095909684A6D0021904707E041F2085159
:1012A0000859095909684A6D4DA1904726E0BDF8D3
:1012B0006010204607F0DCFAF8B96320374B51A2E2
:1012C0008FA10090594812F08FFE0646701C58B14D
:1012D000B6F5806F08DA41F20851085909590968D2
:1012E0004A6D0021904707E041F208510859095919
:1012F00009684A6D3AA1904700BF00BF26E02889DF
:1013000080B22968C1F304616A22244BCDE900212F
:1013100002903CA285A1454812F066FE0646701C6C
:1013200058B1B6F5806F08DA41F2085108590959E9
:1013300009684A6D0021904707E041F208510859B9
:10134000095909684A6D26A1904700BF00BFC7E64A
:1013500010B58EB01920844B11A284A100901E48B4
:1013600012F042FE0446601C38B1B4F5967F04D2F8
:1013700019491AA012F028FE02E019A012F024FE6A
:101380008748029087480D900023AFF2573202A998
:101390008548006804F062FF0EB010BDAB5C010828
:1013A000494D504F52545F4E4F5449434500000041
:1013B00025732025732C6C696E652025643A2041C5
:1013C00063746976617465642073756363657373B0
:1013D00066756C6C790A00003A25002025730000C0
:1013E0004552524F523A206C6F67207072696E748A
:1013F000657220696E6E6572206661756C740A0094
:10140000200100204552524F520000002573202534
:10141000732C6C696E652025643A2057726F6E6775
:1014200020706172616D657465720A001C21002074
:1014300025732025732C6C696E652025643A204540
:101440006E636F6465206572726F720A000000003F
:1014500025732025732C6C696E652025643A204421
:101460004A49474F206E6F7420636F6E6E656374D8
:1014700065640A0025732025732C6C696E65202530
:10148000643A20444A49474F206E6F7420636F6E60
:101490006E656374656420746F2074686520696E7E
:1014A0007465726E65740A00AC6E010825732025A0
:1014B000732C6C696E652025643A2057726F6E67D5
:1014C0002053444B207065726D697373696F6E0AA7
:1014D0000000000025732025732C6C696E652025A3
:1014E000643A2053444B2076657273696F6E2064B2
:1014F0006964206E6F74206D617463680A00000077
:1015000025732025732C6C696E652025643A20575D
:1015100068696C652063616C6C696E6720746869CA
:10152000732066756E6374696F6E000025732025E5
:10153000732C6C696E652025643A2041434B206909
:101540007320657863657074696F6E2C20736573A2
:1015500073696F6E2069642025642C7365717565ED
:101560006E63652025640A009D5C010825732025B3
:10157000732C6C696E652025643A204040404040E1
:10158000404040557365725F41637469766174656C
:10159000202829214040404040404040400A00006F
:1015A0001FBF0F008C0000200400002010B5002297
:1015B000012111480AF097FD40221049104811F00E
:1015C000E7FC10BD10B5002201210B480AF08BFD8D
:1015D0004FF480600A49086048608860C86008610C
:1015E00048618861C861086248628862C8620863AD
:1015F00048638863C86310BDE41F0020CD0000204D
:101600003F0000202DE9F04107460C4616462546CE
:1016100014B90020BDE8F0810BE000BF40210C4868
:1016200004F0E0F90028F9D015F8011B084804F08F
:1016300029F9301EA6F10106EFD10120EAE70246A2
:1016400004480068044908600846006800217047A3
:1016500000100140540900203001002000B52DED9C
:10166000068BEDB0B0EE409AF0EE609AB0EE418A93
:10167000F0EE618A324A19EE100A19EE901A1061E2
:10168000516130480168684606F0CCF8CC226946C2
:101690003AA811F07DFC1C224AA933A811F078FC6D
:1016A0002748DDE933120160426026480168684638
:1016B00006F0B8F8CC2269463AA811F069FC1C2261
:1016C0004AA933A811F064FC1D48DDE93512816098
:1016D000C2601822014667A811F05AFC9DED6B2BE1
:1016E0009DED691B9DED670B174808F0A4FEB0EE59
:1016F000480A154808F0BFFE18EE900A11F07AFF6C
:1017000041EC1A0BB0EE4A0AF0EE6A0A0E4808F0F5
:10171000A9FE002211460C4808F0BEFA6DB0BDECDF
:10172000068B00BD10B500221146074808F028FBC3
:1017300010BD10B503480168034808F036FA10BD23
:1017400060200020040000202820002000F07F02FC
:1017500000EE102AB8EEC00AF0EE400A00EE101AB1
:10176000B8EE400AB0EE401A00F0800262B1DFED40
:10177000FE1AB0EE410A00EEA10AF1EE401A9FED0A
:10178000FB2A81EE820A7047DFEDF71AB0EE410ABC
:1017900000EEA10A9FEDF52AC0EE021AB0EE610A32
:1017A000F1E710B52021F24804F01CF901282AD1F4
:1017B000EF4804F06BF8C4B2EE48806A48B9FA2CDE
:1017C00020D1EC48816A001D44540120E949886217
:1017D00018E0FE2C0DD1E748816A001D4454001F1B
:1017E000806A401CE349C8620020886201200860CA
:1017F00008E0E048816A001D4454001F806A401CD4
:10180000DC49886200BF10BDF0B52DED028BE9B058
:1018100004460D4616462068012802D100202060AB
:1018200003E069B0BDEC028BF0BD2079FA2802D14B
:101830006079FB2800D0F4E7A07905287ED006DC8B
:1018400005287CD2DFE800F01016192531000828A1
:1018500076D004DC062874D0072870D11EE1092850
:1018600070D0AA28F9D169E100221146284605F076
:10187000FDFDDCE1FFF76CFDD9E1E07908B1012065
:1018800000E00020014600231A46284605F05BFAD6
:10189000CDE1E07908B1012000E0002001460023FD
:1018A0001A46304607F01AFBC1E1E079012875D1EC
:1018B000207AB1490870A17A607AFFF747FF10EEED
:1018C000100AAD49C1F80100217BE07AFFF73EFF25
:1018D00010EE100AA849C1F80500A17B607BFFF754
:1018E00035FF10EE100AA449C1F80900217CE07B05
:1018F000FFF72CFF10EE100A9F49C1F80D0030468B
:1019000007F05DFB0121880703F086F9A17A607A70
:10191000FFF71CFF10EE107A384611F06BFE41EC19
:10192000180B53EC182B95A012F04EFB217BE07A9C
:10193000FFF70CFF10EE107A384604E072E075E114
:10194000CBE08EE0EFE011F055FE41EC180B53ECCC
:10195000182B8EA012F038FBA17B607BFFF7F6FE00
:1019600010EE107A384611F045FE41EC180B53EC9E
:10197000182B8AA012F028FB217CE07BFFF7E6FE03
:1019800010EE107A384611F035FE41EC180B53EC8E
:10199000182B85A012F018FB43E0FFE7E07902283E
:1019A0003FD1A17A607AFFF7D1FE10EE107A384667
:1019B00011F020FE41EC180B53EC182B6FA012F025
:1019C00003FB217BE07AFFF7C1FE10EE107A384668
:1019D00011F010FE41EC180B53EC182B6BA012F019
:1019E000F3FAA17B607BFFF7B1FE10EE107A384668
:1019F00011F000FE41EC180B53EC182B67A012F00D
:101A0000E3FA217CE07BFFF7A1FE10EE107A384666
:101A100011F0F0FD41EC180B53EC182B62A012F002
:101A2000D3FA04E1E079012804D0022809D0032880
:101A300015D10DE000231A460121304607F087F941
:101A40000DE000231A460421304607F080F906E035
:101A500000231A460621304607F079F900BF00BF7F
:101A6000E5E0E07930B9FFF7ADFD0021514803F022
:101A7000D3F812E0E079022806D1FFF797FD0121A3
:101A80004C4803F0C9F808E0E079012805D1FFF7D8
:101A900099FD0121474803F0BFF8C8E0E079C8B9D3
:101AA000207A11F062FD41EC180BA07A00EE100ACA
:101AB000B8EE400AF0EE401A607A00EE100AB8EE76
:101AC000400AB0EE401AB0EE480AF0EE680AFFF79E
:101AD000C5FD01E0FFF726FEA9E02946684605F0AE
:101AE000A1FECC22694636A811F052FADDF8DA00E0
:101AF0003390DDF8DE003490BDF8E200ADF8D4009C
:101B00002DA0339912F060FA294603A805F08AFE49
:101B1000CC2203A936A811F03BFA9DF89D112BA009
:101B200012F052FA83E0E079012802D100F0F7F9CF
:101B300003E0E07908B900F018FA78E0A07B00EB48
:101B400080004000616A4143607B00EB8000400000
:101B5000626A4243207B00EB80004000636A43439B
:101B6000E07A00EB800045E0000080430000C842BE
:101B700000480040AC200020D01F0020726F6C6C29
:101B80005F6F725F78203D25660A0000706974639C
:101B9000685F6F725F79203D25660A007468725F26
:101BA0007A203D25660A0000796177203D25660A86
:101BB0000A0000000000014054696D655374616DB6
:101BC000702069732025640D0A000000426174745E
:101BD0006572792063617061636974792072656DE3
:101BE00061696E732025642070657263656E740D83
:101BF0000A0000004000676A7843CDE90232049190
:101C00000190A07A00EB800040000090607A00EB29
:101C100080004300207A00EB80004200E07900EB76
:101C200080004100074812F0CFF900E000BF00BF7C
:101C300000BFF6E50448002101608162C16200BF77
:101C400070470000F86E0108AC20002070B52DED43
:101C5000068B04460D46F0EE408AB0EE608AB0EE88
:101C6000419AF0EE619A38EEC90AB0EE40AA38EE19
:101C7000690AF0EE40AA9FEDC10A2AEE800A84EDBF
:101C8000000AB0EE480A11F0EBF8DFEDBC0A6AEE8C
:101C9000200A20EE200A85ED000ABDEC068B70BDFF
:101CA0000FB400B52DED048B83B068469FEDB40AE8
:101CB00080ED000A9FEDB20A80ED010A9FEDB00AA7
:101CC00080ED020A00BF9DED0F1BB0EE410AF0EE61
:101CD000610A51EC100B11F0D1FC08EE100A9DEDD9
:101CE000111BB0EE410AF0EE610A51EC100B11F03D
:101CF000C5FC08EE900A9DED081BB0EE410AF0EE1F
:101D0000610A51EC100B11F0B9FC09EE100A9DEDBF
:101D10000A1BB0EE410AF0EE610A51EC100B11F013
:101D2000ADFC09EE900AF0EE481AB0EE681AF0EE3B
:101D3000490AB0EE690A01A96846FFF787FF9DEDE1
:101D40000C0A8DED020A9DED000ADDED010A9DED04
:101D5000021A03B0BDEC048B5DF814FB00B52DED49
:101D6000048B8DB0874890ED050ADFED870AB4EE4D
:101D7000E00AF1EE10FA0FD2DFED811AB3EE091A84
:101D8000DFED7F0A9FED7E0A9121804807F05CF924
:101D90000DB0BDEC048B00BD7A4890ED0E0ADFED6E
:101DA0007C0A30EE200A80ED0E0AD0ED0E0AB0EE6D
:101DB000001A60EE810AB0EE600A11F08DF8F3EEC1
:101DC000090A20EE200AB0EE408A6E48D0ED0E0AD5
:101DD000B0EE600A11F044F820EE080AF0EE408AF6
:101DE0006848D0ED0E0AB0EE600A11F075F820EEEA
:101DF000080AB0EE409A19226249193103A811F07D
:101E0000C7F809225F491031684611F0C1F85D48F2
:101E10000FC8FFF745FF8DED0A0ACDED0B0A8DEDDA
:101E20000C1A9DED0B1A39EE411AF0EE410A9DEDA8
:101E30000A1A38EEC11AB0EE410ADFED511AB3EEBC
:101E4000091A9121514807F0FFF84E4890ED0E0A0B
:101E5000DFED500AB4EEE00AF1EE10FA06DD9FED78
:101E6000480A80ED0E0A00204649C86300BF00BF43
:101E70008EE72DE9F043E7B007468846914608F122
:101E80000C054C462878022846D16878002843D1B2
:101E9000AD1C2E46307800F02000C8B1394601A8AC
:101EA00005F0C0FCCC2201A934A811F071F8192268
:101EB00044A9204611F06CF8E06B012808D194F891
:101EC0003300032804D1606B012801D1FFF746FFDE
:101ED000308800F40070F8B13234607820703846F1
:101EE00005F00FFB607014F83209012814D194F842
:101EF0003300032810D1394601A805F093FCCC2209
:101F000001A934A811F044F8192244A904F11900D8
:101F100011F03EF80120606367B0BDE8F083194816
:101F2000406B01280DD1174890ED050AF6EE000A26
:101F3000B4EEE00AF1EE10FA03D390F83300032870
:101F400009D09FED0F0A0F4880ED0E0A00200D49C1
:101F5000C863012070479FED0A0A0A4880ED0E0A07
:101F600001200849C8630020F4E79FED050A0548F1
:101F700080ED0E0A00200349C863704732A5C24AAB
:101F800000000000DC2000200000C4410800002008
:101F90006F12033BC3F5C840FE48008820B1FD48DE
:101FA0000088401EFB490880FB48008820B1FA48A1
:101FB0000088401EF8490880704708B542F210704A
:101FC00000F0E0FB4FF47A7000F0DCFB02221421F9
:101FD000AFF23B000DF053FA009008BD10B510F0C1
:101FE000A1FC18B13221ED48FEF7CAFF10BD00B5C3
:101FF0002DED028B8FB0E848008818B90A20E64919
:10200000088003E00FB0BDEC028B00BDE44901A8DD
:1020100007F0CBF91C2201A908A810F0B9FF9DED2B
:102020000D8AE048007B00B9ECE7B1EE000AB4EE9F
:10203000C08AF1EE10FA03DD0220DA4988600AE076
:10204000B0EE080AB4EEC08AF1EE10FA03D24FF0F7
:10205000FF30D449886000BFD4E710B586B0D249BC
:1020600068460AF0C4F89DE8070003AB07C3BDF952
:102070001400002801DC06B010BDC94807F019FAA9
:10208000022800D0F7E7C948007A002823D1C448C5
:1020900007F0FAF902281DD100231A461946C44850
:1020A000006804F050FEB620C24BC3A2C6A1009047
:1020B000CE4811F099FF0446601C38B1B4F5967F04
:1020C00004D2CA49CAA011F07FFF02E0C9A011F0F2
:1020D0007BFF00BFCFE7B548007A30B1AD4800883C
:1020E00018B90120AB49088000E0C4E7AC4807F00C
:1020F000CBF902281DD000231A460121AC48006804
:1021000004F021FEC620AB4BABA2C2A10090B748A1
:1021100011F06AFF0446601C38B1B4F5967F04D212
:10212000B249B3A011F050FF02E0B2A011F04CFF91
:1021300000BFC0499A4806F042FF00BF9BE710B5B8
:102140009A48007820B1032826D0042838D130E0FE
:10215000032096490870B8480068486000231A4672
:10216000B6499348006804F0A4FF322000F00AFB4F
:10217000002211468E48006805F078F94FF47A7015
:1021800000F000FB8A48006808F05CFAFFF7E0F80E
:10219000322000F0F7FA14E084484068A649096844
:1021A000401A41F28831884202D300207F490870EA
:1021B00007E0FFF752FFFFF71AFFFFF70FFF00E0FE
:1021C00000BF00BF7A48006808F03CFA10BD70B547
:1021D00005460C46724807F0BDF985ED000B7048C6
:1021E00007F0F0F984ED000B70BD70B52DED0C8B90
:1021F00090B0044625466A4807F0ACF985ED000B1F
:10220000674807F0DFF985ED020B67490AA809F076
:10221000EEFF0AA807C80DAB07C3BDF936006883F7
:1022200061490AA809F0E3FF0AA807C80DAB07C374
:10223000BDF9340028835C490AA809F0D8FF0AA830
:1022400007C80DAB07C3BDF93A00A88356490AA8D1
:1022500009F0CDFF0AA807C80DAB07C3BDF93800C8
:10226000E8834F4807F050F9B0EE40DAF0EE60DA5C
:1022700012F072FBB0EE40BAF0EE60BA484904A822
:1022800007F0A7F804A80FC80CAE0FC69DED0D0A05
:1022900010EE101A084611F0ADF941EC1C0B53EC8E
:1022A0001B2B11F070F841EC190B3D4807F02CF98D
:1022B000B0EE40DAF0EE60DA12F0DEFAB0EE40BADC
:1022C000F0EE60BA3649684607F083F89DE80F00E3
:1022D00008AE0FC69DED080A10EE101A084611F060
:1022E00089F941EC1C0B53EC1B2B11F04CF841EC21
:1022F0001A0B53EC192B10F09FFF41EC180B11F047
:10230000BDF92861264807F0FFF8B0EE40DAF0EE9C
:1023100060DA12F0B1FAB0EE40BAF0EE60BA2049DD
:1023200004A807F056F804A80FC80CAE0FC69DED20
:102330000D0A10EE101A084611F05CF941EC1C0B66
:1023400053EC1B2B11F01FF841EC190B144807F04C
:10235000DBF8B0EE40DAF0EE60DA12F0FDFAB0EE43
:1023600040BAF0EE60BA0E49684607F032F89DE8D0
:102370000F0008AE0FC69DED080AB1EE400A10EE40
:10238000106A304611F036F941EC1C0B53EC1B2B54
:1023900056E000002C0100202E010020AA4400205D
:1023A0000800002078440020E41F002020010020C5
:1023B00004000020CA5C0108494D504F52545F4E42
:1023C0004F5449434500000025732025732C6C6948
:1023D0006E652025643A206F657320636F6E74729A
:1023E0006F6C20636C6F7365640A00003A250020EF
:1023F000257300004552524F523A206C6F6720708F
:1024000072696E74657220696E6E657220666175A0
:102410006C740A0025732025732C6C696E65202569
:10242000643A206F657320736574436F6E74726FC6
:102430006C0A000010000020540900200D0100204B
:1024400010F0A1FF41EC1A0B53EC192B10F0F4FE25
:1024500041EC180B11F012F968616A4902A806F004
:10246000A4FF1C2202A909A810F092FD9DED0E0AFE
:1024700085ED080A10B0BDEC0C8B70BD10B52DEDCC
:10248000068B04466049088C11F06FF841EC1A0B7A
:102490009FED5E0B53EC102B10F075FF41EC190B08
:1024A00011F0ECF808EE900A5A4890ED040AB0EEEC
:1024B000408AB4EEE88AF1EE10FA02DDB0EE688AE6
:1024C00025E0B1EE680AB4EEC08AF1EE10FA04D24B
:1024D000B1EE680AB0EE408A19E0B5EEC08AF1EEBE
:1024E00010FA0ADB38EE280A30EE080AF0EE080A85
:1024F00080EE201AB0EE418A09E038EE080A30EE8C
:10250000680AF0EE080A80EE201AB0EE418A012C2B
:1025100006D1B5EEC08AF1EE10FA01D2B0EE688AAB
:10252000032C08D1B5EEC08AF1EE10FA03DDB1EE4E
:10253000680AB0EE408AB0EE480ABDEC068B10BDCA
:1025400010B52DED068B04462F49088C11F00DF8BF
:1025500041EC1A0B9FED2D0B53EC102B10F013FFD9
:1025600041EC190B11F08AF808EE100A294890ED99
:10257000050AF0EE408AF4EEC88AF1EE10FA02DDA8
:10258000F0EE488A25E0B1EE480AF4EEC08AF1EE9A
:1025900010FA04D2B1EE480AF0EE408A19E0F5EEE6
:1025A000C08AF1EE10FA0ADB38EEA80A30EE080A0B
:1025B000F0EE080A80EE201AF0EE418A09E038EECB
:1025C000A80A30EE480AF0EE080A80EE201AF0EE73
:1025D000418A022C06D1F5EEC08AF1EE10FA01D242
:1025E000F0EE488A042C08D1F5EEC08AF1EE10FA1C
:1025F00003DDB1EE480AF0EE408AB0EE680ABDECA9
:10260000068B10BD08000020084400209A99999973
:102610009999B93F4044002010B500F085F84FF477
:10262000A06000F045F90DF0F2F80CF021FB0AF083
:1026300032FE0AF095FF0BF044FB00F018F90AF0A7
:1026400001F80BF0ADFC10BD1FB50121084602F0EA
:10265000B2F80121084602F0AEF80020ADF80C00F7
:10266000ADF80600C720029042F2CF00ADF804009A
:1026700000208DF80E0001A94A4802F044FA192002
:102680008DF8000003208DF801008DF80200012074
:102690008DF80300684600F010F90121414802F06E
:1026A000E7FE012211463F4802F0CEFE00213D48E0
:1026B00002F0B2FA1FBD1FB50121084602F06AF808
:1026C0000121084602F066F80020ADF80C00ADF8D4
:1026D0000600C7200290272002904AF20F40ADF872
:1026E000040001A94FF0804002F00DFA1C208DF883
:1026F000000002208DF8010003208DF80200012067
:102700008DF80300684600F0D8F80121880702F030
:10271000AFFE01221146900702F096FE00214FF015
:10272000804002F079FA1FBD30B51F4800684FF4B1
:102730007A72B0FBF2F1B1F1807F01D301201DE08C
:1027400021F07F40401E4FF0E022506150170022E0
:10275000002807DA13071D0E144B00F00F04241F86
:102760001D5503E013071C0E114B1C5400BF002025
:102770004FF0E022906107201061002008B100BFF7
:10278000FEE730BD002106E047F2305100BF0A1ECF
:10279000A1F10101FBD1021EA0F1010398B2F3D116
:1027A00070470000000001404801002018ED00E0E3
:1027B00000E400E000B587B00121084601F0B7FF52
:1027C0000121102001F0F7FF4FF4C06005900220B6
:1027D0008DF818008DF8190000208DF81A000120DE
:1027E0008DF81B0005A92E4801F0BEFC0722092127
:1027F0002B4801F044FD07220A21294801F03FFD42
:102800004FF4613001900020ADF80800ADF80A00E7
:10281000ADF80C00ADF810000C20ADF80E0001A9C9
:10282000204802F07CFF012240F225511D4803F0B0
:10283000B4F801211B4802F0FAFF00BF80211948BB
:1028400003F0D0F80128F9D107B000BD08B5032086
:102850008DF8010002208DF8020025208DF800007F
:1028600001208DF80300684600F027F808BD10B578
:10287000FFF7A0FFFFF7EAFF10BD10B520210948C0
:1028800003F0B0F801280AD1064802F0FFFF06491C
:102890000870084601780548006805F0BCFF10BDC7
:1028A000000002400010014034010020040000201C
:1028B00032490143324A1160704770B5002100234C
:1028C0000F22C4781CB32E4C246804F4E064C4F5D1
:1028D000E064C4F30721C1F10404E3B20A4144787F
:1028E0009C40E1B28478144021430C07210E254C12
:1028F00005786155047804F01F050124AC40057883
:102900006D11AD0005F1E025C5F8004109E004783E
:1029100004F01F050124AC401B4D0678761145F8E4
:10292000264070BD194A0A400243154B1B1F1A600E
:10293000704739B1124A121D12680243104B1B1D19
:102940001A6006E00E4A121D126882430C4B1B1DD2
:102950001A607047042808D14FF0E021096941F05E
:1029600004014FF0E022116107E04FF0E021096916
:1029700021F004014FF0E022116170470000FA05D8
:102980000CED00E000E400E080E100E080FFFF1FCC
:1029900010B50121080201F078FF00214FF480708A
:1029A00001F073FF10BD30B50246002000235068CF
:1029B000F84C20400D790C6844EA0524204350600F
:1029C0009068F54C2040D1E903542C438D682C438A
:1029D0004D7944EA450420439060D06A20F47000A9
:1029E0000C7D641EE4B2234340EA0350D06230BD44
:1029F00000210160017141718160C16001610121AB
:102A0000017570470021E54A1168E54A1140D0E997
:102A100000231A4383681A43C3681A431143E14AE7
:102A2000C2F8041370470021016041608160C160F9
:102A3000704721B1826842F00102826003E082683F
:102A400022F00102826070470A4600214168D64B9D
:102A500019401143416070474162826270470A46E3
:102A60000021416821F01F0111434160704738B1D6
:102A7000CA49096841F40001CA4AC2F8041306E0D1
:102A8000C649096821F40001C64AC2F80413704718
:102A900038B1C249096841F48001C24AC2F804133E
:102AA00006E0BE49096821F48001BE4AC2F8041359
:102AB0007047F0B504460D4600200021092D11DDB8
:102AC000E068A5F10A0606EB4607072606FA07F1B5
:102AD0008843A5F10A0606EB460603FA06F1084309
:102AE000E0600CE0206905EB4507072606FA07F1D0
:102AF000884305EB450603FA06F108432061072ADF
:102B00000FDA606B561E06EB86071F2606FA07F1E2
:102B10008843561E06EB860605FA06F108436063F5
:102B200022E00D2A0FDA206BD61F06EB86071F2640
:102B300006FA07F18843D61F06EB860605FA06F16A
:102B40000843206310E0E06AA2F10D0606EB860759
:102B50001F2606FA07F18843A2F10D0606EB86064A
:102B600005FA06F10843E062F0BD816841F080415A
:102B700081607047014600208A6802F480020AB131
:102B8000012000E00020704721B1826842F4806299
:102B9000826003E0826822F480628260704721B123
:102BA000826842F00202826003E0826822F0020240
:102BB0008260704710B50A4600210023416821F465
:102BC0006041531E41EA4331416010BD21B142686A
:102BD00042F40062426003E0426822F40062426014
:102BE00070470146C86C80B270476C48001D006891
:102BF000704721B1826842F48072826003E082688B
:102C000022F480728260704721B1826842F40072BF
:102C1000826003E0826822F400728260704738B1FB
:102C20005E49096841F400515E4AC2F8041306E0A7
:102C30005A49096821F400515A4AC2F804137047EE
:102C4000F0B504461546002000220026092911DDB2
:102C5000E068A1F10A0707EB470C072707FA0CF217
:102C60009043A1F10A0707EB470703FA07F2104365
:102C7000E0600CE0206901EB410C072707FA0CF239
:102C8000904301EB410703FA07F210432061A06B68
:102C9000C0F30156EF1C06F1010CA7EB0C0707EB84
:102CA000870C1F2707FA0CF29043EF1C06F1010C6A
:102CB000A7EB0C0707EB870701FA07F21043A063A5
:102CC000F0BD10B50A4600210023816B21F44011AC
:102CD000531E41EA0351816310BD08B500230093E0
:102CE0000090009B0B440093009B1A6008BD0A46AD
:102CF0000021816821F470211143816070470A46E8
:102D00000021816821F4401111438160704781687E
:102D100041F4800181607047014600208A6802F416
:102D200080020AB1012000E00020704721B1426812
:102D300042F48062426003E0426822F480624260B2
:102D4000704721B1426842F48052426003E0426819
:102D500022F480524260704708B50246002000907D
:102D6000009201F12800009B184400900098006830
:102D700080B208BD10B50B460021D9B2012404FA77
:102D800001F11AB144680C43446002E044688C438A
:102D9000446010BDFFFEFFFCFDF7FFC004230140AF
:102DA000E030FCFF00200140FFFD3FFF0246002015
:102DB00013680B400BB1012000E000207047CA43AC
:102DC0000260704770B502460020002300240B12F9
:102DD000556801268E4005EA060415681D4015B1A8
:102DE0000CB1012000E0002070BD00220A12D34384
:102DF0000360704710B50446FE48844209D10121A2
:102E0000480601F031FD00214FF0007001F02CFD6B
:102E100008E00121880601F027FD00214FF08060C5
:102E200001F022FD10BD30B50246002000231468D9
:102E300024F002041460146844F00104146000E0FB
:102E40005B1C546804F001041CB94FF6FF74A342E4
:102E5000F6D1546804F001040CB900206CE08C79C0
:102E6000012C04D1146844F08004146003E0146859
:102E700024F080041460CC79012C04D1146844F04F
:102E80004004146003E0146824F0400414600C7AD9
:102E9000012C04D1146844F02004146003E0146889
:102EA00024F0200414604C7A012C04D1146844F0FE
:102EB0001004146003E0146824F0100414608C7A89
:102EC000012C04D1146844F00804146003E0146871
:102ED00024F008041460CC7A012C04D1146844F066
:102EE0000404146003E0146824F0040414608C7873
:102EF000A407CD7844EA05640D7944EA05444D7988
:102F000044EA05540D886D1E2C43D461146824F0E6
:102F100001041460002300E05B1C546804F0010409
:102F20001CB14FF6FF74A342F6D1546804F00104BB
:102F30000CB1002000E0012030BD10B50021837AE3
:102F4000012202FA03F1AC4A126842F00102AA4BD4
:102F50001A60A94A1C3212688A43A74B1C331A60B4
:102F6000027BCAB9A44A0C3212688A43A24B0C33C2
:102F70001A604288C38842EA03439F4A4032847AF7
:102F800042F834300288838842EA03439A4A403246
:102F9000847A02EBC4025360027B012A19D1964A5B
:102FA0000C3212680A43944B0C331A60428803882F
:102FB00042EA0343904A4032847A42F83430C2886D
:102FC000838842EA03438C4A4032847A02EBC4028B
:102FD0005360C27A3AB9884A121D12688A43864BF6
:102FE0001B1D1A6006E0844A121D12680A43824BB8
:102FF0001B1D1A60028932B97F4A143212688A4353
:103000007D4B14331A600289012A06D17A4A1432A0
:1030100012680A43784B14331A60427B012A06D1A6
:10302000754A1C3212680A43734B1C331A60724A89
:10303000126822F00102704B1A6010BD00218171EC
:10304000C171017241728172C1728170C1700321BC
:1030500001710221417101210180704766490968AF
:1030600041F00101644A11601146096843F60E728D
:103070009143614A11601146096841EA00211160DB
:103080001146096821F001011160704721B1026801
:1030900042F48032026003E0026822F4803202606F
:1030A0007047E1B1026842F0800202604FF4C272E0
:1030B000125842F480734FF4C27213504FF4CA7224
:1030C000125842F480734FF4CA7213504FF4D27204
:1030D000125842F480734FF4D27213501BE002680E
:1030E00022F0800202604FF4C272125822F4807300
:1030F0004FF4C27213504FF4CA72125822F4807304
:103100004FF4CA7213504FF4D272125822F48073E3
:103110004FF4D2721350704710B5024600209368E6
:1031200003F08063B3F1806F00D110E0936803F087
:103130000063B3F1006F01D1012008E0936803F050
:103140008053B3F1805F01D1022000E00420042805
:1031500079D002F5C07303EB00131B6803F0010480
:1031600002F5C07303EB00131C600B7A7BB94B7A3A
:103170000C8843EA445302F5C07404EB001424683D
:10318000234302F5C07404EB0014236010E00B7AB3
:103190004C6843EAC4034C7A234302F5C07404EB41
:1031A00000142468234302F5C07404EB0014236068
:1031B0008B7A03F00F038B7202F5C07303EB0013DD
:1031C0005B6823F00F0402F5C07303EB00135C602F
:1031D00002F5C07303EB00135B688C7A234302F59E
:1031E000C07404EB001463608B7B1C064B7B44EAC9
:1031F000034403E000640040006600400B7B44EAA7
:103200000323CC7A234302F5C07404EB0014A360BB
:103210008B7C1C064B7C44EA03440B7C44EA03236E
:10322000CC7B234302F5C07404EB0014E36002F589
:10323000C07303EB00131B6843F0010402F5C07375
:1032400003EB00131C6010BD10B50246002321B132
:10325000012907D002290FD109E09068F94C00EA52
:1032600004030BE09068F84C00EA040306E0906861
:10327000F64C00EA040301E0002300BF00BFF44C59
:10328000181BA34216D007DC83B16FF0806018448E
:1032900070B1022818D111E0B0F5007F10D0ED4CCC
:1032A000204448B1B0F5003F0ED10BE002230DE001
:1032B00000230BE0002309E0002307E0012305E0E1
:1032C000012303E0012301E0002300BF00BFD8B2C7
:1032D00010BD21B1012907D002290FD109E0826870
:1032E00042F0800282600AE0826842F4004282601A
:1032F00005E0826842F40002826000E000BF00BF87
:10330000704710B500F5D87303EB01131B6803F089
:1033100004031372137A53B900F5D87303EB011346
:103320001B6840F2FF7404EA5353136009E000F590
:10333000D87303EB01131B686FF0604404EAD303F6
:10334000536000F5D87303EB01131B6803F002030D
:10335000537200F5D87303EB01135B6803F00F039E
:10336000937200F5D87303EB01135B681B0AD374E7
:1033700000F5D87303EB01139B68D37200F5D87383
:1033800003EB01139B681C0A147300F5D87303EB5D
:1033900001139B681C0C547300F5D87303EB0113E5
:1033A0009B681B0E937300F5D87303EB0113DB6866
:1033B000D37300F5D87303EB0113DB681C0A147494
:1033C00000F5D87303EB0113DB681C0C547400F593
:1033D000D87303EB0113DB681B0E937421B9C36828
:1033E00043F02003C36003E0036943F0200303615B
:1033F00010BD21B9C26842F02002C26003E0026938
:1034000042F02002026170470246002019B9D368D9
:1034100003F0030006E0012903D1136903F0030060
:1034200000E00020704710B502460B4600204FF622
:10343000FF71BBB9146824F0020444F00104146065
:1034400000E0491E546804F00304012C01D0002957
:10345000F7D1546804F00304012C01D0002032E0BD
:10346000012030E0012B13D1146824F00304146010
:1034700000E0491E546804F003040CB10029F8D19F
:10348000546804F003040CB100201CE001201AE091
:10349000022B17D1146824F0010444F002041460D4
:1034A00000E0491E546804F00304022C01D00029F6
:1034B000F7D1546804F00304022C01D0002002E08C
:1034C000012000E0002010BD014600200A6822F023
:1034D000010242F002020A604A6802F00302022A74
:1034E00000D10120704701464FF6FF7200200B68A3
:1034F00023F002030B6000E0521E4B6803F002034E
:10350000022B01D1002AF7D14B6803F00203022BF2
:1035100000D001207047014600208A6902F0700047
:103520007047014600208A69100E7047014600204E
:103530008A69C2F3074070471AB143690B4343617C
:1035400002E043698B434361704710B50246002097
:1035500001F4700343B19369C1F3130423400BB129
:1035600001202DE000202BE001F0807343B153686F
:10357000C1F3130423400BB1012021E000201FE020
:1035800001F0006343B19368C1F3130423400BB10E
:10359000012015E0002013E001F0007343B1D3686F
:1035A000C1F3130423400BB1012009E0002007E020
:1035B0001369C1F3130423400BB1012000E0002084
:1035C00010BD0022244B994202D10023836111E0F7
:1035D000C1F3130201F000730BB1C2600AE001F005
:1035E00080630BB1026105E001F000630BB1826002
:1035F00000E0426070470246002002EA01030BB17E
:10360000012000E00020704770B504460D460026FA
:1036100060692840002872D0B5F5807F69D01DDC34
:10362000082D42D006DC012D2DD0022D31D0042DE5
:103630007FD134E0102D3ED0202D42D0402D78D1C6
:1036400045E0000003000004000300080000031030
:10365000000100080001FFF77000F030B5F5004FE1
:1036600061D009DCB5F5007F4AD0B5F5806F4DD04B
:10367000B5F5006F5DD150E0B5F5803F2DD0B5F5C3
:10368000003F56D12FE0A0685549FFF7B4FF06462A
:1036900051E0E0680321FFF7AEFF06464BE0E0682B
:1036A0000821FFF7A8FF064645E0E0681021FFF774
:1036B000A2FF06463FE020690321FFF79CFF064674
:1036C00039E020690821FFF796FF064633E02069BC
:1036D0001021FFF790FF06462DE060680821FFF7F4
:1036E0008AFF064627E060681021FFF784FF064640
:1036F00021E0A0690121FFF77EFF06461BE01BE0E9
:10370000A0690221FFF777FF064614E0A0690421B3
:10371000FFF771FF06460EE00BE0A0697021FFF78E
:103720006AFF064607E060680421FFF764FF06466B
:1037300001E0002600BF00E00026304670BDB1F574
:10374000007F3AD00FDC202928D006DC01291CD0CC
:1037500004291DD0082940D11DE0402921D0B1F510
:10376000807F3AD126E0B1F5004F31D006DCB1F5CB
:10377000806F25D0B1F5006F2FD124E0B1F5803FE7
:1037800012D0B1F5003F28D111E0154A826025E042
:103790000822C26022E01022C2601FE008220261FB
:1037A0001CE01022026119E00822426016E010229B
:1037B000426013E00422426010E0042242600DE007
:1037C000042242600AE0002282610422426005E095
:1037D000002282610422426000E000BF00BF704707
:1037E00001010100016821F0010101600021016077
:1037F00041608160C160016121214161DB498842F2
:1038000004D13D21D94A103A91608CE0D749183152
:10381000884205D14FF47461D44A103A916082E035
:10382000D2493031884205D14FF47411CF4A103A51
:10383000916078E0CD494831884205D14FF07461FC
:10384000CA4A103A91606EE0C8496031884204D19A
:10385000C749C64A103AD16065E0C4497831884208
:1038600004D1C449C14A103AD1605CE0BF499031EB
:10387000884204D1C049BD4A103AD16053E0BB49E7
:10388000A831884205D14FF03D51B84A103AD16075
:1038900049E0BA49884204D13D21B84A083A11604A
:1038A00041E0B6491831884205D14FF47461B34AFA
:1038B000083A116037E0B1493031884205D14FF400
:1038C0007411AE4A083A11602DE0AC494831884283
:1038D00005D14FF07461A94A083A116023E0A74965
:1038E0006031884204D1A249A44A121F11601AE033
:1038F000A2497831884204D19E49A04A121F116022
:1039000011E09E499031884204D19B499B4A121F85
:10391000116008E09949A831884204D14FF03D5127
:10392000964A121F1160704710B500220268944B2E
:103930001A40CC680B6823434C6923438C692343AA
:10394000CC6923430C6A23434C6A23438C6A234388
:103950004C6B23438C6B23431A430260426922F071
:103960000702D1E90B3423431A4342610B694360D8
:103970004B6883608B68C36010BD002101604160AB
:103980008160C160016141618161C1610162416227
:103990008162C162016341638163704721B1026842
:1039A00042F00102026003E0026822F001020260BC
:1039B000704721B1026842F40042026003E00268ED
:1039C00022F400420260704721B1026842F02002F6
:1039D000026003E0026822F020020260704741604A
:1039E00070470146486880B2704722B1036843F4CB
:1039F0000023036003E0036823F4002303600161F4
:103A0000704721B1026842F48022026003E002683C
:103A100022F48022026070470AB1016100E0C160B7
:103A20007047014600200A6802F400220AB1012012
:103A300000E000207047014600200A6802F0010201
:103A40000AB1012000E000207047014600204A69C9
:103A500002F03800704730B503460A4600200024C3
:103A6000464DAB4202D24149103901E04349103979
:103A700002F000550DB14C6800E00C68414D2C403F
:103A800004EA02050DB1012000E0002030BD02462D
:103A90003A4B9A4202D23548103801E03748103884
:103AA00001F000531BB1374B0B40C36002E0354BB4
:103AB0000B408360704710B501F080034BB122B119
:103AC000436943F08003436103E0436923F08003CB
:103AD000436180290BD02AB1036801F01E042343FF
:103AE000036004E0036801F01E04A343036010BDFB
:103AF00070B50246002000240025204EB24202D2BA
:103B00001A4B103B01E01D4B103B1F4E0E4036B1CF
:103B10001E2606EAD124166806EA040502E0566964
:103B200006F0800501F000560EB15C6800E01C68EC
:103B3000144E344004EA010616B10DB1012000E034
:103B4000002070BD02460D4B9A4202D20748103841
:103B500001E00A48103801F000531BB1094B0B403B
:103B6000C36002E0074B0B40836070471060024067
:103B70003D000020400F002000003D201064024066
:103B80003F801CF07D0F7D0F3C0F3C0FF74A1070FB
:103B9000704730B1F549096841F48071F34A11600A
:103BA00005E0F249096821F48071F04A116070471C
:103BB00030B1EE49096841F40071EC4A116005E04A
:103BC000EA49096821F40071E84A1160704730B190
:103BD000E649096841F48061E44A116005E0E3497F
:103BE000096821F48061E14A11607047DF4800688C
:103BF00040F40060DD4908607047DC48006840F42C
:103C00008050DA4908607047D8481030006800F0EA
:103C1000004028B1D648D549091D0860D54808603C
:103C20007047D2481030006840F00040CF49103152
:103C3000086070470820CD490C31096801F48031D3
:103C4000B1F5803F01D1012018E0C8490C31096865
:103C500001F0100109B1052010E0C4490C310968D8
:103C600001F0EF0109B1062008E0C0490C310968F4
:103C700001F0020109B1072000E00820704708B5F3
:103C800008200090FFF7D6FF009002E0FFF7D2FF78
:103C900000909DF800000128F8D09DF8000008BDB4
:103CA00070B504460A460026082502B909E0012A33
:103CB00001D1160205E0022A01D1160201E04FF4FB
:103CC0004076FFF7DCFF0546082D2DD1A7481030C0
:103CD000006820F44070A54910310860084600686B
:103CE000304308600846006820F0F8000860084685
:103CF000006844F0020108439C49103108600846FE
:103D0000006840F480300860FFF7B9FF0546974827
:103D10001030006820F00200944910310860084615
:103D2000006820F0F8000860284670BD30B50246F3
:103D300000250824FFF7A3FF044602B909E0012A81
:103D400001D1150205E0022A01D1150201E04FF46C
:103D50004075082C20D185481030006820F4407050
:103D60008249103108600846006828430860084608
:103D7000006840F0040008600846006840F48030A5
:103D80000860FFF77CFF044678481030006820F098
:103D90000400764910310860204630BD70B50646F3
:103DA00014461D460822FFF76AFF0246082A1ED164
:103DB0006E481030006820F440706C491031086083
:103DC0000846006840F4407008600846006840F00B
:103DD0000100086034607560FFF751FF02466348D8
:103DE0001030006820F00100604910310860104672
:103DF00070BD30B502460C460825FFF740FF05466A
:103E0000082D1DD159481030006820F440705749E2
:103E1000103108600846006840F4007008600846E9
:103E2000006840F0010008601460FFF728FF0546B5
:103E30004E481030006820F001004C4910310860F5
:103E4000284630BD30B502460C460825FFF717FF5F
:103E50000546082D1DD145481030006820F44070FB
:103E60004249103108600846006840F480700860DC
:103E70000846006840F0010008601480FFF7FFFE6C
:103E800005463A481030006820F0010037491031EB
:103E90000860284630BD30B502460C460825FFF7BD
:103EA000EEFE0546082D1BD130481030006820F486
:103EB00040702E49103108600846006808600846C6
:103EC000006840F0010008601470FFF7D8FE054656
:103ED00026481030006820F00100244910310860A5
:103EE000284630BD21481430006800F0010028B198
:103EF00021481E49083108602048086070471B4867
:103F00001430006840F0010018491431086070470F
:103F100030B502460C460825FFF7B1FE0546082DD0
:103F200010D13CB111481630008890430F4916312A
:103F3000088007E00D481630008891B208430B490D
:103F40001631088030BD30B502460C460825FFF713
:103F500096FE0546082D19D194B104481A30008800
:103F6000904302491A31088010E00000003C0240F2
:103F700023016745AB89EFCD3B2A19087F6E5D4C65
:103F80004148008891B208433F49088030BD10B5D0
:103F900002460824FFF773FE0446082C02D13A4873
:103FA000401F027010BDF0B504460D46FF260827DD
:103FB000FFF765FE0746082F0BD13348801F0078B6
:103FC00000F00F0645EA0600104320432E49891FE2
:103FD0000870F0BD2C49891F097821F00C012A4A8C
:103FE000921F11701146097801431170704700B596
:103FF00008222548801F007840F002002249891FCE
:104000000870FFF73CFE0246104600BD1E48801FA8
:104010000068C0F3471070471B48001F00887047B6
:1040200019480088704700201749491F0978AA29B4
:1040300001D0012000E0002070471348801F007865
:1040400000F00C00704739B10F4A0A3A1268024377
:104050000D4B0A3B1A6006E00B4A0A3A126882438B
:10406000094B0A3B1A60704701460020064A0E3A87
:1040700012680A400AB1012000E00020704702499E
:104080000E390860704700001A3C024010B5044623
:104090008C48844208D10121084600F09DFB002194
:1040A000012000F099FB5EE08748844208D101219D
:1040B000022000F091FB0021022000F08DFB52E075
:1040C0008248844208D10121042000F085FB0021B0
:1040D000042000F081FB46E07D48844208D10121A4
:1040E000082000F079FB0021082000F075FB3AE081
:1040F0007848844208D10121102000F06DFB002196
:10410000102000F069FB2EE07348844208D10121A1
:10411000202000F061FB0021202000F05DFB22E068
:104120006E48844208D10121402000F055FB002157
:10413000402000F051FB16E06948844208D101217B
:10414000802000F049FB0021802000F045FB0AE0C0
:104150006448844207D10121801500F03DFB002115
:10416000A01500F039FB10BDF0B50A460021002370
:10417000002400BF3DE0012505FA01F3156805EABA
:1041800003049C4234D105684F000326BE40B5436A
:10419000056015794E00B540066835430560157910
:1041A000012D02D01579022D16D185684F00032606
:1041B000BE40B543856055794E00B54086683543AD
:1041C0008560456801268E40B5434560456896790F
:1041D0008E40B6B235434560C5684F000326BE40E9
:1041E000B543C560D5794E00B540C6683543C56056
:1041F000491C1029BFD3F0BD4FF6FF7101600021AB
:10420000017141718171C171704708B54FF48032FD
:104210000092009A0A430092009AC261C161009A1A
:10422000C261C2690092C269009208BD02460020C4
:1042300013690B400BB1012000E0002070470146DC
:10424000086980B270470246002053690B400BB1E9
:10425000012000E0002070470146486980B27047A5
:1042600001837047418370470AB1018300E04183B5
:1042700070474161704742694A4042617047F0B5FA
:10428000002300244D07ED0E02FA05F3CE1000F1D5
:10429000200555F826504E07F70E0F26BE40B543B1
:1042A000CF1000F1200646F82750CE1000F120056F
:1042B00055F8265045EA0304CE1000F1200545F8D4
:1042C0002640F0BD00000240000402400008024009
:1042D000000C02400010024000140240001802408E
:1042E000001C0240002002400E49086070470D4942
:1042F000486070470B49886070474AF6AA20094910
:10430000086070474CF6CC4006490860704701468B
:104310000020044AD2680A400AB1012000E00020CF
:10432000704700000030004010B50121080700F080
:104330009BFA00214FF0805000F096FA10BD3249F0
:104340000862704701460020304A106820F0E00003
:104350000843106070472C49086170472A49A03112
:10436000086070472849A431086070470146002062
:10437000264A106820F440400843106070472249E4
:104380004862704710B502460020204B186820F0A4
:104390000300104318601E4B1B6843F004031C4CC1
:1043A0002360012901D130BF00E020BF184B1B68FA
:1043B00023F00403164C236010BD1448006840F03D
:1043C0000400124908600846006840F002000860D6
:1043D0000F48006840F004000D49086000BF00BFAE
:1043E00030BF704701460020084A52680A400AB1AF
:1043F000012000E0002070470449096841EA80017B
:10440000024A11607047000000000E420070004038
:1044100010ED00E0F948006840F00100F74908603D
:104420000020F64908310860F4480068F449084063
:10443000F2490860F348091D0860F348EF498431E8
:104440000860EE48006820F48020EC4908600020F5
:10445000EA490C31086070470021E84A921C11704B
:1044600011460870704710B5014600220023002055
:104470004A11012A02D1E14C236808E0022A03D143
:10448000DE4C7034236802E0DC4C7434236801F0A5
:104490001F02012494401C400CB1012000E00020C8
:1044A00010BD38B5002000900024002500BF312049
:1044B000FFF7D9FF05460098401C00900098B0F522
:1044C000A06F01D0002DF2D03120FFF7CCFF08B152
:1044D000012400E00024204638BD01460020C74AE0
:1044E000106820F0F80040EAC10010607047C7492A
:1044F000086070470021C14A7032117011700128A4
:1045000002D004280AD104E00121BC4A70321170A3
:1045100005E00521B94A7032117000E000BF00BF0C
:104520007047BB490860704770B5049C41EA82152A
:104530000126C6EB530645EA0645054345EA0465F0
:10454000AE4E361D356070BDB049086670478201B9
:1045500042EA0172A94B84331A607047AB498866FE
:104560007047AA49C864704702460020A34B08332D
:10457000186820F0EC6042EA010318439F4B0833AF
:1045800018607047024600209C4B0833186820F0E2
:10459000784042EA01031843984B0833186070478B
:1045A00001460020954A0832106820F003000843B5
:1045B0001060704791480830006800F00C007047A8
:1045C000014600208D4A0832106820F0F0000843B0
:1045D0001060704701460020884A0832106820F4B5
:1045E000E05008431060704701460020834A0832BB
:1045F000106820F4604040EAC10010607047F0B5D8
:104600000021002200240225002602237B4F0837C8
:104610003F6807F00C0121B1042905D0082937D1E2
:1046200005E07C4F076036E07B4F076033E0734F57
:104630003F1D3F68C7F38056704F3F1D3F6807F02E
:104640003F036EB1744FB7FBF3F7DFF8B0C10CF165
:10465000040CDCF800C0CCF3881C07FB0CF40CE065
:104660006C4FB7FBF3F7DFF894C10CF1040CDCF8E6
:1046700000C0CCF3881C07FB0CF4604F3F1D3F6863
:10468000C7F301477F1C7D00B4FBF5F7076002E02C
:10469000604F076000BF00BF584F08373F6807F002
:1046A000F00109095D4F7A5C0768D7404760534FB6
:1046B00008373F6807F4E051890A584F7A5C476829
:1046C000D74087604D4F08373F6807F46041490B7A
:1046D000524F7A5C4768D740C760F0BD002100F4B4
:1046E0004072B2F5407F0AD1444A0832116821F481
:1046F000F8114B4A02401143404A083211603F4AC8
:1047000070321268C0F30B031A433C4B70331A60CB
:1047100070473F494439086070473D494039086057
:1047200070474049086070473F490860704739B199
:10473000324A303212680243304B30331A6006E09E
:104740002E4A3032126882432C4B30331A60704745
:1047500039B12A4A343212680243284B34331A6082
:1047600006E0264A343212688243244B34331A60FE
:10477000704739B1214A3832126802431F4B38332F
:104780001A6006E01D4A3832126882431B4B3833E8
:104790001A60704739B1194A403212680243174B08
:1047A00040331A6006E0154A403212688243134BC8
:1047B00040331A60704739B1104A443212680243DC
:1047C0000E4B44331A6006E00C4A443212688243AE
:1047D0000A4B44331A60704739B1084A10321268E4
:1047E0000243064B10331A6006E0044A1032126886
:1047F0008243024B10331A607047000000380240B9
:10480000FFFFF6FA1030002400300020000047427D
:10481000800E47420024F40000127A003501002087
:10482000FFFCFF0F5C014742E011474229B15E4A9D
:10483000126802435C4B1A6004E05B4A12688243D0
:10484000594B1A60704739B1574A121D126802431A
:10485000554B1B1D1A6006E0534A121D1268824315
:10486000514B1B1D1A60704739B14F4A0C32126808
:1048700002434D4B0C331A6006E04B4A0C3212686F
:104880008243494B0C331A60704739B1464A1032A3
:1048900012680243444B10331A6006E0424A103259
:1048A00012688243404B10331A60704739B13E4A58
:1048B0003C32126802433C4B3C331A6006E03A4AF1
:1048C0003C3212688243384B3C331A60704739B12E
:1048D000354A403212680243334B40331A6006E0D7
:1048E000314A4032126882432F4B40331A6070477E
:1048F00039B12D4A4432126802432B4B44331A60BB
:1049000006E0294A443212688243274B44331A6036
:10491000704739B1244A4C3212680243224B4C335F
:104920001A6006E0204A4C32126882431E4B4C3318
:104930001A60704739B11C4A5032126802431A4B50
:1049400050331A6006E0184A503212688243164B00
:1049500050331A60704739B1134AD21F127802439C
:10496000114BDB1F1A7006E00F4AD21F12788243E8
:104970000D4BDB1F1A7070470B486030006840F029
:104980008070094960310860704701460020064A7E
:10499000083A12680A400AB1012000E0002070477E
:1049A0000149891F087070471438024010B5044649
:1049B000FE48844208D101210846FFF766FF002126
:1049C0000120FFF762FF9DE0B4F1804F08D1012183
:1049D0000846FFF749FF00210120FFF745FF91E05E
:1049E000F348844208D101210220FFF73DFF002156
:1049F0000220FFF739FF85E0EE48844208D101210B
:104A00000420FFF731FF00210420FFF72DFF79E09C
:104A1000E948844208D101210820FFF725FF002141
:104A20000820FFF721FF6DE0E448844208D101210E
:104A30001020FFF719FF00211020FFF715FF61E09C
:104A4000DF48844208D101212020FFF70DFF00211B
:104A50002020FFF709FF55E0DA48844208D1012100
:104A60000220FFF712FF00210220FFF70EFF49E0AE
:104A7000D548844209D101210804FFF706FF00212F
:104A80004FF48030FFF701FF3CE0D048844209D169
:104A900001214804FFF7F9FE00214FF40030FFF731
:104AA000F4FE2FE0CA48844209D101218804FFF7AF
:104AB000ECFE00214FF48020FFF7E7FE22E0C5481E
:104AC000844208D101214020FFF7CEFE0021402082
:104AD000FFF7CAFE16E0C048844208D101218020B9
:104AE000FFF7C2FE00218020FFF7BEFE0AE0BB48B0
:104AF000844207D101218015FFF7B6FE0021A015E1
:104B0000FFF7B2FE10BD00220288A84B98420ED0DB
:104B1000AC4B98420BD0B0F1804F08D0A44B9842D8
:104B200005D0A44B984202D0A34B984204D14FF633
:104B30008F731A404B881A43A04B984207D0A04B62
:104B4000984204D04FF6FF431A400B891A43028063
:104B50004B68C3620B880385944B984202D0994BF3
:104B6000984201D18B7A03860123838270474FF0EC
:104B7000FF314160002101800181418081727047D5
:104B80000185828270470A46002101884FF68F73A3
:104B9000194011430180704741627047C1627047FC
:104BA0000146486A70470146088D704721B1028866
:104BB00042F00202028004E002884FF6FD731A40C0
:104BC0000280704721B1028842F00402028004E0B2
:104BD00002884FF6FB731A400280704721B10288A9
:104BE00042F08002028004E002884FF67F731A4090
:104BF0000280704702884FF6F7731A4002800288DD
:104C00000A430280704702884FF6FF431A40028031
:104C100002880A430280704721B1028842F00102F3
:104C2000028004E002884FF6FE731A40028070474B
:104C300070B5002400220023058C4FF6FE76354027
:104C40000584028C8388048B4FF68F752C40B51E2B
:104C50002C400D882C43751E2A408D892A434D888F
:104C60002A43524DA84202D0564DA84213D14FF6C6
:104C7000F7752A40CD892A434FF6FB752A408D8867
:104C80002A434FF6FF652B404FF6FF552B400D8A08
:104C90002B434D8A2B43838004838D6845630284B4
:104CA00070BD70B5002400220023058C4FF6EF760E
:104CB00035400584028C8388048B48F6FF752C40B0
:104CC0004FF6FF452C400D884FF6FF7606EA052586
:104CD0002C434FF6DF752A408D8906EA05152A43D5
:104CE0004D8806EA05152A43304DA84202D0354DBD
:104CF000A8421DD14FF67F752A40CD894FF6FF7629
:104D000006EA05152A434FF6BF752A408D8806EA44
:104D100005152A434FF6FF352B404FF2FF752B4008
:104D20000D8A06EA85052B434D8A06EA85052B4345
:104D3000838004838D688563028470BD70B5002410
:104D400000220023058C4FF6FF6635400584028C57
:104D50008388848B4FF68F752C404FF6FC752C4062
:104D60000D882C434FF6FF552A408D894FF6FF766C
:104D700006EA05252A434D8806EA05252A430B4DF8
:104D8000A84202D00F4DA84238D14FF2FF752A40F9
:104D9000CD894FF6FF7606EA05252A434FF6FF3503
:104DA0002A408D8806EA05252A4319E000000140C3
:104DB0000004004000080040000C004000100040CB
:104DC0000014004000040140004001400044014044
:104DD0000048014000180040001C00400020004036
:104DE0004EF6FF752B404DF6FF752B400D8A06EAF7
:104DF00005152B434D8A06EA05152B4383808483D2
:104E00008D68C563028470BD70B500220023002444
:104E1000058C4EF6FF7635400584038C8488828BA2
:104E200048F6FF752A404FF6FF452A400D884FF699
:104E3000FF7606EA05252A434DF6FF752B408D893E
:104E400006EA05352B434D8806EA05352B43FE4D12
:104E5000A84202D0FD4DA84208D14BF6FF752C4068
:104E60000D8A4FF6FF7606EA85152C4384808283EF
:104E70008D680564038470BD0021018041808180BC
:104E800081608181C18101824182704770B5034692
:104E9000002000241846183001258D40ACB21D8C2E
:104EA000A5431D8409B108290AD100EB61000568FA
:104EB0004FF68F76354005600568154305600FE0B5
:104EC0000D1FC5F34E052844056848F6FF763540AA
:104ED000056005684FF6FF7606EA02263543056051
:104EE00070BD4163704781637047C163704701645F
:104EF00070470A460021018B4FF68F73194011430A
:104F0000018370470A460021018B48F6FF73194060
:104F10004FF6FF7303EA02231943018370470A46E1
:104F20000021818B4FF68F731940114381837047A5
:104F30000A460021818B48F6FF7319404FF6FF7334
:104F400003EA02231943818370470A460021018B3B
:104F50004FF6F77319401143018370470A46002149
:104F6000018B4FF2FF7319404FF6FF7303EA0223E0
:104F70001943018370470A460021818B4FF6F7736E
:104F800019401143818370470A460021818B4FF2FB
:104F9000FF7319404FF6FF7303EA0223194381831D
:104FA00070470A460021018B4FF6FB7319401143ED
:104FB000018370470A460021018B4FF6FF331940E9
:104FC0004FF6FF7303EA02231943018370470A4631
:104FD0000021818B4FF6FB73194011438183704789
:104FE0000A460021818B4FF6FF3319404FF6FF73BD
:104FF00003EA02231943818370470A460021018B8B
:105000004FF67F7319401143018370470A46002110
:10501000018BC1F30E014FF6FF7303EA022319431C
:10502000018370470A460021818B4FF67F73194038
:105030001143818370470A460021818BC1F30E0121
:105040004FF6FF7303EA02231943818370470A4630
:105050000021018C4FF6FD73194011430184704704
:105060000A460021018C4FF6F77319401143018461
:1050700070470A460021018C4FF6DF7319404FF646
:10508000FF7303EA02131943018470470A460021A3
:10509000018C4FF67F7319404FF6FF7303EA02133A
:1050A0001943018470470A460021018C4FF6FF53D3
:1050B00019404FF6FF7303EA022319430184704736
:1050C0000A460021018C4FF2FF7319404FF6FF731F
:1050D00003EA02231943018470470A460021018C28
:1050E0004DF6FF7319404FF6FF7303EA023319437D
:1050F0000184704730B5002301248C40A3B2048C96
:105100009C430484048C02FA01F5ADB22C43048460
:1051100030BD30B5002304248C40A3B2048C9C43E2
:105120000484048C02FA01F5ADB22C43048430BD32
:10513000828B4FF2FF331A408283828B4FF6FF73CC
:1051400003EA01231A4382837047F0B50C461546E3
:10515000002100220026078C4EF6FF7C07EA0C0790
:105160000784818B028C4FF6FF7707EA043640F6FE
:10517000FF4739404FF6FF7707EA052739434FF6D7
:10518000FF7707EA0337394345F6FF773A4046F49D
:1051900080573A4381830284F0BD828B4FF6F373CC
:1051A0001A408283828B0A4382837047F0B50C4693
:1051B0001546002100220026078C4FF6FF6C07EAF7
:1051C0000C070784818B028C4FF6FF7707EA0426D1
:1051D0004FF60C7739404FF6FF7707EA03172F4356
:1051E00039434FF2FF573A4046F480773A43818380
:1051F0000284F0BD028B4FF2FF331A400283028B10
:105200004FF6FF7303EA01231A4302837047F0B598
:105210000C461546002100220026078C4FF6EF7C35
:1052200007EA0C070784018B028C4FF6FF7707EA29
:10523000041640F6FF4739404FF6FF7707EA033779
:1052400039434FF6FF7703E00000014000040140BE
:1052500007EA052739434FF65F773A4046F01007D3
:105260003A4301830284F0BD028B4FF6F3731A4078
:105270000283028B0A4302837047F0B50C46154641
:1052800000210022068C4FF6FE773E400684018BFB
:10529000028C4FF60C7631407E1C06EA03162E4334
:1052A00031434FF6F576324044F001063243018334
:1052B0000284F0BD70B505460C46208850B923899C
:1052C000A28861882846FFF7D8FFE1882846FFF7C3
:1052D000CBFF25E0208804280AD12389A288618891
:1052E0002846FFF794FFE1882846FFF783FF17E081
:1052F000208808280AD12389A28861882846FFF7D8
:1053000055FFE1882846FFF748FF09E02389A28876
:1053100061882846FFF719FFE1882846FFF708FF54
:1053200070BD002101804180012181800021C18068
:10533000018170472DE9F04105460C460026012702
:10534000608808B9022600E00026A088012801D163
:10535000022700E001272088A0B92389A28861885C
:105360002846FFF78AFFE1882846FFF77DFF23895B
:105370003A4631462846FFF74AFFE1882846FFF7BC
:1053800039FF13E02389A28861882846FFF73FFF91
:10539000E1882846FFF72EFF23893A463146284602
:1053A000FFF76BFFE1882846FFF75EFFBDE8F0815D
:1053B0000146486B70470146886B70470146C86BD1
:1053C00070470146086C70470A884B881A438B88DF
:1053D0001A43CB881A430B891A434B891A438B898A
:1053E0001A43A0F844207047002101804180818049
:1053F000C180018141818181704731B1B0F8442081
:1054000042F40042A0F8442005E0B0F84420C2F382
:105410000E02A0F84420704721B1828842F00402B5
:10542000828004E082884FF6FB731A4082807047C6
:1054300021B1828842F00102828004E082884FF626
:10544000FE731A40828070471AB183890B438381AF
:1054500002E083898B4383817047818270470246D3
:105460000020138A0B400BB1012000E000207047A0
:10547000CA430282704730B5024600200023002450
:10548000158A05EA0103958905EA010413B10CB1F7
:10549000012000E0002030BDCA430282704741EA8B
:1054A0000203A0F8483070471AB183890B43838107
:1054B00002E083898B438381704721B1828842F067
:1054C0000802828004E082884FF6F7731A408280D7
:1054D000704701894FF6F8721140018170470A4602
:1054E000002101894FF68F731940114301817047E4
:1054F00030B504460D4629462046FFF7F0FF2089C7
:1055000040F00700208130BD2DE9F04104460D46F2
:1055100016461F46602D06D13B46012231462046E5
:10552000FFF775FE05E03B46012231462046FFF7B6
:10553000A4FE29462046FFF7D2FF208940F007004D
:105540002081BDE8F08130B50C4600210189C9B247
:105550004FF6FF7505EA03251543254329430181CD
:1055600030BD2DE9F04105460E4617469846002409
:1055700043463A4631462846FFF7E5FF2C894FF669
:10558000F870044044F007044FF68F70044044F074
:1055900070042C81BDE8F081F0B504460D46164636
:1055A0001F463B46324629462046FFF7CCFF20895E
:1055B00040F480402081F0BD82884FF68F731A40FE
:1055C000828082880A438280704702894FF6F8738E
:1055D0001A40028102890A430281704702894FF60C
:1055E0007F731A40028102890A4302817047F0B535
:1055F0000C4615461E460021002200230189028B1D
:10560000038C4FF6F877394021434FF6FC473A4078
:1056100040F201173A434FF6DD773B404FF6FF77F4
:1056200007EA06172F433B43018102830384F0BD41
:1056300021B1828842F08002828004E082884FF6A5
:105640007F731A4082807047A0F8501070470000A6
:1056500010B50446FA48844208D101211020FFF712
:1056600014F900211020FFF710F957E0F5488442A3
:1056700009D101214804FFF7F7F800214FF4003069
:10568000FFF7F2F84AE0F048844209D1012188048A
:10569000FFF7EAF800214FF48020FFF7E5F83DE03E
:1056A000EA48844209D10121C804FFF7DDF800214E
:1056B0004FF40020FFF7D8F830E0E548844209D1E4
:1056C00001210805FFF7D0F800214FF48010FFF703
:1056D000CBF823E0DF48844208D101212020FFF7E6
:1056E000D4F800212020FFF7D0F817E0DA488442F0
:1056F00009D101218807FFF7B7F800214FF080405A
:10570000FFF7B2F80AE0D548844207D101214005ED
:10571000FFF7AAF800216005FFF7A6F810BD2DE9F4
:10572000FF4705460E460024A14600BFA046B089AB
:1057300000B100BF2C8A24F44054F08804432C822A
:10574000AC8941F20C608443B08831890843718987
:1057500008430443AC81AC8A24F44074B089044308
:10576000AC826846FEF74BFFB548854202D0B94887
:10577000854202D1DDF80C9001E0DDF80890A8899F
:1057800000F4004040B109EBC90000EB091031689A
:105790004900B0FBF1F707E009EBC90000EB091085
:1057A00031688900B0FBF1F76420B7FBF0F0040129
:1057B0002009642101FB1078A88900F4004040B161
:1057C000322000EBC800B0FBF1F000F0070004430A
:1057D00008E0322000EB08106421B0FBF1F000F08B
:1057E0000F0004432C81BDE8FF874FF41651016080
:1057F00000218180C18001810C21418100218181B2
:10580000704710B502460020108A20F470600B88A3
:105810004C8823438C882343CC882343184310822D
:1058200010BD0021018041808180C180704721B17D
:10583000828942F40052828104E082894DF6FF732E
:105840001A4082817047028B02F47F420283028BEE
:105850000A430283704721B1828942F40042828167
:1058600003E08289C2F30E028281704721B1828AED
:1058700042F40062828204E0828A4FF2FF731A408F
:1058800082827047C1F3080282807047014688888F
:10589000C0F308007047028A4FF6F0731A40028284
:1058A000028A0A430282704721B1828942F00202D1
:1058B000828104E082894FF6FD731A40828170472D
:1058C00082894FF2FF731A40828182890A43828162
:1058D0007047028A4FF6DF731A400282028A0A4337
:1058E0000282704721B1028A42F48042028204E0BF
:1058F000028A4BF6FF731A4002827047818941F099
:1059000001018181704721B1828A42F008028282BE
:1059100004E0828A4FF6F7731A4082827047028B46
:10592000D2B20283028B42EA01220283704721B184
:10593000828A42F02002828204E0828A4FF6DF737C
:105940001A408282704721B1828A42F0100282821C
:1059500004E0828A4FF6EF731A4082827047828A8F
:105960004FF6FB731A408282828A0A438282704712
:1059700021B1828A42F00202828204E0828A4FF6DA
:10598000FD731A40828270471AB1838A0B43838267
:1059900002E0838A8B4383827047F0B5034600247C
:1059A00000260025002040F66A17B94200D100BF4A
:1059B0001846C1F3421401F01F06012707FA06F545
:1059C000012C01D10C3004E0022C01D1103000E098
:1059D00014301AB107682F43076002E00768AF432D
:1059E0000760F0BD02460020B1F5007F00D100BF86
:1059F00013880B400BB1012000E00020704701F438
:105A00000072B2F5007F00D100BFCA430280704728
:105A100070B50246002400230025002040F66A16D7
:105A2000B14200D100BFC1F3421501F01F030126AE
:105A300006FA03F3012D13D19689334017E00000D5
:105A4000001001400044004000480040004C00406D
:105A5000005000400014014000780040007C0040ED
:105A6000022D02D1168A334001E0968A33400C128F
:105A7000012606FA04F41688344013B10CB1012053
:105A800000E0002070BD10B50022002340F66A142B
:105A9000A14200D100BF0A1201249440A3B2DC430A
:105AA000048010BD0CB5002001900090764800687D
:105AB00040F480307449086000BF7348006800F407
:105AC000003000900198401C0190009818B901988E
:105AD000B0F5A06FF1D16C48006800F4003010B14F
